{
  "address": "0xc5a5C42992dECbae36851359345FE25997F5C42d",
  "abi": [
    {
      "inputs": [
        {
          "internalType": "address",
          "name": "_lpToken",
          "type": "address"
        },
        {
          "internalType": "address",
          "name": "_rewardToken",
          "type": "address"
        },
        {
          "internalType": "uint256",
          "name": "_rewardRate",
          "type": "uint256"
        }
      ],
      "stateMutability": "nonpayable",
      "type": "constructor"
    },
    {
      "inputs": [
        {
          "internalType": "address",
          "name": "account",
          "type": "address"
        }
      ],
      "name": "balanceOf",
      "outputs": [
        {
          "internalType": "uint256",
          "name": "",
          "type": "uint256"
        }
      ],
      "stateMutability": "view",
      "type": "function"
    },
    {
      "inputs": [
        {
          "internalType": "address",
          "name": "account",
          "type": "address"
        }
      ],
      "name": "earned",
      "outputs": [
        {
          "internalType": "uint256",
          "name": "",
          "type": "uint256"
        }
      ],
      "stateMutability": "view",
      "type": "function"
    },
    {
      "inputs": [],
      "name": "exit",
      "outputs": [],
      "stateMutability": "nonpayable",
      "type": "function"
    },
    {
      "inputs": [],
      "name": "getReward",
      "outputs": [],
      "stateMutability": "nonpayable",
      "type": "function"
    },
    {
      "inputs": [],
      "name": "lpToken",
      "outputs": [
        {
          "internalType": "contract IERC20",
          "name": "",
          "type": "address"
        }
      ],
      "stateMutability": "view",
      "type": "function"
    },
    {
      "inputs": [],
      "name": "rewardToken",
      "outputs": [
        {
          "internalType": "contract IERC20",
          "name": "",
          "type": "address"
        }
      ],
      "stateMutability": "view",
      "type": "function"
    },
    {
      "inputs": [
        {
          "internalType": "uint256",
          "name": "amount",
          "type": "uint256"
        }
      ],
      "name": "stake",
      "outputs": [],
      "stateMutability": "nonpayable",
      "type": "function"
    },
    {
      "inputs": [],
      "name": "totalSupply",
      "outputs": [
        {
          "internalType": "uint256",
          "name": "",
          "type": "uint256"
        }
      ],
      "stateMutability": "view",
      "type": "function"
    },
    {
      "inputs": [
        {
          "internalType": "uint256",
          "name": "amount",
          "type": "uint256"
        }
      ],
      "name": "withdraw",
      "outputs": [],
      "stateMutability": "nonpayable",
      "type": "function"
    }
  ],
  "transactionHash": "0x7c0c7ffb4be3c2511215ff283bb9b816946ba1f8ad261e01fae16572d53eb0f8",
  "args": [
    "0x09635F643e140090A9A8Dcd712eD6285858ceBef",
    "0x7a2088a1bFc9d81c55368AE168C2C02570cB814F",
    100
  ],
  "solcInputHash": "29c097734f195176561e60c2670ea13c",
  "bytecode": "0x608060405234801561001057600080fd5b50604051610a73380380610a738339818101604052606081101561003357600080fd5b5080516020820151604090920151600080546001600160a01b039384166001600160a01b03199182161790915560018054939094169216919091179091556004556109f0806100836000396000f3fe608060405234801561001057600080fd5b50600436106100925760003560e01c80635fcbd285116100665780635fcbd285146100fe57806370a0823114610122578063a694fc3a14610148578063e9fad8ee14610165578063f7c618c11461016d57610092565b80628cc2621461009757806318160ddd146100cf5780632e1a7d4d146100d75780633d18b912146100f6575b600080fd5b6100bd600480360360208110156100ad57600080fd5b50356001600160a01b0316610175565b60408051918252519081900360200190f35b6100bd61019e565b6100f4600480360360208110156100ed57600080fd5b50356101a4565b005b6100f46101fc565b61010661031e565b604080516001600160a01b039092168252519081900360200190f35b6100bd6004803603602081101561013857600080fd5b50356001600160a01b031661032d565b6100f46004803603602081101561015e57600080fd5b5035610348565b6100f461039e565b6101066103b9565b60006101986103e861019260045461018c8661032d565b906103c8565b90610428565b92915050565b60025490565b6002546101b1908261046a565b600255336000908152600360205260409020546101ce908261046a565b3360008181526003602052604081209290925590546101f9916001600160a01b0390911690836104ac565b50565b600061020733610175565b905080156101f957600154604080516370a0823160e01b815230600482015290516001600160a01b03909216916370a0823191602480820192602092909190829003018186803b15801561025a57600080fd5b505afa15801561026e573d6000803e3d6000fd5b505050506040513d602081101561028457600080fd5b505181111561030757600154604080516370a0823160e01b815230600482015290516001600160a01b03909216916370a0823191602480820192602092909190829003018186803b1580156102d857600080fd5b505afa1580156102ec573d6000803e3d6000fd5b505050506040513d602081101561030257600080fd5b505190505b6001546101f9906001600160a01b031633836104ac565b6000546001600160a01b031681565b6001600160a01b031660009081526003602052604090205490565b6002546103559082610503565b600255336000908152600360205260409020546103729082610503565b3360008181526003602052604081209290925590546101f9916001600160a01b0390911690308461055d565b6103af6103aa3361032d565b6101a4565b6103b76101fc565b565b6001546001600160a01b031681565b6000826103d757506000610198565b828202828482816103e457fe5b04146104215760405162461bcd60e51b81526004018080602001828103825260218152602001806109706021913960400191505060405180910390fd5b9392505050565b600061042183836040518060400160405280601a81526020017f536166654d6174683a206469766973696f6e206279207a65726f0000000000008152506105bd565b600061042183836040518060400160405280601e81526020017f536166654d6174683a207375627472616374696f6e206f766572666c6f77000081525061065f565b604080516001600160a01b038416602482015260448082018490528251808303909101815260649091019091526020810180516001600160e01b031663a9059cbb60e01b1790526104fe9084906106b9565b505050565b600082820183811015610421576040805162461bcd60e51b815260206004820152601b60248201527f536166654d6174683a206164646974696f6e206f766572666c6f770000000000604482015290519081900360640190fd5b604080516001600160a01b0380861660248301528416604482015260648082018490528251808303909101815260849091019091526020810180516001600160e01b03166323b872dd60e01b1790526105b79085906106b9565b50505050565b600081836106495760405162461bcd60e51b81526004018080602001828103825283818151815260200191508051906020019080838360005b8381101561060e5781810151838201526020016105f6565b50505050905090810190601f16801561063b5780820380516001836020036101000a031916815260200191505b509250505060405180910390fd5b50600083858161065557fe5b0495945050505050565b600081848411156106b15760405162461bcd60e51b815260206004820181815283516024840152835190928392604490910191908501908083836000831561060e5781810151838201526020016105f6565b505050900390565b606061070e826040518060400160405280602081526020017f5361666545524332303a206c6f772d6c6576656c2063616c6c206661696c6564815250856001600160a01b031661076a9092919063ffffffff16565b8051909150156104fe5780806020019051602081101561072d57600080fd5b50516104fe5760405162461bcd60e51b815260040180806020018281038252602a815260200180610991602a913960400191505060405180910390fd5b60606107798484600085610781565b949350505050565b6060824710156107c25760405162461bcd60e51b815260040180806020018281038252602681526020018061094a6026913960400191505060405180910390fd5b6107cb856108dd565b61081c576040805162461bcd60e51b815260206004820152601d60248201527f416464726573733a2063616c6c20746f206e6f6e2d636f6e7472616374000000604482015290519081900360640190fd5b60006060866001600160a01b031685876040518082805190602001908083835b6020831061085b5780518252601f19909201916020918201910161083c565b6001836020036101000a03801982511681845116808217855250505050505090500191505060006040518083038185875af1925050503d80600081146108bd576040519150601f19603f3d011682016040523d82523d6000602084013e6108c2565b606091505b50915091506108d28282866108e3565b979650505050505050565b3b151590565b606083156108f2575081610421565b8251156109025782518084602001fd5b60405162461bcd60e51b815260206004820181815284516024840152845185939192839260440191908501908083836000831561060e5781810151838201526020016105f656fe416464726573733a20696e73756666696369656e742062616c616e636520666f722063616c6c536166654d6174683a206d756c7469706c69636174696f6e206f766572666c6f775361666545524332303a204552433230206f7065726174696f6e20646964206e6f742073756363656564a26469706673582212205f72c9dac1d574978b5822a3de7ec3bd3c17ddc4745640f81098ff0cfc9bd29f64736f6c634300060c0033",
  "devdoc": {
    "kind": "dev",
    "methods": {},
    "version": 1
  },
  "userdoc": {
    "kind": "user",
    "methods": {},
    "version": 1
  },
  "storageLayout": {
    "storage": [
      {
        "astId": 4417,
        "contract": "contracts/metavault/mock/MockDRewards.sol:MockDRewards",
        "label": "lpToken",
        "offset": 0,
        "slot": "0",
        "type": "t_contract(IERC20)799"
      },
      {
        "astId": 4419,
        "contract": "contracts/metavault/mock/MockDRewards.sol:MockDRewards",
        "label": "rewardToken",
        "offset": 0,
        "slot": "1",
        "type": "t_contract(IERC20)799"
      },
      {
        "astId": 4421,
        "contract": "contracts/metavault/mock/MockDRewards.sol:MockDRewards",
        "label": "_totalSupply",
        "offset": 0,
        "slot": "2",
        "type": "t_uint256"
      },
      {
        "astId": 4425,
        "contract": "contracts/metavault/mock/MockDRewards.sol:MockDRewards",
        "label": "_balances",
        "offset": 0,
        "slot": "3",
        "type": "t_mapping(t_address,t_uint256)"
      },
      {
        "astId": 4427,
        "contract": "contracts/metavault/mock/MockDRewards.sol:MockDRewards",
        "label": "rewardRate",
        "offset": 0,
        "slot": "4",
        "type": "t_uint256"
      }
    ],
    "types": {
      "t_address": {
        "encoding": "inplace",
        "label": "address",
        "numberOfBytes": "20"
      },
      "t_contract(IERC20)799": {
        "encoding": "inplace",
        "label": "contract IERC20",
        "numberOfBytes": "20"
      },
      "t_mapping(t_address,t_uint256)": {
        "encoding": "mapping",
        "key": "t_address",
        "label": "mapping(address => uint256)",
        "numberOfBytes": "32",
        "value": "t_uint256"
      },
      "t_uint256": {
        "encoding": "inplace",
        "label": "uint256",
        "numberOfBytes": "32"
      }
    }
  }
}