{
  "address": "0xa513E6E4b8f2a923D98304ec87F64353C4D5C853",
  "abi": [
    {
      "inputs": [
        {
          "internalType": "contract IERC20",
          "name": "_tokenDAI",
          "type": "address"
        },
        {
          "internalType": "contract IERC20",
          "name": "_tokenUSDC",
          "type": "address"
        },
        {
          "internalType": "contract IERC20",
          "name": "_tokenUSDT",
          "type": "address"
        },
        {
          "internalType": "contract IERC20",
          "name": "_token3CRV",
          "type": "address"
        }
      ],
      "stateMutability": "nonpayable",
      "type": "constructor"
    },
    {
      "inputs": [
        {
          "internalType": "uint256",
          "name": "",
          "type": "uint256"
        }
      ],
      "name": "PRECISION_MUL",
      "outputs": [
        {
          "internalType": "uint256",
          "name": "",
          "type": "uint256"
        }
      ],
      "stateMutability": "view",
      "type": "function"
    },
    {
      "inputs": [
        {
          "internalType": "uint256",
          "name": "",
          "type": "uint256"
        }
      ],
      "name": "RATE",
      "outputs": [
        {
          "internalType": "uint256",
          "name": "",
          "type": "uint256"
        }
      ],
      "stateMutability": "view",
      "type": "function"
    },
    {
      "inputs": [
        {
          "internalType": "uint256[3]",
          "name": "amounts",
          "type": "uint256[3]"
        },
        {
          "internalType": "uint256",
          "name": "min_mint_amount",
          "type": "uint256"
        }
      ],
      "name": "add_liquidity",
      "outputs": [],
      "stateMutability": "nonpayable",
      "type": "function"
    },
    {
      "inputs": [
        {
          "internalType": "uint256",
          "name": "_index",
          "type": "uint256"
        }
      ],
      "name": "balances",
      "outputs": [
        {
          "internalType": "uint256",
          "name": "",
          "type": "uint256"
        }
      ],
      "stateMutability": "view",
      "type": "function"
    },
    {
      "inputs": [
        {
          "internalType": "uint256[3]",
          "name": "amounts",
          "type": "uint256[3]"
        },
        {
          "internalType": "bool",
          "name": "",
          "type": "bool"
        }
      ],
      "name": "calc_token_amount",
      "outputs": [
        {
          "internalType": "uint256",
          "name": "",
          "type": "uint256"
        }
      ],
      "stateMutability": "view",
      "type": "function"
    },
    {
      "inputs": [
        {
          "internalType": "uint256",
          "name": "_token_amount",
          "type": "uint256"
        },
        {
          "internalType": "int128",
          "name": "i",
          "type": "int128"
        }
      ],
      "name": "calc_withdraw_one_coin",
      "outputs": [
        {
          "internalType": "uint256",
          "name": "",
          "type": "uint256"
        }
      ],
      "stateMutability": "view",
      "type": "function"
    },
    {
      "inputs": [
        {
          "internalType": "int128",
          "name": "i",
          "type": "int128"
        },
        {
          "internalType": "int128",
          "name": "j",
          "type": "int128"
        },
        {
          "internalType": "uint256",
          "name": "dx",
          "type": "uint256"
        },
        {
          "internalType": "uint256",
          "name": "min_dy",
          "type": "uint256"
        }
      ],
      "name": "exchange",
      "outputs": [],
      "stateMutability": "nonpayable",
      "type": "function"
    },
    {
      "inputs": [
        {
          "internalType": "int128",
          "name": "i",
          "type": "int128"
        },
        {
          "internalType": "int128",
          "name": "j",
          "type": "int128"
        },
        {
          "internalType": "uint256",
          "name": "dx",
          "type": "uint256"
        }
      ],
      "name": "get_dy",
      "outputs": [
        {
          "internalType": "uint256",
          "name": "",
          "type": "uint256"
        }
      ],
      "stateMutability": "view",
      "type": "function"
    },
    {
      "inputs": [],
      "name": "get_virtual_price",
      "outputs": [
        {
          "internalType": "uint256",
          "name": "",
          "type": "uint256"
        }
      ],
      "stateMutability": "view",
      "type": "function"
    },
    {
      "inputs": [
        {
          "internalType": "uint256",
          "name": "",
          "type": "uint256"
        }
      ],
      "name": "inputTokens",
      "outputs": [
        {
          "internalType": "contract IERC20",
          "name": "",
          "type": "address"
        }
      ],
      "stateMutability": "view",
      "type": "function"
    },
    {
      "inputs": [
        {
          "internalType": "uint256",
          "name": "",
          "type": "uint256"
        },
        {
          "internalType": "uint256[3]",
          "name": "",
          "type": "uint256[3]"
        }
      ],
      "name": "remove_liquidity",
      "outputs": [],
      "stateMutability": "nonpayable",
      "type": "function"
    },
    {
      "inputs": [
        {
          "internalType": "uint256",
          "name": "_token_amount",
          "type": "uint256"
        },
        {
          "internalType": "int128",
          "name": "i",
          "type": "int128"
        },
        {
          "internalType": "uint256",
          "name": "min_amount",
          "type": "uint256"
        }
      ],
      "name": "remove_liquidity_one_coin",
      "outputs": [],
      "stateMutability": "nonpayable",
      "type": "function"
    },
    {
      "inputs": [],
      "name": "token3CRV",
      "outputs": [
        {
          "internalType": "contract IERC20",
          "name": "",
          "type": "address"
        }
      ],
      "stateMutability": "view",
      "type": "function"
    }
  ],
  "transactionHash": "0x0c9fa401dd09ddef7a49d9eeca7709b36981b684646c1b85207f5b17d177d825",
  "args": [
    "0xe7f1725E7734CE288F8367e1Bb143E90bb3F0512",
    "0x9fE46736679d2D9a65F0992F2272dE9f3c7fa6e0",
    "0xCf7Ed3AccA5a467e9e704C703E8D87F634fB0Fc9",
    "0x5FC8d32690cc91D4c39d9d3abcBD16989F875707"
  ],
  "solcInputHash": "29c097734f195176561e60c2670ea13c",
  "bytecode": "0x60e0604052612724608090815261270b60a05261270660c0526100269060009060036100eb565b50604080516060810182526001815264e8d4a510006020820181905291810191909152610056906003908161012f565b5034801561006357600080fd5b50604051610da8380380610da88339818101604052608081101561008657600080fd5b50805160208201516040830151606090930151600680546001600160a01b03199081166001600160a01b03958616179091556007805482169385169390931790925560088054948416948316949094179093556009805492909316911617905561017b565b826003810192821561011f579160200282015b8281111561011f578251829061ffff169055916020019190600101906100fe565b5061012b929150610166565b5090565b826003810192821561011f579160200282015b8281111561011f578251829064ffffffffff16905591602001919060010190610142565b5b8082111561012b5760008155600101610167565b610c1e8061018a6000396000f3fe608060405234801561001057600080fd5b50600436106100cf5760003560e01c80634903b0d11161008c578063a488680f11610066578063a488680f14610250578063bb7b8b8014610258578063cc2b27d714610260578063ecb586a514610286576100cf565b80634903b0d1146101e55780635e0d443f146102025780637dafa36414610233576100cf565b80630edc63dc146100d45780631a4d01d21461010d5780633191641c1461013b5780633883e1191461016a5780633df021241461018d5780634515cef3146101c4575b600080fd5b6100f1600480360360208110156100ea57600080fd5b50356102a8565b604080516001600160a01b039092168252519081900360200190f35b6101396004803603606081101561012357600080fd5b508035906020810135600f0b90604001356102c5565b005b6101586004803603602081101561015157600080fd5b5035610360565b60408051918252519081900360200190f35b6101586004803603608081101561018057600080fd5b5060608101351515610374565b610139600480360360808110156101a357600080fd5b508035600f90810b91602081013590910b90604081013590606001356103f9565b610139600480360360808110156101da57600080fd5b506060810135610491565b610158600480360360208110156101fb57600080fd5b5035610557565b6101586004803603606081101561021857600080fd5b508035600f90810b91602081013590910b90604001356105e2565b6101586004803603602081101561024957600080fd5b5035610649565b6100f1610656565b610158610665565b6101586004803603604081101561027657600080fd5b5080359060200135600f0b6106a0565b6101396004803603608081101561029c57600080fd5b508035906020016106d8565b600681600381106102b557fe5b01546001600160a01b0316905081565b60006102d184846106a0565b90508181101561031b576040805162461bcd60e51b815260206004820152601060248201526f18995b1bddc81b5a5b97d85b5bdd5b9d60821b604482015290519081900360640190fd5b600954610333906001600160a01b0316333087610717565b61035a338260068660ff166003811061034857fe5b01546001600160a01b03169190610771565b50505050565b6000816003811061036d57fe5b0154905081565b600080805b60038160ff1610156103ef576103e56103de6127106103d860038560ff16600381106103a157fe5b01546103d260008760ff16600381106103b657fe5b01548b8860ff16600381106103c757fe5b6020020135906107c3565b906107c3565b9061081c565b839061085e565b9150600101610379565b5090505b92915050565b60006104068585856105e2565b90508181101561044c576040805162461bcd60e51b815260206004820152600c60248201526b62656c6f77206d696e5f647960a01b604482015290519081900360640190fd5b61047533308560068960ff166003811061046257fe5b01546001600160a01b0316929190610717565b61048a338260068760ff166003811061034857fe5b5050505050565b6000805b60038160ff1610156104ed576104e36103de6127106103d860038560ff16600381106104bd57fe5b01546103d260008760ff16600381106104d257fe5b01548a8860ff16600381106103c757fe5b9150600101610495565b508181101561053b576040805162461bcd60e51b815260206004820152601560248201527418995b1bddc81b5a5b97db5a5b9d17d85b5bdd5b9d605a1b604482015290519081900360640190fd5b600954610552906001600160a01b03163383610771565b505050565b60006006826003811061056657fe5b0154604080516370a0823160e01b815230600482015290516001600160a01b03909216916370a0823191602480820192602092909190829003018186803b1580156105b057600080fd5b505afa1580156105c4573d6000803e3d6000fd5b505050506040513d60208110156105da57600080fd5b505192915050565b600061063f60038460ff16600381106105f757fe5b01546103d860008660ff166003811061060c57fe5b01546103d860038960ff166003811061062157fe5b01546103d260008b60ff166003811061063657fe5b015489906107c3565b90505b9392505050565b6003816003811061036d57fe5b6009546001600160a01b031681565b600061069b6175306103d8670de0b6b3a76400006103d2856002015461069560006001015460008001549061085e565b9061085e565b905090565b600061064260038360ff16600381106106b557fe5b01546103d860008560ff16600381106106ca57fe5b01546103d8876127106107c3565b6040805162461bcd60e51b815260206004820152600f60248201526e139bdd081a5b5c1b195b595b9d1959608a1b604482015290519081900360640190fd5b604080516001600160a01b0380861660248301528416604482015260648082018490528251808303909101815260849091019091526020810180516001600160e01b03166323b872dd60e01b17905261035a9085906108b8565b604080516001600160a01b038416602482015260448082018490528251808303909101815260649091019091526020810180516001600160e01b031663a9059cbb60e01b1790526105529084906108b8565b6000826107d2575060006103f3565b828202828482816107df57fe5b04146106425760405162461bcd60e51b8152600401808060200182810382526021815260200180610b9e6021913960400191505060405180910390fd5b600061064283836040518060400160405280601a81526020017f536166654d6174683a206469766973696f6e206279207a65726f000000000000815250610969565b600082820183811015610642576040805162461bcd60e51b815260206004820152601b60248201527f536166654d6174683a206164646974696f6e206f766572666c6f770000000000604482015290519081900360640190fd5b606061090d826040518060400160405280602081526020017f5361666545524332303a206c6f772d6c6576656c2063616c6c206661696c6564815250856001600160a01b0316610a0b9092919063ffffffff16565b8051909150156105525780806020019051602081101561092c57600080fd5b50516105525760405162461bcd60e51b815260040180806020018281038252602a815260200180610bbf602a913960400191505060405180910390fd5b600081836109f55760405162461bcd60e51b81526004018080602001828103825283818151815260200191508051906020019080838360005b838110156109ba5781810151838201526020016109a2565b50505050905090810190601f1680156109e75780820380516001836020036101000a031916815260200191505b509250505060405180910390fd5b506000838581610a0157fe5b0495945050505050565b606061063f848460008585610a1f85610b31565b610a70576040805162461bcd60e51b815260206004820152601d60248201527f416464726573733a2063616c6c20746f206e6f6e2d636f6e7472616374000000604482015290519081900360640190fd5b60006060866001600160a01b031685876040518082805190602001908083835b60208310610aaf5780518252601f199092019160209182019101610a90565b6001836020036101000a03801982511681845116808217855250505050505090500191505060006040518083038185875af1925050503d8060008114610b11576040519150601f19603f3d011682016040523d82523d6000602084013e610b16565b606091505b5091509150610b26828286610b37565b979650505050505050565b3b151590565b60608315610b46575081610642565b825115610b565782518084602001fd5b60405162461bcd60e51b81526020600482018181528451602484015284518593919283926044019190850190808383600083156109ba5781810151838201526020016109a256fe536166654d6174683a206d756c7469706c69636174696f6e206f766572666c6f775361666545524332303a204552433230206f7065726174696f6e20646964206e6f742073756363656564a26469706673582212207ef1bc012584356ec88b1ea10c6e6f5598b28ad54e2cf5280c4f69883f02eedb64736f6c634300060c0033",
  "devdoc": {
    "kind": "dev",
    "methods": {},
    "version": 1
  },
  "userdoc": {
    "kind": "user",
    "methods": {},
    "version": 1
  },
  "storageLayout": {
    "storage": [
      {
        "astId": 5502,
        "contract": "contracts/metavault/mock/MockStableSwap3Pool.sol:MockStableSwap3Pool",
        "label": "RATE",
        "offset": 0,
        "slot": "0",
        "type": "t_array(t_uint256)3_storage"
      },
      {
        "astId": 5510,
        "contract": "contracts/metavault/mock/MockStableSwap3Pool.sol:MockStableSwap3Pool",
        "label": "PRECISION_MUL",
        "offset": 0,
        "slot": "3",
        "type": "t_array(t_uint256)3_storage"
      },
      {
        "astId": 5514,
        "contract": "contracts/metavault/mock/MockStableSwap3Pool.sol:MockStableSwap3Pool",
        "label": "inputTokens",
        "offset": 0,
        "slot": "6",
        "type": "t_array(t_contract(IERC20)799)3_storage"
      },
      {
        "astId": 5516,
        "contract": "contracts/metavault/mock/MockStableSwap3Pool.sol:MockStableSwap3Pool",
        "label": "token3CRV",
        "offset": 0,
        "slot": "9",
        "type": "t_contract(IERC20)799"
      }
    ],
    "types": {
      "t_array(t_contract(IERC20)799)3_storage": {
        "base": "t_contract(IERC20)799",
        "encoding": "inplace",
        "label": "contract IERC20[3]",
        "numberOfBytes": "96"
      },
      "t_array(t_uint256)3_storage": {
        "base": "t_uint256",
        "encoding": "inplace",
        "label": "uint256[3]",
        "numberOfBytes": "96"
      },
      "t_contract(IERC20)799": {
        "encoding": "inplace",
        "label": "contract IERC20",
        "numberOfBytes": "20"
      },
      "t_uint256": {
        "encoding": "inplace",
        "label": "uint256",
        "numberOfBytes": "32"
      }
    }
  }
}