{
  "address": "0xA51c1fc2f0D1a1b8494Ed1FE312d7C3a78Ed91C0",
  "abi": [
    {
      "inputs": [
        {
          "internalType": "contract IERC20",
          "name": "_tokenDAI",
          "type": "address"
        },
        {
          "internalType": "contract IERC20",
          "name": "_tokenUSDC",
          "type": "address"
        },
        {
          "internalType": "contract IERC20",
          "name": "_tokenUSDT",
          "type": "address"
        },
        {
          "internalType": "contract IERC20",
          "name": "_token3CRV",
          "type": "address"
        },
        {
          "internalType": "contract IStableSwap3Pool",
          "name": "_stableSwap3Pool",
          "type": "address"
        },
        {
          "internalType": "contract IVaultManager",
          "name": "_vaultManager",
          "type": "address"
        }
      ],
      "stateMutability": "nonpayable",
      "type": "constructor"
    },
    {
      "inputs": [
        {
          "internalType": "contract IERC20",
          "name": "_token",
          "type": "address"
        },
        {
          "internalType": "address",
          "name": "_spender",
          "type": "address"
        },
        {
          "internalType": "uint256",
          "name": "_amount",
          "type": "uint256"
        }
      ],
      "name": "approveForSpender",
      "outputs": [],
      "stateMutability": "nonpayable",
      "type": "function"
    },
    {
      "inputs": [
        {
          "internalType": "uint256[3]",
          "name": "amounts",
          "type": "uint256[3]"
        },
        {
          "internalType": "bool",
          "name": "deposit",
          "type": "bool"
        }
      ],
      "name": "calc_token_amount",
      "outputs": [
        {
          "internalType": "uint256",
          "name": "_shareAmount",
          "type": "uint256"
        }
      ],
      "stateMutability": "view",
      "type": "function"
    },
    {
      "inputs": [
        {
          "internalType": "uint256",
          "name": "_shares",
          "type": "uint256"
        },
        {
          "internalType": "address",
          "name": "_output",
          "type": "address"
        }
      ],
      "name": "calc_token_amount_withdraw",
      "outputs": [
        {
          "internalType": "uint256",
          "name": "",
          "type": "uint256"
        }
      ],
      "stateMutability": "view",
      "type": "function"
    },
    {
      "inputs": [
        {
          "internalType": "address",
          "name": "_input",
          "type": "address"
        },
        {
          "internalType": "address",
          "name": "_output",
          "type": "address"
        },
        {
          "internalType": "uint256",
          "name": "_inputAmount",
          "type": "uint256"
        }
      ],
      "name": "convert",
      "outputs": [
        {
          "internalType": "uint256",
          "name": "_outputAmount",
          "type": "uint256"
        }
      ],
      "stateMutability": "nonpayable",
      "type": "function"
    },
    {
      "inputs": [
        {
          "internalType": "address",
          "name": "_input",
          "type": "address"
        },
        {
          "internalType": "address",
          "name": "_output",
          "type": "address"
        },
        {
          "internalType": "uint256",
          "name": "_inputAmount",
          "type": "uint256"
        }
      ],
      "name": "convert_rate",
      "outputs": [
        {
          "internalType": "uint256",
          "name": "",
          "type": "uint256"
        }
      ],
      "stateMutability": "view",
      "type": "function"
    },
    {
      "inputs": [
        {
          "internalType": "uint256[3]",
          "name": "amounts",
          "type": "uint256[3]"
        }
      ],
      "name": "convert_stables",
      "outputs": [
        {
          "internalType": "uint256",
          "name": "_shareAmount",
          "type": "uint256"
        }
      ],
      "stateMutability": "nonpayable",
      "type": "function"
    },
    {
      "inputs": [
        {
          "internalType": "int128",
          "name": "i",
          "type": "int128"
        },
        {
          "internalType": "int128",
          "name": "j",
          "type": "int128"
        },
        {
          "internalType": "uint256",
          "name": "dx",
          "type": "uint256"
        },
        {
          "internalType": "uint256",
          "name": "min_dy",
          "type": "uint256"
        }
      ],
      "name": "exchange",
      "outputs": [
        {
          "internalType": "uint256",
          "name": "dy",
          "type": "uint256"
        }
      ],
      "stateMutability": "nonpayable",
      "type": "function"
    },
    {
      "inputs": [
        {
          "internalType": "int128",
          "name": "i",
          "type": "int128"
        },
        {
          "internalType": "int128",
          "name": "j",
          "type": "int128"
        },
        {
          "internalType": "uint256",
          "name": "dx",
          "type": "uint256"
        }
      ],
      "name": "get_dy",
      "outputs": [
        {
          "internalType": "uint256",
          "name": "",
          "type": "uint256"
        }
      ],
      "stateMutability": "view",
      "type": "function"
    },
    {
      "inputs": [
        {
          "internalType": "contract IERC20",
          "name": "_token",
          "type": "address"
        },
        {
          "internalType": "uint256",
          "name": "_amount",
          "type": "uint256"
        },
        {
          "internalType": "address",
          "name": "_to",
          "type": "address"
        }
      ],
      "name": "governanceRecoverUnsupported",
      "outputs": [],
      "stateMutability": "nonpayable",
      "type": "function"
    },
    {
      "inputs": [
        {
          "internalType": "contract IStableSwap3Pool",
          "name": "_stableSwap3Pool",
          "type": "address"
        }
      ],
      "name": "setStableSwap3Pool",
      "outputs": [],
      "stateMutability": "nonpayable",
      "type": "function"
    },
    {
      "inputs": [
        {
          "internalType": "address",
          "name": "_strategy",
          "type": "address"
        },
        {
          "internalType": "bool",
          "name": "_status",
          "type": "bool"
        }
      ],
      "name": "setStrategy",
      "outputs": [],
      "stateMutability": "nonpayable",
      "type": "function"
    },
    {
      "inputs": [
        {
          "internalType": "contract IVaultManager",
          "name": "_vaultManager",
          "type": "address"
        }
      ],
      "name": "setVaultManager",
      "outputs": [],
      "stateMutability": "nonpayable",
      "type": "function"
    },
    {
      "inputs": [],
      "name": "stableSwap3Pool",
      "outputs": [
        {
          "internalType": "contract IStableSwap3Pool",
          "name": "",
          "type": "address"
        }
      ],
      "stateMutability": "view",
      "type": "function"
    },
    {
      "inputs": [
        {
          "internalType": "address",
          "name": "",
          "type": "address"
        }
      ],
      "name": "strategies",
      "outputs": [
        {
          "internalType": "bool",
          "name": "",
          "type": "bool"
        }
      ],
      "stateMutability": "view",
      "type": "function"
    },
    {
      "inputs": [],
      "name": "token",
      "outputs": [
        {
          "internalType": "address",
          "name": "",
          "type": "address"
        }
      ],
      "stateMutability": "nonpayable",
      "type": "function"
    },
    {
      "inputs": [],
      "name": "token3CRV",
      "outputs": [
        {
          "internalType": "contract IERC20",
          "name": "",
          "type": "address"
        }
      ],
      "stateMutability": "view",
      "type": "function"
    },
    {
      "inputs": [
        {
          "internalType": "uint256",
          "name": "",
          "type": "uint256"
        }
      ],
      "name": "tokens",
      "outputs": [
        {
          "internalType": "contract IERC20",
          "name": "",
          "type": "address"
        }
      ],
      "stateMutability": "view",
      "type": "function"
    },
    {
      "inputs": [],
      "name": "vaultManager",
      "outputs": [
        {
          "internalType": "contract IVaultManager",
          "name": "",
          "type": "address"
        }
      ],
      "stateMutability": "view",
      "type": "function"
    }
  ],
  "transactionHash": "0x170a8b33f665cb450c8d0c21fa7c5dd1d040842f160e3e98cc2a4019aead2c14",
  "args": [
    "0xe7f1725E7734CE288F8367e1Bb143E90bb3F0512",
    "0x9fE46736679d2D9a65F0992F2272dE9f3c7fa6e0",
    "0xCf7Ed3AccA5a467e9e704C703E8D87F634fB0Fc9",
    "0x5FC8d32690cc91D4c39d9d3abcBD16989F875707",
    "0xa513E6E4b8f2a923D98304ec87F64353C4D5C853",
    "0x8A791620dd6260079BF849Dc5567aDC3F2FdC318"
  ],
  "solcInputHash": "29c097734f195176561e60c2670ea13c",
  "bytecode": "0x60806040523480156200001157600080fd5b506040516200269e3803806200269e833981810160405260c08110156200003757600080fd5b508051602082015160408301516060840151608085015160a090950151600080546001600160a01b03199081166001600160a01b0380891691909117835560018054831682891617905560028054831682881617905560038054831682871617905560048054909216818a1617918290559697959694959394620000dd9291169060001990805b01546001600160a01b0316919062000172602090811b62001adf17901c565b600454620000fb906001600160a01b031660001960006001620000be565b60045462000119906001600160a01b031660001960006002620000be565b60045460035462000146916001600160a01b03918216911660001962000172602090811b62001adf17901c565b600580546001600160a01b0319166001600160a01b039290921691909117905550620005859350505050565b801580620001fc575060408051636eb1769f60e11b81523060048201526001600160a01b03848116602483015291519185169163dd62ed3e91604480820192602092909190829003018186803b158015620001cc57600080fd5b505afa158015620001e1573d6000803e3d6000fd5b505050506040513d6020811015620001f857600080fd5b5051155b620002395760405162461bcd60e51b8152600401808060200182810382526036815260200180620026686036913960400191505060405180910390fd5b604080516001600160a01b038416602482015260448082018490528251808303909101815260649091019091526020810180516001600160e01b0390811663095ea7b360e01b17909152620002919185916200029616565b505050565b6060620002f2826040518060400160405280602081526020017f5361666545524332303a206c6f772d6c6576656c2063616c6c206661696c6564815250856001600160a01b03166200035260201b62001bf2179092919060201c565b80519091501562000291578080602001905160208110156200031357600080fd5b5051620002915760405162461bcd60e51b815260040180806020018281038252602a8152602001806200263e602a913960400191505060405180910390fd5b60606200036384846000856200036d565b90505b9392505050565b606082471015620003b05760405162461bcd60e51b8152600401808060200182810382526026815260200180620026186026913960400191505060405180910390fd5b620003bb85620004d5565b6200040d576040805162461bcd60e51b815260206004820152601d60248201527f416464726573733a2063616c6c20746f206e6f6e2d636f6e7472616374000000604482015290519081900360640190fd5b60006060866001600160a01b031685876040518082805190602001908083835b602083106200044e5780518252601f1990920191602091820191016200042d565b6001836020036101000a03801982511681845116808217855250505050505090500191505060006040518083038185875af1925050503d8060008114620004b2576040519150601f19603f3d011682016040523d82523d6000602084013e620004b7565b606091505b509092509050620004ca828286620004db565b979650505050505050565b3b151590565b60608315620004ec57508162000366565b825115620004fd5782518084602001fd5b8160405162461bcd60e51b81526004018080602001828103825283818151815260200191508051906020019080838360005b83811015620005495781810151838201526020016200052f565b50505050905090810190601f168015620005775780820380516001836020036101000a031916815260200191505b509250505060405180910390fd5b61208380620005956000396000f3fe608060405234801561001057600080fd5b50600436106101165760003560e01c80638a4adf24116100a2578063b7b11c5e11610071578063b7b11c5e14610339578063baa82a3414610355578063e6c0375314610383578063ef9e2379146103a9578063fc0c546a146103df57610116565b80638a4adf24146102d7578063a488680f146102df578063ae2841c7146102e7578063b543503e1461031357610116565b80633df02124116100e95780633df02124146101f65780634f64b2be1461022d57806354575af4146102665780635a3874ac1461029e5780635e0d443f146102a657610116565b8063248391ff1461011b57806336cf893c146101635780633883e1191461019957806339ebf823146101bc575b600080fd5b6101516004803603606081101561013157600080fd5b506001600160a01b038135811691602081013590911690604001356103e7565b60408051918252519081900360200190f35b6101516004803603606081101561017957600080fd5b506001600160a01b03813581169160208101359091169060400135610a0a565b610151600480360360808110156101af57600080fd5b5060608101351515610c02565b6101e2600480360360208110156101d257600080fd5b50356001600160a01b0316610ca2565b604080519115158252519081900360200190f35b6101516004803603608081101561020c57600080fd5b508035600f90810b91602081013590910b9060408101359060600135610cb7565b61024a6004803603602081101561024357600080fd5b5035611047565b604080516001600160a01b039092168252519081900360200190f35b61029c6004803603606081101561027c57600080fd5b506001600160a01b03813581169160208101359160409091013516611064565b005b61024a6111b0565b610151600480360360608110156102bc57600080fd5b508035600f90810b91602081013590910b90604001356111bf565b61024a611256565b61024a611265565b610151600480360360408110156102fd57600080fd5b50803590602001356001600160a01b0316611274565b61029c6004803603602081101561032957600080fd5b50356001600160a01b0316611345565b6101516004803603606081101561034f57600080fd5b5061142b565b61029c6004803603604081101561036b57600080fd5b506001600160a01b03813516906020013515156117a7565b61029c6004803603602081101561039957600080fd5b50356001600160a01b0316611896565b61029c600480360360608110156103bf57600080fd5b506001600160a01b038135811691602081013590911690604001356119f3565b61024a611ad0565b60055460408051632988bb9f60e21b815233600482015290516000926001600160a01b03169163a622ee7c916024808301926020929190829003018186803b15801561043257600080fd5b505afa158015610446573d6000803e3d6000fd5b505050506040513d602081101561045c57600080fd5b5051806104dc575060055460408051636d46114f60e11b815233600482015290516001600160a01b039092169163da8c229e91602480820192602092909190829003018186803b1580156104af57600080fd5b505afa1580156104c3573d6000803e3d6000fd5b505050506040513d60208110156104d957600080fd5b50515b806104f657503360009081526006602052604090205460ff165b806105825750600560009054906101000a90046001600160a01b03166001600160a01b0316635aa6e6756040518163ffffffff1660e01b815260040160206040518083038186803b15801561054a57600080fd5b505afa15801561055e573d6000803e3d6000fd5b505050506040513d602081101561057457600080fd5b50516001600160a01b031633145b6105c1576040805162461bcd60e51b815260206004820152600b60248201526a08585d5d1a1bdc9a5e995960aa1b604482015290519081900360640190fd5b6003546001600160a01b03848116911614156107eb576105df611fa9565b60005b60038160ff1610156107e45760008160ff16600381106105fe57fe5b01546001600160a01b03878116911614156107dc5783828260ff166003811061062357fe5b60209081029190910191909152600354604080516370a0823160e01b815230600482015290516000936001600160a01b03909316926370a082319260248082019391829003018186803b15801561067957600080fd5b505afa15801561068d573d6000803e3d6000fd5b505050506040513d60208110156106a357600080fd5b505160048054604051634515cef360e01b81529293506001600160a01b031691634515cef3918691600191018083606080838360005b838110156106f15781810151838201526020016106d9565b5050505090500182815260200192505050600060405180830381600087803b15801561071c57600080fd5b505af1158015610730573d6000803e3d6000fd5b5050600354604080516370a0823160e01b81523060048201529051600094506001600160a01b0390921692506370a08231916024808301926020929190829003018186803b15801561078157600080fd5b505afa158015610795573d6000803e3d6000fd5b505050506040513d60208110156107ab57600080fd5b505190506107b98183611c09565b6003549095506107d3906001600160a01b03163387611c4b565b50505050610a03565b6001016105e2565b50506109ff565b6003546001600160a01b03858116911614156109ff5760005b60038160ff1610156109fd5760008160ff166003811061082057fe5b01546001600160a01b03858116911614156109f5576000808260ff166003811061084657fe5b0154604080516370a0823160e01b815230600482015290516001600160a01b03909216916370a0823191602480820192602092909190829003018186803b15801561089057600080fd5b505afa1580156108a4573d6000803e3d6000fd5b505050506040513d60208110156108ba57600080fd5b50516004805460408051630d2680e960e11b815292830188905260ff8616602484015260016044840152519293506001600160a01b031691631a4d01d29160648082019260009290919082900301818387803b15801561091957600080fd5b505af115801561092d573d6000803e3d6000fd5b505050506000808360ff166003811061094257fe5b0154604080516370a0823160e01b815230600482015290516001600160a01b03909216916370a0823191602480820192602092909190829003018186803b15801561098c57600080fd5b505afa1580156109a0573d6000803e3d6000fd5b505050506040513d60208110156109b657600080fd5b505190506109c48183611c09565b93506109ed338560008660ff16600381106109db57fe5b01546001600160a01b03169190611c4b565b505050610a03565b600101610804565b505b5060005b9392505050565b6003546000906001600160a01b0384811691161415610b2857610a2b611fa9565b60005b60038160ff1610156107e45760008160ff1660038110610a4a57fe5b01546001600160a01b0387811691161415610b205783828260ff1660038110610a6f57fe5b602002015260048054604051633883e11960e01b81526001600160a01b0390911691633883e119918591600191018083606080838360005b83811015610abf578181015183820152602001610aa7565b5050505090500182151581526020019250505060206040518083038186803b158015610aea57600080fd5b505afa158015610afe573d6000803e3d6000fd5b505050506040513d6020811015610b1457600080fd5b50519250610a03915050565b600101610a2e565b6003546001600160a01b03858116911614156109ff5760005b60038160ff1610156109fd5760008160ff1660038110610b5d57fe5b01546001600160a01b0385811691161415610bfa57600480546040805163cc2b27d760e01b815292830186905260ff84166024840152516001600160a01b039091169163cc2b27d7916044808301926020929190829003018186803b158015610bc557600080fd5b505afa158015610bd9573d6000803e3d6000fd5b505050506040513d6020811015610bef57600080fd5b50519150610a039050565b600101610b41565b60048054604051633883e11960e01b81526000926001600160a01b0390921691633883e1199186918691018083606080828437600083820152931515601f909401601f19169091019283525050604051602080830193509181900382018186803b158015610c6f57600080fd5b505afa158015610c83573d6000803e3d6000fd5b505050506040513d6020811015610c9957600080fd5b50519392505050565b60066020526000908152604090205460ff1681565b60055460408051632988bb9f60e21b815233600482015290516000926001600160a01b03169163a622ee7c916024808301926020929190829003018186803b158015610d0257600080fd5b505afa158015610d16573d6000803e3d6000fd5b505050506040513d6020811015610d2c57600080fd5b505180610dac575060055460408051636d46114f60e11b815233600482015290516001600160a01b039092169163da8c229e91602480820192602092909190829003018186803b158015610d7f57600080fd5b505afa158015610d93573d6000803e3d6000fd5b505050506040513d6020811015610da957600080fd5b50515b80610dc657503360009081526006602052604090205460ff165b80610e525750600560009054906101000a90046001600160a01b03166001600160a01b0316635aa6e6756040518163ffffffff1660e01b815260040160206040518083038186803b158015610e1a57600080fd5b505afa158015610e2e573d6000803e3d6000fd5b505050506040513d6020811015610e4457600080fd5b50516001600160a01b031633145b610e91576040805162461bcd60e51b815260206004820152600b60248201526a08585d5d1a1bdc9a5e995960aa1b604482015290519081900360640190fd5b6000808560ff1660038110610ea257fe5b0154604080516370a0823160e01b815230600482015290516001600160a01b03909216925060009183916370a08231916024808301926020929190829003018186803b158015610ef157600080fd5b505afa158015610f05573d6000803e3d6000fd5b505050506040513d6020811015610f1b57600080fd5b50516004805460408051630f7c084960e21b8152600f8c810b94820194909452928a900b60248401526044830189905260648301889052519293506001600160a01b031691633df021249160848082019260009290919082900301818387803b158015610f8757600080fd5b505af1158015610f9b573d6000803e3d6000fd5b505050506000826001600160a01b03166370a08231306040518263ffffffff1660e01b815260040180826001600160a01b0316815260200191505060206040518083038186803b158015610fee57600080fd5b505afa158015611002573d6000803e3d6000fd5b505050506040513d602081101561101857600080fd5b505190506110268183611c09565b935061103c6001600160a01b0384163386611c4b565b505050949350505050565b6000816003811061105457fe5b01546001600160a01b0316905081565b600560009054906101000a90046001600160a01b03166001600160a01b0316635aa6e6756040518163ffffffff1660e01b815260040160206040518083038186803b1580156110b257600080fd5b505afa1580156110c6573d6000803e3d6000fd5b505050506040513d60208110156110dc57600080fd5b50516001600160a01b03163314611128576040805162461bcd60e51b815260206004820152600b60248201526a21676f7665726e616e636560a81b604482015290519081900360640190fd5b826001600160a01b031663a9059cbb82846040518363ffffffff1660e01b815260040180836001600160a01b0316815260200182815260200192505050602060405180830381600087803b15801561117f57600080fd5b505af1158015611193573d6000803e3d6000fd5b505050506040513d60208110156111a957600080fd5b5050505050565b6004546001600160a01b031681565b6004805460408051635e0d443f60e01b8152600f87810b948201949094529285900b602484015260448301849052516000926001600160a01b0390921691635e0d443f916064808301926020929190829003018186803b15801561122257600080fd5b505afa158015611236573d6000803e3d6000fd5b505050506040513d602081101561124c57600080fd5b5051949350505050565b6005546001600160a01b031681565b6003546001600160a01b031681565b6000805b60038160ff1610156113395760008160ff166003811061129457fe5b01546001600160a01b038481169116141561133157600480546040805163cc2b27d760e01b815292830187905260ff84166024840152516001600160a01b039091169163cc2b27d7916044808301926020929190829003018186803b1580156112fc57600080fd5b505afa158015611310573d6000803e3d6000fd5b505050506040513d602081101561132657600080fd5b5051915061133f9050565b600101611278565b50600090505b92915050565b600560009054906101000a90046001600160a01b03166001600160a01b0316635aa6e6756040518163ffffffff1660e01b815260040160206040518083038186803b15801561139357600080fd5b505afa1580156113a7573d6000803e3d6000fd5b505050506040513d60208110156113bd57600080fd5b50516001600160a01b03163314611409576040805162461bcd60e51b815260206004820152600b60248201526a21676f7665726e616e636560a81b604482015290519081900360640190fd5b600580546001600160a01b0319166001600160a01b0392909216919091179055565b60055460408051632988bb9f60e21b815233600482015290516000926001600160a01b03169163a622ee7c916024808301926020929190829003018186803b15801561147657600080fd5b505afa15801561148a573d6000803e3d6000fd5b505050506040513d60208110156114a057600080fd5b505180611520575060055460408051636d46114f60e11b815233600482015290516001600160a01b039092169163da8c229e91602480820192602092909190829003018186803b1580156114f357600080fd5b505afa158015611507573d6000803e3d6000fd5b505050506040513d602081101561151d57600080fd5b50515b8061153a57503360009081526006602052604090205460ff165b806115c65750600560009054906101000a90046001600160a01b03166001600160a01b0316635aa6e6756040518163ffffffff1660e01b815260040160206040518083038186803b15801561158e57600080fd5b505afa1580156115a2573d6000803e3d6000fd5b505050506040513d60208110156115b857600080fd5b50516001600160a01b031633145b611605576040805162461bcd60e51b815260206004820152600b60248201526a08585d5d1a1bdc9a5e995960aa1b604482015290519081900360640190fd5b600354604080516370a0823160e01b815230600482015290516000926001600160a01b0316916370a08231916024808301926020929190829003018186803b15801561165057600080fd5b505afa158015611664573d6000803e3d6000fd5b505050506040513d602081101561167a57600080fd5b505160048054604051634515cef360e01b81529293506001600160a01b031691634515cef3918691600191018083606080828437600081840152601f19601f82011690508083019250505082815260200192505050600060405180830381600087803b1580156116e957600080fd5b505af11580156116fd573d6000803e3d6000fd5b5050600354604080516370a0823160e01b81523060048201529051600094506001600160a01b0390921692506370a08231916024808301926020929190829003018186803b15801561174e57600080fd5b505afa158015611762573d6000803e3d6000fd5b505050506040513d602081101561177857600080fd5b505190506117868183611c09565b6003549093506117a0906001600160a01b03163385611c4b565b5050919050565b600560009054906101000a90046001600160a01b03166001600160a01b0316635aa6e6756040518163ffffffff1660e01b815260040160206040518083038186803b1580156117f557600080fd5b505afa158015611809573d6000803e3d6000fd5b505050506040513d602081101561181f57600080fd5b50516001600160a01b0316331461186b576040805162461bcd60e51b815260206004820152600b60248201526a21676f7665726e616e636560a81b604482015290519081900360640190fd5b6001600160a01b03919091166000908152600660205260409020805460ff1916911515919091179055565b600560009054906101000a90046001600160a01b03166001600160a01b0316635aa6e6756040518163ffffffff1660e01b815260040160206040518083038186803b1580156118e457600080fd5b505afa1580156118f8573d6000803e3d6000fd5b505050506040513d602081101561190e57600080fd5b50516001600160a01b0316331461195a576040805162461bcd60e51b815260206004820152600b60248201526a21676f7665726e616e636560a81b604482015290519081900360640190fd5b600480546001600160a01b0319166001600160a01b03838116919091179182905561199991166000196000805b01546001600160a01b03169190611adf565b6004546119b5906001600160a01b031660001960006001611987565b6004546119d1906001600160a01b031660001960006002611987565b6004546003546119f0916001600160a01b039182169116600019611adf565b50565b600560009054906101000a90046001600160a01b03166001600160a01b0316635aa6e6756040518163ffffffff1660e01b815260040160206040518083038186803b158015611a4157600080fd5b505afa158015611a55573d6000803e3d6000fd5b505050506040513d6020811015611a6b57600080fd5b50516001600160a01b03163314611ab7576040805162461bcd60e51b815260206004820152600b60248201526a21676f7665726e616e636560a81b604482015290519081900360640190fd5b611acb6001600160a01b0384168383611adf565b505050565b6003546001600160a01b031690565b801580611b65575060408051636eb1769f60e11b81523060048201526001600160a01b03848116602483015291519185169163dd62ed3e91604480820192602092909190829003018186803b158015611b3757600080fd5b505afa158015611b4b573d6000803e3d6000fd5b505050506040513d6020811015611b6157600080fd5b5051155b611ba05760405162461bcd60e51b81526004018080602001828103825260368152602001806120186036913960400191505060405180910390fd5b604080516001600160a01b038416602482015260448082018490528251808303909101815260649091019091526020810180516001600160e01b031663095ea7b360e01b179052611acb908490611c99565b6060611c018484600085611d4a565b949350505050565b6000610a0383836040518060400160405280601e81526020017f536166654d6174683a207375627472616374696f6e206f766572666c6f770000815250611ea6565b604080516001600160a01b038416602482015260448082018490528251808303909101815260649091019091526020810180516001600160e01b031663a9059cbb60e01b179052611acb9084905b6060611cee826040518060400160405280602081526020017f5361666545524332303a206c6f772d6c6576656c2063616c6c206661696c6564815250856001600160a01b0316611bf29092919063ffffffff16565b805190915015611acb57808060200190516020811015611d0d57600080fd5b5051611acb5760405162461bcd60e51b815260040180806020018281038252602a815260200180611fee602a913960400191505060405180910390fd5b606082471015611d8b5760405162461bcd60e51b8152600401808060200182810382526026815260200180611fc86026913960400191505060405180910390fd5b611d9485611f3d565b611de5576040805162461bcd60e51b815260206004820152601d60248201527f416464726573733a2063616c6c20746f206e6f6e2d636f6e7472616374000000604482015290519081900360640190fd5b60006060866001600160a01b031685876040518082805190602001908083835b60208310611e245780518252601f199092019160209182019101611e05565b6001836020036101000a03801982511681845116808217855250505050505090500191505060006040518083038185875af1925050503d8060008114611e86576040519150601f19603f3d011682016040523d82523d6000602084013e611e8b565b606091505b5091509150611e9b828286611f43565b979650505050505050565b60008184841115611f355760405162461bcd60e51b81526004018080602001828103825283818151815260200191508051906020019080838360005b83811015611efa578181015183820152602001611ee2565b50505050905090810190601f168015611f275780820380516001836020036101000a031916815260200191505b509250505060405180910390fd5b505050900390565b3b151590565b60608315611f52575081610a03565b825115611f625782518084602001fd5b60405162461bcd60e51b8152602060048201818152845160248401528451859391928392604401919085019080838360008315611efa578181015183820152602001611ee2565b6040518060600160405280600390602082028036833750919291505056fe416464726573733a20696e73756666696369656e742062616c616e636520666f722063616c6c5361666545524332303a204552433230206f7065726174696f6e20646964206e6f7420737563636565645361666545524332303a20617070726f76652066726f6d206e6f6e2d7a65726f20746f206e6f6e2d7a65726f20616c6c6f77616e6365a264697066735822122015e05b9afc5ce93120467ac45cba78d252b9990875194347f20723ccda19fe8664736f6c634300060c0033416464726573733a20696e73756666696369656e742062616c616e636520666f722063616c6c5361666545524332303a204552433230206f7065726174696f6e20646964206e6f7420737563636565645361666545524332303a20617070726f76652066726f6d206e6f6e2d7a65726f20746f206e6f6e2d7a65726f20616c6c6f77616e6365",
  "devdoc": {
    "kind": "dev",
    "methods": {},
    "version": 1
  },
  "userdoc": {
    "kind": "user",
    "methods": {},
    "version": 1
  },
  "storageLayout": {
    "storage": [
      {
        "astId": 2013,
        "contract": "contracts/metavault/StableSwap3PoolConverter.sol:StableSwap3PoolConverter",
        "label": "tokens",
        "offset": 0,
        "slot": "0",
        "type": "t_array(t_contract(IERC20)799)3_storage"
      },
      {
        "astId": 2015,
        "contract": "contracts/metavault/StableSwap3PoolConverter.sol:StableSwap3PoolConverter",
        "label": "token3CRV",
        "offset": 0,
        "slot": "3",
        "type": "t_contract(IERC20)799"
      },
      {
        "astId": 2017,
        "contract": "contracts/metavault/StableSwap3PoolConverter.sol:StableSwap3PoolConverter",
        "label": "stableSwap3Pool",
        "offset": 0,
        "slot": "4",
        "type": "t_contract(IStableSwap3Pool)1829"
      },
      {
        "astId": 2019,
        "contract": "contracts/metavault/StableSwap3PoolConverter.sol:StableSwap3PoolConverter",
        "label": "vaultManager",
        "offset": 0,
        "slot": "5",
        "type": "t_contract(IVaultManager)1992"
      },
      {
        "astId": 2023,
        "contract": "contracts/metavault/StableSwap3PoolConverter.sol:StableSwap3PoolConverter",
        "label": "strategies",
        "offset": 0,
        "slot": "6",
        "type": "t_mapping(t_address,t_bool)"
      }
    ],
    "types": {
      "t_address": {
        "encoding": "inplace",
        "label": "address",
        "numberOfBytes": "20"
      },
      "t_array(t_contract(IERC20)799)3_storage": {
        "base": "t_contract(IERC20)799",
        "encoding": "inplace",
        "label": "contract IERC20[3]",
        "numberOfBytes": "96"
      },
      "t_bool": {
        "encoding": "inplace",
        "label": "bool",
        "numberOfBytes": "1"
      },
      "t_contract(IERC20)799": {
        "encoding": "inplace",
        "label": "contract IERC20",
        "numberOfBytes": "20"
      },
      "t_contract(IStableSwap3Pool)1829": {
        "encoding": "inplace",
        "label": "contract IStableSwap3Pool",
        "numberOfBytes": "20"
      },
      "t_contract(IVaultManager)1992": {
        "encoding": "inplace",
        "label": "contract IVaultManager",
        "numberOfBytes": "20"
      },
      "t_mapping(t_address,t_bool)": {
        "encoding": "mapping",
        "key": "t_address",
        "label": "mapping(address => bool)",
        "numberOfBytes": "32",
        "value": "t_bool"
      }
    }
  }
}