{
  "address": "0x959922bE3CAee4b8Cd9a407cc3ac1C251C2007B1",
  "abi": [
    {
      "inputs": [
        {
          "internalType": "address",
          "name": "_want",
          "type": "address"
        },
        {
          "internalType": "address",
          "name": "_crv",
          "type": "address"
        },
        {
          "internalType": "address",
          "name": "_weth",
          "type": "address"
        },
        {
          "internalType": "address",
          "name": "_t3crv",
          "type": "address"
        },
        {
          "internalType": "address",
          "name": "_dai",
          "type": "address"
        },
        {
          "internalType": "address",
          "name": "_usdc",
          "type": "address"
        },
        {
          "internalType": "address",
          "name": "_usdt",
          "type": "address"
        },
        {
          "internalType": "contract Gauge",
          "name": "_gauge",
          "type": "address"
        },
        {
          "internalType": "contract Mintr",
          "name": "_crvMintr",
          "type": "address"
        },
        {
          "internalType": "contract IStableSwap3Pool",
          "name": "_stableSwap3Pool",
          "type": "address"
        },
        {
          "internalType": "address",
          "name": "_controller",
          "type": "address"
        },
        {
          "internalType": "address",
          "name": "_vaultManager",
          "type": "address"
        },
        {
          "internalType": "address",
          "name": "_router",
          "type": "address"
        }
      ],
      "stateMutability": "nonpayable",
      "type": "constructor"
    },
    {
      "inputs": [],
      "name": "ONE_HUNDRED_PERCENT",
      "outputs": [
        {
          "internalType": "uint256",
          "name": "",
          "type": "uint256"
        }
      ],
      "stateMutability": "view",
      "type": "function"
    },
    {
      "inputs": [
        {
          "internalType": "contract IERC20",
          "name": "_token",
          "type": "address"
        },
        {
          "internalType": "address",
          "name": "_spender",
          "type": "address"
        },
        {
          "internalType": "uint256",
          "name": "_amount",
          "type": "uint256"
        }
      ],
      "name": "approveForSpender",
      "outputs": [],
      "stateMutability": "nonpayable",
      "type": "function"
    },
    {
      "inputs": [],
      "name": "balanceOf",
      "outputs": [
        {
          "internalType": "uint256",
          "name": "",
          "type": "uint256"
        }
      ],
      "stateMutability": "view",
      "type": "function"
    },
    {
      "inputs": [],
      "name": "balanceOfPool",
      "outputs": [
        {
          "internalType": "uint256",
          "name": "",
          "type": "uint256"
        }
      ],
      "stateMutability": "view",
      "type": "function"
    },
    {
      "inputs": [],
      "name": "balanceOfWant",
      "outputs": [
        {
          "internalType": "uint256",
          "name": "",
          "type": "uint256"
        }
      ],
      "stateMutability": "view",
      "type": "function"
    },
    {
      "inputs": [],
      "name": "claimableTokens",
      "outputs": [
        {
          "internalType": "uint256",
          "name": "",
          "type": "uint256"
        }
      ],
      "stateMutability": "view",
      "type": "function"
    },
    {
      "inputs": [],
      "name": "controller",
      "outputs": [
        {
          "internalType": "address",
          "name": "",
          "type": "address"
        }
      ],
      "stateMutability": "view",
      "type": "function"
    },
    {
      "inputs": [],
      "name": "crv",
      "outputs": [
        {
          "internalType": "address",
          "name": "",
          "type": "address"
        }
      ],
      "stateMutability": "view",
      "type": "function"
    },
    {
      "inputs": [],
      "name": "crvMintr",
      "outputs": [
        {
          "internalType": "contract Mintr",
          "name": "",
          "type": "address"
        }
      ],
      "stateMutability": "view",
      "type": "function"
    },
    {
      "inputs": [],
      "name": "dai",
      "outputs": [
        {
          "internalType": "address",
          "name": "",
          "type": "address"
        }
      ],
      "stateMutability": "view",
      "type": "function"
    },
    {
      "inputs": [],
      "name": "deposit",
      "outputs": [],
      "stateMutability": "nonpayable",
      "type": "function"
    },
    {
      "inputs": [],
      "name": "gauge",
      "outputs": [
        {
          "internalType": "contract Gauge",
          "name": "",
          "type": "address"
        }
      ],
      "stateMutability": "view",
      "type": "function"
    },
    {
      "inputs": [],
      "name": "getMostPremium",
      "outputs": [
        {
          "internalType": "address",
          "name": "",
          "type": "address"
        },
        {
          "internalType": "uint256",
          "name": "",
          "type": "uint256"
        }
      ],
      "stateMutability": "view",
      "type": "function"
    },
    {
      "inputs": [],
      "name": "harvest",
      "outputs": [],
      "stateMutability": "nonpayable",
      "type": "function"
    },
    {
      "inputs": [],
      "name": "router",
      "outputs": [
        {
          "internalType": "contract ISwap",
          "name": "",
          "type": "address"
        }
      ],
      "stateMutability": "view",
      "type": "function"
    },
    {
      "inputs": [
        {
          "internalType": "address",
          "name": "_controller",
          "type": "address"
        }
      ],
      "name": "setController",
      "outputs": [],
      "stateMutability": "nonpayable",
      "type": "function"
    },
    {
      "inputs": [
        {
          "internalType": "address",
          "name": "_router",
          "type": "address"
        }
      ],
      "name": "setRouter",
      "outputs": [],
      "stateMutability": "nonpayable",
      "type": "function"
    },
    {
      "inputs": [],
      "name": "skim",
      "outputs": [],
      "stateMutability": "nonpayable",
      "type": "function"
    },
    {
      "inputs": [],
      "name": "stableSwap3Pool",
      "outputs": [
        {
          "internalType": "contract IStableSwap3Pool",
          "name": "",
          "type": "address"
        }
      ],
      "stateMutability": "view",
      "type": "function"
    },
    {
      "inputs": [],
      "name": "t3crv",
      "outputs": [
        {
          "internalType": "address",
          "name": "",
          "type": "address"
        }
      ],
      "stateMutability": "view",
      "type": "function"
    },
    {
      "inputs": [],
      "name": "usdc",
      "outputs": [
        {
          "internalType": "address",
          "name": "",
          "type": "address"
        }
      ],
      "stateMutability": "view",
      "type": "function"
    },
    {
      "inputs": [],
      "name": "usdt",
      "outputs": [
        {
          "internalType": "address",
          "name": "",
          "type": "address"
        }
      ],
      "stateMutability": "view",
      "type": "function"
    },
    {
      "inputs": [],
      "name": "vaultManager",
      "outputs": [
        {
          "internalType": "contract IVaultManager",
          "name": "",
          "type": "address"
        }
      ],
      "stateMutability": "view",
      "type": "function"
    },
    {
      "inputs": [],
      "name": "want",
      "outputs": [
        {
          "internalType": "address",
          "name": "",
          "type": "address"
        }
      ],
      "stateMutability": "view",
      "type": "function"
    },
    {
      "inputs": [],
      "name": "weth",
      "outputs": [
        {
          "internalType": "address",
          "name": "",
          "type": "address"
        }
      ],
      "stateMutability": "view",
      "type": "function"
    },
    {
      "inputs": [
        {
          "internalType": "uint256",
          "name": "_amount",
          "type": "uint256"
        }
      ],
      "name": "withdraw",
      "outputs": [],
      "stateMutability": "nonpayable",
      "type": "function"
    },
    {
      "inputs": [
        {
          "internalType": "address",
          "name": "_asset",
          "type": "address"
        }
      ],
      "name": "withdraw",
      "outputs": [],
      "stateMutability": "nonpayable",
      "type": "function"
    },
    {
      "inputs": [],
      "name": "withdrawAll",
      "outputs": [
        {
          "internalType": "uint256",
          "name": "_balance",
          "type": "uint256"
        }
      ],
      "stateMutability": "nonpayable",
      "type": "function"
    }
  ],
  "transactionHash": "0x571b348b160c6e08bdfb68c01599d4194bb3e09464f6d67787e6794f251adf62",
  "args": [
    "0x5FC8d32690cc91D4c39d9d3abcBD16989F875707",
    "0x0DCd1Bf9A1b36cE34237eEaFef220932846BCD82",
    "0xDc64a140Aa3E981100a9becA4E685f962f0cF6C9",
    "0x5FC8d32690cc91D4c39d9d3abcBD16989F875707",
    "0xe7f1725E7734CE288F8367e1Bb143E90bb3F0512",
    "0x9fE46736679d2D9a65F0992F2272dE9f3c7fa6e0",
    "0xCf7Ed3AccA5a467e9e704C703E8D87F634fB0Fc9",
    "0x9A676e781A523b5d0C0e43731313A708CB607508",
    "0x0B306BF915C4d645ff596e518fAf3F9669b97016",
    "0xa513E6E4b8f2a923D98304ec87F64353C4D5C853",
    "0x610178dA211FEF7D417bC0e6FeD39F05609AD788",
    "0x8A791620dd6260079BF849Dc5567aDC3F2FdC318",
    "0x0165878A594ca255338adfa4d48449f69242Eb8F"
  ],
  "solcInputHash": "29c097734f195176561e60c2670ea13c",
  "bytecode": "0x60c0604052600380546001600160a01b031990811673d533a949740bb3306d119cc777fa900ba034cd5217909155600480548216736c3f90f043a72fa612cbac8115ee7e52bde6e490179055600580548216736b175474e89094c44da98b954eedeac495271d0f17905560068054821673a0b86991c6218b36c1d19d4a2e9eb0ce3606eb4817905560078054821673dac17f958d2ee523a2206206994597c13d831ec717905560088054821673d061d61a4d941c39e5453435b6345dc261c2fce017905560098054821673bebc44782c7db0a1a60cb6fe97d0b483032ff1c7179055600a805490911673bfcf63294ad7105dea65aa58f8ae5be2d9d0952a1790553480156200010d57600080fd5b50604051620035143803806200351483398181016040526101a08110156200013457600080fd5b810190808051906020019092919080519060200190929190805190602001909291908051906020019092919080519060200190929190805190602001909291908051906020019092919080519060200190929190805190602001909291908051906020019092919080519060200190929190805190602001909291908051906020019092919050505082828e8d84826001600160a01b03166080816001600160a01b031660601b81525050846000806101000a8154816001600160a01b0302191690836001600160a01b0316021790555083600160006101000a8154816001600160a01b0302191690836001600160a01b03160217905550816001600160a01b031660a0816001600160a01b031660601b8152505080600260006101000a8154816001600160a01b0302191690836001600160a01b031602179055506200029781600019846001600160a01b03166200051560201b62001814179092919060201c565b505050506001600160a01b038d16159050620002c957600380546001600160a01b0319166001600160a01b038e161790555b6001600160a01b038a1615620002f557600480546001600160a01b0319166001600160a01b038c161790555b6001600160a01b038916156200032157600580546001600160a01b0319166001600160a01b038b161790555b6001600160a01b038816156200034d57600680546001600160a01b0319166001600160a01b038a161790555b6001600160a01b038716156200037957600780546001600160a01b0319166001600160a01b0389161790555b6001600160a01b03841615620003a557600980546001600160a01b0319166001600160a01b0386161790555b6001600160a01b03861615620003d157600a80546001600160a01b0319166001600160a01b0388161790555b6001600160a01b03851615620003fd57600880546001600160a01b0319166001600160a01b0387161790555b600a5462000427906001600160a01b038f8116911660001962000515602090811b6200181417901c565b6003546200044e906001600160a01b03168260001962000515602090811b6200181417901c565b6009546005546200047b916001600160a01b03918216911660001962000515602090811b6200181417901c565b600954600654620004a8916001600160a01b03918216911660001962000515602090811b6200181417901c565b600954600754620004d5916001600160a01b03918216911660001962000515602090811b6200181417901c565b60095460045462000502916001600160a01b03918216911660001962000515602090811b6200181417901c565b5050505050505050505050505062000928565b8015806200059f575060408051636eb1769f60e11b81523060048201526001600160a01b03848116602483015291519185169163dd62ed3e91604480820192602092909190829003018186803b1580156200056f57600080fd5b505afa15801562000584573d6000803e3d6000fd5b505050506040513d60208110156200059b57600080fd5b5051155b620005dc5760405162461bcd60e51b8152600401808060200182810382526036815260200180620034de6036913960400191505060405180910390fd5b604080516001600160a01b038416602482015260448082018490528251808303909101815260649091019091526020810180516001600160e01b0390811663095ea7b360e01b17909152620006349185916200063916565b505050565b606062000695826040518060400160405280602081526020017f5361666545524332303a206c6f772d6c6576656c2063616c6c206661696c6564815250856001600160a01b0316620006f560201b62001927179092919060201c565b8051909150156200063457808060200190516020811015620006b657600080fd5b5051620006345760405162461bcd60e51b815260040180806020018281038252602a815260200180620034b4602a913960400191505060405180910390fd5b606062000706848460008562000710565b90505b9392505050565b606082471015620007535760405162461bcd60e51b81526004018080602001828103825260268152602001806200348e6026913960400191505060405180910390fd5b6200075e8562000878565b620007b0576040805162461bcd60e51b815260206004820152601d60248201527f416464726573733a2063616c6c20746f206e6f6e2d636f6e7472616374000000604482015290519081900360640190fd5b60006060866001600160a01b031685876040518082805190602001908083835b60208310620007f15780518252601f199092019160209182019101620007d0565b6001836020036101000a03801982511681845116808217855250505050505090500191505060006040518083038185875af1925050503d806000811462000855576040519150601f19603f3d011682016040523d82523d6000602084013e6200085a565b606091505b5090925090506200086d8282866200087e565b979650505050505050565b3b151590565b606083156200088f57508162000709565b825115620008a05782518084602001fd5b8160405162461bcd60e51b81526004018080602001828103825283818151815260200191508051906020019080838360005b83811015620008ec578181015183820152602001620008d2565b50505050905090810190601f1680156200091a5780820380516001836020036101000a031916815260200191505b509250505060405180910390fd5b60805160601c60a05160601c612b0a62000984600039806108995280611bf5528061216f52806121b45280612320528061240852806124b3528061254a5250806105ab52806105d65280610edf52806115315250612b0a6000f3fe608060405234801561001057600080fd5b50600436106101c45760003560e01c8063722713f7116100f9578063c1a3d44c11610097578063ef9e237911610071578063ef9e23791461034b578063f4b9fa7514610381578063f77c479114610389578063f887ea4014610391576101c4565b8063c1a3d44c14610333578063d0e30db01461033b578063dd0081c714610343576101c4565b806392eefe9b116100d357806392eefe9b146102d7578063a6f19c84146102fd578063bab8fe4014610305578063c0d786551461030d576101c4565b8063722713f7146102bf578063853828b6146102c75780638a4adf24146102cf576101c4565b80633fc8cef31161016657806351cff8d91161014057806351cff8d9146102815780635a3874ac146102a75780636948ab6f146102af5780636a4874a1146102b7576101c4565b80633fc8cef3146102465780634641257d1461024e57806348677dbe14610256576101c4565b80631f1fcd51116101a25780631f1fcd51146102115780632e1a7d4d146102195780632f48ab7d146102365780633e413bee1461023e576101c4565b8063017f3987146101c957806311588086146101ed5780631dd19cb414610207575b600080fd5b6101d1610399565b604080516001600160a01b039092168252519081900360200190f35b6101f56103a8565b60408051918252519081900360200190f35b61020f610424565b005b6101d16105d4565b61020f6004803603602081101561022f57600080fd5b50356105f8565b6101d1610879565b6101d1610888565b6101d1610897565b61020f6108bb565b61025e610a28565b604080516001600160a01b03909316835260208301919091528051918290030190f35b61020f6004803603602081101561029757600080fd5b50356001600160a01b0316610d6e565b6101d1610fdc565b6101d1610feb565b6101d1610ffa565b6101f5611009565b6101f5611029565b6101d16112f8565b61020f600480360360208110156102ed57600080fd5b50356001600160a01b0316611307565b6101d16113ed565b6101f56113fc565b61020f6004803603602081101561032357600080fd5b50356001600160a01b0316611447565b6101f561152d565b61020f61159c565b6101f5611709565b61020f6004803603606081101561036157600080fd5b506001600160a01b0381358116916020810135909116906040013561170f565b6101d16117e7565b6101d16117f6565b6101d1611805565b6008546001600160a01b031681565b600a54604080516370a0823160e01b815230600482015290516000926001600160a01b0316916370a08231916024808301926020929190829003018186803b1580156103f357600080fd5b505afa158015610407573d6000803e3d6000fd5b505050506040513d602081101561041d57600080fd5b5051905090565b6000546001600160a01b03163314806104be5750600160009054906101000a90046001600160a01b03166001600160a01b0316631fe4a6866040518163ffffffff1660e01b815260040160206040518083038186803b15801561048657600080fd5b505afa15801561049a573d6000803e3d6000fd5b505050506040513d60208110156104b057600080fd5b50516001600160a01b031633145b8061054a5750600160009054906101000a90046001600160a01b03166001600160a01b0316635aa6e6756040518163ffffffff1660e01b815260040160206040518083038186803b15801561051257600080fd5b505afa158015610526573d6000803e3d6000fd5b505050506040513d602081101561053c57600080fd5b50516001600160a01b031633145b610589576040805162461bcd60e51b815260206004820152600b60248201526a08585d5d1a1bdc9a5e995960aa1b604482015290519081900360640190fd5b6000546105d2906001600160a01b03166105a161152d565b6001600160a01b037f0000000000000000000000000000000000000000000000000000000000000000169190611940565b565b7f000000000000000000000000000000000000000000000000000000000000000081565b6000546001600160a01b03163314806106925750600160009054906101000a90046001600160a01b03166001600160a01b0316631fe4a6866040518163ffffffff1660e01b815260040160206040518083038186803b15801561065a57600080fd5b505afa15801561066e573d6000803e3d6000fd5b505050506040513d602081101561068457600080fd5b50516001600160a01b031633145b8061071e5750600160009054906101000a90046001600160a01b03166001600160a01b0316635aa6e6756040518163ffffffff1660e01b815260040160206040518083038186803b1580156106e657600080fd5b505afa1580156106fa573d6000803e3d6000fd5b505050506040513d602081101561071057600080fd5b50516001600160a01b031633145b61075d576040805162461bcd60e51b815260206004820152600b60248201526a08585d5d1a1bdc9a5e995960aa1b604482015290519081900360640190fd5b600061076761152d565b9050818110156107925761078361077e8383611992565b6119dd565b915061078f8282611b00565b91505b600061079c611b5a565b6000805460408051632988bb9f60e21b81526001600160a01b0380861660048301529151949550929391169163a622ee7c916024808301926020929190829003018186803b1580156107ed57600080fd5b505afa158015610801573d6000803e3d6000fd5b505050506040513d602081101561081757600080fd5b505190506001600160a01b03811661085f576040805162461bcd60e51b8152602060048201526006602482015265085d985d5b1d60d21b604482015290519081900360640190fd5b6108736001600160a01b0383168286611940565b50505050565b6007546001600160a01b031681565b6006546001600160a01b031681565b7f000000000000000000000000000000000000000000000000000000000000000081565b6000546001600160a01b03163314806109555750600160009054906101000a90046001600160a01b03166001600160a01b0316631fe4a6866040518163ffffffff1660e01b815260040160206040518083038186803b15801561091d57600080fd5b505afa158015610931573d6000803e3d6000fd5b505050506040513d602081101561094757600080fd5b50516001600160a01b031633145b806109e15750600160009054906101000a90046001600160a01b03166001600160a01b0316635aa6e6756040518163ffffffff1660e01b815260040160206040518083038186803b1580156109a957600080fd5b505afa1580156109bd573d6000803e3d6000fd5b505050506040513d60208110156109d357600080fd5b50516001600160a01b031633145b610a20576040805162461bcd60e51b815260206004820152600b60248201526a08585d5d1a1bdc9a5e995960aa1b604482015290519081900360640190fd5b6105d2611bbb565b604080516003808252608082019092526000918291606091602082018380368337505060095460408051634903b0d160e01b81526000600482015290519394506001600160a01b0390911692634903b0d192506024808301926020929190829003018186803b158015610a9a57600080fd5b505afa158015610aae573d6000803e3d6000fd5b505050506040513d6020811015610ac457600080fd5b505181518290600090610ad357fe5b60209081029190910181019190915260095460408051634903b0d160e01b8152600160048201529051610b649364e8d4a51000936001600160a01b031692634903b0d19260248083019392829003018186803b158015610b3257600080fd5b505afa158015610b46573d6000803e3d6000fd5b505050506040513d6020811015610b5c57600080fd5b505190611c40565b81600181518110610b7157fe5b60209081029190910181019190915260095460408051634903b0d160e01b8152600260048201529051610bd09364e8d4a51000936001600160a01b031692634903b0d19260248083019392829003018186803b158015610b3257600080fd5b81600281518110610bdd57fe5b60200260200101818152505080600181518110610bf657fe5b602002602001015181600081518110610c0b57fe5b6020026020010151108015610c47575080600281518110610c2857fe5b602002602001015181600081518110610c3d57fe5b6020026020010151105b15610c635750506005546001600160a01b031690506000610d6a565b80600081518110610c7057fe5b602002602001015181600181518110610c8557fe5b6020026020010151108015610cc1575080600281518110610ca257fe5b602002602001015181600181518110610cb757fe5b6020026020010151105b15610cdd5750506006546001600160a01b031690506001610d6a565b80600081518110610cea57fe5b602002602001015181600281518110610cff57fe5b6020026020010151108015610d3b575080600181518110610d1c57fe5b602002602001015181600281518110610d3157fe5b6020026020010151105b15610d575750506007546001600160a01b031690506002610d6a565b50506005546001600160a01b0316905060005b9091565b6000546001600160a01b0316331480610e085750600160009054906101000a90046001600160a01b03166001600160a01b0316631fe4a6866040518163ffffffff1660e01b815260040160206040518083038186803b158015610dd057600080fd5b505afa158015610de4573d6000803e3d6000fd5b505050506040513d6020811015610dfa57600080fd5b50516001600160a01b031633145b80610e945750600160009054906101000a90046001600160a01b03166001600160a01b0316635aa6e6756040518163ffffffff1660e01b815260040160206040518083038186803b158015610e5c57600080fd5b505afa158015610e70573d6000803e3d6000fd5b505050506040513d6020811015610e8657600080fd5b50516001600160a01b031633145b610ed3576040805162461bcd60e51b815260206004820152600b60248201526a08585d5d1a1bdc9a5e995960aa1b604482015290519081900360640190fd5b806001600160a01b03167f00000000000000000000000000000000000000000000000000000000000000006001600160a01b03161415610f43576040805162461bcd60e51b815260206004808301919091526024820152631dd85b9d60e21b604482015290519081900360640190fd5b604080516370a0823160e01b8152306004820152905182916000916001600160a01b038416916370a08231916024808301926020929190829003018186803b158015610f8e57600080fd5b505afa158015610fa2573d6000803e3d6000fd5b505050506040513d6020811015610fb857600080fd5b5051600054909150610fd7906001600160a01b03848116911683611940565b505050565b6009546001600160a01b031681565b6004546001600160a01b031681565b6003546001600160a01b031681565b60006110246110166103a8565b61101e61152d565b90611b00565b905090565b600080546001600160a01b03163314806110c45750600160009054906101000a90046001600160a01b03166001600160a01b0316631fe4a6866040518163ffffffff1660e01b815260040160206040518083038186803b15801561108c57600080fd5b505afa1580156110a0573d6000803e3d6000fd5b505050506040513d60208110156110b657600080fd5b50516001600160a01b031633145b806111505750600160009054906101000a90046001600160a01b03166001600160a01b0316635aa6e6756040518163ffffffff1660e01b815260040160206040518083038186803b15801561111857600080fd5b505afa15801561112c573d6000803e3d6000fd5b505050506040513d602081101561114257600080fd5b50516001600160a01b031633145b61118f576040805162461bcd60e51b815260206004820152600b60248201526a08585d5d1a1bdc9a5e995960aa1b604482015290519081900360640190fd5b611197611c99565b60006111a1611b5a565b9050806001600160a01b03166370a08231306040518263ffffffff1660e01b815260040180826001600160a01b0316815260200191505060206040518083038186803b1580156111f057600080fd5b505afa158015611204573d6000803e3d6000fd5b505050506040513d602081101561121a57600080fd5b50516000805460408051632988bb9f60e21b81526001600160a01b0386811660048301529151949650929391169163a622ee7c916024808301926020929190829003018186803b15801561126d57600080fd5b505afa158015611281573d6000803e3d6000fd5b505050506040513d602081101561129757600080fd5b505190506001600160a01b0381166112df576040805162461bcd60e51b8152602060048201526006602482015265085d985d5b1d60d21b604482015290519081900360640190fd5b6112f36001600160a01b0383168285611940565b505090565b6001546001600160a01b031681565b600160009054906101000a90046001600160a01b03166001600160a01b0316635aa6e6756040518163ffffffff1660e01b815260040160206040518083038186803b15801561135557600080fd5b505afa158015611369573d6000803e3d6000fd5b505050506040513d602081101561137f57600080fd5b50516001600160a01b031633146113cb576040805162461bcd60e51b815260206004820152600b60248201526a21676f7665726e616e636560a81b604482015290519081900360640190fd5b600080546001600160a01b0319166001600160a01b0392909216919091179055565b600a546001600160a01b031681565b600a5460408051633313458360e01b815230600482015290516000926001600160a01b0316916333134583916024808301926020929190829003018186803b1580156103f357600080fd5b600160009054906101000a90046001600160a01b03166001600160a01b0316635aa6e6756040518163ffffffff1660e01b815260040160206040518083038186803b15801561149557600080fd5b505afa1580156114a9573d6000803e3d6000fd5b505050506040513d60208110156114bf57600080fd5b50516001600160a01b0316331461150b576040805162461bcd60e51b815260206004820152600b60248201526a21676f7665726e616e636560a81b604482015290519081900360640190fd5b600280546001600160a01b0319166001600160a01b0392909216919091179055565b60007f00000000000000000000000000000000000000000000000000000000000000006001600160a01b03166370a08231306040518263ffffffff1660e01b815260040180826001600160a01b0316815260200191505060206040518083038186803b1580156103f357600080fd5b6000546001600160a01b03163314806116365750600160009054906101000a90046001600160a01b03166001600160a01b0316631fe4a6866040518163ffffffff1660e01b815260040160206040518083038186803b1580156115fe57600080fd5b505afa158015611612573d6000803e3d6000fd5b505050506040513d602081101561162857600080fd5b50516001600160a01b031633145b806116c25750600160009054906101000a90046001600160a01b03166001600160a01b0316635aa6e6756040518163ffffffff1660e01b815260040160206040518083038186803b15801561168a57600080fd5b505afa15801561169e573d6000803e3d6000fd5b505050506040513d60208110156116b457600080fd5b50516001600160a01b031633145b611701576040805162461bcd60e51b815260206004820152600b60248201526a08585d5d1a1bdc9a5e995960aa1b604482015290519081900360640190fd5b6105d2611d1b565b61271081565b600160009054906101000a90046001600160a01b03166001600160a01b0316635aa6e6756040518163ffffffff1660e01b815260040160206040518083038186803b15801561175d57600080fd5b505afa158015611771573d6000803e3d6000fd5b505050506040513d602081101561178757600080fd5b50516001600160a01b031633146117d3576040805162461bcd60e51b815260206004820152600b60248201526a21676f7665726e616e636560a81b604482015290519081900360640190fd5b610fd76001600160a01b0384168383611814565b6005546001600160a01b031681565b6000546001600160a01b031681565b6002546001600160a01b031681565b80158061189a575060408051636eb1769f60e11b81523060048201526001600160a01b03848116602483015291519185169163dd62ed3e91604480820192602092909190829003018186803b15801561186c57600080fd5b505afa158015611880573d6000803e3d6000fd5b505050506040513d602081101561189657600080fd5b5051155b6118d55760405162461bcd60e51b8152600401808060200182810382526036815260200180612a9f6036913960400191505060405180910390fd5b604080516001600160a01b038416602482015260448082018490528251808303909101815260649091019091526020810180516001600160e01b031663095ea7b360e01b179052610fd7908490611d95565b60606119368484600085611e46565b90505b9392505050565b604080516001600160a01b038416602482015260448082018490528251808303909101815260649091019091526020810180516001600160e01b031663a9059cbb60e01b179052610fd7908490611d95565b60006119d483836040518060400160405280601e81526020017f536166654d6174683a207375627472616374696f6e206f766572666c6f770000815250611fa2565b90505b92915050565b6000806119e8611b5a565b90506000816001600160a01b03166370a08231306040518263ffffffff1660e01b815260040180826001600160a01b0316815260200191505060206040518083038186803b158015611a3957600080fd5b505afa158015611a4d573d6000803e3d6000fd5b505050506040513d6020811015611a6357600080fd5b50519050611a7084612039565b6000826001600160a01b03166370a08231306040518263ffffffff1660e01b815260040180826001600160a01b0316815260200191505060206040518083038186803b158015611abf57600080fd5b505afa158015611ad3573d6000803e3d6000fd5b505050506040513d6020811015611ae957600080fd5b50519050611af78183611992565b95945050505050565b6000828201838110156119d4576040805162461bcd60e51b815260206004820152601b60248201527f536166654d6174683a206164646974696f6e206f766572666c6f770000000000604482015290519081900360640190fd5b60008054604080516364f5005760e01b815230600482015290516001600160a01b03909216916364f500579160248082019260209290919082900301818787803b158015611ba757600080fd5b505af1158015610407573d6000803e3d6000fd5b611bc3612086565b600354600090611bdb906001600160a01b03166120eb565b90508015611c3d576000611bed610a28565b509050611c1b7f000000000000000000000000000000000000000000000000000000000000000082846125cd565b611c23612710565b6000611c2d61152d565b1115611c3b57611c3b611d1b565b505b50565b600082611c4f575060006119d7565b82820282848281611c5c57fe5b04146119d45760405162461bcd60e51b8152600401808060200182810382526021815260200180612a546021913960400191505060405180910390fd5b600a54604080516370a0823160e01b815230600482015290516000926001600160a01b0316916370a08231916024808301926020929190829003018186803b158015611ce457600080fd5b505afa158015611cf8573d6000803e3d6000fd5b505050506040513d6020811015611d0e57600080fd5b50519050611c3d81612039565b6000611d2561152d565b90508015611c3d57600a546040805163b6b55f2560e01b81526004810184905290516001600160a01b039092169163b6b55f259160248082019260009290919082900301818387803b158015611d7a57600080fd5b505af1158015611d8e573d6000803e3d6000fd5b5050505050565b6060611dea826040518060400160405280602081526020017f5361666545524332303a206c6f772d6c6576656c2063616c6c206661696c6564815250856001600160a01b03166119279092919063ffffffff16565b805190915015610fd757808060200190516020811015611e0957600080fd5b5051610fd75760405162461bcd60e51b815260040180806020018281038252602a815260200180612a75602a913960400191505060405180910390fd5b606082471015611e875760405162461bcd60e51b8152600401808060200182810382526026815260200180612a2e6026913960400191505060405180910390fd5b611e9085612901565b611ee1576040805162461bcd60e51b815260206004820152601d60248201527f416464726573733a2063616c6c20746f206e6f6e2d636f6e7472616374000000604482015290519081900360640190fd5b60006060866001600160a01b031685876040518082805190602001908083835b60208310611f205780518252601f199092019160209182019101611f01565b6001836020036101000a03801982511681845116808217855250505050505090500191505060006040518083038185875af1925050503d8060008114611f82576040519150601f19603f3d011682016040523d82523d6000602084013e611f87565b606091505b5091509150611f97828286612907565b979650505050505050565b600081848411156120315760405162461bcd60e51b81526004018080602001828103825283818151815260200191508051906020019080838360005b83811015611ff6578181015183820152602001611fde565b50505050905090810190601f1680156120235780820380516001836020036101000a031916815260200191505b509250505060405180910390fd5b505050900390565b600a5460408051632e1a7d4d60e01b81526004810184905290516001600160a01b0390921691632e1a7d4d9160248082019260009290919082900301818387803b158015611d7a57600080fd5b600854600a54604080516335313c2160e11b81526001600160a01b03928316600482015290519190921691636a62784291602480830192600092919082900301818387803b1580156120d757600080fd5b505af1158015610873573d6000803e3d6000fd5b600080826001600160a01b03166370a08231306040518263ffffffff1660e01b815260040180826001600160a01b0316815260200191505060206040518083038186803b15801561213b57600080fd5b505afa15801561214f573d6000803e3d6000fd5b505050506040513d602081101561216557600080fd5b50519050612194837f0000000000000000000000000000000000000000000000000000000000000000836125cd565b604080516370a0823160e01b815230600482015290516001600160a01b037f000000000000000000000000000000000000000000000000000000000000000016916370a08231916024808301926020929190829003018186803b1580156121fa57600080fd5b505afa15801561220e573d6000803e3d6000fd5b505050506040513d602081101561222457600080fd5b5051915081156125c7576000806000806000806000600160009054906101000a90046001600160a01b03166001600160a01b031663da633d316040518163ffffffff1660e01b815260040160e06040518083038186803b15801561228757600080fd5b505afa15801561229b573d6000803e3d6000fd5b505050506040513d60e08110156122b157600080fd5b508051602082015160408301516060840151608085015160a086015160c090960151949c50929a50909850965094509092509050600085158015906122fe57506001600160a01b03871615155b156123d4576123196127106123138c89611c40565b9061296d565b90506123467f000000000000000000000000000000000000000000000000000000000000000089836125cd565b6123d487896001600160a01b03166370a08231306040518263ffffffff1660e01b815260040180826001600160a01b0316815260200191505060206040518083038186803b15801561239757600080fd5b505afa1580156123ab573d6000803e3d6000fd5b505050506040513d60208110156123c157600080fd5b50516001600160a01b038b169190611940565b6000841180156123ec57506001600160a01b03851615155b1561247f576124016127106123138c87611c40565b905061242e7f000000000000000000000000000000000000000000000000000000000000000089836125cd565b61247f85896001600160a01b03166370a08231306040518263ffffffff1660e01b815260040180826001600160a01b0316815260200191505060206040518083038186803b15801561239757600080fd5b60008211801561249757506001600160a01b03831615155b1561252a576124ac6127106123138c85611c40565b90506124d97f000000000000000000000000000000000000000000000000000000000000000089836125cd565b61252a83896001600160a01b03166370a08231306040518263ffffffff1660e01b815260040180826001600160a01b0316815260200191505060206040518083038186803b15801561239757600080fd5b604080516370a0823160e01b815230600482015290516001600160a01b037f000000000000000000000000000000000000000000000000000000000000000016916370a08231916024808301926020929190829003018186803b15801561259057600080fd5b505afa1580156125a4573d6000803e3d6000fd5b505050506040513d60208110156125ba57600080fd5b5051995050505050505050505b50919050565b604080516002808252606080830184529260208301908036833701905050905083816000815181106125fb57fe5b60200260200101906001600160a01b031690816001600160a01b031681525050828160018151811061262957fe5b6001600160a01b039283166020918202929092010152600254166338ed1739836001843061265942610708611b00565b6040518663ffffffff1660e01b81526004018086815260200185815260200180602001846001600160a01b03168152602001838152602001828103825285818151815260200191508051906020019060200280838360005b838110156126c95781810151838201526020016126b1565b505050509050019650505050505050600060405180830381600087803b1580156126f257600080fd5b505af1158015612706573d6000803e3d6000fd5b5050505050505050565b612718612a0f565b600554604080516370a0823160e01b815230600482015290516001600160a01b03909216916370a0823191602480820192602092909190829003018186803b15801561276357600080fd5b505afa158015612777573d6000803e3d6000fd5b505050506040513d602081101561278d57600080fd5b50518152600654604080516370a0823160e01b815230600482015290516001600160a01b03909216916370a0823191602480820192602092909190829003018186803b1580156127dc57600080fd5b505afa1580156127f0573d6000803e3d6000fd5b505050506040513d602081101561280657600080fd5b5051602080830191909152600754604080516370a0823160e01b815230600482015290516001600160a01b03909216926370a0823192602480840193829003018186803b15801561285657600080fd5b505afa15801561286a573d6000803e3d6000fd5b505050506040513d602081101561288057600080fd5b50518160026020020152600954604051634515cef360e01b81526001600160a01b0390911690634515cef39083906001906004018083606080838360005b838110156128d65781810151838201526020016128be565b5050505090500182815260200192505050600060405180830381600087803b158015611d7a57600080fd5b3b151590565b60608315612916575081611939565b8251156129265782518084602001fd5b60405162461bcd60e51b8152602060048201818152845160248401528451859391928392604401919085019080838360008315611ff6578181015183820152602001611fde565b60006119d483836040518060400160405280601a81526020017f536166654d6174683a206469766973696f6e206279207a65726f000000000000815250600081836129f95760405162461bcd60e51b8152602060048201818152835160248401528351909283926044909101919085019080838360008315611ff6578181015183820152602001611fde565b506000838581612a0557fe5b0495945050505050565b6040518060600160405280600390602082028036833750919291505056fe416464726573733a20696e73756666696369656e742062616c616e636520666f722063616c6c536166654d6174683a206d756c7469706c69636174696f6e206f766572666c6f775361666545524332303a204552433230206f7065726174696f6e20646964206e6f7420737563636565645361666545524332303a20617070726f76652066726f6d206e6f6e2d7a65726f20746f206e6f6e2d7a65726f20616c6c6f77616e6365a26469706673582212207483f69033bd450a8b8a6b61f2be40eb3ff37661aa3da87d54f0abbd3be4020464736f6c634300060c0033416464726573733a20696e73756666696369656e742062616c616e636520666f722063616c6c5361666545524332303a204552433230206f7065726174696f6e20646964206e6f7420737563636565645361666545524332303a20617070726f76652066726f6d206e6f6e2d7a65726f20746f206e6f6e2d7a65726f20616c6c6f77616e6365",
  "devdoc": {
    "kind": "dev",
    "methods": {
      "approveForSpender(address,address,uint256)": {
        "params": {
          "_amount": "The amount to spend",
          "_spender": "The address of the spender",
          "_token": "The address of the token"
        }
      },
      "balanceOfPool()": {
        "details": "Must be implemented by the strategy"
      },
      "setController(address)": {
        "params": {
          "_controller": "The address of the controller"
        }
      },
      "setRouter(address)": {
        "params": {
          "_router": "The address of the router"
        }
      },
      "withdraw(address)": {
        "params": {
          "_asset": "The address of the token to withdraw"
        }
      },
      "withdraw(uint256)": {
        "params": {
          "_amount": "The amount of the want token to withdraw"
        }
      }
    },
    "version": 1
  },
  "userdoc": {
    "kind": "user",
    "methods": {
      "approveForSpender(address,address,uint256)": {
        "notice": "Approves a token address to be spent by an address"
      },
      "balanceOf()": {
        "notice": "Returns the strategy's balance of the want token plus the balance of pool"
      },
      "balanceOfPool()": {
        "notice": "Returns the balance of the pool"
      },
      "balanceOfWant()": {
        "notice": "Returns the balance of the want token on the strategy"
      },
      "deposit()": {
        "notice": "Deposits funds to the strategy's pool"
      },
      "harvest()": {
        "notice": "Harvest funds in the strategy's pool"
      },
      "setController(address)": {
        "notice": "Sets the address of the controller"
      },
      "setRouter(address)": {
        "notice": "Sets the address of the ISwap-compatible router"
      },
      "skim()": {
        "notice": "Sends stuck want tokens in the strategy to the controller"
      },
      "withdraw(address)": {
        "notice": "Sends stuck tokens in the strategy to the controller"
      },
      "withdraw(uint256)": {
        "notice": "Initiated from a vault, withdraws funds from the pool"
      },
      "withdrawAll()": {
        "notice": "Withdraws all funds from the strategy"
      }
    },
    "version": 1
  },
  "storageLayout": {
    "storage": [
      {
        "astId": 6248,
        "contract": "contracts/metavault/strategies/StrategyCurve3Crv.sol:StrategyCurve3Crv",
        "label": "controller",
        "offset": 0,
        "slot": "0",
        "type": "t_address"
      },
      {
        "astId": 6250,
        "contract": "contracts/metavault/strategies/StrategyCurve3Crv.sol:StrategyCurve3Crv",
        "label": "vaultManager",
        "offset": 0,
        "slot": "1",
        "type": "t_contract(IVaultManager)1992"
      },
      {
        "astId": 6252,
        "contract": "contracts/metavault/strategies/StrategyCurve3Crv.sol:StrategyCurve3Crv",
        "label": "router",
        "offset": 0,
        "slot": "2",
        "type": "t_contract(ISwap)1893"
      },
      {
        "astId": 7002,
        "contract": "contracts/metavault/strategies/StrategyCurve3Crv.sol:StrategyCurve3Crv",
        "label": "crv",
        "offset": 0,
        "slot": "3",
        "type": "t_address"
      },
      {
        "astId": 7008,
        "contract": "contracts/metavault/strategies/StrategyCurve3Crv.sol:StrategyCurve3Crv",
        "label": "t3crv",
        "offset": 0,
        "slot": "4",
        "type": "t_address"
      },
      {
        "astId": 7014,
        "contract": "contracts/metavault/strategies/StrategyCurve3Crv.sol:StrategyCurve3Crv",
        "label": "dai",
        "offset": 0,
        "slot": "5",
        "type": "t_address"
      },
      {
        "astId": 7020,
        "contract": "contracts/metavault/strategies/StrategyCurve3Crv.sol:StrategyCurve3Crv",
        "label": "usdc",
        "offset": 0,
        "slot": "6",
        "type": "t_address"
      },
      {
        "astId": 7026,
        "contract": "contracts/metavault/strategies/StrategyCurve3Crv.sol:StrategyCurve3Crv",
        "label": "usdt",
        "offset": 0,
        "slot": "7",
        "type": "t_address"
      },
      {
        "astId": 7031,
        "contract": "contracts/metavault/strategies/StrategyCurve3Crv.sol:StrategyCurve3Crv",
        "label": "crvMintr",
        "offset": 0,
        "slot": "8",
        "type": "t_contract(Mintr)1417"
      },
      {
        "astId": 7036,
        "contract": "contracts/metavault/strategies/StrategyCurve3Crv.sol:StrategyCurve3Crv",
        "label": "stableSwap3Pool",
        "offset": 0,
        "slot": "9",
        "type": "t_contract(IStableSwap3Pool)1829"
      },
      {
        "astId": 7041,
        "contract": "contracts/metavault/strategies/StrategyCurve3Crv.sol:StrategyCurve3Crv",
        "label": "gauge",
        "offset": 0,
        "slot": "10",
        "type": "t_contract(Gauge)1411"
      }
    ],
    "types": {
      "t_address": {
        "encoding": "inplace",
        "label": "address",
        "numberOfBytes": "20"
      },
      "t_contract(Gauge)1411": {
        "encoding": "inplace",
        "label": "contract Gauge",
        "numberOfBytes": "20"
      },
      "t_contract(IStableSwap3Pool)1829": {
        "encoding": "inplace",
        "label": "contract IStableSwap3Pool",
        "numberOfBytes": "20"
      },
      "t_contract(ISwap)1893": {
        "encoding": "inplace",
        "label": "contract ISwap",
        "numberOfBytes": "20"
      },
      "t_contract(IVaultManager)1992": {
        "encoding": "inplace",
        "label": "contract IVaultManager",
        "numberOfBytes": "20"
      },
      "t_contract(Mintr)1417": {
        "encoding": "inplace",
        "label": "contract Mintr",
        "numberOfBytes": "20"
      }
    }
  }
}