{
  "address": "0x67d269191c92Caf3cD7723F116c85e6E9bf55933",
  "abi": [
    {
      "inputs": [
        {
          "internalType": "address",
          "name": "_underlying",
          "type": "address"
        },
        {
          "internalType": "address",
          "name": "_dToken",
          "type": "address"
        },
        {
          "internalType": "address",
          "name": "_pool",
          "type": "address"
        },
        {
          "internalType": "address",
          "name": "_DF",
          "type": "address"
        },
        {
          "internalType": "address",
          "name": "_converter",
          "type": "address"
        },
        {
          "internalType": "address",
          "name": "_controller",
          "type": "address"
        },
        {
          "internalType": "address",
          "name": "_vaultManager",
          "type": "address"
        },
        {
          "internalType": "address",
          "name": "_weth",
          "type": "address"
        },
        {
          "internalType": "address",
          "name": "_router",
          "type": "address"
        }
      ],
      "stateMutability": "nonpayable",
      "type": "constructor"
    },
    {
      "inputs": [],
      "name": "DF",
      "outputs": [
        {
          "internalType": "address",
          "name": "",
          "type": "address"
        }
      ],
      "stateMutability": "view",
      "type": "function"
    },
    {
      "inputs": [],
      "name": "ONE_HUNDRED_PERCENT",
      "outputs": [
        {
          "internalType": "uint256",
          "name": "",
          "type": "uint256"
        }
      ],
      "stateMutability": "view",
      "type": "function"
    },
    {
      "inputs": [
        {
          "internalType": "contract IERC20",
          "name": "_token",
          "type": "address"
        },
        {
          "internalType": "address",
          "name": "_spender",
          "type": "address"
        },
        {
          "internalType": "uint256",
          "name": "_amount",
          "type": "uint256"
        }
      ],
      "name": "approveForSpender",
      "outputs": [],
      "stateMutability": "nonpayable",
      "type": "function"
    },
    {
      "inputs": [],
      "name": "balanceOf",
      "outputs": [
        {
          "internalType": "uint256",
          "name": "",
          "type": "uint256"
        }
      ],
      "stateMutability": "view",
      "type": "function"
    },
    {
      "inputs": [],
      "name": "balanceOfPool",
      "outputs": [
        {
          "internalType": "uint256",
          "name": "",
          "type": "uint256"
        }
      ],
      "stateMutability": "view",
      "type": "function"
    },
    {
      "inputs": [],
      "name": "balanceOfWant",
      "outputs": [
        {
          "internalType": "uint256",
          "name": "",
          "type": "uint256"
        }
      ],
      "stateMutability": "view",
      "type": "function"
    },
    {
      "inputs": [],
      "name": "balanceOfdToken",
      "outputs": [
        {
          "internalType": "uint256",
          "name": "",
          "type": "uint256"
        }
      ],
      "stateMutability": "view",
      "type": "function"
    },
    {
      "inputs": [],
      "name": "controller",
      "outputs": [
        {
          "internalType": "address",
          "name": "",
          "type": "address"
        }
      ],
      "stateMutability": "view",
      "type": "function"
    },
    {
      "inputs": [],
      "name": "converter",
      "outputs": [
        {
          "internalType": "contract IConverter",
          "name": "",
          "type": "address"
        }
      ],
      "stateMutability": "view",
      "type": "function"
    },
    {
      "inputs": [],
      "name": "dToken",
      "outputs": [
        {
          "internalType": "address",
          "name": "",
          "type": "address"
        }
      ],
      "stateMutability": "view",
      "type": "function"
    },
    {
      "inputs": [],
      "name": "deposit",
      "outputs": [],
      "stateMutability": "nonpayable",
      "type": "function"
    },
    {
      "inputs": [],
      "name": "harvest",
      "outputs": [],
      "stateMutability": "nonpayable",
      "type": "function"
    },
    {
      "inputs": [],
      "name": "pool",
      "outputs": [
        {
          "internalType": "address",
          "name": "",
          "type": "address"
        }
      ],
      "stateMutability": "view",
      "type": "function"
    },
    {
      "inputs": [],
      "name": "router",
      "outputs": [
        {
          "internalType": "contract ISwap",
          "name": "",
          "type": "address"
        }
      ],
      "stateMutability": "view",
      "type": "function"
    },
    {
      "inputs": [
        {
          "internalType": "address",
          "name": "_controller",
          "type": "address"
        }
      ],
      "name": "setController",
      "outputs": [],
      "stateMutability": "nonpayable",
      "type": "function"
    },
    {
      "inputs": [
        {
          "internalType": "address",
          "name": "_router",
          "type": "address"
        }
      ],
      "name": "setRouter",
      "outputs": [],
      "stateMutability": "nonpayable",
      "type": "function"
    },
    {
      "inputs": [],
      "name": "skim",
      "outputs": [],
      "stateMutability": "nonpayable",
      "type": "function"
    },
    {
      "inputs": [],
      "name": "vaultManager",
      "outputs": [
        {
          "internalType": "contract IVaultManager",
          "name": "",
          "type": "address"
        }
      ],
      "stateMutability": "view",
      "type": "function"
    },
    {
      "inputs": [],
      "name": "want",
      "outputs": [
        {
          "internalType": "address",
          "name": "",
          "type": "address"
        }
      ],
      "stateMutability": "view",
      "type": "function"
    },
    {
      "inputs": [],
      "name": "weth",
      "outputs": [
        {
          "internalType": "address",
          "name": "",
          "type": "address"
        }
      ],
      "stateMutability": "view",
      "type": "function"
    },
    {
      "inputs": [
        {
          "internalType": "uint256",
          "name": "_amount",
          "type": "uint256"
        }
      ],
      "name": "withdraw",
      "outputs": [],
      "stateMutability": "nonpayable",
      "type": "function"
    },
    {
      "inputs": [
        {
          "internalType": "address",
          "name": "_asset",
          "type": "address"
        }
      ],
      "name": "withdraw",
      "outputs": [],
      "stateMutability": "nonpayable",
      "type": "function"
    },
    {
      "inputs": [],
      "name": "withdrawAll",
      "outputs": [
        {
          "internalType": "uint256",
          "name": "_balance",
          "type": "uint256"
        }
      ],
      "stateMutability": "nonpayable",
      "type": "function"
    }
  ],
  "transactionHash": "0xa2af1b85e77edc5deeba8d0de7bd9cfe5b6f91a9700805ddfc9840987929487d",
  "args": [
    "0xe7f1725E7734CE288F8367e1Bb143E90bb3F0512",
    "0x09635F643e140090A9A8Dcd712eD6285858ceBef",
    "0xc5a5C42992dECbae36851359345FE25997F5C42d",
    "0x7a2088a1bFc9d81c55368AE168C2C02570cB814F",
    "0xA51c1fc2f0D1a1b8494Ed1FE312d7C3a78Ed91C0",
    "0x610178dA211FEF7D417bC0e6FeD39F05609AD788",
    "0x8A791620dd6260079BF849Dc5567aDC3F2FdC318",
    "0xDc64a140Aa3E981100a9becA4E685f962f0cF6C9",
    "0x0165878A594ca255338adfa4d48449f69242Eb8F"
  ],
  "solcInputHash": "29c097734f195176561e60c2670ea13c",
  "bytecode": "0x6101206040523480156200001257600080fd5b50604051620034863803806200348683398181016040526101208110156200003957600080fd5b508051602080830151604084015160608086015160808088015160a0808a015160c08b015160e08c0151610100909c01516001600160601b03198c891b8116909652600080546001600160a01b038086166001600160a01b03199283161790925560018054838616908316179055988e901b9096169093526002805486851698169790971790965598999698959793969195949391929091859185918c9186918691620000f9919084169083906000199062001527620001e4821b17901c565b5050505050606088811b6001600160601b031990811660c05288821b811660e0529087901b1661010052600380546001600160a01b0319166001600160a01b03878116919091179091556200016090871682600019620001e4602090811b6200152717901c565b62000187856000198b6001600160a01b0316620001e460201b62001527179092919060201c565b620001ae886000198b6001600160a01b0316620001e460201b62001527179092919060201c565b620001d5876000198a6001600160a01b0316620001e460201b62001527179092919060201c565b505050505050505050620005f7565b8015806200026e575060408051636eb1769f60e11b81523060048201526001600160a01b03848116602483015291519185169163dd62ed3e91604480820192602092909190829003018186803b1580156200023e57600080fd5b505afa15801562000253573d6000803e3d6000fd5b505050506040513d60208110156200026a57600080fd5b5051155b620002ab5760405162461bcd60e51b8152600401808060200182810382526036815260200180620034506036913960400191505060405180910390fd5b604080516001600160a01b038416602482015260448082018490528251808303909101815260649091019091526020810180516001600160e01b0390811663095ea7b360e01b17909152620003039185916200030816565b505050565b606062000364826040518060400160405280602081526020017f5361666545524332303a206c6f772d6c6576656c2063616c6c206661696c6564815250856001600160a01b0316620003c460201b6200163a179092919060201c565b80519091501562000303578080602001905160208110156200038557600080fd5b5051620003035760405162461bcd60e51b815260040180806020018281038252602a81526020018062003426602a913960400191505060405180910390fd5b6060620003d58484600085620003df565b90505b9392505050565b606082471015620004225760405162461bcd60e51b8152600401808060200182810382526026815260200180620034006026913960400191505060405180910390fd5b6200042d8562000547565b6200047f576040805162461bcd60e51b815260206004820152601d60248201527f416464726573733a2063616c6c20746f206e6f6e2d636f6e7472616374000000604482015290519081900360640190fd5b60006060866001600160a01b031685876040518082805190602001908083835b60208310620004c05780518252601f1990920191602091820191016200049f565b6001836020036101000a03801982511681845116808217855250505050505090500191505060006040518083038185875af1925050503d806000811462000524576040519150601f19603f3d011682016040523d82523d6000602084013e62000529565b606091505b5090925090506200053c8282866200054d565b979650505050505050565b3b151590565b606083156200055e575081620003d8565b8251156200056f5782518084602001fd5b8160405162461bcd60e51b81526004018080602001828103825283818151815260200191508051906020019080838360005b83811015620005bb578181015183820152602001620005a1565b50505050905090810190601f168015620005e95780820380516001836020036101000a031916815260200191505b509250505060405180910390fd5b60805160601c60a05160601c60c05160601c60e05160601c6101005160601c612d29620006d7600039806102d952806119e35250806103bc5280610447528061196b5280611a775280611d8b52806122705250806103195280610fb452806114095280611aec5280611bb25280611c865280611cea528061211a52806121b552806122d4528061237b5250806108c05280611a1452806124ce528061251352806126795280612761528061280c52806128a35250806105f0528061061b5280610bc0528061122f5280611a355280611c20528061241d5250612d296000f3fe608060405234801561001057600080fd5b506004361061014d5760003560e01c80638a4adf24116100c3578063d0e30db01161007c578063d0e30db014610279578063d9d7858a14610281578063dd0081c714610289578063ef9e237914610291578063f77c4791146102c7578063f887ea40146102cf5761014d565b80638a4adf241461020d5780638aa4f0341461021557806392eefe9b1461021d578063bd38837b14610243578063c0d786551461024b578063c1a3d44c146102715761014d565b80632e1a7d4d116101155780632e1a7d4d146101aa5780633fc8cef3146101c75780634641257d146101cf57806351cff8d9146101d7578063722713f7146101fd578063853828b6146102055761014d565b806305a91f7b14610152578063115880861461017657806316f0115b146101905780631dd19cb4146101985780631f1fcd51146101a2575b600080fd5b61015a6102d7565b604080516001600160a01b039092168252519081900360200190f35b61017e6102fb565b60408051918252519081900360200190f35b61015a610445565b6101a0610469565b005b61015a610619565b6101a0600480360360208110156101c057600080fd5b503561063d565b61015a6108be565b6101a06108e2565b6101a0600480360360208110156101ed57600080fd5b50356001600160a01b0316610a4f565b61017e610cbd565b61017e610cd2565b61015a610fa1565b61017e610fb0565b6101a06004803603602081101561023357600080fd5b50356001600160a01b0316611050565b61015a611136565b6101a06004803603602081101561026157600080fd5b50356001600160a01b0316611145565b61017e61122b565b6101a061129a565b61015a611407565b61017e61142b565b6101a0600480360360608110156102a757600080fd5b506001600160a01b03813581169160208101359091169060400135611431565b61015a611509565b61015a611518565b7f000000000000000000000000000000000000000000000000000000000000000081565b6000610440610308610fb0565b61043a670de0b6b3a76400006104347f00000000000000000000000000000000000000000000000000000000000000006001600160a01b031663e6aa216c6040518163ffffffff1660e01b815260040160206040518083038186803b15801561037057600080fd5b505afa158015610384573d6000803e3d6000fd5b505050506040513d602081101561039a57600080fd5b5051604080516370a0823160e01b815230600482015290516001600160a01b037f000000000000000000000000000000000000000000000000000000000000000016916370a08231916024808301926020929190829003018186803b15801561040257600080fd5b505afa158015610416573d6000803e3d6000fd5b505050506040513d602081101561042c57600080fd5b505190611653565b906116b5565b906116f7565b905090565b7f000000000000000000000000000000000000000000000000000000000000000081565b6000546001600160a01b03163314806105035750600160009054906101000a90046001600160a01b03166001600160a01b0316631fe4a6866040518163ffffffff1660e01b815260040160206040518083038186803b1580156104cb57600080fd5b505afa1580156104df573d6000803e3d6000fd5b505050506040513d60208110156104f557600080fd5b50516001600160a01b031633145b8061058f5750600160009054906101000a90046001600160a01b03166001600160a01b0316635aa6e6756040518163ffffffff1660e01b815260040160206040518083038186803b15801561055757600080fd5b505afa15801561056b573d6000803e3d6000fd5b505050506040513d602081101561058157600080fd5b50516001600160a01b031633145b6105ce576040805162461bcd60e51b815260206004820152600b60248201526a08585d5d1a1bdc9a5e995960aa1b604482015290519081900360640190fd5b600054610617906001600160a01b03166105e661122b565b6001600160a01b037f0000000000000000000000000000000000000000000000000000000000000000169190611751565b565b7f000000000000000000000000000000000000000000000000000000000000000081565b6000546001600160a01b03163314806106d75750600160009054906101000a90046001600160a01b03166001600160a01b0316631fe4a6866040518163ffffffff1660e01b815260040160206040518083038186803b15801561069f57600080fd5b505afa1580156106b3573d6000803e3d6000fd5b505050506040513d60208110156106c957600080fd5b50516001600160a01b031633145b806107635750600160009054906101000a90046001600160a01b03166001600160a01b0316635aa6e6756040518163ffffffff1660e01b815260040160206040518083038186803b15801561072b57600080fd5b505afa15801561073f573d6000803e3d6000fd5b505050506040513d602081101561075557600080fd5b50516001600160a01b031633145b6107a2576040805162461bcd60e51b815260206004820152600b60248201526a08585d5d1a1bdc9a5e995960aa1b604482015290519081900360640190fd5b60006107ac61122b565b9050818110156107d7576107c86107c383836117a3565b6117e5565b91506107d482826116f7565b91505b60006107e1611908565b6000805460408051632988bb9f60e21b81526001600160a01b0380861660048301529151949550929391169163a622ee7c916024808301926020929190829003018186803b15801561083257600080fd5b505afa158015610846573d6000803e3d6000fd5b505050506040513d602081101561085c57600080fd5b505190506001600160a01b0381166108a4576040805162461bcd60e51b8152602060048201526006602482015265085d985d5b1d60d21b604482015290519081900360640190fd5b6108b86001600160a01b0383168286611751565b50505050565b7f000000000000000000000000000000000000000000000000000000000000000081565b6000546001600160a01b031633148061097c5750600160009054906101000a90046001600160a01b03166001600160a01b0316631fe4a6866040518163ffffffff1660e01b815260040160206040518083038186803b15801561094457600080fd5b505afa158015610958573d6000803e3d6000fd5b505050506040513d602081101561096e57600080fd5b50516001600160a01b031633145b80610a085750600160009054906101000a90046001600160a01b03166001600160a01b0316635aa6e6756040518163ffffffff1660e01b815260040160206040518083038186803b1580156109d057600080fd5b505afa1580156109e4573d6000803e3d6000fd5b505050506040513d60208110156109fa57600080fd5b50516001600160a01b031633145b610a47576040805162461bcd60e51b815260206004820152600b60248201526a08585d5d1a1bdc9a5e995960aa1b604482015290519081900360640190fd5b610617611969565b6000546001600160a01b0316331480610ae95750600160009054906101000a90046001600160a01b03166001600160a01b0316631fe4a6866040518163ffffffff1660e01b815260040160206040518083038186803b158015610ab157600080fd5b505afa158015610ac5573d6000803e3d6000fd5b505050506040513d6020811015610adb57600080fd5b50516001600160a01b031633145b80610b755750600160009054906101000a90046001600160a01b03166001600160a01b0316635aa6e6756040518163ffffffff1660e01b815260040160206040518083038186803b158015610b3d57600080fd5b505afa158015610b51573d6000803e3d6000fd5b505050506040513d6020811015610b6757600080fd5b50516001600160a01b031633145b610bb4576040805162461bcd60e51b815260206004820152600b60248201526a08585d5d1a1bdc9a5e995960aa1b604482015290519081900360640190fd5b806001600160a01b03167f00000000000000000000000000000000000000000000000000000000000000006001600160a01b03161415610c24576040805162461bcd60e51b815260206004808301919091526024820152631dd85b9d60e21b604482015290519081900360640190fd5b604080516370a0823160e01b8152306004820152905182916000916001600160a01b038416916370a08231916024808301926020929190829003018186803b158015610c6f57600080fd5b505afa158015610c83573d6000803e3d6000fd5b505050506040513d6020811015610c9957600080fd5b5051600054909150610cb8906001600160a01b03848116911683611751565b505050565b6000610440610cca6102fb565b61043a61122b565b600080546001600160a01b0316331480610d6d5750600160009054906101000a90046001600160a01b03166001600160a01b0316631fe4a6866040518163ffffffff1660e01b815260040160206040518083038186803b158015610d3557600080fd5b505afa158015610d49573d6000803e3d6000fd5b505050506040513d6020811015610d5f57600080fd5b50516001600160a01b031633145b80610df95750600160009054906101000a90046001600160a01b03166001600160a01b0316635aa6e6756040518163ffffffff1660e01b815260040160206040518083038186803b158015610dc157600080fd5b505afa158015610dd5573d6000803e3d6000fd5b505050506040513d6020811015610deb57600080fd5b50516001600160a01b031633145b610e38576040805162461bcd60e51b815260206004820152600b60248201526a08585d5d1a1bdc9a5e995960aa1b604482015290519081900360640190fd5b610e40611a75565b6000610e4a611908565b9050806001600160a01b03166370a08231306040518263ffffffff1660e01b815260040180826001600160a01b0316815260200191505060206040518083038186803b158015610e9957600080fd5b505afa158015610ead573d6000803e3d6000fd5b505050506040513d6020811015610ec357600080fd5b50516000805460408051632988bb9f60e21b81526001600160a01b0386811660048301529151949650929391169163a622ee7c916024808301926020929190829003018186803b158015610f1657600080fd5b505afa158015610f2a573d6000803e3d6000fd5b505050506040513d6020811015610f4057600080fd5b505190506001600160a01b038116610f88576040805162461bcd60e51b8152602060048201526006602482015265085d985d5b1d60d21b604482015290519081900360640190fd5b610f9c6001600160a01b0383168285611751565b505090565b6001546001600160a01b031681565b60007f00000000000000000000000000000000000000000000000000000000000000006001600160a01b0316633aecd0e3306040518263ffffffff1660e01b815260040180826001600160a01b0316815260200191505060206040518083038186803b15801561101f57600080fd5b505afa158015611033573d6000803e3d6000fd5b505050506040513d602081101561104957600080fd5b5051905090565b600160009054906101000a90046001600160a01b03166001600160a01b0316635aa6e6756040518163ffffffff1660e01b815260040160206040518083038186803b15801561109e57600080fd5b505afa1580156110b2573d6000803e3d6000fd5b505050506040513d60208110156110c857600080fd5b50516001600160a01b03163314611114576040805162461bcd60e51b815260206004820152600b60248201526a21676f7665726e616e636560a81b604482015290519081900360640190fd5b600080546001600160a01b0319166001600160a01b0392909216919091179055565b6003546001600160a01b031681565b600160009054906101000a90046001600160a01b03166001600160a01b0316635aa6e6756040518163ffffffff1660e01b815260040160206040518083038186803b15801561119357600080fd5b505afa1580156111a7573d6000803e3d6000fd5b505050506040513d60208110156111bd57600080fd5b50516001600160a01b03163314611209576040805162461bcd60e51b815260206004820152600b60248201526a21676f7665726e616e636560a81b604482015290519081900360640190fd5b600280546001600160a01b0319166001600160a01b0392909216919091179055565b60007f00000000000000000000000000000000000000000000000000000000000000006001600160a01b03166370a08231306040518263ffffffff1660e01b815260040180826001600160a01b0316815260200191505060206040518083038186803b15801561101f57600080fd5b6000546001600160a01b03163314806113345750600160009054906101000a90046001600160a01b03166001600160a01b0316631fe4a6866040518163ffffffff1660e01b815260040160206040518083038186803b1580156112fc57600080fd5b505afa158015611310573d6000803e3d6000fd5b505050506040513d602081101561132657600080fd5b50516001600160a01b031633145b806113c05750600160009054906101000a90046001600160a01b03166001600160a01b0316635aa6e6756040518163ffffffff1660e01b815260040160206040518083038186803b15801561138857600080fd5b505afa15801561139c573d6000803e3d6000fd5b505050506040513d60208110156113b257600080fd5b50516001600160a01b031633145b6113ff576040805162461bcd60e51b815260206004820152600b60248201526a08585d5d1a1bdc9a5e995960aa1b604482015290519081900360640190fd5b610617611c4d565b7f000000000000000000000000000000000000000000000000000000000000000081565b61271081565b600160009054906101000a90046001600160a01b03166001600160a01b0316635aa6e6756040518163ffffffff1660e01b815260040160206040518083038186803b15801561147f57600080fd5b505afa158015611493573d6000803e3d6000fd5b505050506040513d60208110156114a957600080fd5b50516001600160a01b031633146114f5576040805162461bcd60e51b815260206004820152600b60248201526a21676f7665726e616e636560a81b604482015290519081900360640190fd5b610cb86001600160a01b0384168383611527565b6000546001600160a01b031681565b6002546001600160a01b031681565b8015806115ad575060408051636eb1769f60e11b81523060048201526001600160a01b03848116602483015291519185169163dd62ed3e91604480820192602092909190829003018186803b15801561157f57600080fd5b505afa158015611593573d6000803e3d6000fd5b505050506040513d60208110156115a957600080fd5b5051155b6115e85760405162461bcd60e51b8152600401808060200182810382526036815260200180612cbe6036913960400191505060405180910390fd5b604080516001600160a01b038416602482015260448082018490528251808303909101815260649091019091526020810180516001600160e01b031663095ea7b360e01b179052610cb8908490611e0c565b60606116498484600085611ebd565b90505b9392505050565b600082611662575060006116af565b8282028284828161166f57fe5b04146116ac5760405162461bcd60e51b8152600401808060200182810382526021815260200180612c736021913960400191505060405180910390fd5b90505b92915050565b60006116ac83836040518060400160405280601a81526020017f536166654d6174683a206469766973696f6e206279207a65726f000000000000815250612019565b6000828201838110156116ac576040805162461bcd60e51b815260206004820152601b60248201527f536166654d6174683a206164646974696f6e206f766572666c6f770000000000604482015290519081900360640190fd5b604080516001600160a01b038416602482015260448082018490528251808303909101815260649091019091526020810180516001600160e01b031663a9059cbb60e01b179052610cb8908490611e0c565b60006116ac83836040518060400160405280601e81526020017f536166654d6174683a207375627472616374696f6e206f766572666c6f7700008152506120bb565b6000806117f0611908565b90506000816001600160a01b03166370a08231306040518263ffffffff1660e01b815260040180826001600160a01b0316815260200191505060206040518083038186803b15801561184157600080fd5b505afa158015611855573d6000803e3d6000fd5b505050506040513d602081101561186b57600080fd5b5051905061187884612115565b6000826001600160a01b03166370a08231306040518263ffffffff1660e01b815260040180826001600160a01b0316815260200191505060206040518083038186803b1580156118c757600080fd5b505afa1580156118db573d6000803e3d6000fd5b505050506040513d60208110156118f157600080fd5b505190506118ff81836117a3565b95945050505050565b60008054604080516364f5005760e01b815230600482015290516001600160a01b03909216916364f500579160248082019260209290919082900301818787803b15801561195557600080fd5b505af1158015611033573d6000803e3d6000fd5b7f00000000000000000000000000000000000000000000000000000000000000006001600160a01b0316633d18b9126040518163ffffffff1660e01b8152600401600060405180830381600087803b1580156119c457600080fd5b505af11580156119d8573d6000803e3d6000fd5b505050506000611a077f000000000000000000000000000000000000000000000000000000000000000061244a565b90508015611a7257611a5a7f00000000000000000000000000000000000000000000000000000000000000007f000000000000000000000000000000000000000000000000000000000000000083612926565b6000611a6461122b565b1115611a7257611a72611c4d565b50565b7f00000000000000000000000000000000000000000000000000000000000000006001600160a01b031663e9fad8ee6040518163ffffffff1660e01b8152600401600060405180830381600087803b158015611ad057600080fd5b505af1158015611ae4573d6000803e3d6000fd5b5050505060007f00000000000000000000000000000000000000000000000000000000000000006001600160a01b03166370a08231306040518263ffffffff1660e01b815260040180826001600160a01b0316815260200191505060206040518083038186803b158015611b5757600080fd5b505afa158015611b6b573d6000803e3d6000fd5b505050506040513d6020811015611b8157600080fd5b505190508015611a7257604080516301e9a69560e41b81523060048201526024810183905290516001600160a01b037f00000000000000000000000000000000000000000000000000000000000000001691631e9a695091604480830192600092919082900301818387803b158015611bf957600080fd5b505af1158015611c0d573d6000803e3d6000fd5b50505050611c1961122b565b9050611a727f0000000000000000000000000000000000000000000000000000000000000000611c47611908565b83612a69565b6000611c5761122b565b90508015611ce657604080516340c10f1960e01b81523060048201526024810183905290516001600160a01b037f000000000000000000000000000000000000000000000000000000000000000016916340c10f1991604480830192600092919082900301818387803b158015611ccd57600080fd5b505af1158015611ce1573d6000803e3d6000fd5b505050505b60007f00000000000000000000000000000000000000000000000000000000000000006001600160a01b03166370a08231306040518263ffffffff1660e01b815260040180826001600160a01b0316815260200191505060206040518083038186803b158015611d5557600080fd5b505afa158015611d69573d6000803e3d6000fd5b505050506040513d6020811015611d7f57600080fd5b505190508015611e08577f00000000000000000000000000000000000000000000000000000000000000006001600160a01b031663a694fc3a826040518263ffffffff1660e01b815260040180828152602001915050600060405180830381600087803b158015611def57600080fd5b505af1158015611e03573d6000803e3d6000fd5b505050505b5050565b6060611e61826040518060400160405280602081526020017f5361666545524332303a206c6f772d6c6576656c2063616c6c206661696c6564815250856001600160a01b031661163a9092919063ffffffff16565b805190915015610cb857808060200190516020811015611e8057600080fd5b5051610cb85760405162461bcd60e51b815260040180806020018281038252602a815260200180612c94602a913960400191505060405180910390fd5b606082471015611efe5760405162461bcd60e51b8152600401808060200182810382526026815260200180612c4d6026913960400191505060405180910390fd5b611f0785612be0565b611f58576040805162461bcd60e51b815260206004820152601d60248201527f416464726573733a2063616c6c20746f206e6f6e2d636f6e7472616374000000604482015290519081900360640190fd5b60006060866001600160a01b031685876040518082805190602001908083835b60208310611f975780518252601f199092019160209182019101611f78565b6001836020036101000a03801982511681845116808217855250505050505090500191505060006040518083038185875af1925050503d8060008114611ff9576040519150601f19603f3d011682016040523d82523d6000602084013e611ffe565b606091505b509150915061200e828286612be6565b979650505050505050565b600081836120a55760405162461bcd60e51b81526004018080602001828103825283818151815260200191508051906020019080838360005b8381101561206a578181015183820152602001612052565b50505050905090810190601f1680156120975780820380516001836020036101000a031916815260200191505b509250505060405180910390fd5b5060008385816120b157fe5b0495945050505050565b6000818484111561210d5760405162461bcd60e51b815260206004820181815283516024840152835190928392604490910191908501908083836000831561206a578181015183820152602001612052565b505050900390565b6121af7f00000000000000000000000000000000000000000000000000000000000000006001600160a01b031663e6aa216c6040518163ffffffff1660e01b815260040160206040518083038186803b15801561217157600080fd5b505afa158015612185573d6000803e3d6000fd5b505050506040513d602081101561219b57600080fd5b505161043483670de0b6b3a7640000611653565b905060007f00000000000000000000000000000000000000000000000000000000000000006001600160a01b03166370a08231306040518263ffffffff1660e01b815260040180826001600160a01b0316815260200191505060206040518083038186803b15801561222057600080fd5b505afa158015612234573d6000803e3d6000fd5b505050506040513d602081101561224a57600080fd5b505160408051632e1a7d4d60e01b81526004810185905290519192506001600160a01b037f00000000000000000000000000000000000000000000000000000000000000001691632e1a7d4d9160248082019260009290919082900301818387803b1580156122b857600080fd5b505af11580156122cc573d6000803e3d6000fd5b5050505060007f00000000000000000000000000000000000000000000000000000000000000006001600160a01b03166370a08231306040518263ffffffff1660e01b815260040180826001600160a01b0316815260200191505060206040518083038186803b15801561233f57600080fd5b505afa158015612353573d6000803e3d6000fd5b505050506040513d602081101561236957600080fd5b5051905061237781836117a3565b92507f00000000000000000000000000000000000000000000000000000000000000006001600160a01b0316631e9a695030856040518363ffffffff1660e01b815260040180836001600160a01b0316815260200182815260200192505050600060405180830381600087803b1580156123f057600080fd5b505af1158015612404573d6000803e3d6000fd5b5050505061241061122b565b92508215610cb857610cb87f0000000000000000000000000000000000000000000000000000000000000000612444611908565b85612a69565b600080826001600160a01b03166370a08231306040518263ffffffff1660e01b815260040180826001600160a01b0316815260200191505060206040518083038186803b15801561249a57600080fd5b505afa1580156124ae573d6000803e3d6000fd5b505050506040513d60208110156124c457600080fd5b505190506124f3837f000000000000000000000000000000000000000000000000000000000000000083612926565b604080516370a0823160e01b815230600482015290516001600160a01b037f000000000000000000000000000000000000000000000000000000000000000016916370a08231916024808301926020929190829003018186803b15801561255957600080fd5b505afa15801561256d573d6000803e3d6000fd5b505050506040513d602081101561258357600080fd5b505191508115612920576000806000806000806000600160009054906101000a90046001600160a01b03166001600160a01b031663da633d316040518163ffffffff1660e01b815260040160e06040518083038186803b1580156125e657600080fd5b505afa1580156125fa573d6000803e3d6000fd5b505050506040513d60e081101561261057600080fd5b508051602082015160408301516060840151608085015160a086015160c090960151949c50929a509098509650945090925090506000851580159061265d57506001600160a01b03871615155b1561272d576126726127106104348c89611653565b905061269f7f00000000000000000000000000000000000000000000000000000000000000008983612926565b61272d87896001600160a01b03166370a08231306040518263ffffffff1660e01b815260040180826001600160a01b0316815260200191505060206040518083038186803b1580156126f057600080fd5b505afa158015612704573d6000803e3d6000fd5b505050506040513d602081101561271a57600080fd5b50516001600160a01b038b169190611751565b60008411801561274557506001600160a01b03851615155b156127d85761275a6127106104348c87611653565b90506127877f00000000000000000000000000000000000000000000000000000000000000008983612926565b6127d885896001600160a01b03166370a08231306040518263ffffffff1660e01b815260040180826001600160a01b0316815260200191505060206040518083038186803b1580156126f057600080fd5b6000821180156127f057506001600160a01b03831615155b15612883576128056127106104348c85611653565b90506128327f00000000000000000000000000000000000000000000000000000000000000008983612926565b61288383896001600160a01b03166370a08231306040518263ffffffff1660e01b815260040180826001600160a01b0316815260200191505060206040518083038186803b1580156126f057600080fd5b604080516370a0823160e01b815230600482015290516001600160a01b037f000000000000000000000000000000000000000000000000000000000000000016916370a08231916024808301926020929190829003018186803b1580156128e957600080fd5b505afa1580156128fd573d6000803e3d6000fd5b505050506040513d602081101561291357600080fd5b5051995050505050505050505b50919050565b6040805160028082526060808301845292602083019080368337019050509050838160008151811061295457fe5b60200260200101906001600160a01b031690816001600160a01b031681525050828160018151811061298257fe5b6001600160a01b039283166020918202929092010152600254166338ed173983600184306129b2426107086116f7565b6040518663ffffffff1660e01b81526004018086815260200185815260200180602001846001600160a01b03168152602001838152602001828103825285818151815260200191508051906020019060200280838360005b83811015612a22578181015183820152602001612a0a565b505050509050019650505050505050600060405180830381600087803b158015612a4b57600080fd5b505af1158015612a5f573d6000803e3d6000fd5b5050505050505050565b60035460408051630db3e24f60e21b81526001600160a01b038681166004830152858116602483015260448201859052915160009392909216916336cf893c91606480820192602092909190829003018186803b158015612ac957600080fd5b505afa158015612add573d6000803e3d6000fd5b505050506040513d6020811015612af357600080fd5b505111612b37576040805162461bcd60e51b815260206004820152600d60248201526c21636f6e766572745f7261746560981b604482015290519081900360640190fd5b600354612b51906001600160a01b03858116911683611751565b6003546040805163248391ff60e01b81526001600160a01b0386811660048301528581166024830152604482018590529151919092169163248391ff9160648083019260209291908290030181600087803b158015612baf57600080fd5b505af1158015612bc3573d6000803e3d6000fd5b505050506040513d6020811015612bd957600080fd5b5050505050565b3b151590565b60608315612bf557508161164c565b825115612c055782518084602001fd5b60405162461bcd60e51b815260206004820181815284516024840152845185939192839260440191908501908083836000831561206a57818101518382015260200161205256fe416464726573733a20696e73756666696369656e742062616c616e636520666f722063616c6c536166654d6174683a206d756c7469706c69636174696f6e206f766572666c6f775361666545524332303a204552433230206f7065726174696f6e20646964206e6f7420737563636565645361666545524332303a20617070726f76652066726f6d206e6f6e2d7a65726f20746f206e6f6e2d7a65726f20616c6c6f77616e6365a26469706673582212203b2276277975385bc822f06773807dbf0bebcdbad0817679cdc0e288f4921f2b64736f6c634300060c0033416464726573733a20696e73756666696369656e742062616c616e636520666f722063616c6c5361666545524332303a204552433230206f7065726174696f6e20646964206e6f7420737563636565645361666545524332303a20617070726f76652066726f6d206e6f6e2d7a65726f20746f206e6f6e2d7a65726f20616c6c6f77616e6365",
  "devdoc": {
    "kind": "dev",
    "methods": {
      "approveForSpender(address,address,uint256)": {
        "params": {
          "_amount": "The amount to spend",
          "_spender": "The address of the spender",
          "_token": "The address of the token"
        }
      },
      "balanceOfPool()": {
        "details": "Must be implemented by the strategy"
      },
      "setController(address)": {
        "params": {
          "_controller": "The address of the controller"
        }
      },
      "setRouter(address)": {
        "params": {
          "_router": "The address of the router"
        }
      },
      "withdraw(address)": {
        "params": {
          "_asset": "The address of the token to withdraw"
        }
      },
      "withdraw(uint256)": {
        "params": {
          "_amount": "The amount of the want token to withdraw"
        }
      }
    },
    "version": 1
  },
  "userdoc": {
    "kind": "user",
    "methods": {
      "approveForSpender(address,address,uint256)": {
        "notice": "Approves a token address to be spent by an address"
      },
      "balanceOf()": {
        "notice": "Returns the strategy's balance of the want token plus the balance of pool"
      },
      "balanceOfPool()": {
        "notice": "Returns the balance of the pool"
      },
      "balanceOfWant()": {
        "notice": "Returns the balance of the want token on the strategy"
      },
      "deposit()": {
        "notice": "Deposits funds to the strategy's pool"
      },
      "harvest()": {
        "notice": "Harvest funds in the strategy's pool"
      },
      "setController(address)": {
        "notice": "Sets the address of the controller"
      },
      "setRouter(address)": {
        "notice": "Sets the address of the ISwap-compatible router"
      },
      "skim()": {
        "notice": "Sends stuck want tokens in the strategy to the controller"
      },
      "withdraw(address)": {
        "notice": "Sends stuck tokens in the strategy to the controller"
      },
      "withdraw(uint256)": {
        "notice": "Initiated from a vault, withdraws funds from the pool"
      },
      "withdrawAll()": {
        "notice": "Withdraws all funds from the strategy"
      }
    },
    "version": 1
  },
  "storageLayout": {
    "storage": [
      {
        "astId": 6248,
        "contract": "contracts/metavault/strategies/StrategyDforce.sol:StrategyDforce",
        "label": "controller",
        "offset": 0,
        "slot": "0",
        "type": "t_address"
      },
      {
        "astId": 6250,
        "contract": "contracts/metavault/strategies/StrategyDforce.sol:StrategyDforce",
        "label": "vaultManager",
        "offset": 0,
        "slot": "1",
        "type": "t_contract(IVaultManager)1992"
      },
      {
        "astId": 6252,
        "contract": "contracts/metavault/strategies/StrategyDforce.sol:StrategyDforce",
        "label": "router",
        "offset": 0,
        "slot": "2",
        "type": "t_contract(ISwap)1893"
      },
      {
        "astId": 7601,
        "contract": "contracts/metavault/strategies/StrategyDforce.sol:StrategyDforce",
        "label": "converter",
        "offset": 0,
        "slot": "3",
        "type": "t_contract(IConverter)1647"
      }
    ],
    "types": {
      "t_address": {
        "encoding": "inplace",
        "label": "address",
        "numberOfBytes": "20"
      },
      "t_contract(IConverter)1647": {
        "encoding": "inplace",
        "label": "contract IConverter",
        "numberOfBytes": "20"
      },
      "t_contract(ISwap)1893": {
        "encoding": "inplace",
        "label": "contract ISwap",
        "numberOfBytes": "20"
      },
      "t_contract(IVaultManager)1992": {
        "encoding": "inplace",
        "label": "contract IVaultManager",
        "numberOfBytes": "20"
      }
    }
  }
}