{
  "address": "0xBBE412135FF2ad9f3d232cdA5Ed94adBE2E17b9e",
  "abi": [
    {
      "inputs": [
        {
          "internalType": "string",
          "name": "_name",
          "type": "string"
        },
        {
          "internalType": "address",
          "name": "_want",
          "type": "address"
        },
        {
          "internalType": "address",
          "name": "_crv",
          "type": "address"
        },
        {
          "internalType": "address",
          "name": "_cvx",
          "type": "address"
        },
        {
          "internalType": "address",
          "name": "_weth",
          "type": "address"
        },
        {
          "internalType": "address",
          "name": "_aleth",
          "type": "address"
        },
        {
          "internalType": "uint256",
          "name": "_pid",
          "type": "uint256"
        },
        {
          "internalType": "contract IConvexVault",
          "name": "_convexVault",
          "type": "address"
        },
        {
          "internalType": "address",
          "name": "_stableSwapPool",
          "type": "address"
        },
        {
          "internalType": "address",
          "name": "_controller",
          "type": "address"
        },
        {
          "internalType": "address",
          "name": "_manager",
          "type": "address"
        },
        {
          "internalType": "address[]",
          "name": "_routerArray",
          "type": "address[]"
        }
      ],
      "stateMutability": "nonpayable",
      "type": "constructor"
    },
    {
      "inputs": [],
      "name": "ONE_HUNDRED_PERCENT",
      "outputs": [
        {
          "internalType": "uint256",
          "name": "",
          "type": "uint256"
        }
      ],
      "stateMutability": "view",
      "type": "function"
    },
    {
      "inputs": [
        {
          "internalType": "uint256",
          "name": "_estimate",
          "type": "uint256"
        }
      ],
      "name": "_addLiquidity",
      "outputs": [],
      "stateMutability": "payable",
      "type": "function"
    },
    {
      "inputs": [],
      "name": "aleth",
      "outputs": [
        {
          "internalType": "address",
          "name": "",
          "type": "address"
        }
      ],
      "stateMutability": "view",
      "type": "function"
    },
    {
      "inputs": [
        {
          "internalType": "contract IERC20",
          "name": "_token",
          "type": "address"
        },
        {
          "internalType": "address",
          "name": "_spender",
          "type": "address"
        },
        {
          "internalType": "uint256",
          "name": "_amount",
          "type": "uint256"
        }
      ],
      "name": "approveForSpender",
      "outputs": [],
      "stateMutability": "nonpayable",
      "type": "function"
    },
    {
      "inputs": [],
      "name": "balanceOf",
      "outputs": [
        {
          "internalType": "uint256",
          "name": "",
          "type": "uint256"
        }
      ],
      "stateMutability": "view",
      "type": "function"
    },
    {
      "inputs": [],
      "name": "balanceOfPool",
      "outputs": [
        {
          "internalType": "uint256",
          "name": "",
          "type": "uint256"
        }
      ],
      "stateMutability": "view",
      "type": "function"
    },
    {
      "inputs": [],
      "name": "balanceOfWant",
      "outputs": [
        {
          "internalType": "uint256",
          "name": "",
          "type": "uint256"
        }
      ],
      "stateMutability": "view",
      "type": "function"
    },
    {
      "inputs": [],
      "name": "controller",
      "outputs": [
        {
          "internalType": "address",
          "name": "",
          "type": "address"
        }
      ],
      "stateMutability": "view",
      "type": "function"
    },
    {
      "inputs": [],
      "name": "convexVault",
      "outputs": [
        {
          "internalType": "contract IConvexVault",
          "name": "",
          "type": "address"
        }
      ],
      "stateMutability": "view",
      "type": "function"
    },
    {
      "inputs": [],
      "name": "crv",
      "outputs": [
        {
          "internalType": "address",
          "name": "",
          "type": "address"
        }
      ],
      "stateMutability": "view",
      "type": "function"
    },
    {
      "inputs": [],
      "name": "crvRewards",
      "outputs": [
        {
          "internalType": "contract IConvexRewards",
          "name": "",
          "type": "address"
        }
      ],
      "stateMutability": "view",
      "type": "function"
    },
    {
      "inputs": [],
      "name": "cvx",
      "outputs": [
        {
          "internalType": "address",
          "name": "",
          "type": "address"
        }
      ],
      "stateMutability": "view",
      "type": "function"
    },
    {
      "inputs": [],
      "name": "deposit",
      "outputs": [],
      "stateMutability": "nonpayable",
      "type": "function"
    },
    {
      "inputs": [],
      "name": "getEstimates",
      "outputs": [
        {
          "internalType": "uint256[]",
          "name": "",
          "type": "uint256[]"
        }
      ],
      "stateMutability": "view",
      "type": "function"
    },
    {
      "inputs": [
        {
          "internalType": "uint256[]",
          "name": "_estimates",
          "type": "uint256[]"
        }
      ],
      "name": "harvest",
      "outputs": [],
      "stateMutability": "nonpayable",
      "type": "function"
    },
    {
      "inputs": [],
      "name": "manager",
      "outputs": [
        {
          "internalType": "contract IManager",
          "name": "",
          "type": "address"
        }
      ],
      "stateMutability": "view",
      "type": "function"
    },
    {
      "inputs": [],
      "name": "name",
      "outputs": [
        {
          "internalType": "string",
          "name": "",
          "type": "string"
        }
      ],
      "stateMutability": "view",
      "type": "function"
    },
    {
      "inputs": [],
      "name": "pid",
      "outputs": [
        {
          "internalType": "uint256",
          "name": "",
          "type": "uint256"
        }
      ],
      "stateMutability": "view",
      "type": "function"
    },
    {
      "inputs": [],
      "name": "router",
      "outputs": [
        {
          "internalType": "contract ISwap",
          "name": "",
          "type": "address"
        }
      ],
      "stateMutability": "view",
      "type": "function"
    },
    {
      "inputs": [
        {
          "internalType": "uint256",
          "name": "",
          "type": "uint256"
        }
      ],
      "name": "routerArray",
      "outputs": [
        {
          "internalType": "address",
          "name": "",
          "type": "address"
        }
      ],
      "stateMutability": "view",
      "type": "function"
    },
    {
      "inputs": [
        {
          "internalType": "uint256",
          "name": "_routerIndex",
          "type": "uint256"
        }
      ],
      "name": "setDefaultRouter",
      "outputs": [],
      "stateMutability": "nonpayable",
      "type": "function"
    },
    {
      "inputs": [
        {
          "internalType": "address[]",
          "name": "_routerArray",
          "type": "address[]"
        },
        {
          "internalType": "address[]",
          "name": "_tokenArray",
          "type": "address[]"
        }
      ],
      "name": "setRouter",
      "outputs": [],
      "stateMutability": "nonpayable",
      "type": "function"
    },
    {
      "inputs": [],
      "name": "skim",
      "outputs": [],
      "stateMutability": "nonpayable",
      "type": "function"
    },
    {
      "inputs": [],
      "name": "stableSwapPool",
      "outputs": [
        {
          "internalType": "contract IStableSwap2Pool",
          "name": "",
          "type": "address"
        }
      ],
      "stateMutability": "view",
      "type": "function"
    },
    {
      "inputs": [],
      "name": "want",
      "outputs": [
        {
          "internalType": "address",
          "name": "",
          "type": "address"
        }
      ],
      "stateMutability": "view",
      "type": "function"
    },
    {
      "inputs": [],
      "name": "weth",
      "outputs": [
        {
          "internalType": "address",
          "name": "",
          "type": "address"
        }
      ],
      "stateMutability": "view",
      "type": "function"
    },
    {
      "inputs": [
        {
          "internalType": "uint256",
          "name": "_amount",
          "type": "uint256"
        }
      ],
      "name": "withdraw",
      "outputs": [],
      "stateMutability": "nonpayable",
      "type": "function"
    },
    {
      "inputs": [
        {
          "internalType": "address",
          "name": "_asset",
          "type": "address"
        }
      ],
      "name": "withdraw",
      "outputs": [],
      "stateMutability": "nonpayable",
      "type": "function"
    },
    {
      "inputs": [],
      "name": "withdrawAll",
      "outputs": [],
      "stateMutability": "nonpayable",
      "type": "function"
    },
    {
      "stateMutability": "payable",
      "type": "receive"
    }
  ],
  "transactionHash": "0x395f374a1d1e8fdedc5c33a60b0cb68d1a95e4f562157180713eed99ca29b06a",
  "args": [
    "yAxis Convex Strategy: ALETHCRV",
    "0xC4C319E2D4d66CcA4464C0c2B32c9Bd23ebe784e",
    "0xD533a949740bb3306d119CC777fa900bA034cd52",
    "0x4e3FBD56CD56c3e72c1403e103b45Db9da5B9D2B",
    "0xC02aaA39b223FE8D0A0e5C4F27eAD9083C756Cc2",
    "0x0100546F2cD4C9D97f798fFC9755E47865FF7Ee6",
    49,
    "0xF403C135812408BFbE8713b5A23a04b3D48AAE31",
    "0xC4C319E2D4d66CcA4464C0c2B32c9Bd23ebe784e",
    "0x834ebCE3b3Fb5B9647d9398a1f6F44A2E831aC60",
    "0xAB72cC293B63f6477BAf9d514Da735Cf6caADC2d",
    [
      "0xd9e1cE17f2641f24aE83637ab66a2cca9C378B9F",
      "0x7a250d5630B4cF539739dF2C5dAcb4c659F2488D"
    ]
  ],
  "solcInputHash": "7f584678c57e2cfebf8c6d23e419d2c3",
  "bytecode": "0x6101e06040523480156200001257600080fd5b5060405162004de338038062004de383398181016040526101808110156200003957600080fd5b81019080805160405193929190846401000000008211156200005a57600080fd5b9083019060208201858111156200007057600080fd5b82516401000000008111828201881017156200008b57600080fd5b82525081516020918201929091019080838360005b83811015620000ba578181015183820152602001620000a0565b50505050905090810190601f168015620000e85780820380516001836020036101000a031916815260200191505b5060408181526020830151908301516060840151608085015160a086015160c087015160e08801516101008901516101208a01516101408b0151610160909b018051999d989c979b969a95999498939792969195919491939291846401000000008211156200015657600080fd5b9083019060208201858111156200016c57600080fd5b82518660208202830111640100000000821117156200018a57600080fd5b82525081516020918201928201910280838360005b83811015620001b95781810151838201526020016200019f565b505050509050016040525050508b83838d8b858560009080519060200190620001e492919062000cdf565b506001600160601b0319606084811b821660805286811b821660c05285811b821660e05283901b1660a052805162000263576040805162461bcd60e51b815260206004820152601e60248201527f4d75737420696e707574206174206c65617374206f6e6520726f757465720000604482015290519081900360640190fd5b80516200027890600190602084019062000d64565b50806000815181106200028757fe5b6020026020010151600260006101000a8154816001600160a01b0302191690836001600160a01b0316021790555060005b81518110156200034057620002fc828281518110620002d357fe5b60200260200101516000856001600160a01b03166200059c60201b6200279c179092919060201c565b620003378282815181106200030d57fe5b6020026020010151600019856001600160a01b03166200059c60201b6200279c179092919060201c565b600101620002b8565b50505050506001600160a01b038c16151591506200038f9050576040805162461bcd60e51b815260206004820152600560248201526410afb1b93b60d91b604482015290519081900360640190fd5b6001600160a01b038916620003d3576040805162461bcd60e51b8152602060048201526005602482015264042bec6ecf60db1b604482015290519081900360640190fd5b6001600160a01b03871662000419576040805162461bcd60e51b8152602060048201526007602482015266042bec2d8cae8d60cb1b604482015290519081900360640190fd5b6001600160a01b03851662000465576040805162461bcd60e51b815260206004820152600d60248201526c0857d8dbdb9d995e15985d5b1d609a1b604482015290519081900360640190fd5b6001600160a01b038416620004b4576040805162461bcd60e51b815260206004820152601060248201526f0857dcdd18589b1954ddd85c141bdbdb60821b604482015290519081900360640190fd5b6000856001600160a01b0316631526fe27886040518263ffffffff1660e01b81526004018082815260200191505060c06040518083038186803b158015620004fb57600080fd5b505afa15801562000510573d6000803e3d6000fd5b505050506040513d60c08110156200052757600080fd5b506060908101516001600160601b03198d831b8116610100528c831b8116610120528a831b8116610140526101608a905288831b81166101805281831b81166101a0529187901b9091166101c0529050620005898b8b8e89898d8888620006c0565b5050505050505050505050505062000e02565b80158062000626575060408051636eb1769f60e11b81523060048201526001600160a01b03848116602483015291519185169163dd62ed3e91604480820192602092909190829003018186803b158015620005f657600080fd5b505afa1580156200060b573d6000803e3d6000fd5b505050506040513d60208110156200062257600080fd5b5051155b620006635760405162461bcd60e51b815260040180806020018281038252603681526020018062004dad6036913960400191505060405180910390fd5b604080516001600160a01b038416602482015260448082018490528251808303909101815260649091019091526020810180516001600160e01b0390811663095ea7b360e01b17909152620006bb918591620009f016565b505050565b620006e785600019886001600160a01b03166200059c60201b6200279c179092919060201c565b6000825190506000826001600160a01b031663d55a23f46040518163ffffffff1660e01b815260040160206040518083038186803b1580156200072957600080fd5b505afa1580156200073e573d6000803e3d6000fd5b505050506040513d60208110156200075557600080fd5b5051905060005b82811015620009955760008582815181106200077457fe5b60200260200101519050620007a48160008e6001600160a01b03166200059c60201b6200279c179092919060201c565b620007cb816000198e6001600160a01b03166200059c60201b6200279c179092919060201c565b620007f18160008d6001600160a01b03166200059c60201b6200279c179092919060201c565b62000818816000198d6001600160a01b03166200059c60201b6200279c179092919060201c565b82156200098b5760005b83811015620009895762000933826000886001600160a01b03166340c35446856040518263ffffffff1660e01b81526004018082815260200191505060206040518083038186803b1580156200087757600080fd5b505afa1580156200088c573d6000803e3d6000fd5b505050506040513d6020811015620008a357600080fd5b50516040805163f7c618c160e01b815290516001600160a01b039092169163f7c618c191600480820192602092909190829003018186803b158015620008e857600080fd5b505afa158015620008fd573d6000803e3d6000fd5b505050506040513d60208110156200091457600080fd5b50516001600160a01b031691906200059c602090811b6200279c17901c565b6200098082600019886001600160a01b03166340c35446856040518263ffffffff1660e01b81526004018082815260200191505060206040518083038186803b1580156200087757600080fd5b60010162000822565b505b506001016200075c565b50620009bd866000198a6001600160a01b03166200059c60201b6200279c179092919060201c565b620009e486600019876001600160a01b03166200059c60201b6200279c179092919060201c565b50505050505050505050565b606062000a4c826040518060400160405280602081526020017f5361666545524332303a206c6f772d6c6576656c2063616c6c206661696c6564815250856001600160a01b031662000aac60201b620028af179092919060201c565b805190915015620006bb5780806020019051602081101562000a6d57600080fd5b5051620006bb5760405162461bcd60e51b815260040180806020018281038252602a81526020018062004d83602a913960400191505060405180910390fd5b606062000abd848460008562000ac7565b90505b9392505050565b60608247101562000b0a5760405162461bcd60e51b815260040180806020018281038252602681526020018062004d5d6026913960400191505060405180910390fd5b62000b158562000c2f565b62000b67576040805162461bcd60e51b815260206004820152601d60248201527f416464726573733a2063616c6c20746f206e6f6e2d636f6e7472616374000000604482015290519081900360640190fd5b60006060866001600160a01b031685876040518082805190602001908083835b6020831062000ba85780518252601f19909201916020918201910162000b87565b6001836020036101000a03801982511681845116808217855250505050505090500191505060006040518083038185875af1925050503d806000811462000c0c576040519150601f19603f3d011682016040523d82523d6000602084013e62000c11565b606091505b50909250905062000c2482828662000c35565b979650505050505050565b3b151590565b6060831562000c4657508162000ac0565b82511562000c575782518084602001fd5b8160405162461bcd60e51b81526004018080602001828103825283818151815260200191508051906020019080838360005b8381101562000ca357818101518382015260200162000c89565b50505050905090810190601f16801562000cd15780820380516001836020036101000a031916815260200191505b509250505060405180910390fd5b828054600181600116156101000203166002900490600052602060002090601f016020900481019282601f1062000d2257805160ff191683800117855562000d52565b8280016001018555821562000d52579182015b8281111562000d5257825182559160200191906001019062000d35565b5062000d6092915062000dca565b5090565b82805482825590600052602060002090810192821562000dbc579160200282015b8281111562000dbc57825182546001600160a01b0319166001600160a01b0390911617825560209092019160019091019062000d85565b5062000d6092915062000de1565b5b8082111562000d60576000815560010162000dcb565b5b8082111562000d605780546001600160a01b031916815560010162000de2565b60805160601c60a05160601c60c05160601c60e05160601c6101005160601c6101205160601c6101405160601c610160516101805160601c6101a05160601c6101c05160601c613d8662000fd76000398061199f5280611fb652806124c352508061078d528061082f5280610d4a5280610f7c52806111135280611452528061241a5280612cbe5280612d52528061304e528061346f528061352f52508061222752806130f252508061274752806130bb5250806106d9525080610a2f5280610af25280610b9b5280610c285280610ca252806123f65280612bbc5280612c6052508061139a528061224b5280612f1552508061092f52806116a5528061179b5280611b6a5280611e885280611fda528061264f5280613801525080611a855280611aea5280611d995280611e5d5280612007528061215f5280612194528061229852806123cc528061244752806125df528061276b525080610a7d52806110a752806113e852806116575280611cae5280611cf25280611f925280612c815280612ed45280612f71528061373a528061378052806138cd52806139a3525080611b1b5280611b465280611e3b5280612073528061230452806123aa52806125695280612a5f5280612b055250613d866000f3fe6080604052600436106101c65760003560e01c80635f349a11116100f7578063bd6f634b11610095578063ef9e237911610064578063ef9e237914610655578063f106845414610698578063f77c4791146106ad578063f887ea40146106c2576101cd565b8063bd6f634b146105f9578063c1a3d44c14610616578063d0e30db01461062b578063dd0081c714610640576101cd565b8063722713f7116100d1578063722713f7146105a5578063853828b6146105ba578063923c1d61146105cf578063b6bff295146105e4576101cd565b80635f349a1114610551578063689538e71461057b5780636a4874a114610590576101cd565b80632e1a7d4d116101645780634362c0d11161013e5780634362c0d114610479578063481c6a751461048e57806351cff8d9146104a35780635d14b06f146104d6576101cd565b80632e1a7d4d14610410578063337da0fc1461043a5780633fc8cef314610464576101cd565b8063185881ec116101a0578063185881ec146102b45780631dd19cb4146103195780631f1fcd51146103305780632d16c4e314610345576101cd565b8063033f225b146101d257806306fdde0314610203578063115880861461028d576101cd565b366101cd57005b600080fd5b3480156101de57600080fd5b506101e76106d7565b604080516001600160a01b039092168252519081900360200190f35b34801561020f57600080fd5b506102186106fb565b6040805160208082528351818301528351919283929083019185019080838360005b8381101561025257818101518382015260200161023a565b50505050905090810190601f16801561027f5780820380516001836020036101000a031916815260200191505b509250505060405180910390f35b34801561029957600080fd5b506102a2610789565b60408051918252519081900360200190f35b3480156102c057600080fd5b506102c9610829565b60408051602080825283518183015283519192839290830191858101910280838360005b838110156103055781810151838201526020016102ed565b505050509050019250505060405180910390f35b34801561032557600080fd5b5061032e611a7a565b005b34801561033c57600080fd5b506101e7611b44565b34801561035157600080fd5b5061032e6004803603604081101561036857600080fd5b810190602081018135600160201b81111561038257600080fd5b82018360208201111561039457600080fd5b803590602001918460208302840111600160201b831117156103b557600080fd5b919390929091602081019035600160201b8111156103d257600080fd5b8201836020820111156103e457600080fd5b803590602001918460208302840111600160201b8311171561040557600080fd5b509092509050611b68565b34801561041c57600080fd5b5061032e6004803603602081101561043357600080fd5b5035611d8e565b34801561044657600080fd5b5061032e6004803603602081101561045d57600080fd5b5035611e86565b34801561047057600080fd5b506101e7611f90565b34801561048557600080fd5b506101e7611fb4565b34801561049a57600080fd5b506101e7611fd8565b3480156104af57600080fd5b5061032e600480360360208110156104c657600080fd5b50356001600160a01b0316611ffc565b3480156104e257600080fd5b5061032e600480360360208110156104f957600080fd5b810190602081018135600160201b81111561051357600080fd5b82018360208201111561052557600080fd5b803590602001918460208302840111600160201b8311171561054657600080fd5b509092509050612189565b34801561055d57600080fd5b506101e76004803603602081101561057457600080fd5b50356121fe565b34801561058757600080fd5b506101e7612225565b34801561059c57600080fd5b506101e7612249565b3480156105b157600080fd5b506102a261226d565b3480156105c657600080fd5b5061032e61228d565b3480156105db57600080fd5b506101e76123f4565b3480156105f057600080fd5b506101e7612418565b61032e6004803603602081101561060f57600080fd5b503561243c565b34801561062257600080fd5b506102a2612565565b34801561063757600080fd5b5061032e6125d4565b34801561064c57600080fd5b506102a2612647565b34801561066157600080fd5b5061032e6004803603606081101561067857600080fd5b506001600160a01b0381358116916020810135909116906040013561264d565b3480156106a457600080fd5b506102a2612745565b3480156106b957600080fd5b506101e7612769565b3480156106ce57600080fd5b506101e761278d565b7f000000000000000000000000000000000000000000000000000000000000000081565b6000805460408051602060026001851615610100026000190190941693909304601f810184900484028201840190925281815292918301828280156107815780601f1061075657610100808354040283529160200191610781565b820191906000526020600020905b81548152906001019060200180831161076457829003601f168201915b505050505081565b60007f00000000000000000000000000000000000000000000000000000000000000006001600160a01b03166370a08231306040518263ffffffff1660e01b815260040180826001600160a01b0316815260200191505060206040518083038186803b1580156107f857600080fd5b505afa15801561080c573d6000803e3d6000fd5b505050506040513d602081101561082257600080fd5b5051905090565b606060007f00000000000000000000000000000000000000000000000000000000000000006001600160a01b031663d55a23f46040518163ffffffff1660e01b815260040160206040518083038186803b15801561088657600080fd5b505afa15801561089a573d6000803e3d6000fd5b505050506040513d60208110156108b057600080fd5b5051905060606108c18260046128c8565b67ffffffffffffffff811180156108d757600080fd5b50604051908082528060200260200182016040528015610901578160200160208202803683370190505b5060408051600280825260608083018452939450909160208301908036833701905050905060606000610a297f00000000000000000000000000000000000000000000000000000000000000006001600160a01b0316634bdaeac16040518163ffffffff1660e01b815260040160206040518083038186803b15801561098657600080fd5b505afa15801561099a573d6000803e3d6000fd5b505050506040513d60208110156109b057600080fd5b505160408051633e032a3b60e01b815290516001600160a01b0390921691633e032a3b91600480820192602092909190829003018186803b1580156109f457600080fd5b505afa158015610a08573d6000803e3d6000fd5b505050506040513d6020811015610a1e57600080fd5b50516127109061292b565b905060007f000000000000000000000000000000000000000000000000000000000000000084600081518110610a5b57fe5b60200260200101906001600160a01b031690816001600160a01b0316815250507f000000000000000000000000000000000000000000000000000000000000000084600181518110610aa957fe5b60200260200101906001600160a01b031690816001600160a01b031681525050600260009054906101000a90046001600160a01b03166001600160a01b031663d06ca61f610dc77f00000000000000000000000000000000000000000000000000000000000000006001600160a01b0316631f96e76f6040518163ffffffff1660e01b815260040160206040518083038186803b158015610b4957600080fd5b505afa158015610b5d573d6000803e3d6000fd5b505050506040513d6020811015610b7357600080fd5b50516040805163553a731160e11b81529051610dc191610d2b91610ca0916001600160a01b037f0000000000000000000000000000000000000000000000000000000000000000169163aa74e62291600480820192602092909190829003018186803b158015610be257600080fd5b505afa158015610bf6573d6000803e3d6000fd5b505050506040513d6020811015610c0c57600080fd5b5051604080516318160ddd60e01b815290516001600160a01b037f000000000000000000000000000000000000000000000000000000000000000016916318160ddd916004808301926020929190829003018186803b158015610c6e57600080fd5b505afa158015610c82573d6000803e3d6000fd5b505050506040513d6020811015610c9857600080fd5b50519061296d565b7f00000000000000000000000000000000000000000000000000000000000000006001600160a01b0316631f96e76f6040518163ffffffff1660e01b815260040160206040518083038186803b158015610cf957600080fd5b505afa158015610d0d573d6000803e3d6000fd5b505050506040513d6020811015610d2357600080fd5b50519061292b565b604080516246613160e11b815230600482015290516001600160a01b037f00000000000000000000000000000000000000000000000000000000000000001691628cc262916024808301926020929190829003018186803b158015610d8f57600080fd5b505afa158015610da3573d6000803e3d6000fd5b505050506040513d6020811015610db957600080fd5b5051906129af565b9061296d565b866040518363ffffffff1660e01b81526004018083815260200180602001828103825283818151815260200191508051906020019060200280838360005b83811015610e1d578181015183820152602001610e05565b50505050905001935050505060006040518083038186803b158015610e4157600080fd5b505afa158015610e55573d6000803e3d6000fd5b505050506040513d6000823e601f3d908101601f191682016040526020811015610e7e57600080fd5b8101908080516040519392919084600160201b821115610e9d57600080fd5b908301906020820185811115610eb257600080fd5b82518660208202830111600160201b82111715610ece57600080fd5b82525081516020918201928201910280838360005b83811015610efb578181015183820152602001610ee3565b505050509050016040525050509250610f37612710610dc18486600181518110610f2157fe5b60200260200101516129af90919063ffffffff16565b85600081518110610f4457fe5b60200260200101818152505084600081518110610f5d57fe5b60209081029190910101510185156113985760005b86811015611396577f00000000000000000000000000000000000000000000000000000000000000006001600160a01b03166340c35446826040518263ffffffff1660e01b81526004018082815260200191505060206040518083038186803b158015610fde57600080fd5b505afa158015610ff2573d6000803e3d6000fd5b505050506040513d602081101561100857600080fd5b50516040805163f7c618c160e01b815290516001600160a01b039092169163f7c618c191600480820192602092909190829003018186803b15801561104c57600080fd5b505afa158015611060573d6000803e3d6000fd5b505050506040513d602081101561107657600080fd5b50518551869060009061108557fe5b60200260200101906001600160a01b031690816001600160a01b0316815250507f0000000000000000000000000000000000000000000000000000000000000000856001815181106110d357fe5b6001600160a01b0392831660209182029290920181019190915260025460408051632061aa2360e11b81526004810186905290519184169363d06ca61f937f0000000000000000000000000000000000000000000000000000000000000000909116926340c35446926024808201939291829003018186803b15801561115857600080fd5b505afa15801561116c573d6000803e3d6000fd5b505050506040513d602081101561118257600080fd5b5051604080516246613160e11b815230600482015290516001600160a01b0390921691628cc26291602480820192602092909190829003018186803b1580156111ca57600080fd5b505afa1580156111de573d6000803e3d6000fd5b505050506040513d60208110156111f457600080fd5b5051604080516001600160e01b031960e085901b16815260048101838152602482019283528a5160448301528a518b939192606401906020858101910280838360005b8381101561124f578181015183820152602001611237565b50505050905001935050505060006040518083038186803b15801561127357600080fd5b505afa158015611287573d6000803e3d6000fd5b505050506040513d6000823e601f3d908101601f1916820160405260208110156112b057600080fd5b8101908080516040519392919084600160201b8211156112cf57600080fd5b9083019060208201858111156112e457600080fd5b82518660208202830111600160201b8211171561130057600080fd5b82525081516020918201928201910280838360005b8381101561132d578181015183820152602001611315565b505050509050016040525050509350611353612710610dc18587600181518110610f2157fe5b86826001018151811061136257fe5b60200260200101818152505085816001018151811061137d57fe5b6020026020010151820191508080600101915050610f72565b505b7f0000000000000000000000000000000000000000000000000000000000000000846000815181106113c657fe5b60200260200101906001600160a01b031690816001600160a01b0316815250507f00000000000000000000000000000000000000000000000000000000000000008460018151811061141457fe5b6001600160a01b03928316602091820292909201810191909152600254604080516246613160e11b815230600482015290519184169363d06ca61f937f000000000000000000000000000000000000000000000000000000000000000090911692628cc262926024808201939291829003018186803b15801561149657600080fd5b505afa1580156114aa573d6000803e3d6000fd5b505050506040513d60208110156114c057600080fd5b5051604080516001600160e01b031960e085901b16815260048101838152602482019283528951604483015289518a939192606401906020858101910280838360005b8381101561151b578181015183820152602001611503565b50505050905001935050505060006040518083038186803b15801561153f57600080fd5b505afa158015611553573d6000803e3d6000fd5b505050506040513d6000823e601f3d908101601f19168201604052602081101561157c57600080fd5b8101908080516040519392919084600160201b82111561159b57600080fd5b9083019060208201858111156115b057600080fd5b82518660208202830111600160201b821117156115cc57600080fd5b82525081516020918201928201910280838360005b838110156115f95781810151838201526020016115e1565b50505050905001604052505050925061161f612710610dc18486600181518110610f2157fe5b85876001018151811061162e57fe5b60200260200101818152505084866001018151811061164957fe5b6020026020010151810190507f00000000000000000000000000000000000000000000000000000000000000008460008151811061168357fe5b60200260200101906001600160a01b031690816001600160a01b0316815250507f00000000000000000000000000000000000000000000000000000000000000006001600160a01b0316633f021b0e6040518163ffffffff1660e01b815260040160206040518083038186803b1580156116fc57600080fd5b505afa158015611710573d6000803e3d6000fd5b505050506040513d602081101561172657600080fd5b505184518590600190811061173757fe5b60200260200101906001600160a01b031690816001600160a01b0316815250506001808154811061176457fe5b9060005260206000200160009054906101000a90046001600160a01b03166001600160a01b031663d06ca61f611825612710610dc17f00000000000000000000000000000000000000000000000000000000000000006001600160a01b031663cc32d1766040518163ffffffff1660e01b815260040160206040518083038186803b1580156117f257600080fd5b505afa158015611806573d6000803e3d6000fd5b505050506040513d602081101561181c57600080fd5b505186906129af565b866040518363ffffffff1660e01b81526004018083815260200180602001828103825283818151815260200191508051906020019060200280838360005b8381101561187b578181015183820152602001611863565b50505050905001935050505060006040518083038186803b15801561189f57600080fd5b505afa1580156118b3573d6000803e3d6000fd5b505050506040513d6000823e601f3d908101601f1916820160405260208110156118dc57600080fd5b8101908080516040519392919084600160201b8211156118fb57600080fd5b90830190602082018581111561191057600080fd5b82518660208202830111600160201b8211171561192c57600080fd5b82525081516020918201928201910280838360005b83811015611959578181015183820152602001611941565b50505050905001604052505050925061197f612710610dc18486600181518110610f2157fe5b85876002018151811061198e57fe5b602002602001018181525050611a557f00000000000000000000000000000000000000000000000000000000000000006001600160a01b031663bb7b8b806040518163ffffffff1660e01b815260040160206040518083038186803b1580156119f657600080fd5b505afa158015611a0a573d6000803e3d6000fd5b505050506040513d6020811015611a2057600080fd5b50518451610dc190670de0b6b3a7640000908790600090611a3d57fe5b602002602001015185036129af90919063ffffffff16565b858760030181518110611a6457fe5b6020908102919091010152509294505050505090565b336001600160a01b037f00000000000000000000000000000000000000000000000000000000000000001614611ae5576040805162461bcd60e51b815260206004820152600b60248201526a10b1b7b73a3937b63632b960a91b604482015290519081900360640190fd5b611b427f0000000000000000000000000000000000000000000000000000000000000000611b11612565565b6001600160a01b037f0000000000000000000000000000000000000000000000000000000000000000169190612a08565b565b7f000000000000000000000000000000000000000000000000000000000000000081565b7f00000000000000000000000000000000000000000000000000000000000000006001600160a01b0316635aa6e6756040518163ffffffff1660e01b815260040160206040518083038186803b158015611bc157600080fd5b505afa158015611bd5573d6000803e3d6000fd5b505050506040513d6020811015611beb57600080fd5b50516001600160a01b03163314611c37576040805162461bcd60e51b815260206004820152600b60248201526a21676f7665726e616e636560a81b604482015290519081900360640190fd5b611c4360018585613c09565b5083836000818110611c5157fe5b6002805460209290920293909301356001600160a01b03166001600160a01b0319909116179091555060008382825b82811015611d8457878782818110611c9457fe5b905060200201356001600160a01b03169350611ce58460007f00000000000000000000000000000000000000000000000000000000000000006001600160a01b031661279c9092919063ffffffff16565b611d1b6001600160a01b037f0000000000000000000000000000000000000000000000000000000000000000168560001961279c565b60005b82811015611d7b57611d60856000898985818110611d3857fe5b905060200201356001600160a01b03166001600160a01b031661279c9092919063ffffffff16565b611d7385600019898985818110611d3857fe5b600101611d1e565b50600101611c80565b5050505050505050565b336001600160a01b037f00000000000000000000000000000000000000000000000000000000000000001614611df9576040805162461bcd60e51b815260206004820152600b60248201526a10b1b7b73a3937b63632b960a91b604482015290519081900360640190fd5b6000611e03612565565b905081811015611e2e57611e1f611e1a838361292b565b612a5a565b9150611e2b82826128c8565b91505b611e826001600160a01b037f0000000000000000000000000000000000000000000000000000000000000000167f000000000000000000000000000000000000000000000000000000000000000084612a08565b5050565b7f00000000000000000000000000000000000000000000000000000000000000006001600160a01b0316635aa6e6756040518163ffffffff1660e01b815260040160206040518083038186803b158015611edf57600080fd5b505afa158015611ef3573d6000803e3d6000fd5b505050506040513d6020811015611f0957600080fd5b50516001600160a01b03163314611f55576040805162461bcd60e51b815260206004820152600b60248201526a21676f7665726e616e636560a81b604482015290519081900360640190fd5b60018181548110611f6257fe5b600091825260209091200154600280546001600160a01b0319166001600160a01b0390921691909117905550565b7f000000000000000000000000000000000000000000000000000000000000000081565b7f000000000000000000000000000000000000000000000000000000000000000081565b7f000000000000000000000000000000000000000000000000000000000000000081565b336001600160a01b037f00000000000000000000000000000000000000000000000000000000000000001614612067576040805162461bcd60e51b815260206004820152600b60248201526a10b1b7b73a3937b63632b960a91b604482015290519081900360640190fd5b806001600160a01b03167f00000000000000000000000000000000000000000000000000000000000000006001600160a01b031614156120d7576040805162461bcd60e51b815260206004808301919091526024820152631dd85b9d60e21b604482015290519081900360640190fd5b604080516370a0823160e01b8152306004820152905182916000916001600160a01b038416916370a08231916024808301926020929190829003018186803b15801561212257600080fd5b505afa158015612136573d6000803e3d6000fd5b505050506040513d602081101561214c57600080fd5b505190506121846001600160a01b0383167f000000000000000000000000000000000000000000000000000000000000000083612a08565b505050565b336001600160a01b037f000000000000000000000000000000000000000000000000000000000000000016146121f4576040805162461bcd60e51b815260206004820152600b60248201526a10b1b7b73a3937b63632b960a91b604482015290519081900360640190fd5b611e828282612bb0565b6001818154811061220b57fe5b6000918252602090912001546001600160a01b0316905081565b7f000000000000000000000000000000000000000000000000000000000000000081565b7f000000000000000000000000000000000000000000000000000000000000000081565b600061228861227a610789565b612282612565565b906128c8565b905090565b336001600160a01b037f000000000000000000000000000000000000000000000000000000000000000016146122f8576040805162461bcd60e51b815260206004820152600b60248201526a10b1b7b73a3937b63632b960a91b604482015290519081900360640190fd5b61230061302b565b60007f00000000000000000000000000000000000000000000000000000000000000006001600160a01b03166370a08231306040518263ffffffff1660e01b815260040180826001600160a01b0316815260200191505060206040518083038186803b15801561236f57600080fd5b505afa158015612383573d6000803e3d6000fd5b505050506040513d602081101561239957600080fd5b505190506123f16001600160a01b037f0000000000000000000000000000000000000000000000000000000000000000167f000000000000000000000000000000000000000000000000000000000000000083612a08565b50565b7f000000000000000000000000000000000000000000000000000000000000000081565b7f000000000000000000000000000000000000000000000000000000000000000081565b336001600160a01b037f000000000000000000000000000000000000000000000000000000000000000016146124a7576040805162461bcd60e51b815260206004820152600b60248201526a10b1b7b73a3937b63632b960a91b604482015290519081900360640190fd5b6124af613c6c565b4780825260408051630b4c7e4d60e01b81527f00000000000000000000000000000000000000000000000000000000000000006001600160a01b031692630b4c7e4d92909185918791600401908190849080838360005b8381101561251e578181015183820152602001612506565b50505050905001828152602001925050506000604051808303818588803b15801561254857600080fd5b505af115801561255c573d6000803e3d6000fd5b50505050505050565b60007f00000000000000000000000000000000000000000000000000000000000000006001600160a01b03166370a08231306040518263ffffffff1660e01b815260040180826001600160a01b0316815260200191505060206040518083038186803b1580156107f857600080fd5b336001600160a01b037f0000000000000000000000000000000000000000000000000000000000000000161461263f576040805162461bcd60e51b815260206004820152600b60248201526a10b1b7b73a3937b63632b960a91b604482015290519081900360640190fd5b611b426130ab565b61271081565b7f00000000000000000000000000000000000000000000000000000000000000006001600160a01b0316635aa6e6756040518163ffffffff1660e01b815260040160206040518083038186803b1580156126a657600080fd5b505afa1580156126ba573d6000803e3d6000fd5b505050506040513d60208110156126d057600080fd5b50516001600160a01b0316331461271c576040805162461bcd60e51b815260206004820152600b60248201526a21676f7665726e616e636560a81b604482015290519081900360640190fd5b6127316001600160a01b03841683600061279c565b6121846001600160a01b038416838361279c565b7f000000000000000000000000000000000000000000000000000000000000000081565b7f000000000000000000000000000000000000000000000000000000000000000081565b6002546001600160a01b031681565b801580612822575060408051636eb1769f60e11b81523060048201526001600160a01b03848116602483015291519185169163dd62ed3e91604480820192602092909190829003018186803b1580156127f457600080fd5b505afa158015612808573d6000803e3d6000fd5b505050506040513d602081101561281e57600080fd5b5051155b61285d5760405162461bcd60e51b8152600401808060200182810382526036815260200180613d1b6036913960400191505060405180910390fd5b604080516001600160a01b038416602482015260448082018490528251808303909101815260649091019091526020810180516001600160e01b031663095ea7b360e01b179052612184908490613164565b60606128be8484600085613215565b90505b9392505050565b600082820183811015612922576040805162461bcd60e51b815260206004820152601b60248201527f536166654d6174683a206164646974696f6e206f766572666c6f770000000000604482015290519081900360640190fd5b90505b92915050565b600061292283836040518060400160405280601e81526020017f536166654d6174683a207375627472616374696f6e206f766572666c6f770000815250613371565b600061292283836040518060400160405280601a81526020017f536166654d6174683a206469766973696f6e206279207a65726f000000000000815250613408565b6000826129be57506000612925565b828202828482816129cb57fe5b04146129225760405162461bcd60e51b8152600401808060200182810382526021815260200180613cd06021913960400191505060405180910390fd5b604080516001600160a01b038416602482015260448082018490528251808303909101815260649091019091526020810180516001600160e01b031663a9059cbb60e01b179052612184908490613164565b6000807f00000000000000000000000000000000000000000000000000000000000000006001600160a01b03166370a08231306040518263ffffffff1660e01b815260040180826001600160a01b0316815260200191505060206040518083038186803b158015612aca57600080fd5b505afa158015612ade573d6000803e3d6000fd5b505050506040513d6020811015612af457600080fd5b50519050612b018361346d565b60007f00000000000000000000000000000000000000000000000000000000000000006001600160a01b03166370a08231306040518263ffffffff1660e01b815260040180826001600160a01b0316815260200191505060206040518083038186803b158015612b7057600080fd5b505afa158015612b84573d6000803e3d6000fd5b505050506040513d6020811015612b9a57600080fd5b50519050612ba8818361292b565b949350505050565b612bb8613508565b60007f00000000000000000000000000000000000000000000000000000000000000006001600160a01b03166370a08231306040518263ffffffff1660e01b815260040180826001600160a01b0316815260200191505060206040518083038186803b158015612c2757600080fd5b505afa158015612c3b573d6000803e3d6000fd5b505050506040513d6020811015612c5157600080fd5b505190508015612cba57612cba7f00000000000000000000000000000000000000000000000000000000000000007f00000000000000000000000000000000000000000000000000000000000000008386866000818110612cae57fe5b90506020020135613577565b60007f00000000000000000000000000000000000000000000000000000000000000006001600160a01b031663d55a23f46040518163ffffffff1660e01b815260040160206040518083038186803b158015612d1557600080fd5b505afa158015612d29573d6000803e3d6000fd5b505050506040513d6020811015612d3f57600080fd5b5051905060005b81811015612f0d5760007f00000000000000000000000000000000000000000000000000000000000000006001600160a01b03166340c35446836040518263ffffffff1660e01b81526004018082815260200191505060206040518083038186803b158015612db457600080fd5b505afa158015612dc8573d6000803e3d6000fd5b505050506040513d6020811015612dde57600080fd5b50516040805163f7c618c160e01b815290516001600160a01b039092169163f7c618c191600480820192602092909190829003018186803b158015612e2257600080fd5b505afa158015612e36573d6000803e3d6000fd5b505050506040513d6020811015612e4c57600080fd5b5051604080516370a0823160e01b815230600482015290519192506000916001600160a01b038416916370a08231916024808301926020929190829003018186803b158015612e9a57600080fd5b505afa158015612eae573d6000803e3d6000fd5b505050506040513d6020811015612ec457600080fd5b505190508015612f0357612f03827f0000000000000000000000000000000000000000000000000000000000000000838a8a88600101818110612cae57fe5b5050600101612d46565b506000612f677f0000000000000000000000000000000000000000000000000000000000000000868685600101818110612f4357fe5b90506020020135878786600201818110612f5957fe5b9050602002013560016136b6565b90508015612fee577f00000000000000000000000000000000000000000000000000000000000000006001600160a01b0316632e1a7d4d826040518263ffffffff1660e01b815260040180828152602001915050600060405180830381600087803b158015612fd557600080fd5b505af1158015612fe9573d6000803e3d6000fd5b505050505b61300c85858460030181811061300057fe5b9050602002013561243c565b6000613016612565565b1115613024576130246130ab565b5050505050565b604080516324f81cd160e11b815260006004820181905291516001600160a01b037f000000000000000000000000000000000000000000000000000000000000000016926349f039a2926024808201939182900301818387803b15801561309157600080fd5b505af11580156130a5573d6000803e3d6000fd5b50505050565b6040805163303acfe760e11b81527f000000000000000000000000000000000000000000000000000000000000000060048201526001602482015290516001600160a01b037f000000000000000000000000000000000000000000000000000000000000000016916360759fce9160448083019260209291908290030181600087803b15801561313a57600080fd5b505af115801561314e573d6000803e3d6000fd5b505050506040513d6020811015611e8257600080fd5b60606131b9826040518060400160405280602081526020017f5361666545524332303a206c6f772d6c6576656c2063616c6c206661696c6564815250856001600160a01b03166128af9092919063ffffffff16565b805190915015612184578080602001905160208110156131d857600080fd5b50516121845760405162461bcd60e51b815260040180806020018281038252602a815260200180613cf1602a913960400191505060405180910390fd5b6060824710156132565760405162461bcd60e51b8152600401808060200182810382526026815260200180613caa6026913960400191505060405180910390fd5b61325f85613a25565b6132b0576040805162461bcd60e51b815260206004820152601d60248201527f416464726573733a2063616c6c20746f206e6f6e2d636f6e7472616374000000604482015290519081900360640190fd5b60006060866001600160a01b031685876040518082805190602001908083835b602083106132ef5780518252601f1990920191602091820191016132d0565b6001836020036101000a03801982511681845116808217855250505050505090500191505060006040518083038185875af1925050503d8060008114613351576040519150601f19603f3d011682016040523d82523d6000602084013e613356565b606091505b5091509150613366828286613a2b565b979650505050505050565b600081848411156134005760405162461bcd60e51b81526004018080602001828103825283818151815260200191508051906020019080838360005b838110156133c55781810151838201526020016133ad565b50505050905090810190601f1680156133f25780820380516001836020036101000a031916815260200191505b509250505060405180910390fd5b505050900390565b600081836134575760405162461bcd60e51b81526020600482018181528351602484015283519092839260449091019190850190808383600083156133c55781810151838201526020016133ad565b50600083858161346357fe5b0495945050505050565b7f00000000000000000000000000000000000000000000000000000000000000006001600160a01b031663c32e72028260006040518363ffffffff1660e01b815260040180838152602001821515815260200192505050602060405180830381600087803b1580156134de57600080fd5b505af11580156134f2573d6000803e3d6000fd5b505050506040513d602081101561218457600080fd5b60408051637050ccd960e01b81523060048201526001602482015290516001600160a01b037f00000000000000000000000000000000000000000000000000000000000000001691637050ccd99160448083019260209291908290030181600087803b15801561313a57600080fd5b604080516002808252606080830184529260208301908036833701905050905084816000815181106135a557fe5b60200260200101906001600160a01b031690816001600160a01b03168152505083816001815181106135d357fe5b6001600160a01b039283166020918202929092018101919091526002546040516338ed173960e01b8152600481018781526024820187905230606483018190526402540be4006084840181905260a060448501908152885160a4860152885195909716966338ed1739968b968b968b96939260c490910191878201910280838360005b8381101561366e578181015183820152602001613656565b505050509050019650505050505050600060405180830381600087803b15801561369757600080fd5b505af11580156136ab573d6000803e3d6000fd5b505050505050505050565b600080856001600160a01b03166370a08231306040518263ffffffff1660e01b815260040180826001600160a01b0316815260200191505060206040518083038186803b15801561370657600080fd5b505afa15801561371a573d6000803e3d6000fd5b505050506040513d602081101561373057600080fd5b50519050613760867f00000000000000000000000000000000000000000000000000000000000000008388613577565b604080516370a0823160e01b815230600482015290516001600160a01b037f000000000000000000000000000000000000000000000000000000000000000016916370a08231916024808301926020929190829003018186803b1580156137c657600080fd5b505afa1580156137da573d6000803e3d6000fd5b505050506040513d60208110156137f057600080fd5b505191508115613a1c5760008060007f00000000000000000000000000000000000000000000000000000000000000006001600160a01b031663da633d316040518163ffffffff1660e01b815260040160606040518083038186803b15801561385857600080fd5b505afa15801561386c573d6000803e3d6000fd5b505050506040513d606081101561388257600080fd5b50805160208201516040909201519094509092509050600081158015906138b157506001600160a01b03831615155b15613983576138c6612710610dc188856129af565b90506138f57f000000000000000000000000000000000000000000000000000000000000000085838b8b613a91565b61398383856001600160a01b03166370a08231306040518263ffffffff1660e01b815260040180826001600160a01b0316815260200191505060206040518083038186803b15801561394657600080fd5b505afa15801561395a573d6000803e3d6000fd5b505050506040513d602081101561397057600080fd5b50516001600160a01b0387169190612a08565b604080516370a0823160e01b815230600482015290516001600160a01b037f000000000000000000000000000000000000000000000000000000000000000016916370a08231916024808301926020929190829003018186803b1580156139e957600080fd5b505afa1580156139fd573d6000803e3d6000fd5b505050506040513d6020811015613a1357600080fd5b50519550505050505b50949350505050565b3b151590565b60608315613a3a5750816128c1565b825115613a4a5782518084602001fd5b60405162461bcd60e51b81526020600482018181528451602484015284518593919283926044019190850190808383600083156133c55781810151838201526020016133ad565b60408051600280825260608083018452926020830190803683370190505090508581600081518110613abf57fe5b60200260200101906001600160a01b031690816001600160a01b0316815250508481600181518110613aed57fe5b60200260200101906001600160a01b031690816001600160a01b03168152505060018281548110613b1a57fe5b9060005260206000200160009054906101000a90046001600160a01b03166001600160a01b03166338ed1739858584306402540be4006040518663ffffffff1660e01b81526004018086815260200185815260200180602001846001600160a01b03168152602001838152602001828103825285818151815260200191508051906020019060200280838360005b83811015613bc0578181015183820152602001613ba8565b505050509050019650505050505050600060405180830381600087803b158015613be957600080fd5b505af1158015613bfd573d6000803e3d6000fd5b50505050505050505050565b828054828255906000526020600020908101928215613c5c579160200282015b82811115613c5c5781546001600160a01b0319166001600160a01b03843516178255602090920191600190910190613c29565b50613c68929150613c8a565b5090565b60405180604001604052806002906020820280368337509192915050565b5b80821115613c685780546001600160a01b0319168155600101613c8b56fe416464726573733a20696e73756666696369656e742062616c616e636520666f722063616c6c536166654d6174683a206d756c7469706c69636174696f6e206f766572666c6f775361666545524332303a204552433230206f7065726174696f6e20646964206e6f7420737563636565645361666545524332303a20617070726f76652066726f6d206e6f6e2d7a65726f20746f206e6f6e2d7a65726f20616c6c6f77616e6365a2646970667358221220da94772a90b09aacdc5659ff6ad8a24cd857b0344f5bb9b4b1ac2770fbe3370264736f6c634300060c0033416464726573733a20696e73756666696369656e742062616c616e636520666f722063616c6c5361666545524332303a204552433230206f7065726174696f6e20646964206e6f7420737563636565645361666545524332303a20617070726f76652066726f6d206e6f6e2d7a65726f20746f206e6f6e2d7a65726f20616c6c6f77616e6365",
  "devdoc": {
    "kind": "dev",
    "methods": {
      "approveForSpender(address,address,uint256)": {
        "params": {
          "_amount": "The amount to spend",
          "_spender": "The address of the spender",
          "_token": "The address of the token"
        }
      },
      "balanceOfPool()": {
        "details": "Must be implemented by the strategy"
      },
      "constructor": {
        "params": {
          "_aleth": "The address of alternative ETH",
          "_controller": "The address of the controller",
          "_convexVault": "The address of the convex vault",
          "_crv": "The address of CRV",
          "_cvx": "The address of CVX",
          "_manager": "The address of the manager",
          "_name": "The strategy name",
          "_pid": "The pool id of convex",
          "_routerArray": "The addresses of routers for swapping tokens",
          "_stableSwapPool": "The address of the stable swap pool",
          "_want": "The desired token of the strategy",
          "_weth": "The address of WETH"
        }
      },
      "setDefaultRouter(uint256)": {
        "params": {
          "_routerIndex": "Gets the address of the router from routerArray"
        }
      },
      "setRouter(address[],address[])": {
        "params": {
          "_routerArray": "The addresses of routers",
          "_tokenArray": "The addresses of tokens that need to be approved by the strategy"
        }
      },
      "withdraw(address)": {
        "params": {
          "_asset": "The address of the token to withdraw"
        }
      },
      "withdraw(uint256)": {
        "params": {
          "_amount": "The amount of the want token to withdraw"
        }
      }
    },
    "version": 1
  },
  "userdoc": {
    "kind": "user",
    "methods": {
      "approveForSpender(address,address,uint256)": {
        "notice": "Approves a token address to be spent by an address"
      },
      "balanceOf()": {
        "notice": "Returns the strategy's balance of the want token plus the balance of pool"
      },
      "balanceOfPool()": {
        "notice": "Returns the balance of the pool"
      },
      "balanceOfWant()": {
        "notice": "Returns the balance of the want token on the strategy"
      },
      "deposit()": {
        "notice": "Deposits funds to the strategy's pool"
      },
      "harvest(uint256[])": {
        "notice": "Harvest funds in the strategy's pool"
      },
      "setDefaultRouter(uint256)": {
        "notice": "Sets the default ISwap-compatible router"
      },
      "setRouter(address[],address[])": {
        "notice": "Sets the address of the ISwap-compatible router"
      },
      "skim()": {
        "notice": "Sends stuck want tokens in the strategy to the controller"
      },
      "withdraw(address)": {
        "notice": "Sends stuck tokens in the strategy to the controller"
      },
      "withdraw(uint256)": {
        "notice": "Initiated from a vault, withdraws funds from the pool"
      },
      "withdrawAll()": {
        "notice": "Withdraws all funds from the strategy"
      }
    },
    "version": 1
  },
  "storageLayout": {
    "storage": [
      {
        "astId": 18037,
        "contract": "contracts/v3/strategies/ETHConvexStrategy.sol:ETHConvexStrategy",
        "label": "name",
        "offset": 0,
        "slot": "0",
        "type": "t_string_storage"
      },
      {
        "astId": 18040,
        "contract": "contracts/v3/strategies/ETHConvexStrategy.sol:ETHConvexStrategy",
        "label": "routerArray",
        "offset": 0,
        "slot": "1",
        "type": "t_array(t_address)dyn_storage"
      },
      {
        "astId": 18043,
        "contract": "contracts/v3/strategies/ETHConvexStrategy.sol:ETHConvexStrategy",
        "label": "router",
        "offset": 0,
        "slot": "2",
        "type": "t_contract(ISwap)17380"
      }
    ],
    "types": {
      "t_address": {
        "encoding": "inplace",
        "label": "address",
        "numberOfBytes": "20"
      },
      "t_array(t_address)dyn_storage": {
        "base": "t_address",
        "encoding": "dynamic_array",
        "label": "address[]",
        "numberOfBytes": "32"
      },
      "t_contract(ISwap)17380": {
        "encoding": "inplace",
        "label": "contract ISwap",
        "numberOfBytes": "20"
      },
      "t_string_storage": {
        "encoding": "bytes",
        "label": "string",
        "numberOfBytes": "32"
      }
    }
  }
}