{
  "address": "0xdcE1C4e0AD3bd61788B840cAb31D6c80A7958D02",
  "abi": [
    {
      "inputs": [
        {
          "internalType": "string",
          "name": "_name",
          "type": "string"
        },
        {
          "internalType": "address",
          "name": "_want",
          "type": "address"
        },
        {
          "internalType": "address",
          "name": "_crv",
          "type": "address"
        },
        {
          "internalType": "address",
          "name": "_cvx",
          "type": "address"
        },
        {
          "internalType": "address",
          "name": "_weth",
          "type": "address"
        },
        {
          "internalType": "uint256",
          "name": "_pid",
          "type": "uint256"
        },
        {
          "internalType": "uint256",
          "name": "_coinCount",
          "type": "uint256"
        },
        {
          "internalType": "contract IConvexVault",
          "name": "_convexVault",
          "type": "address"
        },
        {
          "internalType": "address",
          "name": "_stableSwapPool",
          "type": "address"
        },
        {
          "internalType": "uint256",
          "name": "_premiumTokenIndex",
          "type": "uint256"
        },
        {
          "internalType": "address",
          "name": "_controller",
          "type": "address"
        },
        {
          "internalType": "address",
          "name": "_manager",
          "type": "address"
        },
        {
          "internalType": "address[]",
          "name": "_routerArray",
          "type": "address[]"
        }
      ],
      "stateMutability": "nonpayable",
      "type": "constructor"
    },
    {
      "inputs": [],
      "name": "ONE_HUNDRED_PERCENT",
      "outputs": [
        {
          "internalType": "uint256",
          "name": "",
          "type": "uint256"
        }
      ],
      "stateMutability": "view",
      "type": "function"
    },
    {
      "inputs": [
        {
          "internalType": "contract IERC20",
          "name": "_token",
          "type": "address"
        },
        {
          "internalType": "address",
          "name": "_spender",
          "type": "address"
        },
        {
          "internalType": "uint256",
          "name": "_amount",
          "type": "uint256"
        }
      ],
      "name": "approveForSpender",
      "outputs": [],
      "stateMutability": "nonpayable",
      "type": "function"
    },
    {
      "inputs": [],
      "name": "balanceOf",
      "outputs": [
        {
          "internalType": "uint256",
          "name": "",
          "type": "uint256"
        }
      ],
      "stateMutability": "view",
      "type": "function"
    },
    {
      "inputs": [],
      "name": "balanceOfPool",
      "outputs": [
        {
          "internalType": "uint256",
          "name": "",
          "type": "uint256"
        }
      ],
      "stateMutability": "view",
      "type": "function"
    },
    {
      "inputs": [],
      "name": "balanceOfWant",
      "outputs": [
        {
          "internalType": "uint256",
          "name": "",
          "type": "uint256"
        }
      ],
      "stateMutability": "view",
      "type": "function"
    },
    {
      "inputs": [],
      "name": "controller",
      "outputs": [
        {
          "internalType": "address",
          "name": "",
          "type": "address"
        }
      ],
      "stateMutability": "view",
      "type": "function"
    },
    {
      "inputs": [],
      "name": "convexVault",
      "outputs": [
        {
          "internalType": "contract IConvexVault",
          "name": "",
          "type": "address"
        }
      ],
      "stateMutability": "view",
      "type": "function"
    },
    {
      "inputs": [],
      "name": "crv",
      "outputs": [
        {
          "internalType": "address",
          "name": "",
          "type": "address"
        }
      ],
      "stateMutability": "view",
      "type": "function"
    },
    {
      "inputs": [],
      "name": "crvRewards",
      "outputs": [
        {
          "internalType": "contract IConvexRewards",
          "name": "",
          "type": "address"
        }
      ],
      "stateMutability": "view",
      "type": "function"
    },
    {
      "inputs": [],
      "name": "cvx",
      "outputs": [
        {
          "internalType": "address",
          "name": "",
          "type": "address"
        }
      ],
      "stateMutability": "view",
      "type": "function"
    },
    {
      "inputs": [
        {
          "internalType": "uint256",
          "name": "",
          "type": "uint256"
        }
      ],
      "name": "decimalMultiples",
      "outputs": [
        {
          "internalType": "uint8",
          "name": "",
          "type": "uint8"
        }
      ],
      "stateMutability": "view",
      "type": "function"
    },
    {
      "inputs": [],
      "name": "deposit",
      "outputs": [],
      "stateMutability": "nonpayable",
      "type": "function"
    },
    {
      "inputs": [],
      "name": "getEstimates",
      "outputs": [
        {
          "internalType": "uint256[]",
          "name": "",
          "type": "uint256[]"
        }
      ],
      "stateMutability": "view",
      "type": "function"
    },
    {
      "inputs": [
        {
          "internalType": "uint256[]",
          "name": "_estimates",
          "type": "uint256[]"
        }
      ],
      "name": "harvest",
      "outputs": [],
      "stateMutability": "nonpayable",
      "type": "function"
    },
    {
      "inputs": [],
      "name": "manager",
      "outputs": [
        {
          "internalType": "contract IManager",
          "name": "",
          "type": "address"
        }
      ],
      "stateMutability": "view",
      "type": "function"
    },
    {
      "inputs": [],
      "name": "name",
      "outputs": [
        {
          "internalType": "string",
          "name": "",
          "type": "string"
        }
      ],
      "stateMutability": "view",
      "type": "function"
    },
    {
      "inputs": [],
      "name": "pid",
      "outputs": [
        {
          "internalType": "uint256",
          "name": "",
          "type": "uint256"
        }
      ],
      "stateMutability": "view",
      "type": "function"
    },
    {
      "inputs": [],
      "name": "premiumToken",
      "outputs": [
        {
          "internalType": "address",
          "name": "",
          "type": "address"
        }
      ],
      "stateMutability": "view",
      "type": "function"
    },
    {
      "inputs": [],
      "name": "router",
      "outputs": [
        {
          "internalType": "contract ISwap",
          "name": "",
          "type": "address"
        }
      ],
      "stateMutability": "view",
      "type": "function"
    },
    {
      "inputs": [
        {
          "internalType": "uint256",
          "name": "",
          "type": "uint256"
        }
      ],
      "name": "routerArray",
      "outputs": [
        {
          "internalType": "address",
          "name": "",
          "type": "address"
        }
      ],
      "stateMutability": "view",
      "type": "function"
    },
    {
      "inputs": [
        {
          "internalType": "uint256",
          "name": "_routerIndex",
          "type": "uint256"
        }
      ],
      "name": "setDefaultRouter",
      "outputs": [],
      "stateMutability": "nonpayable",
      "type": "function"
    },
    {
      "inputs": [
        {
          "internalType": "address[]",
          "name": "_routerArray",
          "type": "address[]"
        },
        {
          "internalType": "address[]",
          "name": "_tokenArray",
          "type": "address[]"
        }
      ],
      "name": "setRouter",
      "outputs": [],
      "stateMutability": "nonpayable",
      "type": "function"
    },
    {
      "inputs": [],
      "name": "skim",
      "outputs": [],
      "stateMutability": "nonpayable",
      "type": "function"
    },
    {
      "inputs": [],
      "name": "stableSwapPool",
      "outputs": [
        {
          "internalType": "address",
          "name": "",
          "type": "address"
        }
      ],
      "stateMutability": "view",
      "type": "function"
    },
    {
      "inputs": [
        {
          "internalType": "uint256",
          "name": "",
          "type": "uint256"
        }
      ],
      "name": "tokens",
      "outputs": [
        {
          "internalType": "address",
          "name": "",
          "type": "address"
        }
      ],
      "stateMutability": "view",
      "type": "function"
    },
    {
      "inputs": [],
      "name": "want",
      "outputs": [
        {
          "internalType": "address",
          "name": "",
          "type": "address"
        }
      ],
      "stateMutability": "view",
      "type": "function"
    },
    {
      "inputs": [],
      "name": "weth",
      "outputs": [
        {
          "internalType": "address",
          "name": "",
          "type": "address"
        }
      ],
      "stateMutability": "view",
      "type": "function"
    },
    {
      "inputs": [
        {
          "internalType": "uint256",
          "name": "_amount",
          "type": "uint256"
        }
      ],
      "name": "withdraw",
      "outputs": [],
      "stateMutability": "nonpayable",
      "type": "function"
    },
    {
      "inputs": [
        {
          "internalType": "address",
          "name": "_asset",
          "type": "address"
        }
      ],
      "name": "withdraw",
      "outputs": [],
      "stateMutability": "nonpayable",
      "type": "function"
    },
    {
      "inputs": [],
      "name": "withdrawAll",
      "outputs": [],
      "stateMutability": "nonpayable",
      "type": "function"
    }
  ],
  "transactionHash": "0x0a7d3a0cb064489e18debe324dccbc919fba711b7ba30764f2b18fc6da7d08bf",
  "args": [
    "yAxis Convex Strategy: RENBTC",
    "0x49849C98ae39Fff122806C06791Fa73784FB3675",
    "0xD533a949740bb3306d119CC777fa900bA034cd52",
    "0x4e3FBD56CD56c3e72c1403e103b45Db9da5B9D2B",
    "0xC02aaA39b223FE8D0A0e5C4F27eAD9083C756Cc2",
    6,
    2,
    "0xF403C135812408BFbE8713b5A23a04b3D48AAE31",
    "0x93054188d876f558f4a66B2EF1d97d16eDf0895B",
    1,
    "0x834ebCE3b3Fb5B9647d9398a1f6F44A2E831aC60",
    "0xAB72cC293B63f6477BAf9d514Da735Cf6caADC2d",
    [
      "0xd9e1cE17f2641f24aE83637ab66a2cca9C378B9F",
      "0x7a250d5630B4cF539739dF2C5dAcb4c659F2488D"
    ]
  ],
  "solcInputHash": "7f584678c57e2cfebf8c6d23e419d2c3",
  "bytecode": "0x6101c06040523480156200001257600080fd5b50604051620054483803806200544883398181016040526101a08110156200003957600080fd5b81019080805160405193929190846401000000008211156200005a57600080fd5b9083019060208201858111156200007057600080fd5b82516401000000008111828201881017156200008b57600080fd5b82525081516020918201929091019080838360005b83811015620000ba578181015183820152602001620000a0565b50505050905090810190601f168015620000e85780820380516001836020036101000a031916815260200191505b5060408181526020830151908301516060840151608085015160a086015160c087015160e08801516101008901516101208a01516101408b01516101608c0151610180909c0180519a9e999d989c979b969a95999498939792969195929491939192846401000000008211156200015e57600080fd5b9083019060208201858111156200017457600080fd5b82518660208202830111640100000000821117156200019257600080fd5b82525081516020918201928201910280838360005b83811015620001c1578181015183820152602001620001a7565b505050509050016040525050508c83838e8c858560009080519060200190620001ec92919062000ece565b506001600160601b0319606084811b821660805286811b821660c05285811b821660e05283901b1660a05280516200026b576040805162461bcd60e51b815260206004820152601e60248201527f4d75737420696e707574206174206c65617374206f6e6520726f757465720000604482015290519081900360640190fd5b80516200028090600190602084019062000f53565b50806000815181106200028f57fe5b6020026020010151600260006101000a8154816001600160a01b0302191690836001600160a01b0316021790555060005b8151811015620003485762000304828281518110620002db57fe5b60200260200101516000856001600160a01b03166200085060201b620027f8179092919060201c565b6200033f8282815181106200031557fe5b6020026020010151600019856001600160a01b03166200085060201b620027f8179092919060201c565b600101620002c0565b5050505050505086600214806200035f5750866003145b620003b1576040805162461bcd60e51b815260206004820152601b60248201527f5f636f696e436f756e742073686f756c642062652032206f7220330000000000604482015290519081900360640190fd5b6001600160a01b038b16620003f5576040805162461bcd60e51b815260206004820152600560248201526410afb1b93b60d91b604482015290519081900360640190fd5b6001600160a01b038a1662000439576040805162461bcd60e51b8152602060048201526005602482015264042bec6ecf60db1b604482015290519081900360640190fd5b6001600160a01b03861662000485576040805162461bcd60e51b815260206004820152600d60248201526c0857d8dbdb9d995e15985d5b1d609a1b604482015290519081900360640190fd5b6001600160a01b038516620004d4576040805162461bcd60e51b815260206004820152601060248201526f0857dcdd18589b1954ddd85c141bdbdb60821b604482015290519081900360640190fd5b6000866001600160a01b0316631526fe278a6040518263ffffffff1660e01b81526004018082815260200191505060c06040518083038186803b1580156200051b57600080fd5b505afa15801562000530573d6000803e3d6000fd5b505050506040513d60c08110156200054757600080fd5b506060908101516001600160601b03198e831b8116610100528d831b8116610120526101408c905289831b81166101605281831b8116610180529188901b9091166101a052905060005b8881101562000757576003876001600160a01b03166323746eb8836040518263ffffffff1660e01b81526004018082600f0b815260200191505060206040518083038186803b158015620005e457600080fd5b505afa158015620005f9573d6000803e3d6000fd5b505050506040513d60208110156200061057600080fd5b505181546001810183556000928352602090922090910180546001600160a01b0319166001600160a01b039092169190911790556003805460059190839081106200065757fe5b600091825260209182902001546040805163313ce56760e01b815290516001600160a01b039092169263313ce56792600480840193829003018186803b158015620006a157600080fd5b505afa158015620006b6573d6000803e3d6000fd5b505050506040513d6020811015620006cd57600080fd5b505181546001810183556000928352602092839020928104909201805460ff6012939093038316601f9094166101000a9384029290930219909216179055600380546200074e9189916000199190859081106200072657fe5b600091825260209182902001546001600160a01b0316929190620027f862000850821b17901c565b60010162000591565b50856001600160a01b03166323746eb8866040518263ffffffff1660e01b81526004018082600f0b815260200191505060206040518083038186803b158015620007a057600080fd5b505afa158015620007b5573d6000803e3d6000fd5b505050506040513d6020811015620007cc57600080fd5b5051600480546001600160a01b0319166001600160a01b0392831617905562000807908e168860001962000850602090811b620027f817901c565b6200082e866000198f6001600160a01b03166200085060201b620027f8179092919060201c565b6200083c8b8d848462000974565b505050505050505050505050505062000ff1565b801580620008da575060408051636eb1769f60e11b81523060048201526001600160a01b03848116602483015291519185169163dd62ed3e91604480820192602092909190829003018186803b158015620008aa57600080fd5b505afa158015620008bf573d6000803e3d6000fd5b505050506040513d6020811015620008d657600080fd5b5051155b620009175760405162461bcd60e51b8152600401808060200182810382526036815260200180620054126036913960400191505060405180910390fd5b604080516001600160a01b038416602482015260448082018490528251808303909101815260649091019091526020810180516001600160e01b0390811663095ea7b360e01b179091526200096f91859162000bdf16565b505050565b6000825190506000826001600160a01b031663d55a23f46040518163ffffffff1660e01b815260040160206040518083038186803b158015620009b657600080fd5b505afa158015620009cb573d6000803e3d6000fd5b505050506040513d6020811015620009e257600080fd5b5051905060005b8281101562000bd657600085828151811062000a0157fe5b6020026020010151905062000a31816000896001600160a01b03166200085060201b620027f8179092919060201c565b62000a5881600019896001600160a01b03166200085060201b620027f8179092919060201c565b62000a7e8160008a6001600160a01b03166200085060201b620027f8179092919060201c565b62000aa5816000198a6001600160a01b03166200085060201b620027f8179092919060201c565b821562000bcc5760005b8381101562000bca5762000bc182600019886001600160a01b03166340c35446856040518263ffffffff1660e01b81526004018082815260200191505060206040518083038186803b15801562000b0557600080fd5b505afa15801562000b1a573d6000803e3d6000fd5b505050506040513d602081101562000b3157600080fd5b50516040805163f7c618c160e01b815290516001600160a01b039092169163f7c618c191600480820192602092909190829003018186803b15801562000b7657600080fd5b505afa15801562000b8b573d6000803e3d6000fd5b505050506040513d602081101562000ba257600080fd5b50516001600160a01b0316919062000850602090811b620027f817901c565b60010162000aaf565b505b50600101620009e9565b50505050505050565b606062000c3b826040518060400160405280602081526020017f5361666545524332303a206c6f772d6c6576656c2063616c6c206661696c6564815250856001600160a01b031662000c9b60201b6200290b179092919060201c565b8051909150156200096f5780806020019051602081101562000c5c57600080fd5b50516200096f5760405162461bcd60e51b815260040180806020018281038252602a815260200180620053e8602a913960400191505060405180910390fd5b606062000cac848460008562000cb6565b90505b9392505050565b60608247101562000cf95760405162461bcd60e51b8152600401808060200182810382526026815260200180620053c26026913960400191505060405180910390fd5b62000d048562000e1e565b62000d56576040805162461bcd60e51b815260206004820152601d60248201527f416464726573733a2063616c6c20746f206e6f6e2d636f6e7472616374000000604482015290519081900360640190fd5b60006060866001600160a01b031685876040518082805190602001908083835b6020831062000d975780518252601f19909201916020918201910162000d76565b6001836020036101000a03801982511681845116808217855250505050505090500191505060006040518083038185875af1925050503d806000811462000dfb576040519150601f19603f3d011682016040523d82523d6000602084013e62000e00565b606091505b50909250905062000e1382828662000e24565b979650505050505050565b3b151590565b6060831562000e3557508162000caf565b82511562000e465782518084602001fd5b8160405162461bcd60e51b81526004018080602001828103825283818151815260200191508051906020019080838360005b8381101562000e9257818101518382015260200162000e78565b50505050905090810190601f16801562000ec05780820380516001836020036101000a031916815260200191505b509250505060405180910390fd5b828054600181600116156101000203166002900490600052602060002090601f016020900481019282601f1062000f1157805160ff191683800117855562000f41565b8280016001018555821562000f41579182015b8281111562000f4157825182559160200191906001019062000f24565b5062000f4f92915062000fb9565b5090565b82805482825590600052602060002090810192821562000fab579160200282015b8281111562000fab57825182546001600160a01b0319166001600160a01b0390911617825560209092019160019091019062000f74565b5062000f4f92915062000fd0565b5b8082111562000f4f576000815560010162000fba565b5b8082111562000f4f5780546001600160a01b031916815560010162000fd1565b60805160601c60a05160601c60c05160601c60e05160601c6101005160601c6101205160601c610140516101605160601c6101805160601c6101a05160601c614204620011be60003980611a5652806120ee5280613b815280613dee52508061063d52806106df5280610bfa5280610e2c5280610fc35280611302528061259f5280612d1a5280612dae528061306d528061348e528061354e52508061236c52806131115250806127a352806130da5250806108df52806109a25280610a4b5280610ad85280610b52528061253b5280612c185280612cbc52508061124a52806123905280612f715250806107df5280611555528061164b5280611ca25280611fc0528061211252806126ab5280613820525080611bbd5280611c225280611ed15280611f95528061216652806122be52806122f352806123dd5280612511528061263b52806127c752508061092d5280610f5752806112985280611507528061184c5280611de65280611e2a52806120ca5280612cdd5280612f305280612fd45280613759528061379f52806138ec52806139c2525080611c535280611c7e5280611f7352806121d2528061244952806124ef52806125c55280612abb5280612b6152506142046000f3fe608060405234801561001057600080fd5b50600436106101da5760003560e01c8063689538e711610104578063b6bff295116100a2578063ef9e237911610071578063ef9e23791461055d578063f106845414610593578063f77c47911461059b578063f887ea40146105a3576101da565b8063b6bff2951461053d578063c1a3d44c14610545578063d0e30db01461054d578063dd0081c714610555576101da565b8063853828b6116100de578063853828b6146104f2578063923c1d61146104fa578063a128723a14610502578063b180783d14610535576101da565b8063689538e7146104da5780636a4874a1146104e2578063722713f7146104ea576101da565b8063337da0fc1161017c5780634f64b2be1161014b5780634f64b2be1461040c57806351cff8d9146104295780635d14b06f1461044f5780635f349a11146104bd576101da565b8063337da0fc146103d75780633fc8cef3146103f45780634362c0d1146103fc578063481c6a7514610404576101da565b80631dd19cb4116101b85780631dd19cb4146102ce5780631f1fcd51146102d85780632d16c4e3146102fc5780632e1a7d4d146103ba576101da565b806306fdde03146101df578063115880861461025c578063185881ec14610276575b600080fd5b6101e76105ab565b6040805160208082528351818301528351919283929083019185019080838360005b83811015610221578181015183820152602001610209565b50505050905090810190601f16801561024e5780820380516001836020036101000a031916815260200191505b509250505060405180910390f35b610264610639565b60408051918252519081900360200190f35b61027e6106d9565b60408051602080825283518183015283519192839290830191858101910280838360005b838110156102ba5781810151838201526020016102a2565b505050509050019250505060405180910390f35b6102d6611bb2565b005b6102e0611c7c565b604080516001600160a01b039092168252519081900360200190f35b6102d66004803603604081101561031257600080fd5b810190602081018135600160201b81111561032c57600080fd5b82018360208201111561033e57600080fd5b803590602001918460208302840111600160201b8311171561035f57600080fd5b919390929091602081019035600160201b81111561037c57600080fd5b82018360208201111561038e57600080fd5b803590602001918460208302840111600160201b831117156103af57600080fd5b509092509050611ca0565b6102d6600480360360208110156103d057600080fd5b5035611ec6565b6102d6600480360360208110156103ed57600080fd5b5035611fbe565b6102e06120c8565b6102e06120ec565b6102e0612110565b6102e06004803603602081101561042257600080fd5b5035612134565b6102d66004803603602081101561043f57600080fd5b50356001600160a01b031661215b565b6102d66004803603602081101561046557600080fd5b810190602081018135600160201b81111561047f57600080fd5b82018360208201111561049157600080fd5b803590602001918460208302840111600160201b831117156104b257600080fd5b5090925090506122e8565b6102e0600480360360208110156104d357600080fd5b503561235d565b6102e061236a565b6102e061238e565b6102646123b2565b6102d66123d2565b6102e0612539565b61051f6004803603602081101561051857600080fd5b503561255d565b6040805160ff9092168252519081900360200190f35b6102e061258e565b6102e061259d565b6102646125c1565b6102d6612630565b6102646126a3565b6102d66004803603606081101561057357600080fd5b506001600160a01b038135811691602081013590911690604001356126a9565b6102646127a1565b6102e06127c5565b6102e06127e9565b6000805460408051602060026001851615610100026000190190941693909304601f810184900484028201840190925281815292918301828280156106315780601f1061060657610100808354040283529160200191610631565b820191906000526020600020905b81548152906001019060200180831161061457829003601f168201915b505050505081565b60007f00000000000000000000000000000000000000000000000000000000000000006001600160a01b03166370a08231306040518263ffffffff1660e01b815260040180826001600160a01b0316815260200191505060206040518083038186803b1580156106a857600080fd5b505afa1580156106bc573d6000803e3d6000fd5b505050506040513d60208110156106d257600080fd5b5051905090565b606060007f00000000000000000000000000000000000000000000000000000000000000006001600160a01b031663d55a23f46040518163ffffffff1660e01b815260040160206040518083038186803b15801561073657600080fd5b505afa15801561074a573d6000803e3d6000fd5b505050506040513d602081101561076057600080fd5b505190506060610771826005612924565b67ffffffffffffffff8111801561078757600080fd5b506040519080825280602002602001820160405280156107b1578160200160208202803683370190505b50604080516002808252606080830184529394509091602083019080368337019050509050606060006108d97f00000000000000000000000000000000000000000000000000000000000000006001600160a01b0316634bdaeac16040518163ffffffff1660e01b815260040160206040518083038186803b15801561083657600080fd5b505afa15801561084a573d6000803e3d6000fd5b505050506040513d602081101561086057600080fd5b505160408051633e032a3b60e01b815290516001600160a01b0390921691633e032a3b91600480820192602092909190829003018186803b1580156108a457600080fd5b505afa1580156108b8573d6000803e3d6000fd5b505050506040513d60208110156108ce57600080fd5b505161271090612987565b905060007f00000000000000000000000000000000000000000000000000000000000000008460008151811061090b57fe5b60200260200101906001600160a01b031690816001600160a01b0316815250507f00000000000000000000000000000000000000000000000000000000000000008460018151811061095957fe5b60200260200101906001600160a01b031690816001600160a01b031681525050600260009054906101000a90046001600160a01b03166001600160a01b031663d06ca61f610c777f00000000000000000000000000000000000000000000000000000000000000006001600160a01b0316631f96e76f6040518163ffffffff1660e01b815260040160206040518083038186803b1580156109f957600080fd5b505afa158015610a0d573d6000803e3d6000fd5b505050506040513d6020811015610a2357600080fd5b50516040805163553a731160e11b81529051610c7191610bdb91610b50916001600160a01b037f0000000000000000000000000000000000000000000000000000000000000000169163aa74e62291600480820192602092909190829003018186803b158015610a9257600080fd5b505afa158015610aa6573d6000803e3d6000fd5b505050506040513d6020811015610abc57600080fd5b5051604080516318160ddd60e01b815290516001600160a01b037f000000000000000000000000000000000000000000000000000000000000000016916318160ddd916004808301926020929190829003018186803b158015610b1e57600080fd5b505afa158015610b32573d6000803e3d6000fd5b505050506040513d6020811015610b4857600080fd5b5051906129c9565b7f00000000000000000000000000000000000000000000000000000000000000006001600160a01b0316631f96e76f6040518163ffffffff1660e01b815260040160206040518083038186803b158015610ba957600080fd5b505afa158015610bbd573d6000803e3d6000fd5b505050506040513d6020811015610bd357600080fd5b505190612987565b604080516246613160e11b815230600482015290516001600160a01b037f00000000000000000000000000000000000000000000000000000000000000001691628cc262916024808301926020929190829003018186803b158015610c3f57600080fd5b505afa158015610c53573d6000803e3d6000fd5b505050506040513d6020811015610c6957600080fd5b505190612a0b565b906129c9565b866040518363ffffffff1660e01b81526004018083815260200180602001828103825283818151815260200191508051906020019060200280838360005b83811015610ccd578181015183820152602001610cb5565b50505050905001935050505060006040518083038186803b158015610cf157600080fd5b505afa158015610d05573d6000803e3d6000fd5b505050506040513d6000823e601f3d908101601f191682016040526020811015610d2e57600080fd5b8101908080516040519392919084600160201b821115610d4d57600080fd5b908301906020820185811115610d6257600080fd5b82518660208202830111600160201b82111715610d7e57600080fd5b82525081516020918201928201910280838360005b83811015610dab578181015183820152602001610d93565b505050509050016040525050509250610de7612710610c718486600181518110610dd157fe5b6020026020010151612a0b90919063ffffffff16565b85600081518110610df457fe5b60200260200101818152505084600081518110610e0d57fe5b60209081029190910101510185156112485760005b86811015611246577f00000000000000000000000000000000000000000000000000000000000000006001600160a01b03166340c35446826040518263ffffffff1660e01b81526004018082815260200191505060206040518083038186803b158015610e8e57600080fd5b505afa158015610ea2573d6000803e3d6000fd5b505050506040513d6020811015610eb857600080fd5b50516040805163f7c618c160e01b815290516001600160a01b039092169163f7c618c191600480820192602092909190829003018186803b158015610efc57600080fd5b505afa158015610f10573d6000803e3d6000fd5b505050506040513d6020811015610f2657600080fd5b505185518690600090610f3557fe5b60200260200101906001600160a01b031690816001600160a01b0316815250507f000000000000000000000000000000000000000000000000000000000000000085600181518110610f8357fe5b6001600160a01b0392831660209182029290920181019190915260025460408051632061aa2360e11b81526004810186905290519184169363d06ca61f937f0000000000000000000000000000000000000000000000000000000000000000909116926340c35446926024808201939291829003018186803b15801561100857600080fd5b505afa15801561101c573d6000803e3d6000fd5b505050506040513d602081101561103257600080fd5b5051604080516246613160e11b815230600482015290516001600160a01b0390921691628cc26291602480820192602092909190829003018186803b15801561107a57600080fd5b505afa15801561108e573d6000803e3d6000fd5b505050506040513d60208110156110a457600080fd5b5051604080516001600160e01b031960e085901b16815260048101838152602482019283528a5160448301528a518b939192606401906020858101910280838360005b838110156110ff5781810151838201526020016110e7565b50505050905001935050505060006040518083038186803b15801561112357600080fd5b505afa158015611137573d6000803e3d6000fd5b505050506040513d6000823e601f3d908101601f19168201604052602081101561116057600080fd5b8101908080516040519392919084600160201b82111561117f57600080fd5b90830190602082018581111561119457600080fd5b82518660208202830111600160201b821117156111b057600080fd5b82525081516020918201928201910280838360005b838110156111dd5781810151838201526020016111c5565b505050509050016040525050509350611203612710610c718587600181518110610dd157fe5b86826001018151811061121257fe5b60200260200101818152505085816001018151811061122d57fe5b6020026020010151820191508080600101915050610e22565b505b7f00000000000000000000000000000000000000000000000000000000000000008460008151811061127657fe5b60200260200101906001600160a01b031690816001600160a01b0316815250507f0000000000000000000000000000000000000000000000000000000000000000846001815181106112c457fe5b6001600160a01b03928316602091820292909201810191909152600254604080516246613160e11b815230600482015290519184169363d06ca61f937f000000000000000000000000000000000000000000000000000000000000000090911692628cc262926024808201939291829003018186803b15801561134657600080fd5b505afa15801561135a573d6000803e3d6000fd5b505050506040513d602081101561137057600080fd5b5051604080516001600160e01b031960e085901b16815260048101838152602482019283528951604483015289518a939192606401906020858101910280838360005b838110156113cb5781810151838201526020016113b3565b50505050905001935050505060006040518083038186803b1580156113ef57600080fd5b505afa158015611403573d6000803e3d6000fd5b505050506040513d6000823e601f3d908101601f19168201604052602081101561142c57600080fd5b8101908080516040519392919084600160201b82111561144b57600080fd5b90830190602082018581111561146057600080fd5b82518660208202830111600160201b8211171561147c57600080fd5b82525081516020918201928201910280838360005b838110156114a9578181015183820152602001611491565b5050505090500160405250505092506114cf612710610c718486600181518110610dd157fe5b8587600101815181106114de57fe5b6020026020010181815250508486600101815181106114f957fe5b6020026020010151810190507f00000000000000000000000000000000000000000000000000000000000000008460008151811061153357fe5b60200260200101906001600160a01b031690816001600160a01b0316815250507f00000000000000000000000000000000000000000000000000000000000000006001600160a01b0316633f021b0e6040518163ffffffff1660e01b815260040160206040518083038186803b1580156115ac57600080fd5b505afa1580156115c0573d6000803e3d6000fd5b505050506040513d60208110156115d657600080fd5b50518451859060019081106115e757fe5b60200260200101906001600160a01b031690816001600160a01b0316815250506001808154811061161457fe5b9060005260206000200160009054906101000a90046001600160a01b03166001600160a01b031663d06ca61f6116d5612710610c717f00000000000000000000000000000000000000000000000000000000000000006001600160a01b031663cc32d1766040518163ffffffff1660e01b815260040160206040518083038186803b1580156116a257600080fd5b505afa1580156116b6573d6000803e3d6000fd5b505050506040513d60208110156116cc57600080fd5b50518690612a0b565b866040518363ffffffff1660e01b81526004018083815260200180602001828103825283818151815260200191508051906020019060200280838360005b8381101561172b578181015183820152602001611713565b50505050905001935050505060006040518083038186803b15801561174f57600080fd5b505afa158015611763573d6000803e3d6000fd5b505050506040513d6000823e601f3d908101601f19168201604052602081101561178c57600080fd5b8101908080516040519392919084600160201b8211156117ab57600080fd5b9083019060208201858111156117c057600080fd5b82518660208202830111600160201b821117156117dc57600080fd5b82525081516020918201928201910280838360005b838110156118095781810151838201526020016117f1565b50505050905001604052505050925061182f612710610c718486600181518110610dd157fe5b85876002018151811061183e57fe5b6020026020010181815250507f00000000000000000000000000000000000000000000000000000000000000008460008151811061187857fe5b6001600160a01b0392831660209182029290920101526004548551911690859060019081106118a357fe5b6001600160a01b039283166020918202929092010152600254845191169063d06ca61f9085906000906118d257fe5b60200260200101518303866040518363ffffffff1660e01b81526004018083815260200180602001828103825283818151815260200191508051906020019060200280838360005b8381101561193257818101518382015260200161191a565b50505050905001935050505060006040518083038186803b15801561195657600080fd5b505afa15801561196a573d6000803e3d6000fd5b505050506040513d6000823e601f3d908101601f19168201604052602081101561199357600080fd5b8101908080516040519392919084600160201b8211156119b257600080fd5b9083019060208201858111156119c757600080fd5b82518660208202830111600160201b821117156119e357600080fd5b82525081516020918201928201910280838360005b83811015611a105781810151838201526020016119f8565b505050509050016040525050509250611a36612710610c718486600181518110610dd157fe5b858760030181518110611a4557fe5b602002602001018181525050611b8d7f00000000000000000000000000000000000000000000000000000000000000006001600160a01b031663bb7b8b806040518163ffffffff1660e01b815260040160206040518083038186803b158015611aad57600080fd5b505afa158015611ac1573d6000803e3d6000fd5b505050506040513d6020811015611ad757600080fd5b5051600480546040805163313ce56760e01b81529051610c7193670de0b6b3a764000093611b87936001600160a01b039091169263313ce56792828101926020929190829003018186803b158015611b2e57600080fd5b505afa158015611b42573d6000803e3d6000fd5b505050506040513d6020811015611b5857600080fd5b5051885160129190910360ff908116600a0a1690611b879061271090610c71908b908d906001908110610dd157fe5b90612a0b565b858760040181518110611b9c57fe5b6020908102919091010152509294505050505090565b336001600160a01b037f00000000000000000000000000000000000000000000000000000000000000001614611c1d576040805162461bcd60e51b815260206004820152600b60248201526a10b1b7b73a3937b63632b960a91b604482015290519081900360640190fd5b611c7a7f0000000000000000000000000000000000000000000000000000000000000000611c496125c1565b6001600160a01b037f0000000000000000000000000000000000000000000000000000000000000000169190612a64565b565b7f000000000000000000000000000000000000000000000000000000000000000081565b7f00000000000000000000000000000000000000000000000000000000000000006001600160a01b0316635aa6e6756040518163ffffffff1660e01b815260040160206040518083038186803b158015611cf957600080fd5b505afa158015611d0d573d6000803e3d6000fd5b505050506040513d6020811015611d2357600080fd5b50516001600160a01b03163314611d6f576040805162461bcd60e51b815260206004820152600b60248201526a21676f7665726e616e636560a81b604482015290519081900360640190fd5b611d7b60018585614069565b5083836000818110611d8957fe5b6002805460209290920293909301356001600160a01b03166001600160a01b0319909116179091555060008382825b82811015611ebc57878782818110611dcc57fe5b905060200201356001600160a01b03169350611e1d8460007f00000000000000000000000000000000000000000000000000000000000000006001600160a01b03166127f89092919063ffffffff16565b611e536001600160a01b037f000000000000000000000000000000000000000000000000000000000000000016856000196127f8565b60005b82811015611eb357611e98856000898985818110611e7057fe5b905060200201356001600160a01b03166001600160a01b03166127f89092919063ffffffff16565b611eab85600019898985818110611e7057fe5b600101611e56565b50600101611db8565b5050505050505050565b336001600160a01b037f00000000000000000000000000000000000000000000000000000000000000001614611f31576040805162461bcd60e51b815260206004820152600b60248201526a10b1b7b73a3937b63632b960a91b604482015290519081900360640190fd5b6000611f3b6125c1565b905081811015611f6657611f57611f528383612987565b612ab6565b9150611f638282612924565b91505b611fba6001600160a01b037f0000000000000000000000000000000000000000000000000000000000000000167f000000000000000000000000000000000000000000000000000000000000000084612a64565b5050565b7f00000000000000000000000000000000000000000000000000000000000000006001600160a01b0316635aa6e6756040518163ffffffff1660e01b815260040160206040518083038186803b15801561201757600080fd5b505afa15801561202b573d6000803e3d6000fd5b505050506040513d602081101561204157600080fd5b50516001600160a01b0316331461208d576040805162461bcd60e51b815260206004820152600b60248201526a21676f7665726e616e636560a81b604482015290519081900360640190fd5b6001818154811061209a57fe5b600091825260209091200154600280546001600160a01b0319166001600160a01b0390921691909117905550565b7f000000000000000000000000000000000000000000000000000000000000000081565b7f000000000000000000000000000000000000000000000000000000000000000081565b7f000000000000000000000000000000000000000000000000000000000000000081565b6003818154811061214157fe5b6000918252602090912001546001600160a01b0316905081565b336001600160a01b037f000000000000000000000000000000000000000000000000000000000000000016146121c6576040805162461bcd60e51b815260206004820152600b60248201526a10b1b7b73a3937b63632b960a91b604482015290519081900360640190fd5b806001600160a01b03167f00000000000000000000000000000000000000000000000000000000000000006001600160a01b03161415612236576040805162461bcd60e51b815260206004808301919091526024820152631dd85b9d60e21b604482015290519081900360640190fd5b604080516370a0823160e01b8152306004820152905182916000916001600160a01b038416916370a08231916024808301926020929190829003018186803b15801561228157600080fd5b505afa158015612295573d6000803e3d6000fd5b505050506040513d60208110156122ab57600080fd5b505190506122e36001600160a01b0383167f000000000000000000000000000000000000000000000000000000000000000083612a64565b505050565b336001600160a01b037f00000000000000000000000000000000000000000000000000000000000000001614612353576040805162461bcd60e51b815260206004820152600b60248201526a10b1b7b73a3937b63632b960a91b604482015290519081900360640190fd5b611fba8282612c0c565b6001818154811061214157fe5b7f000000000000000000000000000000000000000000000000000000000000000081565b7f000000000000000000000000000000000000000000000000000000000000000081565b60006123cd6123bf610639565b6123c76125c1565b90612924565b905090565b336001600160a01b037f0000000000000000000000000000000000000000000000000000000000000000161461243d576040805162461bcd60e51b815260206004820152600b60248201526a10b1b7b73a3937b63632b960a91b604482015290519081900360640190fd5b61244561304a565b60007f00000000000000000000000000000000000000000000000000000000000000006001600160a01b03166370a08231306040518263ffffffff1660e01b815260040180826001600160a01b0316815260200191505060206040518083038186803b1580156124b457600080fd5b505afa1580156124c8573d6000803e3d6000fd5b505050506040513d60208110156124de57600080fd5b505190506125366001600160a01b037f0000000000000000000000000000000000000000000000000000000000000000167f000000000000000000000000000000000000000000000000000000000000000083612a64565b50565b7f000000000000000000000000000000000000000000000000000000000000000081565b6005818154811061256a57fe5b9060005260206000209060209182820401919006915054906101000a900460ff1681565b6004546001600160a01b031681565b7f000000000000000000000000000000000000000000000000000000000000000081565b60007f00000000000000000000000000000000000000000000000000000000000000006001600160a01b03166370a08231306040518263ffffffff1660e01b815260040180826001600160a01b0316815260200191505060206040518083038186803b1580156106a857600080fd5b336001600160a01b037f0000000000000000000000000000000000000000000000000000000000000000161461269b576040805162461bcd60e51b815260206004820152600b60248201526a10b1b7b73a3937b63632b960a91b604482015290519081900360640190fd5b611c7a6130ca565b61271081565b7f00000000000000000000000000000000000000000000000000000000000000006001600160a01b0316635aa6e6756040518163ffffffff1660e01b815260040160206040518083038186803b15801561270257600080fd5b505afa158015612716573d6000803e3d6000fd5b505050506040513d602081101561272c57600080fd5b50516001600160a01b03163314612778576040805162461bcd60e51b815260206004820152600b60248201526a21676f7665726e616e636560a81b604482015290519081900360640190fd5b61278d6001600160a01b0384168360006127f8565b6122e36001600160a01b03841683836127f8565b7f000000000000000000000000000000000000000000000000000000000000000081565b7f000000000000000000000000000000000000000000000000000000000000000081565b6002546001600160a01b031681565b80158061287e575060408051636eb1769f60e11b81523060048201526001600160a01b03848116602483015291519185169163dd62ed3e91604480820192602092909190829003018186803b15801561285057600080fd5b505afa158015612864573d6000803e3d6000fd5b505050506040513d602081101561287a57600080fd5b5051155b6128b95760405162461bcd60e51b81526004018080602001828103825260368152602001806141996036913960400191505060405180910390fd5b604080516001600160a01b038416602482015260448082018490528251808303909101815260649091019091526020810180516001600160e01b031663095ea7b360e01b1790526122e3908490613183565b606061291a8484600085613234565b90505b9392505050565b60008282018381101561297e576040805162461bcd60e51b815260206004820152601b60248201527f536166654d6174683a206164646974696f6e206f766572666c6f770000000000604482015290519081900360640190fd5b90505b92915050565b600061297e83836040518060400160405280601e81526020017f536166654d6174683a207375627472616374696f6e206f766572666c6f770000815250613390565b600061297e83836040518060400160405280601a81526020017f536166654d6174683a206469766973696f6e206279207a65726f000000000000815250613427565b600082612a1a57506000612981565b82820282848281612a2757fe5b041461297e5760405162461bcd60e51b815260040180806020018281038252602181526020018061414e6021913960400191505060405180910390fd5b604080516001600160a01b038416602482015260448082018490528251808303909101815260649091019091526020810180516001600160e01b031663a9059cbb60e01b1790526122e3908490613183565b6000807f00000000000000000000000000000000000000000000000000000000000000006001600160a01b03166370a08231306040518263ffffffff1660e01b815260040180826001600160a01b0316815260200191505060206040518083038186803b158015612b2657600080fd5b505afa158015612b3a573d6000803e3d6000fd5b505050506040513d6020811015612b5057600080fd5b50519050612b5d8361348c565b60007f00000000000000000000000000000000000000000000000000000000000000006001600160a01b03166370a08231306040518263ffffffff1660e01b815260040180826001600160a01b0316815260200191505060206040518083038186803b158015612bcc57600080fd5b505afa158015612be0573d6000803e3d6000fd5b505050506040513d6020811015612bf657600080fd5b50519050612c048183612987565b949350505050565b612c14613527565b60007f00000000000000000000000000000000000000000000000000000000000000006001600160a01b03166370a08231306040518263ffffffff1660e01b815260040180826001600160a01b0316815260200191505060206040518083038186803b158015612c8357600080fd5b505afa158015612c97573d6000803e3d6000fd5b505050506040513d6020811015612cad57600080fd5b505190508015612d1657612d167f00000000000000000000000000000000000000000000000000000000000000007f00000000000000000000000000000000000000000000000000000000000000008386866000818110612d0a57fe5b90506020020135613596565b60007f00000000000000000000000000000000000000000000000000000000000000006001600160a01b031663d55a23f46040518163ffffffff1660e01b815260040160206040518083038186803b158015612d7157600080fd5b505afa158015612d85573d6000803e3d6000fd5b505050506040513d6020811015612d9b57600080fd5b5051905060005b81811015612f695760007f00000000000000000000000000000000000000000000000000000000000000006001600160a01b03166340c35446836040518263ffffffff1660e01b81526004018082815260200191505060206040518083038186803b158015612e1057600080fd5b505afa158015612e24573d6000803e3d6000fd5b505050506040513d6020811015612e3a57600080fd5b50516040805163f7c618c160e01b815290516001600160a01b039092169163f7c618c191600480820192602092909190829003018186803b158015612e7e57600080fd5b505afa158015612e92573d6000803e3d6000fd5b505050506040513d6020811015612ea857600080fd5b5051604080516370a0823160e01b815230600482015290519192506000916001600160a01b038416916370a08231916024808301926020929190829003018186803b158015612ef657600080fd5b505afa158015612f0a573d6000803e3d6000fd5b505050506040513d6020811015612f2057600080fd5b505190508015612f5f57612f5f827f0000000000000000000000000000000000000000000000000000000000000000838a8a88600101818110612d0a57fe5b5050600101612da2565b506000612fc37f0000000000000000000000000000000000000000000000000000000000000000868685600101818110612f9f57fe5b90506020020135878786600201818110612fb557fe5b9050602002013560016136d5565b905080156130435760045461300d907f0000000000000000000000000000000000000000000000000000000000000000906001600160a01b031683888860038801818110612d0a57fe5b61302b85858460040181811061301f57fe5b90506020020135613a44565b60006130356125c1565b1115613043576130436130ca565b5050505050565b604080516324f81cd160e11b815260006004820181905291516001600160a01b037f000000000000000000000000000000000000000000000000000000000000000016926349f039a2926024808201939182900301818387803b1580156130b057600080fd5b505af11580156130c4573d6000803e3d6000fd5b50505050565b6040805163303acfe760e11b81527f000000000000000000000000000000000000000000000000000000000000000060048201526001602482015290516001600160a01b037f000000000000000000000000000000000000000000000000000000000000000016916360759fce9160448083019260209291908290030181600087803b15801561315957600080fd5b505af115801561316d573d6000803e3d6000fd5b505050506040513d6020811015611fba57600080fd5b60606131d8826040518060400160405280602081526020017f5361666545524332303a206c6f772d6c6576656c2063616c6c206661696c6564815250856001600160a01b031661290b9092919063ffffffff16565b8051909150156122e3578080602001905160208110156131f757600080fd5b50516122e35760405162461bcd60e51b815260040180806020018281038252602a81526020018061416f602a913960400191505060405180910390fd5b6060824710156132755760405162461bcd60e51b81526004018080602001828103825260268152602001806141286026913960400191505060405180910390fd5b61327e85613e85565b6132cf576040805162461bcd60e51b815260206004820152601d60248201527f416464726573733a2063616c6c20746f206e6f6e2d636f6e7472616374000000604482015290519081900360640190fd5b60006060866001600160a01b031685876040518082805190602001908083835b6020831061330e5780518252601f1990920191602091820191016132ef565b6001836020036101000a03801982511681845116808217855250505050505090500191505060006040518083038185875af1925050503d8060008114613370576040519150601f19603f3d011682016040523d82523d6000602084013e613375565b606091505b5091509150613385828286613e8b565b979650505050505050565b6000818484111561341f5760405162461bcd60e51b81526004018080602001828103825283818151815260200191508051906020019080838360005b838110156133e45781810151838201526020016133cc565b50505050905090810190601f1680156134115780820380516001836020036101000a031916815260200191505b509250505060405180910390fd5b505050900390565b600081836134765760405162461bcd60e51b81526020600482018181528351602484015283519092839260449091019190850190808383600083156133e45781810151838201526020016133cc565b50600083858161348257fe5b0495945050505050565b7f00000000000000000000000000000000000000000000000000000000000000006001600160a01b031663c32e72028260006040518363ffffffff1660e01b815260040180838152602001821515815260200192505050602060405180830381600087803b1580156134fd57600080fd5b505af1158015613511573d6000803e3d6000fd5b505050506040513d60208110156122e357600080fd5b60408051637050ccd960e01b81523060048201526001602482015290516001600160a01b037f00000000000000000000000000000000000000000000000000000000000000001691637050ccd99160448083019260209291908290030181600087803b15801561315957600080fd5b604080516002808252606080830184529260208301908036833701905050905084816000815181106135c457fe5b60200260200101906001600160a01b031690816001600160a01b03168152505083816001815181106135f257fe5b6001600160a01b039283166020918202929092018101919091526002546040516338ed173960e01b8152600481018781526024820187905230606483018190526402540be4006084840181905260a060448501908152885160a4860152885195909716966338ed1739968b968b968b96939260c490910191878201910280838360005b8381101561368d578181015183820152602001613675565b505050509050019650505050505050600060405180830381600087803b1580156136b657600080fd5b505af11580156136ca573d6000803e3d6000fd5b505050505050505050565b600080856001600160a01b03166370a08231306040518263ffffffff1660e01b815260040180826001600160a01b0316815260200191505060206040518083038186803b15801561372557600080fd5b505afa158015613739573d6000803e3d6000fd5b505050506040513d602081101561374f57600080fd5b5051905061377f867f00000000000000000000000000000000000000000000000000000000000000008388613596565b604080516370a0823160e01b815230600482015290516001600160a01b037f000000000000000000000000000000000000000000000000000000000000000016916370a08231916024808301926020929190829003018186803b1580156137e557600080fd5b505afa1580156137f9573d6000803e3d6000fd5b505050506040513d602081101561380f57600080fd5b505191508115613a3b5760008060007f00000000000000000000000000000000000000000000000000000000000000006001600160a01b031663da633d316040518163ffffffff1660e01b815260040160606040518083038186803b15801561387757600080fd5b505afa15801561388b573d6000803e3d6000fd5b505050506040513d60608110156138a157600080fd5b50805160208201516040909201519094509092509050600081158015906138d057506001600160a01b03831615155b156139a2576138e5612710610c718885612a0b565b90506139147f000000000000000000000000000000000000000000000000000000000000000085838b8b613ef1565b6139a283856001600160a01b03166370a08231306040518263ffffffff1660e01b815260040180826001600160a01b0316815260200191505060206040518083038186803b15801561396557600080fd5b505afa158015613979573d6000803e3d6000fd5b505050506040513d602081101561398f57600080fd5b50516001600160a01b0387169190612a64565b604080516370a0823160e01b815230600482015290516001600160a01b037f000000000000000000000000000000000000000000000000000000000000000016916370a08231916024808301926020929190829003018186803b158015613a0857600080fd5b505afa158015613a1c573d6000803e3d6000fd5b505050506040513d6020811015613a3257600080fd5b50519550505050505b50949350505050565b60035460021415613c2357613a576140cc565b6003600081548110613a6557fe5b60009182526020918290200154604080516370a0823160e01b815230600482015290516001600160a01b03909216926370a0823192602480840193829003018186803b158015613ab457600080fd5b505afa158015613ac8573d6000803e3d6000fd5b505050506040513d6020811015613ade57600080fd5b50518152600380546001908110613af157fe5b60009182526020918290200154604080516370a0823160e01b815230600482015290516001600160a01b03909216926370a0823192602480840193829003018186803b158015613b4057600080fd5b505afa158015613b54573d6000803e3d6000fd5b505050506040513d6020811015613b6a57600080fd5b5051602082015260408051630b4c7e4d60e01b81527f00000000000000000000000000000000000000000000000000000000000000006001600160a01b031691630b4c7e4d9184918691600401908190849080838360005b83811015613bda578181015183820152602001613bc2565b5050505090500182815260200192505050600060405180830381600087803b158015613c0557600080fd5b505af1158015613c19573d6000803e3d6000fd5b5050505050612536565b613c2b6140ea565b6003600081548110613c3957fe5b60009182526020918290200154604080516370a0823160e01b815230600482015290516001600160a01b03909216926370a0823192602480840193829003018186803b158015613c8857600080fd5b505afa158015613c9c573d6000803e3d6000fd5b505050506040513d6020811015613cb257600080fd5b50518152600380546001908110613cc557fe5b60009182526020918290200154604080516370a0823160e01b815230600482015290516001600160a01b03909216926370a0823192602480840193829003018186803b158015613d1457600080fd5b505afa158015613d28573d6000803e3d6000fd5b505050506040513d6020811015613d3e57600080fd5b50516020820152600380546002908110613d5457fe5b60009182526020918290200154604080516370a0823160e01b815230600482015290516001600160a01b03909216926370a0823192602480840193829003018186803b158015613da357600080fd5b505afa158015613db7573d6000803e3d6000fd5b505050506040513d6020811015613dcd57600080fd5b50518160026020020152604051634515cef360e01b81526001600160a01b037f00000000000000000000000000000000000000000000000000000000000000001690634515cef390839085906004018083606080838360005b83811015613e3e578181015183820152602001613e26565b5050505090500182815260200192505050600060405180830381600087803b158015613e6957600080fd5b505af1158015613e7d573d6000803e3d6000fd5b505050505050565b3b151590565b60608315613e9a57508161291d565b825115613eaa5782518084602001fd5b60405162461bcd60e51b81526020600482018181528451602484015284518593919283926044019190850190808383600083156133e45781810151838201526020016133cc565b60408051600280825260608083018452926020830190803683370190505090508581600081518110613f1f57fe5b60200260200101906001600160a01b031690816001600160a01b0316815250508481600181518110613f4d57fe5b60200260200101906001600160a01b031690816001600160a01b03168152505060018281548110613f7a57fe5b9060005260206000200160009054906101000a90046001600160a01b03166001600160a01b03166338ed1739858584306402540be4006040518663ffffffff1660e01b81526004018086815260200185815260200180602001846001600160a01b03168152602001838152602001828103825285818151815260200191508051906020019060200280838360005b83811015614020578181015183820152602001614008565b505050509050019650505050505050600060405180830381600087803b15801561404957600080fd5b505af115801561405d573d6000803e3d6000fd5b50505050505050505050565b8280548282559060005260206000209081019282156140bc579160200282015b828111156140bc5781546001600160a01b0319166001600160a01b03843516178255602090920191600190910190614089565b506140c8929150614108565b5090565b60405180604001604052806002906020820280368337509192915050565b60405180606001604052806003906020820280368337509192915050565b5b808211156140c85780546001600160a01b031916815560010161410956fe416464726573733a20696e73756666696369656e742062616c616e636520666f722063616c6c536166654d6174683a206d756c7469706c69636174696f6e206f766572666c6f775361666545524332303a204552433230206f7065726174696f6e20646964206e6f7420737563636565645361666545524332303a20617070726f76652066726f6d206e6f6e2d7a65726f20746f206e6f6e2d7a65726f20616c6c6f77616e6365a2646970667358221220edd5cd6037f5f73dc24bc5563d59b854df240fc81826be748e6c6ef1b56f9bb064736f6c634300060c0033416464726573733a20696e73756666696369656e742062616c616e636520666f722063616c6c5361666545524332303a204552433230206f7065726174696f6e20646964206e6f7420737563636565645361666545524332303a20617070726f76652066726f6d206e6f6e2d7a65726f20746f206e6f6e2d7a65726f20616c6c6f77616e6365",
  "devdoc": {
    "kind": "dev",
    "methods": {
      "approveForSpender(address,address,uint256)": {
        "params": {
          "_amount": "The amount to spend",
          "_spender": "The address of the spender",
          "_token": "The address of the token"
        }
      },
      "balanceOfPool()": {
        "details": "Must be implemented by the strategy"
      },
      "constructor": {
        "params": {
          "_coinCount": "The number of coins in the pool",
          "_controller": "The address of the controller",
          "_convexVault": "The address of the convex vault",
          "_crv": "The address of CRV",
          "_cvx": "The address of CVX",
          "_manager": "The address of the manager",
          "_name": "The strategy name",
          "_pid": "The pool id of convex",
          "_premiumTokenIndex": "The index of the premium asset in the liquidity pool",
          "_routerArray": "The addresses of routers for swapping tokens",
          "_stableSwapPool": "The address of the stable swap pool",
          "_want": "The desired token of the strategy",
          "_weth": "The address of WETH"
        }
      },
      "setDefaultRouter(uint256)": {
        "params": {
          "_routerIndex": "Gets the address of the router from routerArray"
        }
      },
      "setRouter(address[],address[])": {
        "params": {
          "_routerArray": "The addresses of routers",
          "_tokenArray": "The addresses of tokens that need to be approved by the strategy"
        }
      },
      "withdraw(address)": {
        "params": {
          "_asset": "The address of the token to withdraw"
        }
      },
      "withdraw(uint256)": {
        "params": {
          "_amount": "The amount of the want token to withdraw"
        }
      }
    },
    "version": 1
  },
  "userdoc": {
    "kind": "user",
    "methods": {
      "approveForSpender(address,address,uint256)": {
        "notice": "Approves a token address to be spent by an address"
      },
      "balanceOf()": {
        "notice": "Returns the strategy's balance of the want token plus the balance of pool"
      },
      "balanceOfPool()": {
        "notice": "Returns the balance of the pool"
      },
      "balanceOfWant()": {
        "notice": "Returns the balance of the want token on the strategy"
      },
      "deposit()": {
        "notice": "Deposits funds to the strategy's pool"
      },
      "harvest(uint256[])": {
        "notice": "Harvest funds in the strategy's pool"
      },
      "setDefaultRouter(uint256)": {
        "notice": "Sets the default ISwap-compatible router"
      },
      "setRouter(address[],address[])": {
        "notice": "Sets the address of the ISwap-compatible router"
      },
      "skim()": {
        "notice": "Sends stuck want tokens in the strategy to the controller"
      },
      "withdraw(address)": {
        "notice": "Sends stuck tokens in the strategy to the controller"
      },
      "withdraw(uint256)": {
        "notice": "Initiated from a vault, withdraws funds from the pool"
      },
      "withdrawAll()": {
        "notice": "Withdraws all funds from the strategy"
      }
    },
    "version": 1
  },
  "storageLayout": {
    "storage": [
      {
        "astId": 18037,
        "contract": "contracts/v3/strategies/GeneralConvexStrategy.sol:GeneralConvexStrategy",
        "label": "name",
        "offset": 0,
        "slot": "0",
        "type": "t_string_storage"
      },
      {
        "astId": 18040,
        "contract": "contracts/v3/strategies/GeneralConvexStrategy.sol:GeneralConvexStrategy",
        "label": "routerArray",
        "offset": 0,
        "slot": "1",
        "type": "t_array(t_address)dyn_storage"
      },
      {
        "astId": 18043,
        "contract": "contracts/v3/strategies/GeneralConvexStrategy.sol:GeneralConvexStrategy",
        "label": "router",
        "offset": 0,
        "slot": "2",
        "type": "t_contract(ISwap)17380"
      },
      {
        "astId": 20787,
        "contract": "contracts/v3/strategies/GeneralConvexStrategy.sol:GeneralConvexStrategy",
        "label": "tokens",
        "offset": 0,
        "slot": "3",
        "type": "t_array(t_address)dyn_storage"
      },
      {
        "astId": 20789,
        "contract": "contracts/v3/strategies/GeneralConvexStrategy.sol:GeneralConvexStrategy",
        "label": "premiumToken",
        "offset": 0,
        "slot": "4",
        "type": "t_address"
      },
      {
        "astId": 20792,
        "contract": "contracts/v3/strategies/GeneralConvexStrategy.sol:GeneralConvexStrategy",
        "label": "decimalMultiples",
        "offset": 0,
        "slot": "5",
        "type": "t_array(t_uint8)dyn_storage"
      }
    ],
    "types": {
      "t_address": {
        "encoding": "inplace",
        "label": "address",
        "numberOfBytes": "20"
      },
      "t_array(t_address)dyn_storage": {
        "base": "t_address",
        "encoding": "dynamic_array",
        "label": "address[]",
        "numberOfBytes": "32"
      },
      "t_array(t_uint8)dyn_storage": {
        "base": "t_uint8",
        "encoding": "dynamic_array",
        "label": "uint8[]",
        "numberOfBytes": "32"
      },
      "t_contract(ISwap)17380": {
        "encoding": "inplace",
        "label": "contract ISwap",
        "numberOfBytes": "20"
      },
      "t_string_storage": {
        "encoding": "bytes",
        "label": "string",
        "numberOfBytes": "32"
      },
      "t_uint8": {
        "encoding": "inplace",
        "label": "uint8",
        "numberOfBytes": "1"
      }
    }
  }
}