{
  "address": "0x0dDf0849Fad3Ec59369bFA38041980DbE9bDa07a",
  "abi": [
    {
      "inputs": [
        {
          "internalType": "string",
          "name": "_name",
          "type": "string"
        },
        {
          "internalType": "address",
          "name": "_want",
          "type": "address"
        },
        {
          "internalType": "address",
          "name": "_crv",
          "type": "address"
        },
        {
          "internalType": "address",
          "name": "_cvx",
          "type": "address"
        },
        {
          "internalType": "address",
          "name": "_weth",
          "type": "address"
        },
        {
          "internalType": "address",
          "name": "_mim",
          "type": "address"
        },
        {
          "internalType": "address",
          "name": "_crv3",
          "type": "address"
        },
        {
          "internalType": "contract IStableSwap3Pool",
          "name": "_stableSwap3Pool",
          "type": "address"
        },
        {
          "internalType": "uint256",
          "name": "_pid",
          "type": "uint256"
        },
        {
          "internalType": "contract IConvexVault",
          "name": "_convexVault",
          "type": "address"
        },
        {
          "internalType": "contract IStableSwap2Pool",
          "name": "_stableSwap2Pool",
          "type": "address"
        },
        {
          "internalType": "address",
          "name": "_controller",
          "type": "address"
        },
        {
          "internalType": "address",
          "name": "_manager",
          "type": "address"
        },
        {
          "internalType": "address[]",
          "name": "_routerArray",
          "type": "address[]"
        }
      ],
      "stateMutability": "nonpayable",
      "type": "constructor"
    },
    {
      "inputs": [],
      "name": "ONE_HUNDRED_PERCENT",
      "outputs": [
        {
          "internalType": "uint256",
          "name": "",
          "type": "uint256"
        }
      ],
      "stateMutability": "view",
      "type": "function"
    },
    {
      "inputs": [
        {
          "internalType": "contract IERC20",
          "name": "_token",
          "type": "address"
        },
        {
          "internalType": "address",
          "name": "_spender",
          "type": "address"
        },
        {
          "internalType": "uint256",
          "name": "_amount",
          "type": "uint256"
        }
      ],
      "name": "approveForSpender",
      "outputs": [],
      "stateMutability": "nonpayable",
      "type": "function"
    },
    {
      "inputs": [],
      "name": "balanceOf",
      "outputs": [
        {
          "internalType": "uint256",
          "name": "",
          "type": "uint256"
        }
      ],
      "stateMutability": "view",
      "type": "function"
    },
    {
      "inputs": [],
      "name": "balanceOfPool",
      "outputs": [
        {
          "internalType": "uint256",
          "name": "",
          "type": "uint256"
        }
      ],
      "stateMutability": "view",
      "type": "function"
    },
    {
      "inputs": [],
      "name": "balanceOfWant",
      "outputs": [
        {
          "internalType": "uint256",
          "name": "",
          "type": "uint256"
        }
      ],
      "stateMutability": "view",
      "type": "function"
    },
    {
      "inputs": [],
      "name": "controller",
      "outputs": [
        {
          "internalType": "address",
          "name": "",
          "type": "address"
        }
      ],
      "stateMutability": "view",
      "type": "function"
    },
    {
      "inputs": [],
      "name": "convexVault",
      "outputs": [
        {
          "internalType": "contract IConvexVault",
          "name": "",
          "type": "address"
        }
      ],
      "stateMutability": "view",
      "type": "function"
    },
    {
      "inputs": [],
      "name": "crv",
      "outputs": [
        {
          "internalType": "address",
          "name": "",
          "type": "address"
        }
      ],
      "stateMutability": "view",
      "type": "function"
    },
    {
      "inputs": [],
      "name": "crv3",
      "outputs": [
        {
          "internalType": "address",
          "name": "",
          "type": "address"
        }
      ],
      "stateMutability": "view",
      "type": "function"
    },
    {
      "inputs": [],
      "name": "crvRewards",
      "outputs": [
        {
          "internalType": "contract IConvexRewards",
          "name": "",
          "type": "address"
        }
      ],
      "stateMutability": "view",
      "type": "function"
    },
    {
      "inputs": [],
      "name": "cvx",
      "outputs": [
        {
          "internalType": "address",
          "name": "",
          "type": "address"
        }
      ],
      "stateMutability": "view",
      "type": "function"
    },
    {
      "inputs": [],
      "name": "deposit",
      "outputs": [],
      "stateMutability": "nonpayable",
      "type": "function"
    },
    {
      "inputs": [],
      "name": "getEstimates",
      "outputs": [
        {
          "internalType": "uint256[]",
          "name": "",
          "type": "uint256[]"
        }
      ],
      "stateMutability": "view",
      "type": "function"
    },
    {
      "inputs": [],
      "name": "getMostPremium",
      "outputs": [
        {
          "internalType": "address",
          "name": "",
          "type": "address"
        },
        {
          "internalType": "uint256",
          "name": "",
          "type": "uint256"
        }
      ],
      "stateMutability": "view",
      "type": "function"
    },
    {
      "inputs": [
        {
          "internalType": "uint256[]",
          "name": "_estimates",
          "type": "uint256[]"
        }
      ],
      "name": "harvest",
      "outputs": [],
      "stateMutability": "nonpayable",
      "type": "function"
    },
    {
      "inputs": [],
      "name": "manager",
      "outputs": [
        {
          "internalType": "contract IManager",
          "name": "",
          "type": "address"
        }
      ],
      "stateMutability": "view",
      "type": "function"
    },
    {
      "inputs": [],
      "name": "mim",
      "outputs": [
        {
          "internalType": "address",
          "name": "",
          "type": "address"
        }
      ],
      "stateMutability": "view",
      "type": "function"
    },
    {
      "inputs": [],
      "name": "name",
      "outputs": [
        {
          "internalType": "string",
          "name": "",
          "type": "string"
        }
      ],
      "stateMutability": "view",
      "type": "function"
    },
    {
      "inputs": [],
      "name": "pid",
      "outputs": [
        {
          "internalType": "uint256",
          "name": "",
          "type": "uint256"
        }
      ],
      "stateMutability": "view",
      "type": "function"
    },
    {
      "inputs": [],
      "name": "router",
      "outputs": [
        {
          "internalType": "contract ISwap",
          "name": "",
          "type": "address"
        }
      ],
      "stateMutability": "view",
      "type": "function"
    },
    {
      "inputs": [
        {
          "internalType": "uint256",
          "name": "",
          "type": "uint256"
        }
      ],
      "name": "routerArray",
      "outputs": [
        {
          "internalType": "address",
          "name": "",
          "type": "address"
        }
      ],
      "stateMutability": "view",
      "type": "function"
    },
    {
      "inputs": [
        {
          "internalType": "uint256",
          "name": "_routerIndex",
          "type": "uint256"
        }
      ],
      "name": "setDefaultRouter",
      "outputs": [],
      "stateMutability": "nonpayable",
      "type": "function"
    },
    {
      "inputs": [
        {
          "internalType": "address[]",
          "name": "_routerArray",
          "type": "address[]"
        },
        {
          "internalType": "address[]",
          "name": "_tokenArray",
          "type": "address[]"
        }
      ],
      "name": "setRouter",
      "outputs": [],
      "stateMutability": "nonpayable",
      "type": "function"
    },
    {
      "inputs": [],
      "name": "skim",
      "outputs": [],
      "stateMutability": "nonpayable",
      "type": "function"
    },
    {
      "inputs": [],
      "name": "stableSwap2Pool",
      "outputs": [
        {
          "internalType": "contract IStableSwap2Pool",
          "name": "",
          "type": "address"
        }
      ],
      "stateMutability": "view",
      "type": "function"
    },
    {
      "inputs": [],
      "name": "stableSwap3Pool",
      "outputs": [
        {
          "internalType": "contract IStableSwap3Pool",
          "name": "",
          "type": "address"
        }
      ],
      "stateMutability": "view",
      "type": "function"
    },
    {
      "inputs": [],
      "name": "want",
      "outputs": [
        {
          "internalType": "address",
          "name": "",
          "type": "address"
        }
      ],
      "stateMutability": "view",
      "type": "function"
    },
    {
      "inputs": [],
      "name": "weth",
      "outputs": [
        {
          "internalType": "address",
          "name": "",
          "type": "address"
        }
      ],
      "stateMutability": "view",
      "type": "function"
    },
    {
      "inputs": [
        {
          "internalType": "uint256",
          "name": "_amount",
          "type": "uint256"
        }
      ],
      "name": "withdraw",
      "outputs": [],
      "stateMutability": "nonpayable",
      "type": "function"
    },
    {
      "inputs": [
        {
          "internalType": "address",
          "name": "_asset",
          "type": "address"
        }
      ],
      "name": "withdraw",
      "outputs": [],
      "stateMutability": "nonpayable",
      "type": "function"
    },
    {
      "inputs": [],
      "name": "withdrawAll",
      "outputs": [],
      "stateMutability": "nonpayable",
      "type": "function"
    }
  ],
  "transactionHash": "0x7f5c8c1765b7cd23c115eeb28fe89f8371fd19a6b3b1951940a0d1e38f2b0b61",
  "args": [
    "yAxis Convex Strategy: MIMCRV",
    "0x5a6A4D54456819380173272A5E8E9B9904BdF41B",
    "0xD533a949740bb3306d119CC777fa900bA034cd52",
    "0x4e3FBD56CD56c3e72c1403e103b45Db9da5B9D2B",
    "0xC02aaA39b223FE8D0A0e5C4F27eAD9083C756Cc2",
    "0x99D8a9C45b2ecA8864373A26D1459e3Dff1e17F3",
    "0x6c3F90f043a72FA612cbac8115EE7e52BDe6E490",
    "0xbEbc44782C7dB0a1A60Cb6fe97d0b483032FF1C7",
    40,
    "0xF403C135812408BFbE8713b5A23a04b3D48AAE31",
    "0x5a6A4D54456819380173272A5E8E9B9904BdF41B",
    "0x834ebCE3b3Fb5B9647d9398a1f6F44A2E831aC60",
    "0xAB72cC293B63f6477BAf9d514Da735Cf6caADC2d",
    [
      "0xd9e1cE17f2641f24aE83637ab66a2cca9C378B9F",
      "0x7a250d5630B4cF539739dF2C5dAcb4c659F2488D"
    ]
  ],
  "solcInputHash": "ab117fdc5454952510ef9fc2c490228e",
  "bytecode": "0x6102206040523480156200001257600080fd5b50604051620058383803806200583883398181016040526101c08110156200003957600080fd5b81019080805160405193929190846401000000008211156200005a57600080fd5b9083019060208201858111156200007057600080fd5b82516401000000008111828201881017156200008b57600080fd5b82525081516020918201929091019080838360005b83811015620000ba578181015183820152602001620000a0565b50505050905090810190601f168015620000e85780820380516001836020036101000a031916815260200191505b5060408181526020830151908301516060840151608085015160a086015160c087015160e08801516101008901516101208a01516101408b01516101608c01516101808d01516101a0909d0180519b9f9a9e999d989c979b969a95999498939792969195939492939291846401000000008211156200016657600080fd5b9083019060208201858111156200017c57600080fd5b82518660208202830111640100000000821117156200019a57600080fd5b82525081516020918201928201910280838360005b83811015620001c9578181015183820152602001620001af565b505050509050016040525050508d83838f8d858560009080519060200190620001f492919062000e9b565b506001600160601b0319606084811b821660805286811b821660c05285811b821660e05283901b1660a052805162000273576040805162461bcd60e51b815260206004820152601e60248201527f4d75737420696e707574206174206c65617374206f6e6520726f757465720000604482015290519081900360640190fd5b80516200028890600190602084019062000f20565b50806000815181106200029757fe5b6020026020010151600260006101000a8154816001600160a01b0302191690836001600160a01b0316021790555060005b815181101562000350576200030c828281518110620002e357fe5b60200260200101516000856001600160a01b03166200066160201b62002d59179092919060201c565b620003478282815181106200031d57fe5b6020026020010151600019856001600160a01b03166200066160201b62002d59179092919060201c565b600101620002c8565b50505050506001600160a01b038e16151591506200039f9050576040805162461bcd60e51b815260206004820152600560248201526410afb1b93b60d91b604482015290519081900360640190fd5b6001600160a01b038b16620003e3576040805162461bcd60e51b8152602060048201526005602482015264042bec6ecf60db1b604482015290519081900360640190fd5b6001600160a01b03891662000427576040805162461bcd60e51b8152602060048201526005602482015264215f6d696d60d81b604482015290519081900360640190fd5b6001600160a01b0388166200046c576040805162461bcd60e51b8152602060048201526006602482015265215f6372763360d01b604482015290519081900360640190fd5b6001600160a01b038516620004b8576040805162461bcd60e51b815260206004820152600d60248201526c0857d8dbdb9d995e15985d5b1d609a1b604482015290519081900360640190fd5b6001600160a01b03841662000508576040805162461bcd60e51b81526020600482015260116024820152700857dcdd18589b1954ddd85c0c941bdbdb607a1b604482015290519081900360640190fd5b6001600160a01b03871662000558576040805162461bcd60e51b81526020600482015260116024820152700857dcdd18589b1954ddd85c0cd41bdbdb607a1b604482015290519081900360640190fd5b6000856001600160a01b0316631526fe27886040518263ffffffff1660e01b81526004018082815260200191505060c06040518083038186803b1580156200059f57600080fd5b505afa158015620005b4573d6000803e3d6000fd5b505050506040513d60c0811015620005cb57600080fd5b506060908101516001600160601b03198f831b8116610100528e831b8116610120528c831b8116610140528b831b8116610160526101808a905288831b81166101a05281831b81166101c05287831b81166101e052918a901b9091166102005290506200063f8e8e8e8d8d8b8b8962000785565b6200064c888284620008f6565b50505050505050505050505050505062000fbe565b801580620006eb575060408051636eb1769f60e11b81523060048201526001600160a01b03848116602483015291519185169163dd62ed3e91604480820192602092909190829003018186803b158015620006bb57600080fd5b505afa158015620006d0573d6000803e3d6000fd5b505050506040513d6020811015620006e757600080fd5b5051155b620007285760405162461bcd60e51b8152600401808060200182810382526036815260200180620058026036913960400191505060405180910390fd5b604080516001600160a01b038416602482015260448082018490528251808303909101815260649091019091526020810180516001600160e01b0390811663095ea7b360e01b179091526200078091859162000bac16565b505050565b620007ac836000198a6001600160a01b03166200066160201b62002d59179092919060201c565b60005b815181101562000876576000828281518110620007c857fe5b60200260200101519050620007f88160008b6001600160a01b03166200066160201b62002d59179092919060201c565b6200081f816000198b6001600160a01b03166200066160201b62002d59179092919060201c565b620008458160008a6001600160a01b03166200066160201b62002d59179092919060201c565b6200086c816000198a6001600160a01b03166200066160201b62002d59179092919060201c565b50600101620007af565b506200089e82600019876001600160a01b03166200066160201b62002d59179092919060201c565b620008c582600019866001600160a01b03166200066160201b62002d59179092919060201c565b620008ec826000198a6001600160a01b03166200066160201b62002d59179092919060201c565b5050505050505050565b6200098f83600019856001600160a01b031663c661065760006040518263ffffffff1660e01b81526004018082815260200191505060206040518083038186803b1580156200094457600080fd5b505afa15801562000959573d6000803e3d6000fd5b505050506040513d60208110156200097057600080fd5b50516001600160a01b0316919062000661602090811b62002d5917901c565b620009dd83600019856001600160a01b031663c661065760016040518263ffffffff1660e01b81526004018082815260200191505060206040518083038186803b1580156200094457600080fd5b62000a2b83600019856001600160a01b031663c661065760026040518263ffffffff1660e01b81526004018082815260200191505060206040518083038186803b1580156200094457600080fd5b805160005b8181101562000ba557600083828151811062000a4857fe5b602002602001015190506000856001600160a01b031663d55a23f46040518163ffffffff1660e01b815260040160206040518083038186803b15801562000a8e57600080fd5b505afa15801562000aa3573d6000803e3d6000fd5b505050506040513d602081101562000aba57600080fd5b50519050801562000b9a5760005b8181101562000b985762000b8f83600019896001600160a01b03166340c35446856040518263ffffffff1660e01b81526004018082815260200191505060206040518083038186803b15801562000b1e57600080fd5b505afa15801562000b33573d6000803e3d6000fd5b505050506040513d602081101562000b4a57600080fd5b50516040805163f7c618c160e01b815290516001600160a01b039092169163f7c618c191600480820192602092909190829003018186803b1580156200094457600080fd5b60010162000ac8565b505b505060010162000a30565b5050505050565b606062000c08826040518060400160405280602081526020017f5361666545524332303a206c6f772d6c6576656c2063616c6c206661696c6564815250856001600160a01b031662000c6860201b62002e6c179092919060201c565b805190915015620007805780806020019051602081101562000c2957600080fd5b5051620007805760405162461bcd60e51b815260040180806020018281038252602a815260200180620057d8602a913960400191505060405180910390fd5b606062000c79848460008562000c83565b90505b9392505050565b60608247101562000cc65760405162461bcd60e51b8152600401808060200182810382526026815260200180620057b26026913960400191505060405180910390fd5b62000cd18562000deb565b62000d23576040805162461bcd60e51b815260206004820152601d60248201527f416464726573733a2063616c6c20746f206e6f6e2d636f6e7472616374000000604482015290519081900360640190fd5b60006060866001600160a01b031685876040518082805190602001908083835b6020831062000d645780518252601f19909201916020918201910162000d43565b6001836020036101000a03801982511681845116808217855250505050505090500191505060006040518083038185875af1925050503d806000811462000dc8576040519150601f19603f3d011682016040523d82523d6000602084013e62000dcd565b606091505b50909250905062000de082828662000df1565b979650505050505050565b3b151590565b6060831562000e0257508162000c7c565b82511562000e135782518084602001fd5b8160405162461bcd60e51b81526004018080602001828103825283818151815260200191508051906020019080838360005b8381101562000e5f57818101518382015260200162000e45565b50505050905090810190601f16801562000e8d5780820380516001836020036101000a031916815260200191505b509250505060405180910390fd5b828054600181600116156101000203166002900490600052602060002090601f016020900481019282601f1062000ede57805160ff191683800117855562000f0e565b8280016001018555821562000f0e579182015b8281111562000f0e57825182559160200191906001019062000ef1565b5062000f1c92915062000f86565b5090565b82805482825590600052602060002090810192821562000f78579160200282015b8281111562000f7857825182546001600160a01b0319166001600160a01b0390911617825560209092019160019091019062000f41565b5062000f1c92915062000f9d565b5b8082111562000f1c576000815560010162000f87565b5b8082111562000f1c5780546001600160a01b031916815560010162000f9e565b60805160601c60a05160601c60c05160601c60e05160601c6101005160601c6101205160601c6101405160601c6101605160601c610180516101a05160601c6101c05160601c6101e05160601c6102005160601c6145d3620011df60003980611a66528061210a52806121c452806122da528061232f52806123ab5280612460528061251552806125b552806127e1528061407e525080612d3752806141bc52508061063352806106d55280610bf05280610e225280610fb952806112f85280612adc528061327b528061330f52806135dc5280613a375280613ad05250806128a15280613694525080612ce0528061365d5250806128e95280614135525080612ab85250806108d552806109985280610a415280610ace5280610b485280612a945280613179528061321d52508061124052806128c552806134d25250806107d5528061154b52806116415280611c955280611fb352806120e15280612be85280613da2525080611bb05280611c155280611ec45280611f88528061265d52806127b5528061280e52806129365280612a6a5280612b785280612d045250806109235280610f4d528061128e52806114fd528061184f5280611dd95280611e1d52806120bd528061323e5280613491528061353e5280613cdb5280613d215280613e6e5280613f44525080611c465280611c715280611f6652806126c952806129a25280612a485280612b02528061301c52806130c252506145d36000f3fe608060405234801561001057600080fd5b50600436106101e55760003560e01c8063689538e71161010f578063c1a3d44c116100a2578063f106845411610071578063f106845414610581578063f77c479114610589578063f887ea4014610591578063f975bcce14610599576101e5565b8063c1a3d44c14610533578063d0e30db01461053b578063dd0081c714610543578063ef9e23791461054b576101e5565b8063853828b6116100de578063853828b614610513578063923c1d611461051b5780639f67679e14610523578063b6bff2951461052b576101e5565b8063689538e7146104f35780636a4874a1146104fb5780636dca5abe14610503578063722713f71461050b576101e5565b8063337da0fc1161018757806351cff8d91161015657806351cff8d91461043a5780635a3874ac146104605780635d14b06f146104685780635f349a11146104d6576101e5565b8063337da0fc146103e25780633fc8cef3146103ff578063481c6a751461040757806348677dbe1461040f576101e5565b80631dd19cb4116101c35780631dd19cb4146102d95780631f1fcd51146102e35780632d16c4e3146103075780632e1a7d4d146103c5576101e5565b806306fdde03146101ea5780631158808614610267578063185881ec14610281575b600080fd5b6101f26105a1565b6040805160208082528351818301528351919283929083019185019080838360005b8381101561022c578181015183820152602001610214565b50505050905090810190601f1680156102595780820380516001836020036101000a031916815260200191505b509250505060405180910390f35b61026f61062f565b60408051918252519081900360200190f35b6102896106cf565b60408051602080825283518183015283519192839290830191858101910280838360005b838110156102c55781810151838201526020016102ad565b505050509050019250505060405180910390f35b6102e1611ba5565b005b6102eb611c6f565b604080516001600160a01b039092168252519081900360200190f35b6102e16004803603604081101561031d57600080fd5b810190602081018135600160201b81111561033757600080fd5b82018360208201111561034957600080fd5b803590602001918460208302840111600160201b8311171561036a57600080fd5b919390929091602081019035600160201b81111561038757600080fd5b82018360208201111561039957600080fd5b803590602001918460208302840111600160201b831117156103ba57600080fd5b509092509050611c93565b6102e1600480360360208110156103db57600080fd5b5035611eb9565b6102e1600480360360208110156103f857600080fd5b5035611fb1565b6102eb6120bb565b6102eb6120df565b610417612103565b604080516001600160a01b03909316835260208301919091528051918290030190f35b6102e16004803603602081101561045057600080fd5b50356001600160a01b0316612652565b6102eb6127df565b6102e16004803603602081101561047e57600080fd5b810190602081018135600160201b81111561049857600080fd5b8201836020820111156104aa57600080fd5b803590602001918460208302840111600160201b831117156104cb57600080fd5b509092509050612803565b6102eb600480360360208110156104ec57600080fd5b5035612878565b6102eb61289f565b6102eb6128c3565b6102eb6128e7565b61026f61290b565b6102e161292b565b6102eb612a92565b6102eb612ab6565b6102eb612ada565b61026f612afe565b6102e1612b6d565b61026f612be0565b6102e16004803603606081101561056157600080fd5b506001600160a01b03813581169160208101359091169060400135612be6565b61026f612cde565b6102eb612d02565b6102eb612d26565b6102eb612d35565b6000805460408051602060026001851615610100026000190190941693909304601f810184900484028201840190925281815292918301828280156106275780601f106105fc57610100808354040283529160200191610627565b820191906000526020600020905b81548152906001019060200180831161060a57829003601f168201915b505050505081565b60007f00000000000000000000000000000000000000000000000000000000000000006001600160a01b03166370a08231306040518263ffffffff1660e01b815260040180826001600160a01b0316815260200191505060206040518083038186803b15801561069e57600080fd5b505afa1580156106b2573d6000803e3d6000fd5b505050506040513d60208110156106c857600080fd5b5051905090565b606060007f00000000000000000000000000000000000000000000000000000000000000006001600160a01b031663d55a23f46040518163ffffffff1660e01b815260040160206040518083038186803b15801561072c57600080fd5b505afa158015610740573d6000803e3d6000fd5b505050506040513d602081101561075657600080fd5b505190506060610767826005612e85565b67ffffffffffffffff8111801561077d57600080fd5b506040519080825280602002602001820160405280156107a7578160200160208202803683370190505b50604080516002808252606080830184529394509091602083019080368337019050509050606060006108cf7f00000000000000000000000000000000000000000000000000000000000000006001600160a01b0316634bdaeac16040518163ffffffff1660e01b815260040160206040518083038186803b15801561082c57600080fd5b505afa158015610840573d6000803e3d6000fd5b505050506040513d602081101561085657600080fd5b505160408051633e032a3b60e01b815290516001600160a01b0390921691633e032a3b91600480820192602092909190829003018186803b15801561089a57600080fd5b505afa1580156108ae573d6000803e3d6000fd5b505050506040513d60208110156108c457600080fd5b505161271090612ee8565b905060007f00000000000000000000000000000000000000000000000000000000000000008460008151811061090157fe5b60200260200101906001600160a01b031690816001600160a01b0316815250507f00000000000000000000000000000000000000000000000000000000000000008460018151811061094f57fe5b60200260200101906001600160a01b031690816001600160a01b031681525050600260009054906101000a90046001600160a01b03166001600160a01b031663d06ca61f610c6d7f00000000000000000000000000000000000000000000000000000000000000006001600160a01b0316631f96e76f6040518163ffffffff1660e01b815260040160206040518083038186803b1580156109ef57600080fd5b505afa158015610a03573d6000803e3d6000fd5b505050506040513d6020811015610a1957600080fd5b50516040805163553a731160e11b81529051610c6791610bd191610b46916001600160a01b037f0000000000000000000000000000000000000000000000000000000000000000169163aa74e62291600480820192602092909190829003018186803b158015610a8857600080fd5b505afa158015610a9c573d6000803e3d6000fd5b505050506040513d6020811015610ab257600080fd5b5051604080516318160ddd60e01b815290516001600160a01b037f000000000000000000000000000000000000000000000000000000000000000016916318160ddd916004808301926020929190829003018186803b158015610b1457600080fd5b505afa158015610b28573d6000803e3d6000fd5b505050506040513d6020811015610b3e57600080fd5b505190612f2a565b7f00000000000000000000000000000000000000000000000000000000000000006001600160a01b0316631f96e76f6040518163ffffffff1660e01b815260040160206040518083038186803b158015610b9f57600080fd5b505afa158015610bb3573d6000803e3d6000fd5b505050506040513d6020811015610bc957600080fd5b505190612ee8565b604080516246613160e11b815230600482015290516001600160a01b037f00000000000000000000000000000000000000000000000000000000000000001691628cc262916024808301926020929190829003018186803b158015610c3557600080fd5b505afa158015610c49573d6000803e3d6000fd5b505050506040513d6020811015610c5f57600080fd5b505190612f6c565b90612f2a565b866040518363ffffffff1660e01b81526004018083815260200180602001828103825283818151815260200191508051906020019060200280838360005b83811015610cc3578181015183820152602001610cab565b50505050905001935050505060006040518083038186803b158015610ce757600080fd5b505afa158015610cfb573d6000803e3d6000fd5b505050506040513d6000823e601f3d908101601f191682016040526020811015610d2457600080fd5b8101908080516040519392919084600160201b821115610d4357600080fd5b908301906020820185811115610d5857600080fd5b82518660208202830111600160201b82111715610d7457600080fd5b82525081516020918201928201910280838360005b83811015610da1578181015183820152602001610d89565b505050509050016040525050509250610ddd612710610c678486600181518110610dc757fe5b6020026020010151612f6c90919063ffffffff16565b85600081518110610dea57fe5b60200260200101818152505084600081518110610e0357fe5b602090810291909101015101851561123e5760005b8681101561123c577f00000000000000000000000000000000000000000000000000000000000000006001600160a01b03166340c35446826040518263ffffffff1660e01b81526004018082815260200191505060206040518083038186803b158015610e8457600080fd5b505afa158015610e98573d6000803e3d6000fd5b505050506040513d6020811015610eae57600080fd5b50516040805163f7c618c160e01b815290516001600160a01b039092169163f7c618c191600480820192602092909190829003018186803b158015610ef257600080fd5b505afa158015610f06573d6000803e3d6000fd5b505050506040513d6020811015610f1c57600080fd5b505185518690600090610f2b57fe5b60200260200101906001600160a01b031690816001600160a01b0316815250507f000000000000000000000000000000000000000000000000000000000000000085600181518110610f7957fe5b6001600160a01b0392831660209182029290920181019190915260025460408051632061aa2360e11b81526004810186905290519184169363d06ca61f937f0000000000000000000000000000000000000000000000000000000000000000909116926340c35446926024808201939291829003018186803b158015610ffe57600080fd5b505afa158015611012573d6000803e3d6000fd5b505050506040513d602081101561102857600080fd5b5051604080516246613160e11b815230600482015290516001600160a01b0390921691628cc26291602480820192602092909190829003018186803b15801561107057600080fd5b505afa158015611084573d6000803e3d6000fd5b505050506040513d602081101561109a57600080fd5b5051604080516001600160e01b031960e085901b16815260048101838152602482019283528a5160448301528a518b939192606401906020858101910280838360005b838110156110f55781810151838201526020016110dd565b50505050905001935050505060006040518083038186803b15801561111957600080fd5b505afa15801561112d573d6000803e3d6000fd5b505050506040513d6000823e601f3d908101601f19168201604052602081101561115657600080fd5b8101908080516040519392919084600160201b82111561117557600080fd5b90830190602082018581111561118a57600080fd5b82518660208202830111600160201b821117156111a657600080fd5b82525081516020918201928201910280838360005b838110156111d35781810151838201526020016111bb565b5050505090500160405250505093506111f9612710610c678587600181518110610dc757fe5b86826001018151811061120857fe5b60200260200101818152505085816001018151811061122357fe5b6020026020010151820191508080600101915050610e18565b505b7f00000000000000000000000000000000000000000000000000000000000000008460008151811061126c57fe5b60200260200101906001600160a01b031690816001600160a01b0316815250507f0000000000000000000000000000000000000000000000000000000000000000846001815181106112ba57fe5b6001600160a01b03928316602091820292909201810191909152600254604080516246613160e11b815230600482015290519184169363d06ca61f937f000000000000000000000000000000000000000000000000000000000000000090911692628cc262926024808201939291829003018186803b15801561133c57600080fd5b505afa158015611350573d6000803e3d6000fd5b505050506040513d602081101561136657600080fd5b5051604080516001600160e01b031960e085901b16815260048101838152602482019283528951604483015289518a939192606401906020858101910280838360005b838110156113c15781810151838201526020016113a9565b50505050905001935050505060006040518083038186803b1580156113e557600080fd5b505afa1580156113f9573d6000803e3d6000fd5b505050506040513d6000823e601f3d908101601f19168201604052602081101561142257600080fd5b8101908080516040519392919084600160201b82111561144157600080fd5b90830190602082018581111561145657600080fd5b82518660208202830111600160201b8211171561147257600080fd5b82525081516020918201928201910280838360005b8381101561149f578181015183820152602001611487565b5050505090500160405250505092506114c5612710610c678486600181518110610dc757fe5b8587600101815181106114d457fe5b6020026020010181815250508486600101815181106114ef57fe5b6020026020010151810190507f00000000000000000000000000000000000000000000000000000000000000008460008151811061152957fe5b60200260200101906001600160a01b031690816001600160a01b0316815250507f00000000000000000000000000000000000000000000000000000000000000006001600160a01b0316633f021b0e6040518163ffffffff1660e01b815260040160206040518083038186803b1580156115a257600080fd5b505afa1580156115b6573d6000803e3d6000fd5b505050506040513d60208110156115cc57600080fd5b50518451859060019081106115dd57fe5b60200260200101906001600160a01b031690816001600160a01b0316815250506001808154811061160a57fe5b9060005260206000200160009054906101000a90046001600160a01b03166001600160a01b031663d06ca61f6116cb612710610c677f00000000000000000000000000000000000000000000000000000000000000006001600160a01b031663cc32d1766040518163ffffffff1660e01b815260040160206040518083038186803b15801561169857600080fd5b505afa1580156116ac573d6000803e3d6000fd5b505050506040513d60208110156116c257600080fd5b50518690612f6c565b866040518363ffffffff1660e01b81526004018083815260200180602001828103825283818151815260200191508051906020019060200280838360005b83811015611721578181015183820152602001611709565b50505050905001935050505060006040518083038186803b15801561174557600080fd5b505afa158015611759573d6000803e3d6000fd5b505050506040513d6000823e601f3d908101601f19168201604052602081101561178257600080fd5b8101908080516040519392919084600160201b8211156117a157600080fd5b9083019060208201858111156117b657600080fd5b82518660208202830111600160201b821117156117d257600080fd5b82525081516020918201928201910280838360005b838110156117ff5781810151838201526020016117e7565b505050509050016040525050509250611825612710610c678486600181518110610dc757fe5b85876002018151811061183457fe5b602002602001018181525050600061184a612103565b5090507f00000000000000000000000000000000000000000000000000000000000000008560008151811061187b57fe5b60200260200101906001600160a01b031690816001600160a01b03168152505080856001815181106118a957fe5b6001600160a01b039283166020918202929092010152600254855191169063d06ca61f9086906000906118d857fe5b60200260200101518403876040518363ffffffff1660e01b81526004018083815260200180602001828103825283818151815260200191508051906020019060200280838360005b83811015611938578181015183820152602001611920565b50505050905001935050505060006040518083038186803b15801561195c57600080fd5b505afa158015611970573d6000803e3d6000fd5b505050506040513d6000823e601f3d908101601f19168201604052602081101561199957600080fd5b8101908080516040519392919084600160201b8211156119b857600080fd5b9083019060208201858111156119cd57600080fd5b82518660208202830111600160201b821117156119e957600080fd5b82525081516020918201928201910280838360005b83811015611a165781810151838201526020016119fe565b505050509050016040525050509350611a3c612710610c678587600181518110610dc757fe5b868860030181518110611a4b57fe5b602002602001018181525050611b7f612710610c6785611b797f00000000000000000000000000000000000000000000000000000000000000006001600160a01b031663bb7b8b806040518163ffffffff1660e01b815260040160206040518083038186803b158015611abd57600080fd5b505afa158015611ad1573d6000803e3d6000fd5b505050506040513d6020811015611ae757600080fd5b50516040805163313ce56760e01b81529051610c67916001600160a01b038a169163313ce56791600480820192602092909190829003018186803b158015611b2e57600080fd5b505afa158015611b42573d6000803e3d6000fd5b505050506040513d6020811015611b5857600080fd5b50518b5160129190910360ff908116600a0a16908c906001908110610dc757fe5b90612f6c565b868860040181518110611b8e57fe5b602090810291909101015250939550505050505090565b336001600160a01b037f00000000000000000000000000000000000000000000000000000000000000001614611c10576040805162461bcd60e51b815260206004820152600b60248201526a10b1b7b73a3937b63632b960a91b604482015290519081900360640190fd5b611c6d7f0000000000000000000000000000000000000000000000000000000000000000611c3c612afe565b6001600160a01b037f0000000000000000000000000000000000000000000000000000000000000000169190612fc5565b565b7f000000000000000000000000000000000000000000000000000000000000000081565b7f00000000000000000000000000000000000000000000000000000000000000006001600160a01b0316635aa6e6756040518163ffffffff1660e01b815260040160206040518083038186803b158015611cec57600080fd5b505afa158015611d00573d6000803e3d6000fd5b505050506040513d6020811015611d1657600080fd5b50516001600160a01b03163314611d62576040805162461bcd60e51b815260206004820152600b60248201526a21676f7665726e616e636560a81b604482015290519081900360640190fd5b611d6e60018585614438565b5083836000818110611d7c57fe5b6002805460209290920293909301356001600160a01b03166001600160a01b0319909116179091555060008382825b82811015611eaf57878782818110611dbf57fe5b905060200201356001600160a01b03169350611e108460007f00000000000000000000000000000000000000000000000000000000000000006001600160a01b0316612d599092919063ffffffff16565b611e466001600160a01b037f00000000000000000000000000000000000000000000000000000000000000001685600019612d59565b60005b82811015611ea657611e8b856000898985818110611e6357fe5b905060200201356001600160a01b03166001600160a01b0316612d599092919063ffffffff16565b611e9e85600019898985818110611e6357fe5b600101611e49565b50600101611dab565b5050505050505050565b336001600160a01b037f00000000000000000000000000000000000000000000000000000000000000001614611f24576040805162461bcd60e51b815260206004820152600b60248201526a10b1b7b73a3937b63632b960a91b604482015290519081900360640190fd5b6000611f2e612afe565b905081811015611f5957611f4a611f458383612ee8565b613017565b9150611f568282612e85565b91505b611fad6001600160a01b037f0000000000000000000000000000000000000000000000000000000000000000167f000000000000000000000000000000000000000000000000000000000000000084612fc5565b5050565b7f00000000000000000000000000000000000000000000000000000000000000006001600160a01b0316635aa6e6756040518163ffffffff1660e01b815260040160206040518083038186803b15801561200a57600080fd5b505afa15801561201e573d6000803e3d6000fd5b505050506040513d602081101561203457600080fd5b50516001600160a01b03163314612080576040805162461bcd60e51b815260206004820152600b60248201526a21676f7665726e616e636560a81b604482015290519081900360640190fd5b6001818154811061208d57fe5b600091825260209091200154600280546001600160a01b0319166001600160a01b0390921691909117905550565b7f000000000000000000000000000000000000000000000000000000000000000081565b7f000000000000000000000000000000000000000000000000000000000000000081565b60008060007f00000000000000000000000000000000000000000000000000000000000000006001600160a01b0316634903b0d160006040518263ffffffff1660e01b81526004018082815260200191505060206040518083038186803b15801561216d57600080fd5b505afa158015612181573d6000803e3d6000fd5b505050506040513d602081101561219757600080fd5b50516040805163c661065760e01b8152600160048201529051919250600091612320916001600160a01b037f0000000000000000000000000000000000000000000000000000000000000000169163c661065791602480820192602092909190829003018186803b15801561220b57600080fd5b505afa15801561221f573d6000803e3d6000fd5b505050506040513d602081101561223557600080fd5b50516040805163313ce56760e01b815290516001600160a01b039092169163313ce56791600480820192602092909190829003018186803b15801561227957600080fd5b505afa15801561228d573d6000803e3d6000fd5b505050506040513d60208110156122a357600080fd5b505160408051634903b0d160e01b815260016004820152905160ff90921691610c6791670de0b6b3a7640000916001600160a01b037f00000000000000000000000000000000000000000000000000000000000000001691634903b0d1916024808301926020929190829003018186803b158015610c3557600080fd5b9050600061239264e8d4a510007f00000000000000000000000000000000000000000000000000000000000000006001600160a01b0316634903b0d160026040518263ffffffff1660e01b81526004018082815260200191505060206040518083038186803b158015610c3557600080fd5b90508183111580156123a45750808311155b15612449577f00000000000000000000000000000000000000000000000000000000000000006001600160a01b031663c661065760006040518263ffffffff1660e01b81526004018082815260200191505060206040518083038186803b15801561240e57600080fd5b505afa158015612422573d6000803e3d6000fd5b505050506040513d602081101561243857600080fd5b505194506000935061264e92505050565b8282111580156124595750808211155b156124fe577f00000000000000000000000000000000000000000000000000000000000000006001600160a01b031663c661065760016040518263ffffffff1660e01b81526004018082815260200191505060206040518083038186803b1580156124c357600080fd5b505afa1580156124d7573d6000803e3d6000fd5b505050506040513d60208110156124ed57600080fd5b505194506001935061264e92505050565b82811115801561250e5750818111155b156125b3577f00000000000000000000000000000000000000000000000000000000000000006001600160a01b031663c661065760026040518263ffffffff1660e01b81526004018082815260200191505060206040518083038186803b15801561257857600080fd5b505afa15801561258c573d6000803e3d6000fd5b505050506040513d60208110156125a257600080fd5b505194506002935061264e92505050565b7f00000000000000000000000000000000000000000000000000000000000000006001600160a01b031663c661065760006040518263ffffffff1660e01b81526004018082815260200191505060206040518083038186803b15801561261857600080fd5b505afa15801561262c573d6000803e3d6000fd5b505050506040513d602081101561264257600080fd5b50519450600093505050505b9091565b336001600160a01b037f000000000000000000000000000000000000000000000000000000000000000016146126bd576040805162461bcd60e51b815260206004820152600b60248201526a10b1b7b73a3937b63632b960a91b604482015290519081900360640190fd5b806001600160a01b03167f00000000000000000000000000000000000000000000000000000000000000006001600160a01b0316141561272d576040805162461bcd60e51b815260206004808301919091526024820152631dd85b9d60e21b604482015290519081900360640190fd5b604080516370a0823160e01b8152306004820152905182916000916001600160a01b038416916370a08231916024808301926020929190829003018186803b15801561277857600080fd5b505afa15801561278c573d6000803e3d6000fd5b505050506040513d60208110156127a257600080fd5b505190506127da6001600160a01b0383167f000000000000000000000000000000000000000000000000000000000000000083612fc5565b505050565b7f000000000000000000000000000000000000000000000000000000000000000081565b336001600160a01b037f0000000000000000000000000000000000000000000000000000000000000000161461286e576040805162461bcd60e51b815260206004820152600b60248201526a10b1b7b73a3937b63632b960a91b604482015290519081900360640190fd5b611fad828261316d565b6001818154811061288557fe5b6000918252602090912001546001600160a01b0316905081565b7f000000000000000000000000000000000000000000000000000000000000000081565b7f000000000000000000000000000000000000000000000000000000000000000081565b7f000000000000000000000000000000000000000000000000000000000000000081565b600061292661291861062f565b612920612afe565b90612e85565b905090565b336001600160a01b037f00000000000000000000000000000000000000000000000000000000000000001614612996576040805162461bcd60e51b815260206004820152600b60248201526a10b1b7b73a3937b63632b960a91b604482015290519081900360640190fd5b61299e6135bb565b60007f00000000000000000000000000000000000000000000000000000000000000006001600160a01b03166370a08231306040518263ffffffff1660e01b815260040180826001600160a01b0316815260200191505060206040518083038186803b158015612a0d57600080fd5b505afa158015612a21573d6000803e3d6000fd5b505050506040513d6020811015612a3757600080fd5b50519050612a8f6001600160a01b037f0000000000000000000000000000000000000000000000000000000000000000167f000000000000000000000000000000000000000000000000000000000000000083612fc5565b50565b7f000000000000000000000000000000000000000000000000000000000000000081565b7f000000000000000000000000000000000000000000000000000000000000000081565b7f000000000000000000000000000000000000000000000000000000000000000081565b60007f00000000000000000000000000000000000000000000000000000000000000006001600160a01b03166370a08231306040518263ffffffff1660e01b815260040180826001600160a01b0316815260200191505060206040518083038186803b15801561069e57600080fd5b336001600160a01b037f00000000000000000000000000000000000000000000000000000000000000001614612bd8576040805162461bcd60e51b815260206004820152600b60248201526a10b1b7b73a3937b63632b960a91b604482015290519081900360640190fd5b611c6d61363d565b61271081565b7f00000000000000000000000000000000000000000000000000000000000000006001600160a01b0316635aa6e6756040518163ffffffff1660e01b815260040160206040518083038186803b158015612c3f57600080fd5b505afa158015612c53573d6000803e3d6000fd5b505050506040513d6020811015612c6957600080fd5b50516001600160a01b03163314612cb5576040805162461bcd60e51b815260206004820152600b60248201526a21676f7665726e616e636560a81b604482015290519081900360640190fd5b612cca6001600160a01b038416836000612d59565b6127da6001600160a01b0384168383612d59565b7f000000000000000000000000000000000000000000000000000000000000000081565b7f000000000000000000000000000000000000000000000000000000000000000081565b6002546001600160a01b031681565b7f000000000000000000000000000000000000000000000000000000000000000081565b801580612ddf575060408051636eb1769f60e11b81523060048201526001600160a01b03848116602483015291519185169163dd62ed3e91604480820192602092909190829003018186803b158015612db157600080fd5b505afa158015612dc5573d6000803e3d6000fd5b505050506040513d6020811015612ddb57600080fd5b5051155b612e1a5760405162461bcd60e51b81526004018080602001828103825260368152602001806145686036913960400191505060405180910390fd5b604080516001600160a01b038416602482015260448082018490528251808303909101815260649091019091526020810180516001600160e01b031663095ea7b360e01b1790526127da908490613706565b6060612e7b84846000856137b7565b90505b9392505050565b600082820183811015612edf576040805162461bcd60e51b815260206004820152601b60248201527f536166654d6174683a206164646974696f6e206f766572666c6f770000000000604482015290519081900360640190fd5b90505b92915050565b6000612edf83836040518060400160405280601e81526020017f536166654d6174683a207375627472616374696f6e206f766572666c6f770000815250613913565b6000612edf83836040518060400160405280601a81526020017f536166654d6174683a206469766973696f6e206279207a65726f0000000000008152506139aa565b600082612f7b57506000612ee2565b82820282848281612f8857fe5b0414612edf5760405162461bcd60e51b815260040180806020018281038252602181526020018061451d6021913960400191505060405180910390fd5b604080516001600160a01b038416602482015260448082018490528251808303909101815260649091019091526020810180516001600160e01b031663a9059cbb60e01b1790526127da908490613706565b6000807f00000000000000000000000000000000000000000000000000000000000000006001600160a01b03166370a08231306040518263ffffffff1660e01b815260040180826001600160a01b0316815260200191505060206040518083038186803b15801561308757600080fd5b505afa15801561309b573d6000803e3d6000fd5b505050506040513d60208110156130b157600080fd5b505190506130be83613a0f565b60007f00000000000000000000000000000000000000000000000000000000000000006001600160a01b03166370a08231306040518263ffffffff1660e01b815260040180826001600160a01b0316815260200191505060206040518083038186803b15801561312d57600080fd5b505afa158015613141573d6000803e3d6000fd5b505050506040513d602081101561315757600080fd5b505190506131658183612ee8565b949350505050565b613175613aa9565b60007f00000000000000000000000000000000000000000000000000000000000000006001600160a01b03166370a08231306040518263ffffffff1660e01b815260040180826001600160a01b0316815260200191505060206040518083038186803b1580156131e457600080fd5b505afa1580156131f8573d6000803e3d6000fd5b505050506040513d602081101561320e57600080fd5b505190508015613277576132777f00000000000000000000000000000000000000000000000000000000000000007f0000000000000000000000000000000000000000000000000000000000000000838686600081811061326b57fe5b90506020020135613b18565b60007f00000000000000000000000000000000000000000000000000000000000000006001600160a01b031663d55a23f46040518163ffffffff1660e01b815260040160206040518083038186803b1580156132d257600080fd5b505afa1580156132e6573d6000803e3d6000fd5b505050506040513d60208110156132fc57600080fd5b5051905060005b818110156134ca5760007f00000000000000000000000000000000000000000000000000000000000000006001600160a01b03166340c35446836040518263ffffffff1660e01b81526004018082815260200191505060206040518083038186803b15801561337157600080fd5b505afa158015613385573d6000803e3d6000fd5b505050506040513d602081101561339b57600080fd5b50516040805163f7c618c160e01b815290516001600160a01b039092169163f7c618c191600480820192602092909190829003018186803b1580156133df57600080fd5b505afa1580156133f3573d6000803e3d6000fd5b505050506040513d602081101561340957600080fd5b5051604080516370a0823160e01b815230600482015290519192506000916001600160a01b038416916370a08231916024808301926020929190829003018186803b15801561345757600080fd5b505afa15801561346b573d6000803e3d6000fd5b505050506040513d602081101561348157600080fd5b5051905080156134c0576134c0827f0000000000000000000000000000000000000000000000000000000000000000838a8a8860010181811061326b57fe5b5050600101613303565b5060006135247f000000000000000000000000000000000000000000000000000000000000000086868560010181811061350057fe5b9050602002013587878660020181811061351657fe5b905060200201356001613c57565b905080156135b4576000613536612103565b50905061356e7f0000000000000000000000000000000000000000000000000000000000000000828489898860030181811061326b57fe5b61358c86868560040181811061358057fe5b90506020020135613fc6565b6135aa86868560040181811061359e57fe5b9050602002013561410d565b6135b261363d565b505b5050505050565b604080516324f81cd160e11b81526001600482015290516001600160a01b037f000000000000000000000000000000000000000000000000000000000000000016916349f039a291602480830192600092919082900301818387803b15801561362357600080fd5b505af1158015613637573d6000803e3d6000fd5b50505050565b6000613647612afe565b1115611c6d576040805163303acfe760e11b81527f000000000000000000000000000000000000000000000000000000000000000060048201526001602482015290516001600160a01b037f000000000000000000000000000000000000000000000000000000000000000016916360759fce9160448083019260209291908290030181600087803b1580156136dc57600080fd5b505af11580156136f0573d6000803e3d6000fd5b505050506040513d6020811015611fad57600080fd5b606061375b826040518060400160405280602081526020017f5361666545524332303a206c6f772d6c6576656c2063616c6c206661696c6564815250856001600160a01b0316612e6c9092919063ffffffff16565b8051909150156127da5780806020019051602081101561377a57600080fd5b50516127da5760405162461bcd60e51b815260040180806020018281038252602a81526020018061453e602a913960400191505060405180910390fd5b6060824710156137f85760405162461bcd60e51b81526004018080602001828103825260268152602001806144f76026913960400191505060405180910390fd5b61380185614254565b613852576040805162461bcd60e51b815260206004820152601d60248201527f416464726573733a2063616c6c20746f206e6f6e2d636f6e7472616374000000604482015290519081900360640190fd5b60006060866001600160a01b031685876040518082805190602001908083835b602083106138915780518252601f199092019160209182019101613872565b6001836020036101000a03801982511681845116808217855250505050505090500191505060006040518083038185875af1925050503d80600081146138f3576040519150601f19603f3d011682016040523d82523d6000602084013e6138f8565b606091505b509150915061390882828661425a565b979650505050505050565b600081848411156139a25760405162461bcd60e51b81526004018080602001828103825283818151815260200191508051906020019080838360005b8381101561396757818101518382015260200161394f565b50505050905090810190601f1680156139945780820380516001836020036101000a031916815260200191505b509250505060405180910390fd5b505050900390565b600081836139f95760405162461bcd60e51b815260206004820181815283516024840152835190928392604490910191908501908083836000831561396757818101518382015260200161394f565b506000838581613a0557fe5b0495945050505050565b60408051636197390160e11b8152600481018390526001602482015290516001600160a01b037f0000000000000000000000000000000000000000000000000000000000000000169163c32e72029160448083019260209291908290030181600087803b158015613a7f57600080fd5b505af1158015613a93573d6000803e3d6000fd5b505050506040513d60208110156127da57600080fd5b60408051637050ccd960e01b81523060048201526001602482015290516001600160a01b037f00000000000000000000000000000000000000000000000000000000000000001691637050ccd99160448083019260209291908290030181600087803b1580156136dc57600080fd5b60408051600280825260608083018452926020830190803683370190505090508481600081518110613b4657fe5b60200260200101906001600160a01b031690816001600160a01b0316815250508381600181518110613b7457fe5b6001600160a01b039283166020918202929092018101919091526002546040516338ed173960e01b8152600481018781526024820187905230606483018190526402540be4006084840181905260a060448501908152885160a4860152885195909716966338ed1739968b968b968b96939260c490910191878201910280838360005b83811015613c0f578181015183820152602001613bf7565b505050509050019650505050505050600060405180830381600087803b158015613c3857600080fd5b505af1158015613c4c573d6000803e3d6000fd5b505050505050505050565b600080856001600160a01b03166370a08231306040518263ffffffff1660e01b815260040180826001600160a01b0316815260200191505060206040518083038186803b158015613ca757600080fd5b505afa158015613cbb573d6000803e3d6000fd5b505050506040513d6020811015613cd157600080fd5b50519050613d01867f00000000000000000000000000000000000000000000000000000000000000008388613b18565b604080516370a0823160e01b815230600482015290516001600160a01b037f000000000000000000000000000000000000000000000000000000000000000016916370a08231916024808301926020929190829003018186803b158015613d6757600080fd5b505afa158015613d7b573d6000803e3d6000fd5b505050506040513d6020811015613d9157600080fd5b505191508115613fbd5760008060007f00000000000000000000000000000000000000000000000000000000000000006001600160a01b031663da633d316040518163ffffffff1660e01b815260040160606040518083038186803b158015613df957600080fd5b505afa158015613e0d573d6000803e3d6000fd5b505050506040513d6060811015613e2357600080fd5b5080516020820151604090920151909450909250905060008115801590613e5257506001600160a01b03831615155b15613f2457613e67612710610c678885612f6c565b9050613e967f000000000000000000000000000000000000000000000000000000000000000085838b8b6142c0565b613f2483856001600160a01b03166370a08231306040518263ffffffff1660e01b815260040180826001600160a01b0316815260200191505060206040518083038186803b158015613ee757600080fd5b505afa158015613efb573d6000803e3d6000fd5b505050506040513d6020811015613f1157600080fd5b50516001600160a01b0387169190612fc5565b604080516370a0823160e01b815230600482015290516001600160a01b037f000000000000000000000000000000000000000000000000000000000000000016916370a08231916024808301926020929190829003018186803b158015613f8a57600080fd5b505afa158015613f9e573d6000803e3d6000fd5b505050506040513d6020811015613fb457600080fd5b50519550505050505b50949350505050565b613fce61449b565b600080613fd9612103565b91509150816001600160a01b03166370a08231306040518263ffffffff1660e01b815260040180826001600160a01b0316815260200191505060206040518083038186803b15801561402a57600080fd5b505afa15801561403e573d6000803e3d6000fd5b505050506040513d602081101561405457600080fd5b505183826003811061406257fe5b6020020152604051634515cef360e01b81526001600160a01b037f00000000000000000000000000000000000000000000000000000000000000001690634515cef390859087906004018083606080838360005b838110156140ce5781810151838201526020016140b6565b5050505090500182815260200192505050600060405180830381600087803b1580156140f957600080fd5b505af1158015611eaf573d6000803e3d6000fd5b6141156144b9565b604080516370a0823160e01b815230600482015290516001600160a01b037f000000000000000000000000000000000000000000000000000000000000000016916370a08231916024808301926020929190829003018186803b15801561417b57600080fd5b505afa15801561418f573d6000803e3d6000fd5b505050506040513d60208110156141a557600080fd5b5051602082015260408051630b4c7e4d60e01b81527f00000000000000000000000000000000000000000000000000000000000000006001600160a01b031691630b4c7e4d9184918691600401908190849080838360005b838110156142155781810151838201526020016141fd565b5050505090500182815260200192505050600060405180830381600087803b15801561424057600080fd5b505af11580156135b2573d6000803e3d6000fd5b3b151590565b60608315614269575081612e7e565b8251156142795782518084602001fd5b60405162461bcd60e51b815260206004820181815284516024840152845185939192839260440191908501908083836000831561396757818101518382015260200161394f565b604080516002808252606080830184529260208301908036833701905050905085816000815181106142ee57fe5b60200260200101906001600160a01b031690816001600160a01b031681525050848160018151811061431c57fe5b60200260200101906001600160a01b031690816001600160a01b0316815250506001828154811061434957fe5b9060005260206000200160009054906101000a90046001600160a01b03166001600160a01b03166338ed1739858584306402540be4006040518663ffffffff1660e01b81526004018086815260200185815260200180602001846001600160a01b03168152602001838152602001828103825285818151815260200191508051906020019060200280838360005b838110156143ef5781810151838201526020016143d7565b505050509050019650505050505050600060405180830381600087803b15801561441857600080fd5b505af115801561442c573d6000803e3d6000fd5b50505050505050505050565b82805482825590600052602060002090810192821561448b579160200282015b8281111561448b5781546001600160a01b0319166001600160a01b03843516178255602090920191600190910190614458565b506144979291506144d7565b5090565b60405180606001604052806003906020820280368337509192915050565b60405180604001604052806002906020820280368337509192915050565b5b808211156144975780546001600160a01b03191681556001016144d856fe416464726573733a20696e73756666696369656e742062616c616e636520666f722063616c6c536166654d6174683a206d756c7469706c69636174696f6e206f766572666c6f775361666545524332303a204552433230206f7065726174696f6e20646964206e6f7420737563636565645361666545524332303a20617070726f76652066726f6d206e6f6e2d7a65726f20746f206e6f6e2d7a65726f20616c6c6f77616e6365a2646970667358221220f0dcb7f36f594866b5232d35a1994291257f9e5819dae5c55259ac994a78e5ac64736f6c634300060c0033416464726573733a20696e73756666696369656e742062616c616e636520666f722063616c6c5361666545524332303a204552433230206f7065726174696f6e20646964206e6f7420737563636565645361666545524332303a20617070726f76652066726f6d206e6f6e2d7a65726f20746f206e6f6e2d7a65726f20616c6c6f77616e6365",
  "devdoc": {
    "kind": "dev",
    "methods": {
      "approveForSpender(address,address,uint256)": {
        "params": {
          "_amount": "The amount to spend",
          "_spender": "The address of the spender",
          "_token": "The address of the token"
        }
      },
      "balanceOfPool()": {
        "details": "Must be implemented by the strategy"
      },
      "constructor": {
        "params": {
          "_controller": "The address of the controller",
          "_convexVault": "The address of the convex vault",
          "_crv": "The address of CRV",
          "_crv3": "The address of 3CRV",
          "_cvx": "The address of CVX",
          "_manager": "The address of the manager",
          "_mim": "The address of MIM",
          "_name": "The strategy name",
          "_pid": "The pool id of convex",
          "_routerArray": "The address array of routers for swapping tokens",
          "_stableSwap2Pool": "The address of the stable swap pool",
          "_stableSwap3Pool": "The address of the 3CRV pool",
          "_want": "The desired token of the strategy",
          "_weth": "The address of WETH"
        }
      },
      "setDefaultRouter(uint256)": {
        "params": {
          "_routerIndex": "Gets the address of the router from routerArray"
        }
      },
      "setRouter(address[],address[])": {
        "params": {
          "_routerArray": "The addresses of routers",
          "_tokenArray": "The addresses of tokens that need to be approved by the strategy"
        }
      },
      "withdraw(address)": {
        "params": {
          "_asset": "The address of the token to withdraw"
        }
      },
      "withdraw(uint256)": {
        "params": {
          "_amount": "The amount of the want token to withdraw"
        }
      }
    },
    "version": 1
  },
  "userdoc": {
    "kind": "user",
    "methods": {
      "approveForSpender(address,address,uint256)": {
        "notice": "Approves a token address to be spent by an address"
      },
      "balanceOf()": {
        "notice": "Returns the strategy's balance of the want token plus the balance of pool"
      },
      "balanceOfPool()": {
        "notice": "Returns the balance of the pool"
      },
      "balanceOfWant()": {
        "notice": "Returns the balance of the want token on the strategy"
      },
      "deposit()": {
        "notice": "Deposits funds to the strategy's pool"
      },
      "harvest(uint256[])": {
        "notice": "Harvest funds in the strategy's pool"
      },
      "setDefaultRouter(uint256)": {
        "notice": "Sets the default ISwap-compatible router"
      },
      "setRouter(address[],address[])": {
        "notice": "Sets the address of the ISwap-compatible router"
      },
      "skim()": {
        "notice": "Sends stuck want tokens in the strategy to the controller"
      },
      "withdraw(address)": {
        "notice": "Sends stuck tokens in the strategy to the controller"
      },
      "withdraw(uint256)": {
        "notice": "Initiated from a vault, withdraws funds from the pool"
      },
      "withdrawAll()": {
        "notice": "Withdraws all funds from the strategy"
      }
    },
    "version": 1
  },
  "storageLayout": {
    "storage": [
      {
        "astId": 18037,
        "contract": "contracts/v3/strategies/MIMConvexStrategy.sol:MIMConvexStrategy",
        "label": "name",
        "offset": 0,
        "slot": "0",
        "type": "t_string_storage"
      },
      {
        "astId": 18040,
        "contract": "contracts/v3/strategies/MIMConvexStrategy.sol:MIMConvexStrategy",
        "label": "routerArray",
        "offset": 0,
        "slot": "1",
        "type": "t_array(t_address)dyn_storage"
      },
      {
        "astId": 18043,
        "contract": "contracts/v3/strategies/MIMConvexStrategy.sol:MIMConvexStrategy",
        "label": "router",
        "offset": 0,
        "slot": "2",
        "type": "t_contract(ISwap)17380"
      }
    ],
    "types": {
      "t_address": {
        "encoding": "inplace",
        "label": "address",
        "numberOfBytes": "20"
      },
      "t_array(t_address)dyn_storage": {
        "base": "t_address",
        "encoding": "dynamic_array",
        "label": "address[]",
        "numberOfBytes": "32"
      },
      "t_contract(ISwap)17380": {
        "encoding": "inplace",
        "label": "contract ISwap",
        "numberOfBytes": "20"
      },
      "t_string_storage": {
        "encoding": "bytes",
        "label": "string",
        "numberOfBytes": "32"
      }
    }
  }
}