{
  "address": "0xa4ea2fD4a88cB66488109eFb8Ecd4A96F5376261",
  "abi": [
    {
      "inputs": [
        {
          "internalType": "contract IERC20",
          "name": "_tokenDAI",
          "type": "address"
        },
        {
          "internalType": "contract IERC20",
          "name": "_tokenUSDC",
          "type": "address"
        },
        {
          "internalType": "contract IERC20",
          "name": "_tokenUSDT",
          "type": "address"
        },
        {
          "internalType": "contract IERC20",
          "name": "_token3CRV",
          "type": "address"
        },
        {
          "internalType": "contract IStableSwap3Pool",
          "name": "_stableSwap3Pool",
          "type": "address"
        },
        {
          "internalType": "contract IVaultManager",
          "name": "_vaultManager",
          "type": "address"
        },
        {
          "internalType": "contract IStableSwap3PoolOracle",
          "name": "_oracle",
          "type": "address"
        }
      ],
      "stateMutability": "nonpayable",
      "type": "constructor"
    },
    {
      "inputs": [],
      "name": "ONE_HUNDRED_PERCENT",
      "outputs": [
        {
          "internalType": "uint256",
          "name": "",
          "type": "uint256"
        }
      ],
      "stateMutability": "view",
      "type": "function"
    },
    {
      "inputs": [
        {
          "internalType": "uint256",
          "name": "",
          "type": "uint256"
        }
      ],
      "name": "PRECISION_MUL",
      "outputs": [
        {
          "internalType": "uint256",
          "name": "",
          "type": "uint256"
        }
      ],
      "stateMutability": "view",
      "type": "function"
    },
    {
      "inputs": [
        {
          "internalType": "contract IERC20",
          "name": "_token",
          "type": "address"
        },
        {
          "internalType": "address",
          "name": "_spender",
          "type": "address"
        },
        {
          "internalType": "uint256",
          "name": "_amount",
          "type": "uint256"
        }
      ],
      "name": "approveForSpender",
      "outputs": [],
      "stateMutability": "nonpayable",
      "type": "function"
    },
    {
      "inputs": [
        {
          "internalType": "uint256[3]",
          "name": "amounts",
          "type": "uint256[3]"
        },
        {
          "internalType": "bool",
          "name": "deposit",
          "type": "bool"
        }
      ],
      "name": "calc_token_amount",
      "outputs": [
        {
          "internalType": "uint256",
          "name": "_shareAmount",
          "type": "uint256"
        }
      ],
      "stateMutability": "view",
      "type": "function"
    },
    {
      "inputs": [
        {
          "internalType": "uint256",
          "name": "_shares",
          "type": "uint256"
        },
        {
          "internalType": "address",
          "name": "_output",
          "type": "address"
        }
      ],
      "name": "calc_token_amount_withdraw",
      "outputs": [
        {
          "internalType": "uint256",
          "name": "",
          "type": "uint256"
        }
      ],
      "stateMutability": "view",
      "type": "function"
    },
    {
      "inputs": [
        {
          "internalType": "address",
          "name": "_input",
          "type": "address"
        },
        {
          "internalType": "address",
          "name": "_output",
          "type": "address"
        },
        {
          "internalType": "uint256",
          "name": "_inputAmount",
          "type": "uint256"
        }
      ],
      "name": "convert",
      "outputs": [
        {
          "internalType": "uint256",
          "name": "_outputAmount",
          "type": "uint256"
        }
      ],
      "stateMutability": "nonpayable",
      "type": "function"
    },
    {
      "inputs": [
        {
          "internalType": "address",
          "name": "_input",
          "type": "address"
        },
        {
          "internalType": "address",
          "name": "_output",
          "type": "address"
        },
        {
          "internalType": "uint256",
          "name": "_inputAmount",
          "type": "uint256"
        }
      ],
      "name": "convert_rate",
      "outputs": [
        {
          "internalType": "uint256",
          "name": "",
          "type": "uint256"
        }
      ],
      "stateMutability": "view",
      "type": "function"
    },
    {
      "inputs": [
        {
          "internalType": "uint256[3]",
          "name": "amounts",
          "type": "uint256[3]"
        }
      ],
      "name": "convert_stables",
      "outputs": [
        {
          "internalType": "uint256",
          "name": "_shareAmount",
          "type": "uint256"
        }
      ],
      "stateMutability": "nonpayable",
      "type": "function"
    },
    {
      "inputs": [
        {
          "internalType": "uint256",
          "name": "_inputAmount",
          "type": "uint256"
        }
      ],
      "name": "getExpected",
      "outputs": [
        {
          "internalType": "uint256",
          "name": "",
          "type": "uint256"
        }
      ],
      "stateMutability": "view",
      "type": "function"
    },
    {
      "inputs": [
        {
          "internalType": "contract IERC20",
          "name": "_token",
          "type": "address"
        },
        {
          "internalType": "uint256",
          "name": "_amount",
          "type": "uint256"
        },
        {
          "internalType": "address",
          "name": "_to",
          "type": "address"
        }
      ],
      "name": "governanceRecoverUnsupported",
      "outputs": [],
      "stateMutability": "nonpayable",
      "type": "function"
    },
    {
      "inputs": [],
      "name": "oracle",
      "outputs": [
        {
          "internalType": "contract IStableSwap3PoolOracle",
          "name": "",
          "type": "address"
        }
      ],
      "stateMutability": "view",
      "type": "function"
    },
    {
      "inputs": [
        {
          "internalType": "contract IStableSwap3Pool",
          "name": "_stableSwap3Pool",
          "type": "address"
        }
      ],
      "name": "setStableSwap3Pool",
      "outputs": [],
      "stateMutability": "nonpayable",
      "type": "function"
    },
    {
      "inputs": [
        {
          "internalType": "address",
          "name": "_strategy",
          "type": "address"
        },
        {
          "internalType": "bool",
          "name": "_status",
          "type": "bool"
        }
      ],
      "name": "setStrategy",
      "outputs": [],
      "stateMutability": "nonpayable",
      "type": "function"
    },
    {
      "inputs": [
        {
          "internalType": "contract IVaultManager",
          "name": "_vaultManager",
          "type": "address"
        }
      ],
      "name": "setVaultManager",
      "outputs": [],
      "stateMutability": "nonpayable",
      "type": "function"
    },
    {
      "inputs": [],
      "name": "stableSwap3Pool",
      "outputs": [
        {
          "internalType": "contract IStableSwap3Pool",
          "name": "",
          "type": "address"
        }
      ],
      "stateMutability": "view",
      "type": "function"
    },
    {
      "inputs": [
        {
          "internalType": "address",
          "name": "",
          "type": "address"
        }
      ],
      "name": "strategies",
      "outputs": [
        {
          "internalType": "bool",
          "name": "",
          "type": "bool"
        }
      ],
      "stateMutability": "view",
      "type": "function"
    },
    {
      "inputs": [],
      "name": "token",
      "outputs": [
        {
          "internalType": "address",
          "name": "",
          "type": "address"
        }
      ],
      "stateMutability": "nonpayable",
      "type": "function"
    },
    {
      "inputs": [],
      "name": "token3CRV",
      "outputs": [
        {
          "internalType": "contract IERC20",
          "name": "",
          "type": "address"
        }
      ],
      "stateMutability": "view",
      "type": "function"
    },
    {
      "inputs": [
        {
          "internalType": "uint256",
          "name": "",
          "type": "uint256"
        }
      ],
      "name": "tokens",
      "outputs": [
        {
          "internalType": "contract IERC20",
          "name": "",
          "type": "address"
        }
      ],
      "stateMutability": "view",
      "type": "function"
    },
    {
      "inputs": [],
      "name": "vaultManager",
      "outputs": [
        {
          "internalType": "contract IVaultManager",
          "name": "",
          "type": "address"
        }
      ],
      "stateMutability": "view",
      "type": "function"
    }
  ],
  "transactionHash": "0xd4bc5d7a9a9703337e2403cc5254693913189492112cc7f8978de282d5a4b19d",
  "args": [
    "0x6B175474E89094C44Da98b954EedeAC495271d0F",
    "0xA0b86991c6218b36c1d19D4a2e9Eb0cE3606eB48",
    "0xdAC17F958D2ee523a2206206994597C13D831ec7",
    "0x6c3F90f043a72FA612cbac8115EE7e52BDe6E490",
    "0xbEbc44782C7dB0a1A60Cb6fe97d0b483032FF1C7",
    "0xe3d32C20Be68e6189a52f60148c850dF7A2Bb5DD",
    "0x8DFDdc191C6Fd7596deEEf52BC783546993962ee"
  ],
  "solcInputHash": "3de2fa958fb77ce58b6c702d42713fa5",
  "bytecode": "0x60e06040526001608090815264e8d4a5100060a081905260c05262000029906000906003620005c0565b503480156200003757600080fd5b506040516200282e3803806200282e833981810160405260e08110156200005d57600080fd5b508051602082015160408301516060840151608085015160a086015160c090960151600380546001600160a01b03199081166001600160a01b03808a16919091178355600480548316828a1617905560058054831682891617905560068054831682881617905560078054909216818616179182905597989697959694959394936200010c929116906000199060005b01546001600160a01b03169190620001ad602090811b62001ab017901c565b6007546200012a906001600160a01b031660001960036001620000ed565b60075462000148906001600160a01b031660001960036002620000ed565b60075460065462000175916001600160a01b039182169116600019620001ad602090811b62001ab017901c565b600880546001600160a01b039384166001600160a01b0319918216179091556009805492909316911617905550620006239350505050565b80158062000237575060408051636eb1769f60e11b81523060048201526001600160a01b03848116602483015291519185169163dd62ed3e91604480820192602092909190829003018186803b1580156200020757600080fd5b505afa1580156200021c573d6000803e3d6000fd5b505050506040513d60208110156200023357600080fd5b5051155b620002745760405162461bcd60e51b8152600401808060200182810382526036815260200180620027f86036913960400191505060405180910390fd5b604080516001600160a01b038416602482015260448082018490528251808303909101815260649091019091526020810180516001600160e01b0390811663095ea7b360e01b17909152620002cc918591620002d116565b505050565b60606200032d826040518060400160405280602081526020017f5361666545524332303a206c6f772d6c6576656c2063616c6c206661696c6564815250856001600160a01b03166200038d60201b62001bc3179092919060201c565b805190915015620002cc578080602001905160208110156200034e57600080fd5b5051620002cc5760405162461bcd60e51b815260040180806020018281038252602a815260200180620027ce602a913960400191505060405180910390fd5b60606200039e8484600085620003a8565b90505b9392505050565b606082471015620003eb5760405162461bcd60e51b8152600401808060200182810382526026815260200180620027a86026913960400191505060405180910390fd5b620003f68562000510565b62000448576040805162461bcd60e51b815260206004820152601d60248201527f416464726573733a2063616c6c20746f206e6f6e2d636f6e7472616374000000604482015290519081900360640190fd5b60006060866001600160a01b031685876040518082805190602001908083835b60208310620004895780518252601f19909201916020918201910162000468565b6001836020036101000a03801982511681845116808217855250505050505090500191505060006040518083038185875af1925050503d8060008114620004ed576040519150601f19603f3d011682016040523d82523d6000602084013e620004f2565b606091505b5090925090506200050582828662000516565b979650505050505050565b3b151590565b6060831562000527575081620003a1565b825115620005385782518084602001fd5b8160405162461bcd60e51b81526004018080602001828103825283818151815260200191508051906020019080838360005b83811015620005845781810151838201526020016200056a565b50505050905090810190601f168015620005b25780820380516001836020036101000a031916815260200191505b509250505060405180910390fd5b8260038101928215620005fa579160200282015b82811115620005fa578251829064ffffffffff16905591602001919060010190620005d4565b50620006089291506200060c565b5090565b5b808211156200060857600081556001016200060d565b61217580620006336000396000f3fe608060405234801561001057600080fd5b506004361061012c5760003560e01c80638a4adf24116100ad578063baa82a3411610071578063baa82a3414610345578063dd0081c714610373578063e6c037531461037b578063ef9e2379146103a1578063fc0c546a146103d75761012c565b80638a4adf24146102c7578063a488680f146102cf578063ae2841c7146102d7578063b543503e14610303578063b7b11c5e146103295761012c565b80634f64b2be116100f45780634f64b2be1461022957806354575af4146102625780635a3874ac1461029a5780637dafa364146102a25780637dc0d1d0146102bf5761012c565b8063187c5f5814610131578063248391ff1461016057806336cf893c146101965780633883e119146101cc57806339ebf823146101ef575b600080fd5b61014e6004803603602081101561014757600080fd5b50356103df565b60408051918252519081900360200190f35b61014e6004803603606081101561017657600080fd5b506001600160a01b03813581169160208101359091169060400135610503565b61014e600480360360608110156101ac57600080fd5b506001600160a01b03813581169160208101359091169060400135610b56565b61014e600480360360808110156101e257600080fd5b5060608101351515610d64565b6102156004803603602081101561020557600080fd5b50356001600160a01b0316610e03565b604080519115158252519081900360200190f35b6102466004803603602081101561023f57600080fd5b5035610e18565b604080516001600160a01b039092168252519081900360200190f35b6102986004803603606081101561027857600080fd5b506001600160a01b03813581169160208101359160409091013516610e35565b005b610246610fff565b61014e600480360360208110156102b857600080fd5b503561100e565b610246611022565b610246611031565b610246611040565b61014e600480360360408110156102ed57600080fd5b50803590602001356001600160a01b031661104f565b6102986004803603602081101561031957600080fd5b50356001600160a01b0316611116565b61014e6004803603606081101561033f57600080fd5b5061127a565b6102986004803603604081101561035b57600080fd5b506001600160a01b03813516906020013515156115f7565b61014e611764565b6102986004803603602081101561039157600080fd5b50356001600160a01b031661176a565b610298600480360360608110156103b757600080fd5b506001600160a01b03813581169160208101359091169060400135611946565b610246611aa1565b60006104fd670de0b6b3a76400006104f06104f6670de0b6b3a76400006104f0600960009054906101000a90046001600160a01b03166001600160a01b031663ac4316cb6040518163ffffffff1660e01b815260040160206040518083038186803b15801561044d57600080fd5b505afa158015610461573d6000803e3d6000fd5b505050506040513d602081101561047757600080fd5b505160095460408051639bddd05f60e01b815290516001600160a01b0390921691639bddd05f91600480820192602092909190829003018186803b1580156104be57600080fd5b505afa1580156104d2573d6000803e3d6000fd5b505050506040513d60208110156104e857600080fd5b505190611bda565b90611c33565b8590611bda565b92915050565b60085460408051632988bb9f60e21b815233600482015290516000926001600160a01b03169163a622ee7c916024808301926020929190829003018186803b15801561054e57600080fd5b505afa158015610562573d6000803e3d6000fd5b505050506040513d602081101561057857600080fd5b5051806105f8575060085460408051636d46114f60e11b815233600482015290516001600160a01b039092169163da8c229e91602480820192602092909190829003018186803b1580156105cb57600080fd5b505afa1580156105df573d6000803e3d6000fd5b505050506040513d60208110156105f557600080fd5b50515b806106125750336000908152600a602052604090205460ff165b8061069e5750600860009054906101000a90046001600160a01b03166001600160a01b0316635aa6e6756040518163ffffffff1660e01b815260040160206040518083038186803b15801561066657600080fd5b505afa15801561067a573d6000803e3d6000fd5b505050506040513d602081101561069057600080fd5b50516001600160a01b031633145b6106dd576040805162461bcd60e51b815260206004820152600b60248201526a08585d5d1a1bdc9a5e995960aa1b604482015290519081900360640190fd5b60006106e8836103df565b6006549091506001600160a01b03858116911614156109165761070961207a565b60005b60038160ff16101561090f5760038160ff166003811061072857fe5b01546001600160a01b03888116911614156109075784828260ff166003811061074d57fe5b60209081029190910191909152600654604080516370a0823160e01b815230600482015290516000936001600160a01b03909316926370a082319260248082019391829003018186803b1580156107a357600080fd5b505afa1580156107b7573d6000803e3d6000fd5b505050506040513d60208110156107cd57600080fd5b5051600754604051634515cef360e01b81529192506001600160a01b031690634515cef390859087906004018083606080838360005b8381101561081b578181015183820152602001610803565b5050505090500182815260200192505050600060405180830381600087803b15801561084657600080fd5b505af115801561085a573d6000803e3d6000fd5b5050600654604080516370a0823160e01b81523060048201529051600094506001600160a01b0390921692506370a08231916024808301926020929190829003018186803b1580156108ab57600080fd5b505afa1580156108bf573d6000803e3d6000fd5b505050506040513d60208110156108d557600080fd5b505190506108e38183611c75565b6006549096506108fd906001600160a01b03163388611cb7565b5050505050610b4f565b60010161070c565b5050610b49565b6006546001600160a01b0386811691161415610b495760005b60038160ff161015610b475760038160ff166003811061094b57fe5b01546001600160a01b0386811691161415610b3f57600060038260ff166003811061097257fe5b0154604080516370a0823160e01b815230600482015290516001600160a01b03909216916370a0823191602480820192602092909190829003018186803b1580156109bc57600080fd5b505afa1580156109d0573d6000803e3d6000fd5b505050506040513d60208110156109e657600080fd5b50516007549091506001600160a01b0316631a4d01d28684610a1a600060ff831660038110610a1157fe5b01548890611c33565b6040518463ffffffff1660e01b8152600401808481526020018360ff1681526020018281526020019350505050600060405180830381600087803b158015610a6157600080fd5b505af1158015610a75573d6000803e3d6000fd5b50505050600060038360ff1660038110610a8b57fe5b0154604080516370a0823160e01b815230600482015290516001600160a01b03909216916370a0823191602480820192602092909190829003018186803b158015610ad557600080fd5b505afa158015610ae9573d6000803e3d6000fd5b505050506040513d6020811015610aff57600080fd5b50519050610b0d8183611c75565b9450610b36338660038660ff1660038110610b2457fe5b01546001600160a01b03169190611cb7565b50505050610b4f565b60010161092f565b505b60009150505b9392505050565b6006546000906001600160a01b0384811691161415610c7c57610b7761207a565b60005b60038160ff161015610c755760038160ff1660038110610b9657fe5b01546001600160a01b0387811691161415610c6d5783828260ff1660038110610bbb57fe5b6020020152600754604051633883e11960e01b81526001600160a01b0390911690633883e1199084906001906004018083606080838360005b83811015610c0c578181015183820152602001610bf4565b5050505090500182151581526020019250505060206040518083038186803b158015610c3757600080fd5b505afa158015610c4b573d6000803e3d6000fd5b505050506040513d6020811015610c6157600080fd5b50519250610b4f915050565b600101610b7a565b5050610d5a565b6006546001600160a01b0385811691161415610d5a5760005b60038160ff161015610d585760038160ff1660038110610cb157fe5b01546001600160a01b0385811691161415610d50576007546040805163cc2b27d760e01b81526004810186905260ff8416602482015290516001600160a01b039092169163cc2b27d791604480820192602092909190829003018186803b158015610d1b57600080fd5b505afa158015610d2f573d6000803e3d6000fd5b505050506040513d6020811015610d4557600080fd5b50519150610b4f9050565b600101610c95565b505b5060009392505050565b600754604051633883e11960e01b81526000916001600160a01b031690633883e11990859085906004018083606080828437600083820152931515601f909401601f19169091019283525050604051602080830193509181900382018186803b158015610dd057600080fd5b505afa158015610de4573d6000803e3d6000fd5b505050506040513d6020811015610dfa57600080fd5b50519392505050565b600a6020526000908152604090205460ff1681565b60038160038110610e2557fe5b01546001600160a01b0316905081565b60085460408051636d46114f60e11b815233600482015290516001600160a01b039092169163da8c229e91602480820192602092909190829003018186803b158015610e8057600080fd5b505afa158015610e94573d6000803e3d6000fd5b505050506040513d6020811015610eaa57600080fd5b505180610f385750600860009054906101000a90046001600160a01b03166001600160a01b0316635aa6e6756040518163ffffffff1660e01b815260040160206040518083038186803b158015610f0057600080fd5b505afa158015610f14573d6000803e3d6000fd5b505050506040513d6020811015610f2a57600080fd5b50516001600160a01b031633145b610f77576040805162461bcd60e51b815260206004820152600b60248201526a21676f7665726e616e636560a81b604482015290519081900360640190fd5b826001600160a01b031663a9059cbb82846040518363ffffffff1660e01b815260040180836001600160a01b0316815260200182815260200192505050602060405180830381600087803b158015610fce57600080fd5b505af1158015610fe2573d6000803e3d6000fd5b505050506040513d6020811015610ff857600080fd5b5050505050565b6007546001600160a01b031681565b6000816003811061101b57fe5b0154905081565b6009546001600160a01b031681565b6008546001600160a01b031681565b6006546001600160a01b031681565b6000805b60038160ff161015610d5a5760038160ff166003811061106f57fe5b01546001600160a01b038481169116141561110e576007546040805163cc2b27d760e01b81526004810187905260ff8416602482015290516001600160a01b039092169163cc2b27d791604480820192602092909190829003018186803b1580156110d957600080fd5b505afa1580156110ed573d6000803e3d6000fd5b505050506040513d602081101561110357600080fd5b505191506104fd9050565b600101611053565b60085460408051636d46114f60e11b815233600482015290516001600160a01b039092169163da8c229e91602480820192602092909190829003018186803b15801561116157600080fd5b505afa158015611175573d6000803e3d6000fd5b505050506040513d602081101561118b57600080fd5b5051806112195750600860009054906101000a90046001600160a01b03166001600160a01b0316635aa6e6756040518163ffffffff1660e01b815260040160206040518083038186803b1580156111e157600080fd5b505afa1580156111f5573d6000803e3d6000fd5b505050506040513d602081101561120b57600080fd5b50516001600160a01b031633145b611258576040805162461bcd60e51b815260206004820152600b60248201526a21676f7665726e616e636560a81b604482015290519081900360640190fd5b600880546001600160a01b0319166001600160a01b0392909216919091179055565b60085460408051632988bb9f60e21b815233600482015290516000926001600160a01b03169163a622ee7c916024808301926020929190829003018186803b1580156112c557600080fd5b505afa1580156112d9573d6000803e3d6000fd5b505050506040513d60208110156112ef57600080fd5b50518061136f575060085460408051636d46114f60e11b815233600482015290516001600160a01b039092169163da8c229e91602480820192602092909190829003018186803b15801561134257600080fd5b505afa158015611356573d6000803e3d6000fd5b505050506040513d602081101561136c57600080fd5b50515b806113895750336000908152600a602052604090205460ff165b806114155750600860009054906101000a90046001600160a01b03166001600160a01b0316635aa6e6756040518163ffffffff1660e01b815260040160206040518083038186803b1580156113dd57600080fd5b505afa1580156113f1573d6000803e3d6000fd5b505050506040513d602081101561140757600080fd5b50516001600160a01b031633145b611454576040805162461bcd60e51b815260206004820152600b60248201526a08585d5d1a1bdc9a5e995960aa1b604482015290519081900360640190fd5b600654604080516370a0823160e01b815230600482015290516000926001600160a01b0316916370a08231916024808301926020929190829003018186803b15801561149f57600080fd5b505afa1580156114b3573d6000803e3d6000fd5b505050506040513d60208110156114c957600080fd5b5051600754604051634515cef360e01b81529192506001600160a01b031690634515cef39085906001906004018083606080828437600081840152601f19601f82011690508083019250505082815260200192505050600060405180830381600087803b15801561153957600080fd5b505af115801561154d573d6000803e3d6000fd5b5050600654604080516370a0823160e01b81523060048201529051600094506001600160a01b0390921692506370a08231916024808301926020929190829003018186803b15801561159e57600080fd5b505afa1580156115b2573d6000803e3d6000fd5b505050506040513d60208110156115c857600080fd5b505190506115d68183611c75565b6006549093506115f0906001600160a01b03163385611cb7565b5050919050565b60085460408051636d46114f60e11b815233600482015290516001600160a01b039092169163da8c229e91602480820192602092909190829003018186803b15801561164257600080fd5b505afa158015611656573d6000803e3d6000fd5b505050506040513d602081101561166c57600080fd5b5051806116fa5750600860009054906101000a90046001600160a01b03166001600160a01b0316635aa6e6756040518163ffffffff1660e01b815260040160206040518083038186803b1580156116c257600080fd5b505afa1580156116d6573d6000803e3d6000fd5b505050506040513d60208110156116ec57600080fd5b50516001600160a01b031633145b611739576040805162461bcd60e51b815260206004820152600b60248201526a21676f7665726e616e636560a81b604482015290519081900360640190fd5b6001600160a01b03919091166000908152600a60205260409020805460ff1916911515919091179055565b61271081565b60085460408051636d46114f60e11b815233600482015290516001600160a01b039092169163da8c229e91602480820192602092909190829003018186803b1580156117b557600080fd5b505afa1580156117c9573d6000803e3d6000fd5b505050506040513d60208110156117df57600080fd5b50518061186d5750600860009054906101000a90046001600160a01b03166001600160a01b0316635aa6e6756040518163ffffffff1660e01b815260040160206040518083038186803b15801561183557600080fd5b505afa158015611849573d6000803e3d6000fd5b505050506040513d602081101561185f57600080fd5b50516001600160a01b031633145b6118ac576040805162461bcd60e51b815260206004820152600b60248201526a21676f7665726e616e636560a81b604482015290519081900360640190fd5b600780546001600160a01b0319166001600160a01b0383811691909117918290556118ec9116600019600360005b01546001600160a01b03169190611ab0565b600754611908906001600160a01b0316600019600360016118da565b600754611924906001600160a01b0316600019600360026118da565b600754600654611943916001600160a01b039182169116600019611ab0565b50565b60085460408051636d46114f60e11b815233600482015290516001600160a01b039092169163da8c229e91602480820192602092909190829003018186803b15801561199157600080fd5b505afa1580156119a5573d6000803e3d6000fd5b505050506040513d60208110156119bb57600080fd5b505180611a495750600860009054906101000a90046001600160a01b03166001600160a01b0316635aa6e6756040518163ffffffff1660e01b815260040160206040518083038186803b158015611a1157600080fd5b505afa158015611a25573d6000803e3d6000fd5b505050506040513d6020811015611a3b57600080fd5b50516001600160a01b031633145b611a88576040805162461bcd60e51b815260206004820152600b60248201526a21676f7665726e616e636560a81b604482015290519081900360640190fd5b611a9c6001600160a01b0384168383611ab0565b505050565b6006546001600160a01b031690565b801580611b36575060408051636eb1769f60e11b81523060048201526001600160a01b03848116602483015291519185169163dd62ed3e91604480820192602092909190829003018186803b158015611b0857600080fd5b505afa158015611b1c573d6000803e3d6000fd5b505050506040513d6020811015611b3257600080fd5b5051155b611b715760405162461bcd60e51b815260040180806020018281038252603681526020018061210a6036913960400191505060405180910390fd5b604080516001600160a01b038416602482015260448082018490528251808303909101815260649091019091526020810180516001600160e01b031663095ea7b360e01b179052611a9c908490611d05565b6060611bd28484600085611db6565b949350505050565b600082611be9575060006104fd565b82820282848281611bf657fe5b0414610b4f5760405162461bcd60e51b81526004018080602001828103825260218152602001806120bf6021913960400191505060405180910390fd5b6000610b4f83836040518060400160405280601a81526020017f536166654d6174683a206469766973696f6e206279207a65726f000000000000815250611f12565b6000610b4f83836040518060400160405280601e81526020017f536166654d6174683a207375627472616374696f6e206f766572666c6f770000815250611fb4565b604080516001600160a01b038416602482015260448082018490528251808303909101815260649091019091526020810180516001600160e01b031663a9059cbb60e01b179052611a9c9084905b6060611d5a826040518060400160405280602081526020017f5361666545524332303a206c6f772d6c6576656c2063616c6c206661696c6564815250856001600160a01b0316611bc39092919063ffffffff16565b805190915015611a9c57808060200190516020811015611d7957600080fd5b5051611a9c5760405162461bcd60e51b815260040180806020018281038252602a8152602001806120e0602a913960400191505060405180910390fd5b606082471015611df75760405162461bcd60e51b81526004018080602001828103825260268152602001806120996026913960400191505060405180910390fd5b611e008561200e565b611e51576040805162461bcd60e51b815260206004820152601d60248201527f416464726573733a2063616c6c20746f206e6f6e2d636f6e7472616374000000604482015290519081900360640190fd5b60006060866001600160a01b031685876040518082805190602001908083835b60208310611e905780518252601f199092019160209182019101611e71565b6001836020036101000a03801982511681845116808217855250505050505090500191505060006040518083038185875af1925050503d8060008114611ef2576040519150601f19603f3d011682016040523d82523d6000602084013e611ef7565b606091505b5091509150611f07828286612014565b979650505050505050565b60008183611f9e5760405162461bcd60e51b81526004018080602001828103825283818151815260200191508051906020019080838360005b83811015611f63578181015183820152602001611f4b565b50505050905090810190601f168015611f905780820380516001836020036101000a031916815260200191505b509250505060405180910390fd5b506000838581611faa57fe5b0495945050505050565b600081848411156120065760405162461bcd60e51b8152602060048201818152835160248401528351909283926044909101919085019080838360008315611f63578181015183820152602001611f4b565b505050900390565b3b151590565b60608315612023575081610b4f565b8251156120335782518084602001fd5b60405162461bcd60e51b8152602060048201818152845160248401528451859391928392604401919085019080838360008315611f63578181015183820152602001611f4b565b6040518060600160405280600390602082028036833750919291505056fe416464726573733a20696e73756666696369656e742062616c616e636520666f722063616c6c536166654d6174683a206d756c7469706c69636174696f6e206f766572666c6f775361666545524332303a204552433230206f7065726174696f6e20646964206e6f7420737563636565645361666545524332303a20617070726f76652066726f6d206e6f6e2d7a65726f20746f206e6f6e2d7a65726f20616c6c6f77616e6365a2646970667358221220df561608f8fedfbd912db7f46e27eb46a1615ed09fb16e991dc016cb9be0471764736f6c634300060c0033416464726573733a20696e73756666696369656e742062616c616e636520666f722063616c6c5361666545524332303a204552433230206f7065726174696f6e20646964206e6f7420737563636565645361666545524332303a20617070726f76652066726f6d206e6f6e2d7a65726f20746f206e6f6e2d7a65726f20616c6c6f77616e6365",
  "devdoc": {
    "kind": "dev",
    "methods": {
      "approveForSpender(address,address,uint256)": {
        "params": {
          "_amount": "The amount to spend",
          "_spender": "The address of the spender",
          "_token": "The address of the token"
        }
      },
      "calc_token_amount(uint256[3],bool)": {
        "details": "0: DAI, 1: USDC, 2: USDT",
        "params": {
          "amounts": "Array of token amounts",
          "deposit": "Flag for depositing LP tokens"
        }
      },
      "calc_token_amount_withdraw(uint256,address)": {
        "params": {
          "_output": "The address of the output token",
          "_shares": "The amount of 3CRV"
        }
      },
      "constructor": {
        "params": {
          "_oracle": "The address of the StableSwap3PoolOracle",
          "_stableSwap3Pool": "The address of 3Pool",
          "_token3CRV": "The address of the 3CRV token",
          "_tokenDAI": "The address of the DAI token",
          "_tokenUSDC": "The address of the USDC token",
          "_tokenUSDT": "The address of the USDT token",
          "_vaultManager": "The address of the Vault Manager"
        }
      },
      "convert(address,address,uint256)": {
        "params": {
          "_input": "The address of the token being converted",
          "_inputAmount": "The input amount of tokens that are being converted",
          "_output": "The address of the token to be converted to"
        }
      },
      "convert_rate(address,address,uint256)": {
        "params": {
          "_input": "The address of the token being converted",
          "_inputAmount": "The input amount of tokens that are being converted",
          "_output": "The address of the token to be converted to"
        }
      },
      "convert_stables(uint256[3])": {
        "details": "0: DAI, 1: USDC, 2: USDT",
        "params": {
          "amounts": "Array of token amounts"
        }
      },
      "getExpected(uint256)": {
        "params": {
          "_inputAmount": "The input amount of tokens that are being converted"
        }
      },
      "governanceRecoverUnsupported(address,uint256,address)": {
        "details": "This contract should never have any tokens in it at the end of a transaction",
        "params": {
          "_amount": "The amount to withdraw",
          "_to": "The address to receive the tokens",
          "_token": "The address of the token"
        }
      },
      "setStableSwap3Pool(address)": {
        "params": {
          "_stableSwap3Pool": "The address of 3Pool"
        }
      },
      "setStrategy(address,bool)": {
        "params": {
          "_status": "The bool flag allowing or disallowing use of the converter by the strategy",
          "_strategy": "The address of the strategy"
        }
      },
      "setVaultManager(address)": {
        "params": {
          "_vaultManager": "The new vaultManager value"
        }
      }
    },
    "title": "StableSwap3PoolConverter",
    "version": 1
  },
  "userdoc": {
    "kind": "user",
    "methods": {
      "approveForSpender(address,address,uint256)": {
        "notice": "Called by Governance to approve a token address to be spent by an address"
      },
      "calc_token_amount(uint256[3],bool)": {
        "notice": "Checks the amount of 3CRV given for the amounts"
      },
      "calc_token_amount_withdraw(uint256,address)": {
        "notice": "Checks the amount of an output token given for 3CRV"
      },
      "convert(address,address,uint256)": {
        "notice": "Converts the amount of input tokens to output tokens"
      },
      "convert_rate(address,address,uint256)": {
        "notice": "Checks the amount of input tokens to output tokens"
      },
      "convert_stables(uint256[3])": {
        "notice": "Converts stables of the 3Pool to 3CRV"
      },
      "getExpected(uint256)": {
        "notice": "Returns the expected amount of tokens for a given amount by querying the latest data from Chainlink"
      },
      "governanceRecoverUnsupported(address,uint256,address)": {
        "notice": "Allows Governance to withdraw tokens from the converter"
      },
      "setStableSwap3Pool(address)": {
        "notice": "Sets a new address for the 3Pool contract"
      },
      "setStrategy(address,bool)": {
        "notice": "Called by Governance to enable or disable a strategy to use the converter"
      },
      "setVaultManager(address)": {
        "notice": "Called by Governance to set the value for the vaultManager address"
      },
      "token()": {
        "notice": "Returns the address of the 3CRV token"
      }
    },
    "notice": "The StableSwap3PoolConverter is used to convert funds on Curve's 3Pool. It is backed by Chainlink's price feeds to be secure against attackers.",
    "version": 1
  },
  "storageLayout": {
    "storage": [
      {
        "astId": 2533,
        "contract": "contracts/metavault/StableSwap3PoolConverter.sol:StableSwap3PoolConverter",
        "label": "PRECISION_MUL",
        "offset": 0,
        "slot": "0",
        "type": "t_array(t_uint256)3_storage"
      },
      {
        "astId": 2537,
        "contract": "contracts/metavault/StableSwap3PoolConverter.sol:StableSwap3PoolConverter",
        "label": "tokens",
        "offset": 0,
        "slot": "3",
        "type": "t_array(t_contract(IERC20)799)3_storage"
      },
      {
        "astId": 2539,
        "contract": "contracts/metavault/StableSwap3PoolConverter.sol:StableSwap3PoolConverter",
        "label": "token3CRV",
        "offset": 0,
        "slot": "6",
        "type": "t_contract(IERC20)799"
      },
      {
        "astId": 2541,
        "contract": "contracts/metavault/StableSwap3PoolConverter.sol:StableSwap3PoolConverter",
        "label": "stableSwap3Pool",
        "offset": 0,
        "slot": "7",
        "type": "t_contract(IStableSwap3Pool)2317"
      },
      {
        "astId": 2543,
        "contract": "contracts/metavault/StableSwap3PoolConverter.sol:StableSwap3PoolConverter",
        "label": "vaultManager",
        "offset": 0,
        "slot": "8",
        "type": "t_contract(IVaultManager)2503"
      },
      {
        "astId": 2545,
        "contract": "contracts/metavault/StableSwap3PoolConverter.sol:StableSwap3PoolConverter",
        "label": "oracle",
        "offset": 0,
        "slot": "9",
        "type": "t_contract(IStableSwap3PoolOracle)2337"
      },
      {
        "astId": 2549,
        "contract": "contracts/metavault/StableSwap3PoolConverter.sol:StableSwap3PoolConverter",
        "label": "strategies",
        "offset": 0,
        "slot": "10",
        "type": "t_mapping(t_address,t_bool)"
      }
    ],
    "types": {
      "t_address": {
        "encoding": "inplace",
        "label": "address",
        "numberOfBytes": "20"
      },
      "t_array(t_contract(IERC20)799)3_storage": {
        "base": "t_contract(IERC20)799",
        "encoding": "inplace",
        "label": "contract IERC20[3]",
        "numberOfBytes": "96"
      },
      "t_array(t_uint256)3_storage": {
        "base": "t_uint256",
        "encoding": "inplace",
        "label": "uint256[3]",
        "numberOfBytes": "96"
      },
      "t_bool": {
        "encoding": "inplace",
        "label": "bool",
        "numberOfBytes": "1"
      },
      "t_contract(IERC20)799": {
        "encoding": "inplace",
        "label": "contract IERC20",
        "numberOfBytes": "20"
      },
      "t_contract(IStableSwap3Pool)2317": {
        "encoding": "inplace",
        "label": "contract IStableSwap3Pool",
        "numberOfBytes": "20"
      },
      "t_contract(IStableSwap3PoolOracle)2337": {
        "encoding": "inplace",
        "label": "contract IStableSwap3PoolOracle",
        "numberOfBytes": "20"
      },
      "t_contract(IVaultManager)2503": {
        "encoding": "inplace",
        "label": "contract IVaultManager",
        "numberOfBytes": "20"
      },
      "t_mapping(t_address,t_bool)": {
        "encoding": "mapping",
        "key": "t_address",
        "label": "mapping(address => bool)",
        "numberOfBytes": "32",
        "value": "t_bool"
      },
      "t_uint256": {
        "encoding": "inplace",
        "label": "uint256",
        "numberOfBytes": "32"
      }
    }
  }
}