{
  "address": "0x2a09392a6FbE7C5b9cA686a5f89387CD0045ea35",
  "abi": [
    {
      "inputs": [
        {
          "internalType": "address",
          "name": "_feedETHUSD",
          "type": "address"
        },
        {
          "internalType": "address",
          "name": "_feedDAIETH",
          "type": "address"
        },
        {
          "internalType": "address",
          "name": "_feedUSDCETH",
          "type": "address"
        },
        {
          "internalType": "address",
          "name": "_feedUSDTETH",
          "type": "address"
        }
      ],
      "stateMutability": "nonpayable",
      "type": "constructor"
    },
    {
      "inputs": [],
      "name": "ETH_USD_MUL",
      "outputs": [
        {
          "internalType": "uint256",
          "name": "",
          "type": "uint256"
        }
      ],
      "stateMutability": "view",
      "type": "function"
    },
    {
      "inputs": [],
      "name": "MAX_ROUND_TIME",
      "outputs": [
        {
          "internalType": "uint256",
          "name": "",
          "type": "uint256"
        }
      ],
      "stateMutability": "view",
      "type": "function"
    },
    {
      "inputs": [],
      "name": "MAX_STALE_ANSWER",
      "outputs": [
        {
          "internalType": "uint256",
          "name": "",
          "type": "uint256"
        }
      ],
      "stateMutability": "view",
      "type": "function"
    },
    {
      "inputs": [],
      "name": "ethUsd",
      "outputs": [
        {
          "internalType": "address",
          "name": "",
          "type": "address"
        }
      ],
      "stateMutability": "view",
      "type": "function"
    },
    {
      "inputs": [
        {
          "internalType": "uint256",
          "name": "",
          "type": "uint256"
        }
      ],
      "name": "feeds",
      "outputs": [
        {
          "internalType": "address",
          "name": "",
          "type": "address"
        }
      ],
      "stateMutability": "view",
      "type": "function"
    },
    {
      "inputs": [],
      "name": "getEthereumPrice",
      "outputs": [
        {
          "internalType": "uint256",
          "name": "_price",
          "type": "uint256"
        }
      ],
      "stateMutability": "view",
      "type": "function"
    },
    {
      "inputs": [],
      "name": "getPrices",
      "outputs": [
        {
          "internalType": "uint256",
          "name": "_minPrice",
          "type": "uint256"
        },
        {
          "internalType": "uint256",
          "name": "_maxPrice",
          "type": "uint256"
        }
      ],
      "stateMutability": "view",
      "type": "function"
    },
    {
      "inputs": [
        {
          "internalType": "address",
          "name": "_feed",
          "type": "address"
        }
      ],
      "name": "getSafeAnswer",
      "outputs": [
        {
          "internalType": "uint256",
          "name": "",
          "type": "uint256"
        }
      ],
      "stateMutability": "view",
      "type": "function"
    }
  ],
  "transactionHash": "0xf94e13c4af15629b59d12bfd55dbb3f61af47cffb10d33094c7b19b08f04d4c7",
  "args": [
    "0x5f4eC3Df9cbd43714FE2740f5E3616155c5b8419",
    "0x773616E4d11A78F511299002da57A0a94577F1f4",
    "0xEe9F2375b4bdF6387aa8265dD4FB8F16512A1d46",
    "0xEe9F2375b4bdF6387aa8265dD4FB8F16512A1d46"
  ],
  "solcInputHash": "c715f81b598dd8c3d93b2941748f27c6",
  "bytecode": "0x60a060405234801561001057600080fd5b506040516106503803806106508339818101604052608081101561003357600080fd5b508051602082015160408301516060938401519383901b6001600160601b031916608052600080546001600160a01b03199081166001600160a01b03948516178255600180548216938516939093179092556002805495841695909216949094179055169061059c906100b490398061026c528061029e525061059c6000f3fe608060405234801561001057600080fd5b50600436106100885760003560e01c80639bddd05f1161005b5780639bddd05f1461010e578063a663303314610116578063bd9a548b1461011e578063dd314e9c1461013f57610088565b8063195e60611461008d5780634a5479f3146100c55780635a960216146100fe5780635c196d1614610106575b600080fd5b6100b3600480360360208110156100a357600080fd5b50356001600160a01b0316610147565b60408051918252519081900360200190f35b6100e2600480360360208110156100db57600080fd5b503561024d565b604080516001600160a01b039092168252519081900360200190f35b6100e261026a565b6100b361028e565b6100b3610297565b6100b3610321565b610126610328565b6040805192835260208301919091528051918290030190f35b6100b3610404565b600080600080600080866001600160a01b031663feaf968c6040518163ffffffff1660e01b815260040160a06040518083038186803b15801561018957600080fd5b505afa15801561019d573d6000803e3d6000fd5b505050506040513d60a08110156101b357600080fd5b5080516020820151604083015160608401516080909401519298509096509450909250905069ffffffffffffffffffff80861690821610156101fd57600095505050505050610248565b61020a426201518061040a565b82101561021f57600095505050505050610248565b610e1061022c838561040a565b111561024057600095505050505050610248565b509193505050505b919050565b6000816003811061025a57fe5b01546001600160a01b0316905081565b7f000000000000000000000000000000000000000000000000000000000000000081565b6402540be40081565b60006102c27f0000000000000000000000000000000000000000000000000000000000000000610147565b90506000811161030d576040805162461bcd60e51b815260206004820152601160248201527021676574457468657265756d507269636560781b604482015290519081900360640190fd5b61031c816402540be400610455565b905090565b6201518081565b60008060005b60038160ff1610156103b157600061035f60008360ff166003811061034f57fe5b01546001600160a01b0316610147565b905060ff8216610374578093508092506103a8565b60008111801561038357508381105b15610390578093506103a8565b60008111801561039f57508281115b156103a8578092505b5060010161032e565b506000821180156103c25750600081115b610400576040805162461bcd60e51b815260206004820152600a6024820152692167657450726963657360b01b604482015290519081900360640190fd5b9091565b610e1081565b600061044c83836040518060400160405280601e81526020017f536166654d6174683a207375627472616374696f6e206f766572666c6f7700008152506104ae565b90505b92915050565b6000826104645750600061044f565b8282028284828161047157fe5b041461044c5760405162461bcd60e51b81526004018080602001828103825260218152602001806105466021913960400191505060405180910390fd5b6000818484111561053d5760405162461bcd60e51b81526004018080602001828103825283818151815260200191508051906020019080838360005b838110156105025781810151838201526020016104ea565b50505050905090810190601f16801561052f5780820380516001836020036101000a031916815260200191505b509250505060405180910390fd5b50505090039056fe536166654d6174683a206d756c7469706c69636174696f6e206f766572666c6f77a264697066735822122025d078e50c043d7f49de9f0a10a5d6dd1e1d32c72d0df1a907f0c0c30721b6e164736f6c634300060c0033",
  "devdoc": {
    "kind": "dev",
    "methods": {
      "getEthereumPrice()": {
        "details": "Reverts if the answer from Chainlink is not safe"
      },
      "getPrices()": {
        "details": "Reverts if none of the Chainlink nodes are safe"
      },
      "getSafeAnswer(address)": {
        "params": {
          "_feed": "The address of the Chainlink price feed"
        }
      }
    },
    "version": 1
  },
  "userdoc": {
    "kind": "user",
    "methods": {
      "getEthereumPrice()": {
        "notice": "Retrieves the current price of ETH/USD as provided by Chainlink"
      },
      "getPrices()": {
        "notice": "Retrieves the minimum price of the 3pool tokens as provided by Chainlink"
      },
      "getSafeAnswer(address)": {
        "notice": "Get and check the answer provided by Chainlink"
      }
    },
    "version": 1
  },
  "storageLayout": {
    "storage": [
      {
        "astId": 3359,
        "contract": "contracts/metavault/StableSwap3PoolOracle.sol:StableSwap3PoolOracle",
        "label": "feeds",
        "offset": 0,
        "slot": "0",
        "type": "t_array(t_address)3_storage"
      }
    ],
    "types": {
      "t_address": {
        "encoding": "inplace",
        "label": "address",
        "numberOfBytes": "20"
      },
      "t_array(t_address)3_storage": {
        "base": "t_address",
        "encoding": "inplace",
        "label": "address[3]",
        "numberOfBytes": "96"
      }
    }
  }
}