{
  "address": "0x2E93242202a13dD451C3147fC417CE95d49b0281",
  "abi": [
    {
      "inputs": [
        {
          "internalType": "contract IERC20",
          "name": "_tokenDAI",
          "type": "address"
        },
        {
          "internalType": "contract IERC20",
          "name": "_tokenUSDC",
          "type": "address"
        },
        {
          "internalType": "contract IERC20",
          "name": "_tokenUSDT",
          "type": "address"
        },
        {
          "internalType": "contract IERC20",
          "name": "_token3CRV",
          "type": "address"
        },
        {
          "internalType": "contract IStableSwap3Pool",
          "name": "_stableSwap3Pool",
          "type": "address"
        },
        {
          "internalType": "contract IVaultManager",
          "name": "_vaultManager",
          "type": "address"
        },
        {
          "internalType": "contract IStableSwap3PoolOracle",
          "name": "_oracle",
          "type": "address"
        }
      ],
      "stateMutability": "nonpayable",
      "type": "constructor"
    },
    {
      "inputs": [],
      "name": "ONE_HUNDRED_PERCENT",
      "outputs": [
        {
          "internalType": "uint256",
          "name": "",
          "type": "uint256"
        }
      ],
      "stateMutability": "view",
      "type": "function"
    },
    {
      "inputs": [
        {
          "internalType": "uint256",
          "name": "",
          "type": "uint256"
        }
      ],
      "name": "PRECISION_MUL",
      "outputs": [
        {
          "internalType": "uint256",
          "name": "",
          "type": "uint256"
        }
      ],
      "stateMutability": "view",
      "type": "function"
    },
    {
      "inputs": [
        {
          "internalType": "contract IERC20",
          "name": "_token",
          "type": "address"
        },
        {
          "internalType": "address",
          "name": "_spender",
          "type": "address"
        },
        {
          "internalType": "uint256",
          "name": "_amount",
          "type": "uint256"
        }
      ],
      "name": "approveForSpender",
      "outputs": [],
      "stateMutability": "nonpayable",
      "type": "function"
    },
    {
      "inputs": [
        {
          "internalType": "uint256[3]",
          "name": "amounts",
          "type": "uint256[3]"
        },
        {
          "internalType": "bool",
          "name": "deposit",
          "type": "bool"
        }
      ],
      "name": "calc_token_amount",
      "outputs": [
        {
          "internalType": "uint256",
          "name": "_shareAmount",
          "type": "uint256"
        }
      ],
      "stateMutability": "view",
      "type": "function"
    },
    {
      "inputs": [
        {
          "internalType": "uint256",
          "name": "_shares",
          "type": "uint256"
        },
        {
          "internalType": "address",
          "name": "_output",
          "type": "address"
        }
      ],
      "name": "calc_token_amount_withdraw",
      "outputs": [
        {
          "internalType": "uint256",
          "name": "",
          "type": "uint256"
        }
      ],
      "stateMutability": "view",
      "type": "function"
    },
    {
      "inputs": [
        {
          "internalType": "address",
          "name": "_input",
          "type": "address"
        },
        {
          "internalType": "address",
          "name": "_output",
          "type": "address"
        },
        {
          "internalType": "uint256",
          "name": "_inputAmount",
          "type": "uint256"
        }
      ],
      "name": "convert",
      "outputs": [
        {
          "internalType": "uint256",
          "name": "_outputAmount",
          "type": "uint256"
        }
      ],
      "stateMutability": "nonpayable",
      "type": "function"
    },
    {
      "inputs": [
        {
          "internalType": "address",
          "name": "_input",
          "type": "address"
        },
        {
          "internalType": "address",
          "name": "_output",
          "type": "address"
        },
        {
          "internalType": "uint256",
          "name": "_inputAmount",
          "type": "uint256"
        }
      ],
      "name": "convert_rate",
      "outputs": [
        {
          "internalType": "uint256",
          "name": "",
          "type": "uint256"
        }
      ],
      "stateMutability": "view",
      "type": "function"
    },
    {
      "inputs": [
        {
          "internalType": "uint256[3]",
          "name": "amounts",
          "type": "uint256[3]"
        }
      ],
      "name": "convert_stables",
      "outputs": [
        {
          "internalType": "uint256",
          "name": "_shareAmount",
          "type": "uint256"
        }
      ],
      "stateMutability": "nonpayable",
      "type": "function"
    },
    {
      "inputs": [
        {
          "internalType": "uint256",
          "name": "_inputAmount",
          "type": "uint256"
        }
      ],
      "name": "getExpected",
      "outputs": [
        {
          "internalType": "uint256",
          "name": "_min",
          "type": "uint256"
        },
        {
          "internalType": "uint256",
          "name": "_max",
          "type": "uint256"
        }
      ],
      "stateMutability": "view",
      "type": "function"
    },
    {
      "inputs": [
        {
          "internalType": "contract IERC20",
          "name": "_token",
          "type": "address"
        },
        {
          "internalType": "uint256",
          "name": "_amount",
          "type": "uint256"
        },
        {
          "internalType": "address",
          "name": "_to",
          "type": "address"
        }
      ],
      "name": "governanceRecoverUnsupported",
      "outputs": [],
      "stateMutability": "nonpayable",
      "type": "function"
    },
    {
      "inputs": [],
      "name": "minSlippage",
      "outputs": [
        {
          "internalType": "uint256",
          "name": "",
          "type": "uint256"
        }
      ],
      "stateMutability": "view",
      "type": "function"
    },
    {
      "inputs": [],
      "name": "oracle",
      "outputs": [
        {
          "internalType": "contract IStableSwap3PoolOracle",
          "name": "",
          "type": "address"
        }
      ],
      "stateMutability": "view",
      "type": "function"
    },
    {
      "inputs": [
        {
          "internalType": "uint256",
          "name": "_slippage",
          "type": "uint256"
        }
      ],
      "name": "setMinSlippage",
      "outputs": [],
      "stateMutability": "nonpayable",
      "type": "function"
    },
    {
      "inputs": [
        {
          "internalType": "address",
          "name": "_strategy",
          "type": "address"
        },
        {
          "internalType": "bool",
          "name": "_status",
          "type": "bool"
        }
      ],
      "name": "setStrategy",
      "outputs": [],
      "stateMutability": "nonpayable",
      "type": "function"
    },
    {
      "inputs": [],
      "name": "stableSwap3Pool",
      "outputs": [
        {
          "internalType": "contract IStableSwap3Pool",
          "name": "",
          "type": "address"
        }
      ],
      "stateMutability": "view",
      "type": "function"
    },
    {
      "inputs": [
        {
          "internalType": "address",
          "name": "",
          "type": "address"
        }
      ],
      "name": "strategies",
      "outputs": [
        {
          "internalType": "bool",
          "name": "",
          "type": "bool"
        }
      ],
      "stateMutability": "view",
      "type": "function"
    },
    {
      "inputs": [],
      "name": "token",
      "outputs": [
        {
          "internalType": "address",
          "name": "",
          "type": "address"
        }
      ],
      "stateMutability": "view",
      "type": "function"
    },
    {
      "inputs": [],
      "name": "token3CRV",
      "outputs": [
        {
          "internalType": "contract IERC20",
          "name": "",
          "type": "address"
        }
      ],
      "stateMutability": "view",
      "type": "function"
    },
    {
      "inputs": [
        {
          "internalType": "uint256",
          "name": "",
          "type": "uint256"
        }
      ],
      "name": "tokens",
      "outputs": [
        {
          "internalType": "contract IERC20",
          "name": "",
          "type": "address"
        }
      ],
      "stateMutability": "view",
      "type": "function"
    },
    {
      "inputs": [],
      "name": "vaultManager",
      "outputs": [
        {
          "internalType": "contract IVaultManager",
          "name": "",
          "type": "address"
        }
      ],
      "stateMutability": "view",
      "type": "function"
    }
  ],
  "transactionHash": "0x6a617d0fb3b07487dab23461f8eb5d7f45a10895dc4c7a9aa6c6753edee25e7b",
  "args": [
    "0x6B175474E89094C44Da98b954EedeAC495271d0F",
    "0xA0b86991c6218b36c1d19D4a2e9Eb0cE3606eB48",
    "0xdAC17F958D2ee523a2206206994597C13D831ec7",
    "0x6c3F90f043a72FA612cbac8115EE7e52BDe6E490",
    "0xbEbc44782C7dB0a1A60Cb6fe97d0b483032FF1C7",
    "0x443ed48F975E02eA67CA0d2be0B4d4806d1E31F2",
    "0x2a09392a6FbE7C5b9cA686a5f89387CD0045ea35"
  ],
  "solcInputHash": "734160c1663c51d52e820b8f6ec5eac3",
  "bytecode": "0x610160604052600161010090815264e8d4a51000610120819052610140526200002d9060009060036200059a565b503480156200003b57600080fd5b5060405162002be538038062002be5833981810160405260e08110156200006157600080fd5b50805160208201516040830151606080850151608086015160a087015160c097880151600380546001600160a01b03808b166001600160a01b031992831617835560048054828c169084161790556005805490921690891617905584861b6001600160601b031990811660e0529584901b90951690985295969495939491939092909190620001129084906000199060005b01546001600160a01b0316919062000187602090811b62001d5817901c565b620001248360001960036001620000f3565b620001368360001960036002620000f3565b6200015d83600019866001600160a01b03166200018760201b62001d58179092919060201c565b6001600160601b0319606092831b8116608052911b1660a0525050606460065550620005fd915050565b80158062000211575060408051636eb1769f60e11b81523060048201526001600160a01b03848116602483015291519185169163dd62ed3e91604480820192602092909190829003018186803b158015620001e157600080fd5b505afa158015620001f6573d6000803e3d6000fd5b505050506040513d60208110156200020d57600080fd5b5051155b6200024e5760405162461bcd60e51b815260040180806020018281038252603681526020018062002baf6036913960400191505060405180910390fd5b604080516001600160a01b038416602482015260448082018490528251808303909101815260649091019091526020810180516001600160e01b0390811663095ea7b360e01b17909152620002a6918591620002ab16565b505050565b606062000307826040518060400160405280602081526020017f5361666545524332303a206c6f772d6c6576656c2063616c6c206661696c6564815250856001600160a01b03166200036760201b62001e6b179092919060201c565b805190915015620002a6578080602001905160208110156200032857600080fd5b5051620002a65760405162461bcd60e51b815260040180806020018281038252602a81526020018062002b85602a913960400191505060405180910390fd5b606062000378848460008562000382565b90505b9392505050565b606082471015620003c55760405162461bcd60e51b815260040180806020018281038252602681526020018062002b5f6026913960400191505060405180910390fd5b620003d085620004ea565b62000422576040805162461bcd60e51b815260206004820152601d60248201527f416464726573733a2063616c6c20746f206e6f6e2d636f6e7472616374000000604482015290519081900360640190fd5b60006060866001600160a01b031685876040518082805190602001908083835b60208310620004635780518252601f19909201916020918201910162000442565b6001836020036101000a03801982511681845116808217855250505050505090500191505060006040518083038185875af1925050503d8060008114620004c7576040519150601f19603f3d011682016040523d82523d6000602084013e620004cc565b606091505b509092509050620004df828286620004f0565b979650505050505050565b3b151590565b60608315620005015750816200037b565b825115620005125782518084602001fd5b8160405162461bcd60e51b81526004018080602001828103825283818151815260200191508051906020019080838360005b838110156200055e57818101518382015260200162000544565b50505050905090810190601f1680156200058c5780820380516001836020036101000a031916815260200191505b509250505060405180910390fd5b8260038101928215620005d4579160200282015b82811115620005d4578251829064ffffffffff16905591602001919060010190620005ae565b50620005e2929150620005e6565b5090565b5b80821115620005e25760008155600101620005e7565b60805160601c60a05160601c60c05160601c60e05160601c61247b620006e460003980610791528061084d52806109955280610a845280610ac75280610d985280610ef4528061130952806116a452806117e252806118d15280611d365250806108fe5280610bd75280610e385280610f6252806110315280611289528061136252806117555250806103d6528061048252806112c152508061056f528061062c52806106c1528061112652806111a052806112e5528061141c52806114d9528061156e5280611922528061199c5280611aa35280611bd85280611c52525061247b6000f3fe608060405234801561001057600080fd5b506004361061012c5760003560e01c80638a4adf24116100ad578063c0677c4711610071578063c0677c4714610366578063dd0081c71461036e578063e3e01f9f14610376578063ef9e237914610393578063fc0c546a146103c95761012c565b80638a4adf24146102e0578063a488680f146102e8578063ae2841c7146102f0578063b7b11c5e1461031c578063baa82a34146103385761012c565b80634f64b2be116100f45780634f64b2be1461024257806354575af41461027b5780635a3874ac146102b35780637dafa364146102bb5780637dc0d1d0146102d85761012c565b8063187c5f5814610131578063248391ff1461016757806336cf893c146101af5780633883e119146101e557806339ebf82314610208575b600080fd5b61014e6004803603602081101561014757600080fd5b50356103d1565b6040805192835260208301919091528051918290030190f35b61019d6004803603606081101561017d57600080fd5b506001600160a01b0381358116916020810135909116906040013561056b565b60408051918252519081900360200190f35b61019d600480360360608110156101c557600080fd5b506001600160a01b03813581169160208101359091169060400135610d94565b61019d600480360360808110156101fb57600080fd5b5060608101351515611017565b61022e6004803603602081101561021e57600080fd5b50356001600160a01b03166110d4565b604080519115158252519081900360200190f35b61025f6004803603602081101561025857600080fd5b50356110e9565b604080516001600160a01b039092168252519081900360200190f35b6102b16004803603606081101561029157600080fd5b506001600160a01b03813581169160208101359160409091013516611106565b005b61025f611287565b61019d600480360360208110156102d157600080fd5b50356112ab565b61025f6112bf565b61025f6112e3565b61025f611307565b61019d6004803603604081101561030657600080fd5b50803590602001356001600160a01b031661132b565b61019d6004803603606081101561033257600080fd5b50611418565b6102b16004803603604081101561034e57600080fd5b506001600160a01b0381351690602001351515611902565b61019d611a95565b61019d611a9b565b6102b16004803603602081101561038c57600080fd5b5035611aa1565b6102b1600480360360608110156103a957600080fd5b506001600160a01b03813581169160208101359091169060400135611bb8565b61025f611d34565b6000807f00000000000000000000000000000000000000000000000000000000000000006001600160a01b031663bd9a548b6040518163ffffffff1660e01b8152600401604080518083038186803b15801561042c57600080fd5b505afa158015610440573d6000803e3d6000fd5b505050506040513d604081101561045657600080fd5b50805160209182015160408051639bddd05f60e01b815290519295509093506000926001600160a01b037f00000000000000000000000000000000000000000000000000000000000000001692639bddd05f926004808201939291829003018186803b1580156104c557600080fd5b505afa1580156104d9573d6000803e3d6000fd5b505050506040513d60208110156104ef57600080fd5b5051905061051b670de0b6b3a764000061051581818761050f8a88611e82565b90611e82565b90611edb565b6006549093508015610546576105376127106105158684611e82565b90506105438482611f1d565b93505b610562670de0b6b3a764000061051581818761050f8b89611e82565b92505050915091565b60007f00000000000000000000000000000000000000000000000000000000000000006001600160a01b031663a622ee7c336040518263ffffffff1660e01b815260040180826001600160a01b0316815260200191505060206040518083038186803b1580156105da57600080fd5b505afa1580156105ee573d6000803e3d6000fd5b505050506040513d602081101561060457600080fd5b50518061069f575060408051636d46114f60e11b815233600482015290516001600160a01b037f0000000000000000000000000000000000000000000000000000000000000000169163da8c229e916024808301926020929190829003018186803b15801561067257600080fd5b505afa158015610686573d6000803e3d6000fd5b505050506040513d602081101561069c57600080fd5b50515b806106b957503360009081526007602052604090205460ff165b8061075057507f00000000000000000000000000000000000000000000000000000000000000006001600160a01b0316635aa6e6756040518163ffffffff1660e01b815260040160206040518083038186803b15801561071857600080fd5b505afa15801561072c573d6000803e3d6000fd5b505050506040513d602081101561074257600080fd5b50516001600160a01b031633145b61078f576040805162461bcd60e51b815260206004820152600b60248201526a08585d5d1a1bdc9a5e995960aa1b604482015290519081900360640190fd5b7f00000000000000000000000000000000000000000000000000000000000000006001600160a01b0316836001600160a01b03161415610ac5576107d1612380565b60005b60038160ff161015610abe5760038160ff16600381106107f057fe5b01546001600160a01b0387811691161415610ab65760008061082c61082760008560ff166003811061081e57fe5b01548890611e82565b6103d1565b9150915085848460ff166003811061084057fe5b60200201818152505060007f00000000000000000000000000000000000000000000000000000000000000006001600160a01b03166370a08231306040518263ffffffff1660e01b815260040180826001600160a01b0316815260200191505060206040518083038186803b1580156108b857600080fd5b505afa1580156108cc573d6000803e3d6000fd5b505050506040513d60208110156108e257600080fd5b5051604051634515cef360e01b81529091506001600160a01b037f00000000000000000000000000000000000000000000000000000000000000001690634515cef390879086906004018083606080838360005b8381101561094e578181015183820152602001610936565b5050505090500182815260200192505050600060405180830381600087803b15801561097957600080fd5b505af115801561098d573d6000803e3d6000fd5b5050505060007f00000000000000000000000000000000000000000000000000000000000000006001600160a01b03166370a08231306040518263ffffffff1660e01b815260040180826001600160a01b0316815260200191505060206040518083038186803b158015610a0057600080fd5b505afa158015610a14573d6000803e3d6000fd5b505050506040513d6020811015610a2a57600080fd5b50519050610a388183611f1d565b965082871115610a77576040805162461bcd60e51b815260206004820152600560248201526407cbedac2f60db1b604482015290519081900360640190fd5b610aab6001600160a01b037f0000000000000000000000000000000000000000000000000000000000000000163389611f5f565b505050505050610d8d565b6001016107d4565b5050610d89565b7f00000000000000000000000000000000000000000000000000000000000000006001600160a01b0316846001600160a01b03161415610d8957600080610b0b846103d1565b9150915060005b60038160ff161015610d855760038160ff1660038110610b2e57fe5b01546001600160a01b0387811691161415610d7d57600060038260ff1660038110610b5557fe5b0154604080516370a0823160e01b815230600482015290516001600160a01b03909216916370a0823191602480820192602092909190829003018186803b158015610b9f57600080fd5b505afa158015610bb3573d6000803e3d6000fd5b505050506040513d6020811015610bc957600080fd5b505190506001600160a01b037f000000000000000000000000000000000000000000000000000000000000000016631a4d01d28784610c1a600060ff831660038110610c1157fe5b01548990611edb565b6040518463ffffffff1660e01b8152600401808481526020018360ff1681526020018281526020019350505050600060405180830381600087803b158015610c6157600080fd5b505af1158015610c75573d6000803e3d6000fd5b50505050600060038360ff1660038110610c8b57fe5b0154604080516370a0823160e01b815230600482015290516001600160a01b03909216916370a0823191602480820192602092909190829003018186803b158015610cd557600080fd5b505afa158015610ce9573d6000803e3d6000fd5b505050506040513d6020811015610cff57600080fd5b50519050610d0d8183611f1d565b955083861115610d4c576040805162461bcd60e51b815260206004820152600560248201526407cbedac2f60db1b604482015290519081900360640190fd5b610d73338760038660ff1660038110610d6157fe5b01546001600160a01b03169190611f5f565b5050505050610d8d565b600101610b12565b5050505b5060005b9392505050565b60007f00000000000000000000000000000000000000000000000000000000000000006001600160a01b0316836001600160a01b03161415610ef257610dd8612380565b60005b60038160ff161015610abe5760038160ff1660038110610df757fe5b01546001600160a01b0387811691161415610eea5783828260ff1660038110610e1c57fe5b6020020152604051633883e11960e01b81526001600160a01b037f00000000000000000000000000000000000000000000000000000000000000001690633883e1199084906001906004018083606080838360005b83811015610e89578181015183820152602001610e71565b5050505090500182151581526020019250505060206040518083038186803b158015610eb457600080fd5b505afa158015610ec8573d6000803e3d6000fd5b505050506040513d6020811015610ede57600080fd5b50519250610d8d915050565b600101610ddb565b7f00000000000000000000000000000000000000000000000000000000000000006001600160a01b0316846001600160a01b03161415610d895760005b60038160ff16101561100c5760038160ff1660038110610f4b57fe5b01546001600160a01b0385811691161415611004577f00000000000000000000000000000000000000000000000000000000000000006001600160a01b031663cc2b27d784836040518363ffffffff1660e01b8152600401808381526020018260ff1681526020019250505060206040518083038186803b158015610fcf57600080fd5b505afa158015610fe3573d6000803e3d6000fd5b505050506040513d6020811015610ff957600080fd5b50519150610d8d9050565b600101610f2f565b505060009392505050565b604051633883e11960e01b81526000906001600160a01b037f00000000000000000000000000000000000000000000000000000000000000001690633883e11990859085906004018083606080828437600083820152931515601f909401601f19169091019283525050604051602080830193509181900382018186803b1580156110a157600080fd5b505afa1580156110b5573d6000803e3d6000fd5b505050506040513d60208110156110cb57600080fd5b50519392505050565b60076020526000908152604090205460ff1681565b600381600381106110f657fe5b01546001600160a01b0316905081565b60408051636d46114f60e11b815233600482015290516001600160a01b037f0000000000000000000000000000000000000000000000000000000000000000169163da8c229e916024808301926020929190829003018186803b15801561116c57600080fd5b505afa158015611180573d6000803e3d6000fd5b505050506040513d602081101561119657600080fd5b50518061122f57507f00000000000000000000000000000000000000000000000000000000000000006001600160a01b0316635aa6e6756040518163ffffffff1660e01b815260040160206040518083038186803b1580156111f757600080fd5b505afa15801561120b573d6000803e3d6000fd5b505050506040513d602081101561122157600080fd5b50516001600160a01b031633145b61126e576040805162461bcd60e51b815260206004820152600b60248201526a21676f7665726e616e636560a81b604482015290519081900360640190fd5b6112826001600160a01b0384168284611f5f565b505050565b7f000000000000000000000000000000000000000000000000000000000000000081565b600081600381106112b857fe5b0154905081565b7f000000000000000000000000000000000000000000000000000000000000000081565b7f000000000000000000000000000000000000000000000000000000000000000081565b7f000000000000000000000000000000000000000000000000000000000000000081565b6000805b60038160ff16101561140c5760038160ff166003811061134b57fe5b01546001600160a01b0384811691161415611404577f00000000000000000000000000000000000000000000000000000000000000006001600160a01b031663cc2b27d785836040518363ffffffff1660e01b8152600401808381526020018260ff1681526020019250505060206040518083038186803b1580156113cf57600080fd5b505afa1580156113e3573d6000803e3d6000fd5b505050506040513d60208110156113f957600080fd5b505191506114129050565b60010161132f565b50600090505b92915050565b60007f00000000000000000000000000000000000000000000000000000000000000006001600160a01b031663a622ee7c336040518263ffffffff1660e01b815260040180826001600160a01b0316815260200191505060206040518083038186803b15801561148757600080fd5b505afa15801561149b573d6000803e3d6000fd5b505050506040513d60208110156114b157600080fd5b50518061154c575060408051636d46114f60e11b815233600482015290516001600160a01b037f0000000000000000000000000000000000000000000000000000000000000000169163da8c229e916024808301926020929190829003018186803b15801561151f57600080fd5b505afa158015611533573d6000803e3d6000fd5b505050506040513d602081101561154957600080fd5b50515b8061156657503360009081526007602052604090205460ff165b806115fd57507f00000000000000000000000000000000000000000000000000000000000000006001600160a01b0316635aa6e6756040518163ffffffff1660e01b815260040160206040518083038186803b1580156115c557600080fd5b505afa1580156115d9573d6000803e3d6000fd5b505050506040513d60208110156115ef57600080fd5b50516001600160a01b031633145b61163c576040805162461bcd60e51b815260206004820152600b60248201526a08585d5d1a1bdc9a5e995960aa1b604482015290519081900360640190fd5b6000805b60038160ff16101561168f5761168561167e60008360ff166003811061166257fe5b0154868460ff166003811061167357fe5b602002013590611e82565b8390611fb1565b9150600101611640565b5060008061169c836103d1565b9150915060007f00000000000000000000000000000000000000000000000000000000000000006001600160a01b03166370a08231306040518263ffffffff1660e01b815260040180826001600160a01b0316815260200191505060206040518083038186803b15801561170f57600080fd5b505afa158015611723573d6000803e3d6000fd5b505050506040513d602081101561173957600080fd5b5051604051634515cef360e01b81529091506001600160a01b037f00000000000000000000000000000000000000000000000000000000000000001690634515cef390889086906004018083606080828437600081840152601f19601f82011690508083019250505082815260200192505050600060405180830381600087803b1580156117c657600080fd5b505af11580156117da573d6000803e3d6000fd5b5050505060007f00000000000000000000000000000000000000000000000000000000000000006001600160a01b03166370a08231306040518263ffffffff1660e01b815260040180826001600160a01b0316815260200191505060206040518083038186803b15801561184d57600080fd5b505afa158015611861573d6000803e3d6000fd5b505050506040513d602081101561187757600080fd5b505190506118858183611f1d565b9550828611156118c4576040805162461bcd60e51b815260206004820152600560248201526407cbedac2f60db1b604482015290519081900360640190fd5b6118f86001600160a01b037f0000000000000000000000000000000000000000000000000000000000000000163388611f5f565b5050505050919050565b60408051636d46114f60e11b815233600482015290516001600160a01b037f0000000000000000000000000000000000000000000000000000000000000000169163da8c229e916024808301926020929190829003018186803b15801561196857600080fd5b505afa15801561197c573d6000803e3d6000fd5b505050506040513d602081101561199257600080fd5b505180611a2b57507f00000000000000000000000000000000000000000000000000000000000000006001600160a01b0316635aa6e6756040518163ffffffff1660e01b815260040160206040518083038186803b1580156119f357600080fd5b505afa158015611a07573d6000803e3d6000fd5b505050506040513d6020811015611a1d57600080fd5b50516001600160a01b031633145b611a6a576040805162461bcd60e51b815260206004820152600b60248201526a21676f7665726e616e636560a81b604482015290519081900360640190fd5b6001600160a01b03919091166000908152600760205260409020805460ff1916911515919091179055565b60065481565b61271081565b7f00000000000000000000000000000000000000000000000000000000000000006001600160a01b0316631fe4a6866040518163ffffffff1660e01b815260040160206040518083038186803b158015611afa57600080fd5b505afa158015611b0e573d6000803e3d6000fd5b505050506040513d6020811015611b2457600080fd5b50516001600160a01b03163314611b70576040805162461bcd60e51b815260206004820152600b60248201526a085cdd1c985d1959da5cdd60aa1b604482015290519081900360640190fd5b6127108110611bb3576040805162461bcd60e51b815260206004820152600a602482015269215f736c69707061676560b01b604482015290519081900360640190fd5b600655565b60408051636d46114f60e11b815233600482015290516001600160a01b037f0000000000000000000000000000000000000000000000000000000000000000169163da8c229e916024808301926020929190829003018186803b158015611c1e57600080fd5b505afa158015611c32573d6000803e3d6000fd5b505050506040513d6020811015611c4857600080fd5b505180611ce157507f00000000000000000000000000000000000000000000000000000000000000006001600160a01b0316635aa6e6756040518163ffffffff1660e01b815260040160206040518083038186803b158015611ca957600080fd5b505afa158015611cbd573d6000803e3d6000fd5b505050506040513d6020811015611cd357600080fd5b50516001600160a01b031633145b611d20576040805162461bcd60e51b815260206004820152600b60248201526a21676f7665726e616e636560a81b604482015290519081900360640190fd5b6112826001600160a01b0384168383611d58565b7f000000000000000000000000000000000000000000000000000000000000000090565b801580611dde575060408051636eb1769f60e11b81523060048201526001600160a01b03848116602483015291519185169163dd62ed3e91604480820192602092909190829003018186803b158015611db057600080fd5b505afa158015611dc4573d6000803e3d6000fd5b505050506040513d6020811015611dda57600080fd5b5051155b611e195760405162461bcd60e51b81526004018080602001828103825260368152602001806124106036913960400191505060405180910390fd5b604080516001600160a01b038416602482015260448082018490528251808303909101815260649091019091526020810180516001600160e01b031663095ea7b360e01b17905261128290849061200b565b6060611e7a84846000856120bc565b949350505050565b600082611e9157506000611412565b82820282848281611e9e57fe5b0414610d8d5760405162461bcd60e51b81526004018080602001828103825260218152602001806123c56021913960400191505060405180910390fd5b6000610d8d83836040518060400160405280601a81526020017f536166654d6174683a206469766973696f6e206279207a65726f000000000000815250612218565b6000610d8d83836040518060400160405280601e81526020017f536166654d6174683a207375627472616374696f6e206f766572666c6f7700008152506122ba565b604080516001600160a01b038416602482015260448082018490528251808303909101815260649091019091526020810180516001600160e01b031663a9059cbb60e01b17905261128290849061200b565b600082820183811015610d8d576040805162461bcd60e51b815260206004820152601b60248201527f536166654d6174683a206164646974696f6e206f766572666c6f770000000000604482015290519081900360640190fd5b6060612060826040518060400160405280602081526020017f5361666545524332303a206c6f772d6c6576656c2063616c6c206661696c6564815250856001600160a01b0316611e6b9092919063ffffffff16565b8051909150156112825780806020019051602081101561207f57600080fd5b50516112825760405162461bcd60e51b815260040180806020018281038252602a8152602001806123e6602a913960400191505060405180910390fd5b6060824710156120fd5760405162461bcd60e51b815260040180806020018281038252602681526020018061239f6026913960400191505060405180910390fd5b61210685612314565b612157576040805162461bcd60e51b815260206004820152601d60248201527f416464726573733a2063616c6c20746f206e6f6e2d636f6e7472616374000000604482015290519081900360640190fd5b60006060866001600160a01b031685876040518082805190602001908083835b602083106121965780518252601f199092019160209182019101612177565b6001836020036101000a03801982511681845116808217855250505050505090500191505060006040518083038185875af1925050503d80600081146121f8576040519150601f19603f3d011682016040523d82523d6000602084013e6121fd565b606091505b509150915061220d82828661231a565b979650505050505050565b600081836122a45760405162461bcd60e51b81526004018080602001828103825283818151815260200191508051906020019080838360005b83811015612269578181015183820152602001612251565b50505050905090810190601f1680156122965780820380516001836020036101000a031916815260200191505b509250505060405180910390fd5b5060008385816122b057fe5b0495945050505050565b6000818484111561230c5760405162461bcd60e51b8152602060048201818152835160248401528351909283926044909101919085019080838360008315612269578181015183820152602001612251565b505050900390565b3b151590565b60608315612329575081610d8d565b8251156123395782518084602001fd5b60405162461bcd60e51b8152602060048201818152845160248401528451859391928392604401919085019080838360008315612269578181015183820152602001612251565b6040518060600160405280600390602082028036833750919291505056fe416464726573733a20696e73756666696369656e742062616c616e636520666f722063616c6c536166654d6174683a206d756c7469706c69636174696f6e206f766572666c6f775361666545524332303a204552433230206f7065726174696f6e20646964206e6f7420737563636565645361666545524332303a20617070726f76652066726f6d206e6f6e2d7a65726f20746f206e6f6e2d7a65726f20616c6c6f77616e6365a2646970667358221220fbf17cce7a3cfa6d5b0db015487b624c286945acbb1a127b16fc88824528868564736f6c634300060c0033416464726573733a20696e73756666696369656e742062616c616e636520666f722063616c6c5361666545524332303a204552433230206f7065726174696f6e20646964206e6f7420737563636565645361666545524332303a20617070726f76652066726f6d206e6f6e2d7a65726f20746f206e6f6e2d7a65726f20616c6c6f77616e6365",
  "devdoc": {
    "kind": "dev",
    "methods": {
      "approveForSpender(address,address,uint256)": {
        "params": {
          "_amount": "The amount to spend",
          "_spender": "The address of the spender",
          "_token": "The address of the token"
        }
      },
      "calc_token_amount(uint256[3],bool)": {
        "details": "0: DAI, 1: USDC, 2: USDT",
        "params": {
          "amounts": "Array of token amounts",
          "deposit": "Flag for depositing LP tokens"
        }
      },
      "calc_token_amount_withdraw(uint256,address)": {
        "params": {
          "_output": "The address of the output token",
          "_shares": "The amount of 3CRV"
        }
      },
      "constructor": {
        "params": {
          "_oracle": "The address of the StableSwap3PoolOracle",
          "_stableSwap3Pool": "The address of 3Pool",
          "_token3CRV": "The address of the 3CRV token",
          "_tokenDAI": "The address of the DAI token",
          "_tokenUSDC": "The address of the USDC token",
          "_tokenUSDT": "The address of the USDT token",
          "_vaultManager": "The address of the Vault Manager"
        }
      },
      "convert(address,address,uint256)": {
        "params": {
          "_input": "The address of the token being converted",
          "_inputAmount": "The input amount of tokens that are being converted",
          "_output": "The address of the token to be converted to"
        }
      },
      "convert_rate(address,address,uint256)": {
        "params": {
          "_input": "The address of the token being converted",
          "_inputAmount": "The input amount of tokens that are being converted",
          "_output": "The address of the token to be converted to"
        }
      },
      "convert_stables(uint256[3])": {
        "details": "0: DAI, 1: USDC, 2: USDT",
        "params": {
          "amounts": "Array of token amounts"
        }
      },
      "getExpected(uint256)": {
        "params": {
          "_inputAmount": "The input amount of tokens that are being converted"
        }
      },
      "governanceRecoverUnsupported(address,uint256,address)": {
        "details": "This contract should never have any tokens in it at the end of a transaction",
        "params": {
          "_amount": "The amount to withdraw",
          "_to": "The address to receive the tokens",
          "_token": "The address of the token"
        }
      },
      "setMinSlippage(uint256)": {
        "params": {
          "_slippage": "The slippage percentage"
        }
      },
      "setStrategy(address,bool)": {
        "params": {
          "_status": "The bool flag allowing or disallowing use of the converter by the strategy",
          "_strategy": "The address of the strategy"
        }
      }
    },
    "title": "StableSwap3PoolConverter",
    "version": 1
  },
  "userdoc": {
    "kind": "user",
    "methods": {
      "approveForSpender(address,address,uint256)": {
        "notice": "Called by Governance to approve a token address to be spent by an address"
      },
      "calc_token_amount(uint256[3],bool)": {
        "notice": "Checks the amount of 3CRV given for the amounts"
      },
      "calc_token_amount_withdraw(uint256,address)": {
        "notice": "Checks the amount of an output token given for 3CRV"
      },
      "convert(address,address,uint256)": {
        "notice": "Converts the amount of input tokens to output tokens"
      },
      "convert_rate(address,address,uint256)": {
        "notice": "Checks the amount of input tokens to output tokens"
      },
      "convert_stables(uint256[3])": {
        "notice": "Converts stables of the 3Pool to 3CRV"
      },
      "getExpected(uint256)": {
        "notice": "Returns the expected amount of tokens for a given amount by querying the latest data from Chainlink"
      },
      "governanceRecoverUnsupported(address,uint256,address)": {
        "notice": "Allows Governance to withdraw tokens from the converter"
      },
      "setMinSlippage(uint256)": {
        "notice": "Called by the strategist to set the slippage allowed on the minimum tokens received"
      },
      "setStrategy(address,bool)": {
        "notice": "Called by Governance to enable or disable a strategy to use the converter"
      },
      "token()": {
        "notice": "Returns the address of the 3CRV token"
      }
    },
    "notice": "The StableSwap3PoolConverter is used to convert funds on Curve's 3Pool. It is backed by Chainlink's price feeds to be secure against attackers.",
    "version": 1
  },
  "storageLayout": {
    "storage": [
      {
        "astId": 2543,
        "contract": "contracts/metavault/StableSwap3PoolConverter.sol:StableSwap3PoolConverter",
        "label": "PRECISION_MUL",
        "offset": 0,
        "slot": "0",
        "type": "t_array(t_uint256)3_storage"
      },
      {
        "astId": 2547,
        "contract": "contracts/metavault/StableSwap3PoolConverter.sol:StableSwap3PoolConverter",
        "label": "tokens",
        "offset": 0,
        "slot": "3",
        "type": "t_array(t_contract(IERC20)799)3_storage"
      },
      {
        "astId": 2549,
        "contract": "contracts/metavault/StableSwap3PoolConverter.sol:StableSwap3PoolConverter",
        "label": "minSlippage",
        "offset": 0,
        "slot": "6",
        "type": "t_uint256"
      },
      {
        "astId": 2553,
        "contract": "contracts/metavault/StableSwap3PoolConverter.sol:StableSwap3PoolConverter",
        "label": "strategies",
        "offset": 0,
        "slot": "7",
        "type": "t_mapping(t_address,t_bool)"
      }
    ],
    "types": {
      "t_address": {
        "encoding": "inplace",
        "label": "address",
        "numberOfBytes": "20"
      },
      "t_array(t_contract(IERC20)799)3_storage": {
        "base": "t_contract(IERC20)799",
        "encoding": "inplace",
        "label": "contract IERC20[3]",
        "numberOfBytes": "96"
      },
      "t_array(t_uint256)3_storage": {
        "base": "t_uint256",
        "encoding": "inplace",
        "label": "uint256[3]",
        "numberOfBytes": "96"
      },
      "t_bool": {
        "encoding": "inplace",
        "label": "bool",
        "numberOfBytes": "1"
      },
      "t_contract(IERC20)799": {
        "encoding": "inplace",
        "label": "contract IERC20",
        "numberOfBytes": "20"
      },
      "t_mapping(t_address,t_bool)": {
        "encoding": "mapping",
        "key": "t_address",
        "label": "mapping(address => bool)",
        "numberOfBytes": "32",
        "value": "t_bool"
      },
      "t_uint256": {
        "encoding": "inplace",
        "label": "uint256",
        "numberOfBytes": "32"
      }
    }
  }
}