{
  "address": "0x8DFDdc191C6Fd7596deEEf52BC783546993962ee",
  "abi": [
    {
      "inputs": [
        {
          "internalType": "address",
          "name": "_feedETHUSD",
          "type": "address"
        },
        {
          "internalType": "address",
          "name": "_feedDAIETH",
          "type": "address"
        },
        {
          "internalType": "address",
          "name": "_feedUSDCETH",
          "type": "address"
        },
        {
          "internalType": "address",
          "name": "_feedUSDTETH",
          "type": "address"
        }
      ],
      "stateMutability": "nonpayable",
      "type": "constructor"
    },
    {
      "inputs": [],
      "name": "ETH_USD_MUL",
      "outputs": [
        {
          "internalType": "uint256",
          "name": "",
          "type": "uint256"
        }
      ],
      "stateMutability": "view",
      "type": "function"
    },
    {
      "inputs": [],
      "name": "MAX_ROUND_TIME",
      "outputs": [
        {
          "internalType": "uint256",
          "name": "",
          "type": "uint256"
        }
      ],
      "stateMutability": "view",
      "type": "function"
    },
    {
      "inputs": [],
      "name": "MAX_STALE_ANSWER",
      "outputs": [
        {
          "internalType": "uint256",
          "name": "",
          "type": "uint256"
        }
      ],
      "stateMutability": "view",
      "type": "function"
    },
    {
      "inputs": [],
      "name": "ethUsd",
      "outputs": [
        {
          "internalType": "address",
          "name": "",
          "type": "address"
        }
      ],
      "stateMutability": "view",
      "type": "function"
    },
    {
      "inputs": [
        {
          "internalType": "uint256",
          "name": "",
          "type": "uint256"
        }
      ],
      "name": "feeds",
      "outputs": [
        {
          "internalType": "address",
          "name": "",
          "type": "address"
        }
      ],
      "stateMutability": "view",
      "type": "function"
    },
    {
      "inputs": [],
      "name": "getEthereumPrice",
      "outputs": [
        {
          "internalType": "uint256",
          "name": "_price",
          "type": "uint256"
        }
      ],
      "stateMutability": "view",
      "type": "function"
    },
    {
      "inputs": [],
      "name": "getMinimumPrice",
      "outputs": [
        {
          "internalType": "uint256",
          "name": "_minPrice",
          "type": "uint256"
        }
      ],
      "stateMutability": "view",
      "type": "function"
    },
    {
      "inputs": [
        {
          "internalType": "address",
          "name": "_feed",
          "type": "address"
        }
      ],
      "name": "getSafeAnswer",
      "outputs": [
        {
          "internalType": "uint256",
          "name": "",
          "type": "uint256"
        }
      ],
      "stateMutability": "view",
      "type": "function"
    }
  ],
  "transactionHash": "0xd1bcb0406819afd3b64430a99f6bafe61f5ec54690c56842c097649549dba606",
  "args": [
    "0x5f4eC3Df9cbd43714FE2740f5E3616155c5b8419",
    "0x773616E4d11A78F511299002da57A0a94577F1f4",
    "0xEe9F2375b4bdF6387aa8265dD4FB8F16512A1d46",
    "0xEe9F2375b4bdF6387aa8265dD4FB8F16512A1d46"
  ],
  "solcInputHash": "3de2fa958fb77ce58b6c702d42713fa5",
  "bytecode": "0x608060405234801561001057600080fd5b506040516105d13803806105d18339818101604052608081101561003357600080fd5b50805160208201516040830151606090930151600080546001600160a01b039485166001600160a01b03199182161782556001805494861694821694909417909355600280549585169584169590951790945560038054909216921691909117905561052c9081906100a590396000f3fe608060405234801561001057600080fd5b50600436106100885760003560e01c80639bddd05f1161005b5780639bddd05f1461010e578063a663303314610116578063ac4316cb1461011e578063dd314e9c1461012657610088565b8063195e60611461008d5780634a5479f3146100c55780635a960216146100fe5780635c196d1614610106575b600080fd5b6100b3600480360360208110156100a357600080fd5b50356001600160a01b031661012e565b60408051918252519081900360200190f35b6100e2600480360360208110156100db57600080fd5b5035610234565b604080516001600160a01b039092168252519081900360200190f35b6100e2610251565b6100b3610260565b6100b3610269565b6100b36102de565b6100b36102e5565b6100b3610394565b600080600080600080866001600160a01b031663feaf968c6040518163ffffffff1660e01b815260040160a06040518083038186803b15801561017057600080fd5b505afa158015610184573d6000803e3d6000fd5b505050506040513d60a081101561019a57600080fd5b5080516020820151604083015160608401516080909401519298509096509450909250905069ffffffffffffffffffff80861690821610156101e45760009550505050505061022f565b6101f1426201518061039a565b8210156102065760009550505050505061022f565b610e10610213838561039a565b11156102275760009550505050505061022f565b509193505050505b919050565b6001816003811061024157fe5b01546001600160a01b0316905081565b6000546001600160a01b031681565b6402540be40081565b6000805461027f906001600160a01b031661012e565b9050600081116102ca576040805162461bcd60e51b815260206004820152601160248201527021676574457468657265756d507269636560781b604482015290519081900360640190fd5b6102d9816402540be4006103e5565b905090565b6201518081565b6000805b60038160ff16101561034857600061031a60018360ff166003811061030a57fe5b01546001600160a01b031661012e565b905060ff82161580610336575060008111801561033657508281105b1561033f578092505b506001016102e9565b5060008111610391576040805162461bcd60e51b815260206004820152601060248201526f216765744d696e696d756d507269636560801b604482015290519081900360640190fd5b90565b610e1081565b60006103dc83836040518060400160405280601e81526020017f536166654d6174683a207375627472616374696f6e206f766572666c6f77000081525061043e565b90505b92915050565b6000826103f4575060006103df565b8282028284828161040157fe5b04146103dc5760405162461bcd60e51b81526004018080602001828103825260218152602001806104d66021913960400191505060405180910390fd5b600081848411156104cd5760405162461bcd60e51b81526004018080602001828103825283818151815260200191508051906020019080838360005b8381101561049257818101518382015260200161047a565b50505050905090810190601f1680156104bf5780820380516001836020036101000a031916815260200191505b509250505060405180910390fd5b50505090039056fe536166654d6174683a206d756c7469706c69636174696f6e206f766572666c6f77a26469706673582212201e38f939995de7a9ff389c1e17cce3296a0f10f1896f2e9b2bf7efeb7da1d5ec64736f6c634300060c0033",
  "devdoc": {
    "kind": "dev",
    "methods": {
      "getEthereumPrice()": {
        "details": "Reverts if the answer from Chainlink is not safe"
      },
      "getMinimumPrice()": {
        "details": "Reverts if none of the Chainlink nodes are safe"
      },
      "getSafeAnswer(address)": {
        "params": {
          "_feed": "The address of the Chainlink price feed"
        }
      }
    },
    "version": 1
  },
  "userdoc": {
    "kind": "user",
    "methods": {
      "getEthereumPrice()": {
        "notice": "Retrieves the current price of ETH/USD as provided by Chainlink"
      },
      "getMinimumPrice()": {
        "notice": "Retrieves the minimum price of the 3pool tokens as provided by Chainlink"
      },
      "getSafeAnswer(address)": {
        "notice": "Get and check the answer provided by Chainlink"
      }
    },
    "version": 1
  },
  "storageLayout": {
    "storage": [
      {
        "astId": 3336,
        "contract": "contracts/metavault/StableSwap3PoolOracle.sol:StableSwap3PoolOracle",
        "label": "ethUsd",
        "offset": 0,
        "slot": "0",
        "type": "t_address"
      },
      {
        "astId": 3340,
        "contract": "contracts/metavault/StableSwap3PoolOracle.sol:StableSwap3PoolOracle",
        "label": "feeds",
        "offset": 0,
        "slot": "1",
        "type": "t_array(t_address)3_storage"
      }
    ],
    "types": {
      "t_address": {
        "encoding": "inplace",
        "label": "address",
        "numberOfBytes": "20"
      },
      "t_array(t_address)3_storage": {
        "base": "t_address",
        "encoding": "inplace",
        "label": "address[3]",
        "numberOfBytes": "96"
      }
    }
  }
}