{
  "address": "0x2eab685d85AA52E4d8b6699Ba5aAC3b0c3992C3B",
  "abi": [
    {
      "inputs": [
        {
          "internalType": "contract IERC20",
          "name": "_tokenDAI",
          "type": "address"
        },
        {
          "internalType": "contract IERC20",
          "name": "_tokenUSDC",
          "type": "address"
        },
        {
          "internalType": "contract IERC20",
          "name": "_tokenUSDT",
          "type": "address"
        },
        {
          "internalType": "contract IERC20",
          "name": "_token3CRV",
          "type": "address"
        },
        {
          "internalType": "contract IStableSwap3Pool",
          "name": "_stableSwap3Pool",
          "type": "address"
        },
        {
          "internalType": "contract IVaultManager",
          "name": "_vaultManager",
          "type": "address"
        }
      ],
      "stateMutability": "nonpayable",
      "type": "constructor"
    },
    {
      "inputs": [],
      "name": "ONE_HUNDRED_PERCENT",
      "outputs": [
        {
          "internalType": "uint256",
          "name": "",
          "type": "uint256"
        }
      ],
      "stateMutability": "view",
      "type": "function"
    },
    {
      "inputs": [
        {
          "internalType": "uint256",
          "name": "",
          "type": "uint256"
        }
      ],
      "name": "PRECISION_MUL",
      "outputs": [
        {
          "internalType": "uint256",
          "name": "",
          "type": "uint256"
        }
      ],
      "stateMutability": "view",
      "type": "function"
    },
    {
      "inputs": [
        {
          "internalType": "contract IERC20",
          "name": "_token",
          "type": "address"
        },
        {
          "internalType": "address",
          "name": "_spender",
          "type": "address"
        },
        {
          "internalType": "uint256",
          "name": "_amount",
          "type": "uint256"
        }
      ],
      "name": "approveForSpender",
      "outputs": [],
      "stateMutability": "nonpayable",
      "type": "function"
    },
    {
      "inputs": [
        {
          "internalType": "uint256[3]",
          "name": "amounts",
          "type": "uint256[3]"
        },
        {
          "internalType": "bool",
          "name": "deposit",
          "type": "bool"
        }
      ],
      "name": "calc_token_amount",
      "outputs": [
        {
          "internalType": "uint256",
          "name": "_shareAmount",
          "type": "uint256"
        }
      ],
      "stateMutability": "view",
      "type": "function"
    },
    {
      "inputs": [
        {
          "internalType": "uint256",
          "name": "_shares",
          "type": "uint256"
        },
        {
          "internalType": "address",
          "name": "_output",
          "type": "address"
        }
      ],
      "name": "calc_token_amount_withdraw",
      "outputs": [
        {
          "internalType": "uint256",
          "name": "",
          "type": "uint256"
        }
      ],
      "stateMutability": "view",
      "type": "function"
    },
    {
      "inputs": [
        {
          "internalType": "address",
          "name": "_input",
          "type": "address"
        },
        {
          "internalType": "address",
          "name": "_output",
          "type": "address"
        },
        {
          "internalType": "uint256",
          "name": "_inputAmount",
          "type": "uint256"
        }
      ],
      "name": "convert",
      "outputs": [
        {
          "internalType": "uint256",
          "name": "_outputAmount",
          "type": "uint256"
        }
      ],
      "stateMutability": "nonpayable",
      "type": "function"
    },
    {
      "inputs": [
        {
          "internalType": "address",
          "name": "_input",
          "type": "address"
        },
        {
          "internalType": "address",
          "name": "_output",
          "type": "address"
        },
        {
          "internalType": "uint256",
          "name": "_inputAmount",
          "type": "uint256"
        }
      ],
      "name": "convert_rate",
      "outputs": [
        {
          "internalType": "uint256",
          "name": "",
          "type": "uint256"
        }
      ],
      "stateMutability": "view",
      "type": "function"
    },
    {
      "inputs": [
        {
          "internalType": "uint256[3]",
          "name": "amounts",
          "type": "uint256[3]"
        }
      ],
      "name": "convert_stables",
      "outputs": [
        {
          "internalType": "uint256",
          "name": "_shareAmount",
          "type": "uint256"
        }
      ],
      "stateMutability": "nonpayable",
      "type": "function"
    },
    {
      "inputs": [
        {
          "internalType": "contract IERC20",
          "name": "_token",
          "type": "address"
        },
        {
          "internalType": "uint256",
          "name": "_amount",
          "type": "uint256"
        },
        {
          "internalType": "address",
          "name": "_to",
          "type": "address"
        }
      ],
      "name": "governanceRecoverUnsupported",
      "outputs": [],
      "stateMutability": "nonpayable",
      "type": "function"
    },
    {
      "inputs": [
        {
          "internalType": "address",
          "name": "_strategy",
          "type": "address"
        },
        {
          "internalType": "bool",
          "name": "_status",
          "type": "bool"
        }
      ],
      "name": "setStrategy",
      "outputs": [],
      "stateMutability": "nonpayable",
      "type": "function"
    },
    {
      "inputs": [],
      "name": "stableSwap3Pool",
      "outputs": [
        {
          "internalType": "contract IStableSwap3Pool",
          "name": "",
          "type": "address"
        }
      ],
      "stateMutability": "view",
      "type": "function"
    },
    {
      "inputs": [
        {
          "internalType": "address",
          "name": "",
          "type": "address"
        }
      ],
      "name": "strategies",
      "outputs": [
        {
          "internalType": "bool",
          "name": "",
          "type": "bool"
        }
      ],
      "stateMutability": "view",
      "type": "function"
    },
    {
      "inputs": [],
      "name": "token",
      "outputs": [
        {
          "internalType": "address",
          "name": "",
          "type": "address"
        }
      ],
      "stateMutability": "view",
      "type": "function"
    },
    {
      "inputs": [],
      "name": "token3CRV",
      "outputs": [
        {
          "internalType": "contract IERC20",
          "name": "",
          "type": "address"
        }
      ],
      "stateMutability": "view",
      "type": "function"
    },
    {
      "inputs": [
        {
          "internalType": "uint256",
          "name": "",
          "type": "uint256"
        }
      ],
      "name": "tokens",
      "outputs": [
        {
          "internalType": "contract IERC20",
          "name": "",
          "type": "address"
        }
      ],
      "stateMutability": "view",
      "type": "function"
    },
    {
      "inputs": [],
      "name": "vaultManager",
      "outputs": [
        {
          "internalType": "contract IVaultManager",
          "name": "",
          "type": "address"
        }
      ],
      "stateMutability": "view",
      "type": "function"
    }
  ],
  "transactionHash": "0xf492368ed77f8ed48a44a1ac8bab80887d286613fb4f17284ad35ae5d62ed46b",
  "args": [
    "0x6B175474E89094C44Da98b954EedeAC495271d0F",
    "0xA0b86991c6218b36c1d19D4a2e9Eb0cE3606eB48",
    "0xdAC17F958D2ee523a2206206994597C13D831ec7",
    "0x6c3F90f043a72FA612cbac8115EE7e52BDe6E490",
    "0xbEbc44782C7dB0a1A60Cb6fe97d0b483032FF1C7",
    "0x443ed48F975E02eA67CA0d2be0B4d4806d1E31F2"
  ],
  "solcInputHash": "f47b5411f6a0e0ce9a63e95e2c1c5f7a",
  "bytecode": "0x610140604052600160e090815264e8d4a51000610100819052610120526200002c90600090600362000582565b503480156200003a57600080fd5b506040516200267438038062002674833981810160405260c08110156200006057600080fd5b50805160208201516040830151606080850151608086015160a096870151600380546001600160a01b03808a166001600160a01b031992831617835560048054828b169084161790556005805490921690881617905583851b6001600160601b031990811660c0529483901b909416909752949593949293909291620001089083906000199060005b01546001600160a01b031691906200016f602090811b620018c117901c565b6200011a8260001960036001620000e9565b6200012c8260001960036002620000e9565b6200015382600019856001600160a01b03166200016f60201b620018c1179092919060201c565b60601b6001600160601b03191660805250620005e59350505050565b801580620001f9575060408051636eb1769f60e11b81523060048201526001600160a01b03848116602483015291519185169163dd62ed3e91604480820192602092909190829003018186803b158015620001c957600080fd5b505afa158015620001de573d6000803e3d6000fd5b505050506040513d6020811015620001f557600080fd5b5051155b620002365760405162461bcd60e51b81526004018080602001828103825260368152602001806200263e6036913960400191505060405180910390fd5b604080516001600160a01b038416602482015260448082018490528251808303909101815260649091019091526020810180516001600160e01b0390811663095ea7b360e01b179091526200028e9185916200029316565b505050565b6060620002ef826040518060400160405280602081526020017f5361666545524332303a206c6f772d6c6576656c2063616c6c206661696c6564815250856001600160a01b03166200034f60201b620019d4179092919060201c565b8051909150156200028e578080602001905160208110156200031057600080fd5b50516200028e5760405162461bcd60e51b815260040180806020018281038252602a81526020018062002614602a913960400191505060405180910390fd5b60606200036084846000856200036a565b90505b9392505050565b606082471015620003ad5760405162461bcd60e51b8152600401808060200182810382526026815260200180620025ee6026913960400191505060405180910390fd5b620003b885620004d2565b6200040a576040805162461bcd60e51b815260206004820152601d60248201527f416464726573733a2063616c6c20746f206e6f6e2d636f6e7472616374000000604482015290519081900360640190fd5b60006060866001600160a01b031685876040518082805190602001908083835b602083106200044b5780518252601f1990920191602091820191016200042a565b6001836020036101000a03801982511681845116808217855250505050505090500191505060006040518083038185875af1925050503d8060008114620004af576040519150601f19603f3d011682016040523d82523d6000602084013e620004b4565b606091505b509092509050620004c7828286620004d8565b979650505050505050565b3b151590565b60608315620004e957508162000363565b825115620004fa5782518084602001fd5b8160405162461bcd60e51b81526004018080602001828103825283818151815260200191508051906020019080838360005b83811015620005465781810151838201526020016200052c565b50505050905090810190601f168015620005745780820380516001836020036101000a031916815260200191505b509250505060405180910390fd5b8260038101928215620005bc579160200282015b82811115620005bc578251829064ffffffffff1690559160200191906001019062000596565b50620005ca929150620005ce565b5090565b5b80821115620005ca5760008155600101620005cf565b60805160601c60a05160601c60c05160601c611f3d620006b16000398061056852806105f9528061074252806107f452806108355280610a9b5280610bf75280610fdd528061136852806114a75280611559528061189f5250806106aa528061095d5280610b3b5280610c655280610d295280610f8152806110365280611419525080610346528061040352806104985280610e1e5280610e985280610fb952806110f052806111ad528061124252806115a85280611622528061174152806117bb5250611f3d6000f3fe608060405234801561001057600080fd5b50600436106101005760003560e01c80638a4adf2411610097578063baa82a3411610066578063baa82a34146102ce578063dd0081c7146102fc578063ef9e237914610304578063fc0c546a1461033a57610100565b80638a4adf2414610276578063a488680f1461027e578063ae2841c714610286578063b7b11c5e146102b257610100565b80634f64b2be116100d35780634f64b2be146101e057806354575af4146102195780635a3874ac146102515780637dafa3641461025957610100565b8063248391ff1461010557806336cf893c1461014d5780633883e1191461018357806339ebf823146101a6575b600080fd5b61013b6004803603606081101561011b57600080fd5b506001600160a01b03813581169160208101359091169060400135610342565b60408051918252519081900360200190f35b61013b6004803603606081101561016357600080fd5b506001600160a01b03813581169160208101359091169060400135610a97565b61013b6004803603608081101561019957600080fd5b5060608101351515610d0f565b6101cc600480360360208110156101bc57600080fd5b50356001600160a01b0316610dcc565b604080519115158252519081900360200190f35b6101fd600480360360208110156101f657600080fd5b5035610de1565b604080516001600160a01b039092168252519081900360200190f35b61024f6004803603606081101561022f57600080fd5b506001600160a01b03813581169160208101359160409091013516610dfe565b005b6101fd610f7f565b61013b6004803603602081101561026f57600080fd5b5035610fa3565b6101fd610fb7565b6101fd610fdb565b61013b6004803603604081101561029c57600080fd5b50803590602001356001600160a01b0316610fff565b61013b600480360360608110156102c857600080fd5b506110ec565b61024f600480360360408110156102e457600080fd5b506001600160a01b0381351690602001351515611588565b61013b61171b565b61024f6004803603606081101561031a57600080fd5b506001600160a01b03813581169160208101359091169060400135611721565b6101fd61189d565b60007f00000000000000000000000000000000000000000000000000000000000000006001600160a01b031663a622ee7c336040518263ffffffff1660e01b815260040180826001600160a01b0316815260200191505060206040518083038186803b1580156103b157600080fd5b505afa1580156103c5573d6000803e3d6000fd5b505050506040513d60208110156103db57600080fd5b505180610476575060408051636d46114f60e11b815233600482015290516001600160a01b037f0000000000000000000000000000000000000000000000000000000000000000169163da8c229e916024808301926020929190829003018186803b15801561044957600080fd5b505afa15801561045d573d6000803e3d6000fd5b505050506040513d602081101561047357600080fd5b50515b8061049057503360009081526006602052604090205460ff165b8061052757507f00000000000000000000000000000000000000000000000000000000000000006001600160a01b0316635aa6e6756040518163ffffffff1660e01b815260040160206040518083038186803b1580156104ef57600080fd5b505afa158015610503573d6000803e3d6000fd5b505050506040513d602081101561051957600080fd5b50516001600160a01b031633145b610566576040805162461bcd60e51b815260206004820152600b60248201526a08585d5d1a1bdc9a5e995960aa1b604482015290519081900360640190fd5b7f00000000000000000000000000000000000000000000000000000000000000006001600160a01b0316836001600160a01b03161415610833576105a8611e42565b60005b60038160ff16101561082c5760038160ff16600381106105c757fe5b01546001600160a01b03878116911614156108245783828260ff16600381106105ec57fe5b60200201818152505060007f00000000000000000000000000000000000000000000000000000000000000006001600160a01b03166370a08231306040518263ffffffff1660e01b815260040180826001600160a01b0316815260200191505060206040518083038186803b15801561066457600080fd5b505afa158015610678573d6000803e3d6000fd5b505050506040513d602081101561068e57600080fd5b5051604051634515cef360e01b81529091506001600160a01b037f00000000000000000000000000000000000000000000000000000000000000001690634515cef39085906001906004018083606080838360005b838110156106fb5781810151838201526020016106e3565b5050505090500182815260200192505050600060405180830381600087803b15801561072657600080fd5b505af115801561073a573d6000803e3d6000fd5b5050505060007f00000000000000000000000000000000000000000000000000000000000000006001600160a01b03166370a08231306040518263ffffffff1660e01b815260040180826001600160a01b0316815260200191505060206040518083038186803b1580156107ad57600080fd5b505afa1580156107c1573d6000803e3d6000fd5b505050506040513d60208110156107d757600080fd5b505190506107e581836119eb565b945061081b6001600160a01b037f0000000000000000000000000000000000000000000000000000000000000000163387611a2d565b50505050610a90565b6001016105ab565b5050610a8c565b7f00000000000000000000000000000000000000000000000000000000000000006001600160a01b0316846001600160a01b03161415610a8c5760005b60038160ff161015610a8a5760038160ff166003811061088c57fe5b01546001600160a01b0385811691161415610a8257600060038260ff16600381106108b357fe5b0154604080516370a0823160e01b815230600482015290516001600160a01b03909216916370a0823191602480820192602092909190829003018186803b1580156108fd57600080fd5b505afa158015610911573d6000803e3d6000fd5b505050506040513d602081101561092757600080fd5b505160408051630d2680e960e11b81526004810187905260ff851660248201526001604482015290519192506001600160a01b037f00000000000000000000000000000000000000000000000000000000000000001691631a4d01d29160648082019260009290919082900301818387803b1580156109a557600080fd5b505af11580156109b9573d6000803e3d6000fd5b50505050600060038360ff16600381106109cf57fe5b0154604080516370a0823160e01b815230600482015290516001600160a01b03909216916370a0823191602480820192602092909190829003018186803b158015610a1957600080fd5b505afa158015610a2d573d6000803e3d6000fd5b505050506040513d6020811015610a4357600080fd5b50519050610a5181836119eb565b9350610a7a338560038660ff1660038110610a6857fe5b01546001600160a01b03169190611a2d565b505050610a90565b600101610870565b505b5060005b9392505050565b60007f00000000000000000000000000000000000000000000000000000000000000006001600160a01b0316836001600160a01b03161415610bf557610adb611e42565b60005b60038160ff16101561082c5760038160ff1660038110610afa57fe5b01546001600160a01b0387811691161415610bed5783828260ff1660038110610b1f57fe5b6020020152604051633883e11960e01b81526001600160a01b037f00000000000000000000000000000000000000000000000000000000000000001690633883e1199084906001906004018083606080838360005b83811015610b8c578181015183820152602001610b74565b5050505090500182151581526020019250505060206040518083038186803b158015610bb757600080fd5b505afa158015610bcb573d6000803e3d6000fd5b505050506040513d6020811015610be157600080fd5b50519250610a90915050565b600101610ade565b7f00000000000000000000000000000000000000000000000000000000000000006001600160a01b0316846001600160a01b03161415610a8c5760005b60038160ff161015610a8a5760038160ff1660038110610c4e57fe5b01546001600160a01b0385811691161415610d07577f00000000000000000000000000000000000000000000000000000000000000006001600160a01b031663cc2b27d784836040518363ffffffff1660e01b8152600401808381526020018260ff1681526020019250505060206040518083038186803b158015610cd257600080fd5b505afa158015610ce6573d6000803e3d6000fd5b505050506040513d6020811015610cfc57600080fd5b50519150610a909050565b600101610c32565b604051633883e11960e01b81526000906001600160a01b037f00000000000000000000000000000000000000000000000000000000000000001690633883e11990859085906004018083606080828437600083820152931515601f909401601f19169091019283525050604051602080830193509181900382018186803b158015610d9957600080fd5b505afa158015610dad573d6000803e3d6000fd5b505050506040513d6020811015610dc357600080fd5b50519392505050565b60066020526000908152604090205460ff1681565b60038160038110610dee57fe5b01546001600160a01b0316905081565b60408051636d46114f60e11b815233600482015290516001600160a01b037f0000000000000000000000000000000000000000000000000000000000000000169163da8c229e916024808301926020929190829003018186803b158015610e6457600080fd5b505afa158015610e78573d6000803e3d6000fd5b505050506040513d6020811015610e8e57600080fd5b505180610f2757507f00000000000000000000000000000000000000000000000000000000000000006001600160a01b0316635aa6e6756040518163ffffffff1660e01b815260040160206040518083038186803b158015610eef57600080fd5b505afa158015610f03573d6000803e3d6000fd5b505050506040513d6020811015610f1957600080fd5b50516001600160a01b031633145b610f66576040805162461bcd60e51b815260206004820152600b60248201526a21676f7665726e616e636560a81b604482015290519081900360640190fd5b610f7a6001600160a01b0384168284611a2d565b505050565b7f000000000000000000000000000000000000000000000000000000000000000081565b60008160038110610fb057fe5b0154905081565b7f000000000000000000000000000000000000000000000000000000000000000081565b7f000000000000000000000000000000000000000000000000000000000000000081565b6000805b60038160ff1610156110e05760038160ff166003811061101f57fe5b01546001600160a01b03848116911614156110d8577f00000000000000000000000000000000000000000000000000000000000000006001600160a01b031663cc2b27d785836040518363ffffffff1660e01b8152600401808381526020018260ff1681526020019250505060206040518083038186803b1580156110a357600080fd5b505afa1580156110b7573d6000803e3d6000fd5b505050506040513d60208110156110cd57600080fd5b505191506110e69050565b600101611003565b50600090505b92915050565b60007f00000000000000000000000000000000000000000000000000000000000000006001600160a01b031663a622ee7c336040518263ffffffff1660e01b815260040180826001600160a01b0316815260200191505060206040518083038186803b15801561115b57600080fd5b505afa15801561116f573d6000803e3d6000fd5b505050506040513d602081101561118557600080fd5b505180611220575060408051636d46114f60e11b815233600482015290516001600160a01b037f0000000000000000000000000000000000000000000000000000000000000000169163da8c229e916024808301926020929190829003018186803b1580156111f357600080fd5b505afa158015611207573d6000803e3d6000fd5b505050506040513d602081101561121d57600080fd5b50515b8061123a57503360009081526006602052604090205460ff165b806112d157507f00000000000000000000000000000000000000000000000000000000000000006001600160a01b0316635aa6e6756040518163ffffffff1660e01b815260040160206040518083038186803b15801561129957600080fd5b505afa1580156112ad573d6000803e3d6000fd5b505050506040513d60208110156112c357600080fd5b50516001600160a01b031633145b611310576040805162461bcd60e51b815260206004820152600b60248201526a08585d5d1a1bdc9a5e995960aa1b604482015290519081900360640190fd5b6000805b60038160ff1610156113635761135961135260008360ff166003811061133657fe5b0154868460ff166003811061134757fe5b602002013590611a7f565b8390611ad8565b9150600101611314565b5060007f00000000000000000000000000000000000000000000000000000000000000006001600160a01b03166370a08231306040518263ffffffff1660e01b815260040180826001600160a01b0316815260200191505060206040518083038186803b1580156113d357600080fd5b505afa1580156113e7573d6000803e3d6000fd5b505050506040513d60208110156113fd57600080fd5b5051604051634515cef360e01b81529091506001600160a01b037f00000000000000000000000000000000000000000000000000000000000000001690634515cef39086906001906004018083606080828437600081840152601f19601f82011690508083019250505082815260200192505050600060405180830381600087803b15801561148b57600080fd5b505af115801561149f573d6000803e3d6000fd5b5050505060007f00000000000000000000000000000000000000000000000000000000000000006001600160a01b03166370a08231306040518263ffffffff1660e01b815260040180826001600160a01b0316815260200191505060206040518083038186803b15801561151257600080fd5b505afa158015611526573d6000803e3d6000fd5b505050506040513d602081101561153c57600080fd5b5051905061154a81836119eb565b93506115806001600160a01b037f0000000000000000000000000000000000000000000000000000000000000000163386611a2d565b505050919050565b60408051636d46114f60e11b815233600482015290516001600160a01b037f0000000000000000000000000000000000000000000000000000000000000000169163da8c229e916024808301926020929190829003018186803b1580156115ee57600080fd5b505afa158015611602573d6000803e3d6000fd5b505050506040513d602081101561161857600080fd5b5051806116b157507f00000000000000000000000000000000000000000000000000000000000000006001600160a01b0316635aa6e6756040518163ffffffff1660e01b815260040160206040518083038186803b15801561167957600080fd5b505afa15801561168d573d6000803e3d6000fd5b505050506040513d60208110156116a357600080fd5b50516001600160a01b031633145b6116f0576040805162461bcd60e51b815260206004820152600b60248201526a21676f7665726e616e636560a81b604482015290519081900360640190fd5b6001600160a01b03919091166000908152600660205260409020805460ff1916911515919091179055565b61271081565b60408051636d46114f60e11b815233600482015290516001600160a01b037f0000000000000000000000000000000000000000000000000000000000000000169163da8c229e916024808301926020929190829003018186803b15801561178757600080fd5b505afa15801561179b573d6000803e3d6000fd5b505050506040513d60208110156117b157600080fd5b50518061184a57507f00000000000000000000000000000000000000000000000000000000000000006001600160a01b0316635aa6e6756040518163ffffffff1660e01b815260040160206040518083038186803b15801561181257600080fd5b505afa158015611826573d6000803e3d6000fd5b505050506040513d602081101561183c57600080fd5b50516001600160a01b031633145b611889576040805162461bcd60e51b815260206004820152600b60248201526a21676f7665726e616e636560a81b604482015290519081900360640190fd5b610f7a6001600160a01b03841683836118c1565b7f000000000000000000000000000000000000000000000000000000000000000090565b801580611947575060408051636eb1769f60e11b81523060048201526001600160a01b03848116602483015291519185169163dd62ed3e91604480820192602092909190829003018186803b15801561191957600080fd5b505afa15801561192d573d6000803e3d6000fd5b505050506040513d602081101561194357600080fd5b5051155b6119825760405162461bcd60e51b8152600401808060200182810382526036815260200180611ed26036913960400191505060405180910390fd5b604080516001600160a01b038416602482015260448082018490528251808303909101815260649091019091526020810180516001600160e01b031663095ea7b360e01b179052610f7a908490611b32565b60606119e38484600085611be3565b949350505050565b6000610a9083836040518060400160405280601e81526020017f536166654d6174683a207375627472616374696f6e206f766572666c6f770000815250611d3f565b604080516001600160a01b038416602482015260448082018490528251808303909101815260649091019091526020810180516001600160e01b031663a9059cbb60e01b179052610f7a908490611b32565b600082611a8e575060006110e6565b82820282848281611a9b57fe5b0414610a905760405162461bcd60e51b8152600401808060200182810382526021815260200180611e876021913960400191505060405180910390fd5b600082820183811015610a90576040805162461bcd60e51b815260206004820152601b60248201527f536166654d6174683a206164646974696f6e206f766572666c6f770000000000604482015290519081900360640190fd5b6060611b87826040518060400160405280602081526020017f5361666545524332303a206c6f772d6c6576656c2063616c6c206661696c6564815250856001600160a01b03166119d49092919063ffffffff16565b805190915015610f7a57808060200190516020811015611ba657600080fd5b5051610f7a5760405162461bcd60e51b815260040180806020018281038252602a815260200180611ea8602a913960400191505060405180910390fd5b606082471015611c245760405162461bcd60e51b8152600401808060200182810382526026815260200180611e616026913960400191505060405180910390fd5b611c2d85611dd6565b611c7e576040805162461bcd60e51b815260206004820152601d60248201527f416464726573733a2063616c6c20746f206e6f6e2d636f6e7472616374000000604482015290519081900360640190fd5b60006060866001600160a01b031685876040518082805190602001908083835b60208310611cbd5780518252601f199092019160209182019101611c9e565b6001836020036101000a03801982511681845116808217855250505050505090500191505060006040518083038185875af1925050503d8060008114611d1f576040519150601f19603f3d011682016040523d82523d6000602084013e611d24565b606091505b5091509150611d34828286611ddc565b979650505050505050565b60008184841115611dce5760405162461bcd60e51b81526004018080602001828103825283818151815260200191508051906020019080838360005b83811015611d93578181015183820152602001611d7b565b50505050905090810190601f168015611dc05780820380516001836020036101000a031916815260200191505b509250505060405180910390fd5b505050900390565b3b151590565b60608315611deb575081610a90565b825115611dfb5782518084602001fd5b60405162461bcd60e51b8152602060048201818152845160248401528451859391928392604401919085019080838360008315611d93578181015183820152602001611d7b565b6040518060600160405280600390602082028036833750919291505056fe416464726573733a20696e73756666696369656e742062616c616e636520666f722063616c6c536166654d6174683a206d756c7469706c69636174696f6e206f766572666c6f775361666545524332303a204552433230206f7065726174696f6e20646964206e6f7420737563636565645361666545524332303a20617070726f76652066726f6d206e6f6e2d7a65726f20746f206e6f6e2d7a65726f20616c6c6f77616e6365a264697066735822122077fa4ca1aa561cc6688a60e9f0a0f64945220783b011008ab0c487db60219d4764736f6c634300060c0033416464726573733a20696e73756666696369656e742062616c616e636520666f722063616c6c5361666545524332303a204552433230206f7065726174696f6e20646964206e6f7420737563636565645361666545524332303a20617070726f76652066726f6d206e6f6e2d7a65726f20746f206e6f6e2d7a65726f20616c6c6f77616e6365",
  "devdoc": {
    "kind": "dev",
    "methods": {
      "approveForSpender(address,address,uint256)": {
        "params": {
          "_amount": "The amount to spend",
          "_spender": "The address of the spender",
          "_token": "The address of the token"
        }
      },
      "calc_token_amount(uint256[3],bool)": {
        "details": "0: DAI, 1: USDC, 2: USDT",
        "params": {
          "amounts": "Array of token amounts",
          "deposit": "Flag for depositing LP tokens"
        }
      },
      "calc_token_amount_withdraw(uint256,address)": {
        "params": {
          "_output": "The address of the output token",
          "_shares": "The amount of 3CRV"
        }
      },
      "constructor": {
        "params": {
          "_stableSwap3Pool": "The address of 3Pool",
          "_token3CRV": "The address of the 3CRV token",
          "_tokenDAI": "The address of the DAI token",
          "_tokenUSDC": "The address of the USDC token",
          "_tokenUSDT": "The address of the USDT token",
          "_vaultManager": "The address of the Vault Manager"
        }
      },
      "convert(address,address,uint256)": {
        "params": {
          "_input": "The address of the token being converted",
          "_inputAmount": "The input amount of tokens that are being converted",
          "_output": "The address of the token to be converted to"
        }
      },
      "convert_rate(address,address,uint256)": {
        "params": {
          "_input": "The address of the token being converted",
          "_inputAmount": "The input amount of tokens that are being converted",
          "_output": "The address of the token to be converted to"
        }
      },
      "convert_stables(uint256[3])": {
        "details": "0: DAI, 1: USDC, 2: USDT",
        "params": {
          "amounts": "Array of token amounts"
        }
      },
      "governanceRecoverUnsupported(address,uint256,address)": {
        "details": "This contract should never have any tokens in it at the end of a transaction",
        "params": {
          "_amount": "The amount to withdraw",
          "_to": "The address to receive the tokens",
          "_token": "The address of the token"
        }
      },
      "setStrategy(address,bool)": {
        "params": {
          "_status": "The bool flag allowing or disallowing use of the converter by the strategy",
          "_strategy": "The address of the strategy"
        }
      }
    },
    "title": "StableSwap3PoolConverter",
    "version": 1
  },
  "userdoc": {
    "kind": "user",
    "methods": {
      "approveForSpender(address,address,uint256)": {
        "notice": "Called by Governance to approve a token address to be spent by an address"
      },
      "calc_token_amount(uint256[3],bool)": {
        "notice": "Checks the amount of 3CRV given for the amounts"
      },
      "calc_token_amount_withdraw(uint256,address)": {
        "notice": "Checks the amount of an output token given for 3CRV"
      },
      "convert(address,address,uint256)": {
        "notice": "Converts the amount of input tokens to output tokens"
      },
      "convert_rate(address,address,uint256)": {
        "notice": "Checks the amount of input tokens to output tokens"
      },
      "convert_stables(uint256[3])": {
        "notice": "Converts stables of the 3Pool to 3CRV"
      },
      "governanceRecoverUnsupported(address,uint256,address)": {
        "notice": "Allows Governance to withdraw tokens from the converter"
      },
      "setStrategy(address,bool)": {
        "notice": "Called by Governance to enable or disable a strategy to use the converter"
      },
      "token()": {
        "notice": "Returns the address of the 3CRV token"
      }
    },
    "notice": "The StableSwap3PoolConverter is used to convert funds on Curve's 3Pool. This is an unsafe version that does not guard against slippage.",
    "version": 1
  },
  "storageLayout": {
    "storage": [
      {
        "astId": 3381,
        "contract": "contracts/metavault/StableSwap3PoolConverter.sol:StableSwap3PoolConverter",
        "label": "PRECISION_MUL",
        "offset": 0,
        "slot": "0",
        "type": "t_array(t_uint256)3_storage"
      },
      {
        "astId": 3385,
        "contract": "contracts/metavault/StableSwap3PoolConverter.sol:StableSwap3PoolConverter",
        "label": "tokens",
        "offset": 0,
        "slot": "3",
        "type": "t_array(t_contract(IERC20)981)3_storage"
      },
      {
        "astId": 3389,
        "contract": "contracts/metavault/StableSwap3PoolConverter.sol:StableSwap3PoolConverter",
        "label": "strategies",
        "offset": 0,
        "slot": "6",
        "type": "t_mapping(t_address,t_bool)"
      }
    ],
    "types": {
      "t_address": {
        "encoding": "inplace",
        "label": "address",
        "numberOfBytes": "20"
      },
      "t_array(t_contract(IERC20)981)3_storage": {
        "base": "t_contract(IERC20)981",
        "encoding": "inplace",
        "label": "contract IERC20[3]",
        "numberOfBytes": "96"
      },
      "t_array(t_uint256)3_storage": {
        "base": "t_uint256",
        "encoding": "inplace",
        "label": "uint256[3]",
        "numberOfBytes": "96"
      },
      "t_bool": {
        "encoding": "inplace",
        "label": "bool",
        "numberOfBytes": "1"
      },
      "t_contract(IERC20)981": {
        "encoding": "inplace",
        "label": "contract IERC20",
        "numberOfBytes": "20"
      },
      "t_mapping(t_address,t_bool)": {
        "encoding": "mapping",
        "key": "t_address",
        "label": "mapping(address => bool)",
        "numberOfBytes": "32",
        "value": "t_bool"
      },
      "t_uint256": {
        "encoding": "inplace",
        "label": "uint256",
        "numberOfBytes": "32"
      }
    }
  }
}