{
  "address": "0xe9aeB4482c846e48Ca021a75A3E2f492485e881e",
  "abi": [
    {
      "inputs": [
        {
          "internalType": "contract IERC20",
          "name": "_tokenDAI",
          "type": "address"
        },
        {
          "internalType": "contract IERC20",
          "name": "_tokenUSDC",
          "type": "address"
        },
        {
          "internalType": "contract IERC20",
          "name": "_tokenUSDT",
          "type": "address"
        },
        {
          "internalType": "contract IERC20",
          "name": "_token3CRV",
          "type": "address"
        },
        {
          "internalType": "contract IStableSwap3Pool",
          "name": "_stableSwap3Pool",
          "type": "address"
        },
        {
          "internalType": "contract IVaultManager",
          "name": "_vaultManager",
          "type": "address"
        },
        {
          "internalType": "contract IStableSwap3PoolOracle",
          "name": "_oracle",
          "type": "address"
        }
      ],
      "stateMutability": "nonpayable",
      "type": "constructor"
    },
    {
      "inputs": [],
      "name": "ONE_HUNDRED_PERCENT",
      "outputs": [
        {
          "internalType": "uint256",
          "name": "",
          "type": "uint256"
        }
      ],
      "stateMutability": "view",
      "type": "function"
    },
    {
      "inputs": [
        {
          "internalType": "uint256",
          "name": "",
          "type": "uint256"
        }
      ],
      "name": "PRECISION_MUL",
      "outputs": [
        {
          "internalType": "uint256",
          "name": "",
          "type": "uint256"
        }
      ],
      "stateMutability": "view",
      "type": "function"
    },
    {
      "inputs": [
        {
          "internalType": "contract IERC20",
          "name": "_token",
          "type": "address"
        },
        {
          "internalType": "address",
          "name": "_spender",
          "type": "address"
        },
        {
          "internalType": "uint256",
          "name": "_amount",
          "type": "uint256"
        }
      ],
      "name": "approveForSpender",
      "outputs": [],
      "stateMutability": "nonpayable",
      "type": "function"
    },
    {
      "inputs": [
        {
          "internalType": "uint256[3]",
          "name": "amounts",
          "type": "uint256[3]"
        },
        {
          "internalType": "bool",
          "name": "deposit",
          "type": "bool"
        }
      ],
      "name": "calc_token_amount",
      "outputs": [
        {
          "internalType": "uint256",
          "name": "_shareAmount",
          "type": "uint256"
        }
      ],
      "stateMutability": "view",
      "type": "function"
    },
    {
      "inputs": [
        {
          "internalType": "uint256",
          "name": "_shares",
          "type": "uint256"
        },
        {
          "internalType": "address",
          "name": "_output",
          "type": "address"
        }
      ],
      "name": "calc_token_amount_withdraw",
      "outputs": [
        {
          "internalType": "uint256",
          "name": "",
          "type": "uint256"
        }
      ],
      "stateMutability": "view",
      "type": "function"
    },
    {
      "inputs": [
        {
          "internalType": "address",
          "name": "_input",
          "type": "address"
        },
        {
          "internalType": "address",
          "name": "_output",
          "type": "address"
        },
        {
          "internalType": "uint256",
          "name": "_inputAmount",
          "type": "uint256"
        }
      ],
      "name": "convert",
      "outputs": [
        {
          "internalType": "uint256",
          "name": "_outputAmount",
          "type": "uint256"
        }
      ],
      "stateMutability": "nonpayable",
      "type": "function"
    },
    {
      "inputs": [
        {
          "internalType": "address",
          "name": "_input",
          "type": "address"
        },
        {
          "internalType": "address",
          "name": "_output",
          "type": "address"
        },
        {
          "internalType": "uint256",
          "name": "_inputAmount",
          "type": "uint256"
        }
      ],
      "name": "convert_rate",
      "outputs": [
        {
          "internalType": "uint256",
          "name": "",
          "type": "uint256"
        }
      ],
      "stateMutability": "view",
      "type": "function"
    },
    {
      "inputs": [
        {
          "internalType": "uint256[3]",
          "name": "amounts",
          "type": "uint256[3]"
        }
      ],
      "name": "convert_stables",
      "outputs": [
        {
          "internalType": "uint256",
          "name": "_shareAmount",
          "type": "uint256"
        }
      ],
      "stateMutability": "nonpayable",
      "type": "function"
    },
    {
      "inputs": [
        {
          "internalType": "uint256",
          "name": "_inputAmount",
          "type": "uint256"
        }
      ],
      "name": "getExpected",
      "outputs": [
        {
          "internalType": "uint256",
          "name": "_min",
          "type": "uint256"
        },
        {
          "internalType": "uint256",
          "name": "_max",
          "type": "uint256"
        }
      ],
      "stateMutability": "view",
      "type": "function"
    },
    {
      "inputs": [
        {
          "internalType": "contract IERC20",
          "name": "_token",
          "type": "address"
        },
        {
          "internalType": "uint256",
          "name": "_amount",
          "type": "uint256"
        },
        {
          "internalType": "address",
          "name": "_to",
          "type": "address"
        }
      ],
      "name": "governanceRecoverUnsupported",
      "outputs": [],
      "stateMutability": "nonpayable",
      "type": "function"
    },
    {
      "inputs": [],
      "name": "oracle",
      "outputs": [
        {
          "internalType": "contract IStableSwap3PoolOracle",
          "name": "",
          "type": "address"
        }
      ],
      "stateMutability": "view",
      "type": "function"
    },
    {
      "inputs": [
        {
          "internalType": "address",
          "name": "_strategy",
          "type": "address"
        },
        {
          "internalType": "bool",
          "name": "_status",
          "type": "bool"
        }
      ],
      "name": "setStrategy",
      "outputs": [],
      "stateMutability": "nonpayable",
      "type": "function"
    },
    {
      "inputs": [],
      "name": "stableSwap3Pool",
      "outputs": [
        {
          "internalType": "contract IStableSwap3Pool",
          "name": "",
          "type": "address"
        }
      ],
      "stateMutability": "view",
      "type": "function"
    },
    {
      "inputs": [
        {
          "internalType": "address",
          "name": "",
          "type": "address"
        }
      ],
      "name": "strategies",
      "outputs": [
        {
          "internalType": "bool",
          "name": "",
          "type": "bool"
        }
      ],
      "stateMutability": "view",
      "type": "function"
    },
    {
      "inputs": [],
      "name": "token",
      "outputs": [
        {
          "internalType": "address",
          "name": "",
          "type": "address"
        }
      ],
      "stateMutability": "view",
      "type": "function"
    },
    {
      "inputs": [],
      "name": "token3CRV",
      "outputs": [
        {
          "internalType": "contract IERC20",
          "name": "",
          "type": "address"
        }
      ],
      "stateMutability": "view",
      "type": "function"
    },
    {
      "inputs": [
        {
          "internalType": "uint256",
          "name": "",
          "type": "uint256"
        }
      ],
      "name": "tokens",
      "outputs": [
        {
          "internalType": "contract IERC20",
          "name": "",
          "type": "address"
        }
      ],
      "stateMutability": "view",
      "type": "function"
    },
    {
      "inputs": [],
      "name": "vaultManager",
      "outputs": [
        {
          "internalType": "contract IVaultManager",
          "name": "",
          "type": "address"
        }
      ],
      "stateMutability": "view",
      "type": "function"
    }
  ],
  "transactionHash": "0x672fd0ef9590f35bd79bffa6b36167a63782c4064fbc6bd0f2559425b0f18256",
  "args": [
    "0x6B175474E89094C44Da98b954EedeAC495271d0F",
    "0xA0b86991c6218b36c1d19D4a2e9Eb0cE3606eB48",
    "0xdAC17F958D2ee523a2206206994597C13D831ec7",
    "0x6c3F90f043a72FA612cbac8115EE7e52BDe6E490",
    "0xbEbc44782C7dB0a1A60Cb6fe97d0b483032FF1C7",
    "0x443ed48F975E02eA67CA0d2be0B4d4806d1E31F2",
    "0x2a09392a6FbE7C5b9cA686a5f89387CD0045ea35"
  ],
  "solcInputHash": "c715f81b598dd8c3d93b2941748f27c6",
  "bytecode": "0x610160604052600161010090815264e8d4a51000610120819052610140526200002d90600090600362000595565b503480156200003b57600080fd5b5060405162002a5938038062002a59833981810160405260e08110156200006157600080fd5b50805160208201516040830151606080850151608086015160a087015160c097880151600380546001600160a01b03808b166001600160a01b031992831617835560048054828c169084161790556005805490921690891617905584861b6001600160601b031990811660e0529584901b90951690985295969495939491939092909190620001129084906000199060005b01546001600160a01b0316919062000182602090811b62001bd617901c565b620001248360001960036001620000f3565b620001368360001960036002620000f3565b6200015d83600019866001600160a01b03166200018260201b62001bd6179092919060201c565b6001600160601b0319606092831b8116608052911b1660a05250620005f89350505050565b8015806200020c575060408051636eb1769f60e11b81523060048201526001600160a01b03848116602483015291519185169163dd62ed3e91604480820192602092909190829003018186803b158015620001dc57600080fd5b505afa158015620001f1573d6000803e3d6000fd5b505050506040513d60208110156200020857600080fd5b5051155b620002495760405162461bcd60e51b815260040180806020018281038252603681526020018062002a236036913960400191505060405180910390fd5b604080516001600160a01b038416602482015260448082018490528251808303909101815260649091019091526020810180516001600160e01b0390811663095ea7b360e01b17909152620002a1918591620002a616565b505050565b606062000302826040518060400160405280602081526020017f5361666545524332303a206c6f772d6c6576656c2063616c6c206661696c6564815250856001600160a01b03166200036260201b62001ce9179092919060201c565b805190915015620002a1578080602001905160208110156200032357600080fd5b5051620002a15760405162461bcd60e51b815260040180806020018281038252602a815260200180620029f9602a913960400191505060405180910390fd5b60606200037384846000856200037d565b90505b9392505050565b606082471015620003c05760405162461bcd60e51b8152600401808060200182810382526026815260200180620029d36026913960400191505060405180910390fd5b620003cb85620004e5565b6200041d576040805162461bcd60e51b815260206004820152601d60248201527f416464726573733a2063616c6c20746f206e6f6e2d636f6e7472616374000000604482015290519081900360640190fd5b60006060866001600160a01b031685876040518082805190602001908083835b602083106200045e5780518252601f1990920191602091820191016200043d565b6001836020036101000a03801982511681845116808217855250505050505090500191505060006040518083038185875af1925050503d8060008114620004c2576040519150601f19603f3d011682016040523d82523d6000602084013e620004c7565b606091505b509092509050620004da828286620004eb565b979650505050505050565b3b151590565b60608315620004fc57508162000376565b8251156200050d5782518084602001fd5b8160405162461bcd60e51b81526004018080602001828103825283818151815260200191508051906020019080838360005b83811015620005595781810151838201526020016200053f565b50505050905090810190601f168015620005875780820380516001836020036101000a031916815260200191505b509250505060405180910390fd5b8260038101928215620005cf579160200282015b82811115620005cf578251829064ffffffffff16905591602001919060010190620005a9565b50620005dd929150620005e1565b5090565b5b80821115620005dd5760008155600101620005e2565b60805160601c60a05160601c60c05160601c60e05160601c6122f9620006da6000398061072c52806107e852806109305280610a1f5280610a625280610d335280610e8f52806112a4528061163f528061177d528061186c5280611bb45250806108995280610b725280610dd35280610efd5280610fcc528061122452806112fd52806116f052508061039b5280610447528061125c52508061050a52806105c7528061065c52806110c1528061113b528061128052806113b75280611474528061150952806118bd52806119375280611a565280611ad052506122f96000f3fe608060405234801561001057600080fd5b50600436106101165760003560e01c80637dc0d1d0116100a2578063b7b11c5e11610071578063b7b11c5e14610306578063baa82a3414610322578063dd0081c714610350578063ef9e237914610358578063fc0c546a1461038e57610116565b80637dc0d1d0146102c25780638a4adf24146102ca578063a488680f146102d2578063ae2841c7146102da57610116565b806339ebf823116100e957806339ebf823146101f25780634f64b2be1461022c57806354575af4146102655780635a3874ac1461029d5780637dafa364146102a557610116565b8063187c5f581461011b578063248391ff1461015157806336cf893c146101995780633883e119146101cf575b600080fd5b6101386004803603602081101561013157600080fd5b5035610396565b6040805192835260208301919091528051918290030190f35b6101876004803603606081101561016757600080fd5b506001600160a01b03813581169160208101359091169060400135610506565b60408051918252519081900360200190f35b610187600480360360608110156101af57600080fd5b506001600160a01b03813581169160208101359091169060400135610d2f565b610187600480360360808110156101e557600080fd5b5060608101351515610fb2565b6102186004803603602081101561020857600080fd5b50356001600160a01b031661106f565b604080519115158252519081900360200190f35b6102496004803603602081101561024257600080fd5b5035611084565b604080516001600160a01b039092168252519081900360200190f35b61029b6004803603606081101561027b57600080fd5b506001600160a01b038135811691602081013591604090910135166110a1565b005b610249611222565b610187600480360360208110156102bb57600080fd5b5035611246565b61024961125a565b61024961127e565b6102496112a2565b610187600480360360408110156102f057600080fd5b50803590602001356001600160a01b03166112c6565b6101876004803603606081101561031c57600080fd5b506113b3565b61029b6004803603604081101561033857600080fd5b506001600160a01b038135169060200135151561189d565b610187611a30565b61029b6004803603606081101561036e57600080fd5b506001600160a01b03813581169160208101359091169060400135611a36565b610249611bb2565b6000807f00000000000000000000000000000000000000000000000000000000000000006001600160a01b031663bd9a548b6040518163ffffffff1660e01b8152600401604080518083038186803b1580156103f157600080fd5b505afa158015610405573d6000803e3d6000fd5b505050506040513d604081101561041b57600080fd5b50805160209182015160408051639bddd05f60e01b815290519295509093506000926001600160a01b037f00000000000000000000000000000000000000000000000000000000000000001692639bddd05f926004808201939291829003018186803b15801561048a57600080fd5b505afa15801561049e573d6000803e3d6000fd5b505050506040513d60208110156104b457600080fd5b505190506104e0670de0b6b3a76400006104da8181876104d48a88611d00565b90611d00565b90611d59565b92506104fe670de0b6b3a76400006104da8181866104d48a88611d00565b915050915091565b60007f00000000000000000000000000000000000000000000000000000000000000006001600160a01b031663a622ee7c336040518263ffffffff1660e01b815260040180826001600160a01b0316815260200191505060206040518083038186803b15801561057557600080fd5b505afa158015610589573d6000803e3d6000fd5b505050506040513d602081101561059f57600080fd5b50518061063a575060408051636d46114f60e11b815233600482015290516001600160a01b037f0000000000000000000000000000000000000000000000000000000000000000169163da8c229e916024808301926020929190829003018186803b15801561060d57600080fd5b505afa158015610621573d6000803e3d6000fd5b505050506040513d602081101561063757600080fd5b50515b8061065457503360009081526006602052604090205460ff165b806106eb57507f00000000000000000000000000000000000000000000000000000000000000006001600160a01b0316635aa6e6756040518163ffffffff1660e01b815260040160206040518083038186803b1580156106b357600080fd5b505afa1580156106c7573d6000803e3d6000fd5b505050506040513d60208110156106dd57600080fd5b50516001600160a01b031633145b61072a576040805162461bcd60e51b815260206004820152600b60248201526a08585d5d1a1bdc9a5e995960aa1b604482015290519081900360640190fd5b7f00000000000000000000000000000000000000000000000000000000000000006001600160a01b0316836001600160a01b03161415610a605761076c6121fe565b60005b60038160ff161015610a595760038160ff166003811061078b57fe5b01546001600160a01b0387811691161415610a51576000806107c76107c260008560ff16600381106107b957fe5b01548890611d00565b610396565b9150915085848460ff16600381106107db57fe5b60200201818152505060007f00000000000000000000000000000000000000000000000000000000000000006001600160a01b03166370a08231306040518263ffffffff1660e01b815260040180826001600160a01b0316815260200191505060206040518083038186803b15801561085357600080fd5b505afa158015610867573d6000803e3d6000fd5b505050506040513d602081101561087d57600080fd5b5051604051634515cef360e01b81529091506001600160a01b037f00000000000000000000000000000000000000000000000000000000000000001690634515cef390879086906004018083606080838360005b838110156108e95781810151838201526020016108d1565b5050505090500182815260200192505050600060405180830381600087803b15801561091457600080fd5b505af1158015610928573d6000803e3d6000fd5b5050505060007f00000000000000000000000000000000000000000000000000000000000000006001600160a01b03166370a08231306040518263ffffffff1660e01b815260040180826001600160a01b0316815260200191505060206040518083038186803b15801561099b57600080fd5b505afa1580156109af573d6000803e3d6000fd5b505050506040513d60208110156109c557600080fd5b505190506109d38183611d9b565b965082871115610a12576040805162461bcd60e51b815260206004820152600560248201526407cbedac2f60db1b604482015290519081900360640190fd5b610a466001600160a01b037f0000000000000000000000000000000000000000000000000000000000000000163389611ddd565b505050505050610d28565b60010161076f565b5050610d24565b7f00000000000000000000000000000000000000000000000000000000000000006001600160a01b0316846001600160a01b03161415610d2457600080610aa684610396565b9150915060005b60038160ff161015610d205760038160ff1660038110610ac957fe5b01546001600160a01b0387811691161415610d1857600060038260ff1660038110610af057fe5b0154604080516370a0823160e01b815230600482015290516001600160a01b03909216916370a0823191602480820192602092909190829003018186803b158015610b3a57600080fd5b505afa158015610b4e573d6000803e3d6000fd5b505050506040513d6020811015610b6457600080fd5b505190506001600160a01b037f000000000000000000000000000000000000000000000000000000000000000016631a4d01d28784610bb5600060ff831660038110610bac57fe5b01548990611d59565b6040518463ffffffff1660e01b8152600401808481526020018360ff1681526020018281526020019350505050600060405180830381600087803b158015610bfc57600080fd5b505af1158015610c10573d6000803e3d6000fd5b50505050600060038360ff1660038110610c2657fe5b0154604080516370a0823160e01b815230600482015290516001600160a01b03909216916370a0823191602480820192602092909190829003018186803b158015610c7057600080fd5b505afa158015610c84573d6000803e3d6000fd5b505050506040513d6020811015610c9a57600080fd5b50519050610ca88183611d9b565b955083861115610ce7576040805162461bcd60e51b815260206004820152600560248201526407cbedac2f60db1b604482015290519081900360640190fd5b610d0e338760038660ff1660038110610cfc57fe5b01546001600160a01b03169190611ddd565b5050505050610d28565b600101610aad565b5050505b5060005b9392505050565b60007f00000000000000000000000000000000000000000000000000000000000000006001600160a01b0316836001600160a01b03161415610e8d57610d736121fe565b60005b60038160ff161015610a595760038160ff1660038110610d9257fe5b01546001600160a01b0387811691161415610e855783828260ff1660038110610db757fe5b6020020152604051633883e11960e01b81526001600160a01b037f00000000000000000000000000000000000000000000000000000000000000001690633883e1199084906001906004018083606080838360005b83811015610e24578181015183820152602001610e0c565b5050505090500182151581526020019250505060206040518083038186803b158015610e4f57600080fd5b505afa158015610e63573d6000803e3d6000fd5b505050506040513d6020811015610e7957600080fd5b50519250610d28915050565b600101610d76565b7f00000000000000000000000000000000000000000000000000000000000000006001600160a01b0316846001600160a01b03161415610d245760005b60038160ff161015610fa75760038160ff1660038110610ee657fe5b01546001600160a01b0385811691161415610f9f577f00000000000000000000000000000000000000000000000000000000000000006001600160a01b031663cc2b27d784836040518363ffffffff1660e01b8152600401808381526020018260ff1681526020019250505060206040518083038186803b158015610f6a57600080fd5b505afa158015610f7e573d6000803e3d6000fd5b505050506040513d6020811015610f9457600080fd5b50519150610d289050565b600101610eca565b505060009392505050565b604051633883e11960e01b81526000906001600160a01b037f00000000000000000000000000000000000000000000000000000000000000001690633883e11990859085906004018083606080828437600083820152931515601f909401601f19169091019283525050604051602080830193509181900382018186803b15801561103c57600080fd5b505afa158015611050573d6000803e3d6000fd5b505050506040513d602081101561106657600080fd5b50519392505050565b60066020526000908152604090205460ff1681565b6003816003811061109157fe5b01546001600160a01b0316905081565b60408051636d46114f60e11b815233600482015290516001600160a01b037f0000000000000000000000000000000000000000000000000000000000000000169163da8c229e916024808301926020929190829003018186803b15801561110757600080fd5b505afa15801561111b573d6000803e3d6000fd5b505050506040513d602081101561113157600080fd5b5051806111ca57507f00000000000000000000000000000000000000000000000000000000000000006001600160a01b0316635aa6e6756040518163ffffffff1660e01b815260040160206040518083038186803b15801561119257600080fd5b505afa1580156111a6573d6000803e3d6000fd5b505050506040513d60208110156111bc57600080fd5b50516001600160a01b031633145b611209576040805162461bcd60e51b815260206004820152600b60248201526a21676f7665726e616e636560a81b604482015290519081900360640190fd5b61121d6001600160a01b0384168284611ddd565b505050565b7f000000000000000000000000000000000000000000000000000000000000000081565b6000816003811061125357fe5b0154905081565b7f000000000000000000000000000000000000000000000000000000000000000081565b7f000000000000000000000000000000000000000000000000000000000000000081565b7f000000000000000000000000000000000000000000000000000000000000000081565b6000805b60038160ff1610156113a75760038160ff16600381106112e657fe5b01546001600160a01b038481169116141561139f577f00000000000000000000000000000000000000000000000000000000000000006001600160a01b031663cc2b27d785836040518363ffffffff1660e01b8152600401808381526020018260ff1681526020019250505060206040518083038186803b15801561136a57600080fd5b505afa15801561137e573d6000803e3d6000fd5b505050506040513d602081101561139457600080fd5b505191506113ad9050565b6001016112ca565b50600090505b92915050565b60007f00000000000000000000000000000000000000000000000000000000000000006001600160a01b031663a622ee7c336040518263ffffffff1660e01b815260040180826001600160a01b0316815260200191505060206040518083038186803b15801561142257600080fd5b505afa158015611436573d6000803e3d6000fd5b505050506040513d602081101561144c57600080fd5b5051806114e7575060408051636d46114f60e11b815233600482015290516001600160a01b037f0000000000000000000000000000000000000000000000000000000000000000169163da8c229e916024808301926020929190829003018186803b1580156114ba57600080fd5b505afa1580156114ce573d6000803e3d6000fd5b505050506040513d60208110156114e457600080fd5b50515b8061150157503360009081526006602052604090205460ff165b8061159857507f00000000000000000000000000000000000000000000000000000000000000006001600160a01b0316635aa6e6756040518163ffffffff1660e01b815260040160206040518083038186803b15801561156057600080fd5b505afa158015611574573d6000803e3d6000fd5b505050506040513d602081101561158a57600080fd5b50516001600160a01b031633145b6115d7576040805162461bcd60e51b815260206004820152600b60248201526a08585d5d1a1bdc9a5e995960aa1b604482015290519081900360640190fd5b6000805b60038160ff16101561162a5761162061161960008360ff16600381106115fd57fe5b0154868460ff166003811061160e57fe5b602002013590611d00565b8390611e2f565b91506001016115db565b5060008061163783610396565b9150915060007f00000000000000000000000000000000000000000000000000000000000000006001600160a01b03166370a08231306040518263ffffffff1660e01b815260040180826001600160a01b0316815260200191505060206040518083038186803b1580156116aa57600080fd5b505afa1580156116be573d6000803e3d6000fd5b505050506040513d60208110156116d457600080fd5b5051604051634515cef360e01b81529091506001600160a01b037f00000000000000000000000000000000000000000000000000000000000000001690634515cef390889086906004018083606080828437600081840152601f19601f82011690508083019250505082815260200192505050600060405180830381600087803b15801561176157600080fd5b505af1158015611775573d6000803e3d6000fd5b5050505060007f00000000000000000000000000000000000000000000000000000000000000006001600160a01b03166370a08231306040518263ffffffff1660e01b815260040180826001600160a01b0316815260200191505060206040518083038186803b1580156117e857600080fd5b505afa1580156117fc573d6000803e3d6000fd5b505050506040513d602081101561181257600080fd5b505190506118208183611d9b565b95508286111561185f576040805162461bcd60e51b815260206004820152600560248201526407cbedac2f60db1b604482015290519081900360640190fd5b6118936001600160a01b037f0000000000000000000000000000000000000000000000000000000000000000163388611ddd565b5050505050919050565b60408051636d46114f60e11b815233600482015290516001600160a01b037f0000000000000000000000000000000000000000000000000000000000000000169163da8c229e916024808301926020929190829003018186803b15801561190357600080fd5b505afa158015611917573d6000803e3d6000fd5b505050506040513d602081101561192d57600080fd5b5051806119c657507f00000000000000000000000000000000000000000000000000000000000000006001600160a01b0316635aa6e6756040518163ffffffff1660e01b815260040160206040518083038186803b15801561198e57600080fd5b505afa1580156119a2573d6000803e3d6000fd5b505050506040513d60208110156119b857600080fd5b50516001600160a01b031633145b611a05576040805162461bcd60e51b815260206004820152600b60248201526a21676f7665726e616e636560a81b604482015290519081900360640190fd5b6001600160a01b03919091166000908152600660205260409020805460ff1916911515919091179055565b61271081565b60408051636d46114f60e11b815233600482015290516001600160a01b037f0000000000000000000000000000000000000000000000000000000000000000169163da8c229e916024808301926020929190829003018186803b158015611a9c57600080fd5b505afa158015611ab0573d6000803e3d6000fd5b505050506040513d6020811015611ac657600080fd5b505180611b5f57507f00000000000000000000000000000000000000000000000000000000000000006001600160a01b0316635aa6e6756040518163ffffffff1660e01b815260040160206040518083038186803b158015611b2757600080fd5b505afa158015611b3b573d6000803e3d6000fd5b505050506040513d6020811015611b5157600080fd5b50516001600160a01b031633145b611b9e576040805162461bcd60e51b815260206004820152600b60248201526a21676f7665726e616e636560a81b604482015290519081900360640190fd5b61121d6001600160a01b0384168383611bd6565b7f000000000000000000000000000000000000000000000000000000000000000090565b801580611c5c575060408051636eb1769f60e11b81523060048201526001600160a01b03848116602483015291519185169163dd62ed3e91604480820192602092909190829003018186803b158015611c2e57600080fd5b505afa158015611c42573d6000803e3d6000fd5b505050506040513d6020811015611c5857600080fd5b5051155b611c975760405162461bcd60e51b815260040180806020018281038252603681526020018061228e6036913960400191505060405180910390fd5b604080516001600160a01b038416602482015260448082018490528251808303909101815260649091019091526020810180516001600160e01b031663095ea7b360e01b17905261121d908490611e89565b6060611cf88484600085611f3a565b949350505050565b600082611d0f575060006113ad565b82820282848281611d1c57fe5b0414610d285760405162461bcd60e51b81526004018080602001828103825260218152602001806122436021913960400191505060405180910390fd5b6000610d2883836040518060400160405280601a81526020017f536166654d6174683a206469766973696f6e206279207a65726f000000000000815250612096565b6000610d2883836040518060400160405280601e81526020017f536166654d6174683a207375627472616374696f6e206f766572666c6f770000815250612138565b604080516001600160a01b038416602482015260448082018490528251808303909101815260649091019091526020810180516001600160e01b031663a9059cbb60e01b17905261121d908490611e89565b600082820183811015610d28576040805162461bcd60e51b815260206004820152601b60248201527f536166654d6174683a206164646974696f6e206f766572666c6f770000000000604482015290519081900360640190fd5b6060611ede826040518060400160405280602081526020017f5361666545524332303a206c6f772d6c6576656c2063616c6c206661696c6564815250856001600160a01b0316611ce99092919063ffffffff16565b80519091501561121d57808060200190516020811015611efd57600080fd5b505161121d5760405162461bcd60e51b815260040180806020018281038252602a815260200180612264602a913960400191505060405180910390fd5b606082471015611f7b5760405162461bcd60e51b815260040180806020018281038252602681526020018061221d6026913960400191505060405180910390fd5b611f8485612192565b611fd5576040805162461bcd60e51b815260206004820152601d60248201527f416464726573733a2063616c6c20746f206e6f6e2d636f6e7472616374000000604482015290519081900360640190fd5b60006060866001600160a01b031685876040518082805190602001908083835b602083106120145780518252601f199092019160209182019101611ff5565b6001836020036101000a03801982511681845116808217855250505050505090500191505060006040518083038185875af1925050503d8060008114612076576040519150601f19603f3d011682016040523d82523d6000602084013e61207b565b606091505b509150915061208b828286612198565b979650505050505050565b600081836121225760405162461bcd60e51b81526004018080602001828103825283818151815260200191508051906020019080838360005b838110156120e75781810151838201526020016120cf565b50505050905090810190601f1680156121145780820380516001836020036101000a031916815260200191505b509250505060405180910390fd5b50600083858161212e57fe5b0495945050505050565b6000818484111561218a5760405162461bcd60e51b81526020600482018181528351602484015283519092839260449091019190850190808383600083156120e75781810151838201526020016120cf565b505050900390565b3b151590565b606083156121a7575081610d28565b8251156121b75782518084602001fd5b60405162461bcd60e51b81526020600482018181528451602484015284518593919283926044019190850190808383600083156120e75781810151838201526020016120cf565b6040518060600160405280600390602082028036833750919291505056fe416464726573733a20696e73756666696369656e742062616c616e636520666f722063616c6c536166654d6174683a206d756c7469706c69636174696f6e206f766572666c6f775361666545524332303a204552433230206f7065726174696f6e20646964206e6f7420737563636565645361666545524332303a20617070726f76652066726f6d206e6f6e2d7a65726f20746f206e6f6e2d7a65726f20616c6c6f77616e6365a2646970667358221220fe335690db00c2c07235dcf69cf9d0c4f8b4a116b20f3fb0f9e0bb2ef86645d864736f6c634300060c0033416464726573733a20696e73756666696369656e742062616c616e636520666f722063616c6c5361666545524332303a204552433230206f7065726174696f6e20646964206e6f7420737563636565645361666545524332303a20617070726f76652066726f6d206e6f6e2d7a65726f20746f206e6f6e2d7a65726f20616c6c6f77616e6365",
  "devdoc": {
    "kind": "dev",
    "methods": {
      "approveForSpender(address,address,uint256)": {
        "params": {
          "_amount": "The amount to spend",
          "_spender": "The address of the spender",
          "_token": "The address of the token"
        }
      },
      "calc_token_amount(uint256[3],bool)": {
        "details": "0: DAI, 1: USDC, 2: USDT",
        "params": {
          "amounts": "Array of token amounts",
          "deposit": "Flag for depositing LP tokens"
        }
      },
      "calc_token_amount_withdraw(uint256,address)": {
        "params": {
          "_output": "The address of the output token",
          "_shares": "The amount of 3CRV"
        }
      },
      "constructor": {
        "params": {
          "_oracle": "The address of the StableSwap3PoolOracle",
          "_stableSwap3Pool": "The address of 3Pool",
          "_token3CRV": "The address of the 3CRV token",
          "_tokenDAI": "The address of the DAI token",
          "_tokenUSDC": "The address of the USDC token",
          "_tokenUSDT": "The address of the USDT token",
          "_vaultManager": "The address of the Vault Manager"
        }
      },
      "convert(address,address,uint256)": {
        "params": {
          "_input": "The address of the token being converted",
          "_inputAmount": "The input amount of tokens that are being converted",
          "_output": "The address of the token to be converted to"
        }
      },
      "convert_rate(address,address,uint256)": {
        "params": {
          "_input": "The address of the token being converted",
          "_inputAmount": "The input amount of tokens that are being converted",
          "_output": "The address of the token to be converted to"
        }
      },
      "convert_stables(uint256[3])": {
        "details": "0: DAI, 1: USDC, 2: USDT",
        "params": {
          "amounts": "Array of token amounts"
        }
      },
      "getExpected(uint256)": {
        "params": {
          "_inputAmount": "The input amount of tokens that are being converted"
        }
      },
      "governanceRecoverUnsupported(address,uint256,address)": {
        "details": "This contract should never have any tokens in it at the end of a transaction",
        "params": {
          "_amount": "The amount to withdraw",
          "_to": "The address to receive the tokens",
          "_token": "The address of the token"
        }
      },
      "setStrategy(address,bool)": {
        "params": {
          "_status": "The bool flag allowing or disallowing use of the converter by the strategy",
          "_strategy": "The address of the strategy"
        }
      }
    },
    "title": "StableSwap3PoolConverter",
    "version": 1
  },
  "userdoc": {
    "kind": "user",
    "methods": {
      "approveForSpender(address,address,uint256)": {
        "notice": "Called by Governance to approve a token address to be spent by an address"
      },
      "calc_token_amount(uint256[3],bool)": {
        "notice": "Checks the amount of 3CRV given for the amounts"
      },
      "calc_token_amount_withdraw(uint256,address)": {
        "notice": "Checks the amount of an output token given for 3CRV"
      },
      "convert(address,address,uint256)": {
        "notice": "Converts the amount of input tokens to output tokens"
      },
      "convert_rate(address,address,uint256)": {
        "notice": "Checks the amount of input tokens to output tokens"
      },
      "convert_stables(uint256[3])": {
        "notice": "Converts stables of the 3Pool to 3CRV"
      },
      "getExpected(uint256)": {
        "notice": "Returns the expected amount of tokens for a given amount by querying the latest data from Chainlink"
      },
      "governanceRecoverUnsupported(address,uint256,address)": {
        "notice": "Allows Governance to withdraw tokens from the converter"
      },
      "setStrategy(address,bool)": {
        "notice": "Called by Governance to enable or disable a strategy to use the converter"
      },
      "token()": {
        "notice": "Returns the address of the 3CRV token"
      }
    },
    "notice": "The StableSwap3PoolConverter is used to convert funds on Curve's 3Pool. It is backed by Chainlink's price feeds to be secure against attackers.",
    "version": 1
  },
  "storageLayout": {
    "storage": [
      {
        "astId": 2543,
        "contract": "contracts/metavault/StableSwap3PoolConverter.sol:StableSwap3PoolConverter",
        "label": "PRECISION_MUL",
        "offset": 0,
        "slot": "0",
        "type": "t_array(t_uint256)3_storage"
      },
      {
        "astId": 2547,
        "contract": "contracts/metavault/StableSwap3PoolConverter.sol:StableSwap3PoolConverter",
        "label": "tokens",
        "offset": 0,
        "slot": "3",
        "type": "t_array(t_contract(IERC20)799)3_storage"
      },
      {
        "astId": 2551,
        "contract": "contracts/metavault/StableSwap3PoolConverter.sol:StableSwap3PoolConverter",
        "label": "strategies",
        "offset": 0,
        "slot": "6",
        "type": "t_mapping(t_address,t_bool)"
      }
    ],
    "types": {
      "t_address": {
        "encoding": "inplace",
        "label": "address",
        "numberOfBytes": "20"
      },
      "t_array(t_contract(IERC20)799)3_storage": {
        "base": "t_contract(IERC20)799",
        "encoding": "inplace",
        "label": "contract IERC20[3]",
        "numberOfBytes": "96"
      },
      "t_array(t_uint256)3_storage": {
        "base": "t_uint256",
        "encoding": "inplace",
        "label": "uint256[3]",
        "numberOfBytes": "96"
      },
      "t_bool": {
        "encoding": "inplace",
        "label": "bool",
        "numberOfBytes": "1"
      },
      "t_contract(IERC20)799": {
        "encoding": "inplace",
        "label": "contract IERC20",
        "numberOfBytes": "20"
      },
      "t_mapping(t_address,t_bool)": {
        "encoding": "mapping",
        "key": "t_address",
        "label": "mapping(address => bool)",
        "numberOfBytes": "32",
        "value": "t_bool"
      },
      "t_uint256": {
        "encoding": "inplace",
        "label": "uint256",
        "numberOfBytes": "32"
      }
    }
  }
}