{
  "address": "0xb6C352587F4A92D3c7946bf42fE6D4D3aCd1F312",
  "abi": [
    {
      "inputs": [
        {
          "internalType": "string",
          "name": "_name",
          "type": "string"
        },
        {
          "internalType": "address",
          "name": "_yvToken",
          "type": "address"
        },
        {
          "internalType": "address",
          "name": "_underlying",
          "type": "address"
        },
        {
          "internalType": "address",
          "name": "_converter",
          "type": "address"
        },
        {
          "internalType": "address",
          "name": "_controller",
          "type": "address"
        },
        {
          "internalType": "address",
          "name": "_vaultManager",
          "type": "address"
        },
        {
          "internalType": "address",
          "name": "_weth",
          "type": "address"
        },
        {
          "internalType": "address",
          "name": "_router",
          "type": "address"
        }
      ],
      "stateMutability": "nonpayable",
      "type": "constructor"
    },
    {
      "anonymous": false,
      "inputs": [
        {
          "indexed": false,
          "internalType": "address",
          "name": "token",
          "type": "address"
        },
        {
          "indexed": false,
          "internalType": "address",
          "name": "spender",
          "type": "address"
        },
        {
          "indexed": false,
          "internalType": "uint256",
          "name": "amount",
          "type": "uint256"
        }
      ],
      "name": "ApproveForSpender",
      "type": "event"
    },
    {
      "anonymous": false,
      "inputs": [
        {
          "indexed": false,
          "internalType": "address",
          "name": "controller",
          "type": "address"
        }
      ],
      "name": "SetController",
      "type": "event"
    },
    {
      "anonymous": false,
      "inputs": [
        {
          "indexed": false,
          "internalType": "address",
          "name": "router",
          "type": "address"
        }
      ],
      "name": "SetRouter",
      "type": "event"
    },
    {
      "anonymous": false,
      "inputs": [],
      "name": "Skim",
      "type": "event"
    },
    {
      "anonymous": false,
      "inputs": [
        {
          "indexed": false,
          "internalType": "address",
          "name": "vault",
          "type": "address"
        },
        {
          "indexed": false,
          "internalType": "uint256",
          "name": "amount",
          "type": "uint256"
        }
      ],
      "name": "Withdraw",
      "type": "event"
    },
    {
      "inputs": [],
      "name": "ONE_HUNDRED_PERCENT",
      "outputs": [
        {
          "internalType": "uint256",
          "name": "",
          "type": "uint256"
        }
      ],
      "stateMutability": "view",
      "type": "function"
    },
    {
      "inputs": [
        {
          "internalType": "contract IERC20",
          "name": "_token",
          "type": "address"
        },
        {
          "internalType": "address",
          "name": "_spender",
          "type": "address"
        },
        {
          "internalType": "uint256",
          "name": "_amount",
          "type": "uint256"
        }
      ],
      "name": "approveForSpender",
      "outputs": [],
      "stateMutability": "nonpayable",
      "type": "function"
    },
    {
      "inputs": [],
      "name": "balanceOf",
      "outputs": [
        {
          "internalType": "uint256",
          "name": "",
          "type": "uint256"
        }
      ],
      "stateMutability": "view",
      "type": "function"
    },
    {
      "inputs": [],
      "name": "balanceOfPool",
      "outputs": [
        {
          "internalType": "uint256",
          "name": "",
          "type": "uint256"
        }
      ],
      "stateMutability": "view",
      "type": "function"
    },
    {
      "inputs": [],
      "name": "balanceOfWant",
      "outputs": [
        {
          "internalType": "uint256",
          "name": "",
          "type": "uint256"
        }
      ],
      "stateMutability": "view",
      "type": "function"
    },
    {
      "inputs": [],
      "name": "controller",
      "outputs": [
        {
          "internalType": "address",
          "name": "",
          "type": "address"
        }
      ],
      "stateMutability": "view",
      "type": "function"
    },
    {
      "inputs": [],
      "name": "converter",
      "outputs": [
        {
          "internalType": "contract IConverter",
          "name": "",
          "type": "address"
        }
      ],
      "stateMutability": "view",
      "type": "function"
    },
    {
      "inputs": [],
      "name": "deposit",
      "outputs": [],
      "stateMutability": "nonpayable",
      "type": "function"
    },
    {
      "inputs": [],
      "name": "harvest",
      "outputs": [],
      "stateMutability": "nonpayable",
      "type": "function"
    },
    {
      "inputs": [],
      "name": "name",
      "outputs": [
        {
          "internalType": "string",
          "name": "",
          "type": "string"
        }
      ],
      "stateMutability": "view",
      "type": "function"
    },
    {
      "inputs": [],
      "name": "router",
      "outputs": [
        {
          "internalType": "contract ISwap",
          "name": "",
          "type": "address"
        }
      ],
      "stateMutability": "view",
      "type": "function"
    },
    {
      "inputs": [
        {
          "internalType": "address",
          "name": "_router",
          "type": "address"
        }
      ],
      "name": "setRouter",
      "outputs": [],
      "stateMutability": "nonpayable",
      "type": "function"
    },
    {
      "inputs": [],
      "name": "skim",
      "outputs": [],
      "stateMutability": "nonpayable",
      "type": "function"
    },
    {
      "inputs": [],
      "name": "vaultManager",
      "outputs": [
        {
          "internalType": "contract IVaultManager",
          "name": "",
          "type": "address"
        }
      ],
      "stateMutability": "view",
      "type": "function"
    },
    {
      "inputs": [],
      "name": "want",
      "outputs": [
        {
          "internalType": "address",
          "name": "",
          "type": "address"
        }
      ],
      "stateMutability": "view",
      "type": "function"
    },
    {
      "inputs": [],
      "name": "weth",
      "outputs": [
        {
          "internalType": "address",
          "name": "",
          "type": "address"
        }
      ],
      "stateMutability": "view",
      "type": "function"
    },
    {
      "inputs": [
        {
          "internalType": "uint256",
          "name": "_amount",
          "type": "uint256"
        }
      ],
      "name": "withdraw",
      "outputs": [],
      "stateMutability": "nonpayable",
      "type": "function"
    },
    {
      "inputs": [
        {
          "internalType": "address",
          "name": "_asset",
          "type": "address"
        }
      ],
      "name": "withdraw",
      "outputs": [],
      "stateMutability": "nonpayable",
      "type": "function"
    },
    {
      "inputs": [],
      "name": "withdrawAll",
      "outputs": [],
      "stateMutability": "nonpayable",
      "type": "function"
    },
    {
      "inputs": [],
      "name": "yvToken",
      "outputs": [
        {
          "internalType": "address",
          "name": "",
          "type": "address"
        }
      ],
      "stateMutability": "view",
      "type": "function"
    }
  ],
  "transactionHash": "0x4d587a6bf98efb2b74a3367bcbb9bd9815043543af3ebeae1e325790a703b2ca",
  "args": [
    "YearnV2: DAI",
    "0x19D3364A399d251E894aC732651be8B0E4e85001",
    "0x6B175474E89094C44Da98b954EedeAC495271d0F",
    "0x2eab685d85AA52E4d8b6699Ba5aAC3b0c3992C3B",
    "0x0d857688d6A223A2F4e58CDd44119ABb7DC5A790",
    "0x443ed48F975E02eA67CA0d2be0B4d4806d1E31F2",
    "0xC02aaA39b223FE8D0A0e5C4F27eAD9083C756Cc2",
    "0x7a250d5630B4cF539739dF2C5dAcb4c659F2488D"
  ],
  "solcInputHash": "f47b5411f6a0e0ce9a63e95e2c1c5f7a",
  "bytecode": "0x6101206040523480156200001257600080fd5b50604051620030213803806200302183398181016040526101008110156200003957600080fd5b81019080805160405193929190846401000000008211156200005a57600080fd5b9083019060208201858111156200007057600080fd5b82516401000000008111828201881017156200008b57600080fd5b82525081516020918201929091019080838360005b83811015620000ba578181015183820152602001620000a0565b50505050905090810190601f168015620000e85780820380516001836020036101000a031916815260200191505b5060409081526020820151908201516060830151608084015160a085015160c086015160e090960151949750929550909390928784848885856001600160a01b0385166200016c576040805162461bcd60e51b815260206004820152600c60248201526b10afb1b7b73a3937b63632b960a11b604482015290519081900360640190fd5b6001600160a01b038416620001b9576040805162461bcd60e51b815260206004820152600e60248201526d10afbb30bab63a26b0b730b3b2b960911b604482015290519081900360640190fd5b6001600160a01b038316620001fe576040805162461bcd60e51b81526020600482015260066024820152650857ddd85b9d60d21b604482015290519081900360640190fd5b6001600160a01b03821662000243576040805162461bcd60e51b8152602060048201526006602482015265042beeecae8d60d31b604482015290519081900360640190fd5b6001600160a01b0381166200028a576040805162461bcd60e51b815260206004820152600860248201526710afb937baba32b960c11b604482015290519081900360640190fd5b85516200029f9060009060208901906200083c565b50606083811b6001600160601b031990811660805286821b811660c05285821b811660e0529083901b1660a052600180546001600160a01b0319166001600160a01b0383811691909117909155620003099083168260001962000429602090811b6200185f17901c565b50505050506001600160a01b038816151590506200035a576040805162461bcd60e51b815260206004820152600960248201526810afbcbb2a37b5b2b760b91b604482015290519081900360640190fd5b6001600160a01b038516620003a4576040805162461bcd60e51b815260206004820152600b60248201526a10afb1b7b73b32b93a32b960a91b604482015290519081900360640190fd5b606087901b6001600160601b03191661010052600280546001600160a01b0319166001600160a01b0387811691909117909155620003f49087168660001962000429602090811b6200185f17901c565b6200041b87600019886001600160a01b03166200042960201b6200185f179092919060201c565b5050505050505050620008d8565b801580620004b3575060408051636eb1769f60e11b81523060048201526001600160a01b03848116602483015291519185169163dd62ed3e91604480820192602092909190829003018186803b1580156200048357600080fd5b505afa15801562000498573d6000803e3d6000fd5b505050506040513d6020811015620004af57600080fd5b5051155b620004f05760405162461bcd60e51b815260040180806020018281038252603681526020018062002feb6036913960400191505060405180910390fd5b604080516001600160a01b038416602482015260448082018490528251808303909101815260649091019091526020810180516001600160e01b0390811663095ea7b360e01b17909152620005489185916200054d16565b505050565b6060620005a9826040518060400160405280602081526020017f5361666545524332303a206c6f772d6c6576656c2063616c6c206661696c6564815250856001600160a01b03166200060960201b62001972179092919060201c565b8051909150156200054857808060200190516020811015620005ca57600080fd5b5051620005485760405162461bcd60e51b815260040180806020018281038252602a81526020018062002fc1602a913960400191505060405180910390fd5b60606200061a848460008562000624565b90505b9392505050565b606082471015620006675760405162461bcd60e51b815260040180806020018281038252602681526020018062002f9b6026913960400191505060405180910390fd5b62000672856200078c565b620006c4576040805162461bcd60e51b815260206004820152601d60248201527f416464726573733a2063616c6c20746f206e6f6e2d636f6e7472616374000000604482015290519081900360640190fd5b60006060866001600160a01b031685876040518082805190602001908083835b60208310620007055780518252601f199092019160209182019101620006e4565b6001836020036101000a03801982511681845116808217855250505050505090500191505060006040518083038185875af1925050503d806000811462000769576040519150601f19603f3d011682016040523d82523d6000602084013e6200076e565b606091505b5090925090506200078182828662000792565b979650505050505050565b3b151590565b60608315620007a35750816200061d565b825115620007b45782518084602001fd5b8160405162461bcd60e51b81526004018080602001828103825283818151815260200191508051906020019080838360005b8381101562000800578181015183820152602001620007e6565b50505050905090810190601f1680156200082e5780820380516001836020036101000a031916815260200191505b509250505060405180910390fd5b828054600181600116156101000203166002900490600052602060002090601f016020900481019282601f106200087f57805160ff1916838001178555620008af565b82800160010185558215620008af579182015b82811115620008af57825182559160200191906001019062000892565b50620008bd929150620008c1565b5090565b5b80821115620008bd5760008155600101620008c2565b60805160601c60a05160601c60c05160601c60e05160601c6101005160601c6125b1620009ea60003980610387528061041a52806104e05280610f445280611cc95280611d7d5280611e2452806121b852508061059a528061063152806107df52806108765280610b1c5280610bb35280610cbb5280610d525280610fba528061105152806112f052806113235280611587528061161e52806116fc525080610571528061070452806107b652806109895280610af35280610c925280610f185280610f9152806111d6528061155e528061182e5280611c44525080610ac65280611416528061144b52508061073552806107895280610e2c52806114b75280611df252806122c852506125b16000f3fe608060405234801561001057600080fd5b506004361061012c5760003560e01c8063853828b6116100ad578063d0e30db011610071578063d0e30db01461029f578063dd0081c7146102a7578063ef9e2379146102af578063f77c4791146102e5578063f887ea40146102ed5761012c565b8063853828b6146102595780638a4adf2414610261578063bd38837b14610269578063c0d7865514610271578063c1a3d44c146102975761012c565b80633fc8cef3116100f45780633fc8cef3146102135780634641257d1461021b57806351cff8d9146102235780636800c66914610249578063722713f7146102515761012c565b806306fdde031461013157806311588086146101ae5780631dd19cb4146101c85780631f1fcd51146101d25780632e1a7d4d146101f6575b600080fd5b6101396102f5565b6040805160208082528351818301528351919283929083019185019080838360005b8381101561017357818101518382015260200161015b565b50505050905090810190601f1680156101a05780820380516001836020036101000a031916815260200191505b509250505060405180910390f35b6101b6610383565b60408051918252519081900360200190f35b6101d0610566565b005b6101da610787565b604080516001600160a01b039092168252519081900360200190f35b6101d06004803603602081101561020c57600080fd5b50356107ab565b6101da610ac4565b6101d0610ae8565b6101d06004803603602081101561023957600080fd5b50356001600160a01b0316610c87565b6101da610f42565b6101b6610f66565b6101d0610f86565b6101da6112ee565b6101da611312565b6101d06004803603602081101561028757600080fd5b50356001600160a01b0316611321565b6101b66114b3565b6101d0611553565b6101b66116f4565b6101d0600480360360608110156102c557600080fd5b506001600160a01b038135811691602081013590911690604001356116fa565b6101da61182c565b6101da611850565b6000805460408051602060026001851615610100026000190190941693909304601f8101849004840282018401909252818152929183018282801561037b5780601f106103505761010080835404028352916020019161037b565b820191906000526020600020905b81548152906001019060200180831161035e57829003601f168201915b505050505081565b60007f00000000000000000000000000000000000000000000000000000000000000006001600160a01b03166318160ddd6040518163ffffffff1660e01b815260040160206040518083038186803b1580156103de57600080fd5b505afa1580156103f2573d6000803e3d6000fd5b505050506040513d602081101561040857600080fd5b505161041657506000610563565b60007f00000000000000000000000000000000000000000000000000000000000000006001600160a01b03166370a08231306040518263ffffffff1660e01b815260040180826001600160a01b0316815260200191505060206040518083038186803b15801561048557600080fd5b505afa158015610499573d6000803e3d6000fd5b505050506040513d60208110156104af57600080fd5b505160408051634ca9858360e11b8152905191925061055f91670de0b6b3a764000091610559916001600160a01b037f000000000000000000000000000000000000000000000000000000000000000016916399530b06916004808301926020929190829003018186803b15801561052657600080fd5b505afa15801561053a573d6000803e3d6000fd5b505050506040513d602081101561055057600080fd5b5051849061198b565b906119ed565b9150505b90565b336001600160a01b037f000000000000000000000000000000000000000000000000000000000000000016148061062957507f00000000000000000000000000000000000000000000000000000000000000006001600160a01b0316631fe4a6866040518163ffffffff1660e01b815260040160206040518083038186803b1580156105f157600080fd5b505afa158015610605573d6000803e3d6000fd5b505050506040513d602081101561061b57600080fd5b50516001600160a01b031633145b806106c057507f00000000000000000000000000000000000000000000000000000000000000006001600160a01b0316635aa6e6756040518163ffffffff1660e01b815260040160206040518083038186803b15801561068857600080fd5b505afa15801561069c573d6000803e3d6000fd5b505050506040513d60208110156106b257600080fd5b50516001600160a01b031633145b6106ff576040805162461bcd60e51b815260206004820152600b60248201526a08585d5d1a1bdc9a5e995960aa1b604482015290519081900360640190fd5b61075c7f000000000000000000000000000000000000000000000000000000000000000061072b6114b3565b6001600160a01b037f0000000000000000000000000000000000000000000000000000000000000000169190611a2f565b6040517f21ad22495c9c75cd1c94756f91824e779c0c8a8e168b267c790df464fe056b7990600090a1565b7f000000000000000000000000000000000000000000000000000000000000000081565b336001600160a01b037f000000000000000000000000000000000000000000000000000000000000000016148061086e57507f00000000000000000000000000000000000000000000000000000000000000006001600160a01b0316631fe4a6866040518163ffffffff1660e01b815260040160206040518083038186803b15801561083657600080fd5b505afa15801561084a573d6000803e3d6000fd5b505050506040513d602081101561086057600080fd5b50516001600160a01b031633145b8061090557507f00000000000000000000000000000000000000000000000000000000000000006001600160a01b0316635aa6e6756040518163ffffffff1660e01b815260040160206040518083038186803b1580156108cd57600080fd5b505afa1580156108e1573d6000803e3d6000fd5b505050506040513d60208110156108f757600080fd5b50516001600160a01b031633145b610944576040805162461bcd60e51b815260206004820152600b60248201526a08585d5d1a1bdc9a5e995960aa1b604482015290519081900360640190fd5b600061094e6114b3565b9050818110156109795761096a6109658383611a81565b611ac3565b91506109768282611be6565b91505b6000610983611c40565b905060007f00000000000000000000000000000000000000000000000000000000000000006001600160a01b031663a622ee7c836040518263ffffffff1660e01b815260040180826001600160a01b0316815260200191505060206040518083038186803b1580156109f457600080fd5b505afa158015610a08573d6000803e3d6000fd5b505050506040513d6020811015610a1e57600080fd5b505190506001600160a01b038116610a66576040805162461bcd60e51b8152602060048201526006602482015265085d985d5b1d60d21b604482015290519081900360640190fd5b610a7a6001600160a01b0383168286611a2f565b604080516001600160a01b03831681526020810186905281517f884edad9ce6fa2440d8a54cc123490eb96d2768479d49ff9c7366125a9424364929181900390910190a150505050565b7f000000000000000000000000000000000000000000000000000000000000000081565b336001600160a01b037f0000000000000000000000000000000000000000000000000000000000000000161480610bab57507f00000000000000000000000000000000000000000000000000000000000000006001600160a01b0316631fe4a6866040518163ffffffff1660e01b815260040160206040518083038186803b158015610b7357600080fd5b505afa158015610b87573d6000803e3d6000fd5b505050506040513d6020811015610b9d57600080fd5b50516001600160a01b031633145b80610c4257507f00000000000000000000000000000000000000000000000000000000000000006001600160a01b0316635aa6e6756040518163ffffffff1660e01b815260040160206040518083038186803b158015610c0a57600080fd5b505afa158015610c1e573d6000803e3d6000fd5b505050506040513d6020811015610c3457600080fd5b50516001600160a01b031633145b610c81576040805162461bcd60e51b815260206004820152600b60248201526a08585d5d1a1bdc9a5e995960aa1b604482015290519081900360640190fd5b610c855b565b336001600160a01b037f0000000000000000000000000000000000000000000000000000000000000000161480610d4a57507f00000000000000000000000000000000000000000000000000000000000000006001600160a01b0316631fe4a6866040518163ffffffff1660e01b815260040160206040518083038186803b158015610d1257600080fd5b505afa158015610d26573d6000803e3d6000fd5b505050506040513d6020811015610d3c57600080fd5b50516001600160a01b031633145b80610de157507f00000000000000000000000000000000000000000000000000000000000000006001600160a01b0316635aa6e6756040518163ffffffff1660e01b815260040160206040518083038186803b158015610da957600080fd5b505afa158015610dbd573d6000803e3d6000fd5b505050506040513d6020811015610dd357600080fd5b50516001600160a01b031633145b610e20576040805162461bcd60e51b815260206004820152600b60248201526a08585d5d1a1bdc9a5e995960aa1b604482015290519081900360640190fd5b806001600160a01b03167f00000000000000000000000000000000000000000000000000000000000000006001600160a01b03161415610e90576040805162461bcd60e51b815260206004808301919091526024820152631dd85b9d60e21b604482015290519081900360640190fd5b604080516370a0823160e01b8152306004820152905182916000916001600160a01b038416916370a08231916024808301926020929190829003018186803b158015610edb57600080fd5b505afa158015610eef573d6000803e3d6000fd5b505050506040513d6020811015610f0557600080fd5b50519050610f3d6001600160a01b0383167f000000000000000000000000000000000000000000000000000000000000000083611a2f565b505050565b7f000000000000000000000000000000000000000000000000000000000000000081565b6000610f81610f73610383565b610f7b6114b3565b90611be6565b905090565b336001600160a01b037f000000000000000000000000000000000000000000000000000000000000000016148061104957507f00000000000000000000000000000000000000000000000000000000000000006001600160a01b0316631fe4a6866040518163ffffffff1660e01b815260040160206040518083038186803b15801561101157600080fd5b505afa158015611025573d6000803e3d6000fd5b505050506040513d602081101561103b57600080fd5b50516001600160a01b031633145b806110e057507f00000000000000000000000000000000000000000000000000000000000000006001600160a01b0316635aa6e6756040518163ffffffff1660e01b815260040160206040518083038186803b1580156110a857600080fd5b505afa1580156110bc573d6000803e3d6000fd5b505050506040513d60208110156110d257600080fd5b50516001600160a01b031633145b61111f576040805162461bcd60e51b815260206004820152600b60248201526a08585d5d1a1bdc9a5e995960aa1b604482015290519081900360640190fd5b611127611cc5565b6000611131611c40565b90506000816001600160a01b03166370a08231306040518263ffffffff1660e01b815260040180826001600160a01b0316815260200191505060206040518083038186803b15801561118257600080fd5b505afa158015611196573d6000803e3d6000fd5b505050506040513d60208110156111ac57600080fd5b505160408051632988bb9f60e21b81526001600160a01b03858116600483015291519293506000927f00000000000000000000000000000000000000000000000000000000000000009092169163a622ee7c91602480820192602092909190829003018186803b15801561121f57600080fd5b505afa158015611233573d6000803e3d6000fd5b505050506040513d602081101561124957600080fd5b505190506001600160a01b038116611291576040805162461bcd60e51b8152602060048201526006602482015265085d985d5b1d60d21b604482015290519081900360640190fd5b6112a56001600160a01b0384168284611a2f565b604080516001600160a01b03831681526020810184905281517f884edad9ce6fa2440d8a54cc123490eb96d2768479d49ff9c7366125a9424364929181900390910190a1505050565b7f000000000000000000000000000000000000000000000000000000000000000081565b6002546001600160a01b031681565b7f00000000000000000000000000000000000000000000000000000000000000006001600160a01b0316635aa6e6756040518163ffffffff1660e01b815260040160206040518083038186803b15801561137a57600080fd5b505afa15801561138e573d6000803e3d6000fd5b505050506040513d60208110156113a457600080fd5b50516001600160a01b031633146113f0576040805162461bcd60e51b815260206004820152600b60248201526a21676f7665726e616e636560a81b604482015290519081900360640190fd5b600180546001600160a01b0319166001600160a01b038381169190911790915561143e907f00000000000000000000000000000000000000000000000000000000000000001682600061185f565b6114746001600160a01b037f0000000000000000000000000000000000000000000000000000000000000000168260001961185f565b604080516001600160a01b038316815290517f6de4326a8b9054d72d9dbab97d27bc4edffadee7d966f5af9cc4eafdaf8e54559181900360200190a150565b60007f00000000000000000000000000000000000000000000000000000000000000006001600160a01b03166370a08231306040518263ffffffff1660e01b815260040180826001600160a01b0316815260200191505060206040518083038186803b15801561152257600080fd5b505afa158015611536573d6000803e3d6000fd5b505050506040513d602081101561154c57600080fd5b5051905090565b336001600160a01b037f000000000000000000000000000000000000000000000000000000000000000016148061161657507f00000000000000000000000000000000000000000000000000000000000000006001600160a01b0316631fe4a6866040518163ffffffff1660e01b815260040160206040518083038186803b1580156115de57600080fd5b505afa1580156115f2573d6000803e3d6000fd5b505050506040513d602081101561160857600080fd5b50516001600160a01b031633145b806116ad57507f00000000000000000000000000000000000000000000000000000000000000006001600160a01b0316635aa6e6756040518163ffffffff1660e01b815260040160206040518083038186803b15801561167557600080fd5b505afa158015611689573d6000803e3d6000fd5b505050506040513d602081101561169f57600080fd5b50516001600160a01b031633145b6116ec576040805162461bcd60e51b815260206004820152600b60248201526a08585d5d1a1bdc9a5e995960aa1b604482015290519081900360640190fd5b610c85611e22565b61271081565b7f00000000000000000000000000000000000000000000000000000000000000006001600160a01b0316635aa6e6756040518163ffffffff1660e01b815260040160206040518083038186803b15801561175357600080fd5b505afa158015611767573d6000803e3d6000fd5b505050506040513d602081101561177d57600080fd5b50516001600160a01b031633146117c9576040805162461bcd60e51b815260206004820152600b60248201526a21676f7665726e616e636560a81b604482015290519081900360640190fd5b6117dd6001600160a01b038416838361185f565b604080516001600160a01b0380861682528416602082015280820183905290517fa970d6820914289ea7e3d9aa084b30b00f955c7b0bb0f542f27c564e743ba6ab9181900360600190a1505050565b7f000000000000000000000000000000000000000000000000000000000000000081565b6001546001600160a01b031681565b8015806118e5575060408051636eb1769f60e11b81523060048201526001600160a01b03848116602483015291519185169163dd62ed3e91604480820192602092909190829003018186803b1580156118b757600080fd5b505afa1580156118cb573d6000803e3d6000fd5b505050506040513d60208110156118e157600080fd5b5051155b6119205760405162461bcd60e51b81526004018080602001828103825260368152602001806125466036913960400191505060405180910390fd5b604080516001600160a01b038416602482015260448082018490528251808303909101815260649091019091526020810180516001600160e01b031663095ea7b360e01b179052610f3d908490611eab565b60606119818484600085611f5c565b90505b9392505050565b60008261199a575060006119e7565b828202828482816119a757fe5b04146119e45760405162461bcd60e51b81526004018080602001828103825260218152602001806124fb6021913960400191505060405180910390fd5b90505b92915050565b60006119e483836040518060400160405280601a81526020017f536166654d6174683a206469766973696f6e206279207a65726f0000000000008152506120b8565b604080516001600160a01b038416602482015260448082018490528251808303909101815260649091019091526020810180516001600160e01b031663a9059cbb60e01b179052610f3d908490611eab565b60006119e483836040518060400160405280601e81526020017f536166654d6174683a207375627472616374696f6e206f766572666c6f77000081525061215a565b600080611ace611c40565b90506000816001600160a01b03166370a08231306040518263ffffffff1660e01b815260040180826001600160a01b0316815260200191505060206040518083038186803b158015611b1f57600080fd5b505afa158015611b33573d6000803e3d6000fd5b505050506040513d6020811015611b4957600080fd5b50519050611b56846121b4565b6000826001600160a01b03166370a08231306040518263ffffffff1660e01b815260040180826001600160a01b0316815260200191505060206040518083038186803b158015611ba557600080fd5b505afa158015611bb9573d6000803e3d6000fd5b505050506040513d6020811015611bcf57600080fd5b50519050611bdd8183611a81565b95945050505050565b6000828201838110156119e4576040805162461bcd60e51b815260206004820152601b60248201527f536166654d6174683a206164646974696f6e206f766572666c6f770000000000604482015290519081900360640190fd5b60007f00000000000000000000000000000000000000000000000000000000000000006001600160a01b03166364f50057306040518263ffffffff1660e01b815260040180826001600160a01b03168152602001915050602060405180830381600087803b158015611cb157600080fd5b505af1158015611536573d6000803e3d6000fd5b60007f00000000000000000000000000000000000000000000000000000000000000006001600160a01b03166370a08231306040518263ffffffff1660e01b815260040180826001600160a01b0316815260200191505060206040518083038186803b158015611d3457600080fd5b505afa158015611d48573d6000803e3d6000fd5b505050506040513d6020811015611d5e57600080fd5b505160408051633ccfd60b60e01b815290519192506001600160a01b037f00000000000000000000000000000000000000000000000000000000000000001691633ccfd60b9160048082019260009290919082900301818387803b158015611dc557600080fd5b505af1158015611dd9573d6000803e3d6000fd5b50505050611de56114b3565b90508015611e1f57611e1f7f0000000000000000000000000000000000000000000000000000000000000000611e19611c40565b836122f1565b50565b7f00000000000000000000000000000000000000000000000000000000000000006001600160a01b031663d0e30db06040518163ffffffff1660e01b8152600401602060405180830381600087803b158015611e7d57600080fd5b505af1158015611e91573d6000803e3d6000fd5b505050506040513d6020811015611ea757600080fd5b5050565b6060611f00826040518060400160405280602081526020017f5361666545524332303a206c6f772d6c6576656c2063616c6c206661696c6564815250856001600160a01b03166119729092919063ffffffff16565b805190915015610f3d57808060200190516020811015611f1f57600080fd5b5051610f3d5760405162461bcd60e51b815260040180806020018281038252602a81526020018061251c602a913960400191505060405180910390fd5b606082471015611f9d5760405162461bcd60e51b81526004018080602001828103825260268152602001806124d56026913960400191505060405180910390fd5b611fa685612468565b611ff7576040805162461bcd60e51b815260206004820152601d60248201527f416464726573733a2063616c6c20746f206e6f6e2d636f6e7472616374000000604482015290519081900360640190fd5b60006060866001600160a01b031685876040518082805190602001908083835b602083106120365780518252601f199092019160209182019101612017565b6001836020036101000a03801982511681845116808217855250505050505090500191505060006040518083038185875af1925050503d8060008114612098576040519150601f19603f3d011682016040523d82523d6000602084013e61209d565b606091505b50915091506120ad82828661246e565b979650505050505050565b600081836121445760405162461bcd60e51b81526004018080602001828103825283818151815260200191508051906020019080838360005b838110156121095781810151838201526020016120f1565b50505050905090810190601f1680156121365780820380516001836020036101000a031916815260200191505b509250505060405180910390fd5b50600083858161215057fe5b0495945050505050565b600081848411156121ac5760405162461bcd60e51b81526020600482018181528351602484015283519092839260449091019190850190808383600083156121095781810151838201526020016120f1565b505050900390565b60007f00000000000000000000000000000000000000000000000000000000000000009050612253816001600160a01b03166399530b066040518163ffffffff1660e01b815260040160206040518083038186803b15801561221557600080fd5b505afa158015612229573d6000803e3d6000fd5b505050506040513d602081101561223f57600080fd5b505161055984670de0b6b3a764000061198b565b9150806001600160a01b0316632e1a7d4d836040518263ffffffff1660e01b815260040180828152602001915050600060405180830381600087803b15801561229b57600080fd5b505af11580156122af573d6000803e3d6000fd5b505050506122bb6114b3565b91508115611ea757611ea77f00000000000000000000000000000000000000000000000000000000000000006122ef611c40565b845b60025460408051630db3e24f60e21b81526001600160a01b038681166004830152858116602483015260448201859052915160009392909216916336cf893c91606480820192602092909190829003018186803b15801561235157600080fd5b505afa158015612365573d6000803e3d6000fd5b505050506040513d602081101561237b57600080fd5b5051116123bf576040805162461bcd60e51b815260206004820152600d60248201526c21636f6e766572745f7261746560981b604482015290519081900360640190fd5b6002546123d9906001600160a01b03858116911683611a2f565b6002546040805163248391ff60e01b81526001600160a01b0386811660048301528581166024830152604482018590529151919092169163248391ff9160648083019260209291908290030181600087803b15801561243757600080fd5b505af115801561244b573d6000803e3d6000fd5b505050506040513d602081101561246157600080fd5b5050505050565b3b151590565b6060831561247d575081611984565b82511561248d5782518084602001fd5b60405162461bcd60e51b81526020600482018181528451602484015284518593919283926044019190850190808383600083156121095781810151838201526020016120f156fe416464726573733a20696e73756666696369656e742062616c616e636520666f722063616c6c536166654d6174683a206d756c7469706c69636174696f6e206f766572666c6f775361666545524332303a204552433230206f7065726174696f6e20646964206e6f7420737563636565645361666545524332303a20617070726f76652066726f6d206e6f6e2d7a65726f20746f206e6f6e2d7a65726f20616c6c6f77616e6365a2646970667358221220561c39281d08b60248516af903dc2e6dd634ff1a68314361b998454f50cf6a3164736f6c634300060c0033416464726573733a20696e73756666696369656e742062616c616e636520666f722063616c6c5361666545524332303a204552433230206f7065726174696f6e20646964206e6f7420737563636565645361666545524332303a20617070726f76652066726f6d206e6f6e2d7a65726f20746f206e6f6e2d7a65726f20616c6c6f77616e6365",
  "devdoc": {
    "kind": "dev",
    "methods": {
      "approveForSpender(address,address,uint256)": {
        "params": {
          "_amount": "The amount to spend",
          "_spender": "The address of the spender",
          "_token": "The address of the token"
        }
      },
      "balanceOfPool()": {
        "details": "Must be implemented by the strategy"
      },
      "setRouter(address)": {
        "params": {
          "_router": "The address of the router"
        }
      },
      "withdraw(address)": {
        "params": {
          "_asset": "The address of the token to withdraw"
        }
      },
      "withdraw(uint256)": {
        "params": {
          "_amount": "The amount of the want token to withdraw"
        }
      }
    },
    "version": 1
  },
  "userdoc": {
    "kind": "user",
    "methods": {
      "approveForSpender(address,address,uint256)": {
        "notice": "Approves a token address to be spent by an address"
      },
      "balanceOf()": {
        "notice": "Returns the strategy's balance of the want token plus the balance of pool"
      },
      "balanceOfPool()": {
        "notice": "Returns the balance of the pool"
      },
      "balanceOfWant()": {
        "notice": "Returns the balance of the want token on the strategy"
      },
      "deposit()": {
        "notice": "Deposits funds to the strategy's pool"
      },
      "harvest()": {
        "notice": "Harvest funds in the strategy's pool"
      },
      "setRouter(address)": {
        "notice": "Sets the address of the ISwap-compatible router"
      },
      "skim()": {
        "notice": "Sends stuck want tokens in the strategy to the controller"
      },
      "withdraw(address)": {
        "notice": "Sends stuck tokens in the strategy to the controller"
      },
      "withdraw(uint256)": {
        "notice": "Initiated from a vault, withdraws funds from the pool"
      },
      "withdrawAll()": {
        "notice": "Withdraws all funds from the strategy"
      }
    },
    "version": 1
  },
  "storageLayout": {
    "storage": [
      {
        "astId": 9258,
        "contract": "contracts/metavault/strategies/StrategyYearnV2.sol:StrategyYearnV2",
        "label": "name",
        "offset": 0,
        "slot": "0",
        "type": "t_string_storage"
      },
      {
        "astId": 9260,
        "contract": "contracts/metavault/strategies/StrategyYearnV2.sol:StrategyYearnV2",
        "label": "router",
        "offset": 0,
        "slot": "1",
        "type": "t_contract(ISwap)3247"
      },
      {
        "astId": 13195,
        "contract": "contracts/metavault/strategies/StrategyYearnV2.sol:StrategyYearnV2",
        "label": "converter",
        "offset": 0,
        "slot": "2",
        "type": "t_contract(IConverter)2977"
      }
    ],
    "types": {
      "t_contract(IConverter)2977": {
        "encoding": "inplace",
        "label": "contract IConverter",
        "numberOfBytes": "20"
      },
      "t_contract(ISwap)3247": {
        "encoding": "inplace",
        "label": "contract ISwap",
        "numberOfBytes": "20"
      },
      "t_string_storage": {
        "encoding": "bytes",
        "label": "string",
        "numberOfBytes": "32"
      }
    }
  }
}