{
  "address": "0xED93BeCebaB166AbEeAC1C5FA3b5a0cAA0d34891",
  "abi": [
    {
      "inputs": [
        {
          "internalType": "string",
          "name": "_name",
          "type": "string"
        },
        {
          "internalType": "address",
          "name": "_want",
          "type": "address"
        },
        {
          "internalType": "address",
          "name": "_crv",
          "type": "address"
        },
        {
          "internalType": "address",
          "name": "_weth",
          "type": "address"
        },
        {
          "internalType": "address",
          "name": "_dai",
          "type": "address"
        },
        {
          "internalType": "address",
          "name": "_usdc",
          "type": "address"
        },
        {
          "internalType": "address",
          "name": "_usdt",
          "type": "address"
        },
        {
          "internalType": "contract Gauge",
          "name": "_gauge",
          "type": "address"
        },
        {
          "internalType": "contract Mintr",
          "name": "_crvMintr",
          "type": "address"
        },
        {
          "internalType": "contract IStableSwap3Pool",
          "name": "_stableSwap3Pool",
          "type": "address"
        },
        {
          "internalType": "address",
          "name": "_controller",
          "type": "address"
        },
        {
          "internalType": "address",
          "name": "_vaultManager",
          "type": "address"
        },
        {
          "internalType": "address",
          "name": "_router",
          "type": "address"
        }
      ],
      "stateMutability": "nonpayable",
      "type": "constructor"
    },
    {
      "anonymous": false,
      "inputs": [
        {
          "indexed": false,
          "internalType": "address",
          "name": "token",
          "type": "address"
        },
        {
          "indexed": false,
          "internalType": "address",
          "name": "spender",
          "type": "address"
        },
        {
          "indexed": false,
          "internalType": "uint256",
          "name": "amount",
          "type": "uint256"
        }
      ],
      "name": "ApproveForSpender",
      "type": "event"
    },
    {
      "anonymous": false,
      "inputs": [
        {
          "indexed": false,
          "internalType": "address",
          "name": "controller",
          "type": "address"
        }
      ],
      "name": "SetController",
      "type": "event"
    },
    {
      "anonymous": false,
      "inputs": [
        {
          "indexed": false,
          "internalType": "address",
          "name": "router",
          "type": "address"
        }
      ],
      "name": "SetRouter",
      "type": "event"
    },
    {
      "anonymous": false,
      "inputs": [],
      "name": "Skim",
      "type": "event"
    },
    {
      "anonymous": false,
      "inputs": [
        {
          "indexed": false,
          "internalType": "address",
          "name": "vault",
          "type": "address"
        },
        {
          "indexed": false,
          "internalType": "uint256",
          "name": "amount",
          "type": "uint256"
        }
      ],
      "name": "Withdraw",
      "type": "event"
    },
    {
      "inputs": [],
      "name": "ONE_HUNDRED_PERCENT",
      "outputs": [
        {
          "internalType": "uint256",
          "name": "",
          "type": "uint256"
        }
      ],
      "stateMutability": "view",
      "type": "function"
    },
    {
      "inputs": [
        {
          "internalType": "contract IERC20",
          "name": "_token",
          "type": "address"
        },
        {
          "internalType": "address",
          "name": "_spender",
          "type": "address"
        },
        {
          "internalType": "uint256",
          "name": "_amount",
          "type": "uint256"
        }
      ],
      "name": "approveForSpender",
      "outputs": [],
      "stateMutability": "nonpayable",
      "type": "function"
    },
    {
      "inputs": [],
      "name": "balanceOf",
      "outputs": [
        {
          "internalType": "uint256",
          "name": "",
          "type": "uint256"
        }
      ],
      "stateMutability": "view",
      "type": "function"
    },
    {
      "inputs": [],
      "name": "balanceOfPool",
      "outputs": [
        {
          "internalType": "uint256",
          "name": "",
          "type": "uint256"
        }
      ],
      "stateMutability": "view",
      "type": "function"
    },
    {
      "inputs": [],
      "name": "balanceOfWant",
      "outputs": [
        {
          "internalType": "uint256",
          "name": "",
          "type": "uint256"
        }
      ],
      "stateMutability": "view",
      "type": "function"
    },
    {
      "inputs": [],
      "name": "controller",
      "outputs": [
        {
          "internalType": "address",
          "name": "",
          "type": "address"
        }
      ],
      "stateMutability": "view",
      "type": "function"
    },
    {
      "inputs": [],
      "name": "crv",
      "outputs": [
        {
          "internalType": "address",
          "name": "",
          "type": "address"
        }
      ],
      "stateMutability": "view",
      "type": "function"
    },
    {
      "inputs": [],
      "name": "crvMintr",
      "outputs": [
        {
          "internalType": "contract Mintr",
          "name": "",
          "type": "address"
        }
      ],
      "stateMutability": "view",
      "type": "function"
    },
    {
      "inputs": [],
      "name": "dai",
      "outputs": [
        {
          "internalType": "address",
          "name": "",
          "type": "address"
        }
      ],
      "stateMutability": "view",
      "type": "function"
    },
    {
      "inputs": [],
      "name": "deposit",
      "outputs": [],
      "stateMutability": "nonpayable",
      "type": "function"
    },
    {
      "inputs": [],
      "name": "gauge",
      "outputs": [
        {
          "internalType": "contract Gauge",
          "name": "",
          "type": "address"
        }
      ],
      "stateMutability": "view",
      "type": "function"
    },
    {
      "inputs": [],
      "name": "getMostPremium",
      "outputs": [
        {
          "internalType": "address",
          "name": "",
          "type": "address"
        },
        {
          "internalType": "uint256",
          "name": "",
          "type": "uint256"
        }
      ],
      "stateMutability": "view",
      "type": "function"
    },
    {
      "inputs": [],
      "name": "harvest",
      "outputs": [],
      "stateMutability": "nonpayable",
      "type": "function"
    },
    {
      "inputs": [],
      "name": "name",
      "outputs": [
        {
          "internalType": "string",
          "name": "",
          "type": "string"
        }
      ],
      "stateMutability": "view",
      "type": "function"
    },
    {
      "inputs": [],
      "name": "router",
      "outputs": [
        {
          "internalType": "contract ISwap",
          "name": "",
          "type": "address"
        }
      ],
      "stateMutability": "view",
      "type": "function"
    },
    {
      "inputs": [
        {
          "internalType": "address",
          "name": "_router",
          "type": "address"
        }
      ],
      "name": "setRouter",
      "outputs": [],
      "stateMutability": "nonpayable",
      "type": "function"
    },
    {
      "inputs": [],
      "name": "skim",
      "outputs": [],
      "stateMutability": "nonpayable",
      "type": "function"
    },
    {
      "inputs": [],
      "name": "stableSwap3Pool",
      "outputs": [
        {
          "internalType": "contract IStableSwap3Pool",
          "name": "",
          "type": "address"
        }
      ],
      "stateMutability": "view",
      "type": "function"
    },
    {
      "inputs": [],
      "name": "usdc",
      "outputs": [
        {
          "internalType": "address",
          "name": "",
          "type": "address"
        }
      ],
      "stateMutability": "view",
      "type": "function"
    },
    {
      "inputs": [],
      "name": "usdt",
      "outputs": [
        {
          "internalType": "address",
          "name": "",
          "type": "address"
        }
      ],
      "stateMutability": "view",
      "type": "function"
    },
    {
      "inputs": [],
      "name": "vaultManager",
      "outputs": [
        {
          "internalType": "contract IVaultManager",
          "name": "",
          "type": "address"
        }
      ],
      "stateMutability": "view",
      "type": "function"
    },
    {
      "inputs": [],
      "name": "want",
      "outputs": [
        {
          "internalType": "address",
          "name": "",
          "type": "address"
        }
      ],
      "stateMutability": "view",
      "type": "function"
    },
    {
      "inputs": [],
      "name": "weth",
      "outputs": [
        {
          "internalType": "address",
          "name": "",
          "type": "address"
        }
      ],
      "stateMutability": "view",
      "type": "function"
    },
    {
      "inputs": [
        {
          "internalType": "uint256",
          "name": "_amount",
          "type": "uint256"
        }
      ],
      "name": "withdraw",
      "outputs": [],
      "stateMutability": "nonpayable",
      "type": "function"
    },
    {
      "inputs": [
        {
          "internalType": "address",
          "name": "_asset",
          "type": "address"
        }
      ],
      "name": "withdraw",
      "outputs": [],
      "stateMutability": "nonpayable",
      "type": "function"
    },
    {
      "inputs": [],
      "name": "withdrawAll",
      "outputs": [],
      "stateMutability": "nonpayable",
      "type": "function"
    }
  ],
  "transactionHash": "0x637cecebf4a548e94a26848a04588d7837c6b1d03ba964cfb1a8b7fcbc741f64",
  "args": [
    "Curve: 3CRV",
    "0x6c3F90f043a72FA612cbac8115EE7e52BDe6E490",
    "0xD533a949740bb3306d119CC777fa900bA034cd52",
    "0xC02aaA39b223FE8D0A0e5C4F27eAD9083C756Cc2",
    "0x6B175474E89094C44Da98b954EedeAC495271d0F",
    "0xA0b86991c6218b36c1d19D4a2e9Eb0cE3606eB48",
    "0xdAC17F958D2ee523a2206206994597C13D831ec7",
    "0xbFcF63294aD7105dEa65aA58F8AE5BE2D9d0952A",
    "0xd061D61a4d941c39E5453435B6345Dc261C2fcE0",
    "0xbEbc44782C7dB0a1A60Cb6fe97d0b483032FF1C7",
    "0x0d857688d6A223A2F4e58CDd44119ABb7DC5A790",
    "0x443ed48F975E02eA67CA0d2be0B4d4806d1E31F2",
    "0x7a250d5630B4cF539739dF2C5dAcb4c659F2488D"
  ],
  "solcInputHash": "c715f81b598dd8c3d93b2941748f27c6",
  "bytecode": "0x6101e06040523480156200001257600080fd5b5060405162003dfb38038062003dfb83398181016040526101a08110156200003957600080fd5b81019080805160405193929190846401000000008211156200005a57600080fd5b9083019060208201858111156200007057600080fd5b82516401000000008111828201881017156200008b57600080fd5b82525081516020918201929091019080838360005b83811015620000ba578181015183820152602001620000a0565b50505050905090810190601f168015620000e85780820380516001836020036101000a031916815260200191505b5060409081526020820151908201516060830151608084015160a085015160c086015160e08701516101008801516101208901516101408a01516101608b0151610180909b0151999c50979a509598949793969295919490939192918c83838e8d856001600160a01b03851662000195576040805162461bcd60e51b815260206004820152600c60248201526b10afb1b7b73a3937b63632b960a11b604482015290519081900360640190fd5b6001600160a01b038416620001e2576040805162461bcd60e51b815260206004820152600e60248201526d10afbb30bab63a26b0b730b3b2b960911b604482015290519081900360640190fd5b6001600160a01b03831662000227576040805162461bcd60e51b81526020600482015260066024820152650857ddd85b9d60d21b604482015290519081900360640190fd5b6001600160a01b0382166200026c576040805162461bcd60e51b8152602060048201526006602482015265042beeecae8d60d31b604482015290519081900360640190fd5b6001600160a01b038116620002b3576040805162461bcd60e51b815260206004820152600860248201526710afb937baba32b960c11b604482015290519081900360640190fd5b8551620002c890600090602089019062000a84565b50606083811b6001600160601b031990811660805286821b811660c05285821b811660e0529083901b1660a052600180546001600160a01b0319166001600160a01b0383811691909117909155620003329083168260001962000671602090811b62001c5b17901c565b50505050506001600160a01b038c16151590506200037f576040805162461bcd60e51b815260206004820152600560248201526410afb1b93b60d91b604482015290519081900360640190fd5b6001600160a01b038916620003c3576040805162461bcd60e51b8152602060048201526005602482015264215f64616960d81b604482015290519081900360640190fd5b6001600160a01b03881662000408576040805162461bcd60e51b8152602060048201526006602482015265215f7573646360d01b604482015290519081900360640190fd5b6001600160a01b0387166200044d576040805162461bcd60e51b81526020600482015260066024820152650857dd5cd91d60d21b604482015290519081900360640190fd5b6001600160a01b03861662000493576040805162461bcd60e51b8152602060048201526007602482015266215f676175676560c81b604482015290519081900360640190fd5b6001600160a01b038516620004dc576040805162461bcd60e51b815260206004820152600a60248201526910afb1b93b26b4b73a3960b11b604482015290519081900360640190fd5b6001600160a01b0384166200052c576040805162461bcd60e51b81526020600482015260116024820152700857dcdd18589b1954ddd85c0cd41bdbdb607a1b604482015290519081900360640190fd5b60608b811b6001600160601b0319908116610100528a821b81166101205289821b81166101405288821b81166101605285821b81166101a05287821b81166101c0529086901b16610180526200059b6001600160a01b038d168760001962000671602090811b62001c5b17901c565b620005c2816000198d6001600160a01b03166200067160201b62001c5b179092919060201c565b620005e9846000198b6001600160a01b03166200067160201b62001c5b179092919060201c565b62000610846000198a6001600160a01b03166200067160201b62001c5b179092919060201c565b6200063784600019896001600160a01b03166200067160201b62001c5b179092919060201c565b6200065e846000198e6001600160a01b03166200067160201b62001c5b179092919060201c565b5050505050505050505050505062000b20565b801580620006fb575060408051636eb1769f60e11b81523060048201526001600160a01b03848116602483015291519185169163dd62ed3e91604480820192602092909190829003018186803b158015620006cb57600080fd5b505afa158015620006e0573d6000803e3d6000fd5b505050506040513d6020811015620006f757600080fd5b5051155b620007385760405162461bcd60e51b815260040180806020018281038252603681526020018062003dc56036913960400191505060405180910390fd5b604080516001600160a01b038416602482015260448082018490528251808303909101815260649091019091526020810180516001600160e01b0390811663095ea7b360e01b17909152620007909185916200079516565b505050565b6060620007f1826040518060400160405280602081526020017f5361666545524332303a206c6f772d6c6576656c2063616c6c206661696c6564815250856001600160a01b03166200085160201b62001d6e179092919060201c565b80519091501562000790578080602001905160208110156200081257600080fd5b5051620007905760405162461bcd60e51b815260040180806020018281038252602a81526020018062003d9b602a913960400191505060405180910390fd5b60606200086284846000856200086c565b90505b9392505050565b606082471015620008af5760405162461bcd60e51b815260040180806020018281038252602681526020018062003d756026913960400191505060405180910390fd5b620008ba85620009d4565b6200090c576040805162461bcd60e51b815260206004820152601d60248201527f416464726573733a2063616c6c20746f206e6f6e2d636f6e7472616374000000604482015290519081900360640190fd5b60006060866001600160a01b031685876040518082805190602001908083835b602083106200094d5780518252601f1990920191602091820191016200092c565b6001836020036101000a03801982511681845116808217855250505050505090500191505060006040518083038185875af1925050503d8060008114620009b1576040519150601f19603f3d011682016040523d82523d6000602084013e620009b6565b606091505b509092509050620009c9828286620009da565b979650505050505050565b3b151590565b60608315620009eb57508162000865565b825115620009fc5782518084602001fd5b8160405162461bcd60e51b81526004018080602001828103825283818151815260200191508051906020019080838360005b8381101562000a4857818101518382015260200162000a2e565b50505050905090810190601f16801562000a765780820380516001836020036101000a031916815260200191505b509250505060405180910390fd5b828054600181600116156101000203166002900490600052602060002090601f016020900481019282601f1062000ac757805160ff191683800117855562000af7565b8280016001018555821562000af7579182015b8281111562000af757825182559160200191906001019062000ada565b5062000b0592915062000b09565b5090565b5b8082111562000b05576000815560010162000b0a565b60805160601c60a05160601c60c05160601c60e05160601c6101005160601c6101205160601c6101405160601c6101605160601c6101805160601c6101a05160601c6101c05160601c6130a062000cd5600039806104605280611708528061211b52806121d152806124f6528061258b525080610c925280610d455280610dfe52806113145280612e1b5250806103ac528061255c525080610a5c5280610fff5280612d8e525080610a805280610f6f5280612cf3525080610edf528061102c5280611c065280612c5f525080611338528061203552508061053052806105c75280610775528061080c5280610afa5280610b91528061108b528061112252806113ae528061144552806116e4528061172c528061195f52806119f65280611ad45280612753525080610507528061069a528061074c528061091f5280610ad1528061106252806112e8528061138552806115ca52806119365280611c2a5280611fa5525080610aa4528061181f52806118545280612073528061268752806126cc5280612843528061292b52806129d65280612a6d5250806106cb528061071f52806111fc52806118c052506130a06000f3fe608060405234801561001057600080fd5b506004361061018e5760003560e01c80636a4874a1116100de578063c1a3d44c11610097578063ef9e237911610071578063ef9e23791461035c578063f4b9fa7514610392578063f77c47911461039a578063f887ea40146103a25761018e565b8063c1a3d44c14610344578063d0e30db01461034c578063dd0081c7146103545761018e565b80636a4874a1146102f6578063722713f7146102fe578063853828b6146103065780638a4adf241461030e578063a6f19c8414610316578063c0d786551461031e5761018e565b80632f48ab7d1161014b5780634641257d116101255780634641257d1461029557806348677dbe1461029d57806351cff8d9146102c85780635a3874ac146102ee5761018e565b80632f48ab7d1461027d5780633e413bee146102855780633fc8cef31461028d5761018e565b8063017f39871461019357806306fdde03146101b757806311588086146102345780631dd19cb41461024e5780631f1fcd51146102585780632e1a7d4d14610260575b600080fd5b61019b6103aa565b604080516001600160a01b039092168252519081900360200190f35b6101bf6103ce565b6040805160208082528351818301528351919283929083019185019080838360005b838110156101f95781810151838201526020016101e1565b50505050905090810190601f1680156102265780820380516001836020036101000a031916815260200191505b509250505060405180910390f35b61023c61045c565b60408051918252519081900360200190f35b6102566104fc565b005b61019b61071d565b6102566004803603602081101561027657600080fd5b5035610741565b61019b610a5a565b61019b610a7e565b61019b610aa2565b610256610ac6565b6102a5610c69565b604080516001600160a01b03909316835260208301919091528051918290030190f35b610256600480360360208110156102de57600080fd5b50356001600160a01b0316611057565b61019b611312565b61019b611336565b61023c61135a565b61025661137a565b61019b6116e2565b61019b611706565b6102566004803603602081101561033457600080fd5b50356001600160a01b031661172a565b61023c6118bc565b61025661192b565b61023c611acc565b6102566004803603606081101561037257600080fd5b506001600160a01b03813581169160208101359091169060400135611ad2565b61019b611c04565b61019b611c28565b61019b611c4c565b7f000000000000000000000000000000000000000000000000000000000000000081565b6000805460408051602060026001851615610100026000190190941693909304601f810184900484028201840190925281815292918301828280156104545780601f1061042957610100808354040283529160200191610454565b820191906000526020600020905b81548152906001019060200180831161043757829003601f168201915b505050505081565b60007f00000000000000000000000000000000000000000000000000000000000000006001600160a01b03166370a08231306040518263ffffffff1660e01b815260040180826001600160a01b0316815260200191505060206040518083038186803b1580156104cb57600080fd5b505afa1580156104df573d6000803e3d6000fd5b505050506040513d60208110156104f557600080fd5b5051905090565b336001600160a01b037f00000000000000000000000000000000000000000000000000000000000000001614806105bf57507f00000000000000000000000000000000000000000000000000000000000000006001600160a01b0316631fe4a6866040518163ffffffff1660e01b815260040160206040518083038186803b15801561058757600080fd5b505afa15801561059b573d6000803e3d6000fd5b505050506040513d60208110156105b157600080fd5b50516001600160a01b031633145b8061065657507f00000000000000000000000000000000000000000000000000000000000000006001600160a01b0316635aa6e6756040518163ffffffff1660e01b815260040160206040518083038186803b15801561061e57600080fd5b505afa158015610632573d6000803e3d6000fd5b505050506040513d602081101561064857600080fd5b50516001600160a01b031633145b610695576040805162461bcd60e51b815260206004820152600b60248201526a08585d5d1a1bdc9a5e995960aa1b604482015290519081900360640190fd5b6106f27f00000000000000000000000000000000000000000000000000000000000000006106c16118bc565b6001600160a01b037f0000000000000000000000000000000000000000000000000000000000000000169190611d87565b6040517f21ad22495c9c75cd1c94756f91824e779c0c8a8e168b267c790df464fe056b7990600090a1565b7f000000000000000000000000000000000000000000000000000000000000000081565b336001600160a01b037f000000000000000000000000000000000000000000000000000000000000000016148061080457507f00000000000000000000000000000000000000000000000000000000000000006001600160a01b0316631fe4a6866040518163ffffffff1660e01b815260040160206040518083038186803b1580156107cc57600080fd5b505afa1580156107e0573d6000803e3d6000fd5b505050506040513d60208110156107f657600080fd5b50516001600160a01b031633145b8061089b57507f00000000000000000000000000000000000000000000000000000000000000006001600160a01b0316635aa6e6756040518163ffffffff1660e01b815260040160206040518083038186803b15801561086357600080fd5b505afa158015610877573d6000803e3d6000fd5b505050506040513d602081101561088d57600080fd5b50516001600160a01b031633145b6108da576040805162461bcd60e51b815260206004820152600b60248201526a08585d5d1a1bdc9a5e995960aa1b604482015290519081900360640190fd5b60006108e46118bc565b90508181101561090f576109006108fb8383611dd9565b611e24565b915061090c8282611f47565b91505b6000610919611fa1565b905060007f00000000000000000000000000000000000000000000000000000000000000006001600160a01b031663a622ee7c836040518263ffffffff1660e01b815260040180826001600160a01b0316815260200191505060206040518083038186803b15801561098a57600080fd5b505afa15801561099e573d6000803e3d6000fd5b505050506040513d60208110156109b457600080fd5b505190506001600160a01b0381166109fc576040805162461bcd60e51b8152602060048201526006602482015265085d985d5b1d60d21b604482015290519081900360640190fd5b610a106001600160a01b0383168286611d87565b604080516001600160a01b03831681526020810186905281517f884edad9ce6fa2440d8a54cc123490eb96d2768479d49ff9c7366125a9424364929181900390910190a150505050565b7f000000000000000000000000000000000000000000000000000000000000000081565b7f000000000000000000000000000000000000000000000000000000000000000081565b7f000000000000000000000000000000000000000000000000000000000000000081565b336001600160a01b037f0000000000000000000000000000000000000000000000000000000000000000161480610b8957507f00000000000000000000000000000000000000000000000000000000000000006001600160a01b0316631fe4a6866040518163ffffffff1660e01b815260040160206040518083038186803b158015610b5157600080fd5b505afa158015610b65573d6000803e3d6000fd5b505050506040513d6020811015610b7b57600080fd5b50516001600160a01b031633145b80610c2057507f00000000000000000000000000000000000000000000000000000000000000006001600160a01b0316635aa6e6756040518163ffffffff1660e01b815260040160206040518083038186803b158015610be857600080fd5b505afa158015610bfc573d6000803e3d6000fd5b505050506040513d6020811015610c1257600080fd5b50516001600160a01b031633145b610c5f576040805162461bcd60e51b815260206004820152600b60248201526a08585d5d1a1bdc9a5e995960aa1b604482015290519081900360640190fd5b610c67612026565b565b6040805160038082526080820190925260009182916060916020820183803683370190505090507f00000000000000000000000000000000000000000000000000000000000000006001600160a01b0316634903b0d160006040518263ffffffff1660e01b81526004018082815260200191505060206040518083038186803b158015610cf557600080fd5b505afa158015610d09573d6000803e3d6000fd5b505050506040513d6020811015610d1f57600080fd5b505181518290600090610d2e57fe5b602002602001018181525050610dda64e8d4a510007f00000000000000000000000000000000000000000000000000000000000000006001600160a01b0316634903b0d160016040518263ffffffff1660e01b81526004018082815260200191505060206040518083038186803b158015610da857600080fd5b505afa158015610dbc573d6000803e3d6000fd5b505050506040513d6020811015610dd257600080fd5b5051906120be565b81600181518110610de757fe5b602002602001018181525050610e6164e8d4a510007f00000000000000000000000000000000000000000000000000000000000000006001600160a01b0316634903b0d160026040518263ffffffff1660e01b81526004018082815260200191505060206040518083038186803b158015610da857600080fd5b81600281518110610e6e57fe5b60200260200101818152505080600181518110610e8757fe5b602002602001015181600081518110610e9c57fe5b6020026020010151108015610ed8575080600281518110610eb957fe5b602002602001015181600081518110610ece57fe5b6020026020010151105b15610f0a577f000000000000000000000000000000000000000000000000000000000000000060009250925050611053565b80600081518110610f1757fe5b602002602001015181600181518110610f2c57fe5b6020026020010151108015610f68575080600281518110610f4957fe5b602002602001015181600181518110610f5e57fe5b6020026020010151105b15610f9a577f000000000000000000000000000000000000000000000000000000000000000060019250925050611053565b80600081518110610fa757fe5b602002602001015181600281518110610fbc57fe5b6020026020010151108015610ff8575080600181518110610fd957fe5b602002602001015181600281518110610fee57fe5b6020026020010151105b1561102a577f000000000000000000000000000000000000000000000000000000000000000060029250925050611053565b7f0000000000000000000000000000000000000000000000000000000000000000600092509250505b9091565b336001600160a01b037f000000000000000000000000000000000000000000000000000000000000000016148061111a57507f00000000000000000000000000000000000000000000000000000000000000006001600160a01b0316631fe4a6866040518163ffffffff1660e01b815260040160206040518083038186803b1580156110e257600080fd5b505afa1580156110f6573d6000803e3d6000fd5b505050506040513d602081101561110c57600080fd5b50516001600160a01b031633145b806111b157507f00000000000000000000000000000000000000000000000000000000000000006001600160a01b0316635aa6e6756040518163ffffffff1660e01b815260040160206040518083038186803b15801561117957600080fd5b505afa15801561118d573d6000803e3d6000fd5b505050506040513d60208110156111a357600080fd5b50516001600160a01b031633145b6111f0576040805162461bcd60e51b815260206004820152600b60248201526a08585d5d1a1bdc9a5e995960aa1b604482015290519081900360640190fd5b806001600160a01b03167f00000000000000000000000000000000000000000000000000000000000000006001600160a01b03161415611260576040805162461bcd60e51b815260206004808301919091526024820152631dd85b9d60e21b604482015290519081900360640190fd5b604080516370a0823160e01b8152306004820152905182916000916001600160a01b038416916370a08231916024808301926020929190829003018186803b1580156112ab57600080fd5b505afa1580156112bf573d6000803e3d6000fd5b505050506040513d60208110156112d557600080fd5b5051905061130d6001600160a01b0383167f000000000000000000000000000000000000000000000000000000000000000083611d87565b505050565b7f000000000000000000000000000000000000000000000000000000000000000081565b7f000000000000000000000000000000000000000000000000000000000000000081565b600061137561136761045c565b61136f6118bc565b90611f47565b905090565b336001600160a01b037f000000000000000000000000000000000000000000000000000000000000000016148061143d57507f00000000000000000000000000000000000000000000000000000000000000006001600160a01b0316631fe4a6866040518163ffffffff1660e01b815260040160206040518083038186803b15801561140557600080fd5b505afa158015611419573d6000803e3d6000fd5b505050506040513d602081101561142f57600080fd5b50516001600160a01b031633145b806114d457507f00000000000000000000000000000000000000000000000000000000000000006001600160a01b0316635aa6e6756040518163ffffffff1660e01b815260040160206040518083038186803b15801561149c57600080fd5b505afa1580156114b0573d6000803e3d6000fd5b505050506040513d60208110156114c657600080fd5b50516001600160a01b031633145b611513576040805162461bcd60e51b815260206004820152600b60248201526a08585d5d1a1bdc9a5e995960aa1b604482015290519081900360640190fd5b61151b612117565b6000611525611fa1565b90506000816001600160a01b03166370a08231306040518263ffffffff1660e01b815260040180826001600160a01b0316815260200191505060206040518083038186803b15801561157657600080fd5b505afa15801561158a573d6000803e3d6000fd5b505050506040513d60208110156115a057600080fd5b505160408051632988bb9f60e21b81526001600160a01b03858116600483015291519293506000927f00000000000000000000000000000000000000000000000000000000000000009092169163a622ee7c91602480820192602092909190829003018186803b15801561161357600080fd5b505afa158015611627573d6000803e3d6000fd5b505050506040513d602081101561163d57600080fd5b505190506001600160a01b038116611685576040805162461bcd60e51b8152602060048201526006602482015265085d985d5b1d60d21b604482015290519081900360640190fd5b6116996001600160a01b0384168284611d87565b604080516001600160a01b03831681526020810184905281517f884edad9ce6fa2440d8a54cc123490eb96d2768479d49ff9c7366125a9424364929181900390910190a1505050565b7f000000000000000000000000000000000000000000000000000000000000000081565b7f000000000000000000000000000000000000000000000000000000000000000081565b7f00000000000000000000000000000000000000000000000000000000000000006001600160a01b0316635aa6e6756040518163ffffffff1660e01b815260040160206040518083038186803b15801561178357600080fd5b505afa158015611797573d6000803e3d6000fd5b505050506040513d60208110156117ad57600080fd5b50516001600160a01b031633146117f9576040805162461bcd60e51b815260206004820152600b60248201526a21676f7665726e616e636560a81b604482015290519081900360640190fd5b600180546001600160a01b0319166001600160a01b0383811691909117909155611847907f000000000000000000000000000000000000000000000000000000000000000016826000611c5b565b61187d6001600160a01b037f00000000000000000000000000000000000000000000000000000000000000001682600019611c5b565b604080516001600160a01b038316815290517f6de4326a8b9054d72d9dbab97d27bc4edffadee7d966f5af9cc4eafdaf8e54559181900360200190a150565b60007f00000000000000000000000000000000000000000000000000000000000000006001600160a01b03166370a08231306040518263ffffffff1660e01b815260040180826001600160a01b0316815260200191505060206040518083038186803b1580156104cb57600080fd5b336001600160a01b037f00000000000000000000000000000000000000000000000000000000000000001614806119ee57507f00000000000000000000000000000000000000000000000000000000000000006001600160a01b0316631fe4a6866040518163ffffffff1660e01b815260040160206040518083038186803b1580156119b657600080fd5b505afa1580156119ca573d6000803e3d6000fd5b505050506040513d60208110156119e057600080fd5b50516001600160a01b031633145b80611a8557507f00000000000000000000000000000000000000000000000000000000000000006001600160a01b0316635aa6e6756040518163ffffffff1660e01b815260040160206040518083038186803b158015611a4d57600080fd5b505afa158015611a61573d6000803e3d6000fd5b505050506040513d6020811015611a7757600080fd5b50516001600160a01b031633145b611ac4576040805162461bcd60e51b815260206004820152600b60248201526a08585d5d1a1bdc9a5e995960aa1b604482015290519081900360640190fd5b610c676121bd565b61271081565b7f00000000000000000000000000000000000000000000000000000000000000006001600160a01b0316635aa6e6756040518163ffffffff1660e01b815260040160206040518083038186803b158015611b2b57600080fd5b505afa158015611b3f573d6000803e3d6000fd5b505050506040513d6020811015611b5557600080fd5b50516001600160a01b03163314611ba1576040805162461bcd60e51b815260206004820152600b60248201526a21676f7665726e616e636560a81b604482015290519081900360640190fd5b611bb56001600160a01b0384168383611c5b565b604080516001600160a01b0380861682528416602082015280820183905290517fa970d6820914289ea7e3d9aa084b30b00f955c7b0bb0f542f27c564e743ba6ab9181900360600190a1505050565b7f000000000000000000000000000000000000000000000000000000000000000081565b7f000000000000000000000000000000000000000000000000000000000000000081565b6001546001600160a01b031681565b801580611ce1575060408051636eb1769f60e11b81523060048201526001600160a01b03848116602483015291519185169163dd62ed3e91604480820192602092909190829003018186803b158015611cb357600080fd5b505afa158015611cc7573d6000803e3d6000fd5b505050506040513d6020811015611cdd57600080fd5b5051155b611d1c5760405162461bcd60e51b81526004018080602001828103825260368152602001806130356036913960400191505060405180910390fd5b604080516001600160a01b038416602482015260448082018490528251808303909101815260649091019091526020810180516001600160e01b031663095ea7b360e01b17905261130d908490612250565b6060611d7d8484600085612301565b90505b9392505050565b604080516001600160a01b038416602482015260448082018490528251808303909101815260649091019091526020810180516001600160e01b031663a9059cbb60e01b17905261130d908490612250565b6000611e1b83836040518060400160405280601e81526020017f536166654d6174683a207375627472616374696f6e206f766572666c6f77000081525061245d565b90505b92915050565b600080611e2f611fa1565b90506000816001600160a01b03166370a08231306040518263ffffffff1660e01b815260040180826001600160a01b0316815260200191505060206040518083038186803b158015611e8057600080fd5b505afa158015611e94573d6000803e3d6000fd5b505050506040513d6020811015611eaa57600080fd5b50519050611eb7846124f4565b6000826001600160a01b03166370a08231306040518263ffffffff1660e01b815260040180826001600160a01b0316815260200191505060206040518083038186803b158015611f0657600080fd5b505afa158015611f1a573d6000803e3d6000fd5b505050506040513d6020811015611f3057600080fd5b50519050611f3e8183611dd9565b95945050505050565b600082820183811015611e1b576040805162461bcd60e51b815260206004820152601b60248201527f536166654d6174683a206164646974696f6e206f766572666c6f770000000000604482015290519081900360640190fd5b60007f00000000000000000000000000000000000000000000000000000000000000006001600160a01b03166364f50057306040518263ffffffff1660e01b815260040180826001600160a01b03168152602001915050602060405180830381600087803b15801561201257600080fd5b505af11580156104df573d6000803e3d6000fd5b61202e61255a565b60006120597f0000000000000000000000000000000000000000000000000000000000000000612603565b905080156120bb57600061206b610c69565b5090506120997f00000000000000000000000000000000000000000000000000000000000000008284612af0565b6120a1612c37565b60006120ab6118bc565b11156120b9576120b96121bd565b505b50565b6000826120cd57506000611e1e565b828202828482816120da57fe5b0414611e1b5760405162461bcd60e51b8152600401808060200182810382526021815260200180612fea6021913960400191505060405180910390fd5b60007f00000000000000000000000000000000000000000000000000000000000000006001600160a01b03166370a08231306040518263ffffffff1660e01b815260040180826001600160a01b0316815260200191505060206040518083038186803b15801561218657600080fd5b505afa15801561219a573d6000803e3d6000fd5b505050506040513d60208110156121b057600080fd5b505190506120bb816124f4565b60006121c76118bc565b905080156120bb577f00000000000000000000000000000000000000000000000000000000000000006001600160a01b031663b6b55f25826040518263ffffffff1660e01b815260040180828152602001915050600060405180830381600087803b15801561223557600080fd5b505af1158015612249573d6000803e3d6000fd5b5050505050565b60606122a5826040518060400160405280602081526020017f5361666545524332303a206c6f772d6c6576656c2063616c6c206661696c6564815250856001600160a01b0316611d6e9092919063ffffffff16565b80519091501561130d578080602001905160208110156122c457600080fd5b505161130d5760405162461bcd60e51b815260040180806020018281038252602a81526020018061300b602a913960400191505060405180910390fd5b6060824710156123425760405162461bcd60e51b8152600401808060200182810382526026815260200180612fc46026913960400191505060405180910390fd5b61234b85612e97565b61239c576040805162461bcd60e51b815260206004820152601d60248201527f416464726573733a2063616c6c20746f206e6f6e2d636f6e7472616374000000604482015290519081900360640190fd5b60006060866001600160a01b031685876040518082805190602001908083835b602083106123db5780518252601f1990920191602091820191016123bc565b6001836020036101000a03801982511681845116808217855250505050505090500191505060006040518083038185875af1925050503d806000811461243d576040519150601f19603f3d011682016040523d82523d6000602084013e612442565b606091505b5091509150612452828286612e9d565b979650505050505050565b600081848411156124ec5760405162461bcd60e51b81526004018080602001828103825283818151815260200191508051906020019080838360005b838110156124b1578181015183820152602001612499565b50505050905090810190601f1680156124de5780820380516001836020036101000a031916815260200191505b509250505060405180910390fd5b505050900390565b7f00000000000000000000000000000000000000000000000000000000000000006001600160a01b0316632e1a7d4d826040518263ffffffff1660e01b815260040180828152602001915050600060405180830381600087803b15801561223557600080fd5b7f00000000000000000000000000000000000000000000000000000000000000006001600160a01b0316636a6278427f00000000000000000000000000000000000000000000000000000000000000006040518263ffffffff1660e01b815260040180826001600160a01b03168152602001915050600060405180830381600087803b1580156125e957600080fd5b505af11580156125fd573d6000803e3d6000fd5b50505050565b600080826001600160a01b03166370a08231306040518263ffffffff1660e01b815260040180826001600160a01b0316815260200191505060206040518083038186803b15801561265357600080fd5b505afa158015612667573d6000803e3d6000fd5b505050506040513d602081101561267d57600080fd5b505190506126ac837f000000000000000000000000000000000000000000000000000000000000000083612af0565b604080516370a0823160e01b815230600482015290516001600160a01b037f000000000000000000000000000000000000000000000000000000000000000016916370a08231916024808301926020929190829003018186803b15801561271257600080fd5b505afa158015612726573d6000803e3d6000fd5b505050506040513d602081101561273c57600080fd5b505191508115612aea5760008060008060008060007f00000000000000000000000000000000000000000000000000000000000000006001600160a01b031663da633d316040518163ffffffff1660e01b815260040160e06040518083038186803b1580156127aa57600080fd5b505afa1580156127be573d6000803e3d6000fd5b505050506040513d60e08110156127d457600080fd5b508051602082015160408301516060840151608085015160a086015160c090960151949c50929a509098509650945090925090506000851580159061282157506001600160a01b03871615155b156128f75761283c6127106128368c896120be565b90612f03565b90506128697f00000000000000000000000000000000000000000000000000000000000000008983612af0565b6128f787896001600160a01b03166370a08231306040518263ffffffff1660e01b815260040180826001600160a01b0316815260200191505060206040518083038186803b1580156128ba57600080fd5b505afa1580156128ce573d6000803e3d6000fd5b505050506040513d60208110156128e457600080fd5b50516001600160a01b038b169190611d87565b60008411801561290f57506001600160a01b03851615155b156129a2576129246127106128368c876120be565b90506129517f00000000000000000000000000000000000000000000000000000000000000008983612af0565b6129a285896001600160a01b03166370a08231306040518263ffffffff1660e01b815260040180826001600160a01b0316815260200191505060206040518083038186803b1580156128ba57600080fd5b6000821180156129ba57506001600160a01b03831615155b15612a4d576129cf6127106128368c856120be565b90506129fc7f00000000000000000000000000000000000000000000000000000000000000008983612af0565b612a4d83896001600160a01b03166370a08231306040518263ffffffff1660e01b815260040180826001600160a01b0316815260200191505060206040518083038186803b1580156128ba57600080fd5b604080516370a0823160e01b815230600482015290516001600160a01b037f000000000000000000000000000000000000000000000000000000000000000016916370a08231916024808301926020929190829003018186803b158015612ab357600080fd5b505afa158015612ac7573d6000803e3d6000fd5b505050506040513d6020811015612add57600080fd5b5051995050505050505050505b50919050565b60408051600280825260608083018452926020830190803683370190505090508381600081518110612b1e57fe5b60200260200101906001600160a01b031690816001600160a01b0316815250508281600181518110612b4c57fe5b6001600160a01b03928316602091820292909201015260018054909116906338ed17399084908430612b8042610708611f47565b6040518663ffffffff1660e01b81526004018086815260200185815260200180602001846001600160a01b03168152602001838152602001828103825285818151815260200191508051906020019060200280838360005b83811015612bf0578181015183820152602001612bd8565b505050509050019650505050505050600060405180830381600087803b158015612c1957600080fd5b505af1158015612c2d573d6000803e3d6000fd5b5050505050505050565b612c3f612fa5565b604080516370a0823160e01b815230600482015290516001600160a01b037f000000000000000000000000000000000000000000000000000000000000000016916370a08231916024808301926020929190829003018186803b158015612ca557600080fd5b505afa158015612cb9573d6000803e3d6000fd5b505050506040513d6020811015612ccf57600080fd5b50518152604080516370a0823160e01b815230600482015290516001600160a01b037f000000000000000000000000000000000000000000000000000000000000000016916370a08231916024808301926020929190829003018186803b158015612d3957600080fd5b505afa158015612d4d573d6000803e3d6000fd5b505050506040513d6020811015612d6357600080fd5b5051602080830191909152604080516370a0823160e01b815230600482015290516001600160a01b037f000000000000000000000000000000000000000000000000000000000000000016926370a082319260248082019391829003018186803b158015612dd057600080fd5b505afa158015612de4573d6000803e3d6000fd5b505050506040513d6020811015612dfa57600080fd5b50518160026020020152604051634515cef360e01b81526001600160a01b037f00000000000000000000000000000000000000000000000000000000000000001690634515cef39083906001906004018083606080838360005b83811015612e6c578181015183820152602001612e54565b5050505090500182815260200192505050600060405180830381600087803b15801561223557600080fd5b3b151590565b60608315612eac575081611d80565b825115612ebc5782518084602001fd5b60405162461bcd60e51b81526020600482018181528451602484015284518593919283926044019190850190808383600083156124b1578181015183820152602001612499565b6000611e1b83836040518060400160405280601a81526020017f536166654d6174683a206469766973696f6e206279207a65726f00000000000081525060008183612f8f5760405162461bcd60e51b81526020600482018181528351602484015283519092839260449091019190850190808383600083156124b1578181015183820152602001612499565b506000838581612f9b57fe5b0495945050505050565b6040518060600160405280600390602082028036833750919291505056fe416464726573733a20696e73756666696369656e742062616c616e636520666f722063616c6c536166654d6174683a206d756c7469706c69636174696f6e206f766572666c6f775361666545524332303a204552433230206f7065726174696f6e20646964206e6f7420737563636565645361666545524332303a20617070726f76652066726f6d206e6f6e2d7a65726f20746f206e6f6e2d7a65726f20616c6c6f77616e6365a264697066735822122036c751a2cb662a4869616f3547bba27556255c8c974ef4220a4fbff8a4258af064736f6c634300060c0033416464726573733a20696e73756666696369656e742062616c616e636520666f722063616c6c5361666545524332303a204552433230206f7065726174696f6e20646964206e6f7420737563636565645361666545524332303a20617070726f76652066726f6d206e6f6e2d7a65726f20746f206e6f6e2d7a65726f20616c6c6f77616e6365",
  "devdoc": {
    "kind": "dev",
    "methods": {
      "approveForSpender(address,address,uint256)": {
        "params": {
          "_amount": "The amount to spend",
          "_spender": "The address of the spender",
          "_token": "The address of the token"
        }
      },
      "balanceOfPool()": {
        "details": "Must be implemented by the strategy"
      },
      "setRouter(address)": {
        "params": {
          "_router": "The address of the router"
        }
      },
      "withdraw(address)": {
        "params": {
          "_asset": "The address of the token to withdraw"
        }
      },
      "withdraw(uint256)": {
        "params": {
          "_amount": "The amount of the want token to withdraw"
        }
      }
    },
    "version": 1
  },
  "userdoc": {
    "kind": "user",
    "methods": {
      "approveForSpender(address,address,uint256)": {
        "notice": "Approves a token address to be spent by an address"
      },
      "balanceOf()": {
        "notice": "Returns the strategy's balance of the want token plus the balance of pool"
      },
      "balanceOfPool()": {
        "notice": "Returns the balance of the pool"
      },
      "balanceOfWant()": {
        "notice": "Returns the balance of the want token on the strategy"
      },
      "deposit()": {
        "notice": "Deposits funds to the strategy's pool"
      },
      "harvest()": {
        "notice": "Harvest funds in the strategy's pool"
      },
      "setRouter(address)": {
        "notice": "Sets the address of the ISwap-compatible router"
      },
      "skim()": {
        "notice": "Sends stuck want tokens in the strategy to the controller"
      },
      "withdraw(address)": {
        "notice": "Sends stuck tokens in the strategy to the controller"
      },
      "withdraw(uint256)": {
        "notice": "Initiated from a vault, withdraws funds from the pool"
      },
      "withdrawAll()": {
        "notice": "Withdraws all funds from the strategy"
      }
    },
    "version": 1
  },
  "storageLayout": {
    "storage": [
      {
        "astId": 8749,
        "contract": "contracts/metavault/strategies/StrategyCurve3Crv.sol:StrategyCurve3Crv",
        "label": "name",
        "offset": 0,
        "slot": "0",
        "type": "t_string_storage"
      },
      {
        "astId": 8751,
        "contract": "contracts/metavault/strategies/StrategyCurve3Crv.sol:StrategyCurve3Crv",
        "label": "router",
        "offset": 0,
        "slot": "1",
        "type": "t_contract(ISwap)2406"
      }
    ],
    "types": {
      "t_contract(ISwap)2406": {
        "encoding": "inplace",
        "label": "contract ISwap",
        "numberOfBytes": "20"
      },
      "t_string_storage": {
        "encoding": "bytes",
        "label": "string",
        "numberOfBytes": "32"
      }
    }
  }
}