{
  "address": "0x3c7618f78A5CcbE9D2A45D2F71C68b688A89C655",
  "abi": [
    {
      "inputs": [
        {
          "internalType": "string",
          "name": "_name",
          "type": "string"
        },
        {
          "internalType": "address",
          "name": "_want",
          "type": "address"
        },
        {
          "internalType": "address",
          "name": "_crv",
          "type": "address"
        },
        {
          "internalType": "address",
          "name": "_weth",
          "type": "address"
        },
        {
          "internalType": "address",
          "name": "_dai",
          "type": "address"
        },
        {
          "internalType": "address",
          "name": "_usdc",
          "type": "address"
        },
        {
          "internalType": "address",
          "name": "_usdt",
          "type": "address"
        },
        {
          "internalType": "contract Gauge",
          "name": "_gauge",
          "type": "address"
        },
        {
          "internalType": "contract Mintr",
          "name": "_crvMintr",
          "type": "address"
        },
        {
          "internalType": "contract IStableSwap3Pool",
          "name": "_stableSwap3Pool",
          "type": "address"
        },
        {
          "internalType": "address",
          "name": "_controller",
          "type": "address"
        },
        {
          "internalType": "address",
          "name": "_vaultManager",
          "type": "address"
        },
        {
          "internalType": "address",
          "name": "_router",
          "type": "address"
        }
      ],
      "stateMutability": "nonpayable",
      "type": "constructor"
    },
    {
      "anonymous": false,
      "inputs": [
        {
          "indexed": false,
          "internalType": "address",
          "name": "token",
          "type": "address"
        },
        {
          "indexed": false,
          "internalType": "address",
          "name": "spender",
          "type": "address"
        },
        {
          "indexed": false,
          "internalType": "uint256",
          "name": "amount",
          "type": "uint256"
        }
      ],
      "name": "ApproveForSpender",
      "type": "event"
    },
    {
      "anonymous": false,
      "inputs": [
        {
          "indexed": false,
          "internalType": "address",
          "name": "controller",
          "type": "address"
        }
      ],
      "name": "SetController",
      "type": "event"
    },
    {
      "anonymous": false,
      "inputs": [
        {
          "indexed": false,
          "internalType": "address",
          "name": "router",
          "type": "address"
        }
      ],
      "name": "SetRouter",
      "type": "event"
    },
    {
      "anonymous": false,
      "inputs": [],
      "name": "Skim",
      "type": "event"
    },
    {
      "anonymous": false,
      "inputs": [
        {
          "indexed": false,
          "internalType": "address",
          "name": "vault",
          "type": "address"
        },
        {
          "indexed": false,
          "internalType": "uint256",
          "name": "amount",
          "type": "uint256"
        }
      ],
      "name": "Withdraw",
      "type": "event"
    },
    {
      "inputs": [],
      "name": "ONE_HUNDRED_PERCENT",
      "outputs": [
        {
          "internalType": "uint256",
          "name": "",
          "type": "uint256"
        }
      ],
      "stateMutability": "view",
      "type": "function"
    },
    {
      "inputs": [
        {
          "internalType": "contract IERC20",
          "name": "_token",
          "type": "address"
        },
        {
          "internalType": "address",
          "name": "_spender",
          "type": "address"
        },
        {
          "internalType": "uint256",
          "name": "_amount",
          "type": "uint256"
        }
      ],
      "name": "approveForSpender",
      "outputs": [],
      "stateMutability": "nonpayable",
      "type": "function"
    },
    {
      "inputs": [],
      "name": "balanceOf",
      "outputs": [
        {
          "internalType": "uint256",
          "name": "",
          "type": "uint256"
        }
      ],
      "stateMutability": "view",
      "type": "function"
    },
    {
      "inputs": [],
      "name": "balanceOfPool",
      "outputs": [
        {
          "internalType": "uint256",
          "name": "",
          "type": "uint256"
        }
      ],
      "stateMutability": "view",
      "type": "function"
    },
    {
      "inputs": [],
      "name": "balanceOfWant",
      "outputs": [
        {
          "internalType": "uint256",
          "name": "",
          "type": "uint256"
        }
      ],
      "stateMutability": "view",
      "type": "function"
    },
    {
      "inputs": [],
      "name": "controller",
      "outputs": [
        {
          "internalType": "address",
          "name": "",
          "type": "address"
        }
      ],
      "stateMutability": "view",
      "type": "function"
    },
    {
      "inputs": [],
      "name": "crv",
      "outputs": [
        {
          "internalType": "address",
          "name": "",
          "type": "address"
        }
      ],
      "stateMutability": "view",
      "type": "function"
    },
    {
      "inputs": [],
      "name": "crvMintr",
      "outputs": [
        {
          "internalType": "contract Mintr",
          "name": "",
          "type": "address"
        }
      ],
      "stateMutability": "view",
      "type": "function"
    },
    {
      "inputs": [],
      "name": "dai",
      "outputs": [
        {
          "internalType": "address",
          "name": "",
          "type": "address"
        }
      ],
      "stateMutability": "view",
      "type": "function"
    },
    {
      "inputs": [],
      "name": "deposit",
      "outputs": [],
      "stateMutability": "nonpayable",
      "type": "function"
    },
    {
      "inputs": [],
      "name": "gauge",
      "outputs": [
        {
          "internalType": "contract Gauge",
          "name": "",
          "type": "address"
        }
      ],
      "stateMutability": "view",
      "type": "function"
    },
    {
      "inputs": [],
      "name": "getMostPremium",
      "outputs": [
        {
          "internalType": "address",
          "name": "",
          "type": "address"
        },
        {
          "internalType": "uint256",
          "name": "",
          "type": "uint256"
        }
      ],
      "stateMutability": "view",
      "type": "function"
    },
    {
      "inputs": [],
      "name": "harvest",
      "outputs": [],
      "stateMutability": "nonpayable",
      "type": "function"
    },
    {
      "inputs": [],
      "name": "name",
      "outputs": [
        {
          "internalType": "string",
          "name": "",
          "type": "string"
        }
      ],
      "stateMutability": "view",
      "type": "function"
    },
    {
      "inputs": [],
      "name": "router",
      "outputs": [
        {
          "internalType": "contract ISwap",
          "name": "",
          "type": "address"
        }
      ],
      "stateMutability": "view",
      "type": "function"
    },
    {
      "inputs": [
        {
          "internalType": "address",
          "name": "_controller",
          "type": "address"
        }
      ],
      "name": "setController",
      "outputs": [],
      "stateMutability": "nonpayable",
      "type": "function"
    },
    {
      "inputs": [
        {
          "internalType": "address",
          "name": "_router",
          "type": "address"
        }
      ],
      "name": "setRouter",
      "outputs": [],
      "stateMutability": "nonpayable",
      "type": "function"
    },
    {
      "inputs": [],
      "name": "skim",
      "outputs": [],
      "stateMutability": "nonpayable",
      "type": "function"
    },
    {
      "inputs": [],
      "name": "stableSwap3Pool",
      "outputs": [
        {
          "internalType": "contract IStableSwap3Pool",
          "name": "",
          "type": "address"
        }
      ],
      "stateMutability": "view",
      "type": "function"
    },
    {
      "inputs": [],
      "name": "usdc",
      "outputs": [
        {
          "internalType": "address",
          "name": "",
          "type": "address"
        }
      ],
      "stateMutability": "view",
      "type": "function"
    },
    {
      "inputs": [],
      "name": "usdt",
      "outputs": [
        {
          "internalType": "address",
          "name": "",
          "type": "address"
        }
      ],
      "stateMutability": "view",
      "type": "function"
    },
    {
      "inputs": [],
      "name": "vaultManager",
      "outputs": [
        {
          "internalType": "contract IVaultManager",
          "name": "",
          "type": "address"
        }
      ],
      "stateMutability": "view",
      "type": "function"
    },
    {
      "inputs": [],
      "name": "want",
      "outputs": [
        {
          "internalType": "address",
          "name": "",
          "type": "address"
        }
      ],
      "stateMutability": "view",
      "type": "function"
    },
    {
      "inputs": [],
      "name": "weth",
      "outputs": [
        {
          "internalType": "address",
          "name": "",
          "type": "address"
        }
      ],
      "stateMutability": "view",
      "type": "function"
    },
    {
      "inputs": [
        {
          "internalType": "uint256",
          "name": "_amount",
          "type": "uint256"
        }
      ],
      "name": "withdraw",
      "outputs": [],
      "stateMutability": "nonpayable",
      "type": "function"
    },
    {
      "inputs": [
        {
          "internalType": "address",
          "name": "_asset",
          "type": "address"
        }
      ],
      "name": "withdraw",
      "outputs": [],
      "stateMutability": "nonpayable",
      "type": "function"
    },
    {
      "inputs": [],
      "name": "withdrawAll",
      "outputs": [],
      "stateMutability": "nonpayable",
      "type": "function"
    }
  ],
  "transactionHash": "0x620fa4532dc54a438c7718ec40127fafe900cbed8cb70741e454495c84d74332",
  "args": [
    "Curve: 3CRV",
    "0x6c3F90f043a72FA612cbac8115EE7e52BDe6E490",
    "0xD533a949740bb3306d119CC777fa900bA034cd52",
    "0xC02aaA39b223FE8D0A0e5C4F27eAD9083C756Cc2",
    "0x6B175474E89094C44Da98b954EedeAC495271d0F",
    "0xA0b86991c6218b36c1d19D4a2e9Eb0cE3606eB48",
    "0xdAC17F958D2ee523a2206206994597C13D831ec7",
    "0xbFcF63294aD7105dEa65aA58F8AE5BE2D9d0952A",
    "0xd061D61a4d941c39E5453435B6345Dc261C2fcE0",
    "0xbEbc44782C7dB0a1A60Cb6fe97d0b483032FF1C7",
    "0xD2c5fe04d97c8C7cea36FbB5016E934C39dCe549",
    "0xe3d32C20Be68e6189a52f60148c850dF7A2Bb5DD",
    "0x7a250d5630B4cF539739dF2C5dAcb4c659F2488D"
  ],
  "solcInputHash": "3de2fa958fb77ce58b6c702d42713fa5",
  "bytecode": "0x6101a06040523480156200001257600080fd5b5060405162003caf38038062003caf83398181016040526101a08110156200003957600080fd5b81019080805160405193929190846401000000008211156200005a57600080fd5b9083019060208201858111156200007057600080fd5b82516401000000008111828201881017156200008b57600080fd5b82525081516020918201929091019080838360005b83811015620000ba578181015183820152602001620000a0565b50505050905090810190601f168015620000e85780820380516001836020036101000a031916815260200191505b5060409081526020820151908201516060830151608084015160a085015160c086015160e08701516101008801516101208901516101408a01516101608b0151610180909b0151999c50979a509598949793969295919490939192918c83838e8d856001600160a01b03851662000195576040805162461bcd60e51b815260206004820152600c60248201526b10afb1b7b73a3937b63632b960a11b604482015290519081900360640190fd5b6001600160a01b038416620001e2576040805162461bcd60e51b815260206004820152600e60248201526d10afbb30bab63a26b0b730b3b2b960911b604482015290519081900360640190fd5b6001600160a01b03831662000227576040805162461bcd60e51b81526020600482015260066024820152650857ddd85b9d60d21b604482015290519081900360640190fd5b6001600160a01b0382166200026c576040805162461bcd60e51b8152602060048201526006602482015265042beeecae8d60d31b604482015290519081900360640190fd5b6001600160a01b038116620002b3576040805162461bcd60e51b815260206004820152600860248201526710afb937baba32b960c11b604482015290519081900360640190fd5b8551620002c890600090602089019062000a90565b50606083811b6001600160601b0319908116608052600180546001600160a01b03199081166001600160a01b038a8116919091179092556002805482168984161790559285901b90911660a052600380549092168382161790915562000340908316826000196200067d602090811b62001bd317901c565b50505050506001600160a01b038c16151590506200038d576040805162461bcd60e51b815260206004820152600560248201526410afb1b93b60d91b604482015290519081900360640190fd5b6001600160a01b038916620003d1576040805162461bcd60e51b8152602060048201526005602482015264215f64616960d81b604482015290519081900360640190fd5b6001600160a01b03881662000416576040805162461bcd60e51b8152602060048201526006602482015265215f7573646360d01b604482015290519081900360640190fd5b6001600160a01b0387166200045b576040805162461bcd60e51b81526020600482015260066024820152650857dd5cd91d60d21b604482015290519081900360640190fd5b6001600160a01b038616620004a1576040805162461bcd60e51b8152602060048201526007602482015266215f676175676560c81b604482015290519081900360640190fd5b6001600160a01b038516620004ea576040805162461bcd60e51b815260206004820152600a60248201526910afb1b93b26b4b73a3960b11b604482015290519081900360640190fd5b6001600160a01b0384166200053a576040805162461bcd60e51b81526020600482015260116024820152700857dcdd18589b1954ddd85c0cd41bdbdb607a1b604482015290519081900360640190fd5b60608b811b6001600160601b031990811660c0528a821b811660e05289821b81166101005288821b81166101205285821b81166101605287821b8116610180529086901b1661014052620005a76001600160a01b038d16876000196200067d602090811b62001bd317901c565b620005ce816000198d6001600160a01b03166200067d60201b62001bd3179092919060201c565b620005f5846000198b6001600160a01b03166200067d60201b62001bd3179092919060201c565b6200061c846000198a6001600160a01b03166200067d60201b62001bd3179092919060201c565b6200064384600019896001600160a01b03166200067d60201b62001bd3179092919060201c565b6200066a846000198e6001600160a01b03166200067d60201b62001bd3179092919060201c565b5050505050505050505050505062000b2c565b80158062000707575060408051636eb1769f60e11b81523060048201526001600160a01b03848116602483015291519185169163dd62ed3e91604480820192602092909190829003018186803b158015620006d757600080fd5b505afa158015620006ec573d6000803e3d6000fd5b505050506040513d60208110156200070357600080fd5b5051155b620007445760405162461bcd60e51b815260040180806020018281038252603681526020018062003c796036913960400191505060405180910390fd5b604080516001600160a01b038416602482015260448082018490528251808303909101815260649091019091526020810180516001600160e01b0390811663095ea7b360e01b179091526200079c918591620007a116565b505050565b6060620007fd826040518060400160405280602081526020017f5361666545524332303a206c6f772d6c6576656c2063616c6c206661696c6564815250856001600160a01b03166200085d60201b62001ce6179092919060201c565b8051909150156200079c578080602001905160208110156200081e57600080fd5b50516200079c5760405162461bcd60e51b815260040180806020018281038252602a81526020018062003c4f602a913960400191505060405180910390fd5b60606200086e848460008562000878565b90505b9392505050565b606082471015620008bb5760405162461bcd60e51b815260040180806020018281038252602681526020018062003c296026913960400191505060405180910390fd5b620008c685620009e0565b62000918576040805162461bcd60e51b815260206004820152601d60248201527f416464726573733a2063616c6c20746f206e6f6e2d636f6e7472616374000000604482015290519081900360640190fd5b60006060866001600160a01b031685876040518082805190602001908083835b60208310620009595780518252601f19909201916020918201910162000938565b6001836020036101000a03801982511681845116808217855250505050505090500191505060006040518083038185875af1925050503d8060008114620009bd576040519150601f19603f3d011682016040523d82523d6000602084013e620009c2565b606091505b509092509050620009d5828286620009e6565b979650505050505050565b3b151590565b60608315620009f757508162000871565b82511562000a085782518084602001fd5b8160405162461bcd60e51b81526004018080602001828103825283818151815260200191508051906020019080838360005b8381101562000a5457818101518382015260200162000a3a565b50505050905090810190601f16801562000a825780820380516001836020036101000a031916815260200191505b509250505060405180910390fd5b828054600181600116156101000203166002900490600052602060002090601f016020900481019282601f1062000ad357805160ff191683800117855562000b03565b8280016001018555821562000b03579182015b8281111562000b0357825182559160200191906001019062000ae6565b5062000b1192915062000b15565b5090565b5b8082111562000b11576000815560010162000b16565b60805160601c60a05160601c60c05160601c60e05160601c6101005160601c6101205160601c6101405160601c6101605160601c6101805160601c612fe462000c45600039806104a152806116df528061206e5280612124528061244952806124de525080610c055280610cb85280610d71528061123a5280612d5f5250806103ed52806124af525080610a035280610f725280612cd2525080610a275280610ee25280612c37525080610e525280610f9f5280611b935280612ba352508061125e5280611f88525080610a4b52806117eb52806118205280611fc652806125da528061261f528061278b5280612873528061291e52806129b55250806106c45280610718528061113b528061188c5250612fe46000f3fe608060405234801561001057600080fd5b50600436106101a95760003560e01c80636a4874a1116100f9578063c1a3d44c11610097578063ef9e237911610071578063ef9e23791461039d578063f4b9fa75146103d3578063f77c4791146103db578063f887ea40146103e3576101a9565b8063c1a3d44c14610385578063d0e30db01461038d578063dd0081c714610395576101a9565b80638a4adf24116100d35780638a4adf241461032957806392eefe9b14610331578063a6f19c8414610357578063c0d786551461035f576101a9565b80636a4874a114610311578063722713f714610319578063853828b614610321576101a9565b80632f48ab7d116101665780634641257d116101405780634641257d146102b057806348677dbe146102b857806351cff8d9146102e35780635a3874ac14610309576101a9565b80632f48ab7d146102985780633e413bee146102a05780633fc8cef3146102a8576101a9565b8063017f3987146101ae57806306fdde03146101d2578063115880861461024f5780631dd19cb4146102695780631f1fcd51146102735780632e1a7d4d1461027b575b600080fd5b6101b66103eb565b604080516001600160a01b039092168252519081900360200190f35b6101da61040f565b6040805160208082528351818301528351919283929083019185019080838360005b838110156102145781810151838201526020016101fc565b50505050905090810190601f1680156102415780820380516001836020036101000a031916815260200191505b509250505060405180910390f35b61025761049d565b60408051918252519081900360200190f35b61027161053d565b005b6101b6610716565b6102716004803603602081101561029157600080fd5b503561073a565b6101b6610a01565b6101b6610a25565b6101b6610a49565b610271610a6d565b6102c0610bdc565b604080516001600160a01b03909316835260208301919091528051918290030190f35b610271600480360360208110156102f957600080fd5b50356001600160a01b0316610fca565b6101b6611238565b6101b661125c565b610257611280565b6102716112a0565b6101b66115b6565b6102716004803603602081101561034757600080fd5b50356001600160a01b03166115c5565b6101b66116dd565b6102716004803603602081101561037557600080fd5b50356001600160a01b0316611701565b610257611888565b6102716118f7565b610257611a64565b610271600480360360608110156103b357600080fd5b506001600160a01b03813581169160208101359091169060400135611a6a565b6101b6611b91565b6101b6611bb5565b6101b6611bc4565b7f000000000000000000000000000000000000000000000000000000000000000081565b6000805460408051602060026001851615610100026000190190941693909304601f810184900484028201840190925281815292918301828280156104955780601f1061046a57610100808354040283529160200191610495565b820191906000526020600020905b81548152906001019060200180831161047857829003601f168201915b505050505081565b60007f00000000000000000000000000000000000000000000000000000000000000006001600160a01b03166370a08231306040518263ffffffff1660e01b815260040180826001600160a01b0316815260200191505060206040518083038186803b15801561050c57600080fd5b505afa158015610520573d6000803e3d6000fd5b505050506040513d602081101561053657600080fd5b5051905090565b6001546001600160a01b03163314806105d75750600260009054906101000a90046001600160a01b03166001600160a01b0316631fe4a6866040518163ffffffff1660e01b815260040160206040518083038186803b15801561059f57600080fd5b505afa1580156105b3573d6000803e3d6000fd5b505050506040513d60208110156105c957600080fd5b50516001600160a01b031633145b806106635750600260009054906101000a90046001600160a01b03166001600160a01b0316635aa6e6756040518163ffffffff1660e01b815260040160206040518083038186803b15801561062b57600080fd5b505afa15801561063f573d6000803e3d6000fd5b505050506040513d602081101561065557600080fd5b50516001600160a01b031633145b6106a2576040805162461bcd60e51b815260206004820152600b60248201526a08585d5d1a1bdc9a5e995960aa1b604482015290519081900360640190fd5b6001546106eb906001600160a01b03166106ba611888565b6001600160a01b037f0000000000000000000000000000000000000000000000000000000000000000169190611cff565b6040517f21ad22495c9c75cd1c94756f91824e779c0c8a8e168b267c790df464fe056b7990600090a1565b7f000000000000000000000000000000000000000000000000000000000000000081565b6001546001600160a01b03163314806107d45750600260009054906101000a90046001600160a01b03166001600160a01b0316631fe4a6866040518163ffffffff1660e01b815260040160206040518083038186803b15801561079c57600080fd5b505afa1580156107b0573d6000803e3d6000fd5b505050506040513d60208110156107c657600080fd5b50516001600160a01b031633145b806108605750600260009054906101000a90046001600160a01b03166001600160a01b0316635aa6e6756040518163ffffffff1660e01b815260040160206040518083038186803b15801561082857600080fd5b505afa15801561083c573d6000803e3d6000fd5b505050506040513d602081101561085257600080fd5b50516001600160a01b031633145b61089f576040805162461bcd60e51b815260206004820152600b60248201526a08585d5d1a1bdc9a5e995960aa1b604482015290519081900360640190fd5b60006108a9611888565b9050818110156108d4576108c56108c08383611d51565b611d9c565b91506108d18282611ebf565b91505b60006108de611f19565b60015460408051632988bb9f60e21b81526001600160a01b0380851660048301529151939450600093919092169163a622ee7c916024808301926020929190829003018186803b15801561093157600080fd5b505afa158015610945573d6000803e3d6000fd5b505050506040513d602081101561095b57600080fd5b505190506001600160a01b0381166109a3576040805162461bcd60e51b8152602060048201526006602482015265085d985d5b1d60d21b604482015290519081900360640190fd5b6109b76001600160a01b0383168286611cff565b604080516001600160a01b03831681526020810186905281517f884edad9ce6fa2440d8a54cc123490eb96d2768479d49ff9c7366125a9424364929181900390910190a150505050565b7f000000000000000000000000000000000000000000000000000000000000000081565b7f000000000000000000000000000000000000000000000000000000000000000081565b7f000000000000000000000000000000000000000000000000000000000000000081565b6001546001600160a01b0316331480610b075750600260009054906101000a90046001600160a01b03166001600160a01b0316631fe4a6866040518163ffffffff1660e01b815260040160206040518083038186803b158015610acf57600080fd5b505afa158015610ae3573d6000803e3d6000fd5b505050506040513d6020811015610af957600080fd5b50516001600160a01b031633145b80610b935750600260009054906101000a90046001600160a01b03166001600160a01b0316635aa6e6756040518163ffffffff1660e01b815260040160206040518083038186803b158015610b5b57600080fd5b505afa158015610b6f573d6000803e3d6000fd5b505050506040513d6020811015610b8557600080fd5b50516001600160a01b031633145b610bd2576040805162461bcd60e51b815260206004820152600b60248201526a08585d5d1a1bdc9a5e995960aa1b604482015290519081900360640190fd5b610bda611f79565b565b6040805160038082526080820190925260009182916060916020820183803683370190505090507f00000000000000000000000000000000000000000000000000000000000000006001600160a01b0316634903b0d160006040518263ffffffff1660e01b81526004018082815260200191505060206040518083038186803b158015610c6857600080fd5b505afa158015610c7c573d6000803e3d6000fd5b505050506040513d6020811015610c9257600080fd5b505181518290600090610ca157fe5b602002602001018181525050610d4d64e8d4a510007f00000000000000000000000000000000000000000000000000000000000000006001600160a01b0316634903b0d160016040518263ffffffff1660e01b81526004018082815260200191505060206040518083038186803b158015610d1b57600080fd5b505afa158015610d2f573d6000803e3d6000fd5b505050506040513d6020811015610d4557600080fd5b505190612011565b81600181518110610d5a57fe5b602002602001018181525050610dd464e8d4a510007f00000000000000000000000000000000000000000000000000000000000000006001600160a01b0316634903b0d160026040518263ffffffff1660e01b81526004018082815260200191505060206040518083038186803b158015610d1b57600080fd5b81600281518110610de157fe5b60200260200101818152505080600181518110610dfa57fe5b602002602001015181600081518110610e0f57fe5b6020026020010151108015610e4b575080600281518110610e2c57fe5b602002602001015181600081518110610e4157fe5b6020026020010151105b15610e7d577f000000000000000000000000000000000000000000000000000000000000000060009250925050610fc6565b80600081518110610e8a57fe5b602002602001015181600181518110610e9f57fe5b6020026020010151108015610edb575080600281518110610ebc57fe5b602002602001015181600181518110610ed157fe5b6020026020010151105b15610f0d577f000000000000000000000000000000000000000000000000000000000000000060019250925050610fc6565b80600081518110610f1a57fe5b602002602001015181600281518110610f2f57fe5b6020026020010151108015610f6b575080600181518110610f4c57fe5b602002602001015181600281518110610f6157fe5b6020026020010151105b15610f9d577f000000000000000000000000000000000000000000000000000000000000000060029250925050610fc6565b7f0000000000000000000000000000000000000000000000000000000000000000600092509250505b9091565b6001546001600160a01b03163314806110645750600260009054906101000a90046001600160a01b03166001600160a01b0316631fe4a6866040518163ffffffff1660e01b815260040160206040518083038186803b15801561102c57600080fd5b505afa158015611040573d6000803e3d6000fd5b505050506040513d602081101561105657600080fd5b50516001600160a01b031633145b806110f05750600260009054906101000a90046001600160a01b03166001600160a01b0316635aa6e6756040518163ffffffff1660e01b815260040160206040518083038186803b1580156110b857600080fd5b505afa1580156110cc573d6000803e3d6000fd5b505050506040513d60208110156110e257600080fd5b50516001600160a01b031633145b61112f576040805162461bcd60e51b815260206004820152600b60248201526a08585d5d1a1bdc9a5e995960aa1b604482015290519081900360640190fd5b806001600160a01b03167f00000000000000000000000000000000000000000000000000000000000000006001600160a01b0316141561119f576040805162461bcd60e51b815260206004808301919091526024820152631dd85b9d60e21b604482015290519081900360640190fd5b604080516370a0823160e01b8152306004820152905182916000916001600160a01b038416916370a08231916024808301926020929190829003018186803b1580156111ea57600080fd5b505afa1580156111fe573d6000803e3d6000fd5b505050506040513d602081101561121457600080fd5b5051600154909150611233906001600160a01b03848116911683611cff565b505050565b7f000000000000000000000000000000000000000000000000000000000000000081565b7f000000000000000000000000000000000000000000000000000000000000000081565b600061129b61128d61049d565b611295611888565b90611ebf565b905090565b6001546001600160a01b031633148061133a5750600260009054906101000a90046001600160a01b03166001600160a01b0316631fe4a6866040518163ffffffff1660e01b815260040160206040518083038186803b15801561130257600080fd5b505afa158015611316573d6000803e3d6000fd5b505050506040513d602081101561132c57600080fd5b50516001600160a01b031633145b806113c65750600260009054906101000a90046001600160a01b03166001600160a01b0316635aa6e6756040518163ffffffff1660e01b815260040160206040518083038186803b15801561138e57600080fd5b505afa1580156113a2573d6000803e3d6000fd5b505050506040513d60208110156113b857600080fd5b50516001600160a01b031633145b611405576040805162461bcd60e51b815260206004820152600b60248201526a08585d5d1a1bdc9a5e995960aa1b604482015290519081900360640190fd5b61140d61206a565b6000611417611f19565b90506000816001600160a01b03166370a08231306040518263ffffffff1660e01b815260040180826001600160a01b0316815260200191505060206040518083038186803b15801561146857600080fd5b505afa15801561147c573d6000803e3d6000fd5b505050506040513d602081101561149257600080fd5b505160015460408051632988bb9f60e21b81526001600160a01b0386811660048301529151939450600093919092169163a622ee7c916024808301926020929190829003018186803b1580156114e757600080fd5b505afa1580156114fb573d6000803e3d6000fd5b505050506040513d602081101561151157600080fd5b505190506001600160a01b038116611559576040805162461bcd60e51b8152602060048201526006602482015265085d985d5b1d60d21b604482015290519081900360640190fd5b61156d6001600160a01b0384168284611cff565b604080516001600160a01b03831681526020810184905281517f884edad9ce6fa2440d8a54cc123490eb96d2768479d49ff9c7366125a9424364929181900390910190a1505050565b6002546001600160a01b031681565b600260009054906101000a90046001600160a01b03166001600160a01b0316635aa6e6756040518163ffffffff1660e01b815260040160206040518083038186803b15801561161357600080fd5b505afa158015611627573d6000803e3d6000fd5b505050506040513d602081101561163d57600080fd5b50516001600160a01b03163314611689576040805162461bcd60e51b815260206004820152600b60248201526a21676f7665726e616e636560a81b604482015290519081900360640190fd5b600180546001600160a01b0383166001600160a01b0319909116811790915560408051918252517f4ff638452bbf33c012645d18ae6f05515ff5f2d1dfb0cece8cbf018c60903f709181900360200190a150565b7f000000000000000000000000000000000000000000000000000000000000000081565b600260009054906101000a90046001600160a01b03166001600160a01b0316635aa6e6756040518163ffffffff1660e01b815260040160206040518083038186803b15801561174f57600080fd5b505afa158015611763573d6000803e3d6000fd5b505050506040513d602081101561177957600080fd5b50516001600160a01b031633146117c5576040805162461bcd60e51b815260206004820152600b60248201526a21676f7665726e616e636560a81b604482015290519081900360640190fd5b600380546001600160a01b0319166001600160a01b0383811691909117909155611813907f000000000000000000000000000000000000000000000000000000000000000016826000611bd3565b6118496001600160a01b037f00000000000000000000000000000000000000000000000000000000000000001682600019611bd3565b604080516001600160a01b038316815290517f6de4326a8b9054d72d9dbab97d27bc4edffadee7d966f5af9cc4eafdaf8e54559181900360200190a150565b60007f00000000000000000000000000000000000000000000000000000000000000006001600160a01b03166370a08231306040518263ffffffff1660e01b815260040180826001600160a01b0316815260200191505060206040518083038186803b15801561050c57600080fd5b6001546001600160a01b03163314806119915750600260009054906101000a90046001600160a01b03166001600160a01b0316631fe4a6866040518163ffffffff1660e01b815260040160206040518083038186803b15801561195957600080fd5b505afa15801561196d573d6000803e3d6000fd5b505050506040513d602081101561198357600080fd5b50516001600160a01b031633145b80611a1d5750600260009054906101000a90046001600160a01b03166001600160a01b0316635aa6e6756040518163ffffffff1660e01b815260040160206040518083038186803b1580156119e557600080fd5b505afa1580156119f9573d6000803e3d6000fd5b505050506040513d6020811015611a0f57600080fd5b50516001600160a01b031633145b611a5c576040805162461bcd60e51b815260206004820152600b60248201526a08585d5d1a1bdc9a5e995960aa1b604482015290519081900360640190fd5b610bda612110565b61271081565b600260009054906101000a90046001600160a01b03166001600160a01b0316635aa6e6756040518163ffffffff1660e01b815260040160206040518083038186803b158015611ab857600080fd5b505afa158015611acc573d6000803e3d6000fd5b505050506040513d6020811015611ae257600080fd5b50516001600160a01b03163314611b2e576040805162461bcd60e51b815260206004820152600b60248201526a21676f7665726e616e636560a81b604482015290519081900360640190fd5b611b426001600160a01b0384168383611bd3565b604080516001600160a01b0380861682528416602082015280820183905290517fa970d6820914289ea7e3d9aa084b30b00f955c7b0bb0f542f27c564e743ba6ab9181900360600190a1505050565b7f000000000000000000000000000000000000000000000000000000000000000081565b6001546001600160a01b031681565b6003546001600160a01b031681565b801580611c59575060408051636eb1769f60e11b81523060048201526001600160a01b03848116602483015291519185169163dd62ed3e91604480820192602092909190829003018186803b158015611c2b57600080fd5b505afa158015611c3f573d6000803e3d6000fd5b505050506040513d6020811015611c5557600080fd5b5051155b611c945760405162461bcd60e51b8152600401808060200182810382526036815260200180612f796036913960400191505060405180910390fd5b604080516001600160a01b038416602482015260448082018490528251808303909101815260649091019091526020810180516001600160e01b031663095ea7b360e01b1790526112339084906121a3565b6060611cf58484600085612254565b90505b9392505050565b604080516001600160a01b038416602482015260448082018490528251808303909101815260649091019091526020810180516001600160e01b031663a9059cbb60e01b1790526112339084906121a3565b6000611d9383836040518060400160405280601e81526020017f536166654d6174683a207375627472616374696f6e206f766572666c6f7700008152506123b0565b90505b92915050565b600080611da7611f19565b90506000816001600160a01b03166370a08231306040518263ffffffff1660e01b815260040180826001600160a01b0316815260200191505060206040518083038186803b158015611df857600080fd5b505afa158015611e0c573d6000803e3d6000fd5b505050506040513d6020811015611e2257600080fd5b50519050611e2f84612447565b6000826001600160a01b03166370a08231306040518263ffffffff1660e01b815260040180826001600160a01b0316815260200191505060206040518083038186803b158015611e7e57600080fd5b505afa158015611e92573d6000803e3d6000fd5b505050506040513d6020811015611ea857600080fd5b50519050611eb68183611d51565b95945050505050565b600082820183811015611d93576040805162461bcd60e51b815260206004820152601b60248201527f536166654d6174683a206164646974696f6e206f766572666c6f770000000000604482015290519081900360640190fd5b600154604080516364f5005760e01b815230600482015290516000926001600160a01b0316916364f5005791602480830192602092919082900301818787803b158015611f6557600080fd5b505af1158015610520573d6000803e3d6000fd5b611f816124ad565b6000611fac7f0000000000000000000000000000000000000000000000000000000000000000612556565b9050801561200e576000611fbe610bdc565b509050611fec7f00000000000000000000000000000000000000000000000000000000000000008284612a38565b611ff4612b7b565b6000611ffe611888565b111561200c5761200c612110565b505b50565b60008261202057506000611d96565b8282028284828161202d57fe5b0414611d935760405162461bcd60e51b8152600401808060200182810382526021815260200180612f2e6021913960400191505060405180910390fd5b60007f00000000000000000000000000000000000000000000000000000000000000006001600160a01b03166370a08231306040518263ffffffff1660e01b815260040180826001600160a01b0316815260200191505060206040518083038186803b1580156120d957600080fd5b505afa1580156120ed573d6000803e3d6000fd5b505050506040513d602081101561210357600080fd5b5051905061200e81612447565b600061211a611888565b9050801561200e577f00000000000000000000000000000000000000000000000000000000000000006001600160a01b031663b6b55f25826040518263ffffffff1660e01b815260040180828152602001915050600060405180830381600087803b15801561218857600080fd5b505af115801561219c573d6000803e3d6000fd5b5050505050565b60606121f8826040518060400160405280602081526020017f5361666545524332303a206c6f772d6c6576656c2063616c6c206661696c6564815250856001600160a01b0316611ce69092919063ffffffff16565b8051909150156112335780806020019051602081101561221757600080fd5b50516112335760405162461bcd60e51b815260040180806020018281038252602a815260200180612f4f602a913960400191505060405180910390fd5b6060824710156122955760405162461bcd60e51b8152600401808060200182810382526026815260200180612f086026913960400191505060405180910390fd5b61229e85612ddb565b6122ef576040805162461bcd60e51b815260206004820152601d60248201527f416464726573733a2063616c6c20746f206e6f6e2d636f6e7472616374000000604482015290519081900360640190fd5b60006060866001600160a01b031685876040518082805190602001908083835b6020831061232e5780518252601f19909201916020918201910161230f565b6001836020036101000a03801982511681845116808217855250505050505090500191505060006040518083038185875af1925050503d8060008114612390576040519150601f19603f3d011682016040523d82523d6000602084013e612395565b606091505b50915091506123a5828286612de1565b979650505050505050565b6000818484111561243f5760405162461bcd60e51b81526004018080602001828103825283818151815260200191508051906020019080838360005b838110156124045781810151838201526020016123ec565b50505050905090810190601f1680156124315780820380516001836020036101000a031916815260200191505b509250505060405180910390fd5b505050900390565b7f00000000000000000000000000000000000000000000000000000000000000006001600160a01b0316632e1a7d4d826040518263ffffffff1660e01b815260040180828152602001915050600060405180830381600087803b15801561218857600080fd5b7f00000000000000000000000000000000000000000000000000000000000000006001600160a01b0316636a6278427f00000000000000000000000000000000000000000000000000000000000000006040518263ffffffff1660e01b815260040180826001600160a01b03168152602001915050600060405180830381600087803b15801561253c57600080fd5b505af1158015612550573d6000803e3d6000fd5b50505050565b600080826001600160a01b03166370a08231306040518263ffffffff1660e01b815260040180826001600160a01b0316815260200191505060206040518083038186803b1580156125a657600080fd5b505afa1580156125ba573d6000803e3d6000fd5b505050506040513d60208110156125d057600080fd5b505190506125ff837f000000000000000000000000000000000000000000000000000000000000000083612a38565b604080516370a0823160e01b815230600482015290516001600160a01b037f000000000000000000000000000000000000000000000000000000000000000016916370a08231916024808301926020929190829003018186803b15801561266557600080fd5b505afa158015612679573d6000803e3d6000fd5b505050506040513d602081101561268f57600080fd5b505191508115612a32576000806000806000806000600260009054906101000a90046001600160a01b03166001600160a01b031663da633d316040518163ffffffff1660e01b815260040160e06040518083038186803b1580156126f257600080fd5b505afa158015612706573d6000803e3d6000fd5b505050506040513d60e081101561271c57600080fd5b508051602082015160408301516060840151608085015160a086015160c090960151949c50929a509098509650945090925090506000851580159061276957506001600160a01b03871615155b1561283f5761278461271061277e8c89612011565b90612e47565b90506127b17f00000000000000000000000000000000000000000000000000000000000000008983612a38565b61283f87896001600160a01b03166370a08231306040518263ffffffff1660e01b815260040180826001600160a01b0316815260200191505060206040518083038186803b15801561280257600080fd5b505afa158015612816573d6000803e3d6000fd5b505050506040513d602081101561282c57600080fd5b50516001600160a01b038b169190611cff565b60008411801561285757506001600160a01b03851615155b156128ea5761286c61271061277e8c87612011565b90506128997f00000000000000000000000000000000000000000000000000000000000000008983612a38565b6128ea85896001600160a01b03166370a08231306040518263ffffffff1660e01b815260040180826001600160a01b0316815260200191505060206040518083038186803b15801561280257600080fd5b60008211801561290257506001600160a01b03831615155b156129955761291761271061277e8c85612011565b90506129447f00000000000000000000000000000000000000000000000000000000000000008983612a38565b61299583896001600160a01b03166370a08231306040518263ffffffff1660e01b815260040180826001600160a01b0316815260200191505060206040518083038186803b15801561280257600080fd5b604080516370a0823160e01b815230600482015290516001600160a01b037f000000000000000000000000000000000000000000000000000000000000000016916370a08231916024808301926020929190829003018186803b1580156129fb57600080fd5b505afa158015612a0f573d6000803e3d6000fd5b505050506040513d6020811015612a2557600080fd5b5051995050505050505050505b50919050565b60408051600280825260608083018452926020830190803683370190505090508381600081518110612a6657fe5b60200260200101906001600160a01b031690816001600160a01b0316815250508281600181518110612a9457fe5b6001600160a01b039283166020918202929092010152600354166338ed17398360018430612ac442610708611ebf565b6040518663ffffffff1660e01b81526004018086815260200185815260200180602001846001600160a01b03168152602001838152602001828103825285818151815260200191508051906020019060200280838360005b83811015612b34578181015183820152602001612b1c565b505050509050019650505050505050600060405180830381600087803b158015612b5d57600080fd5b505af1158015612b71573d6000803e3d6000fd5b5050505050505050565b612b83612ee9565b604080516370a0823160e01b815230600482015290516001600160a01b037f000000000000000000000000000000000000000000000000000000000000000016916370a08231916024808301926020929190829003018186803b158015612be957600080fd5b505afa158015612bfd573d6000803e3d6000fd5b505050506040513d6020811015612c1357600080fd5b50518152604080516370a0823160e01b815230600482015290516001600160a01b037f000000000000000000000000000000000000000000000000000000000000000016916370a08231916024808301926020929190829003018186803b158015612c7d57600080fd5b505afa158015612c91573d6000803e3d6000fd5b505050506040513d6020811015612ca757600080fd5b5051602080830191909152604080516370a0823160e01b815230600482015290516001600160a01b037f000000000000000000000000000000000000000000000000000000000000000016926370a082319260248082019391829003018186803b158015612d1457600080fd5b505afa158015612d28573d6000803e3d6000fd5b505050506040513d6020811015612d3e57600080fd5b50518160026020020152604051634515cef360e01b81526001600160a01b037f00000000000000000000000000000000000000000000000000000000000000001690634515cef39083906001906004018083606080838360005b83811015612db0578181015183820152602001612d98565b5050505090500182815260200192505050600060405180830381600087803b15801561218857600080fd5b3b151590565b60608315612df0575081611cf8565b825115612e005782518084602001fd5b60405162461bcd60e51b81526020600482018181528451602484015284518593919283926044019190850190808383600083156124045781810151838201526020016123ec565b6000611d9383836040518060400160405280601a81526020017f536166654d6174683a206469766973696f6e206279207a65726f00000000000081525060008183612ed35760405162461bcd60e51b81526020600482018181528351602484015283519092839260449091019190850190808383600083156124045781810151838201526020016123ec565b506000838581612edf57fe5b0495945050505050565b6040518060600160405280600390602082028036833750919291505056fe416464726573733a20696e73756666696369656e742062616c616e636520666f722063616c6c536166654d6174683a206d756c7469706c69636174696f6e206f766572666c6f775361666545524332303a204552433230206f7065726174696f6e20646964206e6f7420737563636565645361666545524332303a20617070726f76652066726f6d206e6f6e2d7a65726f20746f206e6f6e2d7a65726f20616c6c6f77616e6365a26469706673582212204c7a9e1f28b716af84afc353fbbadaf98152c4c87868bb854d57dfff177bb68264736f6c634300060c0033416464726573733a20696e73756666696369656e742062616c616e636520666f722063616c6c5361666545524332303a204552433230206f7065726174696f6e20646964206e6f7420737563636565645361666545524332303a20617070726f76652066726f6d206e6f6e2d7a65726f20746f206e6f6e2d7a65726f20616c6c6f77616e6365",
  "devdoc": {
    "kind": "dev",
    "methods": {
      "approveForSpender(address,address,uint256)": {
        "params": {
          "_amount": "The amount to spend",
          "_spender": "The address of the spender",
          "_token": "The address of the token"
        }
      },
      "balanceOfPool()": {
        "details": "Must be implemented by the strategy"
      },
      "setController(address)": {
        "params": {
          "_controller": "The address of the controller"
        }
      },
      "setRouter(address)": {
        "params": {
          "_router": "The address of the router"
        }
      },
      "withdraw(address)": {
        "params": {
          "_asset": "The address of the token to withdraw"
        }
      },
      "withdraw(uint256)": {
        "params": {
          "_amount": "The amount of the want token to withdraw"
        }
      }
    },
    "version": 1
  },
  "userdoc": {
    "kind": "user",
    "methods": {
      "approveForSpender(address,address,uint256)": {
        "notice": "Approves a token address to be spent by an address"
      },
      "balanceOf()": {
        "notice": "Returns the strategy's balance of the want token plus the balance of pool"
      },
      "balanceOfPool()": {
        "notice": "Returns the balance of the pool"
      },
      "balanceOfWant()": {
        "notice": "Returns the balance of the want token on the strategy"
      },
      "deposit()": {
        "notice": "Deposits funds to the strategy's pool"
      },
      "harvest()": {
        "notice": "Harvest funds in the strategy's pool"
      },
      "setController(address)": {
        "notice": "Sets the address of the controller"
      },
      "setRouter(address)": {
        "notice": "Sets the address of the ISwap-compatible router"
      },
      "skim()": {
        "notice": "Sends stuck want tokens in the strategy to the controller"
      },
      "withdraw(address)": {
        "notice": "Sends stuck tokens in the strategy to the controller"
      },
      "withdraw(uint256)": {
        "notice": "Initiated from a vault, withdraws funds from the pool"
      },
      "withdrawAll()": {
        "notice": "Withdraws all funds from the strategy"
      }
    },
    "version": 1
  },
  "storageLayout": {
    "storage": [
      {
        "astId": 8699,
        "contract": "contracts/metavault/strategies/StrategyCurve3Crv.sol:StrategyCurve3Crv",
        "label": "name",
        "offset": 0,
        "slot": "0",
        "type": "t_string_storage"
      },
      {
        "astId": 8701,
        "contract": "contracts/metavault/strategies/StrategyCurve3Crv.sol:StrategyCurve3Crv",
        "label": "controller",
        "offset": 0,
        "slot": "1",
        "type": "t_address"
      },
      {
        "astId": 8703,
        "contract": "contracts/metavault/strategies/StrategyCurve3Crv.sol:StrategyCurve3Crv",
        "label": "vaultManager",
        "offset": 0,
        "slot": "2",
        "type": "t_contract(IVaultManager)2503"
      },
      {
        "astId": 8705,
        "contract": "contracts/metavault/strategies/StrategyCurve3Crv.sol:StrategyCurve3Crv",
        "label": "router",
        "offset": 0,
        "slot": "3",
        "type": "t_contract(ISwap)2404"
      }
    ],
    "types": {
      "t_address": {
        "encoding": "inplace",
        "label": "address",
        "numberOfBytes": "20"
      },
      "t_contract(ISwap)2404": {
        "encoding": "inplace",
        "label": "contract ISwap",
        "numberOfBytes": "20"
      },
      "t_contract(IVaultManager)2503": {
        "encoding": "inplace",
        "label": "contract IVaultManager",
        "numberOfBytes": "20"
      },
      "t_string_storage": {
        "encoding": "bytes",
        "label": "string",
        "numberOfBytes": "32"
      }
    }
  }
}