{
  "address": "0x01FEF0d5d6Fd6B5701aE913CaFb11dDaeE982C9A",
  "abi": [
    {
      "inputs": [
        {
          "internalType": "address",
          "name": "_yax",
          "type": "address"
        },
        {
          "internalType": "address",
          "name": "_yaxisChef",
          "type": "address"
        },
        {
          "internalType": "address",
          "name": "_yaxisBar",
          "type": "address"
        },
        {
          "internalType": "address",
          "name": "_yaxEthUniswapV2Pair",
          "type": "address"
        }
      ],
      "stateMutability": "nonpayable",
      "type": "constructor"
    },
    {
      "inputs": [],
      "name": "PID",
      "outputs": [
        {
          "internalType": "uint256",
          "name": "",
          "type": "uint256"
        }
      ],
      "stateMutability": "view",
      "type": "function"
    },
    {
      "inputs": [
        {
          "internalType": "address",
          "name": "_voter",
          "type": "address"
        }
      ],
      "name": "balanceOf",
      "outputs": [
        {
          "internalType": "uint256",
          "name": "_balance",
          "type": "uint256"
        }
      ],
      "stateMutability": "view",
      "type": "function"
    },
    {
      "inputs": [],
      "name": "chef",
      "outputs": [
        {
          "internalType": "contract IMasterChef",
          "name": "",
          "type": "address"
        }
      ],
      "stateMutability": "view",
      "type": "function"
    },
    {
      "inputs": [],
      "name": "decimals",
      "outputs": [
        {
          "internalType": "uint8",
          "name": "",
          "type": "uint8"
        }
      ],
      "stateMutability": "view",
      "type": "function"
    },
    {
      "inputs": [],
      "name": "totalSupply",
      "outputs": [
        {
          "internalType": "uint256",
          "name": "_supply",
          "type": "uint256"
        }
      ],
      "stateMutability": "view",
      "type": "function"
    },
    {
      "inputs": [],
      "name": "yax",
      "outputs": [
        {
          "internalType": "contract IERC20",
          "name": "",
          "type": "address"
        }
      ],
      "stateMutability": "view",
      "type": "function"
    },
    {
      "inputs": [],
      "name": "yaxEthUniswapV2Pair",
      "outputs": [
        {
          "internalType": "contract IUniswapV2Pair",
          "name": "",
          "type": "address"
        }
      ],
      "stateMutability": "view",
      "type": "function"
    },
    {
      "inputs": [],
      "name": "yaxisBar",
      "outputs": [
        {
          "internalType": "contract IYaxisBar",
          "name": "",
          "type": "address"
        }
      ],
      "stateMutability": "view",
      "type": "function"
    }
  ],
  "transactionHash": "0x54d4980a44490f6f06dd84e4c7030add333c740ab1acfe66ef1435db6352f887",
  "args": [
    "0xb1dC9124c395c1e97773ab855d66E879f053A289",
    "0xC330E7e73717cd13fb6bA068Ee871584Cf8A194F",
    "0xeF31Cb88048416E301Fee1eA13e7664b887BA7e8",
    "0x1107B6081231d7F256269aD014bF92E041cb08df"
  ],
  "solcInputHash": "c732ac3106bc5496d862806e5cdcce4a",
  "bytecode": "0x61010060405234801561001157600080fd5b50604051610d27380380610d278339818101604052608081101561003457600080fd5b508051602082015160408301516060938401516001600160601b031993851b841660a05291841b831660c052831b821660e05290911b1660805260805160601c60a05160601c60c05160601c60e05160601c610c326100f5600039806103445280610769528061081152806108b652806109dc5250806102a5528061047352806104c852806106b75250806103e75280610497528061094052508061013452806101de52806102765280610588528061062452806109b85250610c326000f3fe608060405234801561001057600080fd5b50600436106100885760003560e01c80635eaec0e41161005b5780635eaec0e4146100f157806370a08231146100f95780637b66254e1461011f578063e65a715e1461012757610088565b806318160ddd1461008d5780631fc8bc5d146100a75780632f2a04be146100cb578063313ce567146100d3575b600080fd5b61009561012f565b60408051918252519081900360200190f35b6100af610471565b604080516001600160a01b039092168252519081900360200190f35b6100af610495565b6100db6104b9565b6040805160ff9092168252519081900360200190f35b6100956104be565b6100956004803603602081101561010f57600080fd5b50356001600160a01b03166104c3565b6100af6109b6565b6100af6109da565b6000807f00000000000000000000000000000000000000000000000000000000000000006001600160a01b0316630902f1ac6040518163ffffffff1660e01b815260040160606040518083038186803b15801561018b57600080fd5b505afa15801561019f573d6000803e3d6000fd5b505050506040513d60608110156101b557600080fd5b5051604080516318160ddd60e01b815290516001600160701b0390921692506001600160a01b037f000000000000000000000000000000000000000000000000000000000000000016916318160ddd91600480820192602092909190829003018186803b15801561022557600080fd5b505afa158015610239573d6000803e3d6000fd5b505050506040513d602081101561024f57600080fd5b50519150811561025f5781610269565b670de0b6b3a76400005b9150600061033a836103347f00000000000000000000000000000000000000000000000000000000000000006001600160a01b03166370a082317f00000000000000000000000000000000000000000000000000000000000000006040518263ffffffff1660e01b815260040180826001600160a01b0316815260200191505060206040518083038186803b15801561030157600080fd5b505afa158015610315573d6000803e3d6000fd5b505050506040513d602081101561032b57600080fd5b505185906109fe565b90610a60565b905061046a6104657f00000000000000000000000000000000000000000000000000000000000000006001600160a01b031663ab2f0e516040518163ffffffff1660e01b815260040160206040518083038186803b15801561039b57600080fd5b505afa1580156103af573d6000803e3d6000fd5b505050506040513d60208110156103c557600080fd5b5051604080516318160ddd60e01b8152905161045f9186916001600160a01b037f000000000000000000000000000000000000000000000000000000000000000016916318160ddd916004808301926020929190829003018186803b15801561042d57600080fd5b505afa158015610441573d6000803e3d6000fd5b505050506040513d602081101561045757600080fd5b505190610aa2565b90610aa2565b610afc565b9250505090565b7f000000000000000000000000000000000000000000000000000000000000000081565b7f000000000000000000000000000000000000000000000000000000000000000081565b601281565b600681565b6000807f00000000000000000000000000000000000000000000000000000000000000006001600160a01b03166393f1a40b6006856040518363ffffffff1660e01b815260040180838152602001826001600160a01b031681526020019250505060606040518083038186803b15801561053c57600080fd5b505afa158015610550573d6000803e3d6000fd5b505050506040513d606081101561056657600080fd5b505160408051630240bc6b60e21b815290519192506000916001600160a01b037f00000000000000000000000000000000000000000000000000000000000000001691630902f1ac916004808301926060929190829003018186803b1580156105ce57600080fd5b505afa1580156105e2573d6000803e3d6000fd5b505050506040513d60608110156105f857600080fd5b5051604080516318160ddd60e01b815290516001600160701b0390921692506000916001600160a01b037f000000000000000000000000000000000000000000000000000000000000000016916318160ddd916004808301926020929190829003018186803b15801561066a57600080fd5b505afa15801561067e573d6000803e3d6000fd5b505050506040513d602081101561069457600080fd5b5051905080156106a457806106ae565b670de0b6b3a76400005b905060006107657f00000000000000000000000000000000000000000000000000000000000000006001600160a01b03166361336a316006896040518363ffffffff1660e01b815260040180838152602001826001600160a01b031681526020019250505060206040518083038186803b15801561072b57600080fd5b505afa15801561073f573d6000803e3d6000fd5b505050506040513d602081101561075557600080fd5b505161045f8461033487896109fe565b90507f00000000000000000000000000000000000000000000000000000000000000006001600160a01b03166318160ddd6040518163ffffffff1660e01b815260040160206040518083038186803b1580156107c057600080fd5b505afa1580156107d4573d6000803e3d6000fd5b505050506040513d60208110156107ea57600080fd5b5051915081156107fa5781610804565b670de0b6b3a76400005b91506000610931836103347f00000000000000000000000000000000000000000000000000000000000000006001600160a01b031663ab2f0e516040518163ffffffff1660e01b815260040160206040518083038186803b15801561086857600080fd5b505afa15801561087c573d6000803e3d6000fd5b505050506040513d602081101561089257600080fd5b5051604080516370a0823160e01b81526001600160a01b038d8116600483015291517f0000000000000000000000000000000000000000000000000000000000000000909216916370a0823191602480820192602092909190829003018186803b1580156108ff57600080fd5b505afa158015610913573d6000803e3d6000fd5b505050506040513d602081101561092957600080fd5b5051906109fe565b90506109ab6104658261045f857f00000000000000000000000000000000000000000000000000000000000000006001600160a01b03166370a082318d6040518263ffffffff1660e01b815260040180826001600160a01b0316815260200191505060206040518083038186803b15801561042d57600080fd5b979650505050505050565b7f000000000000000000000000000000000000000000000000000000000000000081565b7f000000000000000000000000000000000000000000000000000000000000000081565b600082610a0d57506000610a5a565b82820282848281610a1a57fe5b0414610a575760405162461bcd60e51b8152600401808060200182810382526021815260200180610bdc6021913960400191505060405180910390fd5b90505b92915050565b6000610a5783836040518060400160405280601a81526020017f536166654d6174683a206469766973696f6e206279207a65726f000000000000815250610b39565b600082820183811015610a57576040805162461bcd60e51b815260206004820152601b60248201527f536166654d6174683a206164646974696f6e206f766572666c6f770000000000604482015290519081900360640190fd5b80600260018201045b81811015610b2d57809150600281828581610b1c57fe5b040181610b2557fe5b049050610b05565b50633b9aca0002919050565b60008183610bc55760405162461bcd60e51b81526004018080602001828103825283818151815260200191508051906020019080838360005b83811015610b8a578181015183820152602001610b72565b50505050905090810190601f168015610bb75780820380516001836020036101000a031916815260200191505b509250505060405180910390fd5b506000838581610bd157fe5b049594505050505056fe536166654d6174683a206d756c7469706c69636174696f6e206f766572666c6f77a26469706673582212204a962c8b0454f9fb6910d30404683fbfef8a9487edc3608246bcae59e1871a1364736f6c634300060c0033",
  "devdoc": {
    "kind": "dev",
    "methods": {},
    "version": 1
  },
  "userdoc": {
    "kind": "user",
    "methods": {},
    "version": 1
  },
  "storageLayout": {
    "storage": [],
    "types": null
  }
}