{
  "address": "0xDb6E6904d50f9d9Df5554Eb9aACE2F95e6712739",
  "abi": [
    {
      "inputs": [
        {
          "internalType": "address",
          "name": "_yaxis",
          "type": "address"
        },
        {
          "internalType": "address",
          "name": "_rewardsYaxis",
          "type": "address"
        },
        {
          "internalType": "address",
          "name": "_rewardsYaxisEth",
          "type": "address"
        },
        {
          "internalType": "address",
          "name": "_yaxisEthUniswapV2Pair",
          "type": "address"
        }
      ],
      "stateMutability": "nonpayable",
      "type": "constructor"
    },
    {
      "inputs": [
        {
          "internalType": "address",
          "name": "_voter",
          "type": "address"
        }
      ],
      "name": "balanceOf",
      "outputs": [
        {
          "internalType": "uint256",
          "name": "_balance",
          "type": "uint256"
        }
      ],
      "stateMutability": "view",
      "type": "function"
    },
    {
      "inputs": [],
      "name": "decimals",
      "outputs": [
        {
          "internalType": "uint8",
          "name": "",
          "type": "uint8"
        }
      ],
      "stateMutability": "view",
      "type": "function"
    },
    {
      "inputs": [],
      "name": "rewardsYaxis",
      "outputs": [
        {
          "internalType": "contract IRewards",
          "name": "",
          "type": "address"
        }
      ],
      "stateMutability": "view",
      "type": "function"
    },
    {
      "inputs": [],
      "name": "rewardsYaxisEth",
      "outputs": [
        {
          "internalType": "contract IRewards",
          "name": "",
          "type": "address"
        }
      ],
      "stateMutability": "view",
      "type": "function"
    },
    {
      "inputs": [],
      "name": "totalSupply",
      "outputs": [
        {
          "internalType": "uint256",
          "name": "",
          "type": "uint256"
        }
      ],
      "stateMutability": "view",
      "type": "function"
    },
    {
      "inputs": [],
      "name": "yaxis",
      "outputs": [
        {
          "internalType": "contract IERC20",
          "name": "",
          "type": "address"
        }
      ],
      "stateMutability": "view",
      "type": "function"
    },
    {
      "inputs": [],
      "name": "yaxisEthUniswapV2Pair",
      "outputs": [
        {
          "internalType": "contract IUniswapV2Pair",
          "name": "",
          "type": "address"
        }
      ],
      "stateMutability": "view",
      "type": "function"
    }
  ],
  "transactionHash": "0x9739b6b91bd11ea3babfff4929b89f0d47ce4298c6584694893116d1c0cb5bda",
  "args": [
    "0x0adA190c81b814548ddC2F6AdC4a689ce7C1FE73",
    "0x3b09B9ADFe11f92225b4C55De89fa81456595CD9",
    "0xEDaFe410e2f07ab9D7F1B04316D29C2F49dCb104",
    "0xF0E3FdF48661CD10d56692f60BD4eCcd01E9CF64"
  ],
  "solcInputHash": "bb19182873065a6155cd6bb8b560e034",
  "bytecode": "0x61010060405234801561001157600080fd5b506040516109b83803806109b88339818101604052608081101561003457600080fd5b508051602082015160408301516060938401516001600160601b031993851b841660a05291841b831660c052831b821660e05290911b1660805260805160601c60a05160601c60c05160601c60e05160601c6108e16100d7600039806101db528061020252806103ef5250806104a85280610560528061068b52508061012352806101b752806105ea5250806102b9528061035c528061066752506108e16000f3fe608060405234801561001057600080fd5b506004361061007d5760003560e01c806344302a391161005b57806344302a39146100de57806370a08231146100e65780637656f0ec1461010c5780639f0293b7146101145761007d565b806318160ddd14610082578063313ce5671461009c5780633f021b0e146100ba575b600080fd5b61008a61011c565b60408051918252519081900360200190f35b6100a46101b0565b6040805160ff9092168252519081900360200190f35b6100c26101b5565b604080516001600160a01b039092168252519081900360200190f35b6100c26101d9565b61008a600480360360208110156100fc57600080fd5b50356001600160a01b03166101fd565b6100c2610665565b6100c2610689565b60006101ab7f00000000000000000000000000000000000000000000000000000000000000006001600160a01b03166318160ddd6040518163ffffffff1660e01b815260040160206040518083038186803b15801561017a57600080fd5b505afa15801561018e573d6000803e3d6000fd5b505050506040513d60208110156101a457600080fd5b50516106ad565b905090565b601281565b7f000000000000000000000000000000000000000000000000000000000000000081565b7f000000000000000000000000000000000000000000000000000000000000000081565b6000807f00000000000000000000000000000000000000000000000000000000000000006001600160a01b03166370a08231846040518263ffffffff1660e01b815260040180826001600160a01b0316815260200191505060206040518083038186803b15801561026d57600080fd5b505afa158015610281573d6000803e3d6000fd5b505050506040513d602081101561029757600080fd5b505160408051630240bc6b60e21b815290519192506000916001600160a01b037f00000000000000000000000000000000000000000000000000000000000000001691630902f1ac916004808301926060929190829003018186803b1580156102ff57600080fd5b505afa158015610313573d6000803e3d6000fd5b505050506040513d606081101561032957600080fd5b5051604080516318160ddd60e01b815290516dffffffffffffffffffffffffffff90921692506000916001600160a01b037f000000000000000000000000000000000000000000000000000000000000000016916318160ddd916004808301926020929190829003018186803b1580156103a257600080fd5b505afa1580156103b6573d6000803e3d6000fd5b505050506040513d60208110156103cc57600080fd5b5051905080156103dc57806103e6565b670de0b6b3a76400005b9050600061049f7f00000000000000000000000000000000000000000000000000000000000000006001600160a01b0316628cc262886040518263ffffffff1660e01b815260040180826001600160a01b0316815260200191505060206040518083038186803b15801561045957600080fd5b505afa15801561046d573d6000803e3d6000fd5b505050506040513d602081101561048357600080fd5b50516104998461049387896106ea565b9061074c565b9061078e565b905060006105db7f00000000000000000000000000000000000000000000000000000000000000006001600160a01b0316628cc262896040518263ffffffff1660e01b815260040180826001600160a01b0316815260200191505060206040518083038186803b15801561051257600080fd5b505afa158015610526573d6000803e3d6000fd5b505050506040513d602081101561053c57600080fd5b5051604080516370a0823160e01b81526001600160a01b038b8116600483015291517f0000000000000000000000000000000000000000000000000000000000000000909216916370a0823191602480820192602092909190829003018186803b1580156105a957600080fd5b505afa1580156105bd573d6000803e3d6000fd5b505050506040513d60208110156105d357600080fd5b50519061078e565b905061065a61065582610499857f00000000000000000000000000000000000000000000000000000000000000006001600160a01b03166370a082318d6040518263ffffffff1660e01b815260040180826001600160a01b0316815260200191505060206040518083038186803b1580156105a957600080fd5b6106ad565b979650505050505050565b7f000000000000000000000000000000000000000000000000000000000000000081565b7f000000000000000000000000000000000000000000000000000000000000000081565b80600260018201045b818110156106de578091506002818285816106cd57fe5b0401816106d657fe5b0490506106b6565b50633b9aca0002919050565b6000826106f957506000610746565b8282028284828161070657fe5b04146107435760405162461bcd60e51b815260040180806020018281038252602181526020018061088b6021913960400191505060405180910390fd5b90505b92915050565b600061074383836040518060400160405280601a81526020017f536166654d6174683a206469766973696f6e206279207a65726f0000000000008152506107e8565b600082820183811015610743576040805162461bcd60e51b815260206004820152601b60248201527f536166654d6174683a206164646974696f6e206f766572666c6f770000000000604482015290519081900360640190fd5b600081836108745760405162461bcd60e51b81526004018080602001828103825283818151815260200191508051906020019080838360005b83811015610839578181015183820152602001610821565b50505050905090810190601f1680156108665780820380516001836020036101000a031916815260200191505b509250505060405180910390fd5b50600083858161088057fe5b049594505050505056fe536166654d6174683a206d756c7469706c69636174696f6e206f766572666c6f77a2646970667358221220e10c966889b589c1a0029320815788f15e3f9ae5ee759955b61b2691457cfa2064736f6c634300060c0033",
  "devdoc": {
    "kind": "dev",
    "methods": {},
    "version": 1
  },
  "userdoc": {
    "kind": "user",
    "methods": {},
    "version": 1
  },
  "storageLayout": {
    "storage": [],
    "types": null
  }
}