{
  "address": "0x443ed48F975E02eA67CA0d2be0B4d4806d1E31F2",
  "abi": [
    {
      "inputs": [
        {
          "internalType": "address",
          "name": "_yax",
          "type": "address"
        }
      ],
      "stateMutability": "nonpayable",
      "type": "constructor"
    },
    {
      "inputs": [
        {
          "internalType": "address",
          "name": "",
          "type": "address"
        }
      ],
      "name": "controllers",
      "outputs": [
        {
          "internalType": "bool",
          "name": "",
          "type": "bool"
        }
      ],
      "stateMutability": "view",
      "type": "function"
    },
    {
      "inputs": [],
      "name": "getHarvestFeeInfo",
      "outputs": [
        {
          "internalType": "address",
          "name": "",
          "type": "address"
        },
        {
          "internalType": "address",
          "name": "",
          "type": "address"
        },
        {
          "internalType": "uint256",
          "name": "",
          "type": "uint256"
        },
        {
          "internalType": "address",
          "name": "",
          "type": "address"
        },
        {
          "internalType": "uint256",
          "name": "",
          "type": "uint256"
        },
        {
          "internalType": "address",
          "name": "",
          "type": "address"
        },
        {
          "internalType": "uint256",
          "name": "",
          "type": "uint256"
        }
      ],
      "stateMutability": "view",
      "type": "function"
    },
    {
      "inputs": [],
      "name": "governance",
      "outputs": [
        {
          "internalType": "address",
          "name": "",
          "type": "address"
        }
      ],
      "stateMutability": "view",
      "type": "function"
    },
    {
      "inputs": [
        {
          "internalType": "contract IERC20",
          "name": "_token",
          "type": "address"
        },
        {
          "internalType": "uint256",
          "name": "_amount",
          "type": "uint256"
        },
        {
          "internalType": "address",
          "name": "_to",
          "type": "address"
        }
      ],
      "name": "governanceRecoverUnsupported",
      "outputs": [],
      "stateMutability": "nonpayable",
      "type": "function"
    },
    {
      "inputs": [],
      "name": "harvester",
      "outputs": [
        {
          "internalType": "address",
          "name": "",
          "type": "address"
        }
      ],
      "stateMutability": "view",
      "type": "function"
    },
    {
      "inputs": [],
      "name": "insuranceFee",
      "outputs": [
        {
          "internalType": "uint256",
          "name": "",
          "type": "uint256"
        }
      ],
      "stateMutability": "view",
      "type": "function"
    },
    {
      "inputs": [],
      "name": "insurancePool",
      "outputs": [
        {
          "internalType": "address",
          "name": "",
          "type": "address"
        }
      ],
      "stateMutability": "view",
      "type": "function"
    },
    {
      "inputs": [],
      "name": "insurancePoolFee",
      "outputs": [
        {
          "internalType": "uint256",
          "name": "",
          "type": "uint256"
        }
      ],
      "stateMutability": "view",
      "type": "function"
    },
    {
      "inputs": [
        {
          "internalType": "address",
          "name": "_controller",
          "type": "address"
        },
        {
          "internalType": "bool",
          "name": "_status",
          "type": "bool"
        }
      ],
      "name": "setControllerStatus",
      "outputs": [],
      "stateMutability": "nonpayable",
      "type": "function"
    },
    {
      "inputs": [
        {
          "internalType": "address",
          "name": "_governance",
          "type": "address"
        }
      ],
      "name": "setGovernance",
      "outputs": [],
      "stateMutability": "nonpayable",
      "type": "function"
    },
    {
      "inputs": [
        {
          "internalType": "address",
          "name": "_harvester",
          "type": "address"
        }
      ],
      "name": "setHarvester",
      "outputs": [],
      "stateMutability": "nonpayable",
      "type": "function"
    },
    {
      "inputs": [
        {
          "internalType": "uint256",
          "name": "_insuranceFee",
          "type": "uint256"
        }
      ],
      "name": "setInsuranceFee",
      "outputs": [],
      "stateMutability": "nonpayable",
      "type": "function"
    },
    {
      "inputs": [
        {
          "internalType": "address",
          "name": "_insurancePool",
          "type": "address"
        }
      ],
      "name": "setInsurancePool",
      "outputs": [],
      "stateMutability": "nonpayable",
      "type": "function"
    },
    {
      "inputs": [
        {
          "internalType": "uint256",
          "name": "_insurancePoolFee",
          "type": "uint256"
        }
      ],
      "name": "setInsurancePoolFee",
      "outputs": [],
      "stateMutability": "nonpayable",
      "type": "function"
    },
    {
      "inputs": [
        {
          "internalType": "address",
          "name": "_stakingPool",
          "type": "address"
        }
      ],
      "name": "setStakingPool",
      "outputs": [],
      "stateMutability": "nonpayable",
      "type": "function"
    },
    {
      "inputs": [
        {
          "internalType": "uint256",
          "name": "_stakingPoolShareFee",
          "type": "uint256"
        }
      ],
      "name": "setStakingPoolShareFee",
      "outputs": [],
      "stateMutability": "nonpayable",
      "type": "function"
    },
    {
      "inputs": [
        {
          "internalType": "address",
          "name": "_strategist",
          "type": "address"
        }
      ],
      "name": "setStrategist",
      "outputs": [],
      "stateMutability": "nonpayable",
      "type": "function"
    },
    {
      "inputs": [
        {
          "internalType": "address",
          "name": "_treasury",
          "type": "address"
        }
      ],
      "name": "setTreasury",
      "outputs": [],
      "stateMutability": "nonpayable",
      "type": "function"
    },
    {
      "inputs": [
        {
          "internalType": "uint256",
          "name": "_treasuryBalance",
          "type": "uint256"
        }
      ],
      "name": "setTreasuryBalance",
      "outputs": [],
      "stateMutability": "nonpayable",
      "type": "function"
    },
    {
      "inputs": [
        {
          "internalType": "uint256",
          "name": "_treasuryFee",
          "type": "uint256"
        }
      ],
      "name": "setTreasuryFee",
      "outputs": [],
      "stateMutability": "nonpayable",
      "type": "function"
    },
    {
      "inputs": [
        {
          "internalType": "address",
          "name": "_vault",
          "type": "address"
        },
        {
          "internalType": "bool",
          "name": "_status",
          "type": "bool"
        }
      ],
      "name": "setVaultStatus",
      "outputs": [],
      "stateMutability": "nonpayable",
      "type": "function"
    },
    {
      "inputs": [
        {
          "internalType": "uint256",
          "name": "_withdrawalProtectionFee",
          "type": "uint256"
        }
      ],
      "name": "setWithdrawalProtectionFee",
      "outputs": [],
      "stateMutability": "nonpayable",
      "type": "function"
    },
    {
      "inputs": [
        {
          "internalType": "address",
          "name": "_yax",
          "type": "address"
        }
      ],
      "name": "setYax",
      "outputs": [],
      "stateMutability": "nonpayable",
      "type": "function"
    },
    {
      "inputs": [],
      "name": "stakingPool",
      "outputs": [
        {
          "internalType": "address",
          "name": "",
          "type": "address"
        }
      ],
      "stateMutability": "view",
      "type": "function"
    },
    {
      "inputs": [],
      "name": "stakingPoolShareFee",
      "outputs": [
        {
          "internalType": "uint256",
          "name": "",
          "type": "uint256"
        }
      ],
      "stateMutability": "view",
      "type": "function"
    },
    {
      "inputs": [],
      "name": "strategist",
      "outputs": [
        {
          "internalType": "address",
          "name": "",
          "type": "address"
        }
      ],
      "stateMutability": "view",
      "type": "function"
    },
    {
      "inputs": [],
      "name": "treasury",
      "outputs": [
        {
          "internalType": "address",
          "name": "",
          "type": "address"
        }
      ],
      "stateMutability": "view",
      "type": "function"
    },
    {
      "inputs": [],
      "name": "treasuryBalance",
      "outputs": [
        {
          "internalType": "uint256",
          "name": "",
          "type": "uint256"
        }
      ],
      "stateMutability": "view",
      "type": "function"
    },
    {
      "inputs": [],
      "name": "treasuryFee",
      "outputs": [
        {
          "internalType": "uint256",
          "name": "",
          "type": "uint256"
        }
      ],
      "stateMutability": "view",
      "type": "function"
    },
    {
      "inputs": [
        {
          "internalType": "address",
          "name": "",
          "type": "address"
        }
      ],
      "name": "vaults",
      "outputs": [
        {
          "internalType": "bool",
          "name": "",
          "type": "bool"
        }
      ],
      "stateMutability": "view",
      "type": "function"
    },
    {
      "inputs": [],
      "name": "withdrawalProtectionFee",
      "outputs": [
        {
          "internalType": "uint256",
          "name": "",
          "type": "uint256"
        }
      ],
      "stateMutability": "view",
      "type": "function"
    },
    {
      "inputs": [],
      "name": "yax",
      "outputs": [
        {
          "internalType": "address",
          "name": "",
          "type": "address"
        }
      ],
      "stateMutability": "view",
      "type": "function"
    }
  ],
  "transactionHash": "0x735e5e6e27f6d9da2d4218e9677ba371d014504805a57c61bdcbe856eab52e8b",
  "args": [
    "0xb1dC9124c395c1e97773ab855d66E879f053A289"
  ],
  "solcInputHash": "c715f81b598dd8c3d93b2941748f27c6",
  "bytecode": "0x608060405234801561001057600080fd5b506040516113893803806113898339818101604052602081101561003357600080fd5b5051600680546001600160a01b039092166001600160a01b03199283161790556000805482163390811790915560048054831682179055600180549092161790556107d060095569043c33c1937564800000600a9081556101f4600b55600c556112e7806100a26000396000f3fe608060405234801561001057600080fd5b50600436106101f05760003560e01c8063825139091161010f578063b1c7d36f116100a2578063cc32d17611610071578063cc32d176146104e3578063da633d31146104eb578063da8c229e1461053f578063f0f4426014610565576101f0565b8063b1c7d36f1461047b578063ba32681e14610483578063c7b9d530146104a0578063cc08c4cc146104c6576101f0565b8063a622ee7c116100de578063a622ee7c146103ed578063a94c487e14610427578063ab033ea91461044d578063ab2adc0014610473576101f0565b806382513909146103925780638a513ef61461039a57806397c4fac7146103c8578063a33dd801146103d0576101f0565b80634bdaeac11161018757806360d712fc1161015657806360d712fc1461032257806361d027b3146103505780636b0243bc1461035857806377e741c714610375576101f0565b80634bdaeac1146102bf57806354575af4146102c75780635aa6e675146102fd578063603dfcda14610305576101f0565b80632f2a04be116101c35780632f2a04be1461026f5780633028f63a14610277578063313dab201461029d57806346821efa146102b7576101f0565b80630c56ae3b146101f55780630e9905751461021957806315de1daa146102415780631fe4a68614610267575b600080fd5b6101fd61058b565b604080516001600160a01b039092168252519081900360200190f35b61023f6004803603602081101561022f57600080fd5b50356001600160a01b031661059a565b005b61023f6004803603602081101561025757600080fd5b50356001600160a01b0316610609565b6101fd61068d565b6101fd61069c565b61023f6004803603602081101561028d57600080fd5b50356001600160a01b03166106ab565b6102a561071a565b60408051918252519081900360200190f35b6102a5610720565b6101fd610726565b61023f600480360360608110156102dd57600080fd5b506001600160a01b03813581169160208101359160409091013516610735565b6101fd61079b565b61023f6004803603602081101561031b57600080fd5b50356107aa565b61023f6004803603604081101561033857600080fd5b506001600160a01b0381351690602001351515610853565b6101fd6108e0565b61023f6004803603602081101561036e57600080fd5b50356108ef565b61023f6004803603602081101561038b57600080fd5b5035610997565b6102a5610a38565b61023f600480360360408110156103b057600080fd5b506001600160a01b0381351690602001351515610a3e565b6102a5610acb565b61023f600480360360208110156103e657600080fd5b5035610ad1565b6104136004803603602081101561040357600080fd5b50356001600160a01b0316610b23565b604080519115158252519081900360200190f35b61023f6004803603602081101561043d57600080fd5b50356001600160a01b0316610b38565b61023f6004803603602081101561046357600080fd5b50356001600160a01b0316610ba7565b6101fd610c16565b6102a5610c25565b61023f6004803603602081101561049957600080fd5b5035610c2b565b61023f600480360360208110156104b657600080fd5b50356001600160a01b0316610ccb565b61023f600480360360208110156104dc57600080fd5b5035610d3a565b6102a5610de3565b6104f3610de9565b604080516001600160a01b0398891681529688166020880152868101959095529286166060860152608085019190915290931660a083015260c082019290925290519081900360e00190f35b6104136004803603602081101561055557600080fd5b50356001600160a01b0316610ec0565b61023f6004803603602081101561057b57600080fd5b50356001600160a01b0316610ed5565b6003546001600160a01b031681565b6000546001600160a01b031633146105e7576040805162461bcd60e51b815260206004820152600b60248201526a21676f7665726e616e636560a81b604482015290519081900360640190fd5b600680546001600160a01b0319166001600160a01b0392909216919091179055565b6004546001600160a01b031633148061062c57506000546001600160a01b031633145b61066b576040805162461bcd60e51b815260206004820152600b60248201526a085cdd1c985d1959da5cdd60aa1b604482015290519081900360640190fd5b600180546001600160a01b0319166001600160a01b0392909216919091179055565b6004546001600160a01b031681565b6006546001600160a01b031681565b6000546001600160a01b031633146106f8576040805162461bcd60e51b815260206004820152600b60248201526a21676f7665726e616e636560a81b604482015290519081900360640190fd5b600380546001600160a01b0319166001600160a01b0392909216919091179055565b600a5481565b60085481565b6001546001600160a01b031681565b6000546001600160a01b03163314610782576040805162461bcd60e51b815260206004820152600b60248201526a21676f7665726e616e636560a81b604482015290519081900360640190fd5b6107966001600160a01b0384168284610f44565b505050565b6000546001600160a01b031681565b6000546001600160a01b031633146107f7576040805162461bcd60e51b815260206004820152600b60248201526a21676f7665726e616e636560a81b604482015290519081900360640190fd5b61138881111561084e576040805162461bcd60e51b815260206004820152601d60248201527f5f7374616b696e67506f6f6c5368617265466565206f76657220353025000000604482015290519081900360640190fd5b600955565b6004546001600160a01b031633148061087657506000546001600160a01b031633145b6108b5576040805162461bcd60e51b815260206004820152600b60248201526a085cdd1c985d1959da5cdd60aa1b604482015290519081900360640190fd5b6001600160a01b03919091166000908152600d60205260409020805460ff1916911515919091179055565b6005546001600160a01b031681565b6000546001600160a01b0316331461093c576040805162461bcd60e51b815260206004820152600b60248201526a21676f7665726e616e636560a81b604482015290519081900360640190fd5b6064811115610992576040805162461bcd60e51b815260206004820181905260248201527f5f7769746864726177616c50726f74656374696f6e466565206f766572203125604482015290519081900360640190fd5b600c55565b6000546001600160a01b031633146109e4576040805162461bcd60e51b815260206004820152600b60248201526a21676f7665726e616e636560a81b604482015290519081900360640190fd5b6107d0811115610a33576040805162461bcd60e51b81526020600482015260156024820152745f7472656173757279466565206f7665722032302560581b604482015290519081900360640190fd5b600b55565b600c5481565b6004546001600160a01b0316331480610a6157506000546001600160a01b031633145b610aa0576040805162461bcd60e51b815260206004820152600b60248201526a085cdd1c985d1959da5cdd60aa1b604482015290519081900360640190fd5b6001600160a01b03919091166000908152600e60205260409020805460ff1916911515919091179055565b60075481565b6000546001600160a01b03163314610b1e576040805162461bcd60e51b815260206004820152600b60248201526a21676f7665726e616e636560a81b604482015290519081900360640190fd5b600a55565b600d6020526000908152604090205460ff1681565b6000546001600160a01b03163314610b85576040805162461bcd60e51b815260206004820152600b60248201526a21676f7665726e616e636560a81b604482015290519081900360640190fd5b600280546001600160a01b0319166001600160a01b0392909216919091179055565b6000546001600160a01b03163314610bf4576040805162461bcd60e51b815260206004820152600b60248201526a21676f7665726e616e636560a81b604482015290519081900360640190fd5b600080546001600160a01b0319166001600160a01b0392909216919091179055565b6002546001600160a01b031681565b60095481565b6000546001600160a01b03163314610c78576040805162461bcd60e51b815260206004820152600b60248201526a21676f7665726e616e636560a81b604482015290519081900360640190fd5b6064811115610cc6576040805162461bcd60e51b81526020600482015260156024820152745f696e737572616e6365466565206f76657220312560581b604482015290519081900360640190fd5b600755565b6000546001600160a01b03163314610d18576040805162461bcd60e51b815260206004820152600b60248201526a21676f7665726e616e636560a81b604482015290519081900360640190fd5b600480546001600160a01b0319166001600160a01b0392909216919091179055565b6000546001600160a01b03163314610d87576040805162461bcd60e51b815260206004820152600b60248201526a21676f7665726e616e636560a81b604482015290519081900360640190fd5b6107d0811115610dde576040805162461bcd60e51b815260206004820152601a60248201527f5f696e737572616e6365506f6f6c466565206f76657220323025000000000000604482015290519081900360640190fd5b600855565b600b5481565b600654600354600954600554600a54604080516370a0823160e01b81526001600160a01b03938416600482018190529151600097889788978897889788978897958316969290941694929392909186916370a08231916024808301926020929190829003018186803b158015610e5e57600080fd5b505afa158015610e72573d6000803e3d6000fd5b505050506040513d6020811015610e8857600080fd5b50511015610e9857600b54610e9b565b60005b600254600854959d949c50929a5090985096506001600160a01b031694509092509050565b600e6020526000908152604090205460ff1681565b6000546001600160a01b03163314610f22576040805162461bcd60e51b815260206004820152600b60248201526a21676f7665726e616e636560a81b604482015290519081900360640190fd5b600580546001600160a01b0319166001600160a01b0392909216919091179055565b604080516001600160a01b038416602482015260448082018490528251808303909101815260649091019091526020810180516001600160e01b031663a9059cbb60e01b1790526107969084906060610fe6826040518060400160405280602081526020017f5361666545524332303a206c6f772d6c6576656c2063616c6c206661696c6564815250856001600160a01b03166110429092919063ffffffff16565b8051909150156107965780806020019051602081101561100557600080fd5b50516107965760405162461bcd60e51b815260040180806020018281038252602a815260200180611288602a913960400191505060405180910390fd5b6060611051848460008561105b565b90505b9392505050565b60608247101561109c5760405162461bcd60e51b81526004018080602001828103825260268152602001806112626026913960400191505060405180910390fd5b6110a5856111b7565b6110f6576040805162461bcd60e51b815260206004820152601d60248201527f416464726573733a2063616c6c20746f206e6f6e2d636f6e7472616374000000604482015290519081900360640190fd5b60006060866001600160a01b031685876040518082805190602001908083835b602083106111355780518252601f199092019160209182019101611116565b6001836020036101000a03801982511681845116808217855250505050505090500191505060006040518083038185875af1925050503d8060008114611197576040519150601f19603f3d011682016040523d82523d6000602084013e61119c565b606091505b50915091506111ac8282866111bd565b979650505050505050565b3b151590565b606083156111cc575081611054565b8251156111dc5782518084602001fd5b8160405162461bcd60e51b81526004018080602001828103825283818151815260200191508051906020019080838360005b8381101561122657818101518382015260200161120e565b50505050905090810190601f1680156112535780820380516001836020036101000a031916815260200191505b509250505060405180910390fdfe416464726573733a20696e73756666696369656e742062616c616e636520666f722063616c6c5361666545524332303a204552433230206f7065726174696f6e20646964206e6f742073756363656564a26469706673582212200a8aad87a398451cacea13a331ca2aa4236e96ede0adc38b9fd835d6fffabc4164736f6c634300060c0033",
  "devdoc": {
    "kind": "dev",
    "methods": {
      "constructor": {
        "params": {
          "_yax": "The address of the YAX token"
        }
      },
      "governanceRecoverUnsupported(address,uint256,address)": {
        "params": {
          "_amount": "The amount to withdraw",
          "_to": "The address to send to",
          "_token": "The address of the token"
        }
      },
      "setControllerStatus(address,bool)": {
        "params": {
          "_controller": "The address of the controller",
          "_status": "The status of the controller"
        }
      },
      "setGovernance(address)": {
        "params": {
          "_governance": "The address of the governance"
        }
      },
      "setHarvester(address)": {
        "params": {
          "_harvester": "The address of the harvester"
        }
      },
      "setInsuranceFee(uint256)": {
        "details": "Throws if setting fee over 1%",
        "params": {
          "_insuranceFee": "The value for the insurance fee"
        }
      },
      "setInsurancePool(address)": {
        "params": {
          "_insurancePool": "The address of the insurance pool"
        }
      },
      "setInsurancePoolFee(uint256)": {
        "details": "Throws if setting fee over 20%",
        "params": {
          "_insurancePoolFee": "The value for the insurance pool fee"
        }
      },
      "setStakingPool(address)": {
        "params": {
          "_stakingPool": "The address of the staking pool"
        }
      },
      "setStakingPoolShareFee(uint256)": {
        "details": "Throws if setting fee over 50%",
        "params": {
          "_stakingPoolShareFee": "The value for the staking pool fee"
        }
      },
      "setStrategist(address)": {
        "params": {
          "_strategist": "The address of the strategist"
        }
      },
      "setTreasury(address)": {
        "params": {
          "_treasury": "The address of the treasury"
        }
      },
      "setTreasuryBalance(uint256)": {
        "details": "Strategies will read this value to determine whether or not to give the treasury the treasuryFee",
        "params": {
          "_treasuryBalance": "The maximum balance of the treasury"
        }
      },
      "setTreasuryFee(uint256)": {
        "details": "Throws if setting fee over 20%",
        "params": {
          "_treasuryFee": "The value for the treasury fee"
        }
      },
      "setVaultStatus(address,bool)": {
        "params": {
          "_status": "The status of the vault",
          "_vault": "The address of the vault"
        }
      },
      "setWithdrawalProtectionFee(uint256)": {
        "details": "Throws if setting fee over 1%",
        "params": {
          "_withdrawalProtectionFee": "The value for the withdrawal protection fee"
        }
      },
      "setYax(address)": {
        "params": {
          "_yax": "The address of the YAX token"
        }
      }
    },
    "title": "yAxisMetaVaultManager",
    "version": 1
  },
  "userdoc": {
    "kind": "user",
    "methods": {
      "getHarvestFeeInfo()": {
        "notice": "Returns a tuple of:     YAX token,     Staking pool address,     Staking pool share fee,     Treasury address,     Checks the balance of the treasury and returns the treasury fee         if below the treasuryBalance, or 0 if above"
      },
      "governanceRecoverUnsupported(address,uint256,address)": {
        "notice": "Allows governance to pull tokens out of this contract (it should never hold tokens)"
      },
      "insuranceFee()": {
        "notice": "The following fees are all mutable.  They are updated by governance (community vote)."
      },
      "setControllerStatus(address,bool)": {
        "notice": "Sets the status for a controller"
      },
      "setGovernance(address)": {
        "notice": "Sets the governance address"
      },
      "setHarvester(address)": {
        "notice": "Sets the harvester address"
      },
      "setInsuranceFee(uint256)": {
        "notice": "Sets the insurance fee"
      },
      "setInsurancePool(address)": {
        "notice": "Sets the insurance pool address"
      },
      "setInsurancePoolFee(uint256)": {
        "notice": "Sets the insurance pool fee"
      },
      "setStakingPool(address)": {
        "notice": "Sets the staking pool address"
      },
      "setStakingPoolShareFee(uint256)": {
        "notice": "Sets the staking pool share fee"
      },
      "setStrategist(address)": {
        "notice": "Sets the strategist address"
      },
      "setTreasury(address)": {
        "notice": "Sets the treasury address"
      },
      "setTreasuryBalance(uint256)": {
        "notice": "Sets the maximum treasury balance"
      },
      "setTreasuryFee(uint256)": {
        "notice": "Sets the treasury fee"
      },
      "setVaultStatus(address,bool)": {
        "notice": "Sets the status for a vault"
      },
      "setWithdrawalProtectionFee(uint256)": {
        "notice": "Sets the withdrawal protection fee"
      },
      "setYax(address)": {
        "notice": "Sets the YAX address"
      }
    },
    "notice": "This contract serves as the central point for governance-voted variables. Fees and permissioned addresses are stored and referenced in this contract only.",
    "version": 1
  },
  "storageLayout": {
    "storage": [
      {
        "astId": 16236,
        "contract": "contracts/metavault/yAxisMetaVaultManager.sol:yAxisMetaVaultManager",
        "label": "governance",
        "offset": 0,
        "slot": "0",
        "type": "t_address"
      },
      {
        "astId": 16239,
        "contract": "contracts/metavault/yAxisMetaVaultManager.sol:yAxisMetaVaultManager",
        "label": "harvester",
        "offset": 0,
        "slot": "1",
        "type": "t_address"
      },
      {
        "astId": 16242,
        "contract": "contracts/metavault/yAxisMetaVaultManager.sol:yAxisMetaVaultManager",
        "label": "insurancePool",
        "offset": 0,
        "slot": "2",
        "type": "t_address"
      },
      {
        "astId": 16245,
        "contract": "contracts/metavault/yAxisMetaVaultManager.sol:yAxisMetaVaultManager",
        "label": "stakingPool",
        "offset": 0,
        "slot": "3",
        "type": "t_address"
      },
      {
        "astId": 16248,
        "contract": "contracts/metavault/yAxisMetaVaultManager.sol:yAxisMetaVaultManager",
        "label": "strategist",
        "offset": 0,
        "slot": "4",
        "type": "t_address"
      },
      {
        "astId": 16251,
        "contract": "contracts/metavault/yAxisMetaVaultManager.sol:yAxisMetaVaultManager",
        "label": "treasury",
        "offset": 0,
        "slot": "5",
        "type": "t_address"
      },
      {
        "astId": 16254,
        "contract": "contracts/metavault/yAxisMetaVaultManager.sol:yAxisMetaVaultManager",
        "label": "yax",
        "offset": 0,
        "slot": "6",
        "type": "t_address"
      },
      {
        "astId": 16258,
        "contract": "contracts/metavault/yAxisMetaVaultManager.sol:yAxisMetaVaultManager",
        "label": "insuranceFee",
        "offset": 0,
        "slot": "7",
        "type": "t_uint256"
      },
      {
        "astId": 16261,
        "contract": "contracts/metavault/yAxisMetaVaultManager.sol:yAxisMetaVaultManager",
        "label": "insurancePoolFee",
        "offset": 0,
        "slot": "8",
        "type": "t_uint256"
      },
      {
        "astId": 16264,
        "contract": "contracts/metavault/yAxisMetaVaultManager.sol:yAxisMetaVaultManager",
        "label": "stakingPoolShareFee",
        "offset": 0,
        "slot": "9",
        "type": "t_uint256"
      },
      {
        "astId": 16267,
        "contract": "contracts/metavault/yAxisMetaVaultManager.sol:yAxisMetaVaultManager",
        "label": "treasuryBalance",
        "offset": 0,
        "slot": "10",
        "type": "t_uint256"
      },
      {
        "astId": 16270,
        "contract": "contracts/metavault/yAxisMetaVaultManager.sol:yAxisMetaVaultManager",
        "label": "treasuryFee",
        "offset": 0,
        "slot": "11",
        "type": "t_uint256"
      },
      {
        "astId": 16273,
        "contract": "contracts/metavault/yAxisMetaVaultManager.sol:yAxisMetaVaultManager",
        "label": "withdrawalProtectionFee",
        "offset": 0,
        "slot": "12",
        "type": "t_uint256"
      },
      {
        "astId": 16278,
        "contract": "contracts/metavault/yAxisMetaVaultManager.sol:yAxisMetaVaultManager",
        "label": "vaults",
        "offset": 0,
        "slot": "13",
        "type": "t_mapping(t_address,t_bool)"
      },
      {
        "astId": 16283,
        "contract": "contracts/metavault/yAxisMetaVaultManager.sol:yAxisMetaVaultManager",
        "label": "controllers",
        "offset": 0,
        "slot": "14",
        "type": "t_mapping(t_address,t_bool)"
      }
    ],
    "types": {
      "t_address": {
        "encoding": "inplace",
        "label": "address",
        "numberOfBytes": "20"
      },
      "t_bool": {
        "encoding": "inplace",
        "label": "bool",
        "numberOfBytes": "1"
      },
      "t_mapping(t_address,t_bool)": {
        "encoding": "mapping",
        "key": "t_address",
        "label": "mapping(address => bool)",
        "numberOfBytes": "32",
        "value": "t_bool"
      },
      "t_uint256": {
        "encoding": "inplace",
        "label": "uint256",
        "numberOfBytes": "32"
      }
    }
  }
}