{
  "address": "0x0DCd1Bf9A1b36cE34237eEaFef220932846BCD82",
  "abi": [
    {
      "inputs": [
        {
          "internalType": "address",
          "name": "_manager",
          "type": "address"
        },
        {
          "internalType": "address",
          "name": "_controller",
          "type": "address"
        },
        {
          "internalType": "address",
          "name": "_legacyController",
          "type": "address"
        }
      ],
      "stateMutability": "nonpayable",
      "type": "constructor"
    },
    {
      "anonymous": false,
      "inputs": [
        {
          "indexed": true,
          "internalType": "address",
          "name": "controller",
          "type": "address"
        }
      ],
      "name": "ControllerSet",
      "type": "event"
    },
    {
      "anonymous": false,
      "inputs": [
        {
          "indexed": true,
          "internalType": "address",
          "name": "controller",
          "type": "address"
        },
        {
          "indexed": true,
          "internalType": "address",
          "name": "strategy",
          "type": "address"
        }
      ],
      "name": "Harvest",
      "type": "event"
    },
    {
      "anonymous": false,
      "inputs": [
        {
          "indexed": true,
          "internalType": "address",
          "name": "harvester",
          "type": "address"
        },
        {
          "indexed": false,
          "internalType": "bool",
          "name": "status",
          "type": "bool"
        }
      ],
      "name": "HarvesterSet",
      "type": "event"
    },
    {
      "anonymous": false,
      "inputs": [
        {
          "indexed": true,
          "internalType": "address",
          "name": "vault",
          "type": "address"
        },
        {
          "indexed": true,
          "internalType": "address",
          "name": "strategy",
          "type": "address"
        },
        {
          "indexed": false,
          "internalType": "uint256",
          "name": "timeout",
          "type": "uint256"
        }
      ],
      "name": "StrategyAdded",
      "type": "event"
    },
    {
      "anonymous": false,
      "inputs": [
        {
          "indexed": true,
          "internalType": "address",
          "name": "vault",
          "type": "address"
        },
        {
          "indexed": true,
          "internalType": "address",
          "name": "strategy",
          "type": "address"
        },
        {
          "indexed": false,
          "internalType": "uint256",
          "name": "timeout",
          "type": "uint256"
        }
      ],
      "name": "StrategyRemoved",
      "type": "event"
    },
    {
      "anonymous": false,
      "inputs": [
        {
          "indexed": true,
          "internalType": "address",
          "name": "manager",
          "type": "address"
        }
      ],
      "name": "VaultManagerSet",
      "type": "event"
    },
    {
      "inputs": [],
      "name": "ONE_HUNDRED_PERCENT",
      "outputs": [
        {
          "internalType": "uint256",
          "name": "",
          "type": "uint256"
        }
      ],
      "stateMutability": "view",
      "type": "function"
    },
    {
      "inputs": [
        {
          "internalType": "address",
          "name": "_vault",
          "type": "address"
        },
        {
          "internalType": "address",
          "name": "_strategy",
          "type": "address"
        },
        {
          "internalType": "uint256",
          "name": "_timeout",
          "type": "uint256"
        }
      ],
      "name": "addStrategy",
      "outputs": [],
      "stateMutability": "nonpayable",
      "type": "function"
    },
    {
      "inputs": [
        {
          "internalType": "address",
          "name": "_vault",
          "type": "address"
        }
      ],
      "name": "canHarvest",
      "outputs": [
        {
          "internalType": "bool",
          "name": "",
          "type": "bool"
        }
      ],
      "stateMutability": "view",
      "type": "function"
    },
    {
      "inputs": [],
      "name": "controller",
      "outputs": [
        {
          "internalType": "contract IController",
          "name": "",
          "type": "address"
        }
      ],
      "stateMutability": "view",
      "type": "function"
    },
    {
      "inputs": [
        {
          "internalType": "address",
          "name": "_strategy",
          "type": "address"
        },
        {
          "internalType": "contract IVault",
          "name": "_vault",
          "type": "address"
        },
        {
          "internalType": "address",
          "name": "_token",
          "type": "address"
        }
      ],
      "name": "earn",
      "outputs": [],
      "stateMutability": "nonpayable",
      "type": "function"
    },
    {
      "inputs": [
        {
          "internalType": "address",
          "name": "_strategy",
          "type": "address"
        }
      ],
      "name": "getEstimates",
      "outputs": [
        {
          "internalType": "uint256",
          "name": "_estimatedWETH",
          "type": "uint256"
        },
        {
          "internalType": "uint256",
          "name": "_estimatedYAXIS",
          "type": "uint256"
        }
      ],
      "stateMutability": "view",
      "type": "function"
    },
    {
      "inputs": [
        {
          "internalType": "contract IController",
          "name": "_controller",
          "type": "address"
        },
        {
          "internalType": "address",
          "name": "_strategy",
          "type": "address"
        },
        {
          "internalType": "uint256",
          "name": "_estimatedWETH",
          "type": "uint256"
        },
        {
          "internalType": "uint256",
          "name": "_estimatedYAXIS",
          "type": "uint256"
        }
      ],
      "name": "harvest",
      "outputs": [],
      "stateMutability": "nonpayable",
      "type": "function"
    },
    {
      "inputs": [
        {
          "internalType": "address",
          "name": "_vault",
          "type": "address"
        },
        {
          "internalType": "uint256",
          "name": "_estimatedWETH",
          "type": "uint256"
        },
        {
          "internalType": "uint256",
          "name": "_estimatedYAXIS",
          "type": "uint256"
        }
      ],
      "name": "harvestNextStrategy",
      "outputs": [],
      "stateMutability": "nonpayable",
      "type": "function"
    },
    {
      "inputs": [
        {
          "internalType": "address",
          "name": "",
          "type": "address"
        }
      ],
      "name": "isHarvester",
      "outputs": [
        {
          "internalType": "bool",
          "name": "",
          "type": "bool"
        }
      ],
      "stateMutability": "view",
      "type": "function"
    },
    {
      "inputs": [],
      "name": "legacyController",
      "outputs": [
        {
          "internalType": "contract ILegacyController",
          "name": "",
          "type": "address"
        }
      ],
      "stateMutability": "view",
      "type": "function"
    },
    {
      "inputs": [
        {
          "internalType": "address",
          "name": "_token",
          "type": "address"
        },
        {
          "internalType": "uint256",
          "name": "_expected",
          "type": "uint256"
        }
      ],
      "name": "legacyEarn",
      "outputs": [],
      "stateMutability": "nonpayable",
      "type": "function"
    },
    {
      "inputs": [],
      "name": "manager",
      "outputs": [
        {
          "internalType": "contract IManager",
          "name": "",
          "type": "address"
        }
      ],
      "stateMutability": "view",
      "type": "function"
    },
    {
      "inputs": [
        {
          "internalType": "address",
          "name": "_vault",
          "type": "address"
        },
        {
          "internalType": "address",
          "name": "_strategy",
          "type": "address"
        },
        {
          "internalType": "uint256",
          "name": "_timeout",
          "type": "uint256"
        }
      ],
      "name": "removeStrategy",
      "outputs": [],
      "stateMutability": "nonpayable",
      "type": "function"
    },
    {
      "inputs": [
        {
          "internalType": "address",
          "name": "_harvester",
          "type": "address"
        },
        {
          "internalType": "bool",
          "name": "_status",
          "type": "bool"
        }
      ],
      "name": "setHarvester",
      "outputs": [],
      "stateMutability": "nonpayable",
      "type": "function"
    },
    {
      "inputs": [
        {
          "internalType": "uint256",
          "name": "_slippage",
          "type": "uint256"
        }
      ],
      "name": "setSlippage",
      "outputs": [],
      "stateMutability": "nonpayable",
      "type": "function"
    },
    {
      "inputs": [],
      "name": "slippage",
      "outputs": [
        {
          "internalType": "uint256",
          "name": "",
          "type": "uint256"
        }
      ],
      "stateMutability": "view",
      "type": "function"
    },
    {
      "inputs": [
        {
          "internalType": "address",
          "name": "",
          "type": "address"
        }
      ],
      "name": "strategies",
      "outputs": [
        {
          "internalType": "uint256",
          "name": "timeout",
          "type": "uint256"
        },
        {
          "internalType": "uint256",
          "name": "lastCalled",
          "type": "uint256"
        }
      ],
      "stateMutability": "view",
      "type": "function"
    },
    {
      "inputs": [
        {
          "internalType": "address",
          "name": "_vault",
          "type": "address"
        }
      ],
      "name": "strategyAddresses",
      "outputs": [
        {
          "internalType": "address[]",
          "name": "",
          "type": "address[]"
        }
      ],
      "stateMutability": "view",
      "type": "function"
    }
  ],
  "transactionHash": "0xe1c7d241dbbc37e1d224270adf1551090570f215afa09a97e29360f3c32b6c52",
  "args": [
    "0xe7f1725E7734CE288F8367e1Bb143E90bb3F0512",
    "0x9fE46736679d2D9a65F0992F2272dE9f3c7fa6e0",
    "0xA51c1fc2f0D1a1b8494Ed1FE312d7C3a78Ed91C0"
  ],
  "solcInputHash": "48b6da032f30ad042da481725bdcdb1e",
  "bytecode": "0x60e060405234801561001057600080fd5b50604051611a8e380380611a8e8339818101604052606081101561003357600080fd5b50805160208201516040909201516001600160601b0319606092831b811660805292821b831660a052901b1660c05260805160601c60a05160601c60c05160601c6119cf6100bf600039806104395280610d9e525080610b3952806116a052508061056352806106b152806106f3528061084552806111d85280611295528061158952506119cf6000f3fe608060405234801561001057600080fd5b50600436106101165760003560e01c80639af409dd116100a2578063dd0081c711610071578063dd0081c7146103ac578063ef502f7e146103b4578063f0fa55a9146103ec578063f77c479114610409578063fb70261a1461041157610116565b80639af409dd146102aa578063a1e74f5d14610320578063a71bbfd51461034c578063b6dcbde71461038657610116565b80633e032a3b116100e95780633e032a3b146101ea578063481c6a75146102045780634b704acd1461020c5780636bb3722e14610242578063700ce6581461027857610116565b8063039f28c21461011b578063260feb361461013f57806331b710571461017d57806339ebf823146101ab575b600080fd5b610123610437565b604080516001600160a01b039092168252519081900360200190f35b61017b6004803603608081101561015557600080fd5b506001600160a01b0381358116916020810135909116906040810135906060013561045b565b005b61017b6004803603604081101561019357600080fd5b506001600160a01b0381351690602001351515610561565b6101d1600480360360208110156101c157600080fd5b50356001600160a01b0316610690565b6040805192835260208301919091528051918290030190f35b6101f26106a9565b60408051918252519081900360200190f35b6101236106af565b61017b6004803603606081101561022257600080fd5b506001600160a01b038135811691602081013590911690604001356106d3565b61017b6004803603606081101561025857600080fd5b506001600160a01b03813581169160208101359091169060400135610825565b61017b6004803603606081101561028e57600080fd5b506001600160a01b038135169060208101359060400135610ab0565b6102d0600480360360208110156102c057600080fd5b50356001600160a01b0316610cd1565b60408051602080825283518183015283519192839290830191858101910280838360005b8381101561030c5781810151838201526020016102f4565b505050509050019250505060405180910390f35b61017b6004803603604081101561033657600080fd5b506001600160a01b038135169060200135610d4b565b6103726004803603602081101561036257600080fd5b50356001600160a01b0316610e27565b604080519115158252519081900360200190f35b6101d16004803603602081101561039c57600080fd5b50356001600160a01b0316610e3c565b6101f26114b3565b61017b600480360360608110156103ca57600080fd5b506001600160a01b0381358116916020810135821691604090910135166114b9565b61017b6004803603602081101561040257600080fd5b5035611587565b61012361169e565b6103726004803603602081101561042757600080fd5b50356001600160a01b03166116c2565b7f000000000000000000000000000000000000000000000000000000000000000081565b3360009081526002602052604090205460ff166104ac576040805162461bcd60e51b815260206004820152600a60248201526910b430b93b32b9ba32b960b11b604482015290519081900360640190fd5b836001600160a01b031663a8671c318484846040518463ffffffff1660e01b815260040180846001600160a01b031681526020018381526020018281526020019350505050600060405180830381600087803b15801561050b57600080fd5b505af115801561051f573d6000803e3d6000fd5b50506040516001600160a01b038087169350871691507ffdfdf879d9abdea70f1d228c39cf14f5e7179a54f36b378f29bccfe7648f333e90600090a350505050565b7f00000000000000000000000000000000000000000000000000000000000000006001600160a01b0316631fe4a6866040518163ffffffff1660e01b815260040160206040518083038186803b1580156105ba57600080fd5b505afa1580156105ce573d6000803e3d6000fd5b505050506040513d60208110156105e457600080fd5b50516001600160a01b03163314610630576040805162461bcd60e51b815260206004820152600b60248201526a085cdd1c985d1959da5cdd60aa1b604482015290519081900360640190fd5b6001600160a01b038216600081815260026020908152604091829020805460ff1916851515908117909155825190815291517f0dd4aeebdb71d8f88640d3361815b0e64e31aaf0ee73ad7f5a421115fac879ae9281900390910190a25050565b6001602081905260009182526040909120805491015482565b60005481565b7f000000000000000000000000000000000000000000000000000000000000000081565b60408051633577910560e11b815233600482015290516001600160a01b037f00000000000000000000000000000000000000000000000000000000000000001691636aef220a916024808301926020929190829003018186803b15801561073957600080fd5b505afa15801561074d573d6000803e3d6000fd5b505050506040513d602081101561076357600080fd5b50516107a4576040805162461bcd60e51b815260206004820152600b60248201526a10b1b7b73a3937b63632b960a91b604482015290519081900360640190fd5b6001600160a01b0383811660008181526001602081815260408084206002810180549485018155855282852090930180546001600160a01b03191696891696871790559284905290859055815185815291517fc2008aa15e9b0989ec7ae02bc3d8054428c527c989269ffb2a5bff829028a0129281900390910190a3505050565b60408051633577910560e11b815233600482015290516001600160a01b037f00000000000000000000000000000000000000000000000000000000000000001691636aef220a916024808301926020929190829003018186803b15801561088b57600080fd5b505afa15801561089f573d6000803e3d6000fd5b505050506040513d60208110156108b557600080fd5b50516108f6576040805162461bcd60e51b815260206004820152600b60248201526a10b1b7b73a3937b63632b960a91b604482015290519081900360640190fd5b6001600160a01b0383166000908152600160205260408120600201549080805b83811015610979576001600160a01b0387811660009081526001602052604090206002018054918816918390811061094a57fe5b6000918252602090912001546001600160a01b031614156109715780925060019150610979565b600101610916565b508015610aa8576001600160a01b0386166000908152600160208190526040909120600201906109aa908590611712565b815481106109b457fe5b60009182526020808320909101546001600160a01b038981168452600190925260409092206002018054919092169190849081106109ee57fe5b600091825260208083209190910180546001600160a01b0319166001600160a01b039485161790559188168152600190915260409020600201805480610a3057fe5b60008281526020808220830160001990810180546001600160a01b03191690559092019092556001600160a01b0388811680845260018352604093849020889055835188815293519189169390927fdd3e131c7baafda30070fc3f53c5153570a3e6552809d20e2b682dd30fa7cc6e92918290030190a35b505050505050565b610ab9836116c2565b610af8576040805162461bcd60e51b815260206004820152600b60248201526a0858d85b92185c9d995cdd60aa1b604482015290519081900360640190fd5b6001600160a01b038316600090815260016020526040812060020180548290610b1d57fe5b6000918252602090912001546001600160a01b03169050610b607f000000000000000000000000000000000000000000000000000000000000000082858561045b565b6001600160a01b03841660009081526001602081905260409091206002015490811115610cad5760608167ffffffffffffffff81118015610ba057600080fd5b50604051908082528060200260200182016040528015610bca578160200160208202803683370190505b50905060005b60018303811015610c5b5760016000886001600160a01b03166001600160a01b031681526020019081526020016000206002018160010181548110610c1157fe5b9060005260206000200160009054906101000a90046001600160a01b0316828281518110610c3b57fe5b6001600160a01b0390921660209283029190910190910152600101610bd0565b5082816001840381518110610c6c57fe5b6001600160a01b03928316602091820292909201810191909152908716600090815260018252604090208251610caa926002909201918401906118f4565b50505b505050506001600160a01b0316600090815260016020819052604090912042910155565b6001600160a01b038116600090815260016020908152604091829020600201805483518184028101840190945280845260609392830182828015610d3e57602002820191906000526020600020905b81546001600160a01b03168152600190910190602001808311610d20575b505050505090505b919050565b3360009081526002602052604090205460ff16610d9c576040805162461bcd60e51b815260206004820152600a60248201526910b430b93b32b9ba32b960b11b604482015290519081900360640190fd5b7f00000000000000000000000000000000000000000000000000000000000000006001600160a01b0316639246ce4183836040518363ffffffff1660e01b815260040180836001600160a01b0316815260200182815260200192505050600060405180830381600087803b158015610e1357600080fd5b505af1158015610aa8573d6000803e3d6000fd5b60026020526000908152604090205460ff1681565b6000806000836001600160a01b031663f887ea406040518163ffffffff1660e01b815260040160206040518083038186803b158015610e7a57600080fd5b505afa158015610e8e573d6000803e3d6000fd5b505050506040513d6020811015610ea457600080fd5b505160408051631f1fcd5160e01b815290519192506060916001600160a01b03871691631f1fcd51916004808301926020929190829003018186803b158015610eec57600080fd5b505afa158015610f00573d6000803e3d6000fd5b505050506040513d6020811015610f1657600080fd5b505181518290600090610f2557fe5b60200260200101906001600160a01b031690816001600160a01b031681525050846001600160a01b0316633fc8cef36040518163ffffffff1660e01b815260040160206040518083038186803b158015610f7e57600080fd5b505afa158015610f92573d6000803e3d6000fd5b505050506040513d6020811015610fa857600080fd5b5051815182906001908110610fb957fe5b60200260200101906001600160a01b031690816001600160a01b0316815250506060826001600160a01b031663d06ca61f876001600160a01b031663115880866040518163ffffffff1660e01b815260040160206040518083038186803b15801561102357600080fd5b505afa158015611037573d6000803e3d6000fd5b505050506040513d602081101561104d57600080fd5b5051604080516001600160e01b031960e085901b168152600481018381526024820192835287516044830152875188939192606401906020858101910280838360005b838110156110a8578181015183820152602001611090565b50505050905001935050505060006040518083038186803b1580156110cc57600080fd5b505afa1580156110e0573d6000803e3d6000fd5b505050506040513d6000823e601f3d908101601f19168201604052602081101561110957600080fd5b810190808051604051939291908464010000000082111561112957600080fd5b90830190602082018581111561113e57600080fd5b825186602082028301116401000000008211171561115b57600080fd5b82525081516020918201928201910280838360005b83811015611188578181015183820152602001611170565b505050509050016040525050509050806001815181106111a457fe5b6020026020010151945060008054905060008111156111d6576111d36127106111cd888461175d565b906117b6565b95505b7f00000000000000000000000000000000000000000000000000000000000000006001600160a01b0316633f021b0e6040518163ffffffff1660e01b815260040160206040518083038186803b15801561122f57600080fd5b505afa158015611243573d6000803e3d6000fd5b505050506040513d602081101561125957600080fd5b50518351849060009061126857fe5b60200260200101906001600160a01b031690816001600160a01b031681525050600061131f6127106111cd7f00000000000000000000000000000000000000000000000000000000000000006001600160a01b031663cc32d1766040518163ffffffff1660e01b815260040160206040518083038186803b1580156112ec57600080fd5b505afa158015611300573d6000803e3d6000fd5b505050506040513d602081101561131657600080fd5b50518a9061175d565b9050846001600160a01b031663d06ca61f82866040518363ffffffff1660e01b81526004018083815260200180602001828103825283818151815260200191508051906020019060200280838360005b8381101561138757818101518382015260200161136f565b50505050905001935050505060006040518083038186803b1580156113ab57600080fd5b505afa1580156113bf573d6000803e3d6000fd5b505050506040513d6000823e601f3d908101601f1916820160405260208110156113e857600080fd5b810190808051604051939291908464010000000082111561140857600080fd5b90830190602082018581111561141d57600080fd5b825186602082028301116401000000008211171561143a57600080fd5b82525081516020918201928201910280838360005b8381101561146757818101518382015260200161144f565b5050505090500160405250505092508260018151811061148357fe5b6020026020010151955060008211156114a9576114a66127106111cd888561175d565b95505b5050505050915091565b61271081565b3360009081526002602052604090205460ff1661150a576040805162461bcd60e51b815260206004820152600a60248201526910b430b93b32b9ba32b960b11b604482015290519081900360640190fd5b816001600160a01b0316636bc9a5a982856040518363ffffffff1660e01b815260040180836001600160a01b03168152602001826001600160a01b0316815260200192505050600060405180830381600087803b15801561156a57600080fd5b505af115801561157e573d6000803e3d6000fd5b50505050505050565b7f00000000000000000000000000000000000000000000000000000000000000006001600160a01b0316631fe4a6866040518163ffffffff1660e01b815260040160206040518083038186803b1580156115e057600080fd5b505afa1580156115f4573d6000803e3d6000fd5b505050506040513d602081101561160a57600080fd5b50516001600160a01b03163314611656576040805162461bcd60e51b815260206004820152600b60248201526a085cdd1c985d1959da5cdd60aa1b604482015290519081900360640190fd5b6127108110611699576040805162461bcd60e51b815260206004820152600a602482015269215f736c69707061676560b01b604482015290519081900360640190fd5b600055565b7f000000000000000000000000000000000000000000000000000000000000000081565b6001600160a01b0381166000908152600160205260408120600281015415806116fa575080546116f3904290611712565b8160010154115b15611709576000915050610d46565b50600192915050565b600061175483836040518060400160405280601e81526020017f536166654d6174683a207375627472616374696f6e206f766572666c6f7700008152506117f8565b90505b92915050565b60008261176c57506000611757565b8282028284828161177957fe5b04146117545760405162461bcd60e51b81526004018080602001828103825260218152602001806119796021913960400191505060405180910390fd5b600061175483836040518060400160405280601a81526020017f536166654d6174683a206469766973696f6e206279207a65726f00000000000081525061188f565b600081848411156118875760405162461bcd60e51b81526004018080602001828103825283818151815260200191508051906020019080838360005b8381101561184c578181015183820152602001611834565b50505050905090810190601f1680156118795780820380516001836020036101000a031916815260200191505b509250505060405180910390fd5b505050900390565b600081836118de5760405162461bcd60e51b815260206004820181815283516024840152835190928392604490910191908501908083836000831561184c578181015183820152602001611834565b5060008385816118ea57fe5b0495945050505050565b828054828255906000526020600020908101928215611949579160200282015b8281111561194957825182546001600160a01b0319166001600160a01b03909116178255602090920191600190910190611914565b50611955929150611959565b5090565b5b808211156119555780546001600160a01b031916815560010161195a56fe536166654d6174683a206d756c7469706c69636174696f6e206f766572666c6f77a2646970667358221220ac5b7c9976645aa1da6e44932fa9da3248acc969da0154d0df2aab1555d2b42264736f6c634300060c0033",
  "devdoc": {
    "kind": "dev",
    "methods": {
      "addStrategy(address,address,uint256)": {
        "params": {
          "_strategy": "The address of the strategy",
          "_timeout": "The timeout between harvests",
          "_vault": "The address of the vault"
        }
      },
      "canHarvest(address)": {
        "params": {
          "_vault": "The address of the vault"
        }
      },
      "constructor": {
        "params": {
          "_controller": "The address of the controller",
          "_manager": "The address of the yAxisMetaVaultManager contract"
        }
      },
      "getEstimates(address)": {
        "params": {
          "_strategy": "The address of the strategy"
        }
      },
      "harvest(address,address,uint256,uint256)": {
        "details": "This function ignores the timeout",
        "params": {
          "_controller": "The address of the controller",
          "_strategy": "The address of the strategy"
        }
      },
      "harvestNextStrategy(address,uint256,uint256)": {
        "params": {
          "_vault": "The address of the vault"
        }
      },
      "legacyEarn(address,uint256)": {
        "params": {
          "_expected": "The expected amount to deposit after conversion",
          "_token": "The address of the token"
        }
      },
      "removeStrategy(address,address,uint256)": {
        "params": {
          "_strategy": "The address of the strategy",
          "_timeout": "The timeout between harvests",
          "_vault": "The address of the vault"
        }
      },
      "setHarvester(address,bool)": {
        "params": {
          "_harvester": "The address of the harvester",
          "_status": "The status to allow the harvester to harvest"
        }
      },
      "strategyAddresses(address)": {
        "params": {
          "_vault": "The address of the vault"
        }
      }
    },
    "title": "Harvester",
    "version": 1
  },
  "userdoc": {
    "events": {
      "ControllerSet(address)": {
        "notice": "Logged when a controller is set"
      },
      "Harvest(address,address)": {
        "notice": "Logged when harvest is called for a strategy"
      },
      "HarvesterSet(address,bool)": {
        "notice": "Logged when a harvester is set"
      },
      "StrategyAdded(address,address,uint256)": {
        "notice": "Logged when a strategy is added for a vault"
      },
      "StrategyRemoved(address,address,uint256)": {
        "notice": "Logged when a strategy is removed for a vault"
      },
      "VaultManagerSet(address)": {
        "notice": "Logged when a vault manger is set"
      }
    },
    "kind": "user",
    "methods": {
      "addStrategy(address,address,uint256)": {
        "notice": "Adds a strategy to the rotation for a given vault and sets a timeout"
      },
      "canHarvest(address)": {
        "notice": "Returns the availability of a vault's strategy to be harvested"
      },
      "earn(address,address,address)": {
        "notice": "HARVESTER-ONLY FUNCTIONS"
      },
      "getEstimates(address)": {
        "notice": "Returns the estimated amount of WETH and YAXIS for the given strategy"
      },
      "harvest(address,address,uint256,uint256)": {
        "notice": "Harvests a given strategy on the provided controller"
      },
      "harvestNextStrategy(address,uint256,uint256)": {
        "notice": "Harvests the next available strategy for a given vault and rotates the strategies"
      },
      "legacyEarn(address,uint256)": {
        "notice": "Earns tokens in the LegacyController to the v3 vault"
      },
      "removeStrategy(address,address,uint256)": {
        "notice": "Removes a strategy from the rotation for a given vault and sets a timeout"
      },
      "setHarvester(address,bool)": {
        "notice": "Sets the status of a harvester address to be able to call harvest functions"
      },
      "strategyAddresses(address)": {
        "notice": "Returns the addresses of the strategies for a given vault"
      }
    },
    "notice": "This contract is to be used as a central point to call harvest on all strategies for any given vault. It has its own permissions for harvesters (set by the strategist or governance).",
    "version": 1
  },
  "storageLayout": {
    "storage": [
      {
        "astId": 21317,
        "contract": "contracts/v3/Harvester.sol:Harvester",
        "label": "slippage",
        "offset": 0,
        "slot": "0",
        "type": "t_uint256"
      },
      {
        "astId": 21329,
        "contract": "contracts/v3/Harvester.sol:Harvester",
        "label": "strategies",
        "offset": 0,
        "slot": "1",
        "type": "t_mapping(t_address,t_struct(Strategy)21325_storage)"
      },
      {
        "astId": 21333,
        "contract": "contracts/v3/Harvester.sol:Harvester",
        "label": "isHarvester",
        "offset": 0,
        "slot": "2",
        "type": "t_mapping(t_address,t_bool)"
      }
    ],
    "types": {
      "t_address": {
        "encoding": "inplace",
        "label": "address",
        "numberOfBytes": "20"
      },
      "t_array(t_address)dyn_storage": {
        "base": "t_address",
        "encoding": "dynamic_array",
        "label": "address[]",
        "numberOfBytes": "32"
      },
      "t_bool": {
        "encoding": "inplace",
        "label": "bool",
        "numberOfBytes": "1"
      },
      "t_mapping(t_address,t_bool)": {
        "encoding": "mapping",
        "key": "t_address",
        "label": "mapping(address => bool)",
        "numberOfBytes": "32",
        "value": "t_bool"
      },
      "t_mapping(t_address,t_struct(Strategy)21325_storage)": {
        "encoding": "mapping",
        "key": "t_address",
        "label": "mapping(address => struct Harvester.Strategy)",
        "numberOfBytes": "32",
        "value": "t_struct(Strategy)21325_storage"
      },
      "t_struct(Strategy)21325_storage": {
        "encoding": "inplace",
        "label": "struct Harvester.Strategy",
        "members": [
          {
            "astId": 21319,
            "contract": "contracts/v3/Harvester.sol:Harvester",
            "label": "timeout",
            "offset": 0,
            "slot": "0",
            "type": "t_uint256"
          },
          {
            "astId": 21321,
            "contract": "contracts/v3/Harvester.sol:Harvester",
            "label": "lastCalled",
            "offset": 0,
            "slot": "1",
            "type": "t_uint256"
          },
          {
            "astId": 21324,
            "contract": "contracts/v3/Harvester.sol:Harvester",
            "label": "addresses",
            "offset": 0,
            "slot": "2",
            "type": "t_array(t_address)dyn_storage"
          }
        ],
        "numberOfBytes": "96"
      },
      "t_uint256": {
        "encoding": "inplace",
        "label": "uint256",
        "numberOfBytes": "32"
      }
    }
  }
}