{
  "address": "0xc6fea16c89736C3aC711309F6562535ac4d741D3",
  "abi": [
    {
      "inputs": [
        {
          "internalType": "string",
          "name": "_name",
          "type": "string"
        },
        {
          "internalType": "address",
          "name": "_want",
          "type": "address"
        },
        {
          "internalType": "address",
          "name": "_crv",
          "type": "address"
        },
        {
          "internalType": "address",
          "name": "_cvx",
          "type": "address"
        },
        {
          "internalType": "address",
          "name": "_weth",
          "type": "address"
        },
        {
          "internalType": "address",
          "name": "_dai",
          "type": "address"
        },
        {
          "internalType": "address",
          "name": "_usdc",
          "type": "address"
        },
        {
          "internalType": "address",
          "name": "_usdt",
          "type": "address"
        },
        {
          "internalType": "uint256",
          "name": "_pid",
          "type": "uint256"
        },
        {
          "internalType": "contract IConvexVault",
          "name": "_convexVault",
          "type": "address"
        },
        {
          "internalType": "contract IStableSwap3Pool",
          "name": "_stableSwap3Pool",
          "type": "address"
        },
        {
          "internalType": "address",
          "name": "_controller",
          "type": "address"
        },
        {
          "internalType": "address",
          "name": "_manager",
          "type": "address"
        },
        {
          "internalType": "address",
          "name": "_router",
          "type": "address"
        }
      ],
      "stateMutability": "nonpayable",
      "type": "constructor"
    },
    {
      "inputs": [],
      "name": "ONE_HUNDRED_PERCENT",
      "outputs": [
        {
          "internalType": "uint256",
          "name": "",
          "type": "uint256"
        }
      ],
      "stateMutability": "view",
      "type": "function"
    },
    {
      "inputs": [
        {
          "internalType": "contract IERC20",
          "name": "_token",
          "type": "address"
        },
        {
          "internalType": "address",
          "name": "_spender",
          "type": "address"
        },
        {
          "internalType": "uint256",
          "name": "_amount",
          "type": "uint256"
        }
      ],
      "name": "approveForSpender",
      "outputs": [],
      "stateMutability": "nonpayable",
      "type": "function"
    },
    {
      "inputs": [],
      "name": "balanceOf",
      "outputs": [
        {
          "internalType": "uint256",
          "name": "",
          "type": "uint256"
        }
      ],
      "stateMutability": "view",
      "type": "function"
    },
    {
      "inputs": [],
      "name": "balanceOfPool",
      "outputs": [
        {
          "internalType": "uint256",
          "name": "",
          "type": "uint256"
        }
      ],
      "stateMutability": "view",
      "type": "function"
    },
    {
      "inputs": [],
      "name": "balanceOfWant",
      "outputs": [
        {
          "internalType": "uint256",
          "name": "",
          "type": "uint256"
        }
      ],
      "stateMutability": "view",
      "type": "function"
    },
    {
      "inputs": [],
      "name": "controller",
      "outputs": [
        {
          "internalType": "address",
          "name": "",
          "type": "address"
        }
      ],
      "stateMutability": "view",
      "type": "function"
    },
    {
      "inputs": [],
      "name": "convexVault",
      "outputs": [
        {
          "internalType": "contract IConvexVault",
          "name": "",
          "type": "address"
        }
      ],
      "stateMutability": "view",
      "type": "function"
    },
    {
      "inputs": [],
      "name": "crv",
      "outputs": [
        {
          "internalType": "address",
          "name": "",
          "type": "address"
        }
      ],
      "stateMutability": "view",
      "type": "function"
    },
    {
      "inputs": [],
      "name": "crvRewards",
      "outputs": [
        {
          "internalType": "contract IConvexRewards",
          "name": "",
          "type": "address"
        }
      ],
      "stateMutability": "view",
      "type": "function"
    },
    {
      "inputs": [],
      "name": "cvx",
      "outputs": [
        {
          "internalType": "address",
          "name": "",
          "type": "address"
        }
      ],
      "stateMutability": "view",
      "type": "function"
    },
    {
      "inputs": [],
      "name": "cvxDepositLP",
      "outputs": [
        {
          "internalType": "address",
          "name": "",
          "type": "address"
        }
      ],
      "stateMutability": "view",
      "type": "function"
    },
    {
      "inputs": [],
      "name": "dai",
      "outputs": [
        {
          "internalType": "address",
          "name": "",
          "type": "address"
        }
      ],
      "stateMutability": "view",
      "type": "function"
    },
    {
      "inputs": [],
      "name": "deposit",
      "outputs": [],
      "stateMutability": "nonpayable",
      "type": "function"
    },
    {
      "inputs": [],
      "name": "getMostPremium",
      "outputs": [
        {
          "internalType": "address",
          "name": "",
          "type": "address"
        },
        {
          "internalType": "uint256",
          "name": "",
          "type": "uint256"
        }
      ],
      "stateMutability": "view",
      "type": "function"
    },
    {
      "inputs": [
        {
          "internalType": "uint256",
          "name": "_estimatedWETH",
          "type": "uint256"
        },
        {
          "internalType": "uint256",
          "name": "_estimatedYAXIS",
          "type": "uint256"
        }
      ],
      "name": "harvest",
      "outputs": [],
      "stateMutability": "nonpayable",
      "type": "function"
    },
    {
      "inputs": [],
      "name": "manager",
      "outputs": [
        {
          "internalType": "contract IManager",
          "name": "",
          "type": "address"
        }
      ],
      "stateMutability": "view",
      "type": "function"
    },
    {
      "inputs": [],
      "name": "name",
      "outputs": [
        {
          "internalType": "string",
          "name": "",
          "type": "string"
        }
      ],
      "stateMutability": "view",
      "type": "function"
    },
    {
      "inputs": [],
      "name": "pid",
      "outputs": [
        {
          "internalType": "uint256",
          "name": "",
          "type": "uint256"
        }
      ],
      "stateMutability": "view",
      "type": "function"
    },
    {
      "inputs": [],
      "name": "router",
      "outputs": [
        {
          "internalType": "contract ISwap",
          "name": "",
          "type": "address"
        }
      ],
      "stateMutability": "view",
      "type": "function"
    },
    {
      "inputs": [
        {
          "internalType": "address",
          "name": "_router",
          "type": "address"
        }
      ],
      "name": "setRouter",
      "outputs": [],
      "stateMutability": "nonpayable",
      "type": "function"
    },
    {
      "inputs": [],
      "name": "skim",
      "outputs": [],
      "stateMutability": "nonpayable",
      "type": "function"
    },
    {
      "inputs": [],
      "name": "stableSwap3Pool",
      "outputs": [
        {
          "internalType": "contract IStableSwap3Pool",
          "name": "",
          "type": "address"
        }
      ],
      "stateMutability": "view",
      "type": "function"
    },
    {
      "inputs": [],
      "name": "usdc",
      "outputs": [
        {
          "internalType": "address",
          "name": "",
          "type": "address"
        }
      ],
      "stateMutability": "view",
      "type": "function"
    },
    {
      "inputs": [],
      "name": "usdt",
      "outputs": [
        {
          "internalType": "address",
          "name": "",
          "type": "address"
        }
      ],
      "stateMutability": "view",
      "type": "function"
    },
    {
      "inputs": [],
      "name": "want",
      "outputs": [
        {
          "internalType": "address",
          "name": "",
          "type": "address"
        }
      ],
      "stateMutability": "view",
      "type": "function"
    },
    {
      "inputs": [],
      "name": "weth",
      "outputs": [
        {
          "internalType": "address",
          "name": "",
          "type": "address"
        }
      ],
      "stateMutability": "view",
      "type": "function"
    },
    {
      "inputs": [
        {
          "internalType": "uint256",
          "name": "_amount",
          "type": "uint256"
        }
      ],
      "name": "withdraw",
      "outputs": [],
      "stateMutability": "nonpayable",
      "type": "function"
    },
    {
      "inputs": [
        {
          "internalType": "address",
          "name": "_asset",
          "type": "address"
        }
      ],
      "name": "withdraw",
      "outputs": [],
      "stateMutability": "nonpayable",
      "type": "function"
    },
    {
      "inputs": [],
      "name": "withdrawAll",
      "outputs": [],
      "stateMutability": "nonpayable",
      "type": "function"
    }
  ],
  "transactionHash": "0x223c554b0e831858dfaa5452316166a5d690dbb52f28526a5ddc3d42eecf2553",
  "args": [
    "Convex: 3CRV",
    "0x81C0257A53341f9d9e679376804AF94F5B0e748F",
    "0x69FC615bbfb33e744028dfeCC78aeDE17cfDC9DD",
    "0x5Ca82b87E5d82C69Cb0Ab873107F77fdEb537b8a",
    "0x3C54f058cD7EA85C4CE13d5d77A6Bb3AE0eF9910",
    "0x4f4242Dd31b7F8f93Fd54EEBf2dA81ccEf797681",
    "0xc3Fe4D1658B567C03f626C3FA9dd2e1D15904Dd7",
    "0x817807eB931C1d55629C1010BDda4320e9988de7",
    0,
    "0x135b66e361f68A9785F873EA5732D1Bc7E201DBa",
    "0x3C87dA8673d1Cb906BbaAaF21D3D065f44735771",
    "0x9E170246311F35846fcd46588FD1B0c22ba9D65e",
    "0x5D68Ddd47357a29714CB08bb48397E3Fe3d6F425",
    "0x9EC60Fb1b9E683f392A6c1fb47AB98Ad88b0cAcF"
  ],
  "solcInputHash": "39b59b8416d0b0014a452466e334885c",
  "bytecode": "0x6102406040523480156200001257600080fd5b50604051620032f4380380620032f483398181016040526101c08110156200003957600080fd5b81019080805160405193929190846401000000008211156200005a57600080fd5b9083019060208201858111156200007057600080fd5b82516401000000008111828201881017156200008b57600080fd5b82525081516020918201929091019080838360005b83811015620000ba578181015183820152602001620000a0565b50505050905090810190601f168015620000e85780820380516001836020036101000a031916815260200191505b50604052602001805190602001909291908051906020019092919080519060200190929190805190602001909291908051906020019092919080519060200190929190805190602001909291908051906020019092919080519060200190929190805190602001909291908051906020019092919080519060200190929190805190602001909291905050508d83838f8d8585600090805190602001906200019292919062000936565b50606083811b6001600160601b031990811660805286821b811660c05285821b811660e0529083901b1660a052600180546001600160a01b0319166001600160a01b0383811691909117909155620001fc9083168260001962000407602090811b620013bf17901c565b505050505050600080866001600160a01b0316631526fe27896040518263ffffffff1660e01b81526004018082815260200191505060c06040518083038186803b1580156200024a57600080fd5b505afa1580156200025f573d6000803e3d6000fd5b505050506040513d60c08110156200027657600080fd5b8101908080519060200190929190805190602001909291908051906020019092919080519060200190929190805190602001909291908051906020019092919050505050509350509250508d6001600160a01b0316610100816001600160a01b031660601b815250508c6001600160a01b0316610120816001600160a01b031660601b815250508a6001600160a01b0316610140816001600160a01b031660601b81525050896001600160a01b0316610160816001600160a01b031660601b81525050886001600160a01b0316610180816001600160a01b031660601b81525050876101a08181525050866001600160a01b03166101c0816001600160a01b031660601b81525050816001600160a01b03166101e0816001600160a01b031660601b81525050806001600160a01b0316610200816001600160a01b031660601b81525050856001600160a01b0316610220816001600160a01b031660601b81525050620003f18f8f8f8e8e8e8d8a8e6200052b60201b60201c565b50505050505050505050505050505050620009d2565b80158062000491575060408051636eb1769f60e11b81523060048201526001600160a01b03848116602483015291519185169163dd62ed3e91604480820192602092909190829003018186803b1580156200046157600080fd5b505afa15801562000476573d6000803e3d6000fd5b505050506040513d60208110156200048d57600080fd5b5051155b620004ce5760405162461bcd60e51b8152600401808060200182810382526036815260200180620032be6036913960400191505060405180910390fd5b604080516001600160a01b038416602482015260448082018490528251808303909101815260649091019091526020810180516001600160e01b0390811663095ea7b360e01b17909152620005269185916200064716565b505050565b62000552836000198b6001600160a01b03166200040760201b620013bf179092919060201c565b62000579826000198a6001600160a01b03166200040760201b620013bf179092919060201c565b620005a082600019896001600160a01b03166200040760201b620013bf179092919060201c565b620005c781600019886001600160a01b03166200040760201b620013bf179092919060201c565b620005ee81600019876001600160a01b03166200040760201b620013bf179092919060201c565b6200061581600019866001600160a01b03166200040760201b620013bf179092919060201c565b6200063c816000198b6001600160a01b03166200040760201b620013bf179092919060201c565b505050505050505050565b6060620006a3826040518060400160405280602081526020017f5361666545524332303a206c6f772d6c6576656c2063616c6c206661696c6564815250856001600160a01b03166200070360201b620014d2179092919060201c565b8051909150156200052657808060200190516020811015620006c457600080fd5b5051620005265760405162461bcd60e51b815260040180806020018281038252602a81526020018062003294602a913960400191505060405180910390fd5b60606200071484846000856200071e565b90505b9392505050565b606082471015620007615760405162461bcd60e51b81526004018080602001828103825260268152602001806200326e6026913960400191505060405180910390fd5b6200076c8562000886565b620007be576040805162461bcd60e51b815260206004820152601d60248201527f416464726573733a2063616c6c20746f206e6f6e2d636f6e7472616374000000604482015290519081900360640190fd5b60006060866001600160a01b031685876040518082805190602001908083835b60208310620007ff5780518252601f199092019160209182019101620007de565b6001836020036101000a03801982511681845116808217855250505050505090500191505060006040518083038185875af1925050503d806000811462000863576040519150601f19603f3d011682016040523d82523d6000602084013e62000868565b606091505b5090925090506200087b8282866200088c565b979650505050505050565b3b151590565b606083156200089d57508162000717565b825115620008ae5782518084602001fd5b8160405162461bcd60e51b81526004018080602001828103825283818151815260200191508051906020019080838360005b83811015620008fa578181015183820152602001620008e0565b50505050905090810190601f168015620009285780820380516001836020036101000a031916815260200191505b509250505060405180910390fd5b828054600181600116156101000203166002900490600052602060002090601f016020900481019282601f106200097957805160ff1916838001178555620009a9565b82800160010185558215620009a9579182015b82811115620009a95782518255916020019190600101906200098c565b50620009b7929150620009bb565b5090565b5b80821115620009b75760008155600101620009bc565b60805160601c60a05160601c60c05160601c60e05160601c6101005160601c6101205160601c6101405160601c6101605160601c6101805160601c6101a0516101c05160601c6101e05160601c6102005160601c6102205160601c6126dc62000b92600039806107eb528061089e52806109575280610d3f5280612440525080610f7a5280611d625250806104b05280610d63525080610d8752806117aa528061189f5280611c8552508061134652806117d952806118685280611cb45250806107345280610b5852806123b35250806107585280610ac85280612318525080610a385280610b85528061136a5280612284525080610f5652806118f35280611997525080610dab52806119b852806119e65250806107a05280610f9e528061124e528061203452508061055752806105bc528061064552806107095280610bbb5280610d135280610df85280610f2c528061116952806111e2528061138e52508061077c528061109152806110c65280611a265280611f6d5280611fb3528061210652806121db5250806105ed528061061852806106e75280610c275280610e645280610f0a52806110f352806115a4528061164a52506126dc6000f3fe608060405234801561001057600080fd5b50600436106101cf5760003560e01c80636a4874a111610104578063d0e30db0116100a2578063f106845411610071578063f1068454146103fe578063f4b9fa7514610406578063f77c47911461040e578063f887ea4014610416576101cf565b8063d0e30db014610395578063dd0081c71461039d578063e4a4b7b1146103a5578063ef9e2379146103c8576101cf565b8063923c1d61116100de578063923c1d6114610357578063b6bff2951461035f578063c0d7865514610367578063c1a3d44c1461038d576101cf565b80636a4874a11461033f578063722713f714610347578063853828b61461034f576101cf565b80633fc8cef31161017157806351cff8d91161014b57806351cff8d9146103015780635a3874ac1461032757806361c08ff61461032f578063689538e714610337576101cf565b80633fc8cef3146102c6578063481c6a75146102ce57806348677dbe146102d6576101cf565b80631f1fcd51116101ad5780631f1fcd51146102755780632e1a7d4d146102995780632f48ab7d146102b65780633e413bee146102be576101cf565b806306fdde03146101d457806311588086146102515780631dd19cb41461026b575b600080fd5b6101dc61041e565b6040805160208082528351818301528351919283929083019185019080838360005b838110156102165781810151838201526020016101fe565b50505050905090810190601f1680156102435780820380516001836020036101000a031916815260200191505b509250505060405180910390f35b6102596104ac565b60408051918252519081900360200190f35b61027361054c565b005b61027d610616565b604080516001600160a01b039092168252519081900360200190f35b610273600480360360208110156102af57600080fd5b503561063a565b61027d610732565b61027d610756565b61027d61077a565b61027d61079e565b6102de6107c2565b604080516001600160a01b03909316835260208301919091528051918290030190f35b6102736004803603602081101561031757600080fd5b50356001600160a01b0316610bb0565b61027d610d3d565b61027d610d61565b61027d610d85565b61027d610da9565b610259610dcd565b610273610ded565b61027d610f54565b61027d610f78565b6102736004803603602081101561037d57600080fd5b50356001600160a01b0316610f9c565b6102596110ef565b61027361115e565b6102596111d1565b610273600480360360408110156103bb57600080fd5b50803590602001356111d7565b610273600480360360608110156103de57600080fd5b506001600160a01b0381358116916020810135909116906040013561124c565b610259611344565b61027d611368565b61027d61138c565b61027d6113b0565b6000805460408051602060026001851615610100026000190190941693909304601f810184900484028201840190925281815292918301828280156104a45780601f10610479576101008083540402835291602001916104a4565b820191906000526020600020905b81548152906001019060200180831161048757829003601f168201915b505050505081565b60007f00000000000000000000000000000000000000000000000000000000000000006001600160a01b03166370a08231306040518263ffffffff1660e01b815260040180826001600160a01b0316815260200191505060206040518083038186803b15801561051b57600080fd5b505afa15801561052f573d6000803e3d6000fd5b505050506040513d602081101561054557600080fd5b5051905090565b336001600160a01b037f000000000000000000000000000000000000000000000000000000000000000016146105b7576040805162461bcd60e51b815260206004820152600b60248201526a10b1b7b73a3937b63632b960a91b604482015290519081900360640190fd5b6106147f00000000000000000000000000000000000000000000000000000000000000006105e36110ef565b6001600160a01b037f00000000000000000000000000000000000000000000000000000000000000001691906114eb565b565b7f000000000000000000000000000000000000000000000000000000000000000081565b336001600160a01b037f000000000000000000000000000000000000000000000000000000000000000016146106a5576040805162461bcd60e51b815260206004820152600b60248201526a10b1b7b73a3937b63632b960a91b604482015290519081900360640190fd5b60006106af6110ef565b9050818110156106da576106cb6106c6838361153d565b61159f565b91506106d782826116f5565b91505b61072e6001600160a01b037f0000000000000000000000000000000000000000000000000000000000000000167f0000000000000000000000000000000000000000000000000000000000000000846114eb565b5050565b7f000000000000000000000000000000000000000000000000000000000000000081565b7f000000000000000000000000000000000000000000000000000000000000000081565b7f000000000000000000000000000000000000000000000000000000000000000081565b7f000000000000000000000000000000000000000000000000000000000000000081565b6040805160038082526080820190925260009182916060916020820183803683370190505090507f00000000000000000000000000000000000000000000000000000000000000006001600160a01b0316634903b0d160006040518263ffffffff1660e01b81526004018082815260200191505060206040518083038186803b15801561084e57600080fd5b505afa158015610862573d6000803e3d6000fd5b505050506040513d602081101561087857600080fd5b50518151829060009061088757fe5b60200260200101818152505061093364e8d4a510007f00000000000000000000000000000000000000000000000000000000000000006001600160a01b0316634903b0d160016040518263ffffffff1660e01b81526004018082815260200191505060206040518083038186803b15801561090157600080fd5b505afa158015610915573d6000803e3d6000fd5b505050506040513d602081101561092b57600080fd5b50519061174f565b8160018151811061094057fe5b6020026020010181815250506109ba64e8d4a510007f00000000000000000000000000000000000000000000000000000000000000006001600160a01b0316634903b0d160026040518263ffffffff1660e01b81526004018082815260200191505060206040518083038186803b15801561090157600080fd5b816002815181106109c757fe5b602002602001018181525050806001815181106109e057fe5b6020026020010151816000815181106109f557fe5b6020026020010151108015610a31575080600281518110610a1257fe5b602002602001015181600081518110610a2757fe5b6020026020010151105b15610a63577f000000000000000000000000000000000000000000000000000000000000000060009250925050610bac565b80600081518110610a7057fe5b602002602001015181600181518110610a8557fe5b6020026020010151108015610ac1575080600281518110610aa257fe5b602002602001015181600181518110610ab757fe5b6020026020010151105b15610af3577f000000000000000000000000000000000000000000000000000000000000000060019250925050610bac565b80600081518110610b0057fe5b602002602001015181600281518110610b1557fe5b6020026020010151108015610b51575080600181518110610b3257fe5b602002602001015181600281518110610b4757fe5b6020026020010151105b15610b83577f000000000000000000000000000000000000000000000000000000000000000060029250925050610bac565b7f0000000000000000000000000000000000000000000000000000000000000000600092509250505b9091565b336001600160a01b037f00000000000000000000000000000000000000000000000000000000000000001614610c1b576040805162461bcd60e51b815260206004820152600b60248201526a10b1b7b73a3937b63632b960a91b604482015290519081900360640190fd5b806001600160a01b03167f00000000000000000000000000000000000000000000000000000000000000006001600160a01b03161415610c8b576040805162461bcd60e51b815260206004808301919091526024820152631dd85b9d60e21b604482015290519081900360640190fd5b604080516370a0823160e01b8152306004820152905182916000916001600160a01b038416916370a08231916024808301926020929190829003018186803b158015610cd657600080fd5b505afa158015610cea573d6000803e3d6000fd5b505050506040513d6020811015610d0057600080fd5b50519050610d386001600160a01b0383167f0000000000000000000000000000000000000000000000000000000000000000836114eb565b505050565b7f000000000000000000000000000000000000000000000000000000000000000081565b7f000000000000000000000000000000000000000000000000000000000000000081565b7f000000000000000000000000000000000000000000000000000000000000000081565b7f000000000000000000000000000000000000000000000000000000000000000081565b6000610de8610dda6104ac565b610de26110ef565b906116f5565b905090565b336001600160a01b037f00000000000000000000000000000000000000000000000000000000000000001614610e58576040805162461bcd60e51b815260206004820152600b60248201526a10b1b7b73a3937b63632b960a91b604482015290519081900360640190fd5b610e606117a8565b60007f00000000000000000000000000000000000000000000000000000000000000006001600160a01b03166370a08231306040518263ffffffff1660e01b815260040180826001600160a01b0316815260200191505060206040518083038186803b158015610ecf57600080fd5b505afa158015610ee3573d6000803e3d6000fd5b505050506040513d6020811015610ef957600080fd5b50519050610f516001600160a01b037f0000000000000000000000000000000000000000000000000000000000000000167f0000000000000000000000000000000000000000000000000000000000000000836114eb565b50565b7f000000000000000000000000000000000000000000000000000000000000000081565b7f000000000000000000000000000000000000000000000000000000000000000081565b7f00000000000000000000000000000000000000000000000000000000000000006001600160a01b0316635aa6e6756040518163ffffffff1660e01b815260040160206040518083038186803b158015610ff557600080fd5b505afa158015611009573d6000803e3d6000fd5b505050506040513d602081101561101f57600080fd5b50516001600160a01b0316331461106b576040805162461bcd60e51b815260206004820152600b60248201526a21676f7665726e616e636560a81b604482015290519081900360640190fd5b600180546001600160a01b0319166001600160a01b03838116919091179091556110b9907f0000000000000000000000000000000000000000000000000000000000000000168260006113bf565b610f516001600160a01b037f000000000000000000000000000000000000000000000000000000000000000016826000196113bf565b60007f00000000000000000000000000000000000000000000000000000000000000006001600160a01b03166370a08231306040518263ffffffff1660e01b815260040180826001600160a01b0316815260200191505060206040518083038186803b15801561051b57600080fd5b336001600160a01b037f000000000000000000000000000000000000000000000000000000000000000016146111c9576040805162461bcd60e51b815260206004820152600b60248201526a10b1b7b73a3937b63632b960a91b604482015290519081900360640190fd5b610614611858565b61271081565b336001600160a01b037f00000000000000000000000000000000000000000000000000000000000000001614611242576040805162461bcd60e51b815260206004820152600b60248201526a10b1b7b73a3937b63632b960a91b604482015290519081900360640190fd5b61072e82826118e7565b7f00000000000000000000000000000000000000000000000000000000000000006001600160a01b0316635aa6e6756040518163ffffffff1660e01b815260040160206040518083038186803b1580156112a557600080fd5b505afa1580156112b9573d6000803e3d6000fd5b505050506040513d60208110156112cf57600080fd5b50516001600160a01b0316331461131b576040805162461bcd60e51b815260206004820152600b60248201526a21676f7665726e616e636560a81b604482015290519081900360640190fd5b6113306001600160a01b0384168360006113bf565b610d386001600160a01b03841683836113bf565b7f000000000000000000000000000000000000000000000000000000000000000081565b7f000000000000000000000000000000000000000000000000000000000000000081565b7f000000000000000000000000000000000000000000000000000000000000000081565b6001546001600160a01b031681565b801580611445575060408051636eb1769f60e11b81523060048201526001600160a01b03848116602483015291519185169163dd62ed3e91604480820192602092909190829003018186803b15801561141757600080fd5b505afa15801561142b573d6000803e3d6000fd5b505050506040513d602081101561144157600080fd5b5051155b6114805760405162461bcd60e51b81526004018080602001828103825260368152602001806126716036913960400191505060405180910390fd5b604080516001600160a01b038416602482015260448082018490528251808303909101815260649091019091526020810180516001600160e01b031663095ea7b360e01b179052610d38908490611a76565b60606114e18484600085611b27565b90505b9392505050565b604080516001600160a01b038416602482015260448082018490528251808303909101815260649091019091526020810180516001600160e01b031663a9059cbb60e01b179052610d38908490611a76565b600082821115611594576040805162461bcd60e51b815260206004820152601e60248201527f536166654d6174683a207375627472616374696f6e206f766572666c6f770000604482015290519081900360640190fd5b508082035b92915050565b6000807f00000000000000000000000000000000000000000000000000000000000000006001600160a01b03166370a08231306040518263ffffffff1660e01b815260040180826001600160a01b0316815260200191505060206040518083038186803b15801561160f57600080fd5b505afa158015611623573d6000803e3d6000fd5b505050506040513d602081101561163957600080fd5b5051905061164683611c83565b60007f00000000000000000000000000000000000000000000000000000000000000006001600160a01b03166370a08231306040518263ffffffff1660e01b815260040180826001600160a01b0316815260200191505060206040518083038186803b1580156116b557600080fd5b505afa1580156116c9573d6000803e3d6000fd5b505050506040513d60208110156116df57600080fd5b505190506116ed818361153d565b949350505050565b6000828201838110156114e4576040805162461bcd60e51b815260206004820152601b60248201527f536166654d6174683a206164646974696f6e206f766572666c6f770000000000604482015290519081900360640190fd5b60008261175e57506000611599565b8282028284828161176b57fe5b04146114e45760405162461bcd60e51b81526004018080602001828103825260218152602001806126266021913960400191505060405180910390fd5b7f00000000000000000000000000000000000000000000000000000000000000006001600160a01b031663958e2d317f00000000000000000000000000000000000000000000000000000000000000006040518263ffffffff1660e01b815260040180828152602001915050602060405180830381600087803b15801561182e57600080fd5b505af1158015611842573d6000803e3d6000fd5b505050506040513d602081101561072e57600080fd5b6040805163303acfe760e11b81527f000000000000000000000000000000000000000000000000000000000000000060048201526001602482015290516001600160a01b037f000000000000000000000000000000000000000000000000000000000000000016916360759fce9160448083019260209291908290030181600087803b15801561182e57600080fd5b6118ef611d3b565b60007f00000000000000000000000000000000000000000000000000000000000000006001600160a01b03166370a08231306040518263ffffffff1660e01b815260040180826001600160a01b0316815260200191505060206040518083038186803b15801561195e57600080fd5b505afa158015611972573d6000803e3d6000fd5b505050506040513d602081101561198857600080fd5b5051905080156119df576119df7f00000000000000000000000000000000000000000000000000000000000000007f0000000000000000000000000000000000000000000000000000000000000000836001611daa565b6000611a0c7f00000000000000000000000000000000000000000000000000000000000000008585611ee9565b90508015611a70576000611a1e6107c2565b509050611a4e7f000000000000000000000000000000000000000000000000000000000000000082846001611daa565b611a5661225c565b6000611a606110ef565b1115611a6e57611a6e611858565b505b50505050565b6060611acb826040518060400160405280602081526020017f5361666545524332303a206c6f772d6c6576656c2063616c6c206661696c6564815250856001600160a01b03166114d29092919063ffffffff16565b805190915015610d3857808060200190516020811015611aea57600080fd5b5051610d385760405162461bcd60e51b815260040180806020018281038252602a815260200180612647602a913960400191505060405180910390fd5b606082471015611b685760405162461bcd60e51b81526004018080602001828103825260268152602001806126006026913960400191505060405180910390fd5b611b71856124d0565b611bc2576040805162461bcd60e51b815260206004820152601d60248201527f416464726573733a2063616c6c20746f206e6f6e2d636f6e7472616374000000604482015290519081900360640190fd5b60006060866001600160a01b031685876040518082805190602001908083835b60208310611c015780518252601f199092019160209182019101611be2565b6001836020036101000a03801982511681845116808217855250505050505090500191505060006040518083038185875af1925050503d8060008114611c63576040519150601f19603f3d011682016040523d82523d6000602084013e611c68565b606091505b5091509150611c788282866124d6565b979650505050505050565b7f00000000000000000000000000000000000000000000000000000000000000006001600160a01b031663441a3e707f0000000000000000000000000000000000000000000000000000000000000000836040518363ffffffff1660e01b81526004018083815260200182815260200192505050602060405180830381600087803b158015611d1157600080fd5b505af1158015611d25573d6000803e3d6000fd5b505050506040513d6020811015610d3857600080fd5b60408051637050ccd960e01b81523060048201526001602482015290516001600160a01b037f00000000000000000000000000000000000000000000000000000000000000001691637050ccd99160448083019260209291908290030181600087803b15801561182e57600080fd5b60408051600280825260608083018452926020830190803683370190505090508481600081518110611dd857fe5b60200260200101906001600160a01b031690816001600160a01b0316815250508381600181518110611e0657fe5b6001600160a01b039283166020918202929092018101919091526001546040516338ed173960e01b8152600481018781526024820187905230606483018190526402540be4006084840181905260a060448501908152885160a4860152885195909716966338ed1739968b968b968b96939260c490910191878201910280838360005b83811015611ea1578181015183820152602001611e89565b505050509050019650505050505050600060405180830381600087803b158015611eca57600080fd5b505af1158015611ede573d6000803e3d6000fd5b505050505050505050565b600080846001600160a01b03166370a08231306040518263ffffffff1660e01b815260040180826001600160a01b0316815260200191505060206040518083038186803b158015611f3957600080fd5b505afa158015611f4d573d6000803e3d6000fd5b505050506040513d6020811015611f6357600080fd5b50519050611f93857f00000000000000000000000000000000000000000000000000000000000000008387611daa565b604080516370a0823160e01b815230600482015290516001600160a01b037f000000000000000000000000000000000000000000000000000000000000000016916370a08231916024808301926020929190829003018186803b158015611ff957600080fd5b505afa15801561200d573d6000803e3d6000fd5b505050506040513d602081101561202357600080fd5b5051915081156122545760008060007f00000000000000000000000000000000000000000000000000000000000000006001600160a01b031663da633d316040518163ffffffff1660e01b815260040160606040518083038186803b15801561208b57600080fd5b505afa15801561209f573d6000803e3d6000fd5b505050506040513d60608110156120b557600080fd5b50805160208201516040909201519094509092509050600081158015906120e457506001600160a01b03831615155b156121bb576120ff6127106120f9888561174f565b9061257a565b905061212d7f000000000000000000000000000000000000000000000000000000000000000085838a611daa565b6121bb83856001600160a01b03166370a08231306040518263ffffffff1660e01b815260040180826001600160a01b0316815260200191505060206040518083038186803b15801561217e57600080fd5b505afa158015612192573d6000803e3d6000fd5b505050506040513d60208110156121a857600080fd5b50516001600160a01b03871691906114eb565b604080516370a0823160e01b815230600482015290516001600160a01b037f000000000000000000000000000000000000000000000000000000000000000016916370a08231916024808301926020929190829003018186803b15801561222157600080fd5b505afa158015612235573d6000803e3d6000fd5b505050506040513d602081101561224b57600080fd5b50519550505050505b509392505050565b6122646125e1565b604080516370a0823160e01b815230600482015290516001600160a01b037f000000000000000000000000000000000000000000000000000000000000000016916370a08231916024808301926020929190829003018186803b1580156122ca57600080fd5b505afa1580156122de573d6000803e3d6000fd5b505050506040513d60208110156122f457600080fd5b50518152604080516370a0823160e01b815230600482015290516001600160a01b037f000000000000000000000000000000000000000000000000000000000000000016916370a08231916024808301926020929190829003018186803b15801561235e57600080fd5b505afa158015612372573d6000803e3d6000fd5b505050506040513d602081101561238857600080fd5b5051602080830191909152604080516370a0823160e01b815230600482015290516001600160a01b037f000000000000000000000000000000000000000000000000000000000000000016926370a082319260248082019391829003018186803b1580156123f557600080fd5b505afa158015612409573d6000803e3d6000fd5b505050506040513d602081101561241f57600080fd5b50518160026020020152604051634515cef360e01b81526001600160a01b037f00000000000000000000000000000000000000000000000000000000000000001690634515cef39083906001906004018083606080838360005b83811015612491578181015183820152602001612479565b5050505090500182815260200192505050600060405180830381600087803b1580156124bc57600080fd5b505af1158015611a6e573d6000803e3d6000fd5b3b151590565b606083156124e55750816114e4565b8251156124f55782518084602001fd5b8160405162461bcd60e51b81526004018080602001828103825283818151815260200191508051906020019080838360005b8381101561253f578181015183820152602001612527565b50505050905090810190601f16801561256c5780820380516001836020036101000a031916815260200191505b509250505060405180910390fd5b60008082116125d0576040805162461bcd60e51b815260206004820152601a60248201527f536166654d6174683a206469766973696f6e206279207a65726f000000000000604482015290519081900360640190fd5b8183816125d957fe5b049392505050565b6040518060600160405280600390602082028036833750919291505056fe416464726573733a20696e73756666696369656e742062616c616e636520666f722063616c6c536166654d6174683a206d756c7469706c69636174696f6e206f766572666c6f775361666545524332303a204552433230206f7065726174696f6e20646964206e6f7420737563636565645361666545524332303a20617070726f76652066726f6d206e6f6e2d7a65726f20746f206e6f6e2d7a65726f20616c6c6f77616e6365a26469706673582212203c83860f5b99905e83df6b2df67b5cd4d5954fcfcd98ed91e3f73f9759e80f7164736f6c634300060c0033416464726573733a20696e73756666696369656e742062616c616e636520666f722063616c6c5361666545524332303a204552433230206f7065726174696f6e20646964206e6f7420737563636565645361666545524332303a20617070726f76652066726f6d206e6f6e2d7a65726f20746f206e6f6e2d7a65726f20616c6c6f77616e6365",
  "devdoc": {
    "kind": "dev",
    "methods": {
      "approveForSpender(address,address,uint256)": {
        "params": {
          "_amount": "The amount to spend",
          "_spender": "The address of the spender",
          "_token": "The address of the token"
        }
      },
      "balanceOfPool()": {
        "details": "Must be implemented by the strategy"
      },
      "setRouter(address)": {
        "params": {
          "_router": "The address of the router"
        }
      },
      "withdraw(address)": {
        "params": {
          "_asset": "The address of the token to withdraw"
        }
      },
      "withdraw(uint256)": {
        "params": {
          "_amount": "The amount of the want token to withdraw"
        }
      }
    },
    "version": 1
  },
  "userdoc": {
    "kind": "user",
    "methods": {
      "approveForSpender(address,address,uint256)": {
        "notice": "Approves a token address to be spent by an address"
      },
      "balanceOf()": {
        "notice": "Returns the strategy's balance of the want token plus the balance of pool"
      },
      "balanceOfPool()": {
        "notice": "Returns the balance of the pool"
      },
      "balanceOfWant()": {
        "notice": "Returns the balance of the want token on the strategy"
      },
      "deposit()": {
        "notice": "Deposits funds to the strategy's pool"
      },
      "harvest(uint256,uint256)": {
        "notice": "Harvest funds in the strategy's pool"
      },
      "setRouter(address)": {
        "notice": "Sets the address of the ISwap-compatible router"
      },
      "skim()": {
        "notice": "Sends stuck want tokens in the strategy to the controller"
      },
      "withdraw(address)": {
        "notice": "Sends stuck tokens in the strategy to the controller"
      },
      "withdraw(uint256)": {
        "notice": "Initiated from a vault, withdraws funds from the pool"
      },
      "withdrawAll()": {
        "notice": "Withdraws all funds from the strategy"
      }
    },
    "version": 1
  },
  "storageLayout": {
    "storage": [
      {
        "astId": 18176,
        "contract": "contracts/v3/strategies/ConvexStrategy.sol:ConvexStrategy",
        "label": "name",
        "offset": 0,
        "slot": "0",
        "type": "t_string_storage"
      },
      {
        "astId": 18179,
        "contract": "contracts/v3/strategies/ConvexStrategy.sol:ConvexStrategy",
        "label": "router",
        "offset": 0,
        "slot": "1",
        "type": "t_contract(ISwap)17570"
      }
    ],
    "types": {
      "t_contract(ISwap)17570": {
        "encoding": "inplace",
        "label": "contract ISwap",
        "numberOfBytes": "20"
      },
      "t_string_storage": {
        "encoding": "bytes",
        "label": "string",
        "numberOfBytes": "32"
      }
    }
  }
}