{
  "address": "0x524957911AD9Dd9FF4d21DA7702D51E61153Caf8",
  "abi": [
    {
      "inputs": [
        {
          "internalType": "string",
          "name": "_name",
          "type": "string"
        },
        {
          "internalType": "address",
          "name": "_want",
          "type": "address"
        },
        {
          "internalType": "address",
          "name": "_crv",
          "type": "address"
        },
        {
          "internalType": "address",
          "name": "_cvx",
          "type": "address"
        },
        {
          "internalType": "address",
          "name": "_weth",
          "type": "address"
        },
        {
          "internalType": "uint256",
          "name": "_pid",
          "type": "uint256"
        },
        {
          "internalType": "uint256",
          "name": "_coinCount",
          "type": "uint256"
        },
        {
          "internalType": "contract IConvexVault",
          "name": "_convexVault",
          "type": "address"
        },
        {
          "internalType": "address",
          "name": "_stableSwapPool",
          "type": "address"
        },
        {
          "internalType": "address",
          "name": "_controller",
          "type": "address"
        },
        {
          "internalType": "address",
          "name": "_manager",
          "type": "address"
        },
        {
          "internalType": "address",
          "name": "_router",
          "type": "address"
        }
      ],
      "stateMutability": "nonpayable",
      "type": "constructor"
    },
    {
      "inputs": [],
      "name": "ONE_HUNDRED_PERCENT",
      "outputs": [
        {
          "internalType": "uint256",
          "name": "",
          "type": "uint256"
        }
      ],
      "stateMutability": "view",
      "type": "function"
    },
    {
      "inputs": [
        {
          "internalType": "contract IERC20",
          "name": "_token",
          "type": "address"
        },
        {
          "internalType": "address",
          "name": "_spender",
          "type": "address"
        },
        {
          "internalType": "uint256",
          "name": "_amount",
          "type": "uint256"
        }
      ],
      "name": "approveForSpender",
      "outputs": [],
      "stateMutability": "nonpayable",
      "type": "function"
    },
    {
      "inputs": [],
      "name": "balanceOf",
      "outputs": [
        {
          "internalType": "uint256",
          "name": "",
          "type": "uint256"
        }
      ],
      "stateMutability": "view",
      "type": "function"
    },
    {
      "inputs": [],
      "name": "balanceOfPool",
      "outputs": [
        {
          "internalType": "uint256",
          "name": "",
          "type": "uint256"
        }
      ],
      "stateMutability": "view",
      "type": "function"
    },
    {
      "inputs": [],
      "name": "balanceOfWant",
      "outputs": [
        {
          "internalType": "uint256",
          "name": "",
          "type": "uint256"
        }
      ],
      "stateMutability": "view",
      "type": "function"
    },
    {
      "inputs": [],
      "name": "controller",
      "outputs": [
        {
          "internalType": "address",
          "name": "",
          "type": "address"
        }
      ],
      "stateMutability": "view",
      "type": "function"
    },
    {
      "inputs": [],
      "name": "convexVault",
      "outputs": [
        {
          "internalType": "contract IConvexVault",
          "name": "",
          "type": "address"
        }
      ],
      "stateMutability": "view",
      "type": "function"
    },
    {
      "inputs": [],
      "name": "crv",
      "outputs": [
        {
          "internalType": "address",
          "name": "",
          "type": "address"
        }
      ],
      "stateMutability": "view",
      "type": "function"
    },
    {
      "inputs": [],
      "name": "crvRewards",
      "outputs": [
        {
          "internalType": "contract IConvexRewards",
          "name": "",
          "type": "address"
        }
      ],
      "stateMutability": "view",
      "type": "function"
    },
    {
      "inputs": [],
      "name": "cvx",
      "outputs": [
        {
          "internalType": "address",
          "name": "",
          "type": "address"
        }
      ],
      "stateMutability": "view",
      "type": "function"
    },
    {
      "inputs": [],
      "name": "cvxDepositLP",
      "outputs": [
        {
          "internalType": "address",
          "name": "",
          "type": "address"
        }
      ],
      "stateMutability": "view",
      "type": "function"
    },
    {
      "inputs": [
        {
          "internalType": "uint256",
          "name": "",
          "type": "uint256"
        }
      ],
      "name": "decimalMultiples",
      "outputs": [
        {
          "internalType": "uint8",
          "name": "",
          "type": "uint8"
        }
      ],
      "stateMutability": "view",
      "type": "function"
    },
    {
      "inputs": [],
      "name": "deposit",
      "outputs": [],
      "stateMutability": "nonpayable",
      "type": "function"
    },
    {
      "inputs": [],
      "name": "getMostPremium",
      "outputs": [
        {
          "internalType": "address",
          "name": "",
          "type": "address"
        },
        {
          "internalType": "uint256",
          "name": "",
          "type": "uint256"
        }
      ],
      "stateMutability": "view",
      "type": "function"
    },
    {
      "inputs": [
        {
          "internalType": "uint256",
          "name": "_estimatedWETH",
          "type": "uint256"
        },
        {
          "internalType": "uint256",
          "name": "_estimatedYAXIS",
          "type": "uint256"
        }
      ],
      "name": "harvest",
      "outputs": [],
      "stateMutability": "nonpayable",
      "type": "function"
    },
    {
      "inputs": [],
      "name": "manager",
      "outputs": [
        {
          "internalType": "contract IManager",
          "name": "",
          "type": "address"
        }
      ],
      "stateMutability": "view",
      "type": "function"
    },
    {
      "inputs": [],
      "name": "name",
      "outputs": [
        {
          "internalType": "string",
          "name": "",
          "type": "string"
        }
      ],
      "stateMutability": "view",
      "type": "function"
    },
    {
      "inputs": [],
      "name": "pid",
      "outputs": [
        {
          "internalType": "uint256",
          "name": "",
          "type": "uint256"
        }
      ],
      "stateMutability": "view",
      "type": "function"
    },
    {
      "inputs": [],
      "name": "router",
      "outputs": [
        {
          "internalType": "contract ISwap",
          "name": "",
          "type": "address"
        }
      ],
      "stateMutability": "view",
      "type": "function"
    },
    {
      "inputs": [
        {
          "internalType": "address",
          "name": "_router",
          "type": "address"
        }
      ],
      "name": "setRouter",
      "outputs": [],
      "stateMutability": "nonpayable",
      "type": "function"
    },
    {
      "inputs": [],
      "name": "skim",
      "outputs": [],
      "stateMutability": "nonpayable",
      "type": "function"
    },
    {
      "inputs": [],
      "name": "stableSwapPool",
      "outputs": [
        {
          "internalType": "address",
          "name": "",
          "type": "address"
        }
      ],
      "stateMutability": "view",
      "type": "function"
    },
    {
      "inputs": [
        {
          "internalType": "uint256",
          "name": "",
          "type": "uint256"
        }
      ],
      "name": "tokens",
      "outputs": [
        {
          "internalType": "address",
          "name": "",
          "type": "address"
        }
      ],
      "stateMutability": "view",
      "type": "function"
    },
    {
      "inputs": [],
      "name": "want",
      "outputs": [
        {
          "internalType": "address",
          "name": "",
          "type": "address"
        }
      ],
      "stateMutability": "view",
      "type": "function"
    },
    {
      "inputs": [],
      "name": "weth",
      "outputs": [
        {
          "internalType": "address",
          "name": "",
          "type": "address"
        }
      ],
      "stateMutability": "view",
      "type": "function"
    },
    {
      "inputs": [
        {
          "internalType": "uint256",
          "name": "_amount",
          "type": "uint256"
        }
      ],
      "name": "withdraw",
      "outputs": [],
      "stateMutability": "nonpayable",
      "type": "function"
    },
    {
      "inputs": [
        {
          "internalType": "address",
          "name": "_asset",
          "type": "address"
        }
      ],
      "name": "withdraw",
      "outputs": [],
      "stateMutability": "nonpayable",
      "type": "function"
    },
    {
      "inputs": [],
      "name": "withdrawAll",
      "outputs": [],
      "stateMutability": "nonpayable",
      "type": "function"
    }
  ],
  "transactionHash": "0xa2a51efc83d477c31b4a28a6d3b1047605f455cfb08e887c0e53967e1c8b6678",
  "args": [
    "Convex: PBTC",
    "0x1921C8844BD17cB898F2C305BaE05C1405039Dd5",
    "0x69FC615bbfb33e744028dfeCC78aeDE17cfDC9DD",
    "0x5Ca82b87E5d82C69Cb0Ab873107F77fdEb537b8a",
    "0x3C54f058cD7EA85C4CE13d5d77A6Bb3AE0eF9910",
    0,
    2,
    "0x135b66e361f68A9785F873EA5732D1Bc7E201DBa",
    "0x3C87dA8673d1Cb906BbaAaF21D3D065f44735771",
    "0x9E170246311F35846fcd46588FD1B0c22ba9D65e",
    "0x5D68Ddd47357a29714CB08bb48397E3Fe3d6F425",
    "0x9EC60Fb1b9E683f392A6c1fb47AB98Ad88b0cAcF"
  ],
  "solcInputHash": "39b59b8416d0b0014a452466e334885c",
  "bytecode": "0x6101e06040523480156200001257600080fd5b50604051620035b1380380620035b183398181016040526101808110156200003957600080fd5b81019080805160405193929190846401000000008211156200005a57600080fd5b9083019060208201858111156200007057600080fd5b82516401000000008111828201881017156200008b57600080fd5b82525081516020918201929091019080838360005b83811015620000ba578181015183820152602001620000a0565b50505050905090810190601f168015620000e85780820380516001836020036101000a031916815260200191505b506040908152602082810151918301516060840151608085015160a086015160c087015160e08801516101008901516101208a01516101408b0151610160909b01518e519a9d50979b50959994989397929691959094909390928d91859185918f918d9187916200015f9160009189019062000aa9565b50606083811b6001600160601b031990811660805286821b811660c05285821b811660e0529083901b1660a052600180546001600160a01b0319166001600160a01b0383811691909117909155620001c99083168260001962000696602090811b6200136b17901c565b5050505050508560021480620001df5750856003145b62000231576040805162461bcd60e51b815260206004820152601b60248201527f5f636f696e436f756e742073686f756c642062652032206f7220330000000000604482015290519081900360640190fd5b6001600160a01b038a1662000275576040805162461bcd60e51b815260206004820152600560248201526410afb1b93b60d91b604482015290519081900360640190fd5b6001600160a01b038916620002b9576040805162461bcd60e51b8152602060048201526005602482015264042bec6ecf60db1b604482015290519081900360640190fd5b6001600160a01b03851662000305576040805162461bcd60e51b815260206004820152600d60248201526c0857d8dbdb9d995e15985d5b1d609a1b604482015290519081900360640190fd5b6001600160a01b03841662000354576040805162461bcd60e51b815260206004820152601060248201526f0857dcdd18589b1954ddd85c141bdbdb60821b604482015290519081900360640190fd5b600080866001600160a01b0316631526fe278a6040518263ffffffff1660e01b81526004018082815260200191505060c06040518083038186803b1580156200039c57600080fd5b505afa158015620003b1573d6000803e3d6000fd5b505050506040513d60c0811015620003c857600080fd5b5060208101516060918201516001600160601b03198f841b8116610100528e841b8116610120526101408d90528a841b81166101605282841b81166101805281841b81166101a0529289901b9092166101c0529250905060005b88811015620005e5576002876001600160a01b031663c6610657836040518263ffffffff1660e01b81526004018082815260200191505060206040518083038186803b1580156200047257600080fd5b505afa15801562000487573d6000803e3d6000fd5b505050506040513d60208110156200049e57600080fd5b505181546001810183556000928352602090922090910180546001600160a01b0319166001600160a01b03909216919091179055600280546003919083908110620004e557fe5b600091825260209182902001546040805163313ce56760e01b815290516001600160a01b039092169263313ce56792600480840193829003018186803b1580156200052f57600080fd5b505afa15801562000544573d6000803e3d6000fd5b505050506040513d60208110156200055b57600080fd5b505181546001810183556000928352602092839020928104909201805460ff6012939093038316601f9094166101000a938402929093021990921617905560028054620005dc918991600019919085908110620005b457fe5b600091825260209182902001546001600160a01b03169291906200136b62000696821b17901c565b60010162000422565b506200060d876000198f6001600160a01b03166200069660201b6200136b179092919060201c565b62000634836000198e6001600160a01b03166200069660201b6200136b179092919060201c565b6200065b836000198d6001600160a01b03166200069660201b6200136b179092919060201c565b62000682866000198f6001600160a01b03166200069660201b6200136b179092919060201c565b505050505050505050505050505062000b45565b80158062000720575060408051636eb1769f60e11b81523060048201526001600160a01b03848116602483015291519185169163dd62ed3e91604480820192602092909190829003018186803b158015620006f057600080fd5b505afa15801562000705573d6000803e3d6000fd5b505050506040513d60208110156200071c57600080fd5b5051155b6200075d5760405162461bcd60e51b81526004018080602001828103825260368152602001806200357b6036913960400191505060405180910390fd5b604080516001600160a01b038416602482015260448082018490528251808303909101815260649091019091526020810180516001600160e01b0390811663095ea7b360e01b17909152620007b5918591620007ba16565b505050565b606062000816826040518060400160405280602081526020017f5361666545524332303a206c6f772d6c6576656c2063616c6c206661696c6564815250856001600160a01b03166200087660201b6200147e179092919060201c565b805190915015620007b5578080602001905160208110156200083757600080fd5b5051620007b55760405162461bcd60e51b815260040180806020018281038252602a81526020018062003551602a913960400191505060405180910390fd5b606062000887848460008562000891565b90505b9392505050565b606082471015620008d45760405162461bcd60e51b81526004018080602001828103825260268152602001806200352b6026913960400191505060405180910390fd5b620008df85620009f9565b62000931576040805162461bcd60e51b815260206004820152601d60248201527f416464726573733a2063616c6c20746f206e6f6e2d636f6e7472616374000000604482015290519081900360640190fd5b60006060866001600160a01b031685876040518082805190602001908083835b60208310620009725780518252601f19909201916020918201910162000951565b6001836020036101000a03801982511681845116808217855250505050505090500191505060006040518083038185875af1925050503d8060008114620009d6576040519150601f19603f3d011682016040523d82523d6000602084013e620009db565b606091505b509092509050620009ee828286620009ff565b979650505050505050565b3b151590565b6060831562000a105750816200088a565b82511562000a215782518084602001fd5b8160405162461bcd60e51b81526004018080602001828103825283818151815260200191508051906020019080838360005b8381101562000a6d57818101518382015260200162000a53565b50505050905090810190601f16801562000a9b5780820380516001836020036101000a031916815260200191505b509250505060405180910390fd5b828054600181600116156101000203166002900490600052602060002090601f016020900481019282601f1062000aec57805160ff191683800117855562000b1c565b8280016001018555821562000b1c579182015b8281111562000b1c57825182559160200191906001019062000aff565b5062000b2a92915062000b2e565b5090565b5b8082111562000b2a576000815560010162000b2f565b60805160601c60a05160601c60c05160601c60e05160601c6101005160601c6101205160601c610140516101605160601c6101805160601c6101a05160601c6101c05160601c61286b62000cc060003980610785528061080c52806108fe5280610a0f528061234452806125b1525080610f4a5280611d0e5250806104dd5280610d02525080610d265280611756528061184b5280611c31525080611316528061178552806118145280611c60525080610ef5528061189f5280611943525080610d4a528061196452806119925250806107a95280610f6e528061121e5280611fe052508061058452806105e9528061067252806107365280610b7e5280610cd65280610d975280610ecb528061113952806111b2528061133a5250806107615280611061528061109652806119d25280611f195280611f5f52806120b2528061218752508061061a528061064552806107145280610bea5280610e035280610ea952806110c3528061155052806115f6525061286b6000f3fe608060405234801561001057600080fd5b50600436106101c45760003560e01c8063722713f7116100f9578063d0e30db011610097578063ef9e237911610071578063ef9e2379146103fd578063f106845414610433578063f77c47911461043b578063f887ea4014610443576101c4565b8063d0e30db0146103ca578063dd0081c7146103d2578063e4a4b7b1146103da576101c4565b8063a128723a116100d3578063a128723a14610361578063b6bff29514610394578063c0d786551461039c578063c1a3d44c146103c2576101c4565b8063722713f714610349578063853828b614610351578063923c1d6114610359576101c4565b8063481c6a751161016657806351cff8d91161014057806351cff8d91461030b57806361c08ff614610331578063689538e7146103395780636a4874a114610341576101c4565b8063481c6a75146102bb57806348677dbe146102c35780634f64b2be146102ee576101c4565b80631f1fcd51116101a25780631f1fcd511461026a5780632e1a7d4d1461028e5780633fc8cef3146102ab5780634362c0d1146102b3576101c4565b806306fdde03146101c957806311588086146102465780631dd19cb414610260575b600080fd5b6101d161044b565b6040805160208082528351818301528351919283929083019185019080838360005b8381101561020b5781810151838201526020016101f3565b50505050905090810190601f1680156102385780820380516001836020036101000a031916815260200191505b509250505060405180910390f35b61024e6104d9565b60408051918252519081900360200190f35b610268610579565b005b610272610643565b604080516001600160a01b039092168252519081900360200190f35b610268600480360360208110156102a457600080fd5b5035610667565b61027261075f565b610272610783565b6102726107a7565b6102cb6107cb565b604080516001600160a01b03909316835260208301919091528051918290030190f35b6102726004803603602081101561030457600080fd5b5035610b4c565b6102686004803603602081101561032157600080fd5b50356001600160a01b0316610b73565b610272610d00565b610272610d24565b610272610d48565b61024e610d6c565b610268610d8c565b610272610ef3565b61037e6004803603602081101561037757600080fd5b5035610f17565b6040805160ff9092168252519081900360200190f35b610272610f48565b610268600480360360208110156103b257600080fd5b50356001600160a01b0316610f6c565b61024e6110bf565b61026861112e565b61024e6111a1565b610268600480360360408110156103f057600080fd5b50803590602001356111a7565b6102686004803603606081101561041357600080fd5b506001600160a01b0381358116916020810135909116906040013561121c565b61024e611314565b610272611338565b61027261135c565b6000805460408051602060026001851615610100026000190190941693909304601f810184900484028201840190925281815292918301828280156104d15780601f106104a6576101008083540402835291602001916104d1565b820191906000526020600020905b8154815290600101906020018083116104b457829003601f168201915b505050505081565b60007f00000000000000000000000000000000000000000000000000000000000000006001600160a01b03166370a08231306040518263ffffffff1660e01b815260040180826001600160a01b0316815260200191505060206040518083038186803b15801561054857600080fd5b505afa15801561055c573d6000803e3d6000fd5b505050506040513d602081101561057257600080fd5b5051905090565b336001600160a01b037f000000000000000000000000000000000000000000000000000000000000000016146105e4576040805162461bcd60e51b815260206004820152600b60248201526a10b1b7b73a3937b63632b960a91b604482015290519081900360640190fd5b6106417f00000000000000000000000000000000000000000000000000000000000000006106106110bf565b6001600160a01b037f0000000000000000000000000000000000000000000000000000000000000000169190611497565b565b7f000000000000000000000000000000000000000000000000000000000000000081565b336001600160a01b037f000000000000000000000000000000000000000000000000000000000000000016146106d2576040805162461bcd60e51b815260206004820152600b60248201526a10b1b7b73a3937b63632b960a91b604482015290519081900360640190fd5b60006106dc6110bf565b905081811015610707576106f86106f383836114e9565b61154b565b915061070482826116a1565b91505b61075b6001600160a01b037f0000000000000000000000000000000000000000000000000000000000000000167f000000000000000000000000000000000000000000000000000000000000000084611497565b5050565b7f000000000000000000000000000000000000000000000000000000000000000081565b7f000000000000000000000000000000000000000000000000000000000000000081565b7f000000000000000000000000000000000000000000000000000000000000000081565b60008060006108a160036000815481106107e157fe5b90600052602060002090602091828204019190069054906101000a900460ff1660ff16600a0a60ff167f00000000000000000000000000000000000000000000000000000000000000006001600160a01b0316634903b0d160006040518263ffffffff1660e01b81526004018082815260200191505060206040518083038186803b15801561086f57600080fd5b505afa158015610883573d6000803e3d6000fd5b505050506040513d602081101561089957600080fd5b5051906116fb565b9050600061094060036001815481106108b657fe5b6000918252602091829020828204015460408051634903b0d160e01b815260016004820152905160ff601f9094166101000a9092048316600a0a909216926001600160a01b037f00000000000000000000000000000000000000000000000000000000000000001692634903b0d19260248083019392829003018186803b15801561086f57600080fd5b6002805491925014156109b4578082111561098657600260018154811061096357fe5b6000918252602090912001546001600160a01b0316935060019250610b48915050565b600260008154811061099457fe5b60009182526020822001546001600160a01b031694509250610b48915050565b6000610a5160036002815481106109c757fe5b6000918252602091829020828204015460408051634903b0d160e01b815260026004820152905160ff601f9094166101000a9092048316600a0a909216926001600160a01b037f00000000000000000000000000000000000000000000000000000000000000001692634903b0d19260248083019392829003018186803b15801561086f57600080fd5b90508183108015610a6157508083105b15610a95576002600081548110610a7457fe5b60009182526020822001546001600160a01b031695509350610b4892505050565b8282108015610aa357508082105b15610ada576002600181548110610ab657fe5b6000918252602090912001546001600160a01b0316945060019350610b4892505050565b8281108015610ae857508181105b15610b1e5760028081548110610afa57fe5b6000918252602090912001546001600160a01b0316945060029350610b4892505050565b6002600081548110610b2c57fe5b60009182526020822001546001600160a01b0316955093505050505b9091565b60028181548110610b5957fe5b6000918252602090912001546001600160a01b0316905081565b336001600160a01b037f00000000000000000000000000000000000000000000000000000000000000001614610bde576040805162461bcd60e51b815260206004820152600b60248201526a10b1b7b73a3937b63632b960a91b604482015290519081900360640190fd5b806001600160a01b03167f00000000000000000000000000000000000000000000000000000000000000006001600160a01b03161415610c4e576040805162461bcd60e51b815260206004808301919091526024820152631dd85b9d60e21b604482015290519081900360640190fd5b604080516370a0823160e01b8152306004820152905182916000916001600160a01b038416916370a08231916024808301926020929190829003018186803b158015610c9957600080fd5b505afa158015610cad573d6000803e3d6000fd5b505050506040513d6020811015610cc357600080fd5b50519050610cfb6001600160a01b0383167f000000000000000000000000000000000000000000000000000000000000000083611497565b505050565b7f000000000000000000000000000000000000000000000000000000000000000081565b7f000000000000000000000000000000000000000000000000000000000000000081565b7f000000000000000000000000000000000000000000000000000000000000000081565b6000610d87610d796104d9565b610d816110bf565b906116a1565b905090565b336001600160a01b037f00000000000000000000000000000000000000000000000000000000000000001614610df7576040805162461bcd60e51b815260206004820152600b60248201526a10b1b7b73a3937b63632b960a91b604482015290519081900360640190fd5b610dff611754565b60007f00000000000000000000000000000000000000000000000000000000000000006001600160a01b03166370a08231306040518263ffffffff1660e01b815260040180826001600160a01b0316815260200191505060206040518083038186803b158015610e6e57600080fd5b505afa158015610e82573d6000803e3d6000fd5b505050506040513d6020811015610e9857600080fd5b50519050610ef06001600160a01b037f0000000000000000000000000000000000000000000000000000000000000000167f000000000000000000000000000000000000000000000000000000000000000083611497565b50565b7f000000000000000000000000000000000000000000000000000000000000000081565b60038181548110610f2457fe5b9060005260206000209060209182820401919006915054906101000a900460ff1681565b7f000000000000000000000000000000000000000000000000000000000000000081565b7f00000000000000000000000000000000000000000000000000000000000000006001600160a01b0316635aa6e6756040518163ffffffff1660e01b815260040160206040518083038186803b158015610fc557600080fd5b505afa158015610fd9573d6000803e3d6000fd5b505050506040513d6020811015610fef57600080fd5b50516001600160a01b0316331461103b576040805162461bcd60e51b815260206004820152600b60248201526a21676f7665726e616e636560a81b604482015290519081900360640190fd5b600180546001600160a01b0319166001600160a01b0383811691909117909155611089907f00000000000000000000000000000000000000000000000000000000000000001682600061136b565b610ef06001600160a01b037f0000000000000000000000000000000000000000000000000000000000000000168260001961136b565b60007f00000000000000000000000000000000000000000000000000000000000000006001600160a01b03166370a08231306040518263ffffffff1660e01b815260040180826001600160a01b0316815260200191505060206040518083038186803b15801561054857600080fd5b336001600160a01b037f00000000000000000000000000000000000000000000000000000000000000001614611199576040805162461bcd60e51b815260206004820152600b60248201526a10b1b7b73a3937b63632b960a91b604482015290519081900360640190fd5b610641611804565b61271081565b336001600160a01b037f00000000000000000000000000000000000000000000000000000000000000001614611212576040805162461bcd60e51b815260206004820152600b60248201526a10b1b7b73a3937b63632b960a91b604482015290519081900360640190fd5b61075b8282611893565b7f00000000000000000000000000000000000000000000000000000000000000006001600160a01b0316635aa6e6756040518163ffffffff1660e01b815260040160206040518083038186803b15801561127557600080fd5b505afa158015611289573d6000803e3d6000fd5b505050506040513d602081101561129f57600080fd5b50516001600160a01b031633146112eb576040805162461bcd60e51b815260206004820152600b60248201526a21676f7665726e616e636560a81b604482015290519081900360640190fd5b6113006001600160a01b03841683600061136b565b610cfb6001600160a01b038416838361136b565b7f000000000000000000000000000000000000000000000000000000000000000081565b7f000000000000000000000000000000000000000000000000000000000000000081565b6001546001600160a01b031681565b8015806113f1575060408051636eb1769f60e11b81523060048201526001600160a01b03848116602483015291519185169163dd62ed3e91604480820192602092909190829003018186803b1580156113c357600080fd5b505afa1580156113d7573d6000803e3d6000fd5b505050506040513d60208110156113ed57600080fd5b5051155b61142c5760405162461bcd60e51b81526004018080602001828103825260368152602001806128006036913960400191505060405180910390fd5b604080516001600160a01b038416602482015260448082018490528251808303909101815260649091019091526020810180516001600160e01b031663095ea7b360e01b179052610cfb908490611a22565b606061148d8484600085611ad3565b90505b9392505050565b604080516001600160a01b038416602482015260448082018490528251808303909101815260649091019091526020810180516001600160e01b031663a9059cbb60e01b179052610cfb908490611a22565b600082821115611540576040805162461bcd60e51b815260206004820152601e60248201527f536166654d6174683a207375627472616374696f6e206f766572666c6f770000604482015290519081900360640190fd5b508082035b92915050565b6000807f00000000000000000000000000000000000000000000000000000000000000006001600160a01b03166370a08231306040518263ffffffff1660e01b815260040180826001600160a01b0316815260200191505060206040518083038186803b1580156115bb57600080fd5b505afa1580156115cf573d6000803e3d6000fd5b505050506040513d60208110156115e557600080fd5b505190506115f283611c2f565b60007f00000000000000000000000000000000000000000000000000000000000000006001600160a01b03166370a08231306040518263ffffffff1660e01b815260040180826001600160a01b0316815260200191505060206040518083038186803b15801561166157600080fd5b505afa158015611675573d6000803e3d6000fd5b505050506040513d602081101561168b57600080fd5b5051905061169981836114e9565b949350505050565b600082820183811015611490576040805162461bcd60e51b815260206004820152601b60248201527f536166654d6174683a206164646974696f6e206f766572666c6f770000000000604482015290519081900360640190fd5b60008261170a57506000611545565b8282028284828161171757fe5b04146114905760405162461bcd60e51b81526004018080602001828103825260218152602001806127b56021913960400191505060405180910390fd5b7f00000000000000000000000000000000000000000000000000000000000000006001600160a01b031663958e2d317f00000000000000000000000000000000000000000000000000000000000000006040518263ffffffff1660e01b815260040180828152602001915050602060405180830381600087803b1580156117da57600080fd5b505af11580156117ee573d6000803e3d6000fd5b505050506040513d602081101561075b57600080fd5b6040805163303acfe760e11b81527f000000000000000000000000000000000000000000000000000000000000000060048201526001602482015290516001600160a01b037f000000000000000000000000000000000000000000000000000000000000000016916360759fce9160448083019260209291908290030181600087803b1580156117da57600080fd5b61189b611ce7565b60007f00000000000000000000000000000000000000000000000000000000000000006001600160a01b03166370a08231306040518263ffffffff1660e01b815260040180826001600160a01b0316815260200191505060206040518083038186803b15801561190a57600080fd5b505afa15801561191e573d6000803e3d6000fd5b505050506040513d602081101561193457600080fd5b50519050801561198b5761198b7f00000000000000000000000000000000000000000000000000000000000000007f0000000000000000000000000000000000000000000000000000000000000000836001611d56565b60006119b87f00000000000000000000000000000000000000000000000000000000000000008585611e95565b90508015611a1c5760006119ca6107cb565b5090506119fa7f000000000000000000000000000000000000000000000000000000000000000082846001611d56565b611a02612208565b6000611a0c6110bf565b1115611a1a57611a1a611804565b505b50505050565b6060611a77826040518060400160405280602081526020017f5361666545524332303a206c6f772d6c6576656c2063616c6c206661696c6564815250856001600160a01b031661147e9092919063ffffffff16565b805190915015610cfb57808060200190516020811015611a9657600080fd5b5051610cfb5760405162461bcd60e51b815260040180806020018281038252602a8152602001806127d6602a913960400191505060405180910390fd5b606082471015611b145760405162461bcd60e51b815260040180806020018281038252602681526020018061278f6026913960400191505060405180910390fd5b611b1d85612641565b611b6e576040805162461bcd60e51b815260206004820152601d60248201527f416464726573733a2063616c6c20746f206e6f6e2d636f6e7472616374000000604482015290519081900360640190fd5b60006060866001600160a01b031685876040518082805190602001908083835b60208310611bad5780518252601f199092019160209182019101611b8e565b6001836020036101000a03801982511681845116808217855250505050505090500191505060006040518083038185875af1925050503d8060008114611c0f576040519150601f19603f3d011682016040523d82523d6000602084013e611c14565b606091505b5091509150611c24828286612647565b979650505050505050565b7f00000000000000000000000000000000000000000000000000000000000000006001600160a01b031663441a3e707f0000000000000000000000000000000000000000000000000000000000000000836040518363ffffffff1660e01b81526004018083815260200182815260200192505050602060405180830381600087803b158015611cbd57600080fd5b505af1158015611cd1573d6000803e3d6000fd5b505050506040513d6020811015610cfb57600080fd5b60408051637050ccd960e01b81523060048201526001602482015290516001600160a01b037f00000000000000000000000000000000000000000000000000000000000000001691637050ccd99160448083019260209291908290030181600087803b1580156117da57600080fd5b60408051600280825260608083018452926020830190803683370190505090508481600081518110611d8457fe5b60200260200101906001600160a01b031690816001600160a01b0316815250508381600181518110611db257fe5b6001600160a01b039283166020918202929092018101919091526001546040516338ed173960e01b8152600481018781526024820187905230606483018190526402540be4006084840181905260a060448501908152885160a4860152885195909716966338ed1739968b968b968b96939260c490910191878201910280838360005b83811015611e4d578181015183820152602001611e35565b505050509050019650505050505050600060405180830381600087803b158015611e7657600080fd5b505af1158015611e8a573d6000803e3d6000fd5b505050505050505050565b600080846001600160a01b03166370a08231306040518263ffffffff1660e01b815260040180826001600160a01b0316815260200191505060206040518083038186803b158015611ee557600080fd5b505afa158015611ef9573d6000803e3d6000fd5b505050506040513d6020811015611f0f57600080fd5b50519050611f3f857f00000000000000000000000000000000000000000000000000000000000000008387611d56565b604080516370a0823160e01b815230600482015290516001600160a01b037f000000000000000000000000000000000000000000000000000000000000000016916370a08231916024808301926020929190829003018186803b158015611fa557600080fd5b505afa158015611fb9573d6000803e3d6000fd5b505050506040513d6020811015611fcf57600080fd5b5051915081156122005760008060007f00000000000000000000000000000000000000000000000000000000000000006001600160a01b031663da633d316040518163ffffffff1660e01b815260040160606040518083038186803b15801561203757600080fd5b505afa15801561204b573d6000803e3d6000fd5b505050506040513d606081101561206157600080fd5b508051602082015160409092015190945090925090506000811580159061209057506001600160a01b03831615155b15612167576120ab6127106120a588856116fb565b906126eb565b90506120d97f000000000000000000000000000000000000000000000000000000000000000085838a611d56565b61216783856001600160a01b03166370a08231306040518263ffffffff1660e01b815260040180826001600160a01b0316815260200191505060206040518083038186803b15801561212a57600080fd5b505afa15801561213e573d6000803e3d6000fd5b505050506040513d602081101561215457600080fd5b50516001600160a01b0387169190611497565b604080516370a0823160e01b815230600482015290516001600160a01b037f000000000000000000000000000000000000000000000000000000000000000016916370a08231916024808301926020929190829003018186803b1580156121cd57600080fd5b505afa1580156121e1573d6000803e3d6000fd5b505050506040513d60208110156121f757600080fd5b50519550505050505b509392505050565b6002805414156123e75761221a612752565b600260008154811061222857fe5b60009182526020918290200154604080516370a0823160e01b815230600482015290516001600160a01b03909216926370a0823192602480840193829003018186803b15801561227757600080fd5b505afa15801561228b573d6000803e3d6000fd5b505050506040513d60208110156122a157600080fd5b505181526002805460019081106122b457fe5b60009182526020918290200154604080516370a0823160e01b815230600482015290516001600160a01b03909216926370a0823192602480840193829003018186803b15801561230357600080fd5b505afa158015612317573d6000803e3d6000fd5b505050506040513d602081101561232d57600080fd5b5051602082015260408051630b4c7e4d60e01b81527f00000000000000000000000000000000000000000000000000000000000000006001600160a01b031691630b4c7e4d918491600191600401908190849080838360005b8381101561239e578181015183820152602001612386565b5050505090500182815260200192505050600060405180830381600087803b1580156123c957600080fd5b505af11580156123dd573d6000803e3d6000fd5b5050505050610641565b6123ef612770565b60026000815481106123fd57fe5b60009182526020918290200154604080516370a0823160e01b815230600482015290516001600160a01b03909216926370a0823192602480840193829003018186803b15801561244c57600080fd5b505afa158015612460573d6000803e3d6000fd5b505050506040513d602081101561247657600080fd5b5051815260028054600190811061248957fe5b60009182526020918290200154604080516370a0823160e01b815230600482015290516001600160a01b03909216926370a0823192602480840193829003018186803b1580156124d857600080fd5b505afa1580156124ec573d6000803e3d6000fd5b505050506040513d602081101561250257600080fd5b50516020820152600280548190811061251757fe5b60009182526020918290200154604080516370a0823160e01b815230600482015290516001600160a01b03909216926370a0823192602480840193829003018186803b15801561256657600080fd5b505afa15801561257a573d6000803e3d6000fd5b505050506040513d602081101561259057600080fd5b50518160026020020152604051634515cef360e01b81526001600160a01b037f00000000000000000000000000000000000000000000000000000000000000001690634515cef39083906001906004018083606080838360005b838110156126025781810151838201526020016125ea565b5050505090500182815260200192505050600060405180830381600087803b15801561262d57600080fd5b505af1158015611a1a573d6000803e3d6000fd5b3b151590565b60608315612656575081611490565b8251156126665782518084602001fd5b8160405162461bcd60e51b81526004018080602001828103825283818151815260200191508051906020019080838360005b838110156126b0578181015183820152602001612698565b50505050905090810190601f1680156126dd5780820380516001836020036101000a031916815260200191505b509250505060405180910390fd5b6000808211612741576040805162461bcd60e51b815260206004820152601a60248201527f536166654d6174683a206469766973696f6e206279207a65726f000000000000604482015290519081900360640190fd5b81838161274a57fe5b049392505050565b60405180604001604052806002906020820280368337509192915050565b6040518060600160405280600390602082028036833750919291505056fe416464726573733a20696e73756666696369656e742062616c616e636520666f722063616c6c536166654d6174683a206d756c7469706c69636174696f6e206f766572666c6f775361666545524332303a204552433230206f7065726174696f6e20646964206e6f7420737563636565645361666545524332303a20617070726f76652066726f6d206e6f6e2d7a65726f20746f206e6f6e2d7a65726f20616c6c6f77616e6365a2646970667358221220a531895f1ae1d66131a4703cfb2adfc40d1bc010f7fa070ad105aaf979980a7064736f6c634300060c0033416464726573733a20696e73756666696369656e742062616c616e636520666f722063616c6c5361666545524332303a204552433230206f7065726174696f6e20646964206e6f7420737563636565645361666545524332303a20617070726f76652066726f6d206e6f6e2d7a65726f20746f206e6f6e2d7a65726f20616c6c6f77616e6365",
  "devdoc": {
    "kind": "dev",
    "methods": {
      "approveForSpender(address,address,uint256)": {
        "params": {
          "_amount": "The amount to spend",
          "_spender": "The address of the spender",
          "_token": "The address of the token"
        }
      },
      "balanceOfPool()": {
        "details": "Must be implemented by the strategy"
      },
      "constructor": {
        "params": {
          "_coinCount": "The number of coins in the pool",
          "_controller": "The address of the controller",
          "_convexVault": "The address of the convex vault",
          "_crv": "The address of CRV",
          "_cvx": "The address of CVX",
          "_manager": "The address of the manager",
          "_name": "The strategy name",
          "_pid": "The pool id of convex",
          "_router": "The address of the router for swapping tokens",
          "_stableSwapPool": "The address of the stable swap pool",
          "_want": "The desired token of the strategy",
          "_weth": "The address of WETH"
        }
      },
      "setRouter(address)": {
        "params": {
          "_router": "The address of the router"
        }
      },
      "withdraw(address)": {
        "params": {
          "_asset": "The address of the token to withdraw"
        }
      },
      "withdraw(uint256)": {
        "params": {
          "_amount": "The amount of the want token to withdraw"
        }
      }
    },
    "version": 1
  },
  "userdoc": {
    "kind": "user",
    "methods": {
      "approveForSpender(address,address,uint256)": {
        "notice": "Approves a token address to be spent by an address"
      },
      "balanceOf()": {
        "notice": "Returns the strategy's balance of the want token plus the balance of pool"
      },
      "balanceOfPool()": {
        "notice": "Returns the balance of the pool"
      },
      "balanceOfWant()": {
        "notice": "Returns the balance of the want token on the strategy"
      },
      "deposit()": {
        "notice": "Deposits funds to the strategy's pool"
      },
      "harvest(uint256,uint256)": {
        "notice": "Harvest funds in the strategy's pool"
      },
      "setRouter(address)": {
        "notice": "Sets the address of the ISwap-compatible router"
      },
      "skim()": {
        "notice": "Sends stuck want tokens in the strategy to the controller"
      },
      "withdraw(address)": {
        "notice": "Sends stuck tokens in the strategy to the controller"
      },
      "withdraw(uint256)": {
        "notice": "Initiated from a vault, withdraws funds from the pool"
      },
      "withdrawAll()": {
        "notice": "Withdraws all funds from the strategy"
      }
    },
    "version": 1
  },
  "storageLayout": {
    "storage": [
      {
        "astId": 18176,
        "contract": "contracts/v3/strategies/GeneralConvexStrategy.sol:GeneralConvexStrategy",
        "label": "name",
        "offset": 0,
        "slot": "0",
        "type": "t_string_storage"
      },
      {
        "astId": 18179,
        "contract": "contracts/v3/strategies/GeneralConvexStrategy.sol:GeneralConvexStrategy",
        "label": "router",
        "offset": 0,
        "slot": "1",
        "type": "t_contract(ISwap)17570"
      },
      {
        "astId": 19398,
        "contract": "contracts/v3/strategies/GeneralConvexStrategy.sol:GeneralConvexStrategy",
        "label": "tokens",
        "offset": 0,
        "slot": "2",
        "type": "t_array(t_address)dyn_storage"
      },
      {
        "astId": 19401,
        "contract": "contracts/v3/strategies/GeneralConvexStrategy.sol:GeneralConvexStrategy",
        "label": "decimalMultiples",
        "offset": 0,
        "slot": "3",
        "type": "t_array(t_uint8)dyn_storage"
      }
    ],
    "types": {
      "t_address": {
        "encoding": "inplace",
        "label": "address",
        "numberOfBytes": "20"
      },
      "t_array(t_address)dyn_storage": {
        "base": "t_address",
        "encoding": "dynamic_array",
        "label": "address[]",
        "numberOfBytes": "32"
      },
      "t_array(t_uint8)dyn_storage": {
        "base": "t_uint8",
        "encoding": "dynamic_array",
        "label": "uint8[]",
        "numberOfBytes": "32"
      },
      "t_contract(ISwap)17570": {
        "encoding": "inplace",
        "label": "contract ISwap",
        "numberOfBytes": "20"
      },
      "t_string_storage": {
        "encoding": "bytes",
        "label": "string",
        "numberOfBytes": "32"
      },
      "t_uint8": {
        "encoding": "inplace",
        "label": "uint8",
        "numberOfBytes": "1"
      }
    }
  }
}