{
  "address": "0x13aC0d61B4bf1b527e4f79A9c19205676e784c85",
  "abi": [
    {
      "inputs": [
        {
          "internalType": "address",
          "name": "_manager",
          "type": "address"
        },
        {
          "internalType": "address",
          "name": "_metavault",
          "type": "address"
        }
      ],
      "stateMutability": "nonpayable",
      "type": "constructor"
    },
    {
      "anonymous": false,
      "inputs": [
        {
          "indexed": false,
          "internalType": "uint256",
          "name": "amount",
          "type": "uint256"
        }
      ],
      "name": "Earn",
      "type": "event"
    },
    {
      "anonymous": false,
      "inputs": [
        {
          "indexed": false,
          "internalType": "uint256",
          "name": "amount",
          "type": "uint256"
        }
      ],
      "name": "Withdraw",
      "type": "event"
    },
    {
      "inputs": [],
      "name": "MAX",
      "outputs": [
        {
          "internalType": "uint256",
          "name": "",
          "type": "uint256"
        }
      ],
      "stateMutability": "view",
      "type": "function"
    },
    {
      "inputs": [
        {
          "internalType": "address",
          "name": "_token",
          "type": "address"
        }
      ],
      "name": "balanceOf",
      "outputs": [
        {
          "internalType": "uint256",
          "name": "",
          "type": "uint256"
        }
      ],
      "stateMutability": "view",
      "type": "function"
    },
    {
      "inputs": [],
      "name": "converter",
      "outputs": [
        {
          "internalType": "contract IConverter",
          "name": "",
          "type": "address"
        }
      ],
      "stateMutability": "view",
      "type": "function"
    },
    {
      "inputs": [
        {
          "internalType": "address",
          "name": "",
          "type": "address"
        },
        {
          "internalType": "uint256",
          "name": "_amount",
          "type": "uint256"
        }
      ],
      "name": "earn",
      "outputs": [],
      "stateMutability": "nonpayable",
      "type": "function"
    },
    {
      "inputs": [],
      "name": "investEnabled",
      "outputs": [
        {
          "internalType": "bool",
          "name": "",
          "type": "bool"
        }
      ],
      "stateMutability": "view",
      "type": "function"
    },
    {
      "inputs": [
        {
          "internalType": "address",
          "name": "_toToken",
          "type": "address"
        },
        {
          "internalType": "uint256",
          "name": "_expected",
          "type": "uint256"
        }
      ],
      "name": "legacyDeposit",
      "outputs": [],
      "stateMutability": "nonpayable",
      "type": "function"
    },
    {
      "inputs": [],
      "name": "manager",
      "outputs": [
        {
          "internalType": "contract IManager",
          "name": "",
          "type": "address"
        }
      ],
      "stateMutability": "view",
      "type": "function"
    },
    {
      "inputs": [],
      "name": "metavault",
      "outputs": [
        {
          "internalType": "address",
          "name": "",
          "type": "address"
        }
      ],
      "stateMutability": "view",
      "type": "function"
    },
    {
      "inputs": [
        {
          "internalType": "address",
          "name": "_token",
          "type": "address"
        },
        {
          "internalType": "address",
          "name": "_receiver",
          "type": "address"
        }
      ],
      "name": "recoverUnsupportedToken",
      "outputs": [],
      "stateMutability": "nonpayable",
      "type": "function"
    },
    {
      "inputs": [
        {
          "internalType": "address",
          "name": "_converter",
          "type": "address"
        }
      ],
      "name": "setConverter",
      "outputs": [],
      "stateMutability": "nonpayable",
      "type": "function"
    },
    {
      "inputs": [
        {
          "internalType": "bool",
          "name": "_investEnabled",
          "type": "bool"
        }
      ],
      "name": "setInvestEnabled",
      "outputs": [],
      "stateMutability": "nonpayable",
      "type": "function"
    },
    {
      "inputs": [
        {
          "internalType": "address",
          "name": "_vault",
          "type": "address"
        }
      ],
      "name": "setVault",
      "outputs": [],
      "stateMutability": "nonpayable",
      "type": "function"
    },
    {
      "inputs": [],
      "name": "token",
      "outputs": [
        {
          "internalType": "contract IERC20",
          "name": "",
          "type": "address"
        }
      ],
      "stateMutability": "view",
      "type": "function"
    },
    {
      "inputs": [],
      "name": "vault",
      "outputs": [
        {
          "internalType": "contract IVault",
          "name": "",
          "type": "address"
        }
      ],
      "stateMutability": "view",
      "type": "function"
    },
    {
      "inputs": [
        {
          "internalType": "address",
          "name": "",
          "type": "address"
        },
        {
          "internalType": "uint256",
          "name": "_amount",
          "type": "uint256"
        }
      ],
      "name": "withdraw",
      "outputs": [],
      "stateMutability": "nonpayable",
      "type": "function"
    },
    {
      "inputs": [
        {
          "internalType": "address",
          "name": "_token",
          "type": "address"
        },
        {
          "internalType": "uint256",
          "name": "_amount",
          "type": "uint256"
        }
      ],
      "name": "withdrawFee",
      "outputs": [
        {
          "internalType": "uint256",
          "name": "",
          "type": "uint256"
        }
      ],
      "stateMutability": "view",
      "type": "function"
    }
  ],
  "transactionHash": "0x1b1a524096a20f37520fb7689ee8d13c59f446bc9a1fa2b74266d447a7d99aad",
  "args": [
    "0xD18Fe933E6D03D707Cd5e755cBdC1251e8437095",
    "0x2Cd88D0b4b13f80bE6d18Aeb313F3bb94F9b3a49"
  ],
  "solcInputHash": "f68ee801279c5730ebe336840450dfbc",
  "bytecode": "0x60e060405234801561001057600080fd5b506040516120c63803806120c68339818101604052604081101561003357600080fd5b5080516020918201516001600160601b0319606083811b821660805282901b1660c05260408051631f1fcd5160e01b81529051929391926000926001600160a01b03851692631f1fcd51926004808301939282900301818787803b15801561009a57600080fd5b505af11580156100ae573d6000803e3d6000fd5b505050506040513d60208110156100c457600080fd5b50516001600160601b031960609190911b1660a05250505060805160601c60a05160601c60c05160601c611f2e610198600039806104855280610dfc5280610f8552806110125280611144528061169952508061041552806104a65280610547528061059b52806106a6528061092a52806109655280610a105280610a545280610cf05280611075528061112252806112f252806115d252806116c3528061175c52806117835250806102f252806103165280610730528061085c5280610c215280610e9452806117fd5250611f2e6000f3fe608060405234801561001057600080fd5b50600436106101005760003560e01c8063b19337a411610097578063f3fef3a311610066578063f3fef3a314610288578063fbfa77cf146102b4578063fc0c546a146102bc578063fd9be522146102c457610100565b8063b19337a41461024a578063bad0a7fd14610270578063bd38837b14610278578063d49d51811461028057610100565b80638fc1ea1e116100d35780638fc1ea1e146101a55780639246ce41146101c4578063940a4584146101f0578063b02bf4b91461021e57610100565b8063481c6a75146101055780636817031b1461012957806370a082311461015157806371f4f3fb14610189575b600080fd5b61010d6102f0565b604080516001600160a01b039092168252519081900360200190f35b61014f6004803603602081101561013f57600080fd5b50356001600160a01b0316610314565b005b6101776004803603602081101561016757600080fd5b50356001600160a01b0316610596565b60408051918252519081900360200190f35b610191610725565b604080519115158252519081900360200190f35b61014f600480360360208110156101bb57600080fd5b5035151561072e565b61014f600480360360408110156101da57600080fd5b506001600160a01b038135169060200135610810565b61014f6004803603604081101561020657600080fd5b506001600160a01b0381358116916020013516610c1f565b61014f6004803603604081101561023457600080fd5b506001600160a01b038135169060200135610df1565b61014f6004803603602081101561026057600080fd5b50356001600160a01b0316610e92565b61010d610f83565b61010d610fa7565b610177610fb6565b61014f6004803603604081101561029e57600080fd5b506001600160a01b038135169060200135610fbc565b61010d611746565b61010d61175a565b610177600480360360408110156102da57600080fd5b506001600160a01b03813516906020013561177e565b7f000000000000000000000000000000000000000000000000000000000000000081565b7f00000000000000000000000000000000000000000000000000000000000000006001600160a01b0316631fe4a6866040518163ffffffff1660e01b815260040160206040518083038186803b15801561036d57600080fd5b505afa158015610381573d6000803e3d6000fd5b505050506040513d602081101561039757600080fd5b50516001600160a01b031633146103e3576040805162461bcd60e51b815260206004820152600b60248201526a085cdd1c985d1959da5cdd60aa1b604482015290519081900360640190fd5b60005461010090046001600160a01b03161561056e576000805460408051630fa09e6360e41b81526001600160a01b037f00000000000000000000000000000000000000000000000000000000000000008116600483015291516101009093049091169263fa09e6309260248084019382900301818387803b15801561046857600080fd5b505af115801561047c573d6000803e3d6000fd5b5050505061056e7f00000000000000000000000000000000000000000000000000000000000000007f00000000000000000000000000000000000000000000000000000000000000006001600160a01b03166370a08231306040518263ffffffff1660e01b815260040180826001600160a01b0316815260200191505060206040518083038186803b15801561051157600080fd5b505afa158015610525573d6000803e3d6000fd5b505050506040513d602081101561053b57600080fd5b50516001600160a01b037f000000000000000000000000000000000000000000000000000000000000000016919061188e565b600080546001600160a01b0390921661010002610100600160a81b0319909216919091179055565b6000817f00000000000000000000000000000000000000000000000000000000000000006001600160a01b0316816001600160a01b031614610609576040805162461bcd60e51b815260206004820152600760248201526610afba37b5b2b760c91b604482015290519081900360640190fd5b600054604080516370a0823160e01b8152306004820152905161071e9261010090046001600160a01b0316916370a08231916024808301926020929190829003018186803b15801561065a57600080fd5b505afa15801561066e573d6000803e3d6000fd5b505050506040513d602081101561068457600080fd5b5051604080516370a0823160e01b815230600482015290516001600160a01b037f000000000000000000000000000000000000000000000000000000000000000016916370a08231916024808301926020929190829003018186803b1580156106ec57600080fd5b505afa158015610700573d6000803e3d6000fd5b505050506040513d602081101561071657600080fd5b5051906118e5565b9392505050565b60005460ff1681565b7f00000000000000000000000000000000000000000000000000000000000000006001600160a01b0316631fe4a6866040518163ffffffff1660e01b815260040160206040518083038186803b15801561078757600080fd5b505afa15801561079b573d6000803e3d6000fd5b505050506040513d60208110156107b157600080fd5b50516001600160a01b031633146107fd576040805162461bcd60e51b815260206004820152600b60248201526a085cdd1c985d1959da5cdd60aa1b604482015290519081900360640190fd5b6000805460ff1916911515919091179055565b6001546001600160a01b031661085a576040805162461bcd60e51b815260206004820152600a60248201526910b1b7b73b32b93a32b960b11b604482015290519081900360640190fd5b7f00000000000000000000000000000000000000000000000000000000000000006001600160a01b0316634bdaeac16040518163ffffffff1660e01b815260040160206040518083038186803b1580156108b357600080fd5b505afa1580156108c7573d6000803e3d6000fd5b505050506040513d60208110156108dd57600080fd5b50516001600160a01b03163314610928576040805162461bcd60e51b815260206004820152600a60248201526910b430b93b32b9ba32b960b11b604482015290519081900360640190fd5b7f00000000000000000000000000000000000000000000000000000000000000006001600160a01b0316826001600160a01b031614610aec5760007f00000000000000000000000000000000000000000000000000000000000000006001600160a01b03166370a08231306040518263ffffffff1660e01b815260040180826001600160a01b0316815260200191505060206040518083038186803b1580156109d057600080fd5b505afa1580156109e4573d6000803e3d6000fd5b505050506040513d60208110156109fa57600080fd5b5051600154909150610a39906001600160a01b037f0000000000000000000000000000000000000000000000000000000000000000811691168361188e565b600154604080516375892cf160e01b81526001600160a01b037f00000000000000000000000000000000000000000000000000000000000000008116600483015286811660248301526044820185905260648201869052915191909216916375892cf19160848083019260209291908290030181600087803b158015610abe57600080fd5b505af1158015610ad2573d6000803e3d6000fd5b505050506040513d6020811015610ae857600080fd5b5050505b60008054610b0c916001600160a01b038581169261010090041690611948565b600054610b2d906001600160a01b0384811691610100900416600019611948565b600054604080516370a0823160e01b815230600482015290516001600160a01b036101009093048316926347e7ef24928692918316916370a0823191602480820192602092909190829003018186803b158015610b8957600080fd5b505afa158015610b9d573d6000803e3d6000fd5b505050506040513d6020811015610bb357600080fd5b5051604080516001600160e01b031960e086901b1681526001600160a01b039093166004840152602483019190915251604480830192600092919082900301818387803b158015610c0357600080fd5b505af1158015610c17573d6000803e3d6000fd5b505050505050565b7f00000000000000000000000000000000000000000000000000000000000000006001600160a01b0316631fe4a6866040518163ffffffff1660e01b815260040160206040518083038186803b158015610c7857600080fd5b505afa158015610c8c573d6000803e3d6000fd5b505050506040513d6020811015610ca257600080fd5b50516001600160a01b03163314610cee576040805162461bcd60e51b815260206004820152600b60248201526a085cdd1c985d1959da5cdd60aa1b604482015290519081900360640190fd5b7f00000000000000000000000000000000000000000000000000000000000000006001600160a01b0316826001600160a01b03161415610d5f576040805162461bcd60e51b815260206004820152600760248201526610afba37b5b2b760c91b604482015290519081900360640190fd5b610ded81836001600160a01b03166370a08231306040518263ffffffff1660e01b815260040180826001600160a01b0316815260200191505060206040518083038186803b158015610db057600080fd5b505afa158015610dc4573d6000803e3d6000fd5b505050506040513d6020811015610dda57600080fd5b50516001600160a01b038516919061188e565b5050565b336001600160a01b037f00000000000000000000000000000000000000000000000000000000000000001614610e5b576040805162461bcd60e51b815260206004820152600a602482015269085b595d185d985d5b1d60b21b604482015290519081900360640190fd5b6040805182815290517fe9d573778e0925491fffd3b5b980fb161b898fd42d8e2dcd7c128f9de611c1bc9181900360200190a15050565b7f00000000000000000000000000000000000000000000000000000000000000006001600160a01b0316631fe4a6866040518163ffffffff1660e01b815260040160206040518083038186803b158015610eeb57600080fd5b505afa158015610eff573d6000803e3d6000fd5b505050506040513d6020811015610f1557600080fd5b50516001600160a01b03163314610f61576040805162461bcd60e51b815260206004820152600b60248201526a085cdd1c985d1959da5cdd60aa1b604482015290519081900360640190fd5b600180546001600160a01b0319166001600160a01b0392909216919091179055565b7f000000000000000000000000000000000000000000000000000000000000000081565b6001546001600160a01b031681565b61271081565b60005461010090046001600160a01b0316611007576040805162461bcd60e51b8152602060048201526006602482015265085d985d5b1d60d21b604482015290519081900360640190fd5b336001600160a01b037f00000000000000000000000000000000000000000000000000000000000000001614611071576040805162461bcd60e51b815260206004820152600a602482015269085b595d185d985d5b1d60b21b604482015290519081900360640190fd5b60007f00000000000000000000000000000000000000000000000000000000000000006001600160a01b03166370a08231306040518263ffffffff1660e01b815260040180826001600160a01b0316815260200191505060206040518083038186803b1580156110e057600080fd5b505afa1580156110f4573d6000803e3d6000fd5b505050506040513d602081101561110a57600080fd5b5051905081811061116e576111696001600160a01b037f0000000000000000000000000000000000000000000000000000000000000000167f00000000000000000000000000000000000000000000000000000000000000008461188e565b61170e565b600061117a8383611a5b565b90506060600060019054906101000a90046001600160a01b03166001600160a01b031663aa6ca8086040518163ffffffff1660e01b815260040160006040518083038186803b1580156111cc57600080fd5b505afa1580156111e0573d6000803e3d6000fd5b505050506040513d6000823e601f3d908101601f19168201604052602081101561120957600080fd5b810190808051604051939291908464010000000082111561122957600080fd5b90830190602082018581111561123e57600080fd5b825186602082028301116401000000008211171561125b57600080fd5b82525081516020918201928201910280838360005b83811015611288578181015183820152602001611270565b50505050905001604052505050905060008151116112d8576040805162461bcd60e51b8152602060048201526008602482015267215f746f6b656e7360c01b604482015290519081900360640190fd5b60015481516000916001600160a01b03169063717e7389907f0000000000000000000000000000000000000000000000000000000000000000908590859061131c57fe5b6020026020010151866040518463ffffffff1660e01b815260040180846001600160a01b03168152602001836001600160a01b03168152602001828152602001935050505060206040518083038186803b15801561137957600080fd5b505afa15801561138d573d6000803e3d6000fd5b505050506040513d60208110156113a357600080fd5b50516000805460408051631df1ee3f60e21b81529051939450919261143b926101009092046001600160a01b0316916377c7b8fc916004808301926020929190829003018186803b1580156113f757600080fd5b505afa15801561140b573d6000803e3d6000fd5b505050506040513d602081101561142157600080fd5b505161143584670de0b6b3a7640000611a9d565b90611af6565b9050600060019054906101000a90046001600160a01b03166001600160a01b031662f714ce828560008151811061146e57fe5b60200260200101516040518363ffffffff1660e01b815260040180838152602001826001600160a01b0316815260200192505050600060405180830381600087803b1580156114bc57600080fd5b505af11580156114d0573d6000803e3d6000fd5b50505050826000815181106114e157fe5b60200260200101516001600160a01b03166370a08231306040518263ffffffff1660e01b815260040180826001600160a01b0316815260200191505060206040518083038186803b15801561153557600080fd5b505afa158015611549573d6000803e3d6000fd5b505050506040513d602081101561155f57600080fd5b505160015484519196506115a6916001600160a01b03909116908790869060009061158657fe5b60200260200101516001600160a01b031661188e9092919063ffffffff16565b60015483516001600160a01b03909116906375892cf19085906000906115c857fe5b60200260200101517f00000000000000000000000000000000000000000000000000000000000000008860016040518563ffffffff1660e01b815260040180856001600160a01b03168152602001846001600160a01b03168152602001838152602001828152602001945050505050602060405180830381600087803b15801561165157600080fd5b505af1158015611665573d6000803e3d6000fd5b505050506040513d602081101561167b57600080fd5b5050604080516370a0823160e01b81523060048201529051611709917f0000000000000000000000000000000000000000000000000000000000000000916001600160a01b037f000000000000000000000000000000000000000000000000000000000000000016916370a08231916024808301926020929190829003018186803b15801561051157600080fd5b505050505b6040805183815290517f5b6b431d4476a211bb7d41c20d1aab9ae2321deee0d20be3d9fc9b1093fa6e3d9181900360200190a1505050565b60005461010090046001600160a01b031681565b7f000000000000000000000000000000000000000000000000000000000000000081565b6000827f00000000000000000000000000000000000000000000000000000000000000006001600160a01b0316816001600160a01b0316146117f1576040805162461bcd60e51b815260206004820152600760248201526610afba37b5b2b760c91b604482015290519081900360640190fd5b611886612710611435857f00000000000000000000000000000000000000000000000000000000000000006001600160a01b031663825139096040518163ffffffff1660e01b815260040160206040518083038186803b15801561185457600080fd5b505afa158015611868573d6000803e3d6000fd5b505050506040513d602081101561187e57600080fd5b505190611a9d565b949350505050565b604080516001600160a01b038416602482015260448082018490528251808303909101815260649091019091526020810180516001600160e01b031663a9059cbb60e01b1790526118e0908490611b38565b505050565b60008282018381101561193f576040805162461bcd60e51b815260206004820152601b60248201527f536166654d6174683a206164646974696f6e206f766572666c6f770000000000604482015290519081900360640190fd5b90505b92915050565b8015806119ce575060408051636eb1769f60e11b81523060048201526001600160a01b03848116602483015291519185169163dd62ed3e91604480820192602092909190829003018186803b1580156119a057600080fd5b505afa1580156119b4573d6000803e3d6000fd5b505050506040513d60208110156119ca57600080fd5b5051155b611a095760405162461bcd60e51b8152600401808060200182810382526036815260200180611ec36036913960400191505060405180910390fd5b604080516001600160a01b038416602482015260448082018490528251808303909101815260649091019091526020810180516001600160e01b031663095ea7b360e01b1790526118e0908490611b38565b600061193f83836040518060400160405280601e81526020017f536166654d6174683a207375627472616374696f6e206f766572666c6f770000815250611be9565b600082611aac57506000611942565b82820282848281611ab957fe5b041461193f5760405162461bcd60e51b8152600401808060200182810382526021815260200180611e786021913960400191505060405180910390fd5b600061193f83836040518060400160405280601a81526020017f536166654d6174683a206469766973696f6e206279207a65726f000000000000815250611c80565b6060611b8d826040518060400160405280602081526020017f5361666545524332303a206c6f772d6c6576656c2063616c6c206661696c6564815250856001600160a01b0316611ce59092919063ffffffff16565b8051909150156118e057808060200190516020811015611bac57600080fd5b50516118e05760405162461bcd60e51b815260040180806020018281038252602a815260200180611e99602a913960400191505060405180910390fd5b60008184841115611c785760405162461bcd60e51b81526004018080602001828103825283818151815260200191508051906020019080838360005b83811015611c3d578181015183820152602001611c25565b50505050905090810190601f168015611c6a5780820380516001836020036101000a031916815260200191505b509250505060405180910390fd5b505050900390565b60008183611ccf5760405162461bcd60e51b8152602060048201818152835160248401528351909283926044909101919085019080838360008315611c3d578181015183820152602001611c25565b506000838581611cdb57fe5b0495945050505050565b6060611886848460008585611cf985611e0b565b611d4a576040805162461bcd60e51b815260206004820152601d60248201527f416464726573733a2063616c6c20746f206e6f6e2d636f6e7472616374000000604482015290519081900360640190fd5b60006060866001600160a01b031685876040518082805190602001908083835b60208310611d895780518252601f199092019160209182019101611d6a565b6001836020036101000a03801982511681845116808217855250505050505090500191505060006040518083038185875af1925050503d8060008114611deb576040519150601f19603f3d011682016040523d82523d6000602084013e611df0565b606091505b5091509150611e00828286611e11565b979650505050505050565b3b151590565b60608315611e2057508161071e565b825115611e305782518084602001fd5b60405162461bcd60e51b8152602060048201818152845160248401528451859391928392604401919085019080838360008315611c3d578181015183820152602001611c2556fe536166654d6174683a206d756c7469706c69636174696f6e206f766572666c6f775361666545524332303a204552433230206f7065726174696f6e20646964206e6f7420737563636565645361666545524332303a20617070726f76652066726f6d206e6f6e2d7a65726f20746f206e6f6e2d7a65726f20616c6c6f77616e6365a26469706673582212202bc1472b01d31a15b0a2212c3a3e4cf3376897fc589c2b9590ed904d5d0c244964736f6c634300060c0033",
  "devdoc": {
    "kind": "dev",
    "methods": {
      "constructor": {
        "params": {
          "_manager": "The vault manager contract",
          "_metavault": "The legacy MetaVault contract"
        }
      }
    },
    "version": 1
  },
  "userdoc": {
    "kind": "user",
    "methods": {},
    "version": 1
  },
  "storageLayout": {
    "storage": [
      {
        "astId": 25391,
        "contract": "contracts/v3/controllers/LegacyController.sol:LegacyController",
        "label": "investEnabled",
        "offset": 0,
        "slot": "0",
        "type": "t_bool"
      },
      {
        "astId": 25393,
        "contract": "contracts/v3/controllers/LegacyController.sol:LegacyController",
        "label": "vault",
        "offset": 1,
        "slot": "0",
        "type": "t_contract(IVault)27199"
      },
      {
        "astId": 25395,
        "contract": "contracts/v3/controllers/LegacyController.sol:LegacyController",
        "label": "converter",
        "offset": 0,
        "slot": "1",
        "type": "t_contract(IConverter)26651"
      }
    ],
    "types": {
      "t_bool": {
        "encoding": "inplace",
        "label": "bool",
        "numberOfBytes": "1"
      },
      "t_contract(IConverter)26651": {
        "encoding": "inplace",
        "label": "contract IConverter",
        "numberOfBytes": "20"
      },
      "t_contract(IVault)27199": {
        "encoding": "inplace",
        "label": "contract IVault",
        "numberOfBytes": "20"
      }
    }
  }
}