{
  "address": "0x5D68Ddd47357a29714CB08bb48397E3Fe3d6F425",
  "abi": [
    {
      "inputs": [
        {
          "internalType": "address",
          "name": "_yaxis",
          "type": "address"
        }
      ],
      "stateMutability": "nonpayable",
      "type": "constructor"
    },
    {
      "anonymous": false,
      "inputs": [
        {
          "indexed": true,
          "internalType": "address",
          "name": "_controller",
          "type": "address"
        },
        {
          "indexed": false,
          "internalType": "bool",
          "name": "_allowed",
          "type": "bool"
        }
      ],
      "name": "AllowedController",
      "type": "event"
    },
    {
      "anonymous": false,
      "inputs": [
        {
          "indexed": true,
          "internalType": "address",
          "name": "_converter",
          "type": "address"
        },
        {
          "indexed": false,
          "internalType": "bool",
          "name": "_allowed",
          "type": "bool"
        }
      ],
      "name": "AllowedConverter",
      "type": "event"
    },
    {
      "anonymous": false,
      "inputs": [
        {
          "indexed": true,
          "internalType": "address",
          "name": "_strategy",
          "type": "address"
        },
        {
          "indexed": false,
          "internalType": "bool",
          "name": "_allowed",
          "type": "bool"
        }
      ],
      "name": "AllowedStrategy",
      "type": "event"
    },
    {
      "anonymous": false,
      "inputs": [
        {
          "indexed": true,
          "internalType": "address",
          "name": "_vault",
          "type": "address"
        },
        {
          "indexed": false,
          "internalType": "bool",
          "name": "_allowed",
          "type": "bool"
        }
      ],
      "name": "AllowedVault",
      "type": "event"
    },
    {
      "anonymous": false,
      "inputs": [],
      "name": "Halted",
      "type": "event"
    },
    {
      "anonymous": false,
      "inputs": [
        {
          "indexed": true,
          "internalType": "address",
          "name": "_vault",
          "type": "address"
        },
        {
          "indexed": true,
          "internalType": "address",
          "name": "_controller",
          "type": "address"
        }
      ],
      "name": "SetController",
      "type": "event"
    },
    {
      "anonymous": false,
      "inputs": [
        {
          "indexed": true,
          "internalType": "address",
          "name": "_governance",
          "type": "address"
        }
      ],
      "name": "SetGovernance",
      "type": "event"
    },
    {
      "anonymous": false,
      "inputs": [
        {
          "indexed": true,
          "internalType": "address",
          "name": "_strategist",
          "type": "address"
        }
      ],
      "name": "SetPendingStrategist",
      "type": "event"
    },
    {
      "anonymous": false,
      "inputs": [
        {
          "indexed": true,
          "internalType": "address",
          "name": "_strategist",
          "type": "address"
        }
      ],
      "name": "SetStrategist",
      "type": "event"
    },
    {
      "anonymous": false,
      "inputs": [
        {
          "indexed": true,
          "internalType": "address",
          "name": "_vault",
          "type": "address"
        },
        {
          "indexed": true,
          "internalType": "address",
          "name": "_token",
          "type": "address"
        }
      ],
      "name": "VaultAdded",
      "type": "event"
    },
    {
      "anonymous": false,
      "inputs": [
        {
          "indexed": true,
          "internalType": "address",
          "name": "_vault",
          "type": "address"
        }
      ],
      "name": "VaultRemoved",
      "type": "event"
    },
    {
      "inputs": [],
      "name": "MAX_TOKENS",
      "outputs": [
        {
          "internalType": "uint256",
          "name": "",
          "type": "uint256"
        }
      ],
      "stateMutability": "view",
      "type": "function"
    },
    {
      "inputs": [],
      "name": "PENDING_STRATEGIST_TIMELOCK",
      "outputs": [
        {
          "internalType": "uint256",
          "name": "",
          "type": "uint256"
        }
      ],
      "stateMutability": "view",
      "type": "function"
    },
    {
      "inputs": [],
      "name": "acceptStrategist",
      "outputs": [],
      "stateMutability": "nonpayable",
      "type": "function"
    },
    {
      "inputs": [
        {
          "internalType": "address",
          "name": "_vault",
          "type": "address"
        }
      ],
      "name": "addVault",
      "outputs": [],
      "stateMutability": "nonpayable",
      "type": "function"
    },
    {
      "inputs": [
        {
          "internalType": "address",
          "name": "",
          "type": "address"
        }
      ],
      "name": "allowedControllers",
      "outputs": [
        {
          "internalType": "bool",
          "name": "",
          "type": "bool"
        }
      ],
      "stateMutability": "view",
      "type": "function"
    },
    {
      "inputs": [
        {
          "internalType": "address",
          "name": "",
          "type": "address"
        }
      ],
      "name": "allowedConverters",
      "outputs": [
        {
          "internalType": "bool",
          "name": "",
          "type": "bool"
        }
      ],
      "stateMutability": "view",
      "type": "function"
    },
    {
      "inputs": [
        {
          "internalType": "address",
          "name": "",
          "type": "address"
        }
      ],
      "name": "allowedStrategies",
      "outputs": [
        {
          "internalType": "bool",
          "name": "",
          "type": "bool"
        }
      ],
      "stateMutability": "view",
      "type": "function"
    },
    {
      "inputs": [
        {
          "internalType": "address",
          "name": "",
          "type": "address"
        }
      ],
      "name": "allowedVaults",
      "outputs": [
        {
          "internalType": "bool",
          "name": "",
          "type": "bool"
        }
      ],
      "stateMutability": "view",
      "type": "function"
    },
    {
      "inputs": [
        {
          "internalType": "address",
          "name": "",
          "type": "address"
        }
      ],
      "name": "controllers",
      "outputs": [
        {
          "internalType": "address",
          "name": "",
          "type": "address"
        }
      ],
      "stateMutability": "view",
      "type": "function"
    },
    {
      "inputs": [],
      "name": "getHarvestFeeInfo",
      "outputs": [
        {
          "internalType": "address",
          "name": "",
          "type": "address"
        },
        {
          "internalType": "address",
          "name": "",
          "type": "address"
        },
        {
          "internalType": "uint256",
          "name": "",
          "type": "uint256"
        }
      ],
      "stateMutability": "view",
      "type": "function"
    },
    {
      "inputs": [
        {
          "internalType": "address",
          "name": "_vault",
          "type": "address"
        }
      ],
      "name": "getToken",
      "outputs": [
        {
          "internalType": "address",
          "name": "",
          "type": "address"
        }
      ],
      "stateMutability": "view",
      "type": "function"
    },
    {
      "inputs": [],
      "name": "governance",
      "outputs": [
        {
          "internalType": "address",
          "name": "",
          "type": "address"
        }
      ],
      "stateMutability": "view",
      "type": "function"
    },
    {
      "inputs": [],
      "name": "halted",
      "outputs": [
        {
          "internalType": "bool",
          "name": "",
          "type": "bool"
        }
      ],
      "stateMutability": "view",
      "type": "function"
    },
    {
      "inputs": [],
      "name": "harvester",
      "outputs": [
        {
          "internalType": "address",
          "name": "",
          "type": "address"
        }
      ],
      "stateMutability": "view",
      "type": "function"
    },
    {
      "inputs": [],
      "name": "insuranceFee",
      "outputs": [
        {
          "internalType": "uint256",
          "name": "",
          "type": "uint256"
        }
      ],
      "stateMutability": "view",
      "type": "function"
    },
    {
      "inputs": [],
      "name": "insurancePool",
      "outputs": [
        {
          "internalType": "address",
          "name": "",
          "type": "address"
        }
      ],
      "stateMutability": "view",
      "type": "function"
    },
    {
      "inputs": [],
      "name": "insurancePoolFee",
      "outputs": [
        {
          "internalType": "uint256",
          "name": "",
          "type": "uint256"
        }
      ],
      "stateMutability": "view",
      "type": "function"
    },
    {
      "inputs": [],
      "name": "pendingStrategist",
      "outputs": [
        {
          "internalType": "address",
          "name": "",
          "type": "address"
        }
      ],
      "stateMutability": "view",
      "type": "function"
    },
    {
      "inputs": [
        {
          "internalType": "contract IERC20",
          "name": "_token",
          "type": "address"
        },
        {
          "internalType": "uint256",
          "name": "_amount",
          "type": "uint256"
        },
        {
          "internalType": "address",
          "name": "_to",
          "type": "address"
        }
      ],
      "name": "recoverToken",
      "outputs": [],
      "stateMutability": "nonpayable",
      "type": "function"
    },
    {
      "inputs": [
        {
          "internalType": "address",
          "name": "_vault",
          "type": "address"
        }
      ],
      "name": "removeVault",
      "outputs": [],
      "stateMutability": "nonpayable",
      "type": "function"
    },
    {
      "inputs": [
        {
          "internalType": "address",
          "name": "_controller",
          "type": "address"
        },
        {
          "internalType": "bool",
          "name": "_allowed",
          "type": "bool"
        }
      ],
      "name": "setAllowedController",
      "outputs": [],
      "stateMutability": "nonpayable",
      "type": "function"
    },
    {
      "inputs": [
        {
          "internalType": "address",
          "name": "_converter",
          "type": "address"
        },
        {
          "internalType": "bool",
          "name": "_allowed",
          "type": "bool"
        }
      ],
      "name": "setAllowedConverter",
      "outputs": [],
      "stateMutability": "nonpayable",
      "type": "function"
    },
    {
      "inputs": [
        {
          "internalType": "address",
          "name": "_strategy",
          "type": "address"
        },
        {
          "internalType": "bool",
          "name": "_allowed",
          "type": "bool"
        }
      ],
      "name": "setAllowedStrategy",
      "outputs": [],
      "stateMutability": "nonpayable",
      "type": "function"
    },
    {
      "inputs": [
        {
          "internalType": "address",
          "name": "_vault",
          "type": "address"
        },
        {
          "internalType": "bool",
          "name": "_allowed",
          "type": "bool"
        }
      ],
      "name": "setAllowedVault",
      "outputs": [],
      "stateMutability": "nonpayable",
      "type": "function"
    },
    {
      "inputs": [
        {
          "internalType": "address",
          "name": "_vault",
          "type": "address"
        },
        {
          "internalType": "address",
          "name": "_controller",
          "type": "address"
        }
      ],
      "name": "setController",
      "outputs": [],
      "stateMutability": "nonpayable",
      "type": "function"
    },
    {
      "inputs": [
        {
          "internalType": "address",
          "name": "_governance",
          "type": "address"
        }
      ],
      "name": "setGovernance",
      "outputs": [],
      "stateMutability": "nonpayable",
      "type": "function"
    },
    {
      "inputs": [],
      "name": "setHalted",
      "outputs": [],
      "stateMutability": "nonpayable",
      "type": "function"
    },
    {
      "inputs": [
        {
          "internalType": "address",
          "name": "_harvester",
          "type": "address"
        }
      ],
      "name": "setHarvester",
      "outputs": [],
      "stateMutability": "nonpayable",
      "type": "function"
    },
    {
      "inputs": [
        {
          "internalType": "uint256",
          "name": "_insuranceFee",
          "type": "uint256"
        }
      ],
      "name": "setInsuranceFee",
      "outputs": [],
      "stateMutability": "nonpayable",
      "type": "function"
    },
    {
      "inputs": [
        {
          "internalType": "address",
          "name": "_insurancePool",
          "type": "address"
        }
      ],
      "name": "setInsurancePool",
      "outputs": [],
      "stateMutability": "nonpayable",
      "type": "function"
    },
    {
      "inputs": [
        {
          "internalType": "uint256",
          "name": "_insurancePoolFee",
          "type": "uint256"
        }
      ],
      "name": "setInsurancePoolFee",
      "outputs": [],
      "stateMutability": "nonpayable",
      "type": "function"
    },
    {
      "inputs": [
        {
          "internalType": "address",
          "name": "_stakingPool",
          "type": "address"
        }
      ],
      "name": "setStakingPool",
      "outputs": [],
      "stateMutability": "nonpayable",
      "type": "function"
    },
    {
      "inputs": [
        {
          "internalType": "uint256",
          "name": "_stakingPoolShareFee",
          "type": "uint256"
        }
      ],
      "name": "setStakingPoolShareFee",
      "outputs": [],
      "stateMutability": "nonpayable",
      "type": "function"
    },
    {
      "inputs": [
        {
          "internalType": "address",
          "name": "_strategist",
          "type": "address"
        }
      ],
      "name": "setStrategist",
      "outputs": [],
      "stateMutability": "nonpayable",
      "type": "function"
    },
    {
      "inputs": [
        {
          "internalType": "address",
          "name": "_treasury",
          "type": "address"
        }
      ],
      "name": "setTreasury",
      "outputs": [],
      "stateMutability": "nonpayable",
      "type": "function"
    },
    {
      "inputs": [
        {
          "internalType": "uint256",
          "name": "_treasuryFee",
          "type": "uint256"
        }
      ],
      "name": "setTreasuryFee",
      "outputs": [],
      "stateMutability": "nonpayable",
      "type": "function"
    },
    {
      "inputs": [
        {
          "internalType": "uint256",
          "name": "_withdrawalProtectionFee",
          "type": "uint256"
        }
      ],
      "name": "setWithdrawalProtectionFee",
      "outputs": [],
      "stateMutability": "nonpayable",
      "type": "function"
    },
    {
      "inputs": [],
      "name": "stakingPool",
      "outputs": [
        {
          "internalType": "address",
          "name": "",
          "type": "address"
        }
      ],
      "stateMutability": "view",
      "type": "function"
    },
    {
      "inputs": [],
      "name": "stakingPoolShareFee",
      "outputs": [
        {
          "internalType": "uint256",
          "name": "",
          "type": "uint256"
        }
      ],
      "stateMutability": "view",
      "type": "function"
    },
    {
      "inputs": [],
      "name": "strategist",
      "outputs": [
        {
          "internalType": "address",
          "name": "",
          "type": "address"
        }
      ],
      "stateMutability": "view",
      "type": "function"
    },
    {
      "inputs": [],
      "name": "treasury",
      "outputs": [
        {
          "internalType": "address",
          "name": "",
          "type": "address"
        }
      ],
      "stateMutability": "view",
      "type": "function"
    },
    {
      "inputs": [],
      "name": "treasuryFee",
      "outputs": [
        {
          "internalType": "uint256",
          "name": "",
          "type": "uint256"
        }
      ],
      "stateMutability": "view",
      "type": "function"
    },
    {
      "inputs": [],
      "name": "withdrawalProtectionFee",
      "outputs": [
        {
          "internalType": "uint256",
          "name": "",
          "type": "uint256"
        }
      ],
      "stateMutability": "view",
      "type": "function"
    },
    {
      "inputs": [],
      "name": "yaxis",
      "outputs": [
        {
          "internalType": "address",
          "name": "",
          "type": "address"
        }
      ],
      "stateMutability": "view",
      "type": "function"
    }
  ],
  "transactionHash": "0xa45f02308c93ee03e7eb1b10d131e7bb97b8402c70636da68e92350ed2933a30",
  "args": [
    "0x8624474F9E886b59A3317F3Ab598fFA63e050E96"
  ],
  "solcInputHash": "39b59b8416d0b0014a452466e334885c",
  "bytecode": "0x60a060405234801561001057600080fd5b506040516126813803806126818339818101604052602081101561003357600080fd5b50516001600160a01b03811661007a576040805162461bcd60e51b8152602060048201526007602482015266215f796178697360c81b604482015290519081900360640190fd5b606081901b6001600160601b03191660805260008054610100600160a81b031916336101008102919091178255600480546001600160a01b03199081168317909155600180548216831790556006805490911690911790556107d06009556101f4600a908155600b556001600160a01b03909116906125769061010b903980610b86528061201452506125766000f3fe608060405234801561001057600080fd5b50600436106102745760003560e01c806396d4370611610151578063c7b9d530116100c3578063d2a3259f11610087578063d2a3259f14610666578063da633d3114610694578063da8c229e146106c6578063e8d76bce146106ec578063f0f4426014610712578063f47c84c51461073857610274565b8063c7b9d530146105bf578063cc08c4cc146105e5578063cc32d17614610602578063ceb68c231461060a578063d04323c51461063057610274565b8063b1c7d36f11610115578063b1c7d36f14610554578063b9b8af0b1461055c578063ba32681e14610564578063c3de0cc414610581578063c3f4538714610589578063c4c4f2ee1461059157610274565b806396d43706146104f057806397c4fac7146104f8578063a94c487e14610500578063ab033ea914610526578063ab2adc001461054c57610274565b8063603dfcda116101ea57806377e741c7116101ae57806377e741c7146104495780637ae6c8d4146104665780637b7d6c681461048c5780637d5c0155146104ba57806382513909146104c257806383649674146104ca57610274565b8063603dfcda1461039f57806361d027b3146103bc5780636aef220a146103c45780636b0243bc146103fe5780636bbdc24b1461041b57610274565b80633f021b0e1161023c5780633f021b0e1461031957806346821efa146103215780634bdaeac11461033b57806359770438146103435780635aa6e675146103695780635b301d4c1461037157610274565b80630c56ae3b1461027957806315de1daa1461029d5780631fe4a686146102c5578063256b5a02146102cd5780633028f63a146102f3575b600080fd5b610281610740565b604080516001600160a01b039092168252519081900360200190f35b6102c3600480360360208110156102b357600080fd5b50356001600160a01b031661074f565b005b6102816108b9565b6102c3600480360360208110156102e357600080fd5b50356001600160a01b03166108c8565b6102c36004803603602081101561030957600080fd5b50356001600160a01b0316610acf565b610281610b84565b610329610ba8565b60408051918252519081900360200190f35b610281610bae565b6102816004803603602081101561035957600080fd5b50356001600160a01b0316610bbd565b610281610bdb565b6102c36004803603604081101561038757600080fd5b506001600160a01b0381351690602001351515610bef565b6102c3600480360360208110156103b557600080fd5b5035610d97565b610281610e86565b6103ea600480360360208110156103da57600080fd5b50356001600160a01b0316610e95565b604080519115158252519081900360200190f35b6102c36004803603602081101561041457600080fd5b5035610eaa565b6102c36004803603604081101561043157600080fd5b506001600160a01b0381351690602001351515610f98565b6102c36004803603602081101561045f57600080fd5b5035611140565b6103ea6004803603602081101561047c57600080fd5b50356001600160a01b0316611227565b6102c3600480360360408110156104a257600080fd5b506001600160a01b038135811691602001351661123c565b6103296113d4565b6103296113db565b6103ea600480360360208110156104e057600080fd5b50356001600160a01b03166113e1565b6102c36113f6565b6103296114ba565b6102c36004803603602081101561051657600080fd5b50356001600160a01b03166114c0565b6102c36004803603602081101561053c57600080fd5b50356001600160a01b0316611575565b610281611658565b610329611667565b6103ea61166d565b6102c36004803603602081101561057a57600080fd5b5035611676565b61028161175c565b6102c361176b565b6102c3600480360360408110156105a757600080fd5b506001600160a01b03813516906020013515156118b1565b6102c3600480360360208110156105d557600080fd5b50356001600160a01b0316611a59565b6102c3600480360360208110156105fb57600080fd5b5035611b83565b610329611c72565b6102c36004803603602081101561062057600080fd5b50356001600160a01b0316611c78565b6102c36004803603606081101561064657600080fd5b506001600160a01b03813581169160208101359160409091013516611dbd565b6102c36004803603604081101561067c57600080fd5b506001600160a01b0381351690602001351515611e64565b61069c61200c565b604080516001600160a01b0394851681529290931660208301528183015290519081900360600190f35b610281600480360360208110156106dc57600080fd5b50356001600160a01b0316612041565b6103ea6004803603602081101561070257600080fd5b50356001600160a01b031661205c565b6102c36004803603602081101561072857600080fd5b50356001600160a01b0316612071565b61032961216e565b6003546001600160a01b031681565b60005460ff1615610790576040805162461bcd60e51b81526020600482015260066024820152651a185b1d195960d21b604482015290519081900360640190fd5b60005461010090046001600160a01b031633146107e2576040805162461bcd60e51b815260206004820152600b60248201526a21676f7665726e616e636560a81b604482015290519081900360640190fd5b306001600160a01b0316816001600160a01b031663481c6a756040518163ffffffff1660e01b815260040160206040518083038186803b15801561082557600080fd5b505afa158015610839573d6000803e3d6000fd5b505050506040513d602081101561084f57600080fd5b50516001600160a01b031614610897576040805162461bcd60e51b815260206004820152600860248201526710b6b0b730b3b2b960c11b604482015290519081900360640190fd5b600180546001600160a01b0319166001600160a01b0392909216919091179055565b6004546001600160a01b031681565b60005460ff1615610909576040805162461bcd60e51b81526020600482015260066024820152651a185b1d195960d21b604482015290519081900360640190fd5b6004546001600160a01b03163314610956576040805162461bcd60e51b815260206004820152600b60248201526a085cdd1c985d1959da5cdd60aa1b604482015290519081900360640190fd5b6001600160a01b03811660009081526010602052604090205460ff166109b4576040805162461bcd60e51b815260206004820152600e60248201526d21616c6c6f7765645661756c747360901b604482015290519081900360640190fd5b6001600160a01b038181166000908152601260205260409020541615610a0b576040805162461bcd60e51b81526020600482015260076024820152660857dd985d5b1d60ca1b604482015290519081900360640190fd5b6000816001600160a01b03166321df0da76040518163ffffffff1660e01b815260040160206040518083038186803b158015610a4657600080fd5b505afa158015610a5a573d6000803e3d6000fd5b505050506040513d6020811015610a7057600080fd5b50516001600160a01b0383811660008181526012602052604080822080546001600160a01b031916948616948517905551939450919290917f2f0697414292d16e25e419060ebbb3a3318648280380829ca42af307b155393b91a35050565b60005460ff1615610b10576040805162461bcd60e51b81526020600482015260066024820152651a185b1d195960d21b604482015290519081900360640190fd5b60005461010090046001600160a01b03163314610b62576040805162461bcd60e51b815260206004820152600b60248201526a21676f7665726e616e636560a81b604482015290519081900360640190fd5b600380546001600160a01b0319166001600160a01b0392909216919091179055565b7f000000000000000000000000000000000000000000000000000000000000000081565b60085481565b6001546001600160a01b031681565b6001600160a01b039081166000908152601260205260409020541690565b60005461010090046001600160a01b031681565b60005460ff1615610c30576040805162461bcd60e51b81526020600482015260066024820152651a185b1d195960d21b604482015290519081900360640190fd5b60005461010090046001600160a01b03163314610c82576040805162461bcd60e51b815260206004820152600b60248201526a21676f7665726e616e636560a81b604482015290519081900360640190fd5b306001600160a01b0316826001600160a01b031663481c6a756040518163ffffffff1660e01b815260040160206040518083038186803b158015610cc557600080fd5b505afa158015610cd9573d6000803e3d6000fd5b505050506040513d6020811015610cef57600080fd5b50516001600160a01b031614610d37576040805162461bcd60e51b815260206004820152600860248201526710b6b0b730b3b2b960c11b604482015290519081900360640190fd5b6001600160a01b0382166000818152600e6020908152604091829020805460ff1916851515908117909155825190815291517f1da9d4667c5bcfd6db52e9fa66b3bf5e3a0bb5cd3e198216853056d08a84a25e9281900390910190a25050565b60005460ff1615610dd8576040805162461bcd60e51b81526020600482015260066024820152651a185b1d195960d21b604482015290519081900360640190fd5b60005461010090046001600160a01b03163314610e2a576040805162461bcd60e51b815260206004820152600b60248201526a21676f7665726e616e636560a81b604482015290519081900360640190fd5b611388811115610e81576040805162461bcd60e51b815260206004820152601d60248201527f5f7374616b696e67506f6f6c5368617265466565206f76657220353025000000604482015290519081900360640190fd5b600955565b6006546001600160a01b031681565b600d6020526000908152604090205460ff1681565b60005460ff1615610eeb576040805162461bcd60e51b81526020600482015260066024820152651a185b1d195960d21b604482015290519081900360640190fd5b60005461010090046001600160a01b03163314610f3d576040805162461bcd60e51b815260206004820152600b60248201526a21676f7665726e616e636560a81b604482015290519081900360640190fd5b6064811115610f93576040805162461bcd60e51b815260206004820181905260248201527f5f7769746864726177616c50726f74656374696f6e466565206f766572203125604482015290519081900360640190fd5b600b55565b60005460ff1615610fd9576040805162461bcd60e51b81526020600482015260066024820152651a185b1d195960d21b604482015290519081900360640190fd5b60005461010090046001600160a01b0316331461102b576040805162461bcd60e51b815260206004820152600b60248201526a21676f7665726e616e636560a81b604482015290519081900360640190fd5b306001600160a01b0316826001600160a01b031663481c6a756040518163ffffffff1660e01b815260040160206040518083038186803b15801561106e57600080fd5b505afa158015611082573d6000803e3d6000fd5b505050506040513d602081101561109857600080fd5b50516001600160a01b0316146110e0576040805162461bcd60e51b815260206004820152600860248201526710b6b0b730b3b2b960c11b604482015290519081900360640190fd5b6001600160a01b038216600081815260106020908152604091829020805460ff1916851515908117909155825190815291517f782feb3c2ff233492ea8302a5109cb6f33fcdedaf15f4d4a7e847f3ec06c53829281900390910190a25050565b60005460ff1615611181576040805162461bcd60e51b81526020600482015260066024820152651a185b1d195960d21b604482015290519081900360640190fd5b60005461010090046001600160a01b031633146111d3576040805162461bcd60e51b815260206004820152600b60248201526a21676f7665726e616e636560a81b604482015290519081900360640190fd5b6107d0811115611222576040805162461bcd60e51b81526020600482015260156024820152745f7472656173757279466565206f7665722032302560581b604482015290519081900360640190fd5b600a55565b600f6020526000908152604090205460ff1681565b60005460ff161561127d576040805162461bcd60e51b81526020600482015260066024820152651a185b1d195960d21b604482015290519081900360640190fd5b6004546001600160a01b031633146112ca576040805162461bcd60e51b815260206004820152600b60248201526a085cdd1c985d1959da5cdd60aa1b604482015290519081900360640190fd5b6001600160a01b03821660009081526010602052604090205460ff16611321576040805162461bcd60e51b81526020600482015260076024820152660857dd985d5b1d60ca1b604482015290519081900360640190fd5b6001600160a01b0381166000908152600d602052604090205460ff1661137d576040805162461bcd60e51b815260206004820152600c60248201526b10afb1b7b73a3937b63632b960a11b604482015290519081900360640190fd5b6001600160a01b0382811660008181526011602052604080822080546001600160a01b0319169486169485179055517f9fdb07212c6f92fd298affc4000712177664bc3c4cae5f61098d42da6d05be1e9190a35050565b62093a8081565b600b5481565b600e6020526000908152604090205460ff1681565b60005460ff1615611437576040805162461bcd60e51b81526020600482015260066024820152651a185b1d195960d21b604482015290519081900360640190fd5b6004546001600160a01b03163314611484576040805162461bcd60e51b815260206004820152600b60248201526a085cdd1c985d1959da5cdd60aa1b604482015290519081900360640190fd5b6000805460ff191660011781556040517f1ee9080f6b55ca44ce58681c8162e6c1ac1c47e1da791a4a1c1ec6186d8af1f39190a1565b60075481565b60005460ff1615611501576040805162461bcd60e51b81526020600482015260066024820152651a185b1d195960d21b604482015290519081900360640190fd5b60005461010090046001600160a01b03163314611553576040805162461bcd60e51b815260206004820152600b60248201526a21676f7665726e616e636560a81b604482015290519081900360640190fd5b600280546001600160a01b0319166001600160a01b0392909216919091179055565b60005460ff16156115b6576040805162461bcd60e51b81526020600482015260066024820152651a185b1d195960d21b604482015290519081900360640190fd5b60005461010090046001600160a01b03163314611608576040805162461bcd60e51b815260206004820152600b60248201526a21676f7665726e616e636560a81b604482015290519081900360640190fd5b60008054610100600160a81b0319166101006001600160a01b03841690810291909117825560405190917f24a8c4807b324a269a51827c3446b8ac1cc13810d7d0c0ca1efafabddd7b621991a250565b6002546001600160a01b031681565b60095481565b60005460ff1681565b60005460ff16156116b7576040805162461bcd60e51b81526020600482015260066024820152651a185b1d195960d21b604482015290519081900360640190fd5b60005461010090046001600160a01b03163314611709576040805162461bcd60e51b815260206004820152600b60248201526a21676f7665726e616e636560a81b604482015290519081900360640190fd5b6064811115611757576040805162461bcd60e51b81526020600482015260156024820152745f696e737572616e6365466565206f76657220312560581b604482015290519081900360640190fd5b600755565b6005546001600160a01b031681565b60005460ff16156117ac576040805162461bcd60e51b81526020600482015260066024820152651a185b1d195960d21b604482015290519081900360640190fd5b6005546001600160a01b03163314611800576040805162461bcd60e51b8152602060048201526012602482015271085c195b991a5b99d4dd1c985d1959da5cdd60721b604482015290519081900360640190fd5b600c546118109062093a80612174565b4211611863576040805162461bcd60e51b815260206004820152601b60248201527f50454e44494e475f535452415445474953545f54494d454c4f434b0000000000604482015290519081900360640190fd5b600580546001600160a01b03199081169091556000600c81905560048054339316831790556040517f46d58e3fa07bf19b1d27240f0e286b27e9f7c1b0d88933333fe833b60eec54129190a2565b60005460ff16156118f2576040805162461bcd60e51b81526020600482015260066024820152651a185b1d195960d21b604482015290519081900360640190fd5b60005461010090046001600160a01b03163314611944576040805162461bcd60e51b815260206004820152600b60248201526a21676f7665726e616e636560a81b604482015290519081900360640190fd5b306001600160a01b0316826001600160a01b031663481c6a756040518163ffffffff1660e01b815260040160206040518083038186803b15801561198757600080fd5b505afa15801561199b573d6000803e3d6000fd5b505050506040513d60208110156119b157600080fd5b50516001600160a01b0316146119f9576040805162461bcd60e51b815260206004820152600860248201526710b6b0b730b3b2b960c11b604482015290519081900360640190fd5b6001600160a01b0382166000818152600f6020908152604091829020805460ff1916851515908117909155825190815291517f7dc60e546dd3412c6abd1e15894f1e79359a5d19a26dff0554649831f8ebfc499281900390910190a25050565b60005460ff1615611a9a576040805162461bcd60e51b81526020600482015260066024820152651a185b1d195960d21b604482015290519081900360640190fd5b60005461010090046001600160a01b03163314611aec576040805162461bcd60e51b815260206004820152600b60248201526a21676f7665726e616e636560a81b604482015290519081900360640190fd5b6001600160a01b038116611b36576040805162461bcd60e51b815260206004820152600c60248201526b0857dcdd1c985d1959da5cdd60a21b604482015290519081900360640190fd5b600580546001600160a01b0319166001600160a01b03831690811790915542600c556040517e82dcc415a21035ab1e9de07c5fb8f8e351e148774f21288b1f1ad81992b0a690600090a250565b60005460ff1615611bc4576040805162461bcd60e51b81526020600482015260066024820152651a185b1d195960d21b604482015290519081900360640190fd5b60005461010090046001600160a01b03163314611c16576040805162461bcd60e51b815260206004820152600b60248201526a21676f7665726e616e636560a81b604482015290519081900360640190fd5b6107d0811115611c6d576040805162461bcd60e51b815260206004820152601a60248201527f5f696e737572616e6365506f6f6c466565206f76657220323025000000000000604482015290519081900360640190fd5b600855565b600a5481565b60005460ff1615611cb9576040805162461bcd60e51b81526020600482015260066024820152651a185b1d195960d21b604482015290519081900360640190fd5b6004546001600160a01b03163314611d06576040805162461bcd60e51b815260206004820152600b60248201526a085cdd1c985d1959da5cdd60aa1b604482015290519081900360640190fd5b6001600160a01b0381811660009081526012602052604090205416611d5c576040805162461bcd60e51b81526020600482015260076024820152660857dd985d5b1d60ca1b604482015290519081900360640190fd5b6001600160a01b038116600081815260126020908152604080832080546001600160a01b03191690556010909152808220805460ff19169055517fe71f3a50e5ad81964f352c411f1d45e35438ecd1acecef59ac81d9fbbf6cbc0a9190a250565b60005460ff1615611dfe576040805162461bcd60e51b81526020600482015260066024820152651a185b1d195960d21b604482015290519081900360640190fd5b6004546001600160a01b03163314611e4b576040805162461bcd60e51b815260206004820152600b60248201526a085cdd1c985d1959da5cdd60aa1b604482015290519081900360640190fd5b611e5f6001600160a01b03841682846121d5565b505050565b60005460ff1615611ea5576040805162461bcd60e51b81526020600482015260066024820152651a185b1d195960d21b604482015290519081900360640190fd5b60005461010090046001600160a01b03163314611ef7576040805162461bcd60e51b815260206004820152600b60248201526a21676f7665726e616e636560a81b604482015290519081900360640190fd5b306001600160a01b0316826001600160a01b031663481c6a756040518163ffffffff1660e01b815260040160206040518083038186803b158015611f3a57600080fd5b505afa158015611f4e573d6000803e3d6000fd5b505050506040513d6020811015611f6457600080fd5b50516001600160a01b031614611fac576040805162461bcd60e51b815260206004820152600860248201526710b6b0b730b3b2b960c11b604482015290519081900360640190fd5b6001600160a01b0382166000818152600d6020908152604091829020805460ff1916851515908117909155825190815291517f301f7fe22cf850fe662189cc6dca0701b83a64a254b04eb21a3c1ef4118dd3eb9281900390910190a25050565b600654600a547f0000000000000000000000000000000000000000000000000000000000000000916001600160a01b03169192565b6011602052600090815260409020546001600160a01b031681565b60106020526000908152604090205460ff1681565b60005460ff16156120b2576040805162461bcd60e51b81526020600482015260066024820152651a185b1d195960d21b604482015290519081900360640190fd5b60005461010090046001600160a01b03163314612104576040805162461bcd60e51b815260206004820152600b60248201526a21676f7665726e616e636560a81b604482015290519081900360640190fd5b6001600160a01b03811661214c576040805162461bcd60e51b815260206004820152600a602482015269215f747265617375727960b01b604482015290519081900360640190fd5b600680546001600160a01b0319166001600160a01b0392909216919091179055565b61010081565b6000828201838110156121ce576040805162461bcd60e51b815260206004820152601b60248201527f536166654d6174683a206164646974696f6e206f766572666c6f770000000000604482015290519081900360640190fd5b9392505050565b604080516001600160a01b038416602482015260448082018490528251808303909101815260649091019091526020810180516001600160e01b031663a9059cbb60e01b179052611e5f9084906060612277826040518060400160405280602081526020017f5361666545524332303a206c6f772d6c6576656c2063616c6c206661696c6564815250856001600160a01b03166122d39092919063ffffffff16565b805190915015611e5f5780806020019051602081101561229657600080fd5b5051611e5f5760405162461bcd60e51b815260040180806020018281038252602a815260200180612517602a913960400191505060405180910390fd5b60606122e284846000856122ea565b949350505050565b60608247101561232b5760405162461bcd60e51b81526004018080602001828103825260268152602001806124f16026913960400191505060405180910390fd5b61233485612446565b612385576040805162461bcd60e51b815260206004820152601d60248201527f416464726573733a2063616c6c20746f206e6f6e2d636f6e7472616374000000604482015290519081900360640190fd5b60006060866001600160a01b031685876040518082805190602001908083835b602083106123c45780518252601f1990920191602091820191016123a5565b6001836020036101000a03801982511681845116808217855250505050505090500191505060006040518083038185875af1925050503d8060008114612426576040519150601f19603f3d011682016040523d82523d6000602084013e61242b565b606091505b509150915061243b82828661244c565b979650505050505050565b3b151590565b6060831561245b5750816121ce565b82511561246b5782518084602001fd5b8160405162461bcd60e51b81526004018080602001828103825283818151815260200191508051906020019080838360005b838110156124b557818101518382015260200161249d565b50505050905090810190601f1680156124e25780820380516001836020036101000a031916815260200191505b509250505060405180910390fdfe416464726573733a20696e73756666696369656e742062616c616e636520666f722063616c6c5361666545524332303a204552433230206f7065726174696f6e20646964206e6f742073756363656564a2646970667358221220522493bd84d507aa6091c5f3900163377fc517e8d6f912e3ee74d575ea5f28b364736f6c634300060c0033",
  "devdoc": {
    "kind": "dev",
    "methods": {
      "acceptStrategist()": {
        "details": "This can only be called after the pending strategist timelock (7 days)"
      },
      "addVault(address)": {
        "params": {
          "_vault": "The address of the vault"
        }
      },
      "constructor": {
        "params": {
          "_yaxis": "The address of the YAX token"
        }
      },
      "getToken(address)": {
        "params": {
          "_vault": "The address of the vault"
        }
      },
      "recoverToken(address,uint256,address)": {
        "details": "This contract should never hold tokens",
        "params": {
          "_amount": "The amount to withdraw",
          "_to": "The address to send to",
          "_token": "The address of the token"
        }
      },
      "removeVault(address)": {
        "params": {
          "_vault": "The address of the vault"
        }
      },
      "setAllowedController(address,bool)": {
        "params": {
          "_allowed": "The status of if it is allowed",
          "_controller": "The address of the controller"
        }
      },
      "setAllowedConverter(address,bool)": {
        "params": {
          "_allowed": "The status of if it is allowed",
          "_converter": "The address of the converter"
        }
      },
      "setAllowedStrategy(address,bool)": {
        "params": {
          "_allowed": "The status of if it is allowed",
          "_strategy": "The address of the strategy"
        }
      },
      "setAllowedVault(address,bool)": {
        "params": {
          "_allowed": "The status of if it is allowed",
          "_vault": "The address of the vault"
        }
      },
      "setController(address,address)": {
        "params": {
          "_controller": "The address of the controller",
          "_vault": "The address of the vault"
        }
      },
      "setGovernance(address)": {
        "params": {
          "_governance": "The address of the governance"
        }
      },
      "setHalted()": {
        "details": "Withdraws will still work, allowing users to exit the protocol"
      },
      "setHarvester(address)": {
        "params": {
          "_harvester": "The address of the harvester"
        }
      },
      "setInsuranceFee(uint256)": {
        "details": "Throws if setting fee over 1%",
        "params": {
          "_insuranceFee": "The value for the insurance fee"
        }
      },
      "setInsurancePool(address)": {
        "params": {
          "_insurancePool": "The address of the insurance pool"
        }
      },
      "setInsurancePoolFee(uint256)": {
        "details": "Throws if setting fee over 20%",
        "params": {
          "_insurancePoolFee": "The value for the insurance pool fee"
        }
      },
      "setStakingPool(address)": {
        "params": {
          "_stakingPool": "The address of the staking pool"
        }
      },
      "setStakingPoolShareFee(uint256)": {
        "details": "Throws if setting fee over 50%",
        "params": {
          "_stakingPoolShareFee": "The value for the staking pool fee"
        }
      },
      "setStrategist(address)": {
        "params": {
          "_strategist": "The address of the strategist"
        }
      },
      "setTreasury(address)": {
        "params": {
          "_treasury": "The address of the treasury"
        }
      },
      "setTreasuryFee(uint256)": {
        "details": "Throws if setting fee over 20%",
        "params": {
          "_treasuryFee": "The value for the treasury fee"
        }
      },
      "setWithdrawalProtectionFee(uint256)": {
        "details": "Throws if setting fee over 1%",
        "params": {
          "_withdrawalProtectionFee": "The value for the withdrawal protection fee"
        }
      }
    },
    "title": "Manager",
    "version": 1
  },
  "userdoc": {
    "kind": "user",
    "methods": {
      "acceptStrategist()": {
        "notice": "Updates the strategist to the pending strategist"
      },
      "addVault(address)": {
        "notice": "Adds a token to be able to be deposited for a given vault"
      },
      "getHarvestFeeInfo()": {
        "notice": "Returns a tuple of:     YAXIS token address,     Treasury address,     Treasury fee"
      },
      "getToken(address)": {
        "notice": "Returns an array of token addresses for a given vault"
      },
      "recoverToken(address,uint256,address)": {
        "notice": "Allows the strategist to pull tokens out of this contract"
      },
      "removeVault(address)": {
        "notice": "Removes a token from being able to be deposited for a given vault"
      },
      "setAllowedController(address,bool)": {
        "notice": "Sets the permission for the given controller"
      },
      "setAllowedConverter(address,bool)": {
        "notice": "Sets the permission for the given converter"
      },
      "setAllowedStrategy(address,bool)": {
        "notice": "Sets the permission for the given strategy"
      },
      "setAllowedVault(address,bool)": {
        "notice": "Sets the permission for the given vault"
      },
      "setController(address,address)": {
        "notice": "Sets the vault address for a controller"
      },
      "setGovernance(address)": {
        "notice": "Sets the governance address"
      },
      "setHalted()": {
        "notice": "Sets the protocol as halted, disallowing all deposits forever"
      },
      "setHarvester(address)": {
        "notice": "Sets the harvester address"
      },
      "setInsuranceFee(uint256)": {
        "notice": "Sets the insurance fee"
      },
      "setInsurancePool(address)": {
        "notice": "Sets the insurance pool address"
      },
      "setInsurancePoolFee(uint256)": {
        "notice": "Sets the insurance pool fee"
      },
      "setStakingPool(address)": {
        "notice": "Sets the staking pool address"
      },
      "setStakingPoolShareFee(uint256)": {
        "notice": "Sets the staking pool share fee"
      },
      "setStrategist(address)": {
        "notice": "Sets the pending strategist and the timestamp"
      },
      "setTreasury(address)": {
        "notice": "Sets the treasury address"
      },
      "setTreasuryFee(uint256)": {
        "notice": "Sets the treasury fee"
      },
      "setWithdrawalProtectionFee(uint256)": {
        "notice": "Sets the withdrawal protection fee"
      }
    },
    "notice": "This contract serves as the central point for governance-voted variables. Fees and permissioned addresses are stored and referenced in this contract only.",
    "version": 1
  },
  "storageLayout": {
    "storage": [
      {
        "astId": 11228,
        "contract": "contracts/v3/Manager.sol:Manager",
        "label": "halted",
        "offset": 0,
        "slot": "0",
        "type": "t_bool"
      },
      {
        "astId": 11231,
        "contract": "contracts/v3/Manager.sol:Manager",
        "label": "governance",
        "offset": 1,
        "slot": "0",
        "type": "t_address"
      },
      {
        "astId": 11234,
        "contract": "contracts/v3/Manager.sol:Manager",
        "label": "harvester",
        "offset": 0,
        "slot": "1",
        "type": "t_address"
      },
      {
        "astId": 11237,
        "contract": "contracts/v3/Manager.sol:Manager",
        "label": "insurancePool",
        "offset": 0,
        "slot": "2",
        "type": "t_address"
      },
      {
        "astId": 11240,
        "contract": "contracts/v3/Manager.sol:Manager",
        "label": "stakingPool",
        "offset": 0,
        "slot": "3",
        "type": "t_address"
      },
      {
        "astId": 11243,
        "contract": "contracts/v3/Manager.sol:Manager",
        "label": "strategist",
        "offset": 0,
        "slot": "4",
        "type": "t_address"
      },
      {
        "astId": 11246,
        "contract": "contracts/v3/Manager.sol:Manager",
        "label": "pendingStrategist",
        "offset": 0,
        "slot": "5",
        "type": "t_address"
      },
      {
        "astId": 11249,
        "contract": "contracts/v3/Manager.sol:Manager",
        "label": "treasury",
        "offset": 0,
        "slot": "6",
        "type": "t_address"
      },
      {
        "astId": 11252,
        "contract": "contracts/v3/Manager.sol:Manager",
        "label": "insuranceFee",
        "offset": 0,
        "slot": "7",
        "type": "t_uint256"
      },
      {
        "astId": 11255,
        "contract": "contracts/v3/Manager.sol:Manager",
        "label": "insurancePoolFee",
        "offset": 0,
        "slot": "8",
        "type": "t_uint256"
      },
      {
        "astId": 11258,
        "contract": "contracts/v3/Manager.sol:Manager",
        "label": "stakingPoolShareFee",
        "offset": 0,
        "slot": "9",
        "type": "t_uint256"
      },
      {
        "astId": 11261,
        "contract": "contracts/v3/Manager.sol:Manager",
        "label": "treasuryFee",
        "offset": 0,
        "slot": "10",
        "type": "t_uint256"
      },
      {
        "astId": 11264,
        "contract": "contracts/v3/Manager.sol:Manager",
        "label": "withdrawalProtectionFee",
        "offset": 0,
        "slot": "11",
        "type": "t_uint256"
      },
      {
        "astId": 11266,
        "contract": "contracts/v3/Manager.sol:Manager",
        "label": "setPendingStrategistTime",
        "offset": 0,
        "slot": "12",
        "type": "t_uint256"
      },
      {
        "astId": 11271,
        "contract": "contracts/v3/Manager.sol:Manager",
        "label": "allowedControllers",
        "offset": 0,
        "slot": "13",
        "type": "t_mapping(t_address,t_bool)"
      },
      {
        "astId": 11276,
        "contract": "contracts/v3/Manager.sol:Manager",
        "label": "allowedConverters",
        "offset": 0,
        "slot": "14",
        "type": "t_mapping(t_address,t_bool)"
      },
      {
        "astId": 11281,
        "contract": "contracts/v3/Manager.sol:Manager",
        "label": "allowedStrategies",
        "offset": 0,
        "slot": "15",
        "type": "t_mapping(t_address,t_bool)"
      },
      {
        "astId": 11286,
        "contract": "contracts/v3/Manager.sol:Manager",
        "label": "allowedVaults",
        "offset": 0,
        "slot": "16",
        "type": "t_mapping(t_address,t_bool)"
      },
      {
        "astId": 11291,
        "contract": "contracts/v3/Manager.sol:Manager",
        "label": "controllers",
        "offset": 0,
        "slot": "17",
        "type": "t_mapping(t_address,t_address)"
      },
      {
        "astId": 11295,
        "contract": "contracts/v3/Manager.sol:Manager",
        "label": "tokens",
        "offset": 0,
        "slot": "18",
        "type": "t_mapping(t_address,t_address)"
      }
    ],
    "types": {
      "t_address": {
        "encoding": "inplace",
        "label": "address",
        "numberOfBytes": "20"
      },
      "t_bool": {
        "encoding": "inplace",
        "label": "bool",
        "numberOfBytes": "1"
      },
      "t_mapping(t_address,t_address)": {
        "encoding": "mapping",
        "key": "t_address",
        "label": "mapping(address => address)",
        "numberOfBytes": "32",
        "value": "t_address"
      },
      "t_mapping(t_address,t_bool)": {
        "encoding": "mapping",
        "key": "t_address",
        "label": "mapping(address => bool)",
        "numberOfBytes": "32",
        "value": "t_bool"
      },
      "t_uint256": {
        "encoding": "inplace",
        "label": "uint256",
        "numberOfBytes": "32"
      }
    }
  }
}