{
  "address": "0xBBF41480845969f6959b91b498058Ea737D2c62E",
  "abi": [
    {
      "inputs": [
        {
          "internalType": "contract IERC20",
          "name": "_token3CRV",
          "type": "address"
        },
        {
          "internalType": "contract IVaultManager",
          "name": "_vaultManager",
          "type": "address"
        }
      ],
      "stateMutability": "nonpayable",
      "type": "constructor"
    },
    {
      "inputs": [
        {
          "internalType": "contract IERC20",
          "name": "_token",
          "type": "address"
        },
        {
          "internalType": "address",
          "name": "_spender",
          "type": "address"
        },
        {
          "internalType": "uint256",
          "name": "_amount",
          "type": "uint256"
        }
      ],
      "name": "approveForSpender",
      "outputs": [],
      "stateMutability": "nonpayable",
      "type": "function"
    },
    {
      "inputs": [
        {
          "internalType": "uint256[3]",
          "name": "",
          "type": "uint256[3]"
        },
        {
          "internalType": "bool",
          "name": "",
          "type": "bool"
        }
      ],
      "name": "calc_token_amount",
      "outputs": [
        {
          "internalType": "uint256",
          "name": "",
          "type": "uint256"
        }
      ],
      "stateMutability": "view",
      "type": "function"
    },
    {
      "inputs": [
        {
          "internalType": "uint256",
          "name": "",
          "type": "uint256"
        },
        {
          "internalType": "address",
          "name": "",
          "type": "address"
        }
      ],
      "name": "calc_token_amount_withdraw",
      "outputs": [
        {
          "internalType": "uint256",
          "name": "",
          "type": "uint256"
        }
      ],
      "stateMutability": "view",
      "type": "function"
    },
    {
      "inputs": [
        {
          "internalType": "address",
          "name": "",
          "type": "address"
        },
        {
          "internalType": "address",
          "name": "",
          "type": "address"
        },
        {
          "internalType": "uint256",
          "name": "",
          "type": "uint256"
        }
      ],
      "name": "convert",
      "outputs": [
        {
          "internalType": "uint256",
          "name": "",
          "type": "uint256"
        }
      ],
      "stateMutability": "nonpayable",
      "type": "function"
    },
    {
      "inputs": [
        {
          "internalType": "address",
          "name": "",
          "type": "address"
        },
        {
          "internalType": "address",
          "name": "",
          "type": "address"
        },
        {
          "internalType": "uint256",
          "name": "",
          "type": "uint256"
        }
      ],
      "name": "convert_rate",
      "outputs": [
        {
          "internalType": "uint256",
          "name": "",
          "type": "uint256"
        }
      ],
      "stateMutability": "view",
      "type": "function"
    },
    {
      "inputs": [
        {
          "internalType": "uint256[3]",
          "name": "",
          "type": "uint256[3]"
        }
      ],
      "name": "convert_stables",
      "outputs": [
        {
          "internalType": "uint256",
          "name": "",
          "type": "uint256"
        }
      ],
      "stateMutability": "nonpayable",
      "type": "function"
    },
    {
      "inputs": [
        {
          "internalType": "contract IERC20",
          "name": "_token",
          "type": "address"
        },
        {
          "internalType": "uint256",
          "name": "_amount",
          "type": "uint256"
        },
        {
          "internalType": "address",
          "name": "_to",
          "type": "address"
        }
      ],
      "name": "governanceRecoverUnsupported",
      "outputs": [],
      "stateMutability": "nonpayable",
      "type": "function"
    },
    {
      "inputs": [
        {
          "internalType": "address",
          "name": "",
          "type": "address"
        },
        {
          "internalType": "bool",
          "name": "",
          "type": "bool"
        }
      ],
      "name": "setStrategy",
      "outputs": [],
      "stateMutability": "nonpayable",
      "type": "function"
    },
    {
      "inputs": [],
      "name": "token",
      "outputs": [
        {
          "internalType": "address",
          "name": "",
          "type": "address"
        }
      ],
      "stateMutability": "view",
      "type": "function"
    },
    {
      "inputs": [],
      "name": "token3CRV",
      "outputs": [
        {
          "internalType": "contract IERC20",
          "name": "",
          "type": "address"
        }
      ],
      "stateMutability": "view",
      "type": "function"
    },
    {
      "inputs": [],
      "name": "vaultManager",
      "outputs": [
        {
          "internalType": "contract IVaultManager",
          "name": "",
          "type": "address"
        }
      ],
      "stateMutability": "view",
      "type": "function"
    }
  ],
  "transactionHash": "0x0de975223a58a64c7168ece608f13a5ef2bf3252833cc3faceb113cd9c0a2612",
  "args": [
    "0xe8B85520e867679D630ad2274Ba1d82B42102646",
    "0x14442404194202daFBA6AED4Fe65423768aC249a"
  ],
  "solcInputHash": "ed02ffea74d81360ebf7246e8a46eb27",
  "bytecode": "0x60c060405234801561001057600080fd5b50604051610cd7380380610cd78339818101604052604081101561003357600080fd5b5080516020909101516001600160601b0319606092831b811660a052911b1660805260805160601c60a05160601c610c366100a16000398061041b5280610727525080610294528061030e52806103f7528061045d52806104d752806105c952806106435250610c366000f3fe608060405234801561001057600080fd5b50600436106100a95760003560e01c8063a488680f11610071578063a488680f14610175578063ae2841c71461017d578063b7b11c5e146101a9578063baa82a34146101c5578063ef9e2379146101f3578063fc0c546a14610229576100a9565b8063248391ff146100ae57806336cf893c146100ae5780633883e119146100f657806354575af4146101195780638a4adf2414610151575b600080fd5b6100e4600480360360608110156100c457600080fd5b506001600160a01b03813581169160208101359091169060400135610231565b60408051918252519081900360200190f35b6100e46004803603608081101561010c57600080fd5b5060608101351515610231565b61014f6004803603606081101561012f57600080fd5b506001600160a01b03813581169160208101359160409091013516610274565b005b6101596103f5565b604080516001600160a01b039092168252519081900360200190f35b610159610419565b6100e46004803603604081101561019357600080fd5b50803590602001356001600160a01b0316610231565b6100e4600480360360608110156101bf57600080fd5b50610231565b61014f600480360360408110156101db57600080fd5b506001600160a01b038135169060200135151561043d565b61014f6004803603606081101561020957600080fd5b506001600160a01b038135811691602081013590911690604001356105a9565b610159610725565b6040805162461bcd60e51b815260206004820152601160248201527013db9b1e480cd0d49588185b1b1bddd959607a1b6044820152905160009181900360640190fd5b60408051636d46114f60e11b815233600482015290516001600160a01b037f0000000000000000000000000000000000000000000000000000000000000000169163da8c229e916024808301926020929190829003018186803b1580156102da57600080fd5b505afa1580156102ee573d6000803e3d6000fd5b505050506040513d602081101561030457600080fd5b50518061039d57507f00000000000000000000000000000000000000000000000000000000000000006001600160a01b0316635aa6e6756040518163ffffffff1660e01b815260040160206040518083038186803b15801561036557600080fd5b505afa158015610379573d6000803e3d6000fd5b505050506040513d602081101561038f57600080fd5b50516001600160a01b031633145b6103dc576040805162461bcd60e51b815260206004820152600b60248201526a21676f7665726e616e636560a81b604482015290519081900360640190fd5b6103f06001600160a01b0384168284610749565b505050565b7f000000000000000000000000000000000000000000000000000000000000000081565b7f000000000000000000000000000000000000000000000000000000000000000081565b60408051636d46114f60e11b815233600482015290516001600160a01b037f0000000000000000000000000000000000000000000000000000000000000000169163da8c229e916024808301926020929190829003018186803b1580156104a357600080fd5b505afa1580156104b7573d6000803e3d6000fd5b505050506040513d60208110156104cd57600080fd5b50518061056657507f00000000000000000000000000000000000000000000000000000000000000006001600160a01b0316635aa6e6756040518163ffffffff1660e01b815260040160206040518083038186803b15801561052e57600080fd5b505afa158015610542573d6000803e3d6000fd5b505050506040513d602081101561055857600080fd5b50516001600160a01b031633145b6105a5576040805162461bcd60e51b815260206004820152600b60248201526a21676f7665726e616e636560a81b604482015290519081900360640190fd5b5050565b60408051636d46114f60e11b815233600482015290516001600160a01b037f0000000000000000000000000000000000000000000000000000000000000000169163da8c229e916024808301926020929190829003018186803b15801561060f57600080fd5b505afa158015610623573d6000803e3d6000fd5b505050506040513d602081101561063957600080fd5b5051806106d257507f00000000000000000000000000000000000000000000000000000000000000006001600160a01b0316635aa6e6756040518163ffffffff1660e01b815260040160206040518083038186803b15801561069a57600080fd5b505afa1580156106ae573d6000803e3d6000fd5b505050506040513d60208110156106c457600080fd5b50516001600160a01b031633145b610711576040805162461bcd60e51b815260206004820152600b60248201526a21676f7665726e616e636560a81b604482015290519081900360640190fd5b6103f06001600160a01b038416838361079b565b7f000000000000000000000000000000000000000000000000000000000000000090565b604080516001600160a01b038416602482015260448082018490528251808303909101815260649091019091526020810180516001600160e01b031663a9059cbb60e01b1790526103f09084906108aa565b801580610821575060408051636eb1769f60e11b81523060048201526001600160a01b03848116602483015291519185169163dd62ed3e91604480820192602092909190829003018186803b1580156107f357600080fd5b505afa158015610807573d6000803e3d6000fd5b505050506040513d602081101561081d57600080fd5b5051155b61085c5760405162461bcd60e51b8152600401808060200182810382526036815260200180610bcb6036913960400191505060405180910390fd5b604080516001600160a01b038416602482015260448082018490528251808303909101815260649091019091526020810180516001600160e01b031663095ea7b360e01b1790526103f09084905b60606108ff826040518060400160405280602081526020017f5361666545524332303a206c6f772d6c6576656c2063616c6c206661696c6564815250856001600160a01b031661095b9092919063ffffffff16565b8051909150156103f05780806020019051602081101561091e57600080fd5b50516103f05760405162461bcd60e51b815260040180806020018281038252602a815260200180610ba1602a913960400191505060405180910390fd5b606061096a8484600085610974565b90505b9392505050565b6060824710156109b55760405162461bcd60e51b8152600401808060200182810382526026815260200180610b7b6026913960400191505060405180910390fd5b6109be85610ad0565b610a0f576040805162461bcd60e51b815260206004820152601d60248201527f416464726573733a2063616c6c20746f206e6f6e2d636f6e7472616374000000604482015290519081900360640190fd5b60006060866001600160a01b031685876040518082805190602001908083835b60208310610a4e5780518252601f199092019160209182019101610a2f565b6001836020036101000a03801982511681845116808217855250505050505090500191505060006040518083038185875af1925050503d8060008114610ab0576040519150601f19603f3d011682016040523d82523d6000602084013e610ab5565b606091505b5091509150610ac5828286610ad6565b979650505050505050565b3b151590565b60608315610ae557508161096d565b825115610af55782518084602001fd5b8160405162461bcd60e51b81526004018080602001828103825283818151815260200191508051906020019080838360005b83811015610b3f578181015183820152602001610b27565b50505050905090810190601f168015610b6c5780820380516001836020036101000a031916815260200191505b509250505060405180910390fdfe416464726573733a20696e73756666696369656e742062616c616e636520666f722063616c6c5361666545524332303a204552433230206f7065726174696f6e20646964206e6f7420737563636565645361666545524332303a20617070726f76652066726f6d206e6f6e2d7a65726f20746f206e6f6e2d7a65726f20616c6c6f77616e6365a2646970667358221220c6b540bf67201b82e1713b2bbb48543f0e58e4d1e770c4d2223fc052df823f0c64736f6c634300060c0033",
  "devdoc": {
    "kind": "dev",
    "methods": {
      "approveForSpender(address,address,uint256)": {
        "params": {
          "_amount": "The amount to spend",
          "_spender": "The address of the spender",
          "_token": "The address of the token"
        }
      },
      "constructor": {
        "params": {
          "_token3CRV": "The address of the 3CRV token",
          "_vaultManager": "The address of the Vault Manager"
        }
      },
      "governanceRecoverUnsupported(address,uint256,address)": {
        "details": "This contract should never have any tokens in it at the end of a transaction",
        "params": {
          "_amount": "The amount to withdraw",
          "_to": "The address to receive the tokens",
          "_token": "The address of the token"
        }
      }
    },
    "title": "MetaVaultNonConverter (StableSwap3PoolConverter)",
    "version": 1
  },
  "userdoc": {
    "kind": "user",
    "methods": {
      "approveForSpender(address,address,uint256)": {
        "notice": "Called by Governance to approve a token address to be spent by an address"
      },
      "calc_token_amount(uint256[3],bool)": {
        "notice": "Checks the amount of 3CRV given for the amounts"
      },
      "calc_token_amount_withdraw(uint256,address)": {
        "notice": "Checks the amount of an output token given for 3CRV"
      },
      "convert(address,address,uint256)": {
        "notice": "Converts the amount of input tokens to output tokens"
      },
      "convert_rate(address,address,uint256)": {
        "notice": "Checks the amount of input tokens to output tokens"
      },
      "convert_stables(uint256[3])": {
        "notice": "Converts stables of the 3Pool to 3CRV"
      },
      "governanceRecoverUnsupported(address,uint256,address)": {
        "notice": "Allows Governance to withdraw tokens from the converter"
      },
      "setStrategy(address,bool)": {
        "notice": "Called by Governance to enable or disable a strategy to use the converter"
      },
      "token()": {
        "notice": "Returns the address of the 3CRV token"
      }
    },
    "notice": "The StableSwap3PoolConverter is used to convert funds on Curve's 3Pool. This is a safe version that does not allow the vault to be used for arbitrage.",
    "version": 1
  },
  "storageLayout": {
    "storage": [],
    "types": null
  }
}