{
  "address": "0x8352DD44F6e99b9e839BA256Dac8E2A55885F548",
  "abi": [
    {
      "inputs": [
        {
          "internalType": "contract IERC20",
          "name": "_tokenDAI",
          "type": "address"
        },
        {
          "internalType": "contract IERC20",
          "name": "_tokenUSDC",
          "type": "address"
        },
        {
          "internalType": "contract IERC20",
          "name": "_tokenUSDT",
          "type": "address"
        },
        {
          "internalType": "contract IERC20",
          "name": "_token3CRV",
          "type": "address"
        },
        {
          "internalType": "contract IERC20",
          "name": "_tokenYAX",
          "type": "address"
        },
        {
          "internalType": "uint256",
          "name": "_yaxPerBlock",
          "type": "uint256"
        },
        {
          "internalType": "uint256",
          "name": "_startBlock",
          "type": "uint256"
        }
      ],
      "stateMutability": "nonpayable",
      "type": "constructor"
    },
    {
      "anonymous": false,
      "inputs": [
        {
          "indexed": true,
          "internalType": "address",
          "name": "owner",
          "type": "address"
        },
        {
          "indexed": true,
          "internalType": "address",
          "name": "spender",
          "type": "address"
        },
        {
          "indexed": false,
          "internalType": "uint256",
          "name": "value",
          "type": "uint256"
        }
      ],
      "name": "Approval",
      "type": "event"
    },
    {
      "anonymous": false,
      "inputs": [
        {
          "indexed": true,
          "internalType": "address",
          "name": "user",
          "type": "address"
        },
        {
          "indexed": false,
          "internalType": "uint256",
          "name": "amount",
          "type": "uint256"
        }
      ],
      "name": "Deposit",
      "type": "event"
    },
    {
      "anonymous": false,
      "inputs": [
        {
          "indexed": true,
          "internalType": "address",
          "name": "user",
          "type": "address"
        },
        {
          "indexed": false,
          "internalType": "uint256",
          "name": "reward",
          "type": "uint256"
        }
      ],
      "name": "RewardPaid",
      "type": "event"
    },
    {
      "anonymous": false,
      "inputs": [
        {
          "indexed": true,
          "internalType": "address",
          "name": "from",
          "type": "address"
        },
        {
          "indexed": true,
          "internalType": "address",
          "name": "to",
          "type": "address"
        },
        {
          "indexed": false,
          "internalType": "uint256",
          "name": "value",
          "type": "uint256"
        }
      ],
      "name": "Transfer",
      "type": "event"
    },
    {
      "anonymous": false,
      "inputs": [
        {
          "indexed": true,
          "internalType": "address",
          "name": "user",
          "type": "address"
        },
        {
          "indexed": false,
          "internalType": "uint256",
          "name": "amount",
          "type": "uint256"
        }
      ],
      "name": "Withdraw",
      "type": "event"
    },
    {
      "inputs": [],
      "name": "BLOCKS_PER_WEEK",
      "outputs": [
        {
          "internalType": "uint256",
          "name": "",
          "type": "uint256"
        }
      ],
      "stateMutability": "view",
      "type": "function"
    },
    {
      "inputs": [],
      "name": "accYaxPerShare",
      "outputs": [
        {
          "internalType": "uint256",
          "name": "",
          "type": "uint256"
        }
      ],
      "stateMutability": "view",
      "type": "function"
    },
    {
      "inputs": [],
      "name": "acceptContractDepositor",
      "outputs": [
        {
          "internalType": "bool",
          "name": "",
          "type": "bool"
        }
      ],
      "stateMutability": "view",
      "type": "function"
    },
    {
      "inputs": [
        {
          "internalType": "address",
          "name": "owner",
          "type": "address"
        },
        {
          "internalType": "address",
          "name": "spender",
          "type": "address"
        }
      ],
      "name": "allowance",
      "outputs": [
        {
          "internalType": "uint256",
          "name": "",
          "type": "uint256"
        }
      ],
      "stateMutability": "view",
      "type": "function"
    },
    {
      "inputs": [
        {
          "internalType": "address",
          "name": "spender",
          "type": "address"
        },
        {
          "internalType": "uint256",
          "name": "amount",
          "type": "uint256"
        }
      ],
      "name": "approve",
      "outputs": [
        {
          "internalType": "bool",
          "name": "",
          "type": "bool"
        }
      ],
      "stateMutability": "nonpayable",
      "type": "function"
    },
    {
      "inputs": [],
      "name": "available",
      "outputs": [
        {
          "internalType": "uint256",
          "name": "",
          "type": "uint256"
        }
      ],
      "stateMutability": "view",
      "type": "function"
    },
    {
      "inputs": [],
      "name": "balance",
      "outputs": [
        {
          "internalType": "uint256",
          "name": "",
          "type": "uint256"
        }
      ],
      "stateMutability": "view",
      "type": "function"
    },
    {
      "inputs": [
        {
          "internalType": "address",
          "name": "account",
          "type": "address"
        }
      ],
      "name": "balanceOf",
      "outputs": [
        {
          "internalType": "uint256",
          "name": "",
          "type": "uint256"
        }
      ],
      "stateMutability": "view",
      "type": "function"
    },
    {
      "inputs": [
        {
          "internalType": "uint256[3]",
          "name": "amounts",
          "type": "uint256[3]"
        }
      ],
      "name": "calc_token_amount_deposit",
      "outputs": [
        {
          "internalType": "uint256",
          "name": "",
          "type": "uint256"
        }
      ],
      "stateMutability": "view",
      "type": "function"
    },
    {
      "inputs": [
        {
          "internalType": "uint256",
          "name": "_shares",
          "type": "uint256"
        },
        {
          "internalType": "address",
          "name": "_output",
          "type": "address"
        }
      ],
      "name": "calc_token_amount_withdraw",
      "outputs": [
        {
          "internalType": "uint256",
          "name": "",
          "type": "uint256"
        }
      ],
      "stateMutability": "view",
      "type": "function"
    },
    {
      "inputs": [],
      "name": "claimInsurance",
      "outputs": [],
      "stateMutability": "nonpayable",
      "type": "function"
    },
    {
      "inputs": [],
      "name": "controller",
      "outputs": [
        {
          "internalType": "address",
          "name": "",
          "type": "address"
        }
      ],
      "stateMutability": "view",
      "type": "function"
    },
    {
      "inputs": [
        {
          "internalType": "address",
          "name": "_input",
          "type": "address"
        },
        {
          "internalType": "uint256",
          "name": "_amount",
          "type": "uint256"
        }
      ],
      "name": "convert_rate",
      "outputs": [
        {
          "internalType": "uint256",
          "name": "",
          "type": "uint256"
        }
      ],
      "stateMutability": "view",
      "type": "function"
    },
    {
      "inputs": [],
      "name": "converter",
      "outputs": [
        {
          "internalType": "contract IConverter",
          "name": "",
          "type": "address"
        }
      ],
      "stateMutability": "view",
      "type": "function"
    },
    {
      "inputs": [],
      "name": "decimals",
      "outputs": [
        {
          "internalType": "uint8",
          "name": "",
          "type": "uint8"
        }
      ],
      "stateMutability": "view",
      "type": "function"
    },
    {
      "inputs": [
        {
          "internalType": "address",
          "name": "spender",
          "type": "address"
        },
        {
          "internalType": "uint256",
          "name": "subtractedValue",
          "type": "uint256"
        }
      ],
      "name": "decreaseAllowance",
      "outputs": [
        {
          "internalType": "bool",
          "name": "",
          "type": "bool"
        }
      ],
      "stateMutability": "nonpayable",
      "type": "function"
    },
    {
      "inputs": [
        {
          "internalType": "uint256",
          "name": "_amount",
          "type": "uint256"
        },
        {
          "internalType": "address",
          "name": "_input",
          "type": "address"
        },
        {
          "internalType": "uint256",
          "name": "_min_mint_amount",
          "type": "uint256"
        },
        {
          "internalType": "bool",
          "name": "_isStake",
          "type": "bool"
        }
      ],
      "name": "deposit",
      "outputs": [],
      "stateMutability": "nonpayable",
      "type": "function"
    },
    {
      "inputs": [
        {
          "internalType": "uint256[4]",
          "name": "_amounts",
          "type": "uint256[4]"
        },
        {
          "internalType": "uint256",
          "name": "_min_mint_amount",
          "type": "uint256"
        },
        {
          "internalType": "bool",
          "name": "_isStake",
          "type": "bool"
        }
      ],
      "name": "depositAll",
      "outputs": [],
      "stateMutability": "nonpayable",
      "type": "function"
    },
    {
      "inputs": [],
      "name": "earn",
      "outputs": [],
      "stateMutability": "nonpayable",
      "type": "function"
    },
    {
      "inputs": [
        {
          "internalType": "address",
          "name": "_token",
          "type": "address"
        }
      ],
      "name": "earnExtra",
      "outputs": [],
      "stateMutability": "nonpayable",
      "type": "function"
    },
    {
      "inputs": [],
      "name": "earnLowerlimit",
      "outputs": [
        {
          "internalType": "uint256",
          "name": "",
          "type": "uint256"
        }
      ],
      "stateMutability": "view",
      "type": "function"
    },
    {
      "inputs": [
        {
          "internalType": "uint256",
          "name": "",
          "type": "uint256"
        }
      ],
      "name": "epochEndBlocks",
      "outputs": [
        {
          "internalType": "uint256",
          "name": "",
          "type": "uint256"
        }
      ],
      "stateMutability": "view",
      "type": "function"
    },
    {
      "inputs": [
        {
          "internalType": "uint256",
          "name": "",
          "type": "uint256"
        }
      ],
      "name": "epochRewardMultiplers",
      "outputs": [
        {
          "internalType": "uint256",
          "name": "",
          "type": "uint256"
        }
      ],
      "stateMutability": "view",
      "type": "function"
    },
    {
      "inputs": [
        {
          "internalType": "uint256",
          "name": "_from",
          "type": "uint256"
        },
        {
          "internalType": "uint256",
          "name": "_to",
          "type": "uint256"
        }
      ],
      "name": "getMultiplier",
      "outputs": [
        {
          "internalType": "uint256",
          "name": "",
          "type": "uint256"
        }
      ],
      "stateMutability": "view",
      "type": "function"
    },
    {
      "inputs": [],
      "name": "getPricePerFullShare",
      "outputs": [
        {
          "internalType": "uint256",
          "name": "",
          "type": "uint256"
        }
      ],
      "stateMutability": "view",
      "type": "function"
    },
    {
      "inputs": [],
      "name": "governance",
      "outputs": [
        {
          "internalType": "address",
          "name": "",
          "type": "address"
        }
      ],
      "stateMutability": "view",
      "type": "function"
    },
    {
      "inputs": [
        {
          "internalType": "address",
          "name": "reserve",
          "type": "address"
        },
        {
          "internalType": "uint256",
          "name": "amount",
          "type": "uint256"
        }
      ],
      "name": "harvest",
      "outputs": [],
      "stateMutability": "nonpayable",
      "type": "function"
    },
    {
      "inputs": [
        {
          "internalType": "address",
          "name": "spender",
          "type": "address"
        },
        {
          "internalType": "uint256",
          "name": "addedValue",
          "type": "uint256"
        }
      ],
      "name": "increaseAllowance",
      "outputs": [
        {
          "internalType": "bool",
          "name": "",
          "type": "bool"
        }
      ],
      "stateMutability": "nonpayable",
      "type": "function"
    },
    {
      "inputs": [
        {
          "internalType": "uint256",
          "name": "",
          "type": "uint256"
        }
      ],
      "name": "inputTokens",
      "outputs": [
        {
          "internalType": "contract IERC20",
          "name": "",
          "type": "address"
        }
      ],
      "stateMutability": "view",
      "type": "function"
    },
    {
      "inputs": [],
      "name": "insurance",
      "outputs": [
        {
          "internalType": "uint256",
          "name": "",
          "type": "uint256"
        }
      ],
      "stateMutability": "view",
      "type": "function"
    },
    {
      "inputs": [],
      "name": "lastRewardBlock",
      "outputs": [
        {
          "internalType": "uint256",
          "name": "",
          "type": "uint256"
        }
      ],
      "stateMutability": "view",
      "type": "function"
    },
    {
      "inputs": [],
      "name": "max",
      "outputs": [
        {
          "internalType": "uint256",
          "name": "",
          "type": "uint256"
        }
      ],
      "stateMutability": "view",
      "type": "function"
    },
    {
      "inputs": [],
      "name": "min",
      "outputs": [
        {
          "internalType": "uint256",
          "name": "",
          "type": "uint256"
        }
      ],
      "stateMutability": "view",
      "type": "function"
    },
    {
      "inputs": [],
      "name": "name",
      "outputs": [
        {
          "internalType": "string",
          "name": "",
          "type": "string"
        }
      ],
      "stateMutability": "view",
      "type": "function"
    },
    {
      "inputs": [
        {
          "internalType": "address",
          "name": "_account",
          "type": "address"
        }
      ],
      "name": "pendingYax",
      "outputs": [
        {
          "internalType": "uint256",
          "name": "_pending",
          "type": "uint256"
        }
      ],
      "stateMutability": "view",
      "type": "function"
    },
    {
      "inputs": [
        {
          "internalType": "bool",
          "name": "_acceptContractDepositor",
          "type": "bool"
        }
      ],
      "name": "setAcceptContractDepositor",
      "outputs": [],
      "stateMutability": "nonpayable",
      "type": "function"
    },
    {
      "inputs": [
        {
          "internalType": "address",
          "name": "_controller",
          "type": "address"
        }
      ],
      "name": "setController",
      "outputs": [],
      "stateMutability": "nonpayable",
      "type": "function"
    },
    {
      "inputs": [
        {
          "internalType": "contract IConverter",
          "name": "_converter",
          "type": "address"
        }
      ],
      "name": "setConverter",
      "outputs": [],
      "stateMutability": "nonpayable",
      "type": "function"
    },
    {
      "inputs": [
        {
          "internalType": "uint256",
          "name": "_earnLowerlimit",
          "type": "uint256"
        }
      ],
      "name": "setEarnLowerlimit",
      "outputs": [],
      "stateMutability": "nonpayable",
      "type": "function"
    },
    {
      "inputs": [
        {
          "internalType": "uint8",
          "name": "_index",
          "type": "uint8"
        },
        {
          "internalType": "uint256",
          "name": "_epochEndBlock",
          "type": "uint256"
        }
      ],
      "name": "setEpochEndBlock",
      "outputs": [],
      "stateMutability": "nonpayable",
      "type": "function"
    },
    {
      "inputs": [
        {
          "internalType": "uint8",
          "name": "_index",
          "type": "uint8"
        },
        {
          "internalType": "uint256",
          "name": "_epochRewardMultipler",
          "type": "uint256"
        }
      ],
      "name": "setEpochRewardMultipler",
      "outputs": [],
      "stateMutability": "nonpayable",
      "type": "function"
    },
    {
      "inputs": [
        {
          "internalType": "address",
          "name": "_governance",
          "type": "address"
        }
      ],
      "name": "setGovernance",
      "outputs": [],
      "stateMutability": "nonpayable",
      "type": "function"
    },
    {
      "inputs": [
        {
          "internalType": "uint256",
          "name": "_min",
          "type": "uint256"
        }
      ],
      "name": "setMin",
      "outputs": [],
      "stateMutability": "nonpayable",
      "type": "function"
    },
    {
      "inputs": [
        {
          "internalType": "uint256",
          "name": "_totalDepositCap",
          "type": "uint256"
        }
      ],
      "name": "setTotalDepositCap",
      "outputs": [],
      "stateMutability": "nonpayable",
      "type": "function"
    },
    {
      "inputs": [
        {
          "internalType": "address",
          "name": "_treasuryWallet",
          "type": "address"
        }
      ],
      "name": "setTreasuryWallet",
      "outputs": [],
      "stateMutability": "nonpayable",
      "type": "function"
    },
    {
      "inputs": [
        {
          "internalType": "contract IVaultManager",
          "name": "_vaultManager",
          "type": "address"
        }
      ],
      "name": "setVaultManager",
      "outputs": [],
      "stateMutability": "nonpayable",
      "type": "function"
    },
    {
      "inputs": [
        {
          "internalType": "uint256",
          "name": "_yaxPerBlock",
          "type": "uint256"
        }
      ],
      "name": "setYaxPerBlock",
      "outputs": [],
      "stateMutability": "nonpayable",
      "type": "function"
    },
    {
      "inputs": [
        {
          "internalType": "uint256",
          "name": "_shares",
          "type": "uint256"
        }
      ],
      "name": "stakeShares",
      "outputs": [],
      "stateMutability": "nonpayable",
      "type": "function"
    },
    {
      "inputs": [],
      "name": "symbol",
      "outputs": [
        {
          "internalType": "string",
          "name": "",
          "type": "string"
        }
      ],
      "stateMutability": "view",
      "type": "function"
    },
    {
      "inputs": [],
      "name": "token",
      "outputs": [
        {
          "internalType": "address",
          "name": "",
          "type": "address"
        }
      ],
      "stateMutability": "view",
      "type": "function"
    },
    {
      "inputs": [],
      "name": "token3CRV",
      "outputs": [
        {
          "internalType": "contract IERC20",
          "name": "",
          "type": "address"
        }
      ],
      "stateMutability": "view",
      "type": "function"
    },
    {
      "inputs": [],
      "name": "tokenYAX",
      "outputs": [
        {
          "internalType": "contract IERC20",
          "name": "",
          "type": "address"
        }
      ],
      "stateMutability": "view",
      "type": "function"
    },
    {
      "inputs": [],
      "name": "totalDepositCap",
      "outputs": [
        {
          "internalType": "uint256",
          "name": "",
          "type": "uint256"
        }
      ],
      "stateMutability": "view",
      "type": "function"
    },
    {
      "inputs": [],
      "name": "totalSupply",
      "outputs": [
        {
          "internalType": "uint256",
          "name": "",
          "type": "uint256"
        }
      ],
      "stateMutability": "view",
      "type": "function"
    },
    {
      "inputs": [
        {
          "internalType": "address",
          "name": "recipient",
          "type": "address"
        },
        {
          "internalType": "uint256",
          "name": "amount",
          "type": "uint256"
        }
      ],
      "name": "transfer",
      "outputs": [
        {
          "internalType": "bool",
          "name": "",
          "type": "bool"
        }
      ],
      "stateMutability": "nonpayable",
      "type": "function"
    },
    {
      "inputs": [
        {
          "internalType": "address",
          "name": "sender",
          "type": "address"
        },
        {
          "internalType": "address",
          "name": "recipient",
          "type": "address"
        },
        {
          "internalType": "uint256",
          "name": "amount",
          "type": "uint256"
        }
      ],
      "name": "transferFrom",
      "outputs": [
        {
          "internalType": "bool",
          "name": "",
          "type": "bool"
        }
      ],
      "stateMutability": "nonpayable",
      "type": "function"
    },
    {
      "inputs": [],
      "name": "treasuryWallet",
      "outputs": [
        {
          "internalType": "address",
          "name": "",
          "type": "address"
        }
      ],
      "stateMutability": "view",
      "type": "function"
    },
    {
      "inputs": [
        {
          "internalType": "uint256",
          "name": "_amount",
          "type": "uint256"
        }
      ],
      "name": "unstake",
      "outputs": [],
      "stateMutability": "nonpayable",
      "type": "function"
    },
    {
      "inputs": [],
      "name": "updateReward",
      "outputs": [],
      "stateMutability": "nonpayable",
      "type": "function"
    },
    {
      "inputs": [
        {
          "internalType": "address",
          "name": "",
          "type": "address"
        }
      ],
      "name": "userInfo",
      "outputs": [
        {
          "internalType": "uint256",
          "name": "amount",
          "type": "uint256"
        },
        {
          "internalType": "uint256",
          "name": "yaxRewardDebt",
          "type": "uint256"
        },
        {
          "internalType": "uint256",
          "name": "accEarned",
          "type": "uint256"
        }
      ],
      "stateMutability": "view",
      "type": "function"
    },
    {
      "inputs": [],
      "name": "vaultManager",
      "outputs": [
        {
          "internalType": "contract IVaultManager",
          "name": "",
          "type": "address"
        }
      ],
      "stateMutability": "view",
      "type": "function"
    },
    {
      "inputs": [],
      "name": "want",
      "outputs": [
        {
          "internalType": "address",
          "name": "",
          "type": "address"
        }
      ],
      "stateMutability": "view",
      "type": "function"
    },
    {
      "inputs": [
        {
          "internalType": "uint256",
          "name": "_shares",
          "type": "uint256"
        },
        {
          "internalType": "address",
          "name": "_output",
          "type": "address"
        }
      ],
      "name": "withdraw",
      "outputs": [],
      "stateMutability": "nonpayable",
      "type": "function"
    },
    {
      "inputs": [
        {
          "internalType": "address",
          "name": "_output",
          "type": "address"
        }
      ],
      "name": "withdrawAll",
      "outputs": [],
      "stateMutability": "nonpayable",
      "type": "function"
    },
    {
      "inputs": [
        {
          "internalType": "uint256",
          "name": "_amount",
          "type": "uint256"
        }
      ],
      "name": "withdrawFee",
      "outputs": [
        {
          "internalType": "uint256",
          "name": "",
          "type": "uint256"
        }
      ],
      "stateMutability": "view",
      "type": "function"
    },
    {
      "inputs": [],
      "name": "yaxPerBlock",
      "outputs": [
        {
          "internalType": "uint256",
          "name": "",
          "type": "uint256"
        }
      ],
      "stateMutability": "view",
      "type": "function"
    }
  ],
  "transactionHash": "0xc7d8d84e6e75831b9db89eb5c4a6c46dac4ba4367fa5e131a47205a295e6e4f6",
  "args": [
    "0xC0a481836275b8e622340F96F0227690A6e046ce",
    "0xf1829827c98bE17d2727AE161e8126e71472906e",
    "0xB30F73a2b1854aE4dDAECE6c813526fc60cFcB58",
    "0xebB086C43a9a85053E5d4c88715D765bEcD390F2",
    "0xF4016C6D5446219829Eed0008621B454818CB2F3",
    "10000000000000",
    1
  ],
  "solcInputHash": "beaf38c0c269bea5e46376d38ac13e9b",
  "bytecode": "0x61251c600c55674563918244f40000600d556a084595161401484a000000600e556013805460ff60a01b19169055601880546001600160a01b03191673362db1c17db4c79b51fe6ad2d73165b1fe9bab4a17905561014060405262014ff0608090815261fa0060a05261a7f860c05261520860e052612710610100526001610120526200009190601e90600662000248565b503480156200009f57600080fd5b506040516200445638038062004456833981810160405260e0811015620000c557600080fd5b5080516020808301516040808501516060860151608087015160a088015160c09098015184518086018652601781527f79417869732e696f3a4d6574615661756c743a33435256000000000000000000818901908152865180880190975260048752631355931560e21b9887019890985280519899969894979396929592949193909291620001579160039162000292565b5080516200016d90600490602084019062000292565b50506005805460ff1916601217905550600680546001600160a01b03199081166001600160a01b038a811691909117909255600780548216898416179055600880548216888416179055600980548216878416908117909155600a805483169091179055600b80549091169185169190911790556016829055438111620001f55743620001f7565b805b601481905562016b4881016019556202d6908101601a556205ad208101601b55620b5a408101601c556211076001601d555050600f80546001600160a01b03191633179055506200031c9350505050565b826006810192821562000280579160200282015b8281111562000280578251829062ffffff169055916020019190600101906200025c565b506200028e92915062000305565b5090565b828054600181600116156101000203166002900490600052602060002090601f016020900481019282601f10620002d557805160ff191683800117855562000280565b8280016001018555821562000280579182015b8281111562000280578251825591602001919060010190620002e8565b5b808211156200028e576000815560010162000306565b61412a806200032c6000396000f3fe608060405234801561001057600080fd5b50600436106103e55760003560e01c80638e087c781161020a578063b69ef8a811610125578063dfc1e7d6116100b8578063f889794511610087578063f889794514610ac9578063f88e12f914610ad1578063fa09e63014610af7578063fc0c546a14610620578063fc47e20914610b1d576103e5565b8063dfc1e7d614610a7f578063ebbf5c1714610a9c578063f36c0a7214610ab9578063f77c479114610ac1576103e5565b8063c33c4475116100f4578063c33c447514610a25578063ceae909d14610a2d578063d389800f14610a49578063dd62ed3e14610a51576103e5565b8063b69ef8a8146109f0578063b774e0c3146109f8578063bd38837b14610a00578063be35761614610a08576103e5565b8063a75ac6081161019d578063ab033ea91161016c578063ab033ea914610952578063ae2841c714610978578063b19337a4146109a4578063b543503e146109ca576103e5565b8063a75ac608146108f0578063a8602fea146108f8578063a9059cbb1461091e578063a9f8d1811461094a576103e5565b806399be90dc116101d957806399be90dc1461088e578063a3d7c749146108b4578063a457c2d7146108bc578063a488680f146108e8576103e5565b80638e087c781461083b578063909d3f4c1461084357806392eefe9b1461086057806395d89b4114610886576103e5565b8063395093511161030557806367f4527e1161029857806370cf7f6f1161026757806370cf7f6f146107da57806377c7b8fc1461080057806389cf3204146108085780638a4adf24146108105780638dbb1e3a14610818576103e5565b806367f4527e146107855780636ac5db191461078d578063706557c01461079557806370a08231146107b4576103e5565b806348a0d754116102d457806348a0d75414610750578063569c426b146107585780635aa6e675146107755780635db88e851461077d576103e5565b806339509351146106e25780633fd500011461070e57806345dc3dd81461072b5780634626402b14610748576103e5565b806318160ddd1161037d5780632e17de781161034c5780632e17de781461065e578063313ce5671461067b57806336ef5eb41461069957806338b7f2cb146106b6576103e5565b806318160ddd146105c25780631959a002146105dc5780631f1fcd511461062057806323b872dd14610628576103e5565b8063095ea7b3116103b9578063095ea7b3146104fb5780630cc9fff31461053b5780630edc63dc146105635780631494f1d71461059c576103e5565b8062f714ce146103ea578063018ee9b71461041857806306aaa1c81461044457806306fdde031461047e575b600080fd5b6104166004803603604081101561040057600080fd5b50803590602001356001600160a01b0316610b25565b005b6104166004803603604081101561042e57600080fd5b506001600160a01b038135169060200135611011565b6104166004803603608081101561045a57600080fd5b508035906001600160a01b03602082013516906040810135906060013515156110cb565b6104866114d8565b6040805160208082528351818301528351919283929083019185019080838360005b838110156104c05781810151838201526020016104a8565b50505050905090810190601f1680156104ed5780820380516001836020036101000a031916815260200191505b509250505060405180910390f35b6105276004803603604081101561051157600080fd5b506001600160a01b03813516906020013561156e565b604080519115158252519081900360200190f35b610416600480360360c081101561055157600080fd5b50608081013560a0820135151561158c565b6105806004803603602081101561057957600080fd5b50356119f2565b604080516001600160a01b039092168252519081900360200190f35b610416600480360360408110156105b257600080fd5b5060ff8135169060200135611a0f565b6105ca611b64565b60408051918252519081900360200190f35b610602600480360360208110156105f257600080fd5b50356001600160a01b0316611b6a565b60408051938452602084019290925282820152519081900360600190f35b610580611b8b565b6105276004803603606081101561063e57600080fd5b506001600160a01b03813581169160208101359091169060400135611b9a565b6104166004803603602081101561067457600080fd5b5035611c22565b610683611d6c565b6040805160ff9092168252519081900360200190f35b610416600480360360208110156106af57600080fd5b5035611d75565b6105ca600480360360408110156106cc57600080fd5b506001600160a01b038135169060200135611dcf565b610527600480360360408110156106f857600080fd5b506001600160a01b038135169060200135611e65565b6105ca6004803603602081101561072457600080fd5b5035611eb3565b6104166004803603602081101561074157600080fd5b5035611ec7565b610580611f19565b6105ca611f28565b6104166004803603602081101561076e57600080fd5b5035611fbc565b61058061206d565b6105ca61207c565b610580612082565b6105ca612091565b610416600480360360208110156107ab57600080fd5b50351515612097565b6105ca600480360360208110156107ca57600080fd5b50356001600160a01b0316612102565b610416600480360360408110156107f057600080fd5b5060ff813516906020013561211d565b6105ca612234565b6105ca612255565b61058061225b565b6105ca6004803603604081101561082e57600080fd5b508035906020013561226a565b6105ca61241a565b6104166004803603602081101561085957600080fd5b5035612420565b6104166004803603602081101561087657600080fd5b50356001600160a01b0316612472565b6104866124e1565b610416600480360360208110156108a457600080fd5b50356001600160a01b0316612542565b610527612814565b610527600480360360408110156108d257600080fd5b506001600160a01b038135169060200135612824565b61058061288c565b61041661289b565b6104166004803603602081101561090e57600080fd5b50356001600160a01b0316612922565b6105276004803603604081101561093457600080fd5b506001600160a01b038135169060200135612991565b6105ca6129a5565b6104166004803603602081101561096857600080fd5b50356001600160a01b03166129ab565b6105ca6004803603604081101561098e57600080fd5b50803590602001356001600160a01b0316612a1a565b610416600480360360208110156109ba57600080fd5b50356001600160a01b0316612b07565b610416600480360360208110156109e057600080fd5b50356001600160a01b0316612c31565b6105ca612ca0565b6105ca612dcf565b610580612dd5565b6105ca60048036036020811015610a1e57600080fd5b5035612de4565b6105ca612e88565b6105ca60048036036060811015610a4357600080fd5b50612e8e565b610416612f2d565b6105ca60048036036040811015610a6757600080fd5b506001600160a01b038135811691602001351661304c565b6105ca60048036036020811015610a9557600080fd5b5035613077565b61041660048036036020811015610ab257600080fd5b5035613084565b6104166130d6565b610580613149565b6105ca613158565b6105ca60048036036020811015610ae757600080fd5b50356001600160a01b031661315e565b61041660048036036020811015610b0d57600080fd5b50356001600160a01b031661320a565b6105ca613235565b6000610b3033612102565b905080831115610bb8576000610b46848361323b565b33600090815260176020526040902054909150811115610bad576040805162461bcd60e51b815260206004820152601960248201527f5f7573657242616c2b7374616b6564203c205f73686172657300000000000000604482015290519081900360640190fd5b610bb681611c22565b505b6000610bdd610bc5611b64565b610bd786610bd1612ca0565b9061327d565b906132d6565b9050610be93385613318565b6012546001600160a01b031615610c975760125460408051638251390960e01b815290516000926001600160a01b0316916382513909916004808301926020929190829003018186803b158015610c3f57600080fd5b505afa158015610c53573d6000803e3d6000fd5b505050506040513d6020811015610c6957600080fd5b505190508015610c95576000610c85612710610bd7858561327d565b9050610c91838261323b565b9250505b505b600a54604080516370a0823160e01b815230600482015290516000926001600160a01b0316916370a08231916024808301926020929190829003018186803b158015610ce257600080fd5b505afa158015610cf6573d6000803e3d6000fd5b505050506040513d6020811015610d0c57600080fd5b5051905081811015610e49576000610d24838361323b565b6010549091506001600160a01b031615610da957601054600a546040805163f3fef3a360e01b81526001600160a01b039283166004820152602481018590529051919092169163f3fef3a391604480830192600092919082900301818387803b158015610d9057600080fd5b505af1158015610da4573d6000803e3d6000fd5b505050505b600a54604080516370a0823160e01b815230600482015290516000926001600160a01b0316916370a08231916024808301926020929190829003018186803b158015610df457600080fd5b505afa158015610e08573d6000803e3d6000fd5b505050506040513d6020811015610e1e57600080fd5b505190506000610e2e828561323b565b905082811015610e4557610e428482613414565b94505b5050505b600a546001600160a01b0385811691161415610e7b57600a54610e76906001600160a01b0316338461346e565b61100a565b601354600a5460408051630db3e24f60e21b81526001600160a01b039283166004820152878316602482015260448101869052905160009392909216916336cf893c91606480820192602092909190829003018186803b158015610ede57600080fd5b505afa158015610ef2573d6000803e3d6000fd5b505050506040513d6020811015610f0857600080fd5b505111610f45576040805162461bcd60e51b81526020600482015260066024820152650726174653d360d41b604482015290519081900360640190fd5b601354600a54610f62916001600160a01b0391821691168461346e565b601354600a546040805163248391ff60e01b81526001600160a01b0392831660048201528783166024820152604481018690529051600093929092169163248391ff9160648082019260209290919082900301818787803b158015610fc657600080fd5b505af1158015610fda573d6000803e3d6000fd5b505050506040513d6020811015610ff057600080fd5b505190506110086001600160a01b038616338361346e565b505b5050505050565b6010546001600160a01b0316331461105e576040805162461bcd60e51b815260206004820152600b60248201526a10b1b7b73a3937b63632b960a91b604482015290519081900360640190fd5b600a546001600160a01b03838116911614156110ad576040805162461bcd60e51b81526020600482015260096024820152683a37b5b2b719a1a92b60b91b604482015290519081900360640190fd5b6010546110c7906001600160a01b0384811691168361346e565b5050565b601354600160a01b900460ff16611142576110e5336134c0565b1580156110f157503332145b611142576040805162461bcd60e51b815260206004820181905260248201527f536f72727920776520646f206e6f742061636365707420636f6e747261637421604482015290519081900360640190fd5b60008411611182576040805162461bcd60e51b81526020600482015260086024820152670857d85b5bdd5b9d60c21b604482015290519081900360640190fd5b600061118c612ca0565b600a54604080516370a0823160e01b815230600482015290519293506000926001600160a01b03909216916370a0823191602480820192602092909190829003018186803b1580156111dd57600080fd5b505afa1580156111f1573d6000803e3d6000fd5b505050506040513d602081101561120757600080fd5b5051600a549091506001600160a01b038681169116141561123f57600a5461123a906001600160a01b03163330896134c6565b61137e565b601354600a5460408051630db3e24f60e21b81526001600160a01b0389811660048301529283166024820152604481018a9052905160009392909216916336cf893c91606480820192602092909190829003018186803b1580156112a257600080fd5b505afa1580156112b6573d6000803e3d6000fd5b505050506040513d60208110156112cc57600080fd5b5051111561137e576013546112f0906001600160a01b0387811691339116896134c6565b601354600a546040805163248391ff60e01b81526001600160a01b0389811660048301529283166024820152604481018a90529051919092169163248391ff9160648083019260209291908290030181600087803b15801561135157600080fd5b505af1158015611365573d6000803e3d6000fd5b505050506040513d602081101561137b57600080fd5b50505b600a54604080516370a0823160e01b815230600482015290516000926001600160a01b0316916370a08231916024808301926020929190829003018186803b1580156113c957600080fd5b505afa1580156113dd573d6000803e3d6000fd5b505050506040513d60208110156113f357600080fd5b5051600e5490915015806114095750600e548111155b61144d576040805162461bcd60e51b815260206004820152601060248201526f03e746f74616c4465706f7369744361760841b604482015290519081900360640190fd5b611457818361323b565b965084871015611499576040805162461bcd60e51b8152602060048201526008602482015267736c69707061676560c01b604482015290519081900360640190fd5b86156114cf57836114b5576114af338489613520565b506114cf565b60006114c230858a613520565b90506114cd816136a6565b505b50505050505050565b60038054604080516020601f60026000196101006001881615020190951694909404938401819004810282018101909252828152606093909290918301828280156115645780601f1061153957610100808354040283529160200191611564565b820191906000526020600020905b81548152906001019060200180831161154757829003601f168201915b5050505050905090565b600061158261157b61372b565b848461372f565b5060015b92915050565b601354600160a01b900460ff16611603576115a6336134c0565b1580156115b257503332145b611603576040805162461bcd60e51b815260206004820181905260248201527f536f72727920776520646f206e6f742061636365707420636f6e747261637421604482015290519081900360640190fd5b600061160d612ca0565b600a54604080516370a0823160e01b815230600482015290519293506000926001600160a01b03909216916370a0823191602480820192602092909190829003018186803b15801561165e57600080fd5b505afa158015611672573d6000803e3d6000fd5b505050506040513d602081101561168857600080fd5b505190506000805b60048160ff1610156117d5576000878260ff16600481106116ad57fe5b6020020135905080156117cc578160ff16600314156116f4576116ef33308360068660ff16600481106116dc57fe5b01546001600160a01b03169291906134c6565b6117cc565b6013546000906001600160a01b03166336cf893c600660ff86166004811061171857fe5b0154600a546040805160e085901b6001600160e01b03191681526001600160a01b03938416600482015292909116602483015260448201869052516064808301926020929190829003018186803b15801561177257600080fd5b505afa158015611786573d6000803e3d6000fd5b505050506040513d602081101561179c57600080fd5b505111156117cc576013546117c79033906001600160a01b031683600660ff8716600481106116dc57fe5b600192505b50600101611690565b508015611896576117e4613f21565b8635815260208088013590820152604080880135818301526013549051635bd88e2f60e11b81526001600160a01b039091169063b7b11c5e9083906004018082606080838360005b8381101561184457818101518382015260200161182c565b50505050905001915050602060405180830381600087803b15801561186857600080fd5b505af115801561187c573d6000803e3d6000fd5b505050506040513d602081101561189257600080fd5b5050505b600a54604080516370a0823160e01b815230600482015290516000926001600160a01b0316916370a08231916024808301926020929190829003018186803b1580156118e157600080fd5b505afa1580156118f5573d6000803e3d6000fd5b505050506040513d602081101561190b57600080fd5b5051600e5490915015806119215750600e548111155b611965576040805162461bcd60e51b815260206004820152601060248201526f03e746f74616c4465706f7369744361760841b604482015290519081900360640190fd5b6000611971828561323b565b9050868110156119b3576040805162461bcd60e51b8152602060048201526008602482015267736c69707061676560c01b604482015290519081900360640190fd5b80156114cd57856119cf576119c9338683613520565b506114cd565b60006119dc308784613520565b90506119e7816136a6565b505050505050505050565b600681600481106119ff57fe5b01546001600160a01b0316905081565b600f546001600160a01b03163314611a5c576040805162461bcd60e51b815260206004820152600b60248201526a21676f7665726e616e636560a81b604482015290519081900360640190fd5b60058260ff1610611aaa576040805162461bcd60e51b81526020600482015260136024820152725f696e646578206f7574206f662072616e676560681b604482015290519081900360640190fd5b438111611af3576040805162461bcd60e51b8152602060048201526012602482015271546f6f206c61746520746f2075706461746560701b604482015290519081900360640190fd5b4360198360ff1660058110611b0457fe5b015411611b4d576040805162461bcd60e51b8152602060048201526012602482015271546f6f206c61746520746f2075706461746560701b604482015290519081900360640190fd5b8060198360ff1660058110611b5e57fe5b01555050565b60025490565b60176020526000908152604090208054600182015460029092015490919083565b600a546001600160a01b031690565b6000611ba784848461381b565b611c1784611bb361372b565b611c1285604051806060016040528060288152602001614014602891396001600160a01b038a16600090815260016020526040812090611bf161372b565b6001600160a01b031681526020810191909152604001600020549190613976565b61372f565b5060015b9392505050565b611c2a6130d6565b611c32613a0d565b3360009081526017602052604090208115611d14578054821115611c93576040805162461bcd60e51b81526020600482015260136024820152721cdd185ad95910985b080f0817d85b5bdd5b9d606a1b604482015290519081900360640190fd5b8054611c9f908361323b565b81556040805163a9059cbb60e01b8152336004820152602481018490529051309163a9059cbb9160448083019260209291908290030181600087803b158015611ce757600080fd5b505af1158015611cfb573d6000803e3d6000fd5b505050506040513d6020811015611d1157600080fd5b50505b6015548154611d2d9164e8d4a5100091610bd79161327d565b600182015560408051838152905133917f884edad9ce6fa2440d8a54cc123490eb96d2768479d49ff9c7366125a9424364919081900360200190a25050565b60055460ff1690565b600f546001600160a01b03163314611dc2576040805162461bcd60e51b815260206004820152600b60248201526a21676f7665726e616e636560a81b604482015290519081900360640190fd5b611dca6130d6565b601655565b601354600a5460408051630db3e24f60e21b81526001600160a01b038681166004830152928316602482015260448101859052905160009392909216916336cf893c91606480820192602092909190829003018186803b158015611e3257600080fd5b505afa158015611e46573d6000803e3d6000fd5b505050506040513d6020811015611e5c57600080fd5b50519392505050565b6000611582611e7261372b565b84611c128560016000611e8361372b565b6001600160a01b03908116825260208083019390935260409182016000908120918c168152925290205490613414565b60198160058110611ec057fe5b0154905081565b600f546001600160a01b03163314611f14576040805162461bcd60e51b815260206004820152600b60248201526a21676f7665726e616e636560a81b604482015290519081900360640190fd5b600c55565b6018546001600160a01b031681565b600c54600a54604080516370a0823160e01b81523060048201529051600093611fb79361271093610bd7936001600160a01b03909216916370a0823191602480820192602092909190829003018186803b158015611f8557600080fd5b505afa158015611f99573d6000803e3d6000fd5b505050506040513d6020811015611faf57600080fd5b50519061327d565b905090565b6000611fc730612102565b604080516323b872dd60e01b8152336004820152306024820181905260448201869052915192935090916323b872dd916064808201926020929091908290030181600087803b15801561201957600080fd5b505af115801561202d573d6000803e3d6000fd5b505050506040513d602081101561204357600080fd5b506000905061205130612102565b905061205d818361323b565b9250612068836136a6565b505050565b600f546001600160a01b031681565b600e5481565b600b546001600160a01b031681565b61271081565b600f546001600160a01b031633146120e4576040805162461bcd60e51b815260206004820152600b60248201526a21676f7665726e616e636560a81b604482015290519081900360640190fd5b60138054911515600160a01b0260ff60a01b19909216919091179055565b6001600160a01b031660009081526020819052604090205490565b600f546001600160a01b0316331461216a576040805162461bcd60e51b815260206004820152600b60248201526a21676f7665726e616e636560a81b604482015290519081900360640190fd5b60008260ff16118015612180575060068260ff16105b6121c6576040805162461bcd60e51b8152602060048201526012602482015271496e646578206f7574206f662072616e676560701b604482015290519081900360640190fd5b4360196001840360ff16600581106121da57fe5b015411612223576040805162461bcd60e51b8152602060048201526012602482015271546f6f206c61746520746f2075706461746560701b604482015290519081900360640190fd5b80601e8360ff1660068110611b5e57fe5b6000611fb7612241611b64565b610bd7670de0b6b3a7640000610bd1612ca0565b60115481565b6012546001600160a01b031681565b600060055b60018160ff16106124085760196001820360ff166005811061228d57fe5b015483106123ff5760196001820360ff16600581106122a857fe5b015484106122d7576122cf601e8260ff16600681106122c357fe5b0154610bd1858761323b565b915050611586565b600061230d601e8360ff16600681106122ec57fe5b0154610bd160196001860360ff166005811061230457fe5b0154879061323b565b90508160ff166001141561234957612340612339601e60005b0154610bd188601960005b01549061323b565b8290613414565b92505050611586565b6001820391505b60018260ff16106123f05760196001830360ff166005811061236e57fe5b015485106123a257612340612339601e8460ff166006811061238c57fe5b0154610bd18860198760ff166005811061233157fe5b6123e2612339601e8460ff16600681106123b857fe5b0154610bd160196001870360ff16600581106123d057fe5b015460198760ff166005811061233157fe5b600019909201919050612350565b612340612339601e6000612326565b6000190161226f565b50601e54611c1b90610bd1848661323b565b600d5481565b600f546001600160a01b0316331461246d576040805162461bcd60e51b815260206004820152600b60248201526a21676f7665726e616e636560a81b604482015290519081900360640190fd5b600d55565b600f546001600160a01b031633146124bf576040805162461bcd60e51b815260206004820152600b60248201526a21676f7665726e616e636560a81b604482015290519081900360640190fd5b601080546001600160a01b0319166001600160a01b0392909216919091179055565b60048054604080516020601f60026000196101006001881615020190951694909404938401819004810282018101909252828152606093909290918301828280156115645780601f1061153957610100808354040283529160200191611564565b600f546001600160a01b0316331461258f576040805162461bcd60e51b815260206004820152600b60248201526a21676f7665726e616e636560a81b604482015290519081900360640190fd5b600a546001600160a01b03828116911614156125db576040805162461bcd60e51b8152602060048083019190915260248201526319b1b93b60e11b604482015290519081900360640190fd5b6001600160a01b038116301415612622576040805162461bcd60e51b815260206004808301919091526024820152631b5b1d9d60e21b604482015290519081900360640190fd5b6000816001600160a01b03166370a08231306040518263ffffffff1660e01b815260040180826001600160a01b0316815260200191505060206040518083038186803b15801561267157600080fd5b505afa158015612685573d6000803e3d6000fd5b505050506040513d602081101561269b57600080fd5b5051601354600a5460408051630db3e24f60e21b81526001600160a01b038781166004830152928316602482015260448101859052905193945060009391909216916336cf893c916064808301926020929190829003018186803b15801561270257600080fd5b505afa158015612716573d6000803e3d6000fd5b505050506040513d602081101561272c57600080fd5b505111612769576040805162461bcd60e51b81526020600482015260066024820152650726174653d360d41b604482015290519081900360640190fd5b601354612783906001600160a01b0384811691168361346e565b601354600a546040805163248391ff60e01b81526001600160a01b0386811660048301529283166024820152604481018590529051919092169163248391ff9160648083019260209291908290030181600087803b1580156127e457600080fd5b505af11580156127f8573d6000803e3d6000fd5b505050506040513d602081101561280e57600080fd5b50505050565b601354600160a01b900460ff1681565b600061158261283161372b565b84611c12856040518060600160405280602581526020016140d0602591396001600061285b61372b565b6001600160a01b03908116825260208083019390935260409182016000908120918d16815292529020549190613976565b600a546001600160a01b031681565b6010546001600160a01b0316331461291b57600f546001600160a01b031633146128fa576040805162461bcd60e51b815260206004820152600b60248201526a21676f7665726e616e636560a81b604482015290519081900360640190fd5b601854601154600a5461291b926001600160a01b039182169291169061346e565b6000601155565b600f546001600160a01b0316331461296f576040805162461bcd60e51b815260206004820152600b60248201526a21676f7665726e616e636560a81b604482015290519081900360640190fd5b601880546001600160a01b0319166001600160a01b0392909216919091179055565b600061158261299e61372b565b848461381b565b60145481565b600f546001600160a01b031633146129f8576040805162461bcd60e51b815260206004820152600b60248201526a21676f7665726e616e636560a81b604482015290519081900360640190fd5b600f80546001600160a01b0319166001600160a01b0392909216919091179055565b600080612a2684612de4565b90508015612a4357612a40612710610bd78684830361327d565b93505b6000612a5c612a50611b64565b610bd787610bd1612ca0565b600a549091506001600160a01b0385811691161415612a7e5791506115869050565b6013546040805163ae2841c760e01b8152600481018490526001600160a01b0387811660248301529151919092169163ae2841c7916044808301926020929190829003018186803b158015612ad257600080fd5b505afa158015612ae6573d6000803e3d6000fd5b505050506040513d6020811015612afc57600080fd5b505195945050505050565b600f546001600160a01b03163314612b54576040805162461bcd60e51b815260206004820152600b60248201526a21676f7665726e616e636560a81b604482015290519081900360640190fd5b600a5460408051637e062a3560e11b815290516001600160a01b039283169284169163fc0c546a916004808301926020929190829003018186803b158015612b9b57600080fd5b505afa158015612baf573d6000803e3d6000fd5b505050506040513d6020811015612bc557600080fd5b50516001600160a01b031614612c0f576040805162461bcd60e51b815260206004820152600a60248201526910ba37b5b2b719a1a92b60b11b604482015290519081900360640190fd5b601380546001600160a01b0319166001600160a01b0392909216919091179055565b600f546001600160a01b03163314612c7e576040805162461bcd60e51b815260206004820152600b60248201526a21676f7665726e616e636560a81b604482015290519081900360640190fd5b601280546001600160a01b0319166001600160a01b0392909216919091179055565b600a54604080516370a0823160e01b8152306004820152905160009283926001600160a01b03909116916370a0823191602480820192602092909190829003018186803b158015612cf057600080fd5b505afa158015612d04573d6000803e3d6000fd5b505050506040513d6020811015612d1a57600080fd5b50516010549091506001600160a01b031615612dbb57601054600a54604080516370a0823160e01b81526001600160a01b0392831660048201529051612db89392909216916370a0823191602480820192602092909190829003018186803b158015612d8557600080fd5b505afa158015612d99573d6000803e3d6000fd5b505050506040513d6020811015612daf57600080fd5b50518290613414565b90505b601154612dc990829061323b565b91505090565b60165481565b6013546001600160a01b031681565b6010546000906001600160a01b031615612e8057601054600a5460408051637ecdf29160e11b81526001600160a01b039283166004820152602481018690529051919092169163fd9be522916044808301926020929190829003018186803b158015612e4f57600080fd5b505afa158015612e63573d6000803e3d6000fd5b505050506040513d6020811015612e7957600080fd5b5051611586565b600092915050565b60155481565b601354604051633883e11960e01b81526000916001600160a01b031690633883e1199084906001906004018083606080828437600083820152931515601f909401601f19169091019283525050604051602080830193509181900382018186803b158015612efb57600080fd5b505afa158015612f0f573d6000803e3d6000fd5b505050506040513d6020811015612f2557600080fd5b505192915050565b6010546001600160a01b03161561304a57601054604080516371f4f3fb60e01b815290516001600160a01b039092169182916371f4f3fb916004808301926020929190829003018186803b158015612f8457600080fd5b505afa158015612f98573d6000803e3d6000fd5b505050506040513d6020811015612fae57600080fd5b505115613048576000612fbf611f28565b601054600a54919250612fdf916001600160a01b0390811691168361346e565b600a546040805163b02bf4b960e01b81526001600160a01b0392831660048201526024810184905290519184169163b02bf4b99160448082019260009290919082900301818387803b15801561303457600080fd5b505af1158015611008573d6000803e3d6000fd5b505b565b6001600160a01b03918216600090815260016020908152604080832093909416825291909152205490565b601e8160068110611ec057fe5b600f546001600160a01b031633146130d1576040805162461bcd60e51b815260206004820152600b60248201526a21676f7665726e616e636560a81b604482015290519081900360640190fd5b600e55565b60145443116130e45761304a565b60006130ef30612102565b90508061310057504360145561304a565b600061310e6014544361226a565b905061313e61313583610bd764e8d4a51000610bd16016548761327d90919063ffffffff16565b60155490613414565b601555505043601455565b6010546001600160a01b031681565b600c5481565b6001600160a01b03811660009081526017602052604081206015548261318330612102565b90506014544311801561319557508015155b156131d35760006131a86014544361226a565b90506131cf61313583610bd764e8d4a51000610bd16016548761327d90919063ffffffff16565b9250505b61320183600101546131fb64e8d4a51000610bd786886000015461327d90919063ffffffff16565b9061323b565b95945050505050565b3360009081526017602052604090205461322390611c22565b61304861322f33612102565b82610b25565b61b5a481565b6000611c1b83836040518060400160405280601e81526020017f536166654d6174683a207375627472616374696f6e206f766572666c6f770000815250613976565b60008261328c57506000611586565b8282028284828161329957fe5b0414611c1b5760405162461bcd60e51b8152600401808060200182810382526021815260200180613ff36021913960400191505060405180910390fd5b6000611c1b83836040518060400160405280601a81526020017f536166654d6174683a206469766973696f6e206279207a65726f000000000000815250613aa3565b6001600160a01b03821661335d5760405162461bcd60e51b815260040180806020018281038252602181526020018061403c6021913960400191505060405180910390fd5b61336982600083612068565b6133a681604051806060016040528060228152602001613f63602291396001600160a01b0385166000908152602081905260409020549190613976565b6001600160a01b0383166000908152602081905260409020556002546133cc908261323b565b6002556040805182815290516000916001600160a01b038516917fddf252ad1be2c89b69c2b068fc378daa952ba7f163c4a11628f55a4df523b3ef9181900360200190a35050565b600082820183811015611c1b576040805162461bcd60e51b815260206004820152601b60248201527f536166654d6174683a206164646974696f6e206f766572666c6f770000000000604482015290519081900360640190fd5b604080516001600160a01b038416602482015260448082018490528251808303909101815260649091019091526020810180516001600160e01b031663a9059cbb60e01b179052612068908490613b08565b3b151590565b604080516001600160a01b0380861660248301528416604482015260648082018490528251808303909101815260849091019091526020810180516001600160e01b03166323b872dd60e01b17905261280e908590613b08565b6012546000906001600160a01b0316156135e257601254604080516397c4fac760e01b815290516000926001600160a01b0316916397c4fac7916004808301926020929190829003018186803b15801561357957600080fd5b505afa15801561358d573d6000803e3d6000fd5b505050506040513d60208110156135a357600080fd5b5051905080156135e05760006135bf612710610bd7868561327d565b90506135cb848261323b565b6011549094506135db9082613414565b601155505b505b6135ea611b64565b6135f557508061360e565b61360b83610bd7613604611b64565b859061327d565b90505b8015611c1b57600d54600a54604080516370a0823160e01b815230600482015290516001600160a01b03909216916370a0823191602480820192602092909190829003018186803b15801561366257600080fd5b505afa158015613676573d6000803e3d6000fd5b505050506040513d602081101561368c57600080fd5b5051111561369c5761369c612f2d565b611c1b8482613bb9565b3360009081526017602052604090206136bd6130d6565b6136c5613a0d565b80546136d19083613414565b8082556015546136ec9164e8d4a5100091610bd7919061327d565b600182015560408051838152905133917fe1fffcc4923d04b559f4d29a8bfc6cda04eb5b0d3c460751c2402c5c5cc9109c919081900360200190a25050565b3390565b6001600160a01b0383166137745760405162461bcd60e51b81526004018080602001828103825260248152602001806140826024913960400191505060405180910390fd5b6001600160a01b0382166137b95760405162461bcd60e51b8152600401808060200182810382526022815260200180613f856022913960400191505060405180910390fd5b6001600160a01b03808416600081815260016020908152604080832094871680845294825291829020859055815185815291517f8c5be1e5ebec7d5bd14f71427d1e84f3dd0314c0f7b2291e5b200ac8c7c3b9259281900390910190a3505050565b6001600160a01b0383166138605760405162461bcd60e51b815260040180806020018281038252602581526020018061405d6025913960400191505060405180910390fd5b6001600160a01b0382166138a55760405162461bcd60e51b8152600401808060200182810382526023815260200180613f406023913960400191505060405180910390fd5b6138b0838383612068565b6138ed81604051806060016040528060268152602001613fa7602691396001600160a01b0386166000908152602081905260409020549190613976565b6001600160a01b03808516600090815260208190526040808220939093559084168152205461391c9082613414565b6001600160a01b038084166000818152602081815260409182902094909455805185815290519193928716927fddf252ad1be2c89b69c2b068fc378daa952ba7f163c4a11628f55a4df523b3ef92918290030190a3505050565b60008184841115613a055760405162461bcd60e51b81526004018080602001828103825283818151815260200191508051906020019080838360005b838110156139ca5781810151838201526020016139b2565b50505050905090810190601f1680156139f75780820380516001836020036101000a031916815260200191505b509250505060405180910390fd5b505050900390565b33600090815260176020526040812060018101546015548254929392613a4392916131fb9164e8d4a5100091610bd7919061327d565b905080156110c7576002820154613a5a9082613414565b6002830155613a693382613ca9565b60408051828152905133917fe2403640ba68fed3a2f88b7557551d1993f84b99bb10ff833f0cf8db0c5e0486919081900360200190a25050565b60008183613af25760405162461bcd60e51b81526020600482018181528351602484015283519092839260449091019190850190808383600083156139ca5781810151838201526020016139b2565b506000838581613afe57fe5b0495945050505050565b6060613b5d826040518060400160405280602081526020017f5361666545524332303a206c6f772d6c6576656c2063616c6c206661696c6564815250856001600160a01b0316613d489092919063ffffffff16565b80519091501561206857808060200190516020811015613b7c57600080fd5b50516120685760405162461bcd60e51b815260040180806020018281038252602a8152602001806140a6602a913960400191505060405180910390fd5b6001600160a01b038216613c14576040805162461bcd60e51b815260206004820152601f60248201527f45524332303a206d696e7420746f20746865207a65726f206164647265737300604482015290519081900360640190fd5b613c2060008383612068565b600254613c2d9082613414565b6002556001600160a01b038216600090815260208190526040902054613c539082613414565b6001600160a01b0383166000818152602081815260408083209490945583518581529351929391927fddf252ad1be2c89b69c2b068fc378daa952ba7f163c4a11628f55a4df523b3ef9281900390910190a35050565b600b54604080516370a0823160e01b815230600482015290516000926001600160a01b0316916370a08231916024808301926020929190829003018186803b158015613cf457600080fd5b505afa158015613d08573d6000803e3d6000fd5b505050506040513d6020811015613d1e57600080fd5b5051905061206883838310613d335783613d35565b825b600b546001600160a01b0316919061346e565b6060613d578484600085613d5f565b949350505050565b606082471015613da05760405162461bcd60e51b8152600401808060200182810382526026815260200180613fcd6026913960400191505060405180910390fd5b613da9856134c0565b613dfa576040805162461bcd60e51b815260206004820152601d60248201527f416464726573733a2063616c6c20746f206e6f6e2d636f6e7472616374000000604482015290519081900360640190fd5b60006060866001600160a01b031685876040518082805190602001908083835b60208310613e395780518252601f199092019160209182019101613e1a565b6001836020036101000a03801982511681845116808217855250505050505090500191505060006040518083038185875af1925050503d8060008114613e9b576040519150601f19603f3d011682016040523d82523d6000602084013e613ea0565b606091505b5091509150613eb0828286613ebb565b979650505050505050565b60608315613eca575081611c1b565b825115613eda5782518084602001fd5b60405162461bcd60e51b81526020600482018181528451602484015284518593919283926044019190850190808383600083156139ca5781810151838201526020016139b2565b6040518060600160405280600390602082028036833750919291505056fe45524332303a207472616e7366657220746f20746865207a65726f206164647265737345524332303a206275726e20616d6f756e7420657863656564732062616c616e636545524332303a20617070726f766520746f20746865207a65726f206164647265737345524332303a207472616e7366657220616d6f756e7420657863656564732062616c616e6365416464726573733a20696e73756666696369656e742062616c616e636520666f722063616c6c536166654d6174683a206d756c7469706c69636174696f6e206f766572666c6f7745524332303a207472616e7366657220616d6f756e74206578636565647320616c6c6f77616e636545524332303a206275726e2066726f6d20746865207a65726f206164647265737345524332303a207472616e736665722066726f6d20746865207a65726f206164647265737345524332303a20617070726f76652066726f6d20746865207a65726f20616464726573735361666545524332303a204552433230206f7065726174696f6e20646964206e6f74207375636365656445524332303a2064656372656173656420616c6c6f77616e63652062656c6f77207a65726fa264697066735822122018fa0e72dfa8e15011107ba03a81c99ad96d129392977729c36440d91670e6e064736f6c634300060c0033",
  "devdoc": {
    "details": "This metavault will pay YAX incentive for depositors and stakers It does not need minter key of YAX. Governance multisig will mint total of 34000 YAX and send into the vault in the beginning",
    "kind": "dev",
    "methods": {
      "allowance(address,address)": {
        "details": "See {IERC20-allowance}."
      },
      "approve(address,uint256)": {
        "details": "See {IERC20-approve}. Requirements: - `spender` cannot be the zero address."
      },
      "available()": {
        "details": "min and max are used to keep small withdrawals cheap"
      },
      "balance()": {
        "details": "Ignore insurance fund for balance calculations"
      },
      "balanceOf(address)": {
        "details": "See {IERC20-balanceOf}."
      },
      "calc_token_amount_deposit(uint256[3])": {
        "params": {
          "amounts": "The stablecoin amounts being deposited"
        }
      },
      "calc_token_amount_withdraw(uint256,address)": {
        "params": {
          "_output": "The desired token to withdraw",
          "_shares": "The amount of shares to withdraw"
        }
      },
      "claimInsurance()": {
        "details": "If called by the controller, insurance will auto compound the vault, increasing getPricePerFullShare"
      },
      "constructor": {
        "params": {
          "_startBlock": "The starting block for rewards",
          "_token3CRV": "The address of the 3CRV token",
          "_tokenDAI": "The address of the DAI token",
          "_tokenUSDC": "The address of the USDC token",
          "_tokenUSDT": "The address of the USDT token",
          "_tokenYAX": "The address of the YAX token",
          "_yaxPerBlock": "The amount of YAX rewarded per block"
        }
      },
      "convert_rate(address,uint256)": {
        "params": {
          "_amount": "The amount of stablecoin to convert",
          "_input": "The stablecoin to convert to 3CRV"
        }
      },
      "decimals()": {
        "details": "Returns the number of decimals used to get its user representation. For example, if `decimals` equals `2`, a balance of `505` tokens should be displayed to a user as `5,05` (`505 / 10 ** 2`). Tokens usually opt for a value of 18, imitating the relationship between Ether and Wei. This is the value {ERC20} uses, unless {_setupDecimals} is called. NOTE: This information is only used for _display_ purposes: it in no way affects any of the arithmetic of the contract, including {IERC20-balanceOf} and {IERC20-transfer}."
      },
      "decreaseAllowance(address,uint256)": {
        "details": "Atomically decreases the allowance granted to `spender` by the caller. This is an alternative to {approve} that can be used as a mitigation for problems described in {IERC20-approve}. Emits an {Approval} event indicating the updated allowance. Requirements: - `spender` cannot be the zero address. - `spender` must have allowance for the caller of at least `subtractedValue`."
      },
      "deposit(uint256,address,uint256,bool)": {
        "details": "Users must approve the metavault to spend their stablecoin",
        "params": {
          "_amount": "The amount of the stablecoin to deposit",
          "_input": "The address of the stablecoin being deposited",
          "_isStake": "Stakes shares or not",
          "_min_mint_amount": "The expected amount of shares to receive"
        }
      },
      "depositAll(uint256[4],uint256,bool)": {
        "details": "0: DAI, 1: USDC, 2: USDT, 3: 3CRVUsers must approve the metavault to spend their stablecoin",
        "params": {
          "_amounts": "The amounts of each stablecoin being deposited",
          "_isStake": "Stakes shares or not",
          "_min_mint_amount": "The expected amount of shares to receive"
        }
      },
      "earnExtra(address)": {
        "params": {
          "_token": "The address to convert"
        }
      },
      "getMultiplier(uint256,uint256)": {
        "params": {
          "_from": "The from block",
          "_to": "The to block"
        }
      },
      "harvest(address,uint256)": {
        "params": {
          "amount": "The amount to swap",
          "reserve": "The address of the token to swap to 3CRV"
        }
      },
      "increaseAllowance(address,uint256)": {
        "details": "Atomically increases the allowance granted to `spender` by the caller. This is an alternative to {approve} that can be used as a mitigation for problems described in {IERC20-approve}. Emits an {Approval} event indicating the updated allowance. Requirements: - `spender` cannot be the zero address."
      },
      "name()": {
        "details": "Returns the name of the token."
      },
      "pendingYax(address)": {
        "params": {
          "_account": "The address to query"
        }
      },
      "setAcceptContractDepositor(bool)": {
        "details": "acceptContractDepositor allows the metavault to accept deposits from smart contract addresses",
        "params": {
          "_acceptContractDepositor": "The new acceptContractDepositor value"
        }
      },
      "setController(address)": {
        "params": {
          "_controller": "The new controller value"
        }
      },
      "setConverter(address)": {
        "details": "Requires that the return address of token() from the converter is the same as token3CRV",
        "params": {
          "_converter": "The new converter value"
        }
      },
      "setEarnLowerlimit(uint256)": {
        "details": "earnLowerlimit determines the minimum balance of this contract for earn to be called",
        "params": {
          "_earnLowerlimit": "The new earnLowerlimit value"
        }
      },
      "setEpochEndBlock(uint8,uint256)": {
        "details": "Throws if _index >= 5Throws if _epochEndBlock > the current block.numberThrows if the stored block.number at the given index is > the current block.number",
        "params": {
          "_epochEndBlock": "The new epochEndBlocks value at the index",
          "_index": "The index to set of epochEndBlocks"
        }
      },
      "setEpochRewardMultipler(uint8,uint256)": {
        "details": "Throws if _index < 1 or > 5Throws if the stored block.number at the previous index is > the current block.number",
        "params": {
          "_epochRewardMultipler": "The new epochRewardMultiplers value at the index",
          "_index": "The index to set of epochRewardMultiplers"
        }
      },
      "setGovernance(address)": {
        "params": {
          "_governance": "The new governance value"
        }
      },
      "setMin(uint256)": {
        "params": {
          "_min": "The new min value"
        }
      },
      "setTotalDepositCap(uint256)": {
        "details": "totalDepositCap is the maximum amount of value that can be deposited to the metavault at a time",
        "params": {
          "_totalDepositCap": "The new totalDepositCap value"
        }
      },
      "setTreasuryWallet(address)": {
        "params": {
          "_treasuryWallet": "The new treasuryWallet value"
        }
      },
      "setVaultManager(address)": {
        "params": {
          "_vaultManager": "The new vaultManager value"
        }
      },
      "setYaxPerBlock(uint256)": {
        "details": "Makes a call to updateReward()",
        "params": {
          "_yaxPerBlock": "The new yaxPerBlock value"
        }
      },
      "stakeShares(uint256)": {
        "params": {
          "_shares": "The amount of shares to stake"
        }
      },
      "symbol()": {
        "details": "Returns the symbol of the token, usually a shorter version of the name."
      },
      "totalSupply()": {
        "details": "See {IERC20-totalSupply}."
      },
      "transfer(address,uint256)": {
        "details": "See {IERC20-transfer}. Requirements: - `recipient` cannot be the zero address. - the caller must have a balance of at least `amount`."
      },
      "transferFrom(address,address,uint256)": {
        "details": "See {IERC20-transferFrom}. Emits an {Approval} event indicating the updated allowance. This is not required by the EIP. See the note at the beginning of {ERC20}. Requirements: - `sender` and `recipient` cannot be the zero address. - `sender` must have a balance of at least `amount`. - the caller must have allowance for ``sender``'s tokens of at least `amount`."
      },
      "unstake(uint256)": {
        "details": "call unstake(0) to only receive the reward",
        "params": {
          "_amount": "The amount to unstake"
        }
      },
      "withdraw(uint256,address)": {
        "details": "No rebalance implementation for lower fees and faster swaps",
        "params": {
          "_output": "The address of the stablecoin to receive",
          "_shares": "The amount of shares to withdraw"
        }
      },
      "withdrawAll(address)": {
        "params": {
          "_output": "The address of the desired stablecoin to receive"
        }
      },
      "withdrawFee(uint256)": {
        "params": {
          "_amount": "The amount being queried to withdraw"
        }
      }
    },
    "title": "MetaVault (yAxisMetaVault)",
    "version": 1
  },
  "userdoc": {
    "events": {
      "Deposit(address,uint256)": {
        "notice": "Emitted when a user deposits funds"
      },
      "RewardPaid(address,uint256)": {
        "notice": "Emitted when YAX is paid to a user"
      },
      "Withdraw(address,uint256)": {
        "notice": "Emitted when a user withdraws funds"
      }
    },
    "kind": "user",
    "methods": {
      "available()": {
        "notice": "Get the amount that the metavault allows to be borrowed"
      },
      "balance()": {
        "notice": "Returns the current token3CRV balance of the vault and controller, minus insurance"
      },
      "calc_token_amount_deposit(uint256[3])": {
        "notice": "Returns the amount of 3CRV given for the amounts deposited"
      },
      "calc_token_amount_withdraw(uint256,address)": {
        "notice": "Returns the amount given in the desired token for the given shares"
      },
      "claimInsurance()": {
        "notice": "Called by Governance or the controller to claim the amount stored in the insurance fund"
      },
      "convert_rate(address,uint256)": {
        "notice": "Returns the amount of 3CRV that would be given for the amount of input tokens"
      },
      "deposit(uint256,address,uint256,bool)": {
        "notice": "Deposit a single stablecoin to the metavault"
      },
      "depositAll(uint256[4],uint256,bool)": {
        "notice": "Deposits multiple stablecoins simultaneously to the metavault"
      },
      "earn()": {
        "notice": "Sends accrued 3CRV tokens on the metavault to the controller to be deposited to strategies"
      },
      "earnExtra(address)": {
        "notice": "Converts non-3CRV stablecoins held in the metavault to 3CRV"
      },
      "getMultiplier(uint256,uint256)": {
        "notice": "Return reward multiplier over the given _from to _to block."
      },
      "getPricePerFullShare()": {
        "notice": "Returns the rate of earnings of a single share"
      },
      "harvest(address,uint256)": {
        "notice": "Used to swap any borrowed reserve over the debt limit to liquidate to 'token'"
      },
      "pendingYax(address)": {
        "notice": "Returns the pending YAXs for a given account"
      },
      "setAcceptContractDepositor(bool)": {
        "notice": "Called by Governance to set the value for acceptContractDepositor"
      },
      "setController(address)": {
        "notice": "Called by Governance to set the value for the controller address"
      },
      "setConverter(address)": {
        "notice": "Called by Governance to set the value for the converter address"
      },
      "setEarnLowerlimit(uint256)": {
        "notice": "Called by Governance to set the value for the earnLowerlimit"
      },
      "setEpochEndBlock(uint8,uint256)": {
        "notice": "Called by Governance to set the value for epochEndBlocks at the given index"
      },
      "setEpochRewardMultipler(uint8,uint256)": {
        "notice": "Called by Governance to set the value for epochRewardMultiplers at the given index"
      },
      "setGovernance(address)": {
        "notice": "Called by Governance to set the value for the governance address"
      },
      "setMin(uint256)": {
        "notice": "Called by Governance to set the value for min"
      },
      "setTotalDepositCap(uint256)": {
        "notice": "Called by Governance to set the value for the totalDepositCap"
      },
      "setTreasuryWallet(address)": {
        "notice": "Called by Governance to set the value for the treasuryWallet"
      },
      "setVaultManager(address)": {
        "notice": "Called by Governance to set the value for the vaultManager address"
      },
      "setYaxPerBlock(uint256)": {
        "notice": "Called by Governance to set the value for yaxPerBlock"
      },
      "stakeShares(uint256)": {
        "notice": "Stakes metavault shares"
      },
      "token()": {
        "notice": "Get the address of the 3CRV token"
      },
      "unstake(uint256)": {
        "notice": "Unstakes the given shares from the metavault"
      },
      "updateReward()": {
        "notice": "Sets the lastRewardBlock and accYaxPerShare"
      },
      "want()": {
        "notice": "Returns the address of the 3CRV token"
      },
      "withdraw(uint256,address)": {
        "notice": "Withdraws an amount of shares to a given output stablecoin"
      },
      "withdrawAll(address)": {
        "notice": "Withdraw the entire balance for an account"
      },
      "withdrawFee(uint256)": {
        "notice": "If the controller is set, returns the withdrawFee of the 3CRV token for the given _amount"
      }
    },
    "notice": "The metavault is where users deposit and withdraw stablecoins",
    "version": 1
  },
  "storageLayout": {
    "storage": [
      {
        "astId": 417,
        "contract": "contracts/legacy/MetaVault.sol:MetaVault",
        "label": "_balances",
        "offset": 0,
        "slot": "0",
        "type": "t_mapping(t_address,t_uint256)"
      },
      {
        "astId": 423,
        "contract": "contracts/legacy/MetaVault.sol:MetaVault",
        "label": "_allowances",
        "offset": 0,
        "slot": "1",
        "type": "t_mapping(t_address,t_mapping(t_address,t_uint256))"
      },
      {
        "astId": 425,
        "contract": "contracts/legacy/MetaVault.sol:MetaVault",
        "label": "_totalSupply",
        "offset": 0,
        "slot": "2",
        "type": "t_uint256"
      },
      {
        "astId": 427,
        "contract": "contracts/legacy/MetaVault.sol:MetaVault",
        "label": "_name",
        "offset": 0,
        "slot": "3",
        "type": "t_string_storage"
      },
      {
        "astId": 429,
        "contract": "contracts/legacy/MetaVault.sol:MetaVault",
        "label": "_symbol",
        "offset": 0,
        "slot": "4",
        "type": "t_string_storage"
      },
      {
        "astId": 431,
        "contract": "contracts/legacy/MetaVault.sol:MetaVault",
        "label": "_decimals",
        "offset": 0,
        "slot": "5",
        "type": "t_uint8"
      },
      {
        "astId": 2856,
        "contract": "contracts/legacy/MetaVault.sol:MetaVault",
        "label": "inputTokens",
        "offset": 0,
        "slot": "6",
        "type": "t_array(t_contract(IERC20)981)4_storage"
      },
      {
        "astId": 2858,
        "contract": "contracts/legacy/MetaVault.sol:MetaVault",
        "label": "token3CRV",
        "offset": 0,
        "slot": "10",
        "type": "t_contract(IERC20)981"
      },
      {
        "astId": 2860,
        "contract": "contracts/legacy/MetaVault.sol:MetaVault",
        "label": "tokenYAX",
        "offset": 0,
        "slot": "11",
        "type": "t_contract(IERC20)981"
      },
      {
        "astId": 2863,
        "contract": "contracts/legacy/MetaVault.sol:MetaVault",
        "label": "min",
        "offset": 0,
        "slot": "12",
        "type": "t_uint256"
      },
      {
        "astId": 2869,
        "contract": "contracts/legacy/MetaVault.sol:MetaVault",
        "label": "earnLowerlimit",
        "offset": 0,
        "slot": "13",
        "type": "t_uint256"
      },
      {
        "astId": 2872,
        "contract": "contracts/legacy/MetaVault.sol:MetaVault",
        "label": "totalDepositCap",
        "offset": 0,
        "slot": "14",
        "type": "t_uint256"
      },
      {
        "astId": 2874,
        "contract": "contracts/legacy/MetaVault.sol:MetaVault",
        "label": "governance",
        "offset": 0,
        "slot": "15",
        "type": "t_address"
      },
      {
        "astId": 2876,
        "contract": "contracts/legacy/MetaVault.sol:MetaVault",
        "label": "controller",
        "offset": 0,
        "slot": "16",
        "type": "t_address"
      },
      {
        "astId": 2878,
        "contract": "contracts/legacy/MetaVault.sol:MetaVault",
        "label": "insurance",
        "offset": 0,
        "slot": "17",
        "type": "t_uint256"
      },
      {
        "astId": 2880,
        "contract": "contracts/legacy/MetaVault.sol:MetaVault",
        "label": "vaultManager",
        "offset": 0,
        "slot": "18",
        "type": "t_contract(IVaultManager)2826"
      },
      {
        "astId": 2882,
        "contract": "contracts/legacy/MetaVault.sol:MetaVault",
        "label": "converter",
        "offset": 0,
        "slot": "19",
        "type": "t_contract(IConverter)2629"
      },
      {
        "astId": 2885,
        "contract": "contracts/legacy/MetaVault.sol:MetaVault",
        "label": "acceptContractDepositor",
        "offset": 20,
        "slot": "19",
        "type": "t_bool"
      },
      {
        "astId": 2894,
        "contract": "contracts/legacy/MetaVault.sol:MetaVault",
        "label": "lastRewardBlock",
        "offset": 0,
        "slot": "20",
        "type": "t_uint256"
      },
      {
        "astId": 2896,
        "contract": "contracts/legacy/MetaVault.sol:MetaVault",
        "label": "accYaxPerShare",
        "offset": 0,
        "slot": "21",
        "type": "t_uint256"
      },
      {
        "astId": 2898,
        "contract": "contracts/legacy/MetaVault.sol:MetaVault",
        "label": "yaxPerBlock",
        "offset": 0,
        "slot": "22",
        "type": "t_uint256"
      },
      {
        "astId": 2902,
        "contract": "contracts/legacy/MetaVault.sol:MetaVault",
        "label": "userInfo",
        "offset": 0,
        "slot": "23",
        "type": "t_mapping(t_address,t_struct(UserInfo)2892_storage)"
      },
      {
        "astId": 2905,
        "contract": "contracts/legacy/MetaVault.sol:MetaVault",
        "label": "treasuryWallet",
        "offset": 0,
        "slot": "24",
        "type": "t_address"
      },
      {
        "astId": 2912,
        "contract": "contracts/legacy/MetaVault.sol:MetaVault",
        "label": "epochEndBlocks",
        "offset": 0,
        "slot": "25",
        "type": "t_array(t_uint256)5_storage"
      },
      {
        "astId": 2923,
        "contract": "contracts/legacy/MetaVault.sol:MetaVault",
        "label": "epochRewardMultiplers",
        "offset": 0,
        "slot": "30",
        "type": "t_array(t_uint256)6_storage"
      }
    ],
    "types": {
      "t_address": {
        "encoding": "inplace",
        "label": "address",
        "numberOfBytes": "20"
      },
      "t_array(t_contract(IERC20)981)4_storage": {
        "base": "t_contract(IERC20)981",
        "encoding": "inplace",
        "label": "contract IERC20[4]",
        "numberOfBytes": "128"
      },
      "t_array(t_uint256)5_storage": {
        "base": "t_uint256",
        "encoding": "inplace",
        "label": "uint256[5]",
        "numberOfBytes": "160"
      },
      "t_array(t_uint256)6_storage": {
        "base": "t_uint256",
        "encoding": "inplace",
        "label": "uint256[6]",
        "numberOfBytes": "192"
      },
      "t_bool": {
        "encoding": "inplace",
        "label": "bool",
        "numberOfBytes": "1"
      },
      "t_contract(IConverter)2629": {
        "encoding": "inplace",
        "label": "contract IConverter",
        "numberOfBytes": "20"
      },
      "t_contract(IERC20)981": {
        "encoding": "inplace",
        "label": "contract IERC20",
        "numberOfBytes": "20"
      },
      "t_contract(IVaultManager)2826": {
        "encoding": "inplace",
        "label": "contract IVaultManager",
        "numberOfBytes": "20"
      },
      "t_mapping(t_address,t_mapping(t_address,t_uint256))": {
        "encoding": "mapping",
        "key": "t_address",
        "label": "mapping(address => mapping(address => uint256))",
        "numberOfBytes": "32",
        "value": "t_mapping(t_address,t_uint256)"
      },
      "t_mapping(t_address,t_struct(UserInfo)2892_storage)": {
        "encoding": "mapping",
        "key": "t_address",
        "label": "mapping(address => struct MetaVault.UserInfo)",
        "numberOfBytes": "32",
        "value": "t_struct(UserInfo)2892_storage"
      },
      "t_mapping(t_address,t_uint256)": {
        "encoding": "mapping",
        "key": "t_address",
        "label": "mapping(address => uint256)",
        "numberOfBytes": "32",
        "value": "t_uint256"
      },
      "t_string_storage": {
        "encoding": "bytes",
        "label": "string",
        "numberOfBytes": "32"
      },
      "t_struct(UserInfo)2892_storage": {
        "encoding": "inplace",
        "label": "struct MetaVault.UserInfo",
        "members": [
          {
            "astId": 2887,
            "contract": "contracts/legacy/MetaVault.sol:MetaVault",
            "label": "amount",
            "offset": 0,
            "slot": "0",
            "type": "t_uint256"
          },
          {
            "astId": 2889,
            "contract": "contracts/legacy/MetaVault.sol:MetaVault",
            "label": "yaxRewardDebt",
            "offset": 0,
            "slot": "1",
            "type": "t_uint256"
          },
          {
            "astId": 2891,
            "contract": "contracts/legacy/MetaVault.sol:MetaVault",
            "label": "accEarned",
            "offset": 0,
            "slot": "2",
            "type": "t_uint256"
          }
        ],
        "numberOfBytes": "96"
      },
      "t_uint256": {
        "encoding": "inplace",
        "label": "uint256",
        "numberOfBytes": "32"
      },
      "t_uint8": {
        "encoding": "inplace",
        "label": "uint8",
        "numberOfBytes": "1"
      }
    }
  }
}