{
  "address": "0x0b402C08278fF8cD93313ce696199139fb7A4A55",
  "abi": [
    {
      "inputs": [
        {
          "internalType": "string",
          "name": "_name",
          "type": "string"
        },
        {
          "internalType": "address",
          "name": "_want",
          "type": "address"
        },
        {
          "internalType": "address",
          "name": "_crv",
          "type": "address"
        },
        {
          "internalType": "address",
          "name": "_cvx",
          "type": "address"
        },
        {
          "internalType": "address",
          "name": "_weth",
          "type": "address"
        },
        {
          "internalType": "address",
          "name": "_mim",
          "type": "address"
        },
        {
          "internalType": "address",
          "name": "_crv3",
          "type": "address"
        },
        {
          "internalType": "uint256",
          "name": "_pid",
          "type": "uint256"
        },
        {
          "internalType": "contract IConvexVault",
          "name": "_convexVault",
          "type": "address"
        },
        {
          "internalType": "contract IStableSwap2Pool",
          "name": "_stableSwap2Pool",
          "type": "address"
        },
        {
          "internalType": "address",
          "name": "_controller",
          "type": "address"
        },
        {
          "internalType": "address",
          "name": "_manager",
          "type": "address"
        },
        {
          "internalType": "address",
          "name": "_router",
          "type": "address"
        }
      ],
      "stateMutability": "nonpayable",
      "type": "constructor"
    },
    {
      "inputs": [],
      "name": "ONE_HUNDRED_PERCENT",
      "outputs": [
        {
          "internalType": "uint256",
          "name": "",
          "type": "uint256"
        }
      ],
      "stateMutability": "view",
      "type": "function"
    },
    {
      "inputs": [
        {
          "internalType": "contract IERC20",
          "name": "_token",
          "type": "address"
        },
        {
          "internalType": "address",
          "name": "_spender",
          "type": "address"
        },
        {
          "internalType": "uint256",
          "name": "_amount",
          "type": "uint256"
        }
      ],
      "name": "approveForSpender",
      "outputs": [],
      "stateMutability": "nonpayable",
      "type": "function"
    },
    {
      "inputs": [],
      "name": "balanceOf",
      "outputs": [
        {
          "internalType": "uint256",
          "name": "",
          "type": "uint256"
        }
      ],
      "stateMutability": "view",
      "type": "function"
    },
    {
      "inputs": [],
      "name": "balanceOfPool",
      "outputs": [
        {
          "internalType": "uint256",
          "name": "",
          "type": "uint256"
        }
      ],
      "stateMutability": "view",
      "type": "function"
    },
    {
      "inputs": [],
      "name": "balanceOfWant",
      "outputs": [
        {
          "internalType": "uint256",
          "name": "",
          "type": "uint256"
        }
      ],
      "stateMutability": "view",
      "type": "function"
    },
    {
      "inputs": [],
      "name": "controller",
      "outputs": [
        {
          "internalType": "address",
          "name": "",
          "type": "address"
        }
      ],
      "stateMutability": "view",
      "type": "function"
    },
    {
      "inputs": [],
      "name": "convexVault",
      "outputs": [
        {
          "internalType": "contract IConvexVault",
          "name": "",
          "type": "address"
        }
      ],
      "stateMutability": "view",
      "type": "function"
    },
    {
      "inputs": [],
      "name": "crv",
      "outputs": [
        {
          "internalType": "address",
          "name": "",
          "type": "address"
        }
      ],
      "stateMutability": "view",
      "type": "function"
    },
    {
      "inputs": [],
      "name": "crv3",
      "outputs": [
        {
          "internalType": "address",
          "name": "",
          "type": "address"
        }
      ],
      "stateMutability": "view",
      "type": "function"
    },
    {
      "inputs": [],
      "name": "crvRewards",
      "outputs": [
        {
          "internalType": "contract IConvexRewards",
          "name": "",
          "type": "address"
        }
      ],
      "stateMutability": "view",
      "type": "function"
    },
    {
      "inputs": [],
      "name": "cvx",
      "outputs": [
        {
          "internalType": "address",
          "name": "",
          "type": "address"
        }
      ],
      "stateMutability": "view",
      "type": "function"
    },
    {
      "inputs": [],
      "name": "deposit",
      "outputs": [],
      "stateMutability": "nonpayable",
      "type": "function"
    },
    {
      "inputs": [],
      "name": "getMostPremium",
      "outputs": [
        {
          "internalType": "address",
          "name": "",
          "type": "address"
        },
        {
          "internalType": "uint256",
          "name": "",
          "type": "uint256"
        }
      ],
      "stateMutability": "view",
      "type": "function"
    },
    {
      "inputs": [
        {
          "internalType": "uint256",
          "name": "_estimatedWETH",
          "type": "uint256"
        },
        {
          "internalType": "uint256",
          "name": "_estimatedYAXIS",
          "type": "uint256"
        }
      ],
      "name": "harvest",
      "outputs": [],
      "stateMutability": "nonpayable",
      "type": "function"
    },
    {
      "inputs": [],
      "name": "manager",
      "outputs": [
        {
          "internalType": "contract IManager",
          "name": "",
          "type": "address"
        }
      ],
      "stateMutability": "view",
      "type": "function"
    },
    {
      "inputs": [],
      "name": "mim",
      "outputs": [
        {
          "internalType": "address",
          "name": "",
          "type": "address"
        }
      ],
      "stateMutability": "view",
      "type": "function"
    },
    {
      "inputs": [],
      "name": "mimCvxDepositLP",
      "outputs": [
        {
          "internalType": "address",
          "name": "",
          "type": "address"
        }
      ],
      "stateMutability": "view",
      "type": "function"
    },
    {
      "inputs": [],
      "name": "name",
      "outputs": [
        {
          "internalType": "string",
          "name": "",
          "type": "string"
        }
      ],
      "stateMutability": "view",
      "type": "function"
    },
    {
      "inputs": [],
      "name": "pid",
      "outputs": [
        {
          "internalType": "uint256",
          "name": "",
          "type": "uint256"
        }
      ],
      "stateMutability": "view",
      "type": "function"
    },
    {
      "inputs": [],
      "name": "router",
      "outputs": [
        {
          "internalType": "contract ISwap",
          "name": "",
          "type": "address"
        }
      ],
      "stateMutability": "view",
      "type": "function"
    },
    {
      "inputs": [
        {
          "internalType": "address",
          "name": "_router",
          "type": "address"
        }
      ],
      "name": "setRouter",
      "outputs": [],
      "stateMutability": "nonpayable",
      "type": "function"
    },
    {
      "inputs": [],
      "name": "skim",
      "outputs": [],
      "stateMutability": "nonpayable",
      "type": "function"
    },
    {
      "inputs": [],
      "name": "stableSwap2Pool",
      "outputs": [
        {
          "internalType": "contract IStableSwap2Pool",
          "name": "",
          "type": "address"
        }
      ],
      "stateMutability": "view",
      "type": "function"
    },
    {
      "inputs": [],
      "name": "want",
      "outputs": [
        {
          "internalType": "address",
          "name": "",
          "type": "address"
        }
      ],
      "stateMutability": "view",
      "type": "function"
    },
    {
      "inputs": [],
      "name": "weth",
      "outputs": [
        {
          "internalType": "address",
          "name": "",
          "type": "address"
        }
      ],
      "stateMutability": "view",
      "type": "function"
    },
    {
      "inputs": [
        {
          "internalType": "uint256",
          "name": "_amount",
          "type": "uint256"
        }
      ],
      "name": "withdraw",
      "outputs": [],
      "stateMutability": "nonpayable",
      "type": "function"
    },
    {
      "inputs": [
        {
          "internalType": "address",
          "name": "_asset",
          "type": "address"
        }
      ],
      "name": "withdraw",
      "outputs": [],
      "stateMutability": "nonpayable",
      "type": "function"
    },
    {
      "inputs": [],
      "name": "withdrawAll",
      "outputs": [],
      "stateMutability": "nonpayable",
      "type": "function"
    }
  ],
  "transactionHash": "0xfb3e18e726ebc161b4a9298ffc90da0907c39d62903e9e7fa3c6959578edd5d9",
  "args": [
    "Convex: MIMCRV",
    "0x536eEd63E022B920FC9473c50DfE8d8FA45bC78e",
    "0x69FC615bbfb33e744028dfeCC78aeDE17cfDC9DD",
    "0x5Ca82b87E5d82C69Cb0Ab873107F77fdEb537b8a",
    "0x3C54f058cD7EA85C4CE13d5d77A6Bb3AE0eF9910",
    "0x7F3331ea41B6A839EA623cbc26Cbf92E625BEa07",
    "0x81C0257A53341f9d9e679376804AF94F5B0e748F",
    0,
    "0x135b66e361f68A9785F873EA5732D1Bc7E201DBa",
    "0xFCE5c90A07D6d06340c96365C6B38e5C3fC67CEE",
    "0x9E170246311F35846fcd46588FD1B0c22ba9D65e",
    "0x5D68Ddd47357a29714CB08bb48397E3Fe3d6F425",
    "0x9EC60Fb1b9E683f392A6c1fb47AB98Ad88b0cAcF"
  ],
  "solcInputHash": "39b59b8416d0b0014a452466e334885c",
  "bytecode": "0x6102206040523480156200001257600080fd5b50604051620030fb380380620030fb83398181016040526101a08110156200003957600080fd5b81019080805160405193929190846401000000008211156200005a57600080fd5b9083019060208201858111156200007057600080fd5b82516401000000008111828201881017156200008b57600080fd5b82525081516020918201929091019080838360005b83811015620000ba578181015183820152602001620000a0565b50505050905090810190601f168015620000e85780820380516001836020036101000a031916815260200191505b506040526020018051906020019092919080519060200190929190805190602001909291908051906020019092919080519060200190929190805190602001909291908051906020019092919080519060200190929190805190602001909291908051906020019092919080519060200190929190805190602001909291905050508c83838e8c8585600090805190602001906200018892919062000a98565b50606083811b6001600160601b031990811660805286821b811660c05285821b811660e0529083901b1660a052600180546001600160a01b0319166001600160a01b0383811691909117909155620001f2908316826000196200058c602090811b6200111d17901c565b50505050506001600160a01b038c16151590506200023f576040805162461bcd60e51b815260206004820152600560248201526410afb1b93b60d91b604482015290519081900360640190fd5b6001600160a01b038a1662000283576040805162461bcd60e51b8152602060048201526005602482015264042bec6ecf60db1b604482015290519081900360640190fd5b6001600160a01b038816620002c7576040805162461bcd60e51b8152602060048201526005602482015264215f6d696d60d81b604482015290519081900360640190fd5b6001600160a01b0387166200030c576040805162461bcd60e51b8152602060048201526006602482015265215f6372763360d01b604482015290519081900360640190fd5b6001600160a01b03851662000358576040805162461bcd60e51b815260206004820152600d60248201526c0857d8dbdb9d995e15985d5b1d609a1b604482015290519081900360640190fd5b6001600160a01b038416620003a8576040805162461bcd60e51b81526020600482015260116024820152700857dcdd18589b1954ddd85c0c941bdbdb607a1b604482015290519081900360640190fd5b600080866001600160a01b0316631526fe27896040518263ffffffff1660e01b81526004018082815260200191505060c06040518083038186803b158015620003f057600080fd5b505afa15801562000405573d6000803e3d6000fd5b505050506040513d60c08110156200041c57600080fd5b8101908080519060200190929190805190602001909291908051906020019092919080519060200190929190805190602001909291908051906020019092919050505050509350509250508c6001600160a01b0316610100816001600160a01b031660601b815250508b6001600160a01b0316610120816001600160a01b031660601b81525050896001600160a01b0316610140816001600160a01b031660601b81525050886001600160a01b0316610160816001600160a01b031660601b81525050876101808181525050866001600160a01b03166101a0816001600160a01b031660601b81525050816001600160a01b03166101c0816001600160a01b031660601b81525050806001600160a01b03166101e0816001600160a01b031660601b81525050856001600160a01b0316610200816001600160a01b031660601b81525050620005778e8e8e8d8d8c8c620006b060201b60201c565b50505050505050505050505050505062000b34565b80158062000616575060408051636eb1769f60e11b81523060048201526001600160a01b03848116602483015291519185169163dd62ed3e91604480820192602092909190829003018186803b158015620005e657600080fd5b505afa158015620005fb573d6000803e3d6000fd5b505050506040513d60208110156200061257600080fd5b5051155b620006535760405162461bcd60e51b8152600401808060200182810382526036815260200180620030c56036913960400191505060405180910390fd5b604080516001600160a01b038416602482015260448082018490528251808303909101815260649091019091526020810180516001600160e01b0390811663095ea7b360e01b17909152620006ab918591620007a916565b505050565b620006d782600019896001600160a01b03166200058c60201b6200111d179092919060201c565b60015462000701906001600160a01b0388811691166000196200058c602090811b6200111d17901c565b6001546200072b906001600160a01b0387811691166000196200058c602090811b6200111d17901c565b6200075281600019866001600160a01b03166200058c60201b6200111d179092919060201c565b6200077981600019856001600160a01b03166200058c60201b6200111d179092919060201c565b620007a081600019896001600160a01b03166200058c60201b6200111d179092919060201c565b50505050505050565b606062000805826040518060400160405280602081526020017f5361666545524332303a206c6f772d6c6576656c2063616c6c206661696c6564815250856001600160a01b03166200086560201b62001230179092919060201c565b805190915015620006ab578080602001905160208110156200082657600080fd5b5051620006ab5760405162461bcd60e51b815260040180806020018281038252602a8152602001806200309b602a913960400191505060405180910390fd5b606062000876848460008562000880565b90505b9392505050565b606082471015620008c35760405162461bcd60e51b8152600401808060200182810382526026815260200180620030756026913960400191505060405180910390fd5b620008ce85620009e8565b62000920576040805162461bcd60e51b815260206004820152601d60248201527f416464726573733a2063616c6c20746f206e6f6e2d636f6e7472616374000000604482015290519081900360640190fd5b60006060866001600160a01b031685876040518082805190602001908083835b60208310620009615780518252601f19909201916020918201910162000940565b6001836020036101000a03801982511681845116808217855250505050505090500191505060006040518083038185875af1925050503d8060008114620009c5576040519150601f19603f3d011682016040523d82523d6000602084013e620009ca565b606091505b509092509050620009dd828286620009ee565b979650505050505050565b3b151590565b60608315620009ff57508162000879565b82511562000a105782518084602001fd5b8160405162461bcd60e51b81526004018080602001828103825283818151815260200191508051906020019080838360005b8381101562000a5c57818101518382015260200162000a42565b50505050905090810190601f16801562000a8a5780820380516001836020036101000a031916815260200191505b509250505060405180910390fd5b828054600181600116156101000203166002900490600052602060002090601f016020900481019282601f1062000adb57805160ff191683800117855562000b0b565b8280016001018555821562000b0b579182015b8281111562000b0b57825182559160200191906001019062000aee565b5062000b1992915062000b1d565b5090565b5b8082111562000b19576000815560010162000b1e565b60805160601c60a05160601c60c05160601c60e05160601c6101005160601c6101205160601c6101405160601c6101605160601c610180516101a05160601c6101c05160601c6101e05160601c6102005160601c6123a262000cd360003980610790528061084052806110fb52806120a4525080610cd85280611a6752508061049d5280610629525080610a9d52806114af52806115b4528061198a5250806110a452806114de528061157d52806119b95250806108bb5280610ae5528061201d5250806108e65280610cb45280611f89525080610c90528061160852806116ac525080610ac152806116cd52806116fb5250806107695280610cfc5280610fac5280611d3952508061054452806105a95280610656528061071a52806109195280610a715280610b325280610c665280610ec75280610f4052806110c85250806107455280610def5280610e24528061173b5280611c725280611cb85280611e0b5280611ee05250806105da528061060552806106f852806109855280610b9e5280610c445280610e51528061130252806113a852506123a26000f3fe608060405234801561001057600080fd5b50600436106101c45760003560e01c8063853828b6116100f9578063dd0081c711610097578063f106845411610071578063f1068454146103eb578063f77c4791146103f3578063f887ea40146103fb578063f975bcce14610403576101c4565b8063dd0081c71461038a578063e4a4b7b114610392578063ef9e2379146103b5576101c4565b8063b6bff295116100d3578063b6bff2951461034c578063c0d7865514610354578063c1a3d44c1461037a578063d0e30db014610382576101c4565b8063853828b614610334578063923c1d611461033c5780639f67679e14610344576101c4565b8063481c6a7511610166578063689538e711610140578063689538e7146103145780636a4874a11461031c5780636dca5abe14610324578063722713f71461032c576101c4565b8063481c6a75146102bb57806348677dbe146102c357806351cff8d9146102ee576101c4565b80631f1fcd51116101a25780631f1fcd511461026a5780632c5d68d91461028e5780632e1a7d4d146102965780633fc8cef3146102b3576101c4565b806306fdde03146101c957806311588086146102465780631dd19cb414610260575b600080fd5b6101d161040b565b6040805160208082528351818301528351919283929083019185019080838360005b8381101561020b5781810151838201526020016101f3565b50505050905090810190601f1680156102385780820380516001836020036101000a031916815260200191505b509250505060405180910390f35b61024e610499565b60408051918252519081900360200190f35b610268610539565b005b610272610603565b604080516001600160a01b039092168252519081900360200190f35b610272610627565b610268600480360360208110156102ac57600080fd5b503561064b565b610272610743565b610272610767565b6102cb61078b565b604080516001600160a01b03909316835260208301919091528051918290030190f35b6102686004803603602081101561030457600080fd5b50356001600160a01b031661090e565b610272610a9b565b610272610abf565b610272610ae3565b61024e610b07565b610268610b27565b610272610c8e565b610272610cb2565b610272610cd6565b6102686004803603602081101561036a57600080fd5b50356001600160a01b0316610cfa565b61024e610e4d565b610268610ebc565b61024e610f2f565b610268600480360360408110156103a857600080fd5b5080359060200135610f35565b610268600480360360608110156103cb57600080fd5b506001600160a01b03813581169160208101359091169060400135610faa565b61024e6110a2565b6102726110c6565b6102726110ea565b6102726110f9565b6000805460408051602060026001851615610100026000190190941693909304601f810184900484028201840190925281815292918301828280156104915780601f1061046657610100808354040283529160200191610491565b820191906000526020600020905b81548152906001019060200180831161047457829003601f168201915b505050505081565b60007f00000000000000000000000000000000000000000000000000000000000000006001600160a01b03166370a08231306040518263ffffffff1660e01b815260040180826001600160a01b0316815260200191505060206040518083038186803b15801561050857600080fd5b505afa15801561051c573d6000803e3d6000fd5b505050506040513d602081101561053257600080fd5b5051905090565b336001600160a01b037f000000000000000000000000000000000000000000000000000000000000000016146105a4576040805162461bcd60e51b815260206004820152600b60248201526a10b1b7b73a3937b63632b960a91b604482015290519081900360640190fd5b6106017f00000000000000000000000000000000000000000000000000000000000000006105d0610e4d565b6001600160a01b037f0000000000000000000000000000000000000000000000000000000000000000169190611249565b565b7f000000000000000000000000000000000000000000000000000000000000000081565b7f000000000000000000000000000000000000000000000000000000000000000081565b336001600160a01b037f000000000000000000000000000000000000000000000000000000000000000016146106b6576040805162461bcd60e51b815260206004820152600b60248201526a10b1b7b73a3937b63632b960a91b604482015290519081900360640190fd5b60006106c0610e4d565b9050818110156106eb576106dc6106d7838361129b565b6112fd565b91506106e88282611453565b91505b61073f6001600160a01b037f0000000000000000000000000000000000000000000000000000000000000000167f000000000000000000000000000000000000000000000000000000000000000084611249565b5050565b7f000000000000000000000000000000000000000000000000000000000000000081565b7f000000000000000000000000000000000000000000000000000000000000000081565b6000807f00000000000000000000000000000000000000000000000000000000000000006001600160a01b0316634903b0d160016040518263ffffffff1660e01b81526004018082815260200191505060206040518083038186803b1580156107f357600080fd5b505afa158015610807573d6000803e3d6000fd5b505050506040513d602081101561081d57600080fd5b505160408051634903b0d160e01b81526000600482015290516001600160a01b037f00000000000000000000000000000000000000000000000000000000000000001691634903b0d1916024808301926020929190829003018186803b15801561088657600080fd5b505afa15801561089a573d6000803e3d6000fd5b505050506040513d60208110156108b057600080fd5b505111156108e357507f00000000000000000000000000000000000000000000000000000000000000009050600161090a565b507f0000000000000000000000000000000000000000000000000000000000000000905060005b9091565b336001600160a01b037f00000000000000000000000000000000000000000000000000000000000000001614610979576040805162461bcd60e51b815260206004820152600b60248201526a10b1b7b73a3937b63632b960a91b604482015290519081900360640190fd5b806001600160a01b03167f00000000000000000000000000000000000000000000000000000000000000006001600160a01b031614156109e9576040805162461bcd60e51b815260206004808301919091526024820152631dd85b9d60e21b604482015290519081900360640190fd5b604080516370a0823160e01b8152306004820152905182916000916001600160a01b038416916370a08231916024808301926020929190829003018186803b158015610a3457600080fd5b505afa158015610a48573d6000803e3d6000fd5b505050506040513d6020811015610a5e57600080fd5b50519050610a966001600160a01b0383167f000000000000000000000000000000000000000000000000000000000000000083611249565b505050565b7f000000000000000000000000000000000000000000000000000000000000000081565b7f000000000000000000000000000000000000000000000000000000000000000081565b7f000000000000000000000000000000000000000000000000000000000000000081565b6000610b22610b14610499565b610b1c610e4d565b90611453565b905090565b336001600160a01b037f00000000000000000000000000000000000000000000000000000000000000001614610b92576040805162461bcd60e51b815260206004820152600b60248201526a10b1b7b73a3937b63632b960a91b604482015290519081900360640190fd5b610b9a6114ad565b60007f00000000000000000000000000000000000000000000000000000000000000006001600160a01b03166370a08231306040518263ffffffff1660e01b815260040180826001600160a01b0316815260200191505060206040518083038186803b158015610c0957600080fd5b505afa158015610c1d573d6000803e3d6000fd5b505050506040513d6020811015610c3357600080fd5b50519050610c8b6001600160a01b037f0000000000000000000000000000000000000000000000000000000000000000167f000000000000000000000000000000000000000000000000000000000000000083611249565b50565b7f000000000000000000000000000000000000000000000000000000000000000081565b7f000000000000000000000000000000000000000000000000000000000000000081565b7f000000000000000000000000000000000000000000000000000000000000000081565b7f00000000000000000000000000000000000000000000000000000000000000006001600160a01b0316635aa6e6756040518163ffffffff1660e01b815260040160206040518083038186803b158015610d5357600080fd5b505afa158015610d67573d6000803e3d6000fd5b505050506040513d6020811015610d7d57600080fd5b50516001600160a01b03163314610dc9576040805162461bcd60e51b815260206004820152600b60248201526a21676f7665726e616e636560a81b604482015290519081900360640190fd5b600180546001600160a01b0319166001600160a01b0383811691909117909155610e17907f00000000000000000000000000000000000000000000000000000000000000001682600061111d565b610c8b6001600160a01b037f0000000000000000000000000000000000000000000000000000000000000000168260001961111d565b60007f00000000000000000000000000000000000000000000000000000000000000006001600160a01b03166370a08231306040518263ffffffff1660e01b815260040180826001600160a01b0316815260200191505060206040518083038186803b15801561050857600080fd5b336001600160a01b037f00000000000000000000000000000000000000000000000000000000000000001614610f27576040805162461bcd60e51b815260206004820152600b60248201526a10b1b7b73a3937b63632b960a91b604482015290519081900360640190fd5b61060161155d565b61271081565b336001600160a01b037f00000000000000000000000000000000000000000000000000000000000000001614610fa0576040805162461bcd60e51b815260206004820152600b60248201526a10b1b7b73a3937b63632b960a91b604482015290519081900360640190fd5b61073f82826115fc565b7f00000000000000000000000000000000000000000000000000000000000000006001600160a01b0316635aa6e6756040518163ffffffff1660e01b815260040160206040518083038186803b15801561100357600080fd5b505afa158015611017573d6000803e3d6000fd5b505050506040513d602081101561102d57600080fd5b50516001600160a01b03163314611079576040805162461bcd60e51b815260206004820152600b60248201526a21676f7665726e616e636560a81b604482015290519081900360640190fd5b61108e6001600160a01b03841683600061111d565b610a966001600160a01b038416838361111d565b7f000000000000000000000000000000000000000000000000000000000000000081565b7f000000000000000000000000000000000000000000000000000000000000000081565b6001546001600160a01b031681565b7f000000000000000000000000000000000000000000000000000000000000000081565b8015806111a3575060408051636eb1769f60e11b81523060048201526001600160a01b03848116602483015291519185169163dd62ed3e91604480820192602092909190829003018186803b15801561117557600080fd5b505afa158015611189573d6000803e3d6000fd5b505050506040513d602081101561119f57600080fd5b5051155b6111de5760405162461bcd60e51b81526004018080602001828103825260368152602001806123376036913960400191505060405180910390fd5b604080516001600160a01b038416602482015260448082018490528251808303909101815260649091019091526020810180516001600160e01b031663095ea7b360e01b179052610a9690849061177b565b606061123f848460008561182c565b90505b9392505050565b604080516001600160a01b038416602482015260448082018490528251808303909101815260649091019091526020810180516001600160e01b031663a9059cbb60e01b179052610a9690849061177b565b6000828211156112f2576040805162461bcd60e51b815260206004820152601e60248201527f536166654d6174683a207375627472616374696f6e206f766572666c6f770000604482015290519081900360640190fd5b508082035b92915050565b6000807f00000000000000000000000000000000000000000000000000000000000000006001600160a01b03166370a08231306040518263ffffffff1660e01b815260040180826001600160a01b0316815260200191505060206040518083038186803b15801561136d57600080fd5b505afa158015611381573d6000803e3d6000fd5b505050506040513d602081101561139757600080fd5b505190506113a483611988565b60007f00000000000000000000000000000000000000000000000000000000000000006001600160a01b03166370a08231306040518263ffffffff1660e01b815260040180826001600160a01b0316815260200191505060206040518083038186803b15801561141357600080fd5b505afa158015611427573d6000803e3d6000fd5b505050506040513d602081101561143d57600080fd5b5051905061144b818361129b565b949350505050565b600082820183811015611242576040805162461bcd60e51b815260206004820152601b60248201527f536166654d6174683a206164646974696f6e206f766572666c6f770000000000604482015290519081900360640190fd5b7f00000000000000000000000000000000000000000000000000000000000000006001600160a01b031663958e2d317f00000000000000000000000000000000000000000000000000000000000000006040518263ffffffff1660e01b815260040180828152602001915050602060405180830381600087803b15801561153357600080fd5b505af1158015611547573d6000803e3d6000fd5b505050506040513d602081101561073f57600080fd5b6000611567610e4d565b1115610601576040805163303acfe760e11b81527f000000000000000000000000000000000000000000000000000000000000000060048201526001602482015290516001600160a01b037f000000000000000000000000000000000000000000000000000000000000000016916360759fce9160448083019260209291908290030181600087803b15801561153357600080fd5b611604611a40565b60007f00000000000000000000000000000000000000000000000000000000000000006001600160a01b03166370a08231306040518263ffffffff1660e01b815260040180826001600160a01b0316815260200191505060206040518083038186803b15801561167357600080fd5b505afa158015611687573d6000803e3d6000fd5b505050506040513d602081101561169d57600080fd5b5051905080156116f4576116f47f00000000000000000000000000000000000000000000000000000000000000007f0000000000000000000000000000000000000000000000000000000000000000836001611aaf565b60006117217f00000000000000000000000000000000000000000000000000000000000000008585611bee565b9050801561177557600061173361078b565b5090506117637f000000000000000000000000000000000000000000000000000000000000000082846001611aaf565b61176b611f61565b61177361155d565b505b50505050565b60606117d0826040518060400160405280602081526020017f5361666545524332303a206c6f772d6c6576656c2063616c6c206661696c6564815250856001600160a01b03166112309092919063ffffffff16565b805190915015610a96578080602001905160208110156117ef57600080fd5b5051610a965760405162461bcd60e51b815260040180806020018281038252602a81526020018061230d602a913960400191505060405180910390fd5b60608247101561186d5760405162461bcd60e51b81526004018080602001828103825260268152602001806122c66026913960400191505060405180910390fd5b6118768561213d565b6118c7576040805162461bcd60e51b815260206004820152601d60248201527f416464726573733a2063616c6c20746f206e6f6e2d636f6e7472616374000000604482015290519081900360640190fd5b60006060866001600160a01b031685876040518082805190602001908083835b602083106119065780518252601f1990920191602091820191016118e7565b6001836020036101000a03801982511681845116808217855250505050505090500191505060006040518083038185875af1925050503d8060008114611968576040519150601f19603f3d011682016040523d82523d6000602084013e61196d565b606091505b509150915061197d828286612143565b979650505050505050565b7f00000000000000000000000000000000000000000000000000000000000000006001600160a01b031663441a3e707f0000000000000000000000000000000000000000000000000000000000000000836040518363ffffffff1660e01b81526004018083815260200182815260200192505050602060405180830381600087803b158015611a1657600080fd5b505af1158015611a2a573d6000803e3d6000fd5b505050506040513d6020811015610a9657600080fd5b60408051637050ccd960e01b81523060048201526001602482015290516001600160a01b037f00000000000000000000000000000000000000000000000000000000000000001691637050ccd99160448083019260209291908290030181600087803b15801561153357600080fd5b60408051600280825260608083018452926020830190803683370190505090508481600081518110611add57fe5b60200260200101906001600160a01b031690816001600160a01b0316815250508381600181518110611b0b57fe5b6001600160a01b039283166020918202929092018101919091526001546040516338ed173960e01b8152600481018781526024820187905230606483018190526402540be4006084840181905260a060448501908152885160a4860152885195909716966338ed1739968b968b968b96939260c490910191878201910280838360005b83811015611ba6578181015183820152602001611b8e565b505050509050019650505050505050600060405180830381600087803b158015611bcf57600080fd5b505af1158015611be3573d6000803e3d6000fd5b505050505050505050565b600080846001600160a01b03166370a08231306040518263ffffffff1660e01b815260040180826001600160a01b0316815260200191505060206040518083038186803b158015611c3e57600080fd5b505afa158015611c52573d6000803e3d6000fd5b505050506040513d6020811015611c6857600080fd5b50519050611c98857f00000000000000000000000000000000000000000000000000000000000000008387611aaf565b604080516370a0823160e01b815230600482015290516001600160a01b037f000000000000000000000000000000000000000000000000000000000000000016916370a08231916024808301926020929190829003018186803b158015611cfe57600080fd5b505afa158015611d12573d6000803e3d6000fd5b505050506040513d6020811015611d2857600080fd5b505191508115611f595760008060007f00000000000000000000000000000000000000000000000000000000000000006001600160a01b031663da633d316040518163ffffffff1660e01b815260040160606040518083038186803b158015611d9057600080fd5b505afa158015611da4573d6000803e3d6000fd5b505050506040513d6060811015611dba57600080fd5b5080516020820151604090920151909450909250905060008115801590611de957506001600160a01b03831615155b15611ec057611e04612710611dfe88856121e7565b90612240565b9050611e327f000000000000000000000000000000000000000000000000000000000000000085838a611aaf565b611ec083856001600160a01b03166370a08231306040518263ffffffff1660e01b815260040180826001600160a01b0316815260200191505060206040518083038186803b158015611e8357600080fd5b505afa158015611e97573d6000803e3d6000fd5b505050506040513d6020811015611ead57600080fd5b50516001600160a01b0387169190611249565b604080516370a0823160e01b815230600482015290516001600160a01b037f000000000000000000000000000000000000000000000000000000000000000016916370a08231916024808301926020929190829003018186803b158015611f2657600080fd5b505afa158015611f3a573d6000803e3d6000fd5b505050506040513d6020811015611f5057600080fd5b50519550505050505b509392505050565b611f696122a7565b604080516370a0823160e01b815230600482015290516001600160a01b037f000000000000000000000000000000000000000000000000000000000000000016916370a08231916024808301926020929190829003018186803b158015611fcf57600080fd5b505afa158015611fe3573d6000803e3d6000fd5b505050506040513d6020811015611ff957600080fd5b50518152604080516370a0823160e01b815230600482015290516001600160a01b037f000000000000000000000000000000000000000000000000000000000000000016916370a08231916024808301926020929190829003018186803b15801561206357600080fd5b505afa158015612077573d6000803e3d6000fd5b505050506040513d602081101561208d57600080fd5b5051602082015260408051630b4c7e4d60e01b81527f00000000000000000000000000000000000000000000000000000000000000006001600160a01b031691630b4c7e4d918491600191600401908190849080838360005b838110156120fe5781810151838201526020016120e6565b5050505090500182815260200192505050600060405180830381600087803b15801561212957600080fd5b505af1158015611773573d6000803e3d6000fd5b3b151590565b60608315612152575081611242565b8251156121625782518084602001fd5b8160405162461bcd60e51b81526004018080602001828103825283818151815260200191508051906020019080838360005b838110156121ac578181015183820152602001612194565b50505050905090810190601f1680156121d95780820380516001836020036101000a031916815260200191505b509250505060405180910390fd5b6000826121f6575060006112f7565b8282028284828161220357fe5b04146112425760405162461bcd60e51b81526004018080602001828103825260218152602001806122ec6021913960400191505060405180910390fd5b6000808211612296576040805162461bcd60e51b815260206004820152601a60248201527f536166654d6174683a206469766973696f6e206279207a65726f000000000000604482015290519081900360640190fd5b81838161229f57fe5b049392505050565b6040518060400160405280600290602082028036833750919291505056fe416464726573733a20696e73756666696369656e742062616c616e636520666f722063616c6c536166654d6174683a206d756c7469706c69636174696f6e206f766572666c6f775361666545524332303a204552433230206f7065726174696f6e20646964206e6f7420737563636565645361666545524332303a20617070726f76652066726f6d206e6f6e2d7a65726f20746f206e6f6e2d7a65726f20616c6c6f77616e6365a26469706673582212204ff5740510bd9fec3ea38dcfd0e0c654e8d9697993f2ceb7d23701939806e56764736f6c634300060c0033416464726573733a20696e73756666696369656e742062616c616e636520666f722063616c6c5361666545524332303a204552433230206f7065726174696f6e20646964206e6f7420737563636565645361666545524332303a20617070726f76652066726f6d206e6f6e2d7a65726f20746f206e6f6e2d7a65726f20616c6c6f77616e6365",
  "devdoc": {
    "kind": "dev",
    "methods": {
      "approveForSpender(address,address,uint256)": {
        "params": {
          "_amount": "The amount to spend",
          "_spender": "The address of the spender",
          "_token": "The address of the token"
        }
      },
      "balanceOfPool()": {
        "details": "Must be implemented by the strategy"
      },
      "constructor": {
        "params": {
          "_controller": "The address of the controller",
          "_convexVault": "The address of the convex vault",
          "_crv": "The address of CRV",
          "_crv3": "The address of 3CRV",
          "_cvx": "The address of CVX",
          "_manager": "The address of the manager",
          "_mim": "The address of MIM",
          "_name": "The strategy name",
          "_pid": "The pool id of convex",
          "_router": "The address of the router for swapping tokens",
          "_stableSwap2Pool": "The address of the stable swap pool",
          "_want": "The desired token of the strategy",
          "_weth": "The address of WETH"
        }
      },
      "setRouter(address)": {
        "params": {
          "_router": "The address of the router"
        }
      },
      "withdraw(address)": {
        "params": {
          "_asset": "The address of the token to withdraw"
        }
      },
      "withdraw(uint256)": {
        "params": {
          "_amount": "The amount of the want token to withdraw"
        }
      }
    },
    "version": 1
  },
  "userdoc": {
    "kind": "user",
    "methods": {
      "approveForSpender(address,address,uint256)": {
        "notice": "Approves a token address to be spent by an address"
      },
      "balanceOf()": {
        "notice": "Returns the strategy's balance of the want token plus the balance of pool"
      },
      "balanceOfPool()": {
        "notice": "Returns the balance of the pool"
      },
      "balanceOfWant()": {
        "notice": "Returns the balance of the want token on the strategy"
      },
      "deposit()": {
        "notice": "Deposits funds to the strategy's pool"
      },
      "harvest(uint256,uint256)": {
        "notice": "Harvest funds in the strategy's pool"
      },
      "setRouter(address)": {
        "notice": "Sets the address of the ISwap-compatible router"
      },
      "skim()": {
        "notice": "Sends stuck want tokens in the strategy to the controller"
      },
      "withdraw(address)": {
        "notice": "Sends stuck tokens in the strategy to the controller"
      },
      "withdraw(uint256)": {
        "notice": "Initiated from a vault, withdraws funds from the pool"
      },
      "withdrawAll()": {
        "notice": "Withdraws all funds from the strategy"
      }
    },
    "version": 1
  },
  "storageLayout": {
    "storage": [
      {
        "astId": 18176,
        "contract": "contracts/v3/strategies/MIMConvexStrategy.sol:MIMConvexStrategy",
        "label": "name",
        "offset": 0,
        "slot": "0",
        "type": "t_string_storage"
      },
      {
        "astId": 18179,
        "contract": "contracts/v3/strategies/MIMConvexStrategy.sol:MIMConvexStrategy",
        "label": "router",
        "offset": 0,
        "slot": "1",
        "type": "t_contract(ISwap)17570"
      }
    ],
    "types": {
      "t_contract(ISwap)17570": {
        "encoding": "inplace",
        "label": "contract ISwap",
        "numberOfBytes": "20"
      },
      "t_string_storage": {
        "encoding": "bytes",
        "label": "string",
        "numberOfBytes": "32"
      }
    }
  }
}