{
  "address": "0x0dc135444Cd4a550a61da13595F1858961828EbC",
  "abi": [
    {
      "inputs": [
        {
          "internalType": "address",
          "name": "_token",
          "type": "address"
        }
      ],
      "stateMutability": "nonpayable",
      "type": "constructor"
    },
    {
      "anonymous": false,
      "inputs": [
        {
          "indexed": true,
          "internalType": "address",
          "name": "previousOwner",
          "type": "address"
        },
        {
          "indexed": true,
          "internalType": "address",
          "name": "newOwner",
          "type": "address"
        }
      ],
      "name": "OwnershipTransferred",
      "type": "event"
    },
    {
      "inputs": [],
      "name": "INFLATION_DELAY",
      "outputs": [
        {
          "internalType": "uint256",
          "name": "",
          "type": "uint256"
        }
      ],
      "stateMutability": "view",
      "type": "function"
    },
    {
      "inputs": [],
      "name": "RATE_DENOMINATOR",
      "outputs": [
        {
          "internalType": "uint256",
          "name": "",
          "type": "uint256"
        }
      ],
      "stateMutability": "view",
      "type": "function"
    },
    {
      "inputs": [],
      "name": "RATE_REDUCTION_COEFFICIENT",
      "outputs": [
        {
          "internalType": "uint256",
          "name": "",
          "type": "uint256"
        }
      ],
      "stateMutability": "view",
      "type": "function"
    },
    {
      "inputs": [],
      "name": "RATE_REDUCTION_TIME",
      "outputs": [
        {
          "internalType": "uint256",
          "name": "",
          "type": "uint256"
        }
      ],
      "stateMutability": "view",
      "type": "function"
    },
    {
      "inputs": [],
      "name": "YEAR",
      "outputs": [
        {
          "internalType": "uint256",
          "name": "",
          "type": "uint256"
        }
      ],
      "stateMutability": "view",
      "type": "function"
    },
    {
      "inputs": [],
      "name": "available_supply",
      "outputs": [
        {
          "internalType": "uint256",
          "name": "",
          "type": "uint256"
        }
      ],
      "stateMutability": "view",
      "type": "function"
    },
    {
      "inputs": [],
      "name": "future_epoch_time_write",
      "outputs": [
        {
          "internalType": "uint256",
          "name": "",
          "type": "uint256"
        }
      ],
      "stateMutability": "nonpayable",
      "type": "function"
    },
    {
      "inputs": [
        {
          "internalType": "address",
          "name": "_account",
          "type": "address"
        },
        {
          "internalType": "uint256",
          "name": "_amount",
          "type": "uint256"
        }
      ],
      "name": "mint",
      "outputs": [],
      "stateMutability": "nonpayable",
      "type": "function"
    },
    {
      "inputs": [],
      "name": "minter",
      "outputs": [
        {
          "internalType": "address",
          "name": "",
          "type": "address"
        }
      ],
      "stateMutability": "view",
      "type": "function"
    },
    {
      "inputs": [],
      "name": "owner",
      "outputs": [
        {
          "internalType": "address",
          "name": "",
          "type": "address"
        }
      ],
      "stateMutability": "view",
      "type": "function"
    },
    {
      "inputs": [],
      "name": "rate",
      "outputs": [
        {
          "internalType": "uint256",
          "name": "",
          "type": "uint256"
        }
      ],
      "stateMutability": "view",
      "type": "function"
    },
    {
      "inputs": [],
      "name": "renounceOwnership",
      "outputs": [],
      "stateMutability": "nonpayable",
      "type": "function"
    },
    {
      "inputs": [
        {
          "internalType": "address",
          "name": "_minter",
          "type": "address"
        }
      ],
      "name": "setMinter",
      "outputs": [],
      "stateMutability": "nonpayable",
      "type": "function"
    },
    {
      "inputs": [],
      "name": "token",
      "outputs": [
        {
          "internalType": "address",
          "name": "",
          "type": "address"
        }
      ],
      "stateMutability": "view",
      "type": "function"
    },
    {
      "inputs": [
        {
          "internalType": "address",
          "name": "newOwner",
          "type": "address"
        }
      ],
      "name": "transferOwnership",
      "outputs": [],
      "stateMutability": "nonpayable",
      "type": "function"
    }
  ],
  "transactionHash": "0x84c7295298202402e281f09c031b2fc1ef0b67ab1314806e3a8b8d60ae64a958",
  "args": [
    "0x85C09c861E228fcB537BD598264Efe3e32558224"
  ],
  "solcInputHash": "f68ee801279c5730ebe336840450dfbc",
  "bytecode": "0x60a060405234801561001057600080fd5b50604051610f25380380610f258339818101604052602081101561003357600080fd5b5051600061003f6100d6565b600080546001600160a01b0319166001600160a01b0383169081178255604051929350917f8be0079c531659141344cd1fd0a4f28419497f9722a3daafe3b4186f6b6457e0908290a350606081901b6001600160601b0319166080526100cd6301e133806100bb42620151806100da602090811b61065617901c565b61013b60201b6106b91790919060201c565b6003555061021a565b3390565b600082820183811015610134576040805162461bcd60e51b815260206004820152601b60248201527f536166654d6174683a206164646974696f6e206f766572666c6f770000000000604482015290519081900360640190fd5b9392505050565b600061013483836040518060400160405280601e81526020017f536166654d6174683a207375627472616374696f6e206f766572666c6f77000081525061018360201b60201c565b600081848411156102125760405162461bcd60e51b81526004018080602001828103825283818151815260200191508051906020019080838360005b838110156101d75781810151838201526020016101bf565b50505050905090810190601f1680156102045780820380516001836020036101000a031916815260200191505b509250505060405180910390fd5b505050900390565b60805160601c610ce461024160003980610219528061031952806105615250610ce46000f3fe608060405234801561001057600080fd5b50600436106100f55760003560e01c80637efad8e011610097578063b87b561611610066578063b87b56161461018e578063f2fde38b146101a6578063fc0c546a146101cc578063fca3b5aa146101d4576100f5565b80637efad8e014610186578063839145401461018e5780638da5cb5b14610196578063b26b238e1461019e576100f5565b80632c468465116100d35780632c468465146101405780632c4e722e1461014857806340c10f1914610150578063715018a61461017e576100f5565b806307546172146100fa57806321609bbf1461011e57806324f92a2514610138575b600080fd5b6101026101fa565b604080516001600160a01b039092168252519081900360200190f35b610126610209565b60408051918252519081900360200190f35b610126610215565b6101266102b6565b6101266102bd565b61017c6004803603604081101561016657600080fd5b506001600160a01b0381351690602001356102c3565b005b61017c610344565b6101266103f8565b610126610404565b61010261040c565b61012661041b565b61017c600480360360208110156101bc57600080fd5b50356001600160a01b0316610455565b61010261055f565b61017c600480360360208110156101ea57600080fd5b50356001600160a01b0316610583565b6001546001600160a01b031681565b671080e992061ab30081565b60007f00000000000000000000000000000000000000000000000000000000000000006001600160a01b03166370a08231306040518263ffffffff1660e01b815260040180826001600160a01b0316815260200191505060206040518083038186803b15801561028457600080fd5b505afa158015610298573d6000803e3d6000fd5b505050506040513d60208110156102ae57600080fd5b505190505b90565b6201518081565b60025481565b6001546001600160a01b0316331461030c576040805162461bcd60e51b815260206004820152600760248201526610b6b4b73a32b960c91b604482015290519081900360640190fd5b6103406001600160a01b037f00000000000000000000000000000000000000000000000000000000000000001683836106fb565b5050565b61034c610752565b6000546001600160a01b039081169116146103ae576040805162461bcd60e51b815260206004820181905260248201527f4f776e61626c653a2063616c6c6572206973206e6f7420746865206f776e6572604482015290519081900360640190fd5b600080546040516001600160a01b03909116907f8be0079c531659141344cd1fd0a4f28419497f9722a3daafe3b4186f6b6457e0908390a3600080546001600160a01b0319169055565b670de0b6b3a764000081565b6301e1338081565b6000546001600160a01b031690565b60035460009061042f906301e13380610656565b421061043d5761043d610756565b60035461044e906301e13380610656565b90506102b3565b61045d610752565b6000546001600160a01b039081169116146104bf576040805162461bcd60e51b815260206004820181905260248201527f4f776e61626c653a2063616c6c6572206973206e6f7420746865206f776e6572604482015290519081900360640190fd5b6001600160a01b0381166105045760405162461bcd60e51b8152600401808060200182810382526026815260200180610c186026913960400191505060405180910390fd5b600080546040516001600160a01b03808516939216917f8be0079c531659141344cd1fd0a4f28419497f9722a3daafe3b4186f6b6457e091a3600080546001600160a01b0319166001600160a01b0392909216919091179055565b7f000000000000000000000000000000000000000000000000000000000000000081565b61058b610752565b6000546001600160a01b039081169116146105ed576040805162461bcd60e51b815260206004820181905260248201527f4f776e61626c653a2063616c6c6572206973206e6f7420746865206f776e6572604482015290519081900360640190fd5b6001546001600160a01b031615610634576040805162461bcd60e51b815260206004820152600660248201526536b4b73a32b960d11b604482015290519081900360640190fd5b600180546001600160a01b0319166001600160a01b0392909216919091179055565b6000828201838110156106b0576040805162461bcd60e51b815260206004820152601b60248201527f536166654d6174683a206164646974696f6e206f766572666c6f770000000000604482015290519081900360640190fd5b90505b92915050565b60006106b083836040518060400160405280601e81526020017f536166654d6174683a207375627472616374696f6e206f766572666c6f7700008152506107eb565b604080516001600160a01b038416602482015260448082018490528251808303909101815260649091019091526020810180516001600160e01b031663a9059cbb60e01b17905261074d908490610887565b505050565b3390565b600354610767906301e13380610656565b6003556002546107a1576107996301e13380610793670de0b6b3a764000061078d610215565b90610938565b90610991565b6002556107e9565b6002546107bf906107b6906301e13380610938565b60045490610656565b6004556002546107e590671080e992061ab3009061079390670de0b6b3a7640000610938565b6002555b565b6000818484111561087a5760405162461bcd60e51b81526004018080602001828103825283818151815260200191508051906020019080838360005b8381101561083f578181015183820152602001610827565b50505050905090810190601f16801561086c5780820380516001836020036101000a031916815260200191505b509250505060405180910390fd5b50508183035b9392505050565b60606108dc826040518060400160405280602081526020017f5361666545524332303a206c6f772d6c6576656c2063616c6c206661696c6564815250856001600160a01b03166109d39092919063ffffffff16565b80519091501561074d578080602001905160208110156108fb57600080fd5b505161074d5760405162461bcd60e51b815260040180806020018281038252602a815260200180610c85602a913960400191505060405180910390fd5b600082610947575060006106b3565b8282028284828161095457fe5b04146106b05760405162461bcd60e51b8152600401808060200182810382526021815260200180610c646021913960400191505060405180910390fd5b60006106b083836040518060400160405280601a81526020017f536166654d6174683a206469766973696f6e206279207a65726f0000000000008152506109ea565b60606109e28484600085610a4f565b949350505050565b60008183610a395760405162461bcd60e51b815260206004820181815283516024840152835190928392604490910191908501908083836000831561083f578181015183820152602001610827565b506000838581610a4557fe5b0495945050505050565b606082471015610a905760405162461bcd60e51b8152600401808060200182810382526026815260200180610c3e6026913960400191505060405180910390fd5b610a9985610bab565b610aea576040805162461bcd60e51b815260206004820152601d60248201527f416464726573733a2063616c6c20746f206e6f6e2d636f6e7472616374000000604482015290519081900360640190fd5b60006060866001600160a01b031685876040518082805190602001908083835b60208310610b295780518252601f199092019160209182019101610b0a565b6001836020036101000a03801982511681845116808217855250505050505090500191505060006040518083038185875af1925050503d8060008114610b8b576040519150601f19603f3d011682016040523d82523d6000602084013e610b90565b606091505b5091509150610ba0828286610bb1565b979650505050505050565b3b151590565b60608315610bc0575081610880565b825115610bd05782518084602001fd5b60405162461bcd60e51b815260206004820181815284516024840152845185939192839260440191908501908083836000831561083f57818101518382015260200161082756fe4f776e61626c653a206e6577206f776e657220697320746865207a65726f2061646472657373416464726573733a20696e73756666696369656e742062616c616e636520666f722063616c6c536166654d6174683a206d756c7469706c69636174696f6e206f766572666c6f775361666545524332303a204552433230206f7065726174696f6e20646964206e6f742073756363656564a264697066735822122057e4152eab3a798b41d62f742b1385f4661396c060375b1dd2c04708b1746fde64736f6c634300060c0033",
  "devdoc": {
    "kind": "dev",
    "methods": {
      "owner()": {
        "details": "Returns the address of the current owner."
      },
      "renounceOwnership()": {
        "details": "Leaves the contract without owner. It will not be possible to call `onlyOwner` functions anymore. Can only be called by the current owner. NOTE: Renouncing ownership will leave the contract without an owner, thereby removing any functionality that is only available to the owner."
      },
      "setMinter(address)": {
        "details": "can only be set once"
      },
      "transferOwnership(address)": {
        "details": "Transfers ownership of the contract to a new account (`newOwner`). Can only be called by the current owner."
      }
    },
    "version": 1
  },
  "userdoc": {
    "kind": "user",
    "methods": {},
    "version": 1
  },
  "storageLayout": {
    "storage": [
      {
        "astId": 30,
        "contract": "contracts/v3/MinterWrapper.sol:MinterWrapper",
        "label": "_owner",
        "offset": 0,
        "slot": "0",
        "type": "t_address"
      },
      {
        "astId": 22748,
        "contract": "contracts/v3/MinterWrapper.sol:MinterWrapper",
        "label": "minter",
        "offset": 0,
        "slot": "1",
        "type": "t_address"
      },
      {
        "astId": 22750,
        "contract": "contracts/v3/MinterWrapper.sol:MinterWrapper",
        "label": "rate",
        "offset": 0,
        "slot": "2",
        "type": "t_uint256"
      },
      {
        "astId": 22752,
        "contract": "contracts/v3/MinterWrapper.sol:MinterWrapper",
        "label": "_start_epoch_time",
        "offset": 0,
        "slot": "3",
        "type": "t_uint256"
      },
      {
        "astId": 22754,
        "contract": "contracts/v3/MinterWrapper.sol:MinterWrapper",
        "label": "_start_epoch_supply",
        "offset": 0,
        "slot": "4",
        "type": "t_uint256"
      }
    ],
    "types": {
      "t_address": {
        "encoding": "inplace",
        "label": "address",
        "numberOfBytes": "20"
      },
      "t_uint256": {
        "encoding": "inplace",
        "label": "uint256",
        "numberOfBytes": "32"
      }
    }
  }
}