{
  "address": "0x4795A42e31a18362e4aE51B94064565750C4E5B2",
  "abi": [
    {
      "inputs": [
        {
          "internalType": "address",
          "name": "_token",
          "type": "address"
        }
      ],
      "stateMutability": "nonpayable",
      "type": "constructor"
    },
    {
      "anonymous": false,
      "inputs": [
        {
          "indexed": true,
          "internalType": "address",
          "name": "previousOwner",
          "type": "address"
        },
        {
          "indexed": true,
          "internalType": "address",
          "name": "newOwner",
          "type": "address"
        }
      ],
      "name": "OwnershipTransferred",
      "type": "event"
    },
    {
      "anonymous": false,
      "inputs": [],
      "name": "Write",
      "type": "event"
    },
    {
      "inputs": [],
      "name": "available_supply",
      "outputs": [
        {
          "internalType": "uint256",
          "name": "",
          "type": "uint256"
        }
      ],
      "stateMutability": "view",
      "type": "function"
    },
    {
      "inputs": [],
      "name": "future_epoch_time_write",
      "outputs": [
        {
          "internalType": "uint256",
          "name": "",
          "type": "uint256"
        }
      ],
      "stateMutability": "nonpayable",
      "type": "function"
    },
    {
      "inputs": [
        {
          "internalType": "address",
          "name": "_account",
          "type": "address"
        },
        {
          "internalType": "uint256",
          "name": "_amount",
          "type": "uint256"
        }
      ],
      "name": "mint",
      "outputs": [
        {
          "internalType": "bool",
          "name": "",
          "type": "bool"
        }
      ],
      "stateMutability": "nonpayable",
      "type": "function"
    },
    {
      "inputs": [],
      "name": "minter",
      "outputs": [
        {
          "internalType": "address",
          "name": "",
          "type": "address"
        }
      ],
      "stateMutability": "view",
      "type": "function"
    },
    {
      "inputs": [],
      "name": "owner",
      "outputs": [
        {
          "internalType": "address",
          "name": "",
          "type": "address"
        }
      ],
      "stateMutability": "view",
      "type": "function"
    },
    {
      "inputs": [],
      "name": "rate",
      "outputs": [
        {
          "internalType": "uint256",
          "name": "",
          "type": "uint256"
        }
      ],
      "stateMutability": "view",
      "type": "function"
    },
    {
      "inputs": [],
      "name": "renounceOwnership",
      "outputs": [],
      "stateMutability": "nonpayable",
      "type": "function"
    },
    {
      "inputs": [
        {
          "internalType": "address",
          "name": "_minter",
          "type": "address"
        }
      ],
      "name": "setMinter",
      "outputs": [],
      "stateMutability": "nonpayable",
      "type": "function"
    },
    {
      "inputs": [
        {
          "internalType": "uint256",
          "name": "_rate",
          "type": "uint256"
        }
      ],
      "name": "setRate",
      "outputs": [],
      "stateMutability": "nonpayable",
      "type": "function"
    },
    {
      "inputs": [],
      "name": "token",
      "outputs": [
        {
          "internalType": "contract IERC20",
          "name": "",
          "type": "address"
        }
      ],
      "stateMutability": "view",
      "type": "function"
    },
    {
      "inputs": [
        {
          "internalType": "address",
          "name": "newOwner",
          "type": "address"
        }
      ],
      "name": "transferOwnership",
      "outputs": [],
      "stateMutability": "nonpayable",
      "type": "function"
    }
  ],
  "transactionHash": "0x85ff0e1f3b15abf1c8f4bcc05390bdf1bc8f2155c776b218234c02bc4e5211b7",
  "args": [
    "0xA0e08288787cBE076A4A6380dA86953aF85E2C35"
  ],
  "solcInputHash": "ed02ffea74d81360ebf7246e8a46eb27",
  "bytecode": "0x60a060405234801561001057600080fd5b50604051610ae1380380610ae18339818101604052602081101561003357600080fd5b5051600061003f6100a7565b600080546001600160a01b0319166001600160a01b0383169081178255604051929350917f8be0079c531659141344cd1fd0a4f28419497f9722a3daafe3b4186f6b6457e0908290a35060601b6001600160601b03191660805264e8d4a510006002556100ab565b3390565b60805160601c610a0f6100d2600039806101d2528061032a52806105355250610a0f6000f3fe608060405234801561001057600080fd5b50600436106100a95760003560e01c8063715018a611610071578063715018a6146101535780638da5cb5b1461015b578063b26b238e14610163578063f2fde38b1461016b578063fc0c546a14610191578063fca3b5aa14610199576100a9565b806307546172146100ae57806324f92a25146100d25780632c4e722e146100ec57806334fcf437146100f457806340c10f1914610113575b600080fd5b6100b66101bf565b604080516001600160a01b039092168252519081900360200190f35b6100da6101ce565b60408051918252519081900360200190f35b6100da61026e565b6101116004803603602081101561010a57600080fd5b5035610274565b005b61013f6004803603604081101561012957600080fd5b506001600160a01b0381351690602001356102d1565b604080519115158252519081900360200190f35b61011161035a565b6100b66103fc565b6100da61040b565b6101116004803603602081101561018157600080fd5b50356001600160a01b031661043b565b6100b6610533565b610111600480360360208110156101af57600080fd5b50356001600160a01b0316610557565b6001546001600160a01b031681565b60007f00000000000000000000000000000000000000000000000000000000000000006001600160a01b03166370a08231306040518263ffffffff1660e01b815260040180826001600160a01b0316815260200191505060206040518083038186803b15801561023d57600080fd5b505afa158015610251573d6000803e3d6000fd5b505050506040513d602081101561026757600080fd5b5051905090565b60025481565b61027c610618565b6000546001600160a01b039081169116146102cc576040805162461bcd60e51b81526020600482018190526024820152600080516020610990833981519152604482015290519081900360640190fd5b600255565b6001546000906001600160a01b0316331461031d576040805162461bcd60e51b815260206004820152600760248201526610b6b4b73a32b960c91b604482015290519081900360640190fd5b6103516001600160a01b037f000000000000000000000000000000000000000000000000000000000000000016848461061c565b50600192915050565b610362610618565b6000546001600160a01b039081169116146103b2576040805162461bcd60e51b81526020600482018190526024820152600080516020610990833981519152604482015290519081900360640190fd5b600080546040516001600160a01b03909116907f8be0079c531659141344cd1fd0a4f28419497f9722a3daafe3b4186f6b6457e0908390a3600080546001600160a01b0319169055565b6000546001600160a01b031690565b6040516000907fa770741dfa46df8fdae160a7ade69f85bc4341511294e8b14ea83c3eade29a95908290a1504290565b610443610618565b6000546001600160a01b03908116911614610493576040805162461bcd60e51b81526020600482018190526024820152600080516020610990833981519152604482015290519081900360640190fd5b6001600160a01b0381166104d85760405162461bcd60e51b81526004018080602001828103825260268152602001806109446026913960400191505060405180910390fd5b600080546040516001600160a01b03808516939216917f8be0079c531659141344cd1fd0a4f28419497f9722a3daafe3b4186f6b6457e091a3600080546001600160a01b0319166001600160a01b0392909216919091179055565b7f000000000000000000000000000000000000000000000000000000000000000081565b61055f610618565b6000546001600160a01b039081169116146105af576040805162461bcd60e51b81526020600482018190526024820152600080516020610990833981519152604482015290519081900360640190fd5b6001546001600160a01b0316156105f6576040805162461bcd60e51b815260206004820152600660248201526536b4b73a32b960d11b604482015290519081900360640190fd5b600180546001600160a01b0319166001600160a01b0392909216919091179055565b3390565b604080516001600160a01b038416602482015260448082018490528251808303909101815260649091019091526020810180516001600160e01b031663a9059cbb60e01b17905261066e908490610673565b505050565b60606106c8826040518060400160405280602081526020017f5361666545524332303a206c6f772d6c6576656c2063616c6c206661696c6564815250856001600160a01b03166107249092919063ffffffff16565b80519091501561066e578080602001905160208110156106e757600080fd5b505161066e5760405162461bcd60e51b815260040180806020018281038252602a8152602001806109b0602a913960400191505060405180910390fd5b6060610733848460008561073d565b90505b9392505050565b60608247101561077e5760405162461bcd60e51b815260040180806020018281038252602681526020018061096a6026913960400191505060405180910390fd5b61078785610899565b6107d8576040805162461bcd60e51b815260206004820152601d60248201527f416464726573733a2063616c6c20746f206e6f6e2d636f6e7472616374000000604482015290519081900360640190fd5b60006060866001600160a01b031685876040518082805190602001908083835b602083106108175780518252601f1990920191602091820191016107f8565b6001836020036101000a03801982511681845116808217855250505050505090500191505060006040518083038185875af1925050503d8060008114610879576040519150601f19603f3d011682016040523d82523d6000602084013e61087e565b606091505b509150915061088e82828661089f565b979650505050505050565b3b151590565b606083156108ae575081610736565b8251156108be5782518084602001fd5b8160405162461bcd60e51b81526004018080602001828103825283818151815260200191508051906020019080838360005b838110156109085781810151838201526020016108f0565b50505050905090810190601f1680156109355780820380516001836020036101000a031916815260200191505b509250505060405180910390fdfe4f776e61626c653a206e6577206f776e657220697320746865207a65726f2061646472657373416464726573733a20696e73756666696369656e742062616c616e636520666f722063616c6c4f776e61626c653a2063616c6c6572206973206e6f7420746865206f776e65725361666545524332303a204552433230206f7065726174696f6e20646964206e6f742073756363656564a2646970667358221220117358ecd8c22507f209d5eb4b77e6f5dfa793bbdbfaefbc69284aa6959ae25c64736f6c634300060c0033",
  "devdoc": {
    "kind": "dev",
    "methods": {
      "future_epoch_time_write()": {
        "details": "Emits Write event to prevent from being a view function"
      },
      "mint(address,uint256)": {
        "details": "Requires this contract to be funded with the reward token",
        "params": {
          "_account": "The address to receive the reward tokens",
          "_amount": "The amount of tokens to send the receiver"
        }
      },
      "owner()": {
        "details": "Returns the address of the current owner."
      },
      "renounceOwnership()": {
        "details": "Leaves the contract without owner. It will not be possible to call `onlyOwner` functions anymore. Can only be called by the current owner. NOTE: Renouncing ownership will leave the contract without an owner, thereby removing any functionality that is only available to the owner."
      },
      "setMinter(address)": {
        "details": "can only be set once",
        "params": {
          "_minter": "The address of the minter"
        }
      },
      "setRate(uint256)": {
        "params": {
          "_rate": "The rate of reward token emissions"
        }
      },
      "transferOwnership(address)": {
        "details": "Transfers ownership of the contract to a new account (`newOwner`). Can only be called by the current owner."
      }
    },
    "version": 1
  },
  "userdoc": {
    "kind": "user",
    "methods": {
      "available_supply()": {
        "notice": "Returns the amount of reward tokens on this contract"
      },
      "future_epoch_time_write()": {
        "notice": "Returns the current block timestamp"
      },
      "mint(address,uint256)": {
        "notice": "Mints the given amount to the given account"
      },
      "setMinter(address)": {
        "notice": "Sets the address of the minter contract"
      },
      "setRate(uint256)": {
        "notice": "Sets the emission rate"
      }
    },
    "version": 1
  },
  "storageLayout": {
    "storage": [
      {
        "astId": 30,
        "contract": "contracts/v3/MinterWrapper.sol:MinterWrapper",
        "label": "_owner",
        "offset": 0,
        "slot": "0",
        "type": "t_address"
      },
      {
        "astId": 22737,
        "contract": "contracts/v3/MinterWrapper.sol:MinterWrapper",
        "label": "minter",
        "offset": 0,
        "slot": "1",
        "type": "t_address"
      },
      {
        "astId": 22739,
        "contract": "contracts/v3/MinterWrapper.sol:MinterWrapper",
        "label": "rate",
        "offset": 0,
        "slot": "2",
        "type": "t_uint256"
      }
    ],
    "types": {
      "t_address": {
        "encoding": "inplace",
        "label": "address",
        "numberOfBytes": "20"
      },
      "t_uint256": {
        "encoding": "inplace",
        "label": "uint256",
        "numberOfBytes": "32"
      }
    }
  }
}