{
  "address": "0x16f456Bc28796E42BdC45cda36C26695D0f7a8Ab",
  "abi": [
    {
      "inputs": [
        {
          "internalType": "address",
          "name": "_token",
          "type": "address"
        }
      ],
      "stateMutability": "nonpayable",
      "type": "constructor"
    },
    {
      "anonymous": false,
      "inputs": [
        {
          "indexed": true,
          "internalType": "address",
          "name": "previousOwner",
          "type": "address"
        },
        {
          "indexed": true,
          "internalType": "address",
          "name": "newOwner",
          "type": "address"
        }
      ],
      "name": "OwnershipTransferred",
      "type": "event"
    },
    {
      "anonymous": false,
      "inputs": [],
      "name": "Write",
      "type": "event"
    },
    {
      "inputs": [],
      "name": "available_supply",
      "outputs": [
        {
          "internalType": "uint256",
          "name": "",
          "type": "uint256"
        }
      ],
      "stateMutability": "view",
      "type": "function"
    },
    {
      "inputs": [],
      "name": "future_epoch_time_write",
      "outputs": [
        {
          "internalType": "uint256",
          "name": "",
          "type": "uint256"
        }
      ],
      "stateMutability": "nonpayable",
      "type": "function"
    },
    {
      "inputs": [
        {
          "internalType": "address",
          "name": "_account",
          "type": "address"
        },
        {
          "internalType": "uint256",
          "name": "_amount",
          "type": "uint256"
        }
      ],
      "name": "mint",
      "outputs": [
        {
          "internalType": "bool",
          "name": "",
          "type": "bool"
        }
      ],
      "stateMutability": "nonpayable",
      "type": "function"
    },
    {
      "inputs": [],
      "name": "minter",
      "outputs": [
        {
          "internalType": "address",
          "name": "",
          "type": "address"
        }
      ],
      "stateMutability": "view",
      "type": "function"
    },
    {
      "inputs": [],
      "name": "owner",
      "outputs": [
        {
          "internalType": "address",
          "name": "",
          "type": "address"
        }
      ],
      "stateMutability": "view",
      "type": "function"
    },
    {
      "inputs": [],
      "name": "rate",
      "outputs": [
        {
          "internalType": "uint256",
          "name": "",
          "type": "uint256"
        }
      ],
      "stateMutability": "view",
      "type": "function"
    },
    {
      "inputs": [],
      "name": "renounceOwnership",
      "outputs": [],
      "stateMutability": "nonpayable",
      "type": "function"
    },
    {
      "inputs": [
        {
          "internalType": "address",
          "name": "_minter",
          "type": "address"
        }
      ],
      "name": "setMinter",
      "outputs": [],
      "stateMutability": "nonpayable",
      "type": "function"
    },
    {
      "inputs": [
        {
          "internalType": "uint256",
          "name": "_rate",
          "type": "uint256"
        }
      ],
      "name": "setRate",
      "outputs": [],
      "stateMutability": "nonpayable",
      "type": "function"
    },
    {
      "inputs": [],
      "name": "token",
      "outputs": [
        {
          "internalType": "contract IERC20",
          "name": "",
          "type": "address"
        }
      ],
      "stateMutability": "view",
      "type": "function"
    },
    {
      "inputs": [
        {
          "internalType": "address",
          "name": "newOwner",
          "type": "address"
        }
      ],
      "name": "transferOwnership",
      "outputs": [],
      "stateMutability": "nonpayable",
      "type": "function"
    }
  ],
  "transactionHash": "0xc804ecdb29bd959164ad054534893b1a6014ed75058d7e7b1405642749b6e022",
  "args": [
    "0x8624474F9E886b59A3317F3Ab598fFA63e050E96"
  ],
  "solcInputHash": "39b59b8416d0b0014a452466e334885c",
  "bytecode": "0x60a060405234801561001057600080fd5b50604051610b4f380380610b4f8339818101604052602081101561003357600080fd5b5051600061003f6100a7565b600080546001600160a01b0319166001600160a01b0383169081178255604051929350917f8be0079c531659141344cd1fd0a4f28419497f9722a3daafe3b4186f6b6457e0908290a35060601b6001600160601b03191660805264e8d4a510006002556100ab565b3390565b60805160601c610a7d6100d2600039806101d2528061033452806105535250610a7d6000f3fe608060405234801561001057600080fd5b50600436106100a95760003560e01c8063715018a611610071578063715018a6146101535780638da5cb5b1461015b578063b26b238e14610163578063f2fde38b1461016b578063fc0c546a14610191578063fca3b5aa14610199576100a9565b806307546172146100ae57806324f92a25146100d25780632c4e722e146100ec57806334fcf437146100f457806340c10f1914610113575b600080fd5b6100b66101bf565b604080516001600160a01b039092168252519081900360200190f35b6100da6101ce565b60408051918252519081900360200190f35b6100da61026e565b6101116004803603602081101561010a57600080fd5b5035610274565b005b61013f6004803603604081101561012957600080fd5b506001600160a01b0381351690602001356102db565b604080519115158252519081900360200190f35b610111610364565b6100b6610410565b6100da61041f565b6101116004803603602081101561018157600080fd5b50356001600160a01b031661044f565b6100b6610551565b610111600480360360208110156101af57600080fd5b50356001600160a01b0316610575565b6001546001600160a01b031681565b60007f00000000000000000000000000000000000000000000000000000000000000006001600160a01b03166370a08231306040518263ffffffff1660e01b815260040180826001600160a01b0316815260200191505060206040518083038186803b15801561023d57600080fd5b505afa158015610251573d6000803e3d6000fd5b505050506040513d602081101561026757600080fd5b5051905090565b60025481565b61027c610686565b6001600160a01b031661028d610410565b6001600160a01b0316146102d6576040805162461bcd60e51b815260206004820181905260248201526000805160206109fe833981519152604482015290519081900360640190fd5b600255565b6001546000906001600160a01b03163314610327576040805162461bcd60e51b815260206004820152600760248201526610b6b4b73a32b960c91b604482015290519081900360640190fd5b61035b6001600160a01b037f000000000000000000000000000000000000000000000000000000000000000016848461068a565b50600192915050565b61036c610686565b6001600160a01b031661037d610410565b6001600160a01b0316146103c6576040805162461bcd60e51b815260206004820181905260248201526000805160206109fe833981519152604482015290519081900360640190fd5b600080546040516001600160a01b03909116907f8be0079c531659141344cd1fd0a4f28419497f9722a3daafe3b4186f6b6457e0908390a3600080546001600160a01b0319169055565b6000546001600160a01b031690565b6040516000907fa770741dfa46df8fdae160a7ade69f85bc4341511294e8b14ea83c3eade29a95908290a1504290565b610457610686565b6001600160a01b0316610468610410565b6001600160a01b0316146104b1576040805162461bcd60e51b815260206004820181905260248201526000805160206109fe833981519152604482015290519081900360640190fd5b6001600160a01b0381166104f65760405162461bcd60e51b81526004018080602001828103825260268152602001806109b26026913960400191505060405180910390fd5b600080546040516001600160a01b03808516939216917f8be0079c531659141344cd1fd0a4f28419497f9722a3daafe3b4186f6b6457e091a3600080546001600160a01b0319166001600160a01b0392909216919091179055565b7f000000000000000000000000000000000000000000000000000000000000000081565b61057d610686565b6001600160a01b031661058e610410565b6001600160a01b0316146105d7576040805162461bcd60e51b815260206004820181905260248201526000805160206109fe833981519152604482015290519081900360640190fd5b6001546001600160a01b03161561061e576040805162461bcd60e51b815260206004820152600660248201526536b4b73a32b960d11b604482015290519081900360640190fd5b6001600160a01b038116610664576040805162461bcd60e51b815260206004820152600860248201526710afb6b4b73a32b960c11b604482015290519081900360640190fd5b600180546001600160a01b0319166001600160a01b0392909216919091179055565b3390565b604080516001600160a01b038416602482015260448082018490528251808303909101815260649091019091526020810180516001600160e01b031663a9059cbb60e01b1790526106dc9084906106e1565b505050565b6060610736826040518060400160405280602081526020017f5361666545524332303a206c6f772d6c6576656c2063616c6c206661696c6564815250856001600160a01b03166107929092919063ffffffff16565b8051909150156106dc5780806020019051602081101561075557600080fd5b50516106dc5760405162461bcd60e51b815260040180806020018281038252602a815260200180610a1e602a913960400191505060405180910390fd5b60606107a184846000856107ab565b90505b9392505050565b6060824710156107ec5760405162461bcd60e51b81526004018080602001828103825260268152602001806109d86026913960400191505060405180910390fd5b6107f585610907565b610846576040805162461bcd60e51b815260206004820152601d60248201527f416464726573733a2063616c6c20746f206e6f6e2d636f6e7472616374000000604482015290519081900360640190fd5b60006060866001600160a01b031685876040518082805190602001908083835b602083106108855780518252601f199092019160209182019101610866565b6001836020036101000a03801982511681845116808217855250505050505090500191505060006040518083038185875af1925050503d80600081146108e7576040519150601f19603f3d011682016040523d82523d6000602084013e6108ec565b606091505b50915091506108fc82828661090d565b979650505050505050565b3b151590565b6060831561091c5750816107a4565b82511561092c5782518084602001fd5b8160405162461bcd60e51b81526004018080602001828103825283818151815260200191508051906020019080838360005b8381101561097657818101518382015260200161095e565b50505050905090810190601f1680156109a35780820380516001836020036101000a031916815260200191505b509250505060405180910390fdfe4f776e61626c653a206e6577206f776e657220697320746865207a65726f2061646472657373416464726573733a20696e73756666696369656e742062616c616e636520666f722063616c6c4f776e61626c653a2063616c6c6572206973206e6f7420746865206f776e65725361666545524332303a204552433230206f7065726174696f6e20646964206e6f742073756363656564a2646970667358221220e1cf940d3732918f241f721df051fe0c614c812f6cac0f31b815c3f59f55ba7c64736f6c634300060c0033",
  "devdoc": {
    "kind": "dev",
    "methods": {
      "future_epoch_time_write()": {
        "details": "Emits Write event to prevent from being a view function"
      },
      "mint(address,uint256)": {
        "details": "Requires this contract to be funded with the reward token",
        "params": {
          "_account": "The address to receive the reward tokens",
          "_amount": "The amount of tokens to send the receiver"
        }
      },
      "owner()": {
        "details": "Returns the address of the current owner."
      },
      "renounceOwnership()": {
        "details": "Leaves the contract without owner. It will not be possible to call `onlyOwner` functions anymore. Can only be called by the current owner. NOTE: Renouncing ownership will leave the contract without an owner, thereby removing any functionality that is only available to the owner."
      },
      "setMinter(address)": {
        "details": "can only be set once",
        "params": {
          "_minter": "The address of the minter"
        }
      },
      "setRate(uint256)": {
        "params": {
          "_rate": "The rate of reward token emissions"
        }
      },
      "transferOwnership(address)": {
        "details": "Transfers ownership of the contract to a new account (`newOwner`). Can only be called by the current owner."
      }
    },
    "version": 1
  },
  "userdoc": {
    "kind": "user",
    "methods": {
      "available_supply()": {
        "notice": "Returns the amount of reward tokens on this contract"
      },
      "future_epoch_time_write()": {
        "notice": "Returns the current block timestamp"
      },
      "mint(address,uint256)": {
        "notice": "Mints the given amount to the given account"
      },
      "setMinter(address)": {
        "notice": "Sets the address of the minter contract"
      },
      "setRate(uint256)": {
        "notice": "Sets the emission rate"
      }
    },
    "version": 1
  },
  "storageLayout": {
    "storage": [
      {
        "astId": 10,
        "contract": "contracts/v3/MinterWrapper.sol:MinterWrapper",
        "label": "_owner",
        "offset": 0,
        "slot": "0",
        "type": "t_address"
      },
      {
        "astId": 12106,
        "contract": "contracts/v3/MinterWrapper.sol:MinterWrapper",
        "label": "minter",
        "offset": 0,
        "slot": "1",
        "type": "t_address"
      },
      {
        "astId": 12108,
        "contract": "contracts/v3/MinterWrapper.sol:MinterWrapper",
        "label": "rate",
        "offset": 0,
        "slot": "2",
        "type": "t_uint256"
      }
    ],
    "types": {
      "t_address": {
        "encoding": "inplace",
        "label": "address",
        "numberOfBytes": "20"
      },
      "t_uint256": {
        "encoding": "inplace",
        "label": "uint256",
        "numberOfBytes": "32"
      }
    }
  }
}