{
  "address": "0x6bea6113d06CcA2453917d002b9eEB052ea5Dd6A",
  "abi": [
    {
      "inputs": [
        {
          "internalType": "address",
          "name": "_lpToken",
          "type": "address"
        },
        {
          "internalType": "address",
          "name": "_rewardToken",
          "type": "address"
        },
        {
          "internalType": "uint256",
          "name": "_rewardRate",
          "type": "uint256"
        }
      ],
      "stateMutability": "nonpayable",
      "type": "constructor"
    },
    {
      "inputs": [
        {
          "internalType": "uint256",
          "name": "_pid",
          "type": "uint256"
        },
        {
          "internalType": "uint256",
          "name": "_amount",
          "type": "uint256"
        }
      ],
      "name": "deposit",
      "outputs": [],
      "stateMutability": "nonpayable",
      "type": "function"
    },
    {
      "inputs": [
        {
          "internalType": "uint256",
          "name": "_pid",
          "type": "uint256"
        },
        {
          "internalType": "uint256",
          "name": "_amount",
          "type": "uint256"
        }
      ],
      "name": "exit",
      "outputs": [],
      "stateMutability": "nonpayable",
      "type": "function"
    },
    {
      "inputs": [
        {
          "internalType": "uint256",
          "name": "_pid",
          "type": "uint256"
        }
      ],
      "name": "getReward",
      "outputs": [],
      "stateMutability": "nonpayable",
      "type": "function"
    },
    {
      "inputs": [],
      "name": "lpToken",
      "outputs": [
        {
          "internalType": "contract IERC20",
          "name": "",
          "type": "address"
        }
      ],
      "stateMutability": "view",
      "type": "function"
    },
    {
      "inputs": [
        {
          "internalType": "uint256",
          "name": "_pid",
          "type": "uint256"
        },
        {
          "internalType": "address",
          "name": "_user",
          "type": "address"
        }
      ],
      "name": "poolBalance",
      "outputs": [
        {
          "internalType": "uint256",
          "name": "",
          "type": "uint256"
        }
      ],
      "stateMutability": "view",
      "type": "function"
    },
    {
      "inputs": [
        {
          "internalType": "uint256",
          "name": "",
          "type": "uint256"
        }
      ],
      "name": "poolTokenAddress",
      "outputs": [
        {
          "internalType": "address",
          "name": "",
          "type": "address"
        }
      ],
      "stateMutability": "view",
      "type": "function"
    },
    {
      "inputs": [
        {
          "internalType": "uint256",
          "name": "_pid",
          "type": "uint256"
        },
        {
          "internalType": "address",
          "name": "_user",
          "type": "address"
        }
      ],
      "name": "rewardEarned",
      "outputs": [
        {
          "internalType": "uint256",
          "name": "",
          "type": "uint256"
        }
      ],
      "stateMutability": "view",
      "type": "function"
    },
    {
      "inputs": [],
      "name": "rewardRate",
      "outputs": [
        {
          "internalType": "uint256",
          "name": "",
          "type": "uint256"
        }
      ],
      "stateMutability": "view",
      "type": "function"
    },
    {
      "inputs": [],
      "name": "rewardToken",
      "outputs": [
        {
          "internalType": "contract IERC20",
          "name": "",
          "type": "address"
        }
      ],
      "stateMutability": "view",
      "type": "function"
    },
    {
      "inputs": [
        {
          "internalType": "uint256",
          "name": "_pid",
          "type": "uint256"
        },
        {
          "internalType": "uint256",
          "name": "_amount",
          "type": "uint256"
        }
      ],
      "name": "withdraw",
      "outputs": [],
      "stateMutability": "nonpayable",
      "type": "function"
    }
  ],
  "transactionHash": "0x5fb0aa9ccaacaba28a397a93370a51061b0a89fa331f7498c847e78600cc15b0",
  "args": [
    "0xC2A5B8A56A3259039C2eB5b749c121C237ffEcf4",
    "0x5B5fE76B7b866A660C3bAe2f5819a1452Db18174",
    100
  ],
  "solcInputHash": "0dafef0f9d3baf21ab7d835401fdfdba",
  "bytecode": "0x608060405234801561001057600080fd5b50604051610a0c380380610a0c8339818101604052606081101561003357600080fd5b5080516020820151604090920151600080546001600160a01b039384166001600160a01b0319918216179091556001805493909416921691909117909155600255610989806100836000396000f3fe608060405234801561001057600080fd5b506004361061009e5760003560e01c80635fcbd285116100665780635fcbd2851461017f5780637b0a47ee14610187578063cdfa2c361461018f578063e2bbb158146101bb578063f7c618c1146101de5761009e565b80631c4b774b146100a35780632af9cc41146100c25780632eb5d00d146100e5578063351e7cb31461011e578063441a3e701461015c575b600080fd5b6100c0600480360360208110156100b957600080fd5b50356101e6565b005b6100c0600480360360408110156100d857600080fd5b5080359060200135610210565b610102600480360360208110156100fb57600080fd5b5035610223565b604080516001600160a01b039092168252519081900360200190f35b61014a6004803603604081101561013457600080fd5b50803590602001356001600160a01b031661023e565b60408051918252519081900360200190f35b6100c06004803603604081101561017257600080fd5b5080359060200135610268565b6101026102c0565b61014a6102cf565b61014a600480360360408110156101a557600080fd5b50803590602001356001600160a01b03166102d5565b6100c0600480360360408110156101d157600080fd5b5080359060200135610300565b610102610359565b60006101f282336102d5565b60015490915061020c906001600160a01b03163383610368565b5050565b61021a8282610268565b61020c826101e6565b6004602052600090815260409020546001600160a01b031681565b60008281526003602090815260408083206001600160a01b03851684529091529020545b92915050565b600082815260036020908152604080832033845290915290205461028c90826103bf565b60008381526003602090815260408083203380855292528220929092555461020c916001600160a01b039091169083610368565b6000546001600160a01b031681565b60025481565b60006102f96103e86102f36002546102ed878761023e565b90610401565b9061045a565b9392505050565b6000828152600360209081526040808320338452909152902054610324908261049c565b60008381526003602090815260408083203380855292528220929092555461020c916001600160a01b039091169030846104f6565b6001546001600160a01b031681565b604080516001600160a01b038416602482015260448082018490528251808303909101815260649091019091526020810180516001600160e01b031663a9059cbb60e01b1790526103ba908490610556565b505050565b60006102f983836040518060400160405280601e81526020017f536166654d6174683a207375627472616374696f6e206f766572666c6f770000815250610607565b60008261041057506000610262565b8282028284828161041d57fe5b04146102f95760405162461bcd60e51b81526004018080602001828103825260218152602001806109096021913960400191505060405180910390fd5b60006102f983836040518060400160405280601a81526020017f536166654d6174683a206469766973696f6e206279207a65726f00000000000081525061069e565b6000828201838110156102f9576040805162461bcd60e51b815260206004820152601b60248201527f536166654d6174683a206164646974696f6e206f766572666c6f770000000000604482015290519081900360640190fd5b604080516001600160a01b0380861660248301528416604482015260648082018490528251808303909101815260849091019091526020810180516001600160e01b03166323b872dd60e01b179052610550908590610556565b50505050565b60606105ab826040518060400160405280602081526020017f5361666545524332303a206c6f772d6c6576656c2063616c6c206661696c6564815250856001600160a01b03166107039092919063ffffffff16565b8051909150156103ba578080602001905160208110156105ca57600080fd5b50516103ba5760405162461bcd60e51b815260040180806020018281038252602a81526020018061092a602a913960400191505060405180910390fd5b600081848411156106965760405162461bcd60e51b81526004018080602001828103825283818151815260200191508051906020019080838360005b8381101561065b578181015183820152602001610643565b50505050905090810190601f1680156106885780820380516001836020036101000a031916815260200191505b509250505060405180910390fd5b505050900390565b600081836106ed5760405162461bcd60e51b815260206004820181815283516024840152835190928392604490910191908501908083836000831561065b578181015183820152602001610643565b5060008385816106f957fe5b0495945050505050565b6060610712848460008561071a565b949350505050565b60608247101561075b5760405162461bcd60e51b81526004018080602001828103825260268152602001806108e36026913960400191505060405180910390fd5b61076485610876565b6107b5576040805162461bcd60e51b815260206004820152601d60248201527f416464726573733a2063616c6c20746f206e6f6e2d636f6e7472616374000000604482015290519081900360640190fd5b60006060866001600160a01b031685876040518082805190602001908083835b602083106107f45780518252601f1990920191602091820191016107d5565b6001836020036101000a03801982511681845116808217855250505050505090500191505060006040518083038185875af1925050503d8060008114610856576040519150601f19603f3d011682016040523d82523d6000602084013e61085b565b606091505b509150915061086b82828661087c565b979650505050505050565b3b151590565b6060831561088b5750816102f9565b82511561089b5782518084602001fd5b60405162461bcd60e51b815260206004820181815284516024840152845185939192839260440191908501908083836000831561065b57818101518382015260200161064356fe416464726573733a20696e73756666696369656e742062616c616e636520666f722063616c6c536166654d6174683a206d756c7469706c69636174696f6e206f766572666c6f775361666545524332303a204552433230206f7065726174696f6e20646964206e6f742073756363656564a264697066735822122004f9e1f5a20c75fa8017463f2da0c0cb4b8dbd04a06b71a0761d2edcac4a505d64736f6c634300060c0033",
  "devdoc": {
    "kind": "dev",
    "methods": {},
    "version": 1
  },
  "userdoc": {
    "kind": "user",
    "methods": {},
    "version": 1
  },
  "storageLayout": {
    "storage": [
      {
        "astId": 5585,
        "contract": "contracts/metavault/mock/MockStabilizePool.sol:MockStabilizePool",
        "label": "lpToken",
        "offset": 0,
        "slot": "0",
        "type": "t_contract(IERC20)799"
      },
      {
        "astId": 5587,
        "contract": "contracts/metavault/mock/MockStabilizePool.sol:MockStabilizePool",
        "label": "rewardToken",
        "offset": 0,
        "slot": "1",
        "type": "t_contract(IERC20)799"
      },
      {
        "astId": 5589,
        "contract": "contracts/metavault/mock/MockStabilizePool.sol:MockStabilizePool",
        "label": "rewardRate",
        "offset": 0,
        "slot": "2",
        "type": "t_uint256"
      },
      {
        "astId": 5602,
        "contract": "contracts/metavault/mock/MockStabilizePool.sol:MockStabilizePool",
        "label": "userInfo",
        "offset": 0,
        "slot": "3",
        "type": "t_mapping(t_uint256,t_mapping(t_address,t_struct(UserInfo)5596_storage))"
      },
      {
        "astId": 5607,
        "contract": "contracts/metavault/mock/MockStabilizePool.sol:MockStabilizePool",
        "label": "poolTokenAddress",
        "offset": 0,
        "slot": "4",
        "type": "t_mapping(t_uint256,t_address)"
      }
    ],
    "types": {
      "t_address": {
        "encoding": "inplace",
        "label": "address",
        "numberOfBytes": "20"
      },
      "t_contract(IERC20)799": {
        "encoding": "inplace",
        "label": "contract IERC20",
        "numberOfBytes": "20"
      },
      "t_mapping(t_address,t_struct(UserInfo)5596_storage)": {
        "encoding": "mapping",
        "key": "t_address",
        "label": "mapping(address => struct MockStabilizePool.UserInfo)",
        "numberOfBytes": "32",
        "value": "t_struct(UserInfo)5596_storage"
      },
      "t_mapping(t_uint256,t_address)": {
        "encoding": "mapping",
        "key": "t_uint256",
        "label": "mapping(uint256 => address)",
        "numberOfBytes": "32",
        "value": "t_address"
      },
      "t_mapping(t_uint256,t_mapping(t_address,t_struct(UserInfo)5596_storage))": {
        "encoding": "mapping",
        "key": "t_uint256",
        "label": "mapping(uint256 => mapping(address => struct MockStabilizePool.UserInfo))",
        "numberOfBytes": "32",
        "value": "t_mapping(t_address,t_struct(UserInfo)5596_storage)"
      },
      "t_struct(UserInfo)5596_storage": {
        "encoding": "inplace",
        "label": "struct MockStabilizePool.UserInfo",
        "members": [
          {
            "astId": 5591,
            "contract": "contracts/metavault/mock/MockStabilizePool.sol:MockStabilizePool",
            "label": "amount",
            "offset": 0,
            "slot": "0",
            "type": "t_uint256"
          },
          {
            "astId": 5593,
            "contract": "contracts/metavault/mock/MockStabilizePool.sol:MockStabilizePool",
            "label": "rewardDebt",
            "offset": 0,
            "slot": "1",
            "type": "t_uint256"
          },
          {
            "astId": 5595,
            "contract": "contracts/metavault/mock/MockStabilizePool.sol:MockStabilizePool",
            "label": "unclaimedReward",
            "offset": 0,
            "slot": "2",
            "type": "t_uint256"
          }
        ],
        "numberOfBytes": "96"
      },
      "t_uint256": {
        "encoding": "inplace",
        "label": "uint256",
        "numberOfBytes": "32"
      }
    }
  }
}