{
  "address": "0xff363bdCfbc52C0d0fA93F23416Ae9A5e015d10f",
  "abi": [
    {
      "inputs": [
        {
          "internalType": "contract IERC20",
          "name": "_univ2LpToken",
          "type": "address"
        }
      ],
      "stateMutability": "nonpayable",
      "type": "constructor"
    },
    {
      "inputs": [
        {
          "internalType": "address",
          "name": "tokenA",
          "type": "address"
        },
        {
          "internalType": "address",
          "name": "tokenB",
          "type": "address"
        },
        {
          "internalType": "uint256",
          "name": "amountADesired",
          "type": "uint256"
        },
        {
          "internalType": "uint256",
          "name": "amountBDesired",
          "type": "uint256"
        },
        {
          "internalType": "uint256",
          "name": "",
          "type": "uint256"
        },
        {
          "internalType": "uint256",
          "name": "",
          "type": "uint256"
        },
        {
          "internalType": "address",
          "name": "to",
          "type": "address"
        },
        {
          "internalType": "uint256",
          "name": "",
          "type": "uint256"
        }
      ],
      "name": "addLiquidity",
      "outputs": [
        {
          "internalType": "uint256",
          "name": "amountA",
          "type": "uint256"
        },
        {
          "internalType": "uint256",
          "name": "amountB",
          "type": "uint256"
        },
        {
          "internalType": "uint256",
          "name": "liquidity",
          "type": "uint256"
        }
      ],
      "stateMutability": "nonpayable",
      "type": "function"
    },
    {
      "inputs": [
        {
          "internalType": "uint256",
          "name": "amountIn",
          "type": "uint256"
        },
        {
          "internalType": "address[]",
          "name": "path",
          "type": "address[]"
        }
      ],
      "name": "getAmountsOut",
      "outputs": [
        {
          "internalType": "uint256[]",
          "name": "amounts",
          "type": "uint256[]"
        }
      ],
      "stateMutability": "view",
      "type": "function"
    },
    {
      "inputs": [
        {
          "internalType": "uint256",
          "name": "amountIn",
          "type": "uint256"
        },
        {
          "internalType": "uint256",
          "name": "amountOutMin",
          "type": "uint256"
        },
        {
          "internalType": "address[]",
          "name": "path",
          "type": "address[]"
        },
        {
          "internalType": "address",
          "name": "to",
          "type": "address"
        },
        {
          "internalType": "uint256",
          "name": "deadline",
          "type": "uint256"
        }
      ],
      "name": "swapExactTokensForTokens",
      "outputs": [
        {
          "internalType": "uint256[]",
          "name": "amounts",
          "type": "uint256[]"
        }
      ],
      "stateMutability": "nonpayable",
      "type": "function"
    },
    {
      "inputs": [
        {
          "internalType": "uint256",
          "name": "amountIn",
          "type": "uint256"
        },
        {
          "internalType": "uint256",
          "name": "amountOutMin",
          "type": "uint256"
        },
        {
          "internalType": "address[]",
          "name": "path",
          "type": "address[]"
        },
        {
          "internalType": "address",
          "name": "to",
          "type": "address"
        },
        {
          "internalType": "uint256",
          "name": "deadline",
          "type": "uint256"
        }
      ],
      "name": "swapExactTokensForTokensSupportingFeeOnTransferTokens",
      "outputs": [
        {
          "internalType": "uint256[]",
          "name": "amounts",
          "type": "uint256[]"
        }
      ],
      "stateMutability": "nonpayable",
      "type": "function"
    }
  ],
  "transactionHash": "0x636c4abf868b8f3a5f48c36cdc08d11fad7b2d15d2f74bcf4aa82225a884ab44",
  "args": [
    "0x0000000000000000000000000000000000000000"
  ],
  "solcInputHash": "e02cfc92f79f85bd8c5a46787d3aa5ed",
  "bytecode": "0x608060405234801561001057600080fd5b506040516109e13803806109e18339818101604052602081101561003357600080fd5b5051600080546001600160a01b039092166001600160a01b031990921691909117905561097c806100656000396000f3fe608060405234801561001057600080fd5b506004361061004c5760003560e01c806338ed1739146100515780635c11d79514610051578063d06ca61f1461012c578063e8e33700146101d6575b600080fd5b6100dc600480360360a081101561006757600080fd5b81359160208101359181019060608101604082013564010000000081111561008e57600080fd5b8201836020820111156100a057600080fd5b803590602001918460208302840111640100000000831117156100c257600080fd5b91935091506001600160a01b038135169060200135610249565b60408051602080825283518183015283519192839290830191858101910280838360005b83811015610118578181015183820152602001610100565b505050509050019250505060405180910390f35b6100dc6004803603604081101561014257600080fd5b8135919081019060408101602082013564010000000081111561016457600080fd5b82018360208201111561017657600080fd5b8035906020019184602083028401116401000000008311171561019857600080fd5b919080806020026020016040519081016040528093929190818152602001838360200280828437600092019190915250929550610264945050505050565b61022b60048036036101008110156101ed57600080fd5b506001600160a01b038135811691602081013582169160408201359160608101359160808201359160a08101359160c0820135169060e001356102f9565b60408051938452602084019290925282820152519081900360600190f35b6060610259878787878787610364565b979650505050505050565b6060815167ffffffffffffffff8111801561027e57600080fd5b506040519080825280602002602001820160405280156102a8578160200160208202803683370190505b50905082816000815181106102b957fe5b60209081029190910101526102da60646102d4856009610451565b906104b3565b816001815181106102e757fe5b60200260200101818152505092915050565b600080600087891061030b578761030d565b885b925082915081905061032a6001600160a01b038c163330846104f5565b61033f6001600160a01b038b163330856104f5565b600054610356906001600160a01b03168683610555565b985098509895505050505050565b60606000610373886001610451565b905060008686600081811061038457fe5b905060200201356001600160a01b031690506000878760018a8a9050038181106103aa57fe5b905060200201356001600160a01b031690506103dc33308c856001600160a01b03166104f5909392919063ffffffff16565b6103f06001600160a01b0382168785610555565b6040805160028082526060820183529091602083019080368337019050509350898460008151811061041e57fe5b602002602001018181525050828460018151811061043857fe5b6020026020010181815250505050509695505050505050565b600082610460575060006104ad565b8282028284828161046d57fe5b04146104aa5760405162461bcd60e51b81526004018080602001828103825260218152602001806108fc6021913960400191505060405180910390fd5b90505b92915050565b60006104aa83836040518060400160405280601a81526020017f536166654d6174683a206469766973696f6e206279207a65726f0000000000008152506105ac565b604080516001600160a01b0380861660248301528416604482015260648082018490528251808303909101815260849091019091526020810180516001600160e01b03166323b872dd60e01b17905261054f908590610650565b50505050565b604080516001600160a01b038416602482015260448082018490528251808303909101815260649091019091526020810180516001600160e01b031663a9059cbb60e01b1790526105a7908490610650565b505050565b600081836106385760405162461bcd60e51b81526004018080602001828103825283818151815260200191508051906020019080838360005b838110156105fd5781810151838201526020016105e5565b50505050905090810190601f16801561062a5780820380516001836020036101000a031916815260200191505b509250505060405180910390fd5b50600083858161064457fe5b049150505b9392505050565b60606106a5826040518060400160405280602081526020017f5361666545524332303a206c6f772d6c6576656c2063616c6c206661696c6564815250856001600160a01b03166107019092919063ffffffff16565b8051909150156105a7578080602001905160208110156106c457600080fd5b50516105a75760405162461bcd60e51b815260040180806020018281038252602a81526020018061091d602a913960400191505060405180910390fd5b60606107108484600085610718565b949350505050565b6060824710156107595760405162461bcd60e51b81526004018080602001828103825260268152602001806108d66026913960400191505060405180910390fd5b61076285610869565b6107b3576040805162461bcd60e51b815260206004820152601d60248201527f416464726573733a2063616c6c20746f206e6f6e2d636f6e7472616374000000604482015290519081900360640190fd5b60006060866001600160a01b031685876040518082805190602001908083835b602083106107f25780518252601f1990920191602091820191016107d3565b6001836020036101000a03801982511681845116808217855250505050505090500191505060006040518083038185875af1925050503d8060008114610854576040519150601f19603f3d011682016040523d82523d6000602084013e610859565b606091505b509150915061025982828661086f565b3b151590565b6060831561087e575081610649565b82511561088e5782518084602001fd5b60405162461bcd60e51b81526020600482018181528451602484015284518593919283926044019190850190808383600083156105fd5781810151838201526020016105e556fe416464726573733a20696e73756666696369656e742062616c616e636520666f722063616c6c536166654d6174683a206d756c7469706c69636174696f6e206f766572666c6f775361666545524332303a204552433230206f7065726174696f6e20646964206e6f742073756363656564a2646970667358221220a24b9853f66006b85e8e4446856bf37029876860f0ff49ba722a7a7a2446f53964736f6c634300060c0033",
  "devdoc": {
    "kind": "dev",
    "methods": {},
    "version": 1
  },
  "userdoc": {
    "kind": "user",
    "methods": {},
    "version": 1
  },
  "storageLayout": {
    "storage": [
      {
        "astId": 7981,
        "contract": "contracts/mock/MockUniswapRouter.sol:MockUniswapRouter",
        "label": "univ2LpToken",
        "offset": 0,
        "slot": "0",
        "type": "t_contract(IERC20)1052"
      }
    ],
    "types": {
      "t_contract(IERC20)1052": {
        "encoding": "inplace",
        "label": "contract IERC20",
        "numberOfBytes": "20"
      }
    }
  }
}