{
  "address": "0xF0cCAbb34899652eFea9751616fd94A73E4bD501",
  "abi": [
    {
      "name": "TokenExchange",
      "inputs": [
        {
          "type": "address",
          "name": "buyer",
          "indexed": true
        },
        {
          "type": "int128",
          "name": "sold_id",
          "indexed": false
        },
        {
          "type": "uint256",
          "name": "tokens_sold",
          "indexed": false
        },
        {
          "type": "int128",
          "name": "bought_id",
          "indexed": false
        },
        {
          "type": "uint256",
          "name": "tokens_bought",
          "indexed": false
        }
      ],
      "anonymous": false,
      "type": "event"
    },
    {
      "name": "AddLiquidity",
      "inputs": [
        {
          "type": "address",
          "name": "provider",
          "indexed": true
        },
        {
          "type": "uint256[2]",
          "name": "token_amounts",
          "indexed": false
        },
        {
          "type": "uint256[2]",
          "name": "fees",
          "indexed": false
        },
        {
          "type": "uint256",
          "name": "invariant",
          "indexed": false
        },
        {
          "type": "uint256",
          "name": "token_supply",
          "indexed": false
        }
      ],
      "anonymous": false,
      "type": "event"
    },
    {
      "name": "RemoveLiquidity",
      "inputs": [
        {
          "type": "address",
          "name": "provider",
          "indexed": true
        },
        {
          "type": "uint256[2]",
          "name": "token_amounts",
          "indexed": false
        },
        {
          "type": "uint256[2]",
          "name": "fees",
          "indexed": false
        },
        {
          "type": "uint256",
          "name": "token_supply",
          "indexed": false
        }
      ],
      "anonymous": false,
      "type": "event"
    },
    {
      "name": "RemoveLiquidityOne",
      "inputs": [
        {
          "type": "address",
          "name": "provider",
          "indexed": true
        },
        {
          "type": "uint256",
          "name": "token_amount",
          "indexed": false
        },
        {
          "type": "uint256",
          "name": "coin_amount",
          "indexed": false
        }
      ],
      "anonymous": false,
      "type": "event"
    },
    {
      "name": "RemoveLiquidityImbalance",
      "inputs": [
        {
          "type": "address",
          "name": "provider",
          "indexed": true
        },
        {
          "type": "uint256[2]",
          "name": "token_amounts",
          "indexed": false
        },
        {
          "type": "uint256[2]",
          "name": "fees",
          "indexed": false
        },
        {
          "type": "uint256",
          "name": "invariant",
          "indexed": false
        },
        {
          "type": "uint256",
          "name": "token_supply",
          "indexed": false
        }
      ],
      "anonymous": false,
      "type": "event"
    },
    {
      "name": "CommitNewAdmin",
      "inputs": [
        {
          "type": "uint256",
          "name": "deadline",
          "indexed": true
        },
        {
          "type": "address",
          "name": "admin",
          "indexed": true
        }
      ],
      "anonymous": false,
      "type": "event"
    },
    {
      "name": "NewAdmin",
      "inputs": [
        {
          "type": "address",
          "name": "admin",
          "indexed": true
        }
      ],
      "anonymous": false,
      "type": "event"
    },
    {
      "name": "CommitNewFee",
      "inputs": [
        {
          "type": "uint256",
          "name": "deadline",
          "indexed": true
        },
        {
          "type": "uint256",
          "name": "fee",
          "indexed": false
        },
        {
          "type": "uint256",
          "name": "admin_fee",
          "indexed": false
        }
      ],
      "anonymous": false,
      "type": "event"
    },
    {
      "name": "NewFee",
      "inputs": [
        {
          "type": "uint256",
          "name": "fee",
          "indexed": false
        },
        {
          "type": "uint256",
          "name": "admin_fee",
          "indexed": false
        }
      ],
      "anonymous": false,
      "type": "event"
    },
    {
      "name": "RampA",
      "inputs": [
        {
          "type": "uint256",
          "name": "old_A",
          "indexed": false
        },
        {
          "type": "uint256",
          "name": "new_A",
          "indexed": false
        },
        {
          "type": "uint256",
          "name": "initial_time",
          "indexed": false
        },
        {
          "type": "uint256",
          "name": "future_time",
          "indexed": false
        }
      ],
      "anonymous": false,
      "type": "event"
    },
    {
      "name": "StopRampA",
      "inputs": [
        {
          "type": "uint256",
          "name": "A",
          "indexed": false
        },
        {
          "type": "uint256",
          "name": "t",
          "indexed": false
        }
      ],
      "anonymous": false,
      "type": "event"
    },
    {
      "outputs": [],
      "inputs": [
        {
          "type": "address",
          "name": "_owner"
        },
        {
          "type": "address[2]",
          "name": "_coins"
        },
        {
          "type": "address",
          "name": "_pool_token"
        },
        {
          "type": "uint256",
          "name": "_A"
        },
        {
          "type": "uint256",
          "name": "_fee"
        },
        {
          "type": "uint256",
          "name": "_admin_fee"
        }
      ],
      "stateMutability": "nonpayable",
      "type": "constructor"
    },
    {
      "name": "A",
      "outputs": [
        {
          "type": "uint256",
          "name": ""
        }
      ],
      "inputs": [],
      "stateMutability": "view",
      "type": "function",
      "gas": 5131
    },
    {
      "name": "get_virtual_price",
      "outputs": [
        {
          "type": "uint256",
          "name": ""
        }
      ],
      "inputs": [],
      "stateMutability": "view",
      "type": "function",
      "gas": 954746
    },
    {
      "name": "calc_token_amount",
      "outputs": [
        {
          "type": "uint256",
          "name": ""
        }
      ],
      "inputs": [
        {
          "type": "uint256[2]",
          "name": "amounts"
        },
        {
          "type": "bool",
          "name": "deposit"
        }
      ],
      "stateMutability": "view",
      "type": "function",
      "gas": 3796194
    },
    {
      "name": "add_liquidity",
      "outputs": [],
      "inputs": [
        {
          "type": "uint256[2]",
          "name": "amounts"
        },
        {
          "type": "uint256",
          "name": "min_mint_amount"
        }
      ],
      "stateMutability": "nonpayable",
      "type": "function",
      "gas": 5841880
    },
    {
      "name": "get_dy",
      "outputs": [
        {
          "type": "uint256",
          "name": ""
        }
      ],
      "inputs": [
        {
          "type": "int128",
          "name": "i"
        },
        {
          "type": "int128",
          "name": "j"
        },
        {
          "type": "uint256",
          "name": "dx"
        }
      ],
      "stateMutability": "view",
      "type": "function",
      "gas": 2316953
    },
    {
      "name": "get_dy_underlying",
      "outputs": [
        {
          "type": "uint256",
          "name": ""
        }
      ],
      "inputs": [
        {
          "type": "int128",
          "name": "i"
        },
        {
          "type": "int128",
          "name": "j"
        },
        {
          "type": "uint256",
          "name": "dx"
        }
      ],
      "stateMutability": "view",
      "type": "function",
      "gas": 2316667
    },
    {
      "name": "exchange",
      "outputs": [],
      "inputs": [
        {
          "type": "int128",
          "name": "i"
        },
        {
          "type": "int128",
          "name": "j"
        },
        {
          "type": "uint256",
          "name": "dx"
        },
        {
          "type": "uint256",
          "name": "min_dy"
        }
      ],
      "stateMutability": "nonpayable",
      "type": "function",
      "gas": 2460918
    },
    {
      "name": "remove_liquidity",
      "outputs": [],
      "inputs": [
        {
          "type": "uint256",
          "name": "_amount"
        },
        {
          "type": "uint256[2]",
          "name": "min_amounts"
        }
      ],
      "stateMutability": "nonpayable",
      "type": "function",
      "gas": 148848
    },
    {
      "name": "remove_liquidity_imbalance",
      "outputs": [],
      "inputs": [
        {
          "type": "uint256[2]",
          "name": "amounts"
        },
        {
          "type": "uint256",
          "name": "max_burn_amount"
        }
      ],
      "stateMutability": "nonpayable",
      "type": "function",
      "gas": 5839955
    },
    {
      "name": "calc_withdraw_one_coin",
      "outputs": [
        {
          "type": "uint256",
          "name": ""
        }
      ],
      "inputs": [
        {
          "type": "uint256",
          "name": "_token_amount"
        },
        {
          "type": "int128",
          "name": "i"
        }
      ],
      "stateMutability": "view",
      "type": "function",
      "gas": 1375
    },
    {
      "name": "remove_liquidity_one_coin",
      "outputs": [],
      "inputs": [
        {
          "type": "uint256",
          "name": "_token_amount"
        },
        {
          "type": "int128",
          "name": "i"
        },
        {
          "type": "uint256",
          "name": "min_amount"
        }
      ],
      "stateMutability": "nonpayable",
      "type": "function",
      "gas": 3662680
    },
    {
      "name": "ramp_A",
      "outputs": [],
      "inputs": [
        {
          "type": "uint256",
          "name": "_future_A"
        },
        {
          "type": "uint256",
          "name": "_future_time"
        }
      ],
      "stateMutability": "nonpayable",
      "type": "function",
      "gas": 151817
    },
    {
      "name": "stop_ramp_A",
      "outputs": [],
      "inputs": [],
      "stateMutability": "nonpayable",
      "type": "function",
      "gas": 148535
    },
    {
      "name": "commit_new_fee",
      "outputs": [],
      "inputs": [
        {
          "type": "uint256",
          "name": "new_fee"
        },
        {
          "type": "uint256",
          "name": "new_admin_fee"
        }
      ],
      "stateMutability": "nonpayable",
      "type": "function",
      "gas": 110371
    },
    {
      "name": "apply_new_fee",
      "outputs": [],
      "inputs": [],
      "stateMutability": "nonpayable",
      "type": "function",
      "gas": 97152
    },
    {
      "name": "revert_new_parameters",
      "outputs": [],
      "inputs": [],
      "stateMutability": "nonpayable",
      "type": "function",
      "gas": 21805
    },
    {
      "name": "commit_transfer_ownership",
      "outputs": [],
      "inputs": [
        {
          "type": "address",
          "name": "_owner"
        }
      ],
      "stateMutability": "nonpayable",
      "type": "function",
      "gas": 74543
    },
    {
      "name": "apply_transfer_ownership",
      "outputs": [],
      "inputs": [],
      "stateMutability": "nonpayable",
      "type": "function",
      "gas": 60620
    },
    {
      "name": "revert_transfer_ownership",
      "outputs": [],
      "inputs": [],
      "stateMutability": "nonpayable",
      "type": "function",
      "gas": 21895
    },
    {
      "name": "admin_balances",
      "outputs": [
        {
          "type": "uint256",
          "name": ""
        }
      ],
      "inputs": [
        {
          "type": "uint256",
          "name": "i"
        }
      ],
      "stateMutability": "view",
      "type": "function",
      "gas": 3391
    },
    {
      "name": "withdraw_admin_fees",
      "outputs": [],
      "inputs": [],
      "stateMutability": "nonpayable",
      "type": "function",
      "gas": 14947
    },
    {
      "name": "donate_admin_fees",
      "outputs": [],
      "inputs": [],
      "stateMutability": "nonpayable",
      "type": "function",
      "gas": 74875
    },
    {
      "name": "kill_me",
      "outputs": [],
      "inputs": [],
      "stateMutability": "nonpayable",
      "type": "function",
      "gas": 37908
    },
    {
      "name": "unkill_me",
      "outputs": [],
      "inputs": [],
      "stateMutability": "nonpayable",
      "type": "function",
      "gas": 22045
    },
    {
      "name": "coins",
      "outputs": [
        {
          "type": "address",
          "name": ""
        }
      ],
      "inputs": [
        {
          "type": "uint256",
          "name": "arg0"
        }
      ],
      "stateMutability": "view",
      "type": "function",
      "gas": 2130
    },
    {
      "name": "balances",
      "outputs": [
        {
          "type": "uint256",
          "name": ""
        }
      ],
      "inputs": [
        {
          "type": "uint256",
          "name": "arg0"
        }
      ],
      "stateMutability": "view",
      "type": "function",
      "gas": 2160
    },
    {
      "name": "fee",
      "outputs": [
        {
          "type": "uint256",
          "name": ""
        }
      ],
      "inputs": [],
      "stateMutability": "view",
      "type": "function",
      "gas": 2081
    },
    {
      "name": "admin_fee",
      "outputs": [
        {
          "type": "uint256",
          "name": ""
        }
      ],
      "inputs": [],
      "stateMutability": "view",
      "type": "function",
      "gas": 2111
    },
    {
      "name": "owner",
      "outputs": [
        {
          "type": "address",
          "name": ""
        }
      ],
      "inputs": [],
      "stateMutability": "view",
      "type": "function",
      "gas": 2141
    },
    {
      "name": "initial_A",
      "outputs": [
        {
          "type": "uint256",
          "name": ""
        }
      ],
      "inputs": [],
      "stateMutability": "view",
      "type": "function",
      "gas": 2171
    },
    {
      "name": "future_A",
      "outputs": [
        {
          "type": "uint256",
          "name": ""
        }
      ],
      "inputs": [],
      "stateMutability": "view",
      "type": "function",
      "gas": 2201
    },
    {
      "name": "initial_A_time",
      "outputs": [
        {
          "type": "uint256",
          "name": ""
        }
      ],
      "inputs": [],
      "stateMutability": "view",
      "type": "function",
      "gas": 2231
    },
    {
      "name": "future_A_time",
      "outputs": [
        {
          "type": "uint256",
          "name": ""
        }
      ],
      "inputs": [],
      "stateMutability": "view",
      "type": "function",
      "gas": 2261
    },
    {
      "name": "admin_actions_deadline",
      "outputs": [
        {
          "type": "uint256",
          "name": ""
        }
      ],
      "inputs": [],
      "stateMutability": "view",
      "type": "function",
      "gas": 2291
    },
    {
      "name": "transfer_ownership_deadline",
      "outputs": [
        {
          "type": "uint256",
          "name": ""
        }
      ],
      "inputs": [],
      "stateMutability": "view",
      "type": "function",
      "gas": 2321
    },
    {
      "name": "future_fee",
      "outputs": [
        {
          "type": "uint256",
          "name": ""
        }
      ],
      "inputs": [],
      "stateMutability": "view",
      "type": "function",
      "gas": 2351
    },
    {
      "name": "future_admin_fee",
      "outputs": [
        {
          "type": "uint256",
          "name": ""
        }
      ],
      "inputs": [],
      "stateMutability": "view",
      "type": "function",
      "gas": 2381
    },
    {
      "name": "future_owner",
      "outputs": [
        {
          "type": "address",
          "name": ""
        }
      ],
      "inputs": [],
      "stateMutability": "view",
      "type": "function",
      "gas": 2411
    }
  ],
  "transactionHash": "0xafab664abfa0ce4991b5609cd4fa629455537ad1ea8b66105b6f36b9bace84d3",
  "args": [
    "0x91019BAE8beD657A416e8B5B582F30c5Eef99132",
    [
      "0xb364c348CC4B9600c2b2C0C19f7425D4f469594c",
      "0x2CB6c1b5f367b1c939E4f53E633c7eEE16F0A57c"
    ],
    "0x540c8a922Cc7E186AA0fd63b0B6aEDd5B5F08007",
    200,
    4000000,
    5000000000
  ],
  "bytecode": "0x60e0614cbb610140396020614cbb60c03960c05160a01c1561002057600080fd5b60206020614cbb0160c03960c05160a01c1561003b57600080fd5b60206040614cbb0160c03960c05160a01c1561005657600080fd5b60206060614cbb0160c03960c05160a01c1561007157600080fd5b61022060006002818352015b6000610160610220516002811061009357600080fd5b6020020151186100a257600080fd5b5b815160010180835281141561007d575b5050600060c052602060c020610160518155610180516001820155506101c0516006556101c0516007556101e051600255610200516003556101405160045542624f1a0081818301101561010657600080fd5b808201905090506010556101a051600555614ca356341561000a57600080fd5b600436101561001857614b81565b600035601c526000156101c1575b610140526009546101605260075461018052610160514210156101ae576006546101a0526008546101c0526101a051610180511115610107576101a051610180516101a0518082101561007857600080fd5b80820390509050426101c0518082101561009157600080fd5b8082039050905080820282158284830414176100ac57600080fd5b80905090509050610160516101c051808210156100c857600080fd5b8082039050905080806100da57600080fd5b8204905090508181830110156100ef57600080fd5b808201905090506000526000516101405156506101a9565b6101a0516101a051610180518082101561012057600080fd5b80820390509050426101c0518082101561013957600080fd5b80820390509050808202821582848304141761015457600080fd5b80905090509050610160516101c0518082101561017057600080fd5b80820390509050808061018257600080fd5b8204905090508082101561019557600080fd5b808203905090506000526000516101405156505b6101bf565b610180516000526000516101405156505b005b63f446c1d060005114156101eb5760065801610026565b610140526101405160005260206000f350005b6000156102e6575b61014052670de0b6b3a764000061016052670de0b6b3a7640000610180526101a060006002818352015b6101606101a0516002811061023157600080fd5b60200201516101a0516002811061024757600080fd5b600160c052602060c0200154808202821582848304141761026757600080fd5b80905090509050670de0b6b3a7640000808204905090506101606101a0516002811061029257600080fd5b60200201525b815160010180835281141561021d575b505060406101a0525b60006101a0511115156102c3576102df565b60206101a05103610160015160206101a051036101a0526102b1565b6101405156005b6000156103e5575b610180526101405261016052670de0b6b3a76400006101a052670de0b6b3a76400006101c0526101e060006002818352015b6101a06101e0516002811061033457600080fd5b60200201516101406101e0516002811061034d57600080fd5b6020020151808202821582848304141761036657600080fd5b80905090509050670de0b6b3a7640000808204905090506101a06101e0516002811061039157600080fd5b60200201525b8151600101808352811415610320575b505060406101e0525b60006101e0511115156103c2576103de565b60206101e051036101a0015160206101e051036101e0526103b0565b6101805156005b6000156106cf575b6101a05261014052610160526101805260006101c05261020060006002818352015b6020610200510261014001516101e0526101c080516101e05181818301101561043757600080fd5b808201905090508152505b815160010180835281141561040f575b50506101c051151561046d5760006000526000516101a05156505b60006101e0526101c05161020052610180516002808202821582848304141761049557600080fd5b8090509050905061022052610240600060ff818352015b61020051610260526102a060006002818352015b60206102a05102610140015161028052610260516102005180820282158284830414176104ec57600080fd5b80905090509050610280516002808202821582848304141761050d57600080fd5b80905090509050808061051f57600080fd5b820490509050610260525b81516001018083528114156104c0575b5050610200516101e052610220516101c051808202821582848304141761056057600080fd5b80905090509050610260516002808202821582848304141761058157600080fd5b8090509050905081818301101561059757600080fd5b808201905090506102005180820282158284830414176105b657600080fd5b80905090509050610220516001808210156105d057600080fd5b808203905090506102005180820282158284830414176105ef57600080fd5b80905090509050600361026051808202821582848304141761061057600080fd5b8090509050905081818301101561062657600080fd5b80820190509050808061063857600080fd5b820490509050610200526101e05161020051111561067f576001610200516101e0518082101561066757600080fd5b8082039050905011151561067a576106bb565b6106aa565b60016101e051610200518082101561069657600080fd5b808203905090501115156106a9576106bb565b5b5b81516001018083528114156104ac575b5050610200516000526000516101a0515650005b6000156107e6575b6101a0526101405261016052610180526101405161016051610180516101a051610140516101c052610160516101e0526101e0516101c051600658016102ee565b61024052610260526101a05261018052610160526101405261024080516102805280602001516102a052506101405161016051610180516101a0516101c0516101e05161020051610220516102405161026051610280516102a051610280516102c0526102a0516102e0526101805161030052610300516102e0516102c051600658016103ed565b610360526102a05261028052610260526102405261022052610200526101e0526101c0526101a052610180526101605261014052610360516000526000516101a0515650005b63bb7b8b80600051141561094f5761014051600658016101f3565b61016052610180526101405261016080516101a05280602001516101c052506101405161016051610180516101a0516101c05160065801610026565b6101e0526101c0526101a0526101805261016052610140526101e051610200526101405161016051610180516101a0516101c0516101e051610200516101a051610220526101c051610240526102005161026052610260516102405161022051600658016103ed565b6102c052610200526101e0526101c0526101a0526101805261016052610140526102c0516101405260206101e060046318160ddd6101805261019c6005545afa6108ef57600080fd5b601f3d116108fc57600080fd5b6000506101e0516101605261014051670de0b6b3a7640000808202821582848304141761092857600080fd5b8090509050905061016051808061093e57600080fd5b82049050905060005260206000f350005b63ed8e84f36000511415610c075760443560011c1561096d57600080fd5b60018060c052602060c020546101405260018160c052602060c0200154610160525061014051610160516101805160065801610026565b6101a0526101805261016052610140526101a051610180526101405161016051610180516101a051610140516101c052610160516101e0526101805161020052610200516101e0516101c051600658016106d7565b610260526101a052610180526101605261014052610260516101a0526101c060006002818352015b60443515610a79576101406101c05160028110610a3d57600080fd5b60200201805160046101c05160028110610a5657600080fd5b6020020135818183011015610a6a57600080fd5b80820190509050815250610ac3565b6101406101c05160028110610a8d57600080fd5b60200201805160046101c05160028110610aa657600080fd5b602002013580821015610ab857600080fd5b808203905090508152505b5b8151600101808352811415610a21575b50506101405161016051610180516101a0516101c051610140516101e0526101605161020052610180516102205261022051610200516101e051600658016106d7565b610280526101c0526101a052610180526101605261014052610280516101c052602061026060046318160ddd6102005261021c6005545afa610b5857600080fd5b601f3d11610b6557600080fd5b600050610260516101e05260006102005260443515610ba3576101c0516101a05180821015610b9357600080fd5b8082039050905061020052610bc4565b6101a0516101c05180821015610bb857600080fd5b80820390509050610200525b610200516101e0518082028215828483041417610be057600080fd5b809050905090506101a0518080610bf657600080fd5b82049050905060005260206000f350005b630b4c7e4d60005114156115c15762ffffff5415610c2457600080fd5b600162ffffff55600f5415610c3857600080fd5b6040366101403760025460028082028215828483041417610c5857600080fd5b80905090509050600480820490509050610180526003546101a0526101405161016051610180516101a0516101c05160065801610026565b6101e0526101c0526101a0526101805261016052610140526101e0516101c052602061026060046318160ddd6102005261021c6005545afa610cd157600080fd5b601f3d11610cde57600080fd5b600050610260516101e05260006102005260018060c052602060c020546102205260018160c052602060c0200154610240525060006101e0511115610d9f576101405161016051610180516101a0516101c0516101e051610200516102205161024051610220516102605261024051610280526101c0516102a0526102a0516102805161026051600658016106d7565b610300526102405261022052610200526101e0526101c0526101a05261018052610160526101405261030051610200525b610220516102605261024051610280526102a060006002818352015b60046102a05160028110610dce57600080fd5b60200201356102c0526101e0511515610df25760006102c05111610df157600080fd5b5b6102a05160028110610e0357600080fd5b600060c052602060c02001546102e05260006102c05111156110345760026102a0511415610e6b57602061038060246370a0823161030052306103205261031c6102e0515afa610e5257600080fd5b601f3d11610e5f57600080fd5b600050610380516102c0525b60006004610360527f23b872dd00000000000000000000000000000000000000000000000000000000610380526103606004806020846103c001018260208501600060045af1505080518201915050336020826103c0010152602081019050306020826103c001015260208101905060046102a05160028110610eed57600080fd5b60200201356020826103c0010152602081019050806103c0526103c090508051602001806104808284600060045af1610f2557600080fd5b50506020610560610480516104a060006102e0515af1610f4457600080fd5b60203d80821115610f555780610f57565b815b90509050610540526105408051602001806103008284600060045af1610f7c57600080fd5b50506000610300511115610fcf57610300806020015160008251806020901315610fa557600080fd5b8091901215610fb357600080fd5b806020036101000a82049050905090501515610fce57600080fd5b5b60026102a05114156110335760206103e060246370a0823161036052306103805261037c6102e0515afa61100257600080fd5b601f3d1161100f57600080fd5b6000506103e0516102c0518082101561102757600080fd5b808203905090506102c0525b5b6102206102a0516002811061104857600080fd5b60200201516102c05181818301101561106057600080fd5b808201905090506102606102a0516002811061107b57600080fd5b60200201525b8151600101808352811415610dbb575b50506101405161016051610180516101a0516101c0516101e05161020051610220516102405161026051610280516102a051610260516102c052610280516102e0526101c05161030052610300516102e0516102c051600658016106d7565b610360526102a05261028052610260526102405261022052610200526101e0526101c0526101a052610180526101605261014052610360516102a052610200516102a0511161113e57600080fd5b6102a0516102c05260006101e0511115611423576102e060006002818352015b6102a0516102206102e0516002811061117657600080fd5b6020020151808202821582848304141761118f57600080fd5b809050905090506102005180806111a557600080fd5b820490509050610300526000610320526102606102e051600281106111c957600080fd5b602002015161030051111561121257610300516102606102e051600281106111f057600080fd5b60200201518082101561120257600080fd5b8082039050905061032052611248565b6102606102e0516002811061122657600080fd5b6020020151610300518082101561123c57600080fd5b80820390509050610320525b6101805161032051808202821582848304141761126457600080fd5b809050905090506402540be400808204905090506101406102e0516002811061128c57600080fd5b60200201526102606102e051600281106112a557600080fd5b60200201516101406102e051600281106112be57600080fd5b60200201516101a05180820282158284830414176112db57600080fd5b809050905090506402540be40080820490509050808210156112fc57600080fd5b808203905090506102e0516002811061131457600080fd5b600160c052602060c02001556102606102e0516002811061133457600080fd5b6020020180516101406102e0516002811061134e57600080fd5b60200201518082101561136057600080fd5b808203905090508152505b815160010180835281141561115e575b50506101405161016051610180516101a0516101c0516101e05161020051610220516102405161026051610280516102a0516102c051610260516102e05261028051610300526101c0516103205261032051610300516102e051600658016106d7565b610380526102c0526102a05261028052610260526102405261022052610200526101e0526101c0526101a052610180526101605261014052610380516102c05261143e565b600160c052602060c020610260518155610280516001820155505b60006102e0526101e051151561145b576102a0516102e0526114b0565b6101e0516102c051610200518082101561147457600080fd5b80820390509050808202821582848304141761148f57600080fd5b809050905090506102005180806114a557600080fd5b8204905090506102e0525b6044356102e05110151515611504576308c379a0610300526020610320526014610340527f536c697070616765207363726577656420796f750000000000000000000000006103605261034050606461031cfd5b60206103a060446340c10f196103005233610320526102e0516103405261031c60006005545af161153457600080fd5b601f3d1161154157600080fd5b6000506103a0506004356103005260243561032052610140516103405261016051610360526102a051610380526101e0516102e05181818301101561158557600080fd5b808201905090506103a052337f26f55a85081d24974e85c6c00045d0f0453991e95873f52bff0d21af4079a76860c0610300a2600062ffffff55005b600015611a03575b6101e0526101405261016052610180526101a0526101c0526101605161014051186115f357600080fd5b600061016051121561160457600080fd5b6002610160511261161457600080fd5b600061014051121561162557600080fd5b6002610140511261163557600080fd5b6101405161016051610180516101a0516101c0516101e0516102005160065801610026565b61022052610200526101e0526101c0526101a05261018052610160526101405261022051610200526101405161016051610180516101a0516101c0516101e05161020051610220516101a051610240526101c051610260526102005161028052610280516102605161024051600658016103ed565b6102e05261022052610200526101e0526101c0526101a0526101805261016052610140526102e051610220526102205161024052600061026052610200516002808202821582848304141761172357600080fd5b809050905090506102805260006102a0526102c060006002818352015b610140516102c051141561175b57610180516102a052611791565b610160516102c051181561178b576101a06102c0516002811061177d57600080fd5b60200201516102a052611790565b61180d565b5b61026080516102a0518181830110156117a957600080fd5b80820190509050815250610240516102205180820282158284830414176117cf57600080fd5b809050905090506102a051600280820282158284830414176117f057600080fd5b80905090509050808061180257600080fd5b820490509050610240525b8151600101808352811415611740575b50506102405161022051808202821582848304141761183b57600080fd5b80905090509050610280516002808202821582848304141761185c57600080fd5b80905090509050808061186e57600080fd5b82049050905061024052610260516102205161028051808061188f57600080fd5b8204905090508181830110156118a457600080fd5b808201905090506102c05260006102e0526102205161030052610320600060ff818352015b610300516102e052610300516103005180820282158284830414176118ed57600080fd5b809050905090506102405181818301101561190757600080fd5b80820190509050600261030051808202821582848304141761192857600080fd5b809050905090506102c05181818301101561194257600080fd5b80820190509050610220518082101561195a57600080fd5b80820390509050808061196c57600080fd5b820490509050610300526102e0516103005111156119b3576001610300516102e0518082101561199b57600080fd5b808203905090501115156119ae576119ef565b6119de565b60016102e05161030051808210156119ca57600080fd5b808203905090501115156119dd576119ef565b5b5b81516001018083528114156118c9575b5050610300516000526000516101e0515650005b635e0d443f6000511415611c975760043580806000811215611a2157195b607f1c15611a2e57600080fd5b90505060243580806000811215611a4157195b607f1c15611a4e57600080fd5b905050670de0b6b3a764000061014052670de0b6b3a7640000610160526101405161016051610180516101a051600658016101f3565b6101c0526101e0526101a0526101805261016052610140526101c080516101805280602001516101a0525061018060043560028110611ac257600080fd5b602002015160443561014060043560028110611add57600080fd5b60200201518082028215828483041417611af657600080fd5b80905090509050670de0b6b3a764000080820490509050818183011015611b1c57600080fd5b808201905090506101c0526101405161016051610180516101a0516101c0516101e05160043561020052602435610220526101c0516102405261018051610260526101a051610280526102805161026051610240516102205161020051600658016115c9565b6102e0526101e0526101c0526101a0526101805261016052610140526102e0516101e05261018060243560028110611bb957600080fd5b60200201516101e05180821015611bcf57600080fd5b80820390509050600180821015611be557600080fd5b80820390509050670de0b6b3a76400008082028215828483041417611c0957600080fd5b8090509050905061014060243560028110611c2357600080fd5b60200201518080611c3357600080fd5b82049050905061020052600254610200518082028215828483041417611c5857600080fd5b809050905090506402540be4008082049050905061022052610200516102205180821015611c8557600080fd5b8082039050905060005260206000f350005b6307211ef76000511415611ed95760043580806000811215611cb557195b607f1c15611cc257600080fd5b90505060243580806000811215611cd557195b607f1c15611ce257600080fd5b9050506101405161016051600658016101f3565b610180526101a05261016052610140526101808051610140528060200151610160525060016101805260016101a05261014060043560028110611d3857600080fd5b602002015160443561018060043560028110611d5357600080fd5b60200201518082028215828483041417611d6c57600080fd5b80905090509050818183011015611d8257600080fd5b808201905090506101c0526101405161016051610180516101a0516101c0516101e05160043561020052602435610220526101c05161024052610140516102605261016051610280526102805161026051610240516102205161020051600658016115c9565b6102e0526101e0526101c0526101a0526101805261016052610140526102e0516101e05261014060243560028110611e1f57600080fd5b60200201516101e05180821015611e3557600080fd5b80820390509050600180821015611e4b57600080fd5b8082039050905061018060243560028110611e6557600080fd5b60200201518080611e7557600080fd5b82049050905061020052600254610200518082028215828483041417611e9a57600080fd5b809050905090506402540be4008082049050905061022052610200516102205180821015611ec757600080fd5b8082039050905060005260206000f350005b633df0212460005114156127895762ffffff5415611ef657600080fd5b600162ffffff5560043580806000811215611f0d57195b607f1c15611f1a57600080fd5b90505060243580806000811215611f2d57195b607f1c15611f3a57600080fd5b905050600f5415611f4a57600080fd5b670de0b6b3a764000061014052670de0b6b3a76400006101605260018060c052602060c020546101805260018160c052602060c02001546101a052506101405161016051610180516101a0516101c0516101e05161018051610200526101a051610220526102205161020051600658016102ee565b610280526102a0526101e0526101c0526101a05261018052610160526101405261028080516101c05280602001516101e05250604435610200526004356002811061200957600080fd5b600060c052602060c020015461022052600260043514156120645760206102c060246370a0823161024052306102605261025c610220515afa61204b57600080fd5b601f3d1161205857600080fd5b6000506102c051610200525b600060046102a0527f23b872dd000000000000000000000000000000000000000000000000000000006102c0526102a060048060208461030001018260208501600060045af15050805182019150503360208261030001015260208101905030602082610300010152602081019050604435602082610300010152602081019050806103005261030090508051602001806103c08284600060045af161210957600080fd5b505060206104a06103c0516103e06000610220515af161212857600080fd5b60203d80821115612139578061213b565b815b90509050610480526104808051602001806102408284600060045af161216057600080fd5b505060006102405111156121b35761024080602001516000825180602090131561218957600080fd5b809190121561219757600080fd5b806020036101000a820490509050905015156121b257600080fd5b5b6002600435141561221657602061032060246370a082316102a052306102c0526102bc610220515afa6121e557600080fd5b601f3d116121f257600080fd5b60005061032051610200518082101561220a57600080fd5b80820390509050610200525b6101c06004356002811061222957600080fd5b6020020151610200516101406004356002811061224557600080fd5b6020020151808202821582848304141761225e57600080fd5b80905090509050670de0b6b3a76400008082049050905081818301101561228457600080fd5b808201905090506102a0526101405161016051610180516101a0516101c0516101e05161020051610220516102405161026051610280516102a0516102c0516004356102e052602435610300526102a051610320526101c051610340526101e05161036052610360516103405161032051610300516102e051600658016115c9565b6103c0526102c0526102a05261028052610260526102405261022052610200526101e0526101c0526101a0526101805261016052610140526103c0516102c0526101c06024356002811061235957600080fd5b60200201516102c0518082101561236f57600080fd5b8082039050905060018082101561238557600080fd5b808203905090506102e0526102e05160025480820282158284830414176123ab57600080fd5b809050905090506402540be40080820490509050610300526102e05161030051808210156123d857600080fd5b80820390509050670de0b6b3a764000080820282158284830414176123fc57600080fd5b809050905090506101406024356002811061241657600080fd5b6020020151808061242657600080fd5b8204905090506102e0526064356102e051101515156124a9576308c379a061032052602061034052602e610360527f45786368616e676520726573756c74656420696e20666577657220636f696e73610380527f207468616e2065787065637465640000000000000000000000000000000000006103a05261036050608461033cfd5b6103005160035480820282158284830414176124c457600080fd5b809050905090506402540be400808204905090506103205261032051670de0b6b3a764000080820282158284830414176124fd57600080fd5b809050905090506101406024356002811061251757600080fd5b6020020151808061252757600080fd5b820490509050610320526101806004356002811061254457600080fd5b60200201516102005181818301101561255c57600080fd5b808201905090506004356002811061257357600080fd5b600160c052602060c02001556101806024356002811061259257600080fd5b60200201516102e051808210156125a857600080fd5b8082039050905061032051808210156125c057600080fd5b80820390509050602435600281106125d757600080fd5b600160c052602060c020015560006004610340527fa9059cbb00000000000000000000000000000000000000000000000000000000610360526103406004806020846103a001018260208501600060045af1505080518201915050336020826103a00101526020810190506102e0516020826103a0010152602081019050806103a0526103a090508051602001806104408284600060045af161267957600080fd5b505060206105006104405161046060006024356002811061269957600080fd5b600060c052602060c02001545af16126b057600080fd5b60203d808211156126c157806126c3565b815b905090506104e0526104e08051602001806102408284600060045af16126e857600080fd5b5050600061024051111561273b5761024080602001516000825180602090131561271157600080fd5b809190121561271f57600080fd5b806020036101000a8204905090509050151561273a57600080fd5b5b6004356103405260443561036052602435610380526102e0516103a052337f8b3e96f2b889fa771c53c981b40daf005f63f637f1869f707052d15a3dd971406080610340a2600062ffffff55005b635b36389c6000511415612b505762ffffff54156127a657600080fd5b600162ffffff5560206101c060046318160ddd6101605261017c6005545afa6127ce57600080fd5b601f3d116127db57600080fd5b6000506101c05161014052608036610160376101e060006002818352015b6101e0516002811061280a57600080fd5b600160c052602060c0200154600435808202821582848304141761282d57600080fd5b8090509050905061014051808061284357600080fd5b8204905090506102005260246101e0516002811061286057600080fd5b602002013561020051101515156128db576308c379a0610220526020610240526030610260527f5769746864726177616c20726573756c74656420696e20666577657220636f69610280527f6e73207468616e206578706563746564000000000000000000000000000000006102a05261026050608461023cfd5b6101e051600281106128ec57600080fd5b600160c052602060c020018054610200518082101561290a57600080fd5b80820390509050815550610200516101606101e0516002811061292c57600080fd5b602002015260006004610280527fa9059cbb000000000000000000000000000000000000000000000000000000006102a0526102806004806020846102e001018260208501600060045af1505080518201915050336020826102e0010152602081019050610200516020826102e0010152602081019050806102e0526102e090508051602001806103808284600060045af16129c757600080fd5b50506020610440610380516103a060006101e051600281106129e857600080fd5b600060c052602060c02001545af16129ff57600080fd5b60203d80821115612a105780612a12565b815b90509050610420526104208051602001806102208284600060045af1612a3757600080fd5b50506000610220511115612a8a57610220806020015160008251806020901315612a6057600080fd5b8091901215612a6e57600080fd5b806020036101000a82049050905090501515612a8957600080fd5b5b5b81516001018083528114156127f9575b5050602061028060446379cc67906101e0523361020052600435610220526101fc60006005545af1612acc57600080fd5b601f3d11612ad957600080fd5b60005061028050610160516101e05261018051610200526101a051610220526101c051610240526101405160043580821015612b1457600080fd5b8082039050905061026052337f7c363854ccf79623411f8995b362bce5eddff18c927edc6f5dbbb5e05819a82c60a06101e0a2600062ffffff55005b63e310327360005114156133ea5762ffffff5415612b6d57600080fd5b600162ffffff55600f5415612b8157600080fd5b60206101c060046318160ddd6101605261017c6005545afa612ba257600080fd5b601f3d11612baf57600080fd5b6000506101c0516101405260006101405118612bca57600080fd5b60025460028082028215828483041417612be357600080fd5b8090509050905060048082049050905061016052600354610180526101405161016051610180516101a05160065801610026565b6101c0526101a0526101805261016052610140526101c0516101a05260018060c052602060c020546101c05260018160c052602060c02001546101e052506101c051610200526101e051610220526101405161016051610180516101a0516101c0516101e0516102005161022051610240516101c051610260526101e051610280526101a0516102a0526102a0516102805161026051600658016106d7565b610300526102405261022052610200526101e0526101c0526101a052610180526101605261014052610300516102405261026060006002818352015b6102006102605160028110612d0657600080fd5b60200201805160046102605160028110612d1f57600080fd5b602002013580821015612d3157600080fd5b808203905090508152505b8151600101808352811415612cf2575b50506101405161016051610180516101a0516101c0516101e051610200516102205161024051610260516102005161028052610220516102a0526101a0516102c0526102c0516102a05161028051600658016106d7565b61032052610260526102405261022052610200526101e0526101c0526101a0526101805261016052610140526103205161026052604036610280376102c060006002818352015b610260516101c06102c05160028110612e0257600080fd5b60200201518082028215828483041417612e1b57600080fd5b80905090509050610240518080612e3157600080fd5b8204905090506102e0526000610300526102006102c05160028110612e5557600080fd5b60200201516102e0511115612e9e576102e0516102006102c05160028110612e7c57600080fd5b602002015180821015612e8e57600080fd5b8082039050905061030052612ed4565b6102006102c05160028110612eb257600080fd5b60200201516102e05180821015612ec857600080fd5b80820390509050610300525b61016051610300518082028215828483041417612ef057600080fd5b809050905090506402540be400808204905090506102806102c05160028110612f1857600080fd5b60200201526102006102c05160028110612f3157600080fd5b60200201516102806102c05160028110612f4a57600080fd5b6020020151610180518082028215828483041417612f6757600080fd5b809050905090506402540be4008082049050905080821015612f8857600080fd5b808203905090506102c05160028110612fa057600080fd5b600160c052602060c02001556102006102c05160028110612fc057600080fd5b6020020180516102806102c05160028110612fda57600080fd5b602002015180821015612fec57600080fd5b808203905090508152505b8151600101808352811415612dea575b50506101405161016051610180516101a0516101c0516101e05161020051610220516102405161026051610280516102a0516102c051610200516102e05261022051610300526101a0516103205261032051610300516102e051600658016106d7565b610380526102c0526102a05261028052610260526102405261022052610200526101e0526101c0526101a052610180526101605261014052610380516102c052610240516102c051808210156130bf57600080fd5b808203905090506101405180820282158284830414176130de57600080fd5b809050905090506102405180806130f457600080fd5b8204905090506102e05260006102e0511861310e57600080fd5b6102e08051600181818301101561312457600080fd5b808201905090508152506044356102e05111151515613182576308c379a0610300526020610320526014610340527f536c697070616765207363726577656420796f750000000000000000000000006103605261034050606461031cfd5b60206103a060446379cc67906103005233610320526102e0516103405261031c60006005545af16131b257600080fd5b601f3d116131bf57600080fd5b6000506103a05061030060006002818352015b6000600461030051600281106131e757600080fd5b602002013518156133605760006004610380527fa9059cbb000000000000000000000000000000000000000000000000000000006103a0526103806004806020846103e001018260208501600060045af1505080518201915050336020826103e00101526020810190506004610300516002811061326457600080fd5b60200201356020826103e0010152602081019050806103e0526103e090508051602001806104808284600060045af161329c57600080fd5b50506020610540610480516104a0600061030051600281106132bd57600080fd5b600060c052602060c02001545af16132d457600080fd5b60203d808211156132e557806132e7565b815b90509050610520526105208051602001806103208284600060045af161330c57600080fd5b5050600061032051111561335f5761032080602001516000825180602090131561333557600080fd5b809190121561334357600080fd5b806020036101000a8204905090509050151561335e57600080fd5b5b5b5b81516001018083528114156131d2575b5050600435610300526024356103205261028051610340526102a051610360526102605161038052610140516102e051808210156133ae57600080fd5b808203905090506103a052337f2b5508378d7e19e0d5fa338419034731416c4f5b219a10379956f764317fd47e60c0610300a2600062ffffff55005b600015613717575b6101e0526101405261016052610180526101a0526101c052600061016051121561341b57600080fd5b6002610160511261342b57600080fd5b6101c05161020052600061022052610140516002808202821582848304141761345357600080fd5b809050905090506102405260006102605261028060006002818352015b610160516102805118156134a057610180610280516002811061349257600080fd5b6020020151610260526134a5565b613521565b6102208051610260518181830110156134bd57600080fd5b80820190509050815250610200516101c05180820282158284830414176134e357600080fd5b80905090509050610260516002808202821582848304141761350457600080fd5b80905090509050808061351657600080fd5b820490509050610200525b8151600101808352811415613470575b5050610200516101c051808202821582848304141761354f57600080fd5b80905090509050610240516002808202821582848304141761357057600080fd5b80905090509050808061358257600080fd5b82049050905061020052610220516101c0516102405180806135a357600080fd5b8204905090508181830110156135b857600080fd5b808201905090506102805260006102a0526101c0516102c0526102e0600060ff818352015b6102c0516102a0526102c0516102c051808202821582848304141761360157600080fd5b809050905090506102005181818301101561361b57600080fd5b8082019050905060026102c051808202821582848304141761363c57600080fd5b809050905090506102805181818301101561365657600080fd5b808201905090506101c0518082101561366e57600080fd5b80820390509050808061368057600080fd5b8204905090506102c0526102a0516102c05111156136c75760016102c0516102a051808210156136af57600080fd5b808203905090501115156136c257613703565b6136f2565b60016102a0516102c051808210156136de57600080fd5b808203905090501115156136f157613703565b5b5b81516001018083528114156135dd575b50506102c0516000526000516101e0515650005b600015613d59575b6101805261014052610160526101405161016051610180516101a05160065801610026565b6101c0526101a0526101805261016052610140526101c0516101a0526002546002808202821582848304141761377957600080fd5b809050905090506004808204905090506101c05260016101e05260016102005260206102a060046318160ddd6102405261025c6005545afa6137ba57600080fd5b601f3d116137c757600080fd5b6000506102a051610220526101405161016051610180516101a0516101c0516101e05161020051610220516102405161026051600658016101f3565b610280526102a052610260526102405261022052610200526101e0526101c0526101a052610180526101605261014052610280805161024052806020015161026052506101405161016051610180516101a0516101c0516101e0516102005161022051610240516102605161028051610240516102a052610260516102c0526101a0516102e0526102e0516102c0516102a051600658016103ed565b6103405261028052610260526102405261022052610200526101e0526101c0526101a052610180526101605261014052610340516102805261028051610140516102805180820282158284830414176138f757600080fd5b8090509050905061022051808061390d57600080fd5b8204905090508082101561392057600080fd5b808203905090506102a052610240516102c052610260516102e052610140610320525b6103205151602061032051016103205261032061032051101561396557613943565b6101a0516103405261016051610360526102405161038052610260516103a0526102a0516103c0526103c0516103a051610380516103605161034051600658016133f2565b61042052610300610320525b61032051526020610320510361032052610140610320511015156139d9576139b6565b610420516103005261024061016051600281106139f557600080fd5b60200201516103005180821015613a0b57600080fd5b808203905090506101e06101605160028110613a2657600080fd5b60200201518080613a3657600080fd5b8204905090506103205261034060006002818352015b60006103605261016051610340511415613ace576102406103405160028110613a7457600080fd5b60200201516102a0518082028215828483041417613a9157600080fd5b80905090509050610280518080613aa757600080fd5b8204905090506103005180821015613abe57600080fd5b8082039050905061036052613b4d565b6102406103405160028110613ae257600080fd5b60200201516102406103405160028110613afb57600080fd5b60200201516102a0518082028215828483041417613b1857600080fd5b80905090509050610280518080613b2e57600080fd5b82049050905080821015613b4157600080fd5b80820390509050610360525b6102c06103405160028110613b6157600080fd5b6020020180516101c051610360518082028215828483041417613b8357600080fd5b809050905090506402540be4008082049050905080821015613ba457600080fd5b808203905090508152505b8151600101808352811415613a4c575b50506102c06101605160028110613bd557600080fd5b6020020151610140610360525b61036051516020610360510161036052610360610360511015613c0457613be2565b6101a05161038052610160516103a0526102c0516103c0526102e0516103e0526102a05161040052610400516103e0516103c0516103a05161038051600658016133f2565b61046052610340610360525b6103605152602061036051036103605261014061036051101515613c7857613c55565b6104605180821015613c8957600080fd5b808203905090506103405261034051600180821015613ca757600080fd5b808203905090506101e06101605160028110613cc257600080fd5b60200201518080613cd257600080fd5b8204905090506103405261036080808061034051815250506020810190508080610320516103405180821015613d0757600080fd5b808203905090508152505060409050905060c05260c0516103a0525b60006103a051111515613d3557613d51565b60206103a05103610360015160206103a051036103a052613d23565b610180515650005b63cc2b27d76000511415613ddd5760243580806000811215613d7757195b607f1c15613d8457600080fd5b905050600435610140526024356101605261016051610140516006580161371f565b6101c0526101e0526101c080808080516102005250506020810190508080805161022052505050506102005160005260206000f350005b631a4d01d2600051141561414b5762ffffff5415613dfa57600080fd5b600162ffffff5560243580806000811215613e1157195b607f1c15613e1e57600080fd5b905050600f5415613e2e57600080fd5b604036610140376101405161016051600435610180526024356101a0526101a051610180516006580161371f565b610200526102205261016052610140526102008080808051610240525050602081019050808080516102605250505050610240805161014052806020015161016052506044356101405110151515613ef3576308c379a06101805260206101a05260186101c0527f4e6f7420656e6f75676820636f696e732072656d6f76656400000000000000006101e0526101c050606461019cfd5b60243560028110613f0357600080fd5b600160c052602060c02001805461014051610160516003548082028215828483041417613f2f57600080fd5b809050905090506402540be40080820490509050818183011015613f5257600080fd5b8082019050905080821015613f6657600080fd5b80820390509050815550602061022060446379cc679061018052336101a0526004356101c05261019c60006005545af1613f9f57600080fd5b601f3d11613fac57600080fd5b60005061022050600060046101e0527fa9059cbb00000000000000000000000000000000000000000000000000000000610200526101e060048060208461024001018260208501600060045af15050805182019150503360208261024001015260208101905061014051602082610240010152602081019050806102405261024090508051602001806102e08284600060045af161404957600080fd5b505060206103a06102e05161030060006024356002811061406957600080fd5b600060c052602060c02001545af161408057600080fd5b60203d808211156140915780614093565b815b90509050610380526103808051602001806101808284600060045af16140b857600080fd5b5050600061018051111561410b576101808060200151600082518060209013156140e157600080fd5b80919012156140ef57600080fd5b806020036101000a8204905090509050151561410a57600080fd5b5b6004356101e0526101405161020052337f9e96dd3b997a2a257eec4df9bb6eaf626e206df5f543bd963682d143300be31060406101e0a2600062ffffff55005b633c157e6460005114156142e357600454331461416757600080fd5b6008546201518081818301101561417d57600080fd5b8082019050905042101561419057600080fd5b42620151808181830110156141a457600080fd5b8082019050905060243510156141b957600080fd5b6101405160065801610026565b61016052610140526101605161014052600060043511156141ee57620f4240600435106141f1565b60005b6141fa57600080fd5b610140516004351015156142335761014051600a808202821582848304141761422257600080fd5b809050905090506004351115614236565b60005b1561424257600161427e565b61014051600435101561427a5761014051600435600a808202821582848304141761426c57600080fd5b80905090509050101561427d565b60005b5b5b61428857600080fd5b6101405160065560043560075542600855602435600955610140516101605260043561018052426101a0526024356101c0527fa2b71ec6df949300b59aab36b55e189697b750119dd349fcfa8c0f779e83c2546080610160a1005b63551a658860005114156143685760045433146142ff57600080fd5b6101405160065801610026565b6101605261014052610160516101405261014051600655610140516007554260085542600955610140516101605242610180527f46e22fb3709ad289f62ce63d469248536dbc78d82b84a3d7e74ad606dc2019386040610160a1005b635b5a1467600051141561442657600454331461438457600080fd5b600a541561439157600080fd5b64012a05f20060043511156143a557600080fd5b6402540be40060243511156143b957600080fd5b426203f4808181830110156143cd57600080fd5b808201905090506101405261014051600a55600435600c55602435600d556004356101605260243561018052610140517f351fc5da2fbf480f2225debf3664a4bc90fa9923743aad58b4603f648e931fe06040610160a2005b634f12fe9760005114156144ba57600454331461444257600080fd5b600a5442101561445157600080fd5b6000600a541861446057600080fd5b6000600a55600c5461014052600d546101605261014051600255610160516003556101405161018052610160516101a0527fbe12859b636aed607d5230b2cc2711f68d70e51060e6cca1f575ef5d2fcc95d16040610180a1005b63226840fb60005114156144dd5760045433146144d657600080fd5b6000600a55005b636b441a4060005114156145715760043560a01c156144fb57600080fd5b600454331461450957600080fd5b600b541561451657600080fd5b426203f48081818301101561452a57600080fd5b808201905090506101405261014051600b55600435600e55600435610140517f181aa3aa17d4cbf99265dd4443eba009433d3cde79d60164fde1d1a192beb93560006000a3005b636a1c05ae60005114156145ea57600454331461458d57600080fd5b600b5442101561459c57600080fd5b6000600b54186145ab57600080fd5b6000600b55600e546101405261014051600455610140517f71614071b88dee5e0b2ae578a9dd7b2ebbe9ae832ba419dc0242cd065a290b6c60006000a2005b6386fbf193600051141561460d57600454331461460657600080fd5b6000600b55005b63e2e7d26460005114156146a95760206101c060246370a0823161014052306101605261015c6004356002811061464357600080fd5b600060c052602060c02001545afa61465a57600080fd5b601f3d1161466757600080fd5b6000506101c0516004356002811061467e57600080fd5b600160c052602060c02001548082101561469757600080fd5b8082039050905060005260206000f350005b6330c5408560005114156148c45760045433146146c557600080fd5b61014060006002818352015b61014051600281106146e257600080fd5b600060c052602060c020015461016052602061022060246370a082316101a052306101c0526101bc610160515afa61471957600080fd5b601f3d1161472657600080fd5b60005061022051610140516002811061473e57600080fd5b600160c052602060c02001548082101561475757600080fd5b808203905090506101805260006101805111156148af5760006004610200527fa9059cbb000000000000000000000000000000000000000000000000000000006102205261020060048060208461026001018260208501600060045af15050805182019150503360208261026001015260208101905061018051602082610260010152602081019050806102605261026090508051602001806103008284600060045af161480457600080fd5b505060206103c0610300516103206000610160515af161482357600080fd5b60203d808211156148345780614836565b815b905090506103a0526103a08051602001806101a08284600060045af161485b57600080fd5b505060006101a05111156148ae576101a080602001516000825180602090131561488457600080fd5b809190121561489257600080fd5b806020036101000a820490509050905015156148ad57600080fd5b5b5b5b81516001018083528114156146d1575b5050005b63524c390160005114156149725760045433146148e057600080fd5b61014060006002818352015b60206101e060246370a0823161016052306101805261017c610140516002811061491557600080fd5b600060c052602060c02001545afa61492c57600080fd5b601f3d1161493957600080fd5b6000506101e051610140516002811061495157600080fd5b600160c052602060c02001555b81516001018083528114156148ec575b5050005b63e369885360005114156149a357600454331461498e57600080fd5b426010541161499c57600080fd5b6001600f55005b633046f97260005114156149c65760045433146149bf57600080fd5b6000600f55005b63c661065760005114156149fb57600435600281106149e457600080fd5b600060c052602060c020015460005260206000f350005b634903b0d16000511415614a305760043560028110614a1957600080fd5b600160c052602060c020015460005260206000f350005b63ddca3f436000511415614a4c5760025460005260206000f350005b63fee3f7f96000511415614a685760035460005260206000f350005b638da5cb5b6000511415614a845760045460005260206000f350005b635409491a6000511415614aa05760065460005260206000f350005b63b4b577ad6000511415614abc5760075460005260206000f350005b632081066c6000511415614ad85760085460005260206000f350005b63140522886000511415614af45760095460005260206000f350005b63405e28f86000511415614b1057600a5460005260206000f350005b63e0a0b5866000511415614b2c57600b5460005260206000f350005b6358680d0b6000511415614b4857600c5460005260206000f350005b63e38244626000511415614b6457600d5460005260206000f350005b631ec0cdc16000511415614b8057600e5460005260206000f350005b5b60006000fd5b61011c614ca30361011c60003961011c614ca3036000f3"
}