{
  "address": "0xeaf467BFa4299B1fA97513D952cc47AF97929760",
  "abi": [
    {
      "inputs": [
        {
          "internalType": "address",
          "name": "_staker",
          "type": "address"
        },
        {
          "internalType": "address",
          "name": "_minter",
          "type": "address"
        },
        {
          "internalType": "address",
          "name": "_crv",
          "type": "address"
        },
        {
          "internalType": "address",
          "name": "_cvx",
          "type": "address"
        }
      ],
      "stateMutability": "nonpayable",
      "type": "constructor"
    },
    {
      "anonymous": false,
      "inputs": [
        {
          "indexed": true,
          "internalType": "address",
          "name": "user",
          "type": "address"
        },
        {
          "indexed": true,
          "internalType": "uint256",
          "name": "poolid",
          "type": "uint256"
        },
        {
          "indexed": false,
          "internalType": "uint256",
          "name": "amount",
          "type": "uint256"
        }
      ],
      "name": "Deposited",
      "type": "event"
    },
    {
      "anonymous": false,
      "inputs": [
        {
          "indexed": true,
          "internalType": "address",
          "name": "user",
          "type": "address"
        },
        {
          "indexed": true,
          "internalType": "uint256",
          "name": "poolid",
          "type": "uint256"
        },
        {
          "indexed": false,
          "internalType": "uint256",
          "name": "amount",
          "type": "uint256"
        }
      ],
      "name": "Withdrawn",
      "type": "event"
    },
    {
      "inputs": [
        {
          "internalType": "address",
          "name": "_lptoken",
          "type": "address"
        },
        {
          "internalType": "address",
          "name": "_gauge",
          "type": "address"
        },
        {
          "internalType": "uint256",
          "name": "",
          "type": "uint256"
        }
      ],
      "name": "addPool",
      "outputs": [
        {
          "internalType": "bool",
          "name": "",
          "type": "bool"
        }
      ],
      "stateMutability": "nonpayable",
      "type": "function"
    },
    {
      "inputs": [],
      "name": "crv",
      "outputs": [
        {
          "internalType": "address",
          "name": "",
          "type": "address"
        }
      ],
      "stateMutability": "view",
      "type": "function"
    },
    {
      "inputs": [],
      "name": "cvx",
      "outputs": [
        {
          "internalType": "address",
          "name": "",
          "type": "address"
        }
      ],
      "stateMutability": "view",
      "type": "function"
    },
    {
      "inputs": [
        {
          "internalType": "uint256",
          "name": "_pid",
          "type": "uint256"
        },
        {
          "internalType": "uint256",
          "name": "_amount",
          "type": "uint256"
        },
        {
          "internalType": "bool",
          "name": "",
          "type": "bool"
        }
      ],
      "name": "deposit",
      "outputs": [
        {
          "internalType": "bool",
          "name": "",
          "type": "bool"
        }
      ],
      "stateMutability": "nonpayable",
      "type": "function"
    },
    {
      "inputs": [
        {
          "internalType": "uint256",
          "name": "_pid",
          "type": "uint256"
        },
        {
          "internalType": "bool",
          "name": "_stake",
          "type": "bool"
        }
      ],
      "name": "depositAll",
      "outputs": [
        {
          "internalType": "bool",
          "name": "",
          "type": "bool"
        }
      ],
      "stateMutability": "nonpayable",
      "type": "function"
    },
    {
      "inputs": [],
      "name": "minter",
      "outputs": [
        {
          "internalType": "address",
          "name": "",
          "type": "address"
        }
      ],
      "stateMutability": "view",
      "type": "function"
    },
    {
      "inputs": [],
      "name": "owner",
      "outputs": [
        {
          "internalType": "address",
          "name": "",
          "type": "address"
        }
      ],
      "stateMutability": "view",
      "type": "function"
    },
    {
      "inputs": [
        {
          "internalType": "uint256",
          "name": "",
          "type": "uint256"
        }
      ],
      "name": "poolInfo",
      "outputs": [
        {
          "internalType": "address",
          "name": "lptoken",
          "type": "address"
        },
        {
          "internalType": "address",
          "name": "token",
          "type": "address"
        },
        {
          "internalType": "address",
          "name": "gauge",
          "type": "address"
        },
        {
          "internalType": "address",
          "name": "crvRewards",
          "type": "address"
        },
        {
          "internalType": "address",
          "name": "stash",
          "type": "address"
        },
        {
          "internalType": "bool",
          "name": "shutdown",
          "type": "bool"
        }
      ],
      "stateMutability": "view",
      "type": "function"
    },
    {
      "inputs": [],
      "name": "poolLength",
      "outputs": [
        {
          "internalType": "uint256",
          "name": "",
          "type": "uint256"
        }
      ],
      "stateMutability": "view",
      "type": "function"
    },
    {
      "inputs": [],
      "name": "staker",
      "outputs": [
        {
          "internalType": "address",
          "name": "",
          "type": "address"
        }
      ],
      "stateMutability": "view",
      "type": "function"
    },
    {
      "inputs": [
        {
          "internalType": "uint256",
          "name": "_pid",
          "type": "uint256"
        },
        {
          "internalType": "uint256",
          "name": "_amount",
          "type": "uint256"
        }
      ],
      "name": "withdraw",
      "outputs": [
        {
          "internalType": "bool",
          "name": "",
          "type": "bool"
        }
      ],
      "stateMutability": "nonpayable",
      "type": "function"
    },
    {
      "inputs": [
        {
          "internalType": "uint256",
          "name": "_pid",
          "type": "uint256"
        }
      ],
      "name": "withdrawAll",
      "outputs": [
        {
          "internalType": "bool",
          "name": "",
          "type": "bool"
        }
      ],
      "stateMutability": "nonpayable",
      "type": "function"
    }
  ],
  "transactionHash": "0xc5815b76a0acb0c4118457b029e773bcf734a8497bab201dd18be437d4de7347",
  "args": [
    "0x91019BAE8beD657A416e8B5B582F30c5Eef99132",
    "0x91019BAE8beD657A416e8B5B582F30c5Eef99132",
    "0xDB0E1fe102Be9c0fD355100271283dF18bA4797F",
    "0x3631944Bd99a426d628070d91CDC559ae4276a6d"
  ],
  "solcInputHash": "188d4737eecfc6086b2d8c0c9cde542d",
  "bytecode": "0x61010060405234801561001157600080fd5b506040516126953803806126958339818101604052608081101561003457600080fd5b508051602082015160408301516060938401516001600160601b031993851b841660c052600080546001600160a01b0319163317905591841b831660e052831b821660805290911b1660a05260805160601c60a05160601c60c05160601c60e05160601c6125ca6100cb6000398061028252508061042d525080610a295280610be4525080610504528061099c52506125ca6000f3fe60806040523480156200001157600080fd5b5060043610620000c45760003560e01c806360759fce116200007b57806360759fce14620001e15780636a4874a114620002095780637e29d6c214620002135780638da5cb5b146200024c578063923c1d611462000256578063958e2d31146200026057620000c4565b80630754617214620000c9578063081e3eda14620000ef5780631526fe27146200010b57806343a0d066146200016f578063441a3e7014620001b15780635ebaf1db14620001d7575b600080fd5b620000d362000280565b604080516001600160a01b039092168252519081900360200190f35b620000f9620002a4565b60408051918252519081900360200190f35b6200012b600480360360208110156200012357600080fd5b5035620002aa565b604080516001600160a01b0397881681529587166020870152938616858501529185166060850152909316608083015291151560a082015290519081900360c00190f35b6200019d600480360360608110156200018757600080fd5b5080359060208101359060400135151562000309565b604080519115158252519081900360200190f35b6200019d60048036036040811015620001c957600080fd5b508035906020013562000412565b620000d36200042b565b6200019d60048036036040811015620001f957600080fd5b508035906020013515156200044f565b620000d362000502565b6200019d600480360360608110156200022b57600080fd5b506001600160a01b0381358116916020810135909116906040013562000526565b620000d362000bd3565b620000d362000be2565b6200019d600480360360208110156200027857600080fd5b503562000c06565b7f000000000000000000000000000000000000000000000000000000000000000081565b60015490565b60018181548110620002b857fe5b6000918252602090912060059091020180546001820154600283015460038401546004909401546001600160a01b03938416955091831693908316929081169190811690600160a01b900460ff1686565b600080600185815481106200031a57fe5b6000918252602090912060059091020180549091506001600160a01b0316620003468133308862000cbb565b6001820154604080516340c10f1960e01b81523360048201526024810188905290516001600160a01b039092169182916340c10f199160448083019260209291908290030181600087803b1580156200039e57600080fd5b505af1158015620003b3573d6000803e3d6000fd5b505050506040513d6020811015620003ca57600080fd5b5050604080518781529051889133917f73a19dd210f1a7f902193214c0ee91dd35ee5b4d920cba8d519eca65a7b488ca9181900360200190a3600193505050505b9392505050565b6000620004228383333362000d1d565b50600192915050565b7f000000000000000000000000000000000000000000000000000000000000000081565b600080600184815481106200046057fe5b60009182526020808320600590920290910154604080516370a0823160e01b815233600482015290516001600160a01b03909216945084926370a0823192602480840193829003018186803b158015620004b957600080fd5b505afa158015620004ce573d6000803e3d6000fd5b505050506040513d6020811015620004e557600080fd5b50519050620004f685828662000309565b50600195945050505050565b7f000000000000000000000000000000000000000000000000000000000000000081565b60008060018054905090506000856001600160a01b03166306fdde036040518163ffffffff1660e01b815260040160006040518083038186803b1580156200056d57600080fd5b505afa15801562000582573d6000803e3d6000fd5b505050506040513d6000823e601f3d908101601f191682016040526020811015620005ac57600080fd5b8101908080516040519392919084640100000000821115620005cd57600080fd5b908301906020820185811115620005e357600080fd5b8251640100000000811182820188101715620005fe57600080fd5b82525081516020918201929091019080838360005b838110156200062d57818101518382015260200162000613565b50505050905090810190601f1680156200065b5780820380516001836020036101000a031916815260200191505b506040525050506040516020018082805190602001908083835b60208310620006965780518252601f19909201916020918201910162000675565b6001836020036101000a038019825116818451168082178552505050505050905001806e0810dbdb9d995e0811195c1bdcda5d608a1b815250600f01915050604051602081830303815290604052866001600160a01b03166395d89b416040518163ffffffff1660e01b815260040160006040518083038186803b1580156200071e57600080fd5b505afa15801562000733573d6000803e3d6000fd5b505050506040513d6000823e601f3d908101601f1916820160405260208110156200075d57600080fd5b81019080805160405193929190846401000000008211156200077e57600080fd5b9083019060208201858111156200079457600080fd5b8251640100000000811182820188101715620007af57600080fd5b82525081516020918201929091019080838360005b83811015620007de578181015183820152602001620007c4565b50505050905090810190601f1680156200080c5780820380516001836020036101000a031916815260200191505b506040525050506040516020018080620c6ecf60eb1b81525060030182805190602001908083835b60208310620008555780518252601f19909201916020918201910162000834565b6001836020036101000a038019825116818451168082178552505050505050905001915050604051602081830303815290604052601260405162000899906200116b565b60408101829052606080825284519082015283518190602080830191608084019188019080838360005b83811015620008dd578181015183820152602001620008c3565b50505050905090810190601f1680156200090b5780820380516001836020036101000a031916815260200191505b50838103825285518152855160209182019187019080838360005b838110156200094057818101518382015260200162000926565b50505050905090810190601f1680156200096e5780820380516001836020036101000a031916815260200191505b5095505050505050604051809103906000f08015801562000993573d6000803e3d6000fd5b509050600082827f00000000000000000000000000000000000000000000000000000000000000003030604051620009cb9062001179565b9485526001600160a01b039384166020860152918316604080860191909152908316606085015291166080830152519081900360a001906000f08015801562000a18573d6000803e3d6000fd5b50905062000a546001600160a01b037f000000000000000000000000000000000000000000000000000000000000000016308361271062000cbb565b6040805160c0810182526001600160a01b039889168152928816602084019081529688169083019081529087166060830190815260006080840181815260a085018281526001805480820182559381905295517fb10e2d527612073b26eecdfd717e6a320cf44b4afac2b0732d9fcbe2b7fa0cf6600590940293840180546001600160a01b0319908116928e1692909217905599517fb10e2d527612073b26eecdfd717e6a320cf44b4afac2b0732d9fcbe2b7fa0cf7840180548c16918d1691909117905593517fb10e2d527612073b26eecdfd717e6a320cf44b4afac2b0732d9fcbe2b7fa0cf8830180548b16918c1691909117905591517fb10e2d527612073b26eecdfd717e6a320cf44b4afac2b0732d9fcbe2b7fa0cf9820180548a16918b1691909117905590517fb10e2d527612073b26eecdfd717e6a320cf44b4afac2b0732d9fcbe2b7fa0cfa909101805492519290971697169690961760ff60a01b1916600160a01b9615159690960295909517909355509192915050565b6000546001600160a01b031681565b7f000000000000000000000000000000000000000000000000000000000000000081565b6000806001838154811062000c1757fe5b6000918252602080832060016005909302019190910154604080516370a0823160e01b815233600482015290516001600160a01b03909216945084926370a0823192602480840193829003018186803b15801562000c7457600080fd5b505afa15801562000c89573d6000803e3d6000fd5b505050506040513d602081101562000ca057600080fd5b5051905062000cb0848262000412565b506001949350505050565b604080516001600160a01b0380861660248301528416604482015260648082018490528251808303909101815260849091019091526020810180516001600160e01b03166323b872dd60e01b17905262000d1790859062000e2b565b50505050565b60006001858154811062000d2d57fe5b600091825260208083206005909202909101805460018201546040805163079cc67960e41b81526001600160a01b038a81166004830152602482018c905291519497509281169591169384936379cc679093604480820194918390030190829087803b15801562000d9d57600080fd5b505af115801562000db2573d6000803e3d6000fd5b505050506040513d602081101562000dc957600080fd5b5062000de290506001600160a01b038316858862000ee7565b60408051878152905188916001600160a01b038716917f92ccf450a286a957af52509bc1c9939d1a6a481783e142e41e2499f0bb66ebc69181900360200190a350505050505050565b606062000e82826040518060400160405280602081526020017f5361666545524332303a206c6f772d6c6576656c2063616c6c206661696c6564815250856001600160a01b031662000f3b9092919063ffffffff16565b80519091501562000ee25780806020019051602081101562000ea357600080fd5b505162000ee25760405162461bcd60e51b815260040180806020018281038252602a8152602001806200256b602a913960400191505060405180910390fd5b505050565b604080516001600160a01b038416602482015260448082018490528251808303909101815260649091019091526020810180516001600160e01b031663a9059cbb60e01b17905262000ee290849062000e2b565b606062000f4c848460008562000f54565b949350505050565b60608247101562000f975760405162461bcd60e51b8152600401808060200182810382526026815260200180620025456026913960400191505060405180910390fd5b62000fa285620010bb565b62000ff4576040805162461bcd60e51b815260206004820152601d60248201527f416464726573733a2063616c6c20746f206e6f6e2d636f6e7472616374000000604482015290519081900360640190fd5b60006060866001600160a01b031685876040518082805190602001908083835b60208310620010355780518252601f19909201916020918201910162001014565b6001836020036101000a03801982511681845116808217855250505050505090500191505060006040518083038185875af1925050503d806000811462001099576040519150601f19603f3d011682016040523d82523d6000602084013e6200109e565b606091505b5091509150620010b0828286620010c1565b979650505050505050565b3b151590565b60608315620010d25750816200040b565b825115620010e35782518084602001fd5b8160405162461bcd60e51b81526004018080602001828103825283818151815260200191508051906020019080838360005b838110156200112f57818101518382015260200162001115565b50505050905090810190601f1680156200115d5780820380516001836020036101000a031916815260200191505b509250505060405180910390fd5b610df3806200118883390190565b6105ca8062001f7b8339019056fe60806040523480156200001157600080fd5b5060405162000df338038062000df3833981810160405260608110156200003757600080fd5b81019080805160405193929190846401000000008211156200005857600080fd5b9083019060208201858111156200006e57600080fd5b82516401000000008111828201881017156200008957600080fd5b82525081516020918201929091019080838360005b83811015620000b85781810151838201526020016200009e565b50505050905090810190601f168015620000e65780820380516001836020036101000a031916815260200191505b50604052602001805160405193929190846401000000008211156200010a57600080fd5b9083019060208201858111156200012057600080fd5b82516401000000008111828201881017156200013b57600080fd5b82525081516020918201929091019080838360005b838110156200016a57818101518382015260200162000150565b50505050905090810190601f168015620001985780820380516001836020036101000a031916815260200191505b506040526020908101518551909350620001b99250600091860190620001fe565b508151620001cf906001906020850190620001fe565b506002805460ff191660ff9290921691909117610100600160a81b0319166101003302179055506200029a9050565b828054600181600116156101000203166002900490600052602060002090601f016020900481019282601f106200024157805160ff191683800117855562000271565b8280016001018555821562000271579182015b828111156200027157825182559160200191906001019062000254565b506200027f92915062000283565b5090565b5b808211156200027f576000815560010162000284565b610b4980620002aa6000396000f3fe608060405234801561001057600080fd5b506004361061010b5760003560e01c806357915897116100a2578063a9059cbb11610071578063a9059cbb14610303578063aa74e6221461032f578063d5abeb01146101cd578063dd62ed3e14610337578063f2fde38b146103655761010b565b8063579158971461028c57806370a08231146102a957806379cc6790146102cf57806395d89b41146102fb5761010b565b806323b872dd116100de57806323b872dd146101ef578063313ce5671461022557806340c10f191461024357806342966c681461026f5761010b565b806306fdde0314610110578063095ea7b31461018d57806318160ddd146101cd5780631f96e76f146101e7575b600080fd5b61011861038d565b6040805160208082528351818301528351919283929083019185019080838360005b8381101561015257818101518382015260200161013a565b50505050905090810190601f16801561017f5780820380516001836020036101000a031916815260200191505b509250505060405180910390f35b6101b9600480360360408110156101a357600080fd5b506001600160a01b038135169060200135610423565b604080519115158252519081900360200190f35b6101d561048a565b60408051918252519081900360200190f35b6101d5610490565b6101b96004803603606081101561020557600080fd5b506001600160a01b0381358116916020810135909116906040013561049c565b61022d6105fb565b6040805160ff9092168252519081900360200190f35b6101b96004803603604081101561025957600080fd5b506001600160a01b038135169060200135610604565b6101b96004803603602081101561028557600080fd5b503561066e565b6101b9600480360360208110156102a257600080fd5b50356106cd565b6101d5600480360360208110156102bf57600080fd5b50356001600160a01b03166106d9565b6101b9600480360360408110156102e557600080fd5b506001600160a01b0381351690602001356106f4565b6101186107ab565b6101b96004803603604081101561031957600080fd5b506001600160a01b03813516906020013561080b565b6101d5610818565b6101d56004803603604081101561034d57600080fd5b506001600160a01b0381358116916020013516610826565b61038b6004803603602081101561037b57600080fd5b50356001600160a01b0316610851565b005b60008054604080516020601f60026000196101006001881615020190951694909404938401819004810282018101909252828152606093909290918301828280156104195780601f106103ee57610100808354040283529160200191610419565b820191906000526020600020905b8154815290600101906020018083116103fc57829003601f168201915b5050505050905090565b3360008181526005602090815260408083206001600160a01b038716808552908352818420869055815186815291519394909390927f8c5be1e5ebec7d5bd14f71427d1e84f3dd0314c0f7b2291e5b200ac8c7c3b925928290030190a35060015b92915050565b60035490565b670de0b6b3a764000090565b6000336001600160a01b03851614806104d857506001600160a01b03841660009081526005602090815260408083203384529091529020548211155b610514576040805162461bcd60e51b815260206004820152600860248201526710b9b832b73232b960c11b604482015290519081900360640190fd5b61051f8484846108cd565b336001600160a01b0385161480159061055d57506001600160a01b038416600090815260056020908152604080832033845290915290205460001914155b156105f1576001600160a01b038416600090815260056020908152604080832033845290915290205461059090836109d1565b6001600160a01b03858116600090815260056020908152604080832033808552908352928190208590558051948552519287169391927f8c5be1e5ebec7d5bd14f71427d1e84f3dd0314c0f7b2291e5b200ac8c7c3b9259281900390910190a35b5060019392505050565b60025460ff1690565b60025460009061010090046001600160a01b0316331461065b576040805162461bcd60e51b815260206004820152600d60248201526c22a9292fa727aa2fa7aba722a960991b604482015290519081900360640190fd5b61066583836109e1565b50600192915050565b336000908152600460205260408120548211156106bb576040805162461bcd60e51b815260206004808301919091526024820152630858985b60e21b604482015290519081900360640190fd5b6106c53383610a72565b506001919050565b60006106c533836109e1565b6001600160a01b031660009081526004602052604090205490565b60025460009061010090046001600160a01b0316331461074b576040805162461bcd60e51b815260206004820152600d60248201526c22a9292fa727aa2fa7aba722a960991b604482015290519081900360640190fd5b6001600160a01b0383166000908152600460205260409020548211156107a1576040805162461bcd60e51b815260206004808301919091526024820152630858985b60e21b604482015290519081900360640190fd5b6106658383610a72565b60018054604080516020601f600260001961010087891615020190951694909404938401819004810282018101909252828152606093909290918301828280156104195780601f106103ee57610100808354040283529160200191610419565b60006106653384846108cd565b69152d02c7e14af680000090565b6001600160a01b03918216600090815260056020908152604080832093909416825291909152205490565b60025461010090046001600160a01b031633146108a5576040805162461bcd60e51b815260206004820152600d60248201526c22a9292fa727aa2fa7aba722a960991b604482015290519081900360640190fd5b600280546001600160a01b0390921661010002610100600160a81b0319909216919091179055565b6001600160a01b038316600090815260046020526040902054811115610923576040805162461bcd60e51b815260206004808301919091526024820152630858985b60e21b604482015290519081900360640190fd5b6001600160a01b03831660009081526004602052604090205461094690826109d1565b6001600160a01b0380851660009081526004602052604080822093909355908416815220546109759082610b03565b6001600160a01b0380841660008181526004602090815260409182902094909455805185815290519193928716927fddf252ad1be2c89b69c2b068fc378daa952ba7f163c4a11628f55a4df523b3ef92918290030190a3505050565b8082038281111561048457600080fd5b6001600160a01b038216600090815260046020526040902054610a049082610b03565b6001600160a01b038316600090815260046020526040902055600354610a2a9082610b03565b6003556040805182815290516001600160a01b038416916000917fddf252ad1be2c89b69c2b068fc378daa952ba7f163c4a11628f55a4df523b3ef9181900360200190a35050565b6001600160a01b038216600090815260046020526040902054610a9590826109d1565b6001600160a01b038316600090815260046020526040902055600354610abb90826109d1565b6003556040805182815290516000916001600160a01b038516917fddf252ad1be2c89b69c2b068fc378daa952ba7f163c4a11628f55a4df523b3ef9181900360200190a35050565b8082018281101561048457600080fdfea26469706673582212201853e9f0d6a8afa712d5a9e5318898fee0d8ae65c3ce5d5156a49b1bd403b9cc64736f6c634300060c0033608060405234801561001057600080fd5b506040516105ca3803806105ca833981810160405260a081101561003357600080fd5b508051604090910151600191909155600080546001600160a01b039092166001600160a01b0319909216919091178155600255610555806100756000396000f3fe608060405234801561001057600080fd5b50600436106100615760003560e01c80628cc262146100665780632ee409081461009e5780637050ccd9146100de578063d55a23f41461010c578063f106845414610114578063f7c618c11461011c575b600080fd5b61008c6004803603602081101561007c57600080fd5b50356001600160a01b0316610140565b60408051918252519081900360200190f35b6100ca600480360360408110156100b457600080fd5b506001600160a01b03813516906020013561014d565b604080519115158252519081900360200190f35b6100ca600480360360408110156100f457600080fd5b506001600160a01b0381351690602001351515610155565b61008c61017f565b61008c610185565b61012461018b565b604080516001600160a01b039092168252519081900360200190f35b50670de0b6b3a764000090565b600192915050565b60008054610176906001600160a01b03163085670de0b6b3a764000061019a565b50600192915050565b60025481565b60015481565b6000546001600160a01b031681565b604080516001600160a01b0380861660248301528416604482015260648082018490528251808303909101815260849091019091526020810180516001600160e01b03166323b872dd60e01b1790526101f49085906101fa565b50505050565b606061024f826040518060400160405280602081526020017f5361666545524332303a206c6f772d6c6576656c2063616c6c206661696c6564815250856001600160a01b03166102b09092919063ffffffff16565b8051909150156102ab5780806020019051602081101561026e57600080fd5b50516102ab5760405162461bcd60e51b815260040180806020018281038252602a8152602001806104f6602a913960400191505060405180910390fd5b505050565b60606102bf84846000856102c9565b90505b9392505050565b60608247101561030a5760405162461bcd60e51b81526004018080602001828103825260268152602001806104d06026913960400191505060405180910390fd5b61031385610425565b610364576040805162461bcd60e51b815260206004820152601d60248201527f416464726573733a2063616c6c20746f206e6f6e2d636f6e7472616374000000604482015290519081900360640190fd5b60006060866001600160a01b031685876040518082805190602001908083835b602083106103a35780518252601f199092019160209182019101610384565b6001836020036101000a03801982511681845116808217855250505050505090500191505060006040518083038185875af1925050503d8060008114610405576040519150601f19603f3d011682016040523d82523d6000602084013e61040a565b606091505b509150915061041a82828661042b565b979650505050505050565b3b151590565b6060831561043a5750816102c2565b82511561044a5782518084602001fd5b8160405162461bcd60e51b81526004018080602001828103825283818151815260200191508051906020019080838360005b8381101561049457818101518382015260200161047c565b50505050905090810190601f1680156104c15780820380516001836020036101000a031916815260200191505b509250505060405180910390fdfe416464726573733a20696e73756666696369656e742062616c616e636520666f722063616c6c5361666545524332303a204552433230206f7065726174696f6e20646964206e6f742073756363656564a26469706673582212206bcd92270aa7f45e06253a7c45488875ab80c887f07c9034b04cca83edd8fb1464736f6c634300060c0033416464726573733a20696e73756666696369656e742062616c616e636520666f722063616c6c5361666545524332303a204552433230206f7065726174696f6e20646964206e6f742073756363656564a2646970667358221220093f69e0b47ec18d65d1ec0552f3b010ae6f283a0e8991b8629595484efac69c64736f6c634300060c0033",
  "devdoc": {
    "kind": "dev",
    "methods": {},
    "version": 1
  },
  "userdoc": {
    "kind": "user",
    "methods": {},
    "version": 1
  },
  "storageLayout": {
    "storage": [
      {
        "astId": 17580,
        "contract": "contracts/v3/mock/MockConvexVault.sol:MockConvexVault",
        "label": "owner",
        "offset": 0,
        "slot": "0",
        "type": "t_address"
      },
      {
        "astId": 17600,
        "contract": "contracts/v3/mock/MockConvexVault.sol:MockConvexVault",
        "label": "poolInfo",
        "offset": 0,
        "slot": "1",
        "type": "t_array(t_struct(PoolInfo)17597_storage)dyn_storage"
      }
    ],
    "types": {
      "t_address": {
        "encoding": "inplace",
        "label": "address",
        "numberOfBytes": "20"
      },
      "t_array(t_struct(PoolInfo)17597_storage)dyn_storage": {
        "base": "t_struct(PoolInfo)17597_storage",
        "encoding": "dynamic_array",
        "label": "struct MockConvexVault.PoolInfo[]",
        "numberOfBytes": "32"
      },
      "t_bool": {
        "encoding": "inplace",
        "label": "bool",
        "numberOfBytes": "1"
      },
      "t_struct(PoolInfo)17597_storage": {
        "encoding": "inplace",
        "label": "struct MockConvexVault.PoolInfo",
        "members": [
          {
            "astId": 17586,
            "contract": "contracts/v3/mock/MockConvexVault.sol:MockConvexVault",
            "label": "lptoken",
            "offset": 0,
            "slot": "0",
            "type": "t_address"
          },
          {
            "astId": 17588,
            "contract": "contracts/v3/mock/MockConvexVault.sol:MockConvexVault",
            "label": "token",
            "offset": 0,
            "slot": "1",
            "type": "t_address"
          },
          {
            "astId": 17590,
            "contract": "contracts/v3/mock/MockConvexVault.sol:MockConvexVault",
            "label": "gauge",
            "offset": 0,
            "slot": "2",
            "type": "t_address"
          },
          {
            "astId": 17592,
            "contract": "contracts/v3/mock/MockConvexVault.sol:MockConvexVault",
            "label": "crvRewards",
            "offset": 0,
            "slot": "3",
            "type": "t_address"
          },
          {
            "astId": 17594,
            "contract": "contracts/v3/mock/MockConvexVault.sol:MockConvexVault",
            "label": "stash",
            "offset": 0,
            "slot": "4",
            "type": "t_address"
          },
          {
            "astId": 17596,
            "contract": "contracts/v3/mock/MockConvexVault.sol:MockConvexVault",
            "label": "shutdown",
            "offset": 20,
            "slot": "4",
            "type": "t_bool"
          }
        ],
        "numberOfBytes": "160"
      }
    }
  }
}