{
  "address": "0x4851dd26987b2a7CdAf30e643fB522d0201a17Bd",
  "abi": [
    {
      "inputs": [
        {
          "internalType": "address",
          "name": "_user",
          "type": "address"
        },
        {
          "internalType": "uint256",
          "name": "_amount",
          "type": "uint256"
        },
        {
          "internalType": "uint256",
          "name": "_pendingAmount",
          "type": "uint256"
        }
      ],
      "name": "addBalance",
      "outputs": [],
      "stateMutability": "nonpayable",
      "type": "function"
    },
    {
      "inputs": [
        {
          "internalType": "uint256",
          "name": "",
          "type": "uint256"
        },
        {
          "internalType": "address",
          "name": "_user",
          "type": "address"
        }
      ],
      "name": "pendingYaxis",
      "outputs": [
        {
          "internalType": "uint256",
          "name": "",
          "type": "uint256"
        }
      ],
      "stateMutability": "view",
      "type": "function"
    },
    {
      "inputs": [
        {
          "internalType": "uint256",
          "name": "",
          "type": "uint256"
        },
        {
          "internalType": "address",
          "name": "_user",
          "type": "address"
        }
      ],
      "name": "userInfo",
      "outputs": [
        {
          "internalType": "uint256",
          "name": "",
          "type": "uint256"
        },
        {
          "internalType": "uint256",
          "name": "",
          "type": "uint256"
        },
        {
          "internalType": "uint256",
          "name": "",
          "type": "uint256"
        }
      ],
      "stateMutability": "view",
      "type": "function"
    }
  ],
  "transactionHash": "0x0da608db2302bb14bd286c1f625f827aa56cd8987c12f3625112c91a869dbd1f",
  "args": [],
  "solcInputHash": "8621a3697bf16e269e6ee6ea33ffa011",
  "bytecode": "0x608060405234801561001057600080fd5b506101a5806100206000396000f3fe608060405234801561001057600080fd5b50600436106100415760003560e01c806361336a311461004657806393f1a40b14610084578063cfad7410146100ce575b600080fd5b6100726004803603604081101561005c57600080fd5b50803590602001356001600160a01b0316610102565b60408051918252519081900360200190f35b6100b06004803603604081101561009a57600080fd5b50803590602001356001600160a01b031661011f565b60408051938452602084019290925282820152519081900360600190f35b610100600480360360608110156100e457600080fd5b506001600160a01b03813516906020810135906040013561013f565b005b6001600160a01b0316600090815260016020526040902054919050565b6001600160a01b0316600090815260208190526040812054929091508190565b6001600160a01b03909216600090815260208181526040808320805490940190935560019052208054909101905556fea2646970667358221220fab4416d6eb52987967fcdfdf8eff2bb5b3dfc5f20e94006c09de85638c23d3a64736f6c634300060c0033",
  "devdoc": {
    "kind": "dev",
    "methods": {},
    "version": 1
  },
  "userdoc": {
    "kind": "user",
    "methods": {},
    "version": 1
  },
  "storageLayout": {
    "storage": [
      {
        "astId": 5,
        "contract": "contracts/legacy/mock/MockYaxisChef.sol:MockYaxisChef",
        "label": "_userInfo",
        "offset": 0,
        "slot": "0",
        "type": "t_mapping(t_address,t_uint256)"
      },
      {
        "astId": 9,
        "contract": "contracts/legacy/mock/MockYaxisChef.sol:MockYaxisChef",
        "label": "_pending",
        "offset": 0,
        "slot": "1",
        "type": "t_mapping(t_address,t_uint256)"
      }
    ],
    "types": {
      "t_address": {
        "encoding": "inplace",
        "label": "address",
        "numberOfBytes": "20"
      },
      "t_mapping(t_address,t_uint256)": {
        "encoding": "mapping",
        "key": "t_address",
        "label": "mapping(address => uint256)",
        "numberOfBytes": "32",
        "value": "t_uint256"
      },
      "t_uint256": {
        "encoding": "inplace",
        "label": "uint256",
        "numberOfBytes": "32"
      }
    }
  }
}