{
  "address": "0x261572b5Acf698891a21077Da34f22817BFE50E9",
  "abi": [
    {
      "inputs": [
        {
          "internalType": "contract IERC20",
          "name": "_univ2LpToken",
          "type": "address"
        }
      ],
      "stateMutability": "nonpayable",
      "type": "constructor"
    },
    {
      "inputs": [
        {
          "internalType": "address",
          "name": "tokenA",
          "type": "address"
        },
        {
          "internalType": "address",
          "name": "tokenB",
          "type": "address"
        },
        {
          "internalType": "uint256",
          "name": "amountADesired",
          "type": "uint256"
        },
        {
          "internalType": "uint256",
          "name": "amountBDesired",
          "type": "uint256"
        },
        {
          "internalType": "uint256",
          "name": "",
          "type": "uint256"
        },
        {
          "internalType": "uint256",
          "name": "",
          "type": "uint256"
        },
        {
          "internalType": "address",
          "name": "to",
          "type": "address"
        },
        {
          "internalType": "uint256",
          "name": "",
          "type": "uint256"
        }
      ],
      "name": "addLiquidity",
      "outputs": [
        {
          "internalType": "uint256",
          "name": "amountA",
          "type": "uint256"
        },
        {
          "internalType": "uint256",
          "name": "amountB",
          "type": "uint256"
        },
        {
          "internalType": "uint256",
          "name": "liquidity",
          "type": "uint256"
        }
      ],
      "stateMutability": "nonpayable",
      "type": "function"
    },
    {
      "inputs": [
        {
          "internalType": "uint256",
          "name": "amountIn",
          "type": "uint256"
        },
        {
          "internalType": "uint256",
          "name": "amountOutMin",
          "type": "uint256"
        },
        {
          "internalType": "address[]",
          "name": "path",
          "type": "address[]"
        },
        {
          "internalType": "address",
          "name": "to",
          "type": "address"
        },
        {
          "internalType": "uint256",
          "name": "deadline",
          "type": "uint256"
        }
      ],
      "name": "swapExactTokensForTokens",
      "outputs": [
        {
          "internalType": "uint256[]",
          "name": "amounts",
          "type": "uint256[]"
        }
      ],
      "stateMutability": "nonpayable",
      "type": "function"
    },
    {
      "inputs": [
        {
          "internalType": "uint256",
          "name": "amountIn",
          "type": "uint256"
        },
        {
          "internalType": "uint256",
          "name": "amountOutMin",
          "type": "uint256"
        },
        {
          "internalType": "address[]",
          "name": "path",
          "type": "address[]"
        },
        {
          "internalType": "address",
          "name": "to",
          "type": "address"
        },
        {
          "internalType": "uint256",
          "name": "deadline",
          "type": "uint256"
        }
      ],
      "name": "swapExactTokensForTokensSupportingFeeOnTransferTokens",
      "outputs": [
        {
          "internalType": "uint256[]",
          "name": "amounts",
          "type": "uint256[]"
        }
      ],
      "stateMutability": "nonpayable",
      "type": "function"
    }
  ],
  "transactionHash": "0xc0d449cc4dd931045a9dc56204f64c4918ac5518aa418cbd5799bbbf534325f0",
  "args": [
    "0x0000000000000000000000000000000000000000"
  ],
  "solcInputHash": "beaf38c0c269bea5e46376d38ac13e9b",
  "bytecode": "0x608060405234801561001057600080fd5b506040516107f13803806107f18339818101604052602081101561003357600080fd5b5051600080546001600160a01b039092166001600160a01b031990921691909117905561078c806100656000396000f3fe608060405234801561001057600080fd5b50600436106100415760003560e01c806338ed1739146100465780635c11d79514610046578063e8e3370014610121575b600080fd5b6100d1600480360360a081101561005c57600080fd5b81359160208101359181019060608101604082013564010000000081111561008357600080fd5b82018360208201111561009557600080fd5b803590602001918460208302840111640100000000831117156100b757600080fd5b91935091506001600160a01b038135169060200135610194565b60408051602080825283518183015283519192839290830191858101910280838360005b8381101561010d5781810151838201526020016100f5565b505050509050019250505060405180910390f35b610176600480360361010081101561013857600080fd5b506001600160a01b038135811691602081013582169160408201359160608101359160808201359160a08101359160c0820135169060e001356101af565b60408051938452602084019290925282820152519081900360600190f35b60606101a487878787878761021a565b979650505050505050565b60008060008789106101c157876101c3565b885b92508291508190506101e06001600160a01b038c16333084610307565b6101f56001600160a01b038b16333085610307565b60005461020c906001600160a01b03168683610367565b985098509895505050505050565b606060006102298860016103be565b905060008686600081811061023a57fe5b905060200201356001600160a01b031690506000878760018a8a90500381811061026057fe5b905060200201356001600160a01b0316905061029233308c856001600160a01b0316610307909392919063ffffffff16565b6102a66001600160a01b0382168785610367565b604080516002808252606082018352909160208301908036833701905050935089846000815181106102d457fe5b60200260200101818152505082846001815181106102ee57fe5b6020026020010181815250505050509695505050505050565b604080516001600160a01b0380861660248301528416604482015260648082018490528251808303909101815260849091019091526020810180516001600160e01b03166323b872dd60e01b179052610361908590610420565b50505050565b604080516001600160a01b038416602482015260448082018490528251808303909101815260649091019091526020810180516001600160e01b031663a9059cbb60e01b1790526103b9908490610420565b505050565b6000826103cd5750600061041a565b828202828482816103da57fe5b04146104175760405162461bcd60e51b815260040180806020018281038252602181526020018061070c6021913960400191505060405180910390fd5b90505b92915050565b6060610475826040518060400160405280602081526020017f5361666545524332303a206c6f772d6c6576656c2063616c6c206661696c6564815250856001600160a01b03166104d19092919063ffffffff16565b8051909150156103b95780806020019051602081101561049457600080fd5b50516103b95760405162461bcd60e51b815260040180806020018281038252602a81526020018061072d602a913960400191505060405180910390fd5b60606104e084846000856104ea565b90505b9392505050565b60608247101561052b5760405162461bcd60e51b81526004018080602001828103825260268152602001806106e66026913960400191505060405180910390fd5b6105348561063b565b610585576040805162461bcd60e51b815260206004820152601d60248201527f416464726573733a2063616c6c20746f206e6f6e2d636f6e7472616374000000604482015290519081900360640190fd5b60006060866001600160a01b031685876040518082805190602001908083835b602083106105c45780518252601f1990920191602091820191016105a5565b6001836020036101000a03801982511681845116808217855250505050505090500191505060006040518083038185875af1925050503d8060008114610626576040519150601f19603f3d011682016040523d82523d6000602084013e61062b565b606091505b50915091506101a4828286610641565b3b151590565b606083156106505750816104e3565b8251156106605782518084602001fd5b8160405162461bcd60e51b81526004018080602001828103825283818151815260200191508051906020019080838360005b838110156106aa578181015183820152602001610692565b50505050905090810190601f1680156106d75780820380516001836020036101000a031916815260200191505b509250505060405180910390fdfe416464726573733a20696e73756666696369656e742062616c616e636520666f722063616c6c536166654d6174683a206d756c7469706c69636174696f6e206f766572666c6f775361666545524332303a204552433230206f7065726174696f6e20646964206e6f742073756363656564a26469706673582212206c0a8522b4c1bb0bc264b453f9b1d61abd84be6287d5a949ef982a8b14c411f864736f6c634300060c0033",
  "devdoc": {
    "kind": "dev",
    "methods": {},
    "version": 1
  },
  "userdoc": {
    "kind": "user",
    "methods": {},
    "version": 1
  },
  "storageLayout": {
    "storage": [
      {
        "astId": 10876,
        "contract": "contracts/metavault/mock/MockUniswapRouter.sol:MockUniswapRouter",
        "label": "univ2LpToken",
        "offset": 0,
        "slot": "0",
        "type": "t_contract(IERC20)981"
      }
    ],
    "types": {
      "t_contract(IERC20)981": {
        "encoding": "inplace",
        "label": "contract IERC20",
        "numberOfBytes": "20"
      }
    }
  }
}