{
  "address": "0x2372c945c38fa4acc5cC2845eBa2f78022D87787",
  "abi": [
    {
      "inputs": [
        {
          "internalType": "contract IERC20",
          "name": "_want",
          "type": "address"
        }
      ],
      "stateMutability": "nonpayable",
      "type": "constructor"
    },
    {
      "inputs": [
        {
          "internalType": "address",
          "name": "",
          "type": "address"
        }
      ],
      "name": "amounts",
      "outputs": [
        {
          "internalType": "uint256",
          "name": "",
          "type": "uint256"
        }
      ],
      "stateMutability": "view",
      "type": "function"
    },
    {
      "inputs": [
        {
          "internalType": "address",
          "name": "_account",
          "type": "address"
        }
      ],
      "name": "balanceOf",
      "outputs": [
        {
          "internalType": "uint256",
          "name": "",
          "type": "uint256"
        }
      ],
      "stateMutability": "view",
      "type": "function"
    },
    {
      "inputs": [
        {
          "internalType": "address",
          "name": "_account",
          "type": "address"
        }
      ],
      "name": "claimable_tokens",
      "outputs": [
        {
          "internalType": "uint256",
          "name": "",
          "type": "uint256"
        }
      ],
      "stateMutability": "view",
      "type": "function"
    },
    {
      "inputs": [
        {
          "internalType": "uint256",
          "name": "_amount",
          "type": "uint256"
        }
      ],
      "name": "deposit",
      "outputs": [],
      "stateMutability": "nonpayable",
      "type": "function"
    },
    {
      "inputs": [
        {
          "internalType": "uint256",
          "name": "_amount",
          "type": "uint256"
        }
      ],
      "name": "withdraw",
      "outputs": [],
      "stateMutability": "nonpayable",
      "type": "function"
    }
  ],
  "transactionHash": "0xfbdfb1c3c5e4fa59ad99b7d2e0b938e45f0b136053f425c79d62d1f3254d5445",
  "args": [
    "0x54f37AE099c0417146CE57615D4D39fB0D666bed"
  ],
  "solcInputHash": "29c097734f195176561e60c2670ea13c",
  "bytecode": "0x608060405234801561001057600080fd5b506040516107fc3803806107fc8339818101604052602081101561003357600080fd5b5051600080546001600160a01b039092166001600160a01b0319909216919091179055610797806100656000396000f3fe608060405234801561001057600080fd5b50600436106100575760003560e01c80632e1a7d4d1461005c578063331345831461007b57806355a3b2c1146100b357806370a08231146100d9578063b6b55f25146100ff575b600080fd5b6100796004803603602081101561007257600080fd5b503561011c565b005b6100a16004803603602081101561009157600080fd5b50356001600160a01b0316610160565b60408051918252519081900360200190f35b6100a1600480360360208110156100c957600080fd5b50356001600160a01b031661018a565b6100a1600480360360208110156100ef57600080fd5b50356001600160a01b031661019c565b6100796004803603602081101561011557600080fd5b50356101b7565b600054610133906001600160a01b031633836101e9565b3360009081526001602052604090205461014d9082610240565b3360009081526001602052604090205550565b6001600160a01b03811660009081526001602052604081205461018490600a610289565b92915050565b60016020526000908152604090205481565b6001600160a01b031660009081526001602052604090205490565b6000546101cf906001600160a01b03163330846102cb565b3360009081526001602052604090205461014d908261032b565b604080516001600160a01b038416602482015260448082018490528251808303909101815260649091019091526020810180516001600160e01b031663a9059cbb60e01b17905261023b908490610385565b505050565b600061028283836040518060400160405280601e81526020017f536166654d6174683a207375627472616374696f6e206f766572666c6f770000815250610436565b9392505050565b600061028283836040518060400160405280601a81526020017f536166654d6174683a206469766973696f6e206279207a65726f0000000000008152506104cd565b604080516001600160a01b0380861660248301528416604482015260648082018490528251808303909101815260849091019091526020810180516001600160e01b03166323b872dd60e01b179052610325908590610385565b50505050565b600082820183811015610282576040805162461bcd60e51b815260206004820152601b60248201527f536166654d6174683a206164646974696f6e206f766572666c6f770000000000604482015290519081900360640190fd5b60606103da826040518060400160405280602081526020017f5361666545524332303a206c6f772d6c6576656c2063616c6c206661696c6564815250856001600160a01b03166105329092919063ffffffff16565b80519091501561023b578080602001905160208110156103f957600080fd5b505161023b5760405162461bcd60e51b815260040180806020018281038252602a815260200180610738602a913960400191505060405180910390fd5b600081848411156104c55760405162461bcd60e51b81526004018080602001828103825283818151815260200191508051906020019080838360005b8381101561048a578181015183820152602001610472565b50505050905090810190601f1680156104b75780820380516001836020036101000a031916815260200191505b509250505060405180910390fd5b505050900390565b6000818361051c5760405162461bcd60e51b815260206004820181815283516024840152835190928392604490910191908501908083836000831561048a578181015183820152602001610472565b50600083858161052857fe5b0495945050505050565b60606105418484600085610549565b949350505050565b60608247101561058a5760405162461bcd60e51b81526004018080602001828103825260268152602001806107126026913960400191505060405180910390fd5b610593856106a5565b6105e4576040805162461bcd60e51b815260206004820152601d60248201527f416464726573733a2063616c6c20746f206e6f6e2d636f6e7472616374000000604482015290519081900360640190fd5b60006060866001600160a01b031685876040518082805190602001908083835b602083106106235780518252601f199092019160209182019101610604565b6001836020036101000a03801982511681845116808217855250505050505090500191505060006040518083038185875af1925050503d8060008114610685576040519150601f19603f3d011682016040523d82523d6000602084013e61068a565b606091505b509150915061069a8282866106ab565b979650505050505050565b3b151590565b606083156106ba575081610282565b8251156106ca5782518084602001fd5b60405162461bcd60e51b815260206004820181815284516024840152845185939192839260440191908501908083836000831561048a57818101518382015260200161047256fe416464726573733a20696e73756666696369656e742062616c616e636520666f722063616c6c5361666545524332303a204552433230206f7065726174696f6e20646964206e6f742073756363656564a2646970667358221220751ef3b0f6de5868420214b84c747556cae9f2e0510b0de0423d56408bab85e964736f6c634300060c0033",
  "devdoc": {
    "kind": "dev",
    "methods": {},
    "version": 1
  },
  "userdoc": {
    "kind": "user",
    "methods": {},
    "version": 1
  },
  "storageLayout": {
    "storage": [
      {
        "astId": 4115,
        "contract": "contracts/metavault/mock/MockCurveGauge.sol:MockCurveGauge",
        "label": "want",
        "offset": 0,
        "slot": "0",
        "type": "t_contract(IERC20)799"
      },
      {
        "astId": 4119,
        "contract": "contracts/metavault/mock/MockCurveGauge.sol:MockCurveGauge",
        "label": "amounts",
        "offset": 0,
        "slot": "1",
        "type": "t_mapping(t_address,t_uint256)"
      }
    ],
    "types": {
      "t_address": {
        "encoding": "inplace",
        "label": "address",
        "numberOfBytes": "20"
      },
      "t_contract(IERC20)799": {
        "encoding": "inplace",
        "label": "contract IERC20",
        "numberOfBytes": "20"
      },
      "t_mapping(t_address,t_uint256)": {
        "encoding": "mapping",
        "key": "t_address",
        "label": "mapping(address => uint256)",
        "numberOfBytes": "32",
        "value": "t_uint256"
      },
      "t_uint256": {
        "encoding": "inplace",
        "label": "uint256",
        "numberOfBytes": "32"
      }
    }
  }
}