{
  "address": "0x768657A2e88a3CA5e9971981B60834931d476fd5",
  "abi": [
    {
      "inputs": [
        {
          "internalType": "contract IERC20",
          "name": "_crv",
          "type": "address"
        }
      ],
      "stateMutability": "nonpayable",
      "type": "constructor"
    },
    {
      "inputs": [
        {
          "internalType": "address",
          "name": "",
          "type": "address"
        }
      ],
      "name": "mint",
      "outputs": [],
      "stateMutability": "nonpayable",
      "type": "function"
    }
  ],
  "transactionHash": "0x08dc377e8303407ccab6fd2158d13df44d50c522c317d2c83499ca13725d27be",
  "args": [
    "0x27793C6F8fdB370DA02786c0A1c47F7A0877bD67"
  ],
  "solcInputHash": "bc3511bdeb2de45e5dcb5fa98f27c79c",
  "bytecode": "0x608060405234801561001057600080fd5b506040516105b53803806105b58339818101604052602081101561003357600080fd5b5051600080546001600160a01b039092166001600160a01b0319909216919091179055610550806100656000396000f3fe608060405234801561001057600080fd5b506004361061002b5760003560e01c80636a62784214610030575b600080fd5b6100566004803603602081101561004657600080fd5b50356001600160a01b0316610058565b005b60008054604080516370a0823160e01b815230600482015290516001600160a01b03909216916370a0823191602480820192602092909190829003018186803b1580156100a457600080fd5b505afa1580156100b8573d6000803e3d6000fd5b505050506040513d60208110156100ce57600080fd5b505190506100f4336100e183600a6100f8565b6000546001600160a01b03169190610141565b5050565b600061013a83836040518060400160405280601a81526020017f536166654d6174683a206469766973696f6e206279207a65726f000000000000815250610198565b9392505050565b604080516001600160a01b038416602482015260448082018490528251808303909101815260649091019091526020810180516001600160e01b031663a9059cbb60e01b17905261019390849061023a565b505050565b600081836102245760405162461bcd60e51b81526004018080602001828103825283818151815260200191508051906020019080838360005b838110156101e95781810151838201526020016101d1565b50505050905090810190601f1680156102165780820380516001836020036101000a031916815260200191505b509250505060405180910390fd5b50600083858161023057fe5b0495945050505050565b606061028f826040518060400160405280602081526020017f5361666545524332303a206c6f772d6c6576656c2063616c6c206661696c6564815250856001600160a01b03166102eb9092919063ffffffff16565b805190915015610193578080602001905160208110156102ae57600080fd5b50516101935760405162461bcd60e51b815260040180806020018281038252602a8152602001806104f1602a913960400191505060405180910390fd5b60606102fa8484600085610302565b949350505050565b6060824710156103435760405162461bcd60e51b81526004018080602001828103825260268152602001806104cb6026913960400191505060405180910390fd5b61034c8561045e565b61039d576040805162461bcd60e51b815260206004820152601d60248201527f416464726573733a2063616c6c20746f206e6f6e2d636f6e7472616374000000604482015290519081900360640190fd5b60006060866001600160a01b031685876040518082805190602001908083835b602083106103dc5780518252601f1990920191602091820191016103bd565b6001836020036101000a03801982511681845116808217855250505050505090500191505060006040518083038185875af1925050503d806000811461043e576040519150601f19603f3d011682016040523d82523d6000602084013e610443565b606091505b5091509150610453828286610464565b979650505050505050565b3b151590565b6060831561047357508161013a565b8251156104835782518084602001fd5b60405162461bcd60e51b81526020600482018181528451602484015284518593919283926044019190850190808383600083156101e95781810151838201526020016101d156fe416464726573733a20696e73756666696369656e742062616c616e636520666f722063616c6c5361666545524332303a204552433230206f7065726174696f6e20646964206e6f742073756363656564a2646970667358221220048cebb6c8a65b22bef44757b4f15fde5c063b77e89be437a293fa37d917042464736f6c634300060c0033",
  "devdoc": {
    "kind": "dev",
    "methods": {},
    "version": 1
  },
  "userdoc": {
    "kind": "user",
    "methods": {},
    "version": 1
  },
  "storageLayout": {
    "storage": [
      {
        "astId": 4235,
        "contract": "contracts/metavault/mock/MockCurveMinter.sol:MockCurveMinter",
        "label": "crv",
        "offset": 0,
        "slot": "0",
        "type": "t_contract(IERC20)799"
      }
    ],
    "types": {
      "t_contract(IERC20)799": {
        "encoding": "inplace",
        "label": "contract IERC20",
        "numberOfBytes": "20"
      }
    }
  }
}