{
  "address": "0xB4779c81C215fc2A171E9B690B7449884c27efaD",
  "abi": [
    {
      "inputs": [
        {
          "internalType": "string",
          "name": "_name",
          "type": "string"
        },
        {
          "internalType": "address",
          "name": "_want",
          "type": "address"
        },
        {
          "internalType": "address",
          "name": "_crv",
          "type": "address"
        },
        {
          "internalType": "address",
          "name": "_weth",
          "type": "address"
        },
        {
          "internalType": "address",
          "name": "_dai",
          "type": "address"
        },
        {
          "internalType": "address",
          "name": "_usdc",
          "type": "address"
        },
        {
          "internalType": "address",
          "name": "_usdt",
          "type": "address"
        },
        {
          "internalType": "contract Gauge",
          "name": "_gauge",
          "type": "address"
        },
        {
          "internalType": "contract Mintr",
          "name": "_crvMintr",
          "type": "address"
        },
        {
          "internalType": "contract IStableSwap3Pool",
          "name": "_stableSwap3Pool",
          "type": "address"
        },
        {
          "internalType": "address",
          "name": "_controller",
          "type": "address"
        },
        {
          "internalType": "address",
          "name": "_manager",
          "type": "address"
        },
        {
          "internalType": "address",
          "name": "_router",
          "type": "address"
        }
      ],
      "stateMutability": "nonpayable",
      "type": "constructor"
    },
    {
      "inputs": [],
      "name": "ONE_HUNDRED_PERCENT",
      "outputs": [
        {
          "internalType": "uint256",
          "name": "",
          "type": "uint256"
        }
      ],
      "stateMutability": "view",
      "type": "function"
    },
    {
      "inputs": [
        {
          "internalType": "contract IERC20",
          "name": "_token",
          "type": "address"
        },
        {
          "internalType": "address",
          "name": "_spender",
          "type": "address"
        },
        {
          "internalType": "uint256",
          "name": "_amount",
          "type": "uint256"
        }
      ],
      "name": "approveForSpender",
      "outputs": [],
      "stateMutability": "nonpayable",
      "type": "function"
    },
    {
      "inputs": [],
      "name": "balanceOf",
      "outputs": [
        {
          "internalType": "uint256",
          "name": "",
          "type": "uint256"
        }
      ],
      "stateMutability": "view",
      "type": "function"
    },
    {
      "inputs": [],
      "name": "balanceOfPool",
      "outputs": [
        {
          "internalType": "uint256",
          "name": "",
          "type": "uint256"
        }
      ],
      "stateMutability": "view",
      "type": "function"
    },
    {
      "inputs": [],
      "name": "balanceOfWant",
      "outputs": [
        {
          "internalType": "uint256",
          "name": "",
          "type": "uint256"
        }
      ],
      "stateMutability": "view",
      "type": "function"
    },
    {
      "inputs": [],
      "name": "controller",
      "outputs": [
        {
          "internalType": "address",
          "name": "",
          "type": "address"
        }
      ],
      "stateMutability": "view",
      "type": "function"
    },
    {
      "inputs": [],
      "name": "crv",
      "outputs": [
        {
          "internalType": "address",
          "name": "",
          "type": "address"
        }
      ],
      "stateMutability": "view",
      "type": "function"
    },
    {
      "inputs": [],
      "name": "crvMintr",
      "outputs": [
        {
          "internalType": "contract Mintr",
          "name": "",
          "type": "address"
        }
      ],
      "stateMutability": "view",
      "type": "function"
    },
    {
      "inputs": [],
      "name": "dai",
      "outputs": [
        {
          "internalType": "address",
          "name": "",
          "type": "address"
        }
      ],
      "stateMutability": "view",
      "type": "function"
    },
    {
      "inputs": [],
      "name": "deposit",
      "outputs": [],
      "stateMutability": "nonpayable",
      "type": "function"
    },
    {
      "inputs": [],
      "name": "gauge",
      "outputs": [
        {
          "internalType": "contract Gauge",
          "name": "",
          "type": "address"
        }
      ],
      "stateMutability": "view",
      "type": "function"
    },
    {
      "inputs": [],
      "name": "getMostPremium",
      "outputs": [
        {
          "internalType": "address",
          "name": "",
          "type": "address"
        },
        {
          "internalType": "uint256",
          "name": "",
          "type": "uint256"
        }
      ],
      "stateMutability": "view",
      "type": "function"
    },
    {
      "inputs": [
        {
          "internalType": "uint256",
          "name": "_estimatedWETH",
          "type": "uint256"
        },
        {
          "internalType": "uint256",
          "name": "_estimatedYAXIS",
          "type": "uint256"
        }
      ],
      "name": "harvest",
      "outputs": [],
      "stateMutability": "nonpayable",
      "type": "function"
    },
    {
      "inputs": [],
      "name": "manager",
      "outputs": [
        {
          "internalType": "contract IManager",
          "name": "",
          "type": "address"
        }
      ],
      "stateMutability": "view",
      "type": "function"
    },
    {
      "inputs": [],
      "name": "name",
      "outputs": [
        {
          "internalType": "string",
          "name": "",
          "type": "string"
        }
      ],
      "stateMutability": "view",
      "type": "function"
    },
    {
      "inputs": [],
      "name": "router",
      "outputs": [
        {
          "internalType": "contract ISwap",
          "name": "",
          "type": "address"
        }
      ],
      "stateMutability": "view",
      "type": "function"
    },
    {
      "inputs": [
        {
          "internalType": "address",
          "name": "_router",
          "type": "address"
        }
      ],
      "name": "setRouter",
      "outputs": [],
      "stateMutability": "nonpayable",
      "type": "function"
    },
    {
      "inputs": [],
      "name": "skim",
      "outputs": [],
      "stateMutability": "nonpayable",
      "type": "function"
    },
    {
      "inputs": [],
      "name": "stableSwap3Pool",
      "outputs": [
        {
          "internalType": "contract IStableSwap3Pool",
          "name": "",
          "type": "address"
        }
      ],
      "stateMutability": "view",
      "type": "function"
    },
    {
      "inputs": [],
      "name": "usdc",
      "outputs": [
        {
          "internalType": "address",
          "name": "",
          "type": "address"
        }
      ],
      "stateMutability": "view",
      "type": "function"
    },
    {
      "inputs": [],
      "name": "usdt",
      "outputs": [
        {
          "internalType": "address",
          "name": "",
          "type": "address"
        }
      ],
      "stateMutability": "view",
      "type": "function"
    },
    {
      "inputs": [],
      "name": "want",
      "outputs": [
        {
          "internalType": "address",
          "name": "",
          "type": "address"
        }
      ],
      "stateMutability": "view",
      "type": "function"
    },
    {
      "inputs": [],
      "name": "weth",
      "outputs": [
        {
          "internalType": "address",
          "name": "",
          "type": "address"
        }
      ],
      "stateMutability": "view",
      "type": "function"
    },
    {
      "inputs": [
        {
          "internalType": "uint256",
          "name": "_amount",
          "type": "uint256"
        }
      ],
      "name": "withdraw",
      "outputs": [],
      "stateMutability": "nonpayable",
      "type": "function"
    },
    {
      "inputs": [
        {
          "internalType": "address",
          "name": "_asset",
          "type": "address"
        }
      ],
      "name": "withdraw",
      "outputs": [],
      "stateMutability": "nonpayable",
      "type": "function"
    },
    {
      "inputs": [],
      "name": "withdrawAll",
      "outputs": [],
      "stateMutability": "nonpayable",
      "type": "function"
    }
  ],
  "transactionHash": "0x11b22e6b2e4db15bfaee72a97dd97a50989a887c554c61d358dac1e03473a0d4",
  "args": [
    "Curve: 3CRV",
    "0xe8B85520e867679D630ad2274Ba1d82B42102646",
    "0x788eECA586850A55f51b381d6183CFc2A38fC82D",
    "0x3423dcB6BB1739f8F54DaA2A07F993f1b114732f",
    "0x1b76C02a917E1bBc5470DBd0d63d0Ff004ce5aFb",
    "0x9A74639865dB794FC7ed476cd8A423c53a046ED7",
    "0x235B89c7895C94aDa94EA205C13f9845d753E803",
    "0xb7Ad94f52c565cb57D95D873977751cF9Cb0c225",
    "0x3E53616Fe84bb30c222A06bd4ED1257d51B744AC",
    "0xA3dD318BBB652Db3B1302eD9704f0985b84fF812",
    "0x523B58E43A6C0033ED4C25951Ca781E0ca017431",
    "0x14442404194202daFBA6AED4Fe65423768aC249a",
    "0xa93946C7500d8167E374396FcedeBDC214cf9cDa"
  ],
  "solcInputHash": "ed02ffea74d81360ebf7246e8a46eb27",
  "bytecode": "0x6101e06040523480156200001257600080fd5b5060405162002f4e38038062002f4e83398181016040526101a08110156200003957600080fd5b81019080805160405193929190846401000000008211156200005a57600080fd5b9083019060208201858111156200007057600080fd5b82516401000000008111828201881017156200008b57600080fd5b82525081516020918201929091019080838360005b83811015620000ba578181015183820152602001620000a0565b50505050905090810190601f168015620000e85780820380516001836020036101000a031916815260200191505b506040526020018051906020019092919080519060200190929190805190602001909291908051906020019092919080519060200190929190805190602001909291908051906020019092919080519060200190929190805190602001909291908051906020019092919080519060200190929190805190602001909291905050508c83838e8d8585600090805190602001906200018892919062000750565b50606083811b6001600160601b031990811660805286821b811660c05285821b811660e0529083901b1660a052600180546001600160a01b0319166001600160a01b0383811691909117909155620001f2908316826000196200033d602090811b620012e517901c565b505050505060608c811b6001600160601b0319908116610100528b821b8116610120528a821b81166101405289821b81166101605286821b81166101a05288821b81166101c0529087901b166101805250620002676001600160a01b038d16876000196200033d602090811b620012e517901c565b6200028e816000198d6001600160a01b03166200033d60201b620012e5179092919060201c565b620002b5846000198b6001600160a01b03166200033d60201b620012e5179092919060201c565b620002dc846000198a6001600160a01b03166200033d60201b620012e5179092919060201c565b6200030384600019896001600160a01b03166200033d60201b620012e5179092919060201c565b6200032a846000198e6001600160a01b03166200033d60201b620012e5179092919060201c565b50505050505050505050505050620007ec565b801580620003c7575060408051636eb1769f60e11b81523060048201526001600160a01b03848116602483015291519185169163dd62ed3e91604480820192602092909190829003018186803b1580156200039757600080fd5b505afa158015620003ac573d6000803e3d6000fd5b505050506040513d6020811015620003c357600080fd5b5051155b620004045760405162461bcd60e51b815260040180806020018281038252603681526020018062002f186036913960400191505060405180910390fd5b604080516001600160a01b038416602482015260448082018490528251808303909101815260649091019091526020810180516001600160e01b0390811663095ea7b360e01b179091526200045c9185916200046116565b505050565b6060620004bd826040518060400160405280602081526020017f5361666545524332303a206c6f772d6c6576656c2063616c6c206661696c6564815250856001600160a01b03166200051d60201b620013f8179092919060201c565b8051909150156200045c57808060200190516020811015620004de57600080fd5b50516200045c5760405162461bcd60e51b815260040180806020018281038252602a81526020018062002eee602a913960400191505060405180910390fd5b60606200052e848460008562000538565b90505b9392505050565b6060824710156200057b5760405162461bcd60e51b815260040180806020018281038252602681526020018062002ec86026913960400191505060405180910390fd5b6200058685620006a0565b620005d8576040805162461bcd60e51b815260206004820152601d60248201527f416464726573733a2063616c6c20746f206e6f6e2d636f6e7472616374000000604482015290519081900360640190fd5b60006060866001600160a01b031685876040518082805190602001908083835b60208310620006195780518252601f199092019160209182019101620005f8565b6001836020036101000a03801982511681845116808217855250505050505090500191505060006040518083038185875af1925050503d80600081146200067d576040519150601f19603f3d011682016040523d82523d6000602084013e62000682565b606091505b50909250905062000695828286620006a6565b979650505050505050565b3b151590565b60608315620006b757508162000531565b825115620006c85782518084602001fd5b8160405162461bcd60e51b81526004018080602001828103825283818151815260200191508051906020019080838360005b8381101562000714578181015183820152602001620006fa565b50505050905090810190601f168015620007425780820380516001836020036101000a031916815260200191505b509250505060405180910390fd5b828054600181600116156101000203166002900490600052602060002090601f016020900481019282601f106200079357805160ff1916838001178555620007c3565b82800160010185558215620007c3579182015b82811115620007c3578251825591602001919060010190620007a6565b50620007d1929150620007d5565b5090565b5b80821115620007d15760008155600101620007d6565b60805160601c60a05160601c60c05160601c60e05160601c6101005160601c6101205160601c6101405160601c6101605160601c6101805160601c6101a05160601c6101c05160601c6125596200096f6000398061047b5280610ed952806116bb52806117715280611b335280611bc85250806107b6528061086952806109225280610d0a52806122d45250806103c75280611b995250806106ff5280610b2352806122475250806107235280610a9352806121ac525080610a035280610b5052806112905280612118525080610d2e52806117ff52508061076b5280610efd52806111ad5280611d855250806105225280610587528061061052806106d45280610b865280610cde5280610d7b5280610eaf52806110c8528061114152806112b45250806107475280610ff05280611025528061183f5280611cbe5280611d045280611e575280611f2c5250806105b852806105e352806106b25280610bf25280610de75280610e8d528061105252806114b3528061155952506125596000f3fe608060405234801561001057600080fd5b506004361061018e5760003560e01c80636a4874a1116100de578063d0e30db011610097578063ef9e237911610071578063ef9e237914610377578063f4b9fa75146103ad578063f77c4791146103b5578063f887ea40146103bd5761018e565b8063d0e30db014610344578063dd0081c71461034c578063e4a4b7b1146103545761018e565b80636a4874a1146102f6578063722713f7146102fe578063853828b614610306578063a6f19c841461030e578063c0d7865514610316578063c1a3d44c1461033c5761018e565b80632f48ab7d1161014b578063481c6a7511610125578063481c6a751461029557806348677dbe1461029d57806351cff8d9146102c85780635a3874ac146102ee5761018e565b80632f48ab7d1461027d5780633e413bee146102855780633fc8cef31461028d5761018e565b8063017f39871461019357806306fdde03146101b757806311588086146102345780631dd19cb41461024e5780631f1fcd51146102585780632e1a7d4d14610260575b600080fd5b61019b6103c5565b604080516001600160a01b039092168252519081900360200190f35b6101bf6103e9565b6040805160208082528351818301528351919283929083019185019080838360005b838110156101f95781810151838201526020016101e1565b50505050905090810190601f1680156102265780820380516001836020036101000a031916815260200191505b509250505060405180910390f35b61023c610477565b60408051918252519081900360200190f35b610256610517565b005b61019b6105e1565b6102566004803603602081101561027657600080fd5b5035610605565b61019b6106fd565b61019b610721565b61019b610745565b61019b610769565b6102a561078d565b604080516001600160a01b03909316835260208301919091528051918290030190f35b610256600480360360208110156102de57600080fd5b50356001600160a01b0316610b7b565b61019b610d08565b61019b610d2c565b61023c610d50565b610256610d70565b61019b610ed7565b6102566004803603602081101561032c57600080fd5b50356001600160a01b0316610efb565b61023c61104e565b6102566110bd565b61023c611130565b6102566004803603604081101561036a57600080fd5b5080359060200135611136565b6102566004803603606081101561038d57600080fd5b506001600160a01b038135811691602081013590911690604001356111ab565b61019b61128e565b61019b6112b2565b61019b6112d6565b7f000000000000000000000000000000000000000000000000000000000000000081565b6000805460408051602060026001851615610100026000190190941693909304601f8101849004840282018401909252818152929183018282801561046f5780601f106104445761010080835404028352916020019161046f565b820191906000526020600020905b81548152906001019060200180831161045257829003601f168201915b505050505081565b60007f00000000000000000000000000000000000000000000000000000000000000006001600160a01b03166370a08231306040518263ffffffff1660e01b815260040180826001600160a01b0316815260200191505060206040518083038186803b1580156104e657600080fd5b505afa1580156104fa573d6000803e3d6000fd5b505050506040513d602081101561051057600080fd5b5051905090565b336001600160a01b037f00000000000000000000000000000000000000000000000000000000000000001614610582576040805162461bcd60e51b815260206004820152600b60248201526a10b1b7b73a3937b63632b960a91b604482015290519081900360640190fd5b6105df7f00000000000000000000000000000000000000000000000000000000000000006105ae61104e565b6001600160a01b037f0000000000000000000000000000000000000000000000000000000000000000169190611411565b565b7f000000000000000000000000000000000000000000000000000000000000000081565b336001600160a01b037f00000000000000000000000000000000000000000000000000000000000000001614610670576040805162461bcd60e51b815260206004820152600b60248201526a10b1b7b73a3937b63632b960a91b604482015290519081900360640190fd5b600061067a61104e565b9050818110156106a5576106966106918383611463565b6114ae565b91506106a28282611604565b91505b6106f96001600160a01b037f0000000000000000000000000000000000000000000000000000000000000000167f000000000000000000000000000000000000000000000000000000000000000084611411565b5050565b7f000000000000000000000000000000000000000000000000000000000000000081565b7f000000000000000000000000000000000000000000000000000000000000000081565b7f000000000000000000000000000000000000000000000000000000000000000081565b7f000000000000000000000000000000000000000000000000000000000000000081565b6040805160038082526080820190925260009182916060916020820183803683370190505090507f00000000000000000000000000000000000000000000000000000000000000006001600160a01b0316634903b0d160006040518263ffffffff1660e01b81526004018082815260200191505060206040518083038186803b15801561081957600080fd5b505afa15801561082d573d6000803e3d6000fd5b505050506040513d602081101561084357600080fd5b50518151829060009061085257fe5b6020026020010181815250506108fe64e8d4a510007f00000000000000000000000000000000000000000000000000000000000000006001600160a01b0316634903b0d160016040518263ffffffff1660e01b81526004018082815260200191505060206040518083038186803b1580156108cc57600080fd5b505afa1580156108e0573d6000803e3d6000fd5b505050506040513d60208110156108f657600080fd5b50519061165e565b8160018151811061090b57fe5b60200260200101818152505061098564e8d4a510007f00000000000000000000000000000000000000000000000000000000000000006001600160a01b0316634903b0d160026040518263ffffffff1660e01b81526004018082815260200191505060206040518083038186803b1580156108cc57600080fd5b8160028151811061099257fe5b602002602001018181525050806001815181106109ab57fe5b6020026020010151816000815181106109c057fe5b60200260200101511080156109fc5750806002815181106109dd57fe5b6020026020010151816000815181106109f257fe5b6020026020010151105b15610a2e577f000000000000000000000000000000000000000000000000000000000000000060009250925050610b77565b80600081518110610a3b57fe5b602002602001015181600181518110610a5057fe5b6020026020010151108015610a8c575080600281518110610a6d57fe5b602002602001015181600181518110610a8257fe5b6020026020010151105b15610abe577f000000000000000000000000000000000000000000000000000000000000000060019250925050610b77565b80600081518110610acb57fe5b602002602001015181600281518110610ae057fe5b6020026020010151108015610b1c575080600181518110610afd57fe5b602002602001015181600281518110610b1257fe5b6020026020010151105b15610b4e577f000000000000000000000000000000000000000000000000000000000000000060029250925050610b77565b7f0000000000000000000000000000000000000000000000000000000000000000600092509250505b9091565b336001600160a01b037f00000000000000000000000000000000000000000000000000000000000000001614610be6576040805162461bcd60e51b815260206004820152600b60248201526a10b1b7b73a3937b63632b960a91b604482015290519081900360640190fd5b806001600160a01b03167f00000000000000000000000000000000000000000000000000000000000000006001600160a01b03161415610c56576040805162461bcd60e51b815260206004808301919091526024820152631dd85b9d60e21b604482015290519081900360640190fd5b604080516370a0823160e01b8152306004820152905182916000916001600160a01b038416916370a08231916024808301926020929190829003018186803b158015610ca157600080fd5b505afa158015610cb5573d6000803e3d6000fd5b505050506040513d6020811015610ccb57600080fd5b50519050610d036001600160a01b0383167f000000000000000000000000000000000000000000000000000000000000000083611411565b505050565b7f000000000000000000000000000000000000000000000000000000000000000081565b7f000000000000000000000000000000000000000000000000000000000000000081565b6000610d6b610d5d610477565b610d6561104e565b90611604565b905090565b336001600160a01b037f00000000000000000000000000000000000000000000000000000000000000001614610ddb576040805162461bcd60e51b815260206004820152600b60248201526a10b1b7b73a3937b63632b960a91b604482015290519081900360640190fd5b610de36116b7565b60007f00000000000000000000000000000000000000000000000000000000000000006001600160a01b03166370a08231306040518263ffffffff1660e01b815260040180826001600160a01b0316815260200191505060206040518083038186803b158015610e5257600080fd5b505afa158015610e66573d6000803e3d6000fd5b505050506040513d6020811015610e7c57600080fd5b50519050610ed46001600160a01b037f0000000000000000000000000000000000000000000000000000000000000000167f000000000000000000000000000000000000000000000000000000000000000083611411565b50565b7f000000000000000000000000000000000000000000000000000000000000000081565b7f00000000000000000000000000000000000000000000000000000000000000006001600160a01b0316635aa6e6756040518163ffffffff1660e01b815260040160206040518083038186803b158015610f5457600080fd5b505afa158015610f68573d6000803e3d6000fd5b505050506040513d6020811015610f7e57600080fd5b50516001600160a01b03163314610fca576040805162461bcd60e51b815260206004820152600b60248201526a21676f7665726e616e636560a81b604482015290519081900360640190fd5b600180546001600160a01b0319166001600160a01b0383811691909117909155611018907f0000000000000000000000000000000000000000000000000000000000000000168260006112e5565b610ed46001600160a01b037f000000000000000000000000000000000000000000000000000000000000000016826000196112e5565b60007f00000000000000000000000000000000000000000000000000000000000000006001600160a01b03166370a08231306040518263ffffffff1660e01b815260040180826001600160a01b0316815260200191505060206040518083038186803b1580156104e657600080fd5b336001600160a01b037f00000000000000000000000000000000000000000000000000000000000000001614611128576040805162461bcd60e51b815260206004820152600b60248201526a10b1b7b73a3937b63632b960a91b604482015290519081900360640190fd5b6105df61175d565b61271081565b336001600160a01b037f000000000000000000000000000000000000000000000000000000000000000016146111a1576040805162461bcd60e51b815260206004820152600b60248201526a10b1b7b73a3937b63632b960a91b604482015290519081900360640190fd5b6106f982826117f0565b7f00000000000000000000000000000000000000000000000000000000000000006001600160a01b0316635aa6e6756040518163ffffffff1660e01b815260040160206040518083038186803b15801561120457600080fd5b505afa158015611218573d6000803e3d6000fd5b505050506040513d602081101561122e57600080fd5b50516001600160a01b0316331461127a576040805162461bcd60e51b815260206004820152600b60248201526a21676f7665726e616e636560a81b604482015290519081900360640190fd5b610d036001600160a01b03841683836112e5565b7f000000000000000000000000000000000000000000000000000000000000000081565b7f000000000000000000000000000000000000000000000000000000000000000081565b6001546001600160a01b031681565b80158061136b575060408051636eb1769f60e11b81523060048201526001600160a01b03848116602483015291519185169163dd62ed3e91604480820192602092909190829003018186803b15801561133d57600080fd5b505afa158015611351573d6000803e3d6000fd5b505050506040513d602081101561136757600080fd5b5051155b6113a65760405162461bcd60e51b81526004018080602001828103825260368152602001806124ee6036913960400191505060405180910390fd5b604080516001600160a01b038416602482015260448082018490528251808303909101815260649091019091526020810180516001600160e01b031663095ea7b360e01b179052610d0390849061188d565b6060611407848460008561193e565b90505b9392505050565b604080516001600160a01b038416602482015260448082018490528251808303909101815260649091019091526020810180516001600160e01b031663a9059cbb60e01b179052610d0390849061188d565b60006114a583836040518060400160405280601e81526020017f536166654d6174683a207375627472616374696f6e206f766572666c6f770000815250611a9a565b90505b92915050565b6000807f00000000000000000000000000000000000000000000000000000000000000006001600160a01b03166370a08231306040518263ffffffff1660e01b815260040180826001600160a01b0316815260200191505060206040518083038186803b15801561151e57600080fd5b505afa158015611532573d6000803e3d6000fd5b505050506040513d602081101561154857600080fd5b5051905061155583611b31565b60007f00000000000000000000000000000000000000000000000000000000000000006001600160a01b03166370a08231306040518263ffffffff1660e01b815260040180826001600160a01b0316815260200191505060206040518083038186803b1580156115c457600080fd5b505afa1580156115d8573d6000803e3d6000fd5b505050506040513d60208110156115ee57600080fd5b505190506115fc8183611463565b949350505050565b6000828201838110156114a5576040805162461bcd60e51b815260206004820152601b60248201527f536166654d6174683a206164646974696f6e206f766572666c6f770000000000604482015290519081900360640190fd5b60008261166d575060006114a8565b8282028284828161167a57fe5b04146114a55760405162461bcd60e51b81526004018080602001828103825260218152602001806124a36021913960400191505060405180910390fd5b60007f00000000000000000000000000000000000000000000000000000000000000006001600160a01b03166370a08231306040518263ffffffff1660e01b815260040180826001600160a01b0316815260200191505060206040518083038186803b15801561172657600080fd5b505afa15801561173a573d6000803e3d6000fd5b505050506040513d602081101561175057600080fd5b50519050610ed481611b31565b600061176761104e565b90508015610ed4577f00000000000000000000000000000000000000000000000000000000000000006001600160a01b031663b6b55f25826040518263ffffffff1660e01b815260040180828152602001915050600060405180830381600087803b1580156117d557600080fd5b505af11580156117e9573d6000803e3d6000fd5b5050505050565b6117f8611b97565b60006118257f00000000000000000000000000000000000000000000000000000000000000008484611c3a565b90508015610d0357600061183761078d565b5090506118677f000000000000000000000000000000000000000000000000000000000000000082846001611fad565b61186f6120f0565b600061187961104e565b11156118875761188761175d565b50505050565b60606118e2826040518060400160405280602081526020017f5361666545524332303a206c6f772d6c6576656c2063616c6c206661696c6564815250856001600160a01b03166113f89092919063ffffffff16565b805190915015610d035780806020019051602081101561190157600080fd5b5051610d035760405162461bcd60e51b815260040180806020018281038252602a8152602001806124c4602a913960400191505060405180910390fd5b60608247101561197f5760405162461bcd60e51b815260040180806020018281038252602681526020018061247d6026913960400191505060405180910390fd5b61198885612350565b6119d9576040805162461bcd60e51b815260206004820152601d60248201527f416464726573733a2063616c6c20746f206e6f6e2d636f6e7472616374000000604482015290519081900360640190fd5b60006060866001600160a01b031685876040518082805190602001908083835b60208310611a185780518252601f1990920191602091820191016119f9565b6001836020036101000a03801982511681845116808217855250505050505090500191505060006040518083038185875af1925050503d8060008114611a7a576040519150601f19603f3d011682016040523d82523d6000602084013e611a7f565b606091505b5091509150611a8f828286612356565b979650505050505050565b60008184841115611b295760405162461bcd60e51b81526004018080602001828103825283818151815260200191508051906020019080838360005b83811015611aee578181015183820152602001611ad6565b50505050905090810190601f168015611b1b5780820380516001836020036101000a031916815260200191505b509250505060405180910390fd5b505050900390565b7f00000000000000000000000000000000000000000000000000000000000000006001600160a01b0316632e1a7d4d826040518263ffffffff1660e01b815260040180828152602001915050600060405180830381600087803b1580156117d557600080fd5b7f00000000000000000000000000000000000000000000000000000000000000006001600160a01b0316636a6278427f00000000000000000000000000000000000000000000000000000000000000006040518263ffffffff1660e01b815260040180826001600160a01b03168152602001915050600060405180830381600087803b158015611c2657600080fd5b505af1158015611887573d6000803e3d6000fd5b600080846001600160a01b03166370a08231306040518263ffffffff1660e01b815260040180826001600160a01b0316815260200191505060206040518083038186803b158015611c8a57600080fd5b505afa158015611c9e573d6000803e3d6000fd5b505050506040513d6020811015611cb457600080fd5b50519050611ce4857f00000000000000000000000000000000000000000000000000000000000000008387611fad565b604080516370a0823160e01b815230600482015290516001600160a01b037f000000000000000000000000000000000000000000000000000000000000000016916370a08231916024808301926020929190829003018186803b158015611d4a57600080fd5b505afa158015611d5e573d6000803e3d6000fd5b505050506040513d6020811015611d7457600080fd5b505191508115611fa55760008060007f00000000000000000000000000000000000000000000000000000000000000006001600160a01b031663da633d316040518163ffffffff1660e01b815260040160606040518083038186803b158015611ddc57600080fd5b505afa158015611df0573d6000803e3d6000fd5b505050506040513d6060811015611e0657600080fd5b5080516020820151604090920151909450909250905060008115801590611e3557506001600160a01b03831615155b15611f0c57611e50612710611e4a888561165e565b906123bc565b9050611e7e7f000000000000000000000000000000000000000000000000000000000000000085838a611fad565b611f0c83856001600160a01b03166370a08231306040518263ffffffff1660e01b815260040180826001600160a01b0316815260200191505060206040518083038186803b158015611ecf57600080fd5b505afa158015611ee3573d6000803e3d6000fd5b505050506040513d6020811015611ef957600080fd5b50516001600160a01b0387169190611411565b604080516370a0823160e01b815230600482015290516001600160a01b037f000000000000000000000000000000000000000000000000000000000000000016916370a08231916024808301926020929190829003018186803b158015611f7257600080fd5b505afa158015611f86573d6000803e3d6000fd5b505050506040513d6020811015611f9c57600080fd5b50519550505050505b509392505050565b60408051600280825260608083018452926020830190803683370190505090508481600081518110611fdb57fe5b60200260200101906001600160a01b031690816001600160a01b031681525050838160018151811061200957fe5b6001600160a01b039283166020918202929092010152600154166338ed17398484843061203842610708611604565b6040518663ffffffff1660e01b81526004018086815260200185815260200180602001846001600160a01b03168152602001838152602001828103825285818151815260200191508051906020019060200280838360005b838110156120a8578181015183820152602001612090565b505050509050019650505050505050600060405180830381600087803b1580156120d157600080fd5b505af11580156120e5573d6000803e3d6000fd5b505050505050505050565b6120f861245e565b604080516370a0823160e01b815230600482015290516001600160a01b037f000000000000000000000000000000000000000000000000000000000000000016916370a08231916024808301926020929190829003018186803b15801561215e57600080fd5b505afa158015612172573d6000803e3d6000fd5b505050506040513d602081101561218857600080fd5b50518152604080516370a0823160e01b815230600482015290516001600160a01b037f000000000000000000000000000000000000000000000000000000000000000016916370a08231916024808301926020929190829003018186803b1580156121f257600080fd5b505afa158015612206573d6000803e3d6000fd5b505050506040513d602081101561221c57600080fd5b5051602080830191909152604080516370a0823160e01b815230600482015290516001600160a01b037f000000000000000000000000000000000000000000000000000000000000000016926370a082319260248082019391829003018186803b15801561228957600080fd5b505afa15801561229d573d6000803e3d6000fd5b505050506040513d60208110156122b357600080fd5b50518160026020020152604051634515cef360e01b81526001600160a01b037f00000000000000000000000000000000000000000000000000000000000000001690634515cef39083906001906004018083606080838360005b8381101561232557818101518382015260200161230d565b5050505090500182815260200192505050600060405180830381600087803b1580156117d557600080fd5b3b151590565b6060831561236557508161140a565b8251156123755782518084602001fd5b60405162461bcd60e51b8152602060048201818152845160248401528451859391928392604401919085019080838360008315611aee578181015183820152602001611ad6565b60006114a583836040518060400160405280601a81526020017f536166654d6174683a206469766973696f6e206279207a65726f000000000000815250600081836124485760405162461bcd60e51b8152602060048201818152835160248401528351909283926044909101919085019080838360008315611aee578181015183820152602001611ad6565b50600083858161245457fe5b0495945050505050565b6040518060600160405280600390602082028036833750919291505056fe416464726573733a20696e73756666696369656e742062616c616e636520666f722063616c6c536166654d6174683a206d756c7469706c69636174696f6e206f766572666c6f775361666545524332303a204552433230206f7065726174696f6e20646964206e6f7420737563636565645361666545524332303a20617070726f76652066726f6d206e6f6e2d7a65726f20746f206e6f6e2d7a65726f20616c6c6f77616e6365a2646970667358221220c3fbb0312ba487c2581f147dc554d7e5215a2c16172fc2bccf517ed06f0a4eb664736f6c634300060c0033416464726573733a20696e73756666696369656e742062616c616e636520666f722063616c6c5361666545524332303a204552433230206f7065726174696f6e20646964206e6f7420737563636565645361666545524332303a20617070726f76652066726f6d206e6f6e2d7a65726f20746f206e6f6e2d7a65726f20616c6c6f77616e6365",
  "devdoc": {
    "kind": "dev",
    "methods": {
      "approveForSpender(address,address,uint256)": {
        "params": {
          "_amount": "The amount to spend",
          "_spender": "The address of the spender",
          "_token": "The address of the token"
        }
      },
      "balanceOfPool()": {
        "details": "Must be implemented by the strategy"
      },
      "setRouter(address)": {
        "params": {
          "_router": "The address of the router"
        }
      },
      "withdraw(address)": {
        "params": {
          "_asset": "The address of the token to withdraw"
        }
      },
      "withdraw(uint256)": {
        "params": {
          "_amount": "The amount of the want token to withdraw"
        }
      }
    },
    "version": 1
  },
  "userdoc": {
    "kind": "user",
    "methods": {
      "approveForSpender(address,address,uint256)": {
        "notice": "Approves a token address to be spent by an address"
      },
      "balanceOf()": {
        "notice": "Returns the strategy's balance of the want token plus the balance of pool"
      },
      "balanceOfPool()": {
        "notice": "Returns the balance of the pool"
      },
      "balanceOfWant()": {
        "notice": "Returns the balance of the want token on the strategy"
      },
      "deposit()": {
        "notice": "Deposits funds to the strategy's pool"
      },
      "harvest(uint256,uint256)": {
        "notice": "Harvest funds in the strategy's pool"
      },
      "setRouter(address)": {
        "notice": "Sets the address of the ISwap-compatible router"
      },
      "skim()": {
        "notice": "Sends stuck want tokens in the strategy to the controller"
      },
      "withdraw(address)": {
        "notice": "Sends stuck tokens in the strategy to the controller"
      },
      "withdraw(uint256)": {
        "notice": "Initiated from a vault, withdraws funds from the pool"
      },
      "withdrawAll()": {
        "notice": "Withdraws all funds from the strategy"
      }
    },
    "version": 1
  },
  "storageLayout": {
    "storage": [
      {
        "astId": 27634,
        "contract": "contracts/v3/strategies/NativeStrategyCurve3Crv.sol:NativeStrategyCurve3Crv",
        "label": "name",
        "offset": 0,
        "slot": "0",
        "type": "t_string_storage"
      },
      {
        "astId": 27637,
        "contract": "contracts/v3/strategies/NativeStrategyCurve3Crv.sol:NativeStrategyCurve3Crv",
        "label": "router",
        "offset": 0,
        "slot": "1",
        "type": "t_contract(ISwap)27511"
      }
    ],
    "types": {
      "t_contract(ISwap)27511": {
        "encoding": "inplace",
        "label": "contract ISwap",
        "numberOfBytes": "20"
      },
      "t_string_storage": {
        "encoding": "bytes",
        "label": "string",
        "numberOfBytes": "32"
      }
    }
  }
}