{
  "address": "0x4F76deeed4DbdEcd3b57f8C0f14321Df3A4519f0",
  "abi": [
    {
      "inputs": [
        {
          "internalType": "address",
          "name": "_rewardToken",
          "type": "address"
        },
        {
          "internalType": "address",
          "name": "_stakingToken",
          "type": "address"
        },
        {
          "internalType": "uint256",
          "name": "_duration",
          "type": "uint256"
        }
      ],
      "stateMutability": "nonpayable",
      "type": "constructor"
    },
    {
      "anonymous": false,
      "inputs": [
        {
          "indexed": true,
          "internalType": "address",
          "name": "previousOwner",
          "type": "address"
        },
        {
          "indexed": true,
          "internalType": "address",
          "name": "newOwner",
          "type": "address"
        }
      ],
      "name": "OwnershipTransferred",
      "type": "event"
    },
    {
      "anonymous": false,
      "inputs": [
        {
          "indexed": false,
          "internalType": "uint256",
          "name": "reward",
          "type": "uint256"
        }
      ],
      "name": "RewardAdded",
      "type": "event"
    },
    {
      "anonymous": false,
      "inputs": [
        {
          "indexed": true,
          "internalType": "address",
          "name": "user",
          "type": "address"
        },
        {
          "indexed": false,
          "internalType": "uint256",
          "name": "reward",
          "type": "uint256"
        }
      ],
      "name": "RewardPaid",
      "type": "event"
    },
    {
      "anonymous": false,
      "inputs": [
        {
          "indexed": true,
          "internalType": "address",
          "name": "user",
          "type": "address"
        },
        {
          "indexed": false,
          "internalType": "uint256",
          "name": "amount",
          "type": "uint256"
        }
      ],
      "name": "Staked",
      "type": "event"
    },
    {
      "anonymous": false,
      "inputs": [
        {
          "indexed": true,
          "internalType": "address",
          "name": "user",
          "type": "address"
        },
        {
          "indexed": false,
          "internalType": "uint256",
          "name": "amount",
          "type": "uint256"
        }
      ],
      "name": "Withdrawn",
      "type": "event"
    },
    {
      "inputs": [
        {
          "internalType": "address",
          "name": "account",
          "type": "address"
        }
      ],
      "name": "balanceOf",
      "outputs": [
        {
          "internalType": "uint256",
          "name": "",
          "type": "uint256"
        }
      ],
      "stateMutability": "view",
      "type": "function"
    },
    {
      "inputs": [],
      "name": "duration",
      "outputs": [
        {
          "internalType": "uint256",
          "name": "",
          "type": "uint256"
        }
      ],
      "stateMutability": "view",
      "type": "function"
    },
    {
      "inputs": [
        {
          "internalType": "address",
          "name": "account",
          "type": "address"
        }
      ],
      "name": "earned",
      "outputs": [
        {
          "internalType": "uint256",
          "name": "",
          "type": "uint256"
        }
      ],
      "stateMutability": "view",
      "type": "function"
    },
    {
      "inputs": [],
      "name": "exit",
      "outputs": [],
      "stateMutability": "nonpayable",
      "type": "function"
    },
    {
      "inputs": [],
      "name": "getReward",
      "outputs": [],
      "stateMutability": "nonpayable",
      "type": "function"
    },
    {
      "inputs": [],
      "name": "lastTimeRewardApplicable",
      "outputs": [
        {
          "internalType": "uint256",
          "name": "",
          "type": "uint256"
        }
      ],
      "stateMutability": "view",
      "type": "function"
    },
    {
      "inputs": [],
      "name": "lastUpdateTime",
      "outputs": [
        {
          "internalType": "uint256",
          "name": "",
          "type": "uint256"
        }
      ],
      "stateMutability": "view",
      "type": "function"
    },
    {
      "inputs": [
        {
          "internalType": "uint256",
          "name": "reward",
          "type": "uint256"
        }
      ],
      "name": "notifyRewardAmount",
      "outputs": [],
      "stateMutability": "nonpayable",
      "type": "function"
    },
    {
      "inputs": [
        {
          "internalType": "address",
          "name": "sender",
          "type": "address"
        },
        {
          "internalType": "uint256",
          "name": "amount",
          "type": "uint256"
        },
        {
          "internalType": "bytes",
          "name": "",
          "type": "bytes"
        }
      ],
      "name": "onTokenTransfer",
      "outputs": [],
      "stateMutability": "nonpayable",
      "type": "function"
    },
    {
      "inputs": [],
      "name": "owner",
      "outputs": [
        {
          "internalType": "address",
          "name": "",
          "type": "address"
        }
      ],
      "stateMutability": "view",
      "type": "function"
    },
    {
      "inputs": [],
      "name": "periodFinish",
      "outputs": [
        {
          "internalType": "uint256",
          "name": "",
          "type": "uint256"
        }
      ],
      "stateMutability": "view",
      "type": "function"
    },
    {
      "inputs": [],
      "name": "renounceOwnership",
      "outputs": [],
      "stateMutability": "nonpayable",
      "type": "function"
    },
    {
      "inputs": [],
      "name": "rewardDistribution",
      "outputs": [
        {
          "internalType": "address",
          "name": "",
          "type": "address"
        }
      ],
      "stateMutability": "view",
      "type": "function"
    },
    {
      "inputs": [],
      "name": "rewardPerToken",
      "outputs": [
        {
          "internalType": "uint256",
          "name": "",
          "type": "uint256"
        }
      ],
      "stateMutability": "view",
      "type": "function"
    },
    {
      "inputs": [],
      "name": "rewardPerTokenStored",
      "outputs": [
        {
          "internalType": "uint256",
          "name": "",
          "type": "uint256"
        }
      ],
      "stateMutability": "view",
      "type": "function"
    },
    {
      "inputs": [],
      "name": "rewardRate",
      "outputs": [
        {
          "internalType": "uint256",
          "name": "",
          "type": "uint256"
        }
      ],
      "stateMutability": "view",
      "type": "function"
    },
    {
      "inputs": [],
      "name": "rewardToken",
      "outputs": [
        {
          "internalType": "contract IERC20",
          "name": "",
          "type": "address"
        }
      ],
      "stateMutability": "view",
      "type": "function"
    },
    {
      "inputs": [
        {
          "internalType": "address",
          "name": "",
          "type": "address"
        }
      ],
      "name": "rewards",
      "outputs": [
        {
          "internalType": "uint256",
          "name": "",
          "type": "uint256"
        }
      ],
      "stateMutability": "view",
      "type": "function"
    },
    {
      "inputs": [
        {
          "internalType": "address",
          "name": "_rewardDistribution",
          "type": "address"
        }
      ],
      "name": "setRewardDistribution",
      "outputs": [],
      "stateMutability": "nonpayable",
      "type": "function"
    },
    {
      "inputs": [
        {
          "internalType": "uint256",
          "name": "amount",
          "type": "uint256"
        }
      ],
      "name": "stake",
      "outputs": [],
      "stateMutability": "nonpayable",
      "type": "function"
    },
    {
      "inputs": [],
      "name": "stakingToken",
      "outputs": [
        {
          "internalType": "contract IERC20",
          "name": "",
          "type": "address"
        }
      ],
      "stateMutability": "view",
      "type": "function"
    },
    {
      "inputs": [],
      "name": "totalSupply",
      "outputs": [
        {
          "internalType": "uint256",
          "name": "",
          "type": "uint256"
        }
      ],
      "stateMutability": "view",
      "type": "function"
    },
    {
      "inputs": [
        {
          "internalType": "address",
          "name": "newOwner",
          "type": "address"
        }
      ],
      "name": "transferOwnership",
      "outputs": [],
      "stateMutability": "nonpayable",
      "type": "function"
    },
    {
      "inputs": [
        {
          "internalType": "address",
          "name": "",
          "type": "address"
        }
      ],
      "name": "userRewardPerTokenPaid",
      "outputs": [
        {
          "internalType": "uint256",
          "name": "",
          "type": "uint256"
        }
      ],
      "stateMutability": "view",
      "type": "function"
    },
    {
      "inputs": [
        {
          "internalType": "uint256",
          "name": "amount",
          "type": "uint256"
        }
      ],
      "name": "withdraw",
      "outputs": [],
      "stateMutability": "nonpayable",
      "type": "function"
    }
  ],
  "transactionHash": "0xda8cbce16b4f924a6311d3ed639df00fd15405c5fa69594eaafc628d40d07e85",
  "args": [
    "0x85C09c861E228fcB537BD598264Efe3e32558224",
    "0xa18644Cd7FB63571f856BAf354FbF3745173254D",
    7776000
  ],
  "solcInputHash": "f6aa6a4f26cc57ca05abb84d72456fca",
  "bytecode": "0x60e06040526000600455600060055534801561001a57600080fd5b506040516116a93803806116a98339818101604052606081101561003d57600080fd5b50805160208201516040909201516001600160601b0319606084901b16608052909190600061006a6100d4565b600280546001600160a01b0319166001600160a01b038316908117909155604051919250906000907f8be0079c531659141344cd1fd0a4f28419497f9722a3daafe3b4186f6b6457e0908290a35060609290921b6001600160601b03191660a0525060c0526100d8565b3390565b60805160601c60a05160601c60c05161157c61012d6000398061052352806107065280610762528061079d52508061087f5280610d995250806109ba5280610a7c5280610f3f5280611072525061157c6000f3fe608060405234801561001057600080fd5b50600436106101725760003560e01c80637b0a47ee116100de578063c8f33c9111610097578063e9fad8ee11610071578063e9fad8ee146103d7578063ebe2b12b146103df578063f2fde38b146103e7578063f7c618c11461040d57610172565b8063c8f33c91146103bf578063cd3daf9d146103c7578063df136d65146103cf57610172565b80637b0a47ee146102a957806380faa57d146102b15780638b876347146102b95780638da5cb5b146102df578063a4c0ed36146102e7578063a694fc3a146103a257610172565b80632e1a7d4d116101305780632e1a7d4d146102315780633c6b16ab1461024e5780633d18b9121461026b57806370a0823114610273578063715018a61461029957806372f702f3146102a157610172565b80628cc262146101775780630700037d146101af5780630d68b761146101d55780630fb5a6b4146101fd578063101114cf1461020557806318160ddd14610229575b600080fd5b61019d6004803603602081101561018d57600080fd5b50356001600160a01b0316610415565b60408051918252519081900360200190f35b61019d600480360360208110156101c557600080fd5b50356001600160a01b0316610483565b6101fb600480360360208110156101eb57600080fd5b50356001600160a01b0316610495565b005b61019d610521565b61020d610545565b604080516001600160a01b039092168252519081900360200190f35b61019d610554565b6101fb6004803603602081101561024757600080fd5b503561055b565b6101fb6004803603602081101561026457600080fd5b5035610642565b6101fb6107fb565b61019d6004803603602081101561028957600080fd5b50356001600160a01b03166108e9565b6101fb610904565b61020d6109b8565b61019d6109dc565b61019d6109e2565b61019d600480360360208110156102cf57600080fd5b50356001600160a01b03166109f5565b61020d610a07565b6101fb600480360360608110156102fd57600080fd5b6001600160a01b038235169160208101359181019060608101604082013564010000000081111561032d57600080fd5b82018360208201111561033f57600080fd5b8035906020019184600183028401116401000000008311171561036157600080fd5b91908080601f016020809104026020016040519081016040528093929190818152602001838380828437600092019190915250929550610a16945050505050565b6101fb600480360360208110156103b857600080fd5b5035610b2d565b61019d610c11565b61019d610c17565b61019d610c65565b6101fb610c6b565b61019d610c86565b6101fb600480360360208110156103fd57600080fd5b50356001600160a01b0316610c8c565b61020d610d97565b6001600160a01b038116600090815260096020908152604080832054600890925282205461047d919061047790670de0b6b3a764000090610471906104629061045c610c17565b90610dbb565b61046b886108e9565b90610e04565b90610e5d565b90610e9f565b92915050565b60096020526000908152604090205481565b61049d610ef9565b6002546001600160a01b039081169116146104ff576040805162461bcd60e51b815260206004820181905260248201527f4f776e61626c653a2063616c6c6572206973206e6f7420746865206f776e6572604482015290519081900360640190fd5b600380546001600160a01b0319166001600160a01b0392909216919091179055565b7f000000000000000000000000000000000000000000000000000000000000000081565b6003546001600160a01b031681565b6000545b90565b33610564610c17565b60075561056f6109e2565b6006556001600160a01b038116156105b65761058a81610415565b6001600160a01b0382166000908152600960209081526040808320939093556007546008909152919020555b600082116105ff576040805162461bcd60e51b8152602060048201526011602482015270043616e6e6f74207769746864726177203607c1b604482015290519081900360640190fd5b61060882610efd565b60408051838152905133917f7084f5476618d8e60b11ef0d7d3f06914655adb8793e28ff7f018d4c76d505d5919081900360200190a25050565b6003546001600160a01b0316610656610ef9565b6001600160a01b03161461069b5760405162461bcd60e51b81526004018080602001828103825260218152602001806114fc6021913960400191505060405180910390fd5b60006106a5610c17565b6007556106b06109e2565b6006556001600160a01b038116156106f7576106cb81610415565b6001600160a01b0382166000908152600960209081526040808320939093556007546008909152919020555b60045442106107325761072a827f0000000000000000000000000000000000000000000000000000000000000000610e5d565b600555610791565b6004546000906107429042610dbb565b9050600061075b60055483610e0490919063ffffffff16565b905061078b7f00000000000000000000000000000000000000000000000000000000000000006104718684610e9f565b60055550505b4260068190556107c1907f0000000000000000000000000000000000000000000000000000000000000000610e9f565b6004556040805183815290517fde88a922e0d3b88b24e9623efeb464919c6bf9f66857a65e2bfcf2ce87a9433d9181900360200190a15050565b33610804610c17565b60075561080f6109e2565b6006556001600160a01b038116156108565761082a81610415565b6001600160a01b0382166000908152600960209081526040808320939093556007546008909152919020555b600061086133610415565b905080156108e557336000818152600960205260408120556108ae907f00000000000000000000000000000000000000000000000000000000000000006001600160a01b03169083610f71565b60408051828152905133917fe2403640ba68fed3a2f88b7557551d1993f84b99bb10ff833f0cf8db0c5e0486919081900360200190a25b5050565b6001600160a01b031660009081526001602052604090205490565b61090c610ef9565b6002546001600160a01b0390811691161461096e576040805162461bcd60e51b815260206004820181905260248201527f4f776e61626c653a2063616c6c6572206973206e6f7420746865206f776e6572604482015290519081900360640190fd5b6002546040516000916001600160a01b0316907f8be0079c531659141344cd1fd0a4f28419497f9722a3daafe3b4186f6b6457e0908390a3600280546001600160a01b0319169055565b7f000000000000000000000000000000000000000000000000000000000000000081565b60055481565b60006109f042600454610fc8565b905090565b60086020526000908152604090205481565b6002546001600160a01b031690565b82610a1f610c17565b600755610a2a6109e2565b6006556001600160a01b03811615610a7157610a4581610415565b6001600160a01b0382166000908152600960209081526040808320939093556007546008909152919020555b336001600160a01b037f00000000000000000000000000000000000000000000000000000000000000001614610ade576040805162461bcd60e51b815260206004820152600d60248201526c10b9ba30b5b4b733aa37b5b2b760991b604482015290519081900360640190fd5b610ae88484610fde565b6040805184815290516001600160a01b038616917f9e71bc8eea02a63969f509818f2dafb9254532904319f9dbda79b67bd34a5f3d919081900360200190a250505050565b33610b36610c17565b600755610b416109e2565b6006556001600160a01b03811615610b8857610b5c81610415565b6001600160a01b0382166000908152600960209081526040808320939093556007546008909152919020555b60008211610bce576040805162461bcd60e51b815260206004820152600e60248201526d043616e6e6f74207374616b6520360941b604482015290519081900360640190fd5b610bd782611030565b60408051838152905133917f9e71bc8eea02a63969f509818f2dafb9254532904319f9dbda79b67bd34a5f3d919081900360200190a25050565b60065481565b6000610c21610554565b610c2e5750600754610558565b6109f0610c5c610c3c610554565b610471670de0b6b3a764000061046b60055461046b60065461045c6109e2565b60075490610e9f565b60075481565b610c7c610c77336108e9565b61055b565b610c846107fb565b565b60045481565b610c94610ef9565b6002546001600160a01b03908116911614610cf6576040805162461bcd60e51b815260206004820181905260248201527f4f776e61626c653a2063616c6c6572206973206e6f7420746865206f776e6572604482015290519081900360640190fd5b6001600160a01b038116610d3b5760405162461bcd60e51b815260040180806020018281038252602681526020018061148f6026913960400191505060405180910390fd5b6002546040516001600160a01b038084169216907f8be0079c531659141344cd1fd0a4f28419497f9722a3daafe3b4186f6b6457e090600090a3600280546001600160a01b0319166001600160a01b0392909216919091179055565b7f000000000000000000000000000000000000000000000000000000000000000081565b6000610dfd83836040518060400160405280601e81526020017f536166654d6174683a207375627472616374696f6e206f766572666c6f7700008152506110a2565b9392505050565b600082610e135750600061047d565b82820282848281610e2057fe5b0414610dfd5760405162461bcd60e51b81526004018080602001828103825260218152602001806114db6021913960400191505060405180910390fd5b6000610dfd83836040518060400160405280601a81526020017f536166654d6174683a206469766973696f6e206279207a65726f000000000000815250611139565b600082820183811015610dfd576040805162461bcd60e51b815260206004820152601b60248201527f536166654d6174683a206164646974696f6e206f766572666c6f770000000000604482015290519081900360640190fd5b3390565b600054610f0a9082610dbb565b600090815533815260016020526040902054610f269082610dbb565b33600081815260016020526040902091909155610f6e907f00000000000000000000000000000000000000000000000000000000000000006001600160a01b03169083610f71565b50565b604080516001600160a01b038416602482015260448082018490528251808303909101815260649091019091526020810180516001600160e01b031663a9059cbb60e01b179052610fc390849061119e565b505050565b6000818310610fd75781610dfd565b5090919050565b600054610feb9082610e9f565b60009081556001600160a01b0383168152600160205260409020546110109082610e9f565b6001600160a01b0390921660009081526001602052604090209190915550565b60005461103d9082610e9f565b6000908155338152600160205260409020546110599082610e9f565b33600081815260016020526040902091909155610f6e907f00000000000000000000000000000000000000000000000000000000000000006001600160a01b031690308461124f565b600081848411156111315760405162461bcd60e51b81526004018080602001828103825283818151815260200191508051906020019080838360005b838110156110f65781810151838201526020016110de565b50505050905090810190601f1680156111235780820380516001836020036101000a031916815260200191505b509250505060405180910390fd5b505050900390565b600081836111885760405162461bcd60e51b81526020600482018181528351602484015283519092839260449091019190850190808383600083156110f65781810151838201526020016110de565b50600083858161119457fe5b0495945050505050565b60606111f3826040518060400160405280602081526020017f5361666545524332303a206c6f772d6c6576656c2063616c6c206661696c6564815250856001600160a01b03166112af9092919063ffffffff16565b805190915015610fc35780806020019051602081101561121257600080fd5b5051610fc35760405162461bcd60e51b815260040180806020018281038252602a81526020018061151d602a913960400191505060405180910390fd5b604080516001600160a01b0380861660248301528416604482015260648082018490528251808303909101815260849091019091526020810180516001600160e01b03166323b872dd60e01b1790526112a990859061119e565b50505050565b60606112be84846000856112c6565b949350505050565b6060824710156113075760405162461bcd60e51b81526004018080602001828103825260268152602001806114b56026913960400191505060405180910390fd5b61131085611422565b611361576040805162461bcd60e51b815260206004820152601d60248201527f416464726573733a2063616c6c20746f206e6f6e2d636f6e7472616374000000604482015290519081900360640190fd5b60006060866001600160a01b031685876040518082805190602001908083835b602083106113a05780518252601f199092019160209182019101611381565b6001836020036101000a03801982511681845116808217855250505050505090500191505060006040518083038185875af1925050503d8060008114611402576040519150601f19603f3d011682016040523d82523d6000602084013e611407565b606091505b5091509150611417828286611428565b979650505050505050565b3b151590565b60608315611437575081610dfd565b8251156114475782518084602001fd5b60405162461bcd60e51b81526020600482018181528451602484015284518593919283926044019190850190808383600083156110f65781810151838201526020016110de56fe4f776e61626c653a206e6577206f776e657220697320746865207a65726f2061646472657373416464726573733a20696e73756666696369656e742062616c616e636520666f722063616c6c536166654d6174683a206d756c7469706c69636174696f6e206f766572666c6f7743616c6c6572206973206e6f742072657761726420646973747269627574696f6e5361666545524332303a204552433230206f7065726174696f6e20646964206e6f742073756363656564a264697066735822122088a05fd27ecbb8d47f15db6432aa62b8ea30f826689418cb241197ab0a9b776464736f6c634300060c0033",
  "devdoc": {
    "kind": "dev",
    "methods": {
      "owner()": {
        "details": "Returns the address of the current owner."
      },
      "renounceOwnership()": {
        "details": "Leaves the contract without owner. It will not be possible to call `onlyOwner` functions anymore. Can only be called by the current owner. NOTE: Renouncing ownership will leave the contract without an owner, thereby removing any functionality that is only available to the owner."
      },
      "transferOwnership(address)": {
        "details": "Transfers ownership of the contract to a new account (`newOwner`). Can only be called by the current owner."
      }
    },
    "version": 1
  },
  "userdoc": {
    "kind": "user",
    "methods": {},
    "version": 1
  },
  "storageLayout": {
    "storage": [
      {
        "astId": 17798,
        "contract": "contracts/token/Rewards.sol:Rewards",
        "label": "_totalSupply",
        "offset": 0,
        "slot": "0",
        "type": "t_uint256"
      },
      {
        "astId": 17802,
        "contract": "contracts/token/Rewards.sol:Rewards",
        "label": "_balances",
        "offset": 0,
        "slot": "1",
        "type": "t_mapping(t_address,t_uint256)"
      },
      {
        "astId": 30,
        "contract": "contracts/token/Rewards.sol:Rewards",
        "label": "_owner",
        "offset": 0,
        "slot": "2",
        "type": "t_address"
      },
      {
        "astId": 17758,
        "contract": "contracts/token/Rewards.sol:Rewards",
        "label": "rewardDistribution",
        "offset": 0,
        "slot": "3",
        "type": "t_address"
      },
      {
        "astId": 17946,
        "contract": "contracts/token/Rewards.sol:Rewards",
        "label": "periodFinish",
        "offset": 0,
        "slot": "4",
        "type": "t_uint256"
      },
      {
        "astId": 17949,
        "contract": "contracts/token/Rewards.sol:Rewards",
        "label": "rewardRate",
        "offset": 0,
        "slot": "5",
        "type": "t_uint256"
      },
      {
        "astId": 17951,
        "contract": "contracts/token/Rewards.sol:Rewards",
        "label": "lastUpdateTime",
        "offset": 0,
        "slot": "6",
        "type": "t_uint256"
      },
      {
        "astId": 17953,
        "contract": "contracts/token/Rewards.sol:Rewards",
        "label": "rewardPerTokenStored",
        "offset": 0,
        "slot": "7",
        "type": "t_uint256"
      },
      {
        "astId": 17957,
        "contract": "contracts/token/Rewards.sol:Rewards",
        "label": "userRewardPerTokenPaid",
        "offset": 0,
        "slot": "8",
        "type": "t_mapping(t_address,t_uint256)"
      },
      {
        "astId": 17961,
        "contract": "contracts/token/Rewards.sol:Rewards",
        "label": "rewards",
        "offset": 0,
        "slot": "9",
        "type": "t_mapping(t_address,t_uint256)"
      }
    ],
    "types": {
      "t_address": {
        "encoding": "inplace",
        "label": "address",
        "numberOfBytes": "20"
      },
      "t_mapping(t_address,t_uint256)": {
        "encoding": "mapping",
        "key": "t_address",
        "label": "mapping(address => uint256)",
        "numberOfBytes": "32",
        "value": "t_uint256"
      },
      "t_uint256": {
        "encoding": "inplace",
        "label": "uint256",
        "numberOfBytes": "32"
      }
    }
  }
}