{
  "address": "0x2d24b957B5a5D0FB6A07EA0b95E693D1b2fe1458",
  "abi": [
    {
      "inputs": [
        {
          "internalType": "address",
          "name": "_underlying",
          "type": "address"
        },
        {
          "internalType": "address",
          "name": "_dToken",
          "type": "address"
        },
        {
          "internalType": "address",
          "name": "_pool",
          "type": "address"
        },
        {
          "internalType": "address",
          "name": "_DF",
          "type": "address"
        },
        {
          "internalType": "address",
          "name": "_converter",
          "type": "address"
        },
        {
          "internalType": "address",
          "name": "_controller",
          "type": "address"
        },
        {
          "internalType": "address",
          "name": "_vaultManager",
          "type": "address"
        },
        {
          "internalType": "address",
          "name": "_weth",
          "type": "address"
        },
        {
          "internalType": "address",
          "name": "_router",
          "type": "address"
        }
      ],
      "stateMutability": "nonpayable",
      "type": "constructor"
    },
    {
      "inputs": [],
      "name": "DF",
      "outputs": [
        {
          "internalType": "address",
          "name": "",
          "type": "address"
        }
      ],
      "stateMutability": "view",
      "type": "function"
    },
    {
      "inputs": [],
      "name": "ONE_HUNDRED_PERCENT",
      "outputs": [
        {
          "internalType": "uint256",
          "name": "",
          "type": "uint256"
        }
      ],
      "stateMutability": "view",
      "type": "function"
    },
    {
      "inputs": [
        {
          "internalType": "contract IERC20",
          "name": "_token",
          "type": "address"
        },
        {
          "internalType": "address",
          "name": "_spender",
          "type": "address"
        },
        {
          "internalType": "uint256",
          "name": "_amount",
          "type": "uint256"
        }
      ],
      "name": "approveForSpender",
      "outputs": [],
      "stateMutability": "nonpayable",
      "type": "function"
    },
    {
      "inputs": [],
      "name": "balanceOf",
      "outputs": [
        {
          "internalType": "uint256",
          "name": "",
          "type": "uint256"
        }
      ],
      "stateMutability": "view",
      "type": "function"
    },
    {
      "inputs": [],
      "name": "balanceOfPool",
      "outputs": [
        {
          "internalType": "uint256",
          "name": "",
          "type": "uint256"
        }
      ],
      "stateMutability": "view",
      "type": "function"
    },
    {
      "inputs": [],
      "name": "balanceOfWant",
      "outputs": [
        {
          "internalType": "uint256",
          "name": "",
          "type": "uint256"
        }
      ],
      "stateMutability": "view",
      "type": "function"
    },
    {
      "inputs": [],
      "name": "balanceOfdToken",
      "outputs": [
        {
          "internalType": "uint256",
          "name": "",
          "type": "uint256"
        }
      ],
      "stateMutability": "view",
      "type": "function"
    },
    {
      "inputs": [],
      "name": "controller",
      "outputs": [
        {
          "internalType": "address",
          "name": "",
          "type": "address"
        }
      ],
      "stateMutability": "view",
      "type": "function"
    },
    {
      "inputs": [],
      "name": "converter",
      "outputs": [
        {
          "internalType": "contract IConverter",
          "name": "",
          "type": "address"
        }
      ],
      "stateMutability": "view",
      "type": "function"
    },
    {
      "inputs": [],
      "name": "dToken",
      "outputs": [
        {
          "internalType": "address",
          "name": "",
          "type": "address"
        }
      ],
      "stateMutability": "view",
      "type": "function"
    },
    {
      "inputs": [],
      "name": "deposit",
      "outputs": [],
      "stateMutability": "nonpayable",
      "type": "function"
    },
    {
      "inputs": [],
      "name": "harvest",
      "outputs": [],
      "stateMutability": "nonpayable",
      "type": "function"
    },
    {
      "inputs": [],
      "name": "pool",
      "outputs": [
        {
          "internalType": "address",
          "name": "",
          "type": "address"
        }
      ],
      "stateMutability": "view",
      "type": "function"
    },
    {
      "inputs": [],
      "name": "router",
      "outputs": [
        {
          "internalType": "contract ISwap",
          "name": "",
          "type": "address"
        }
      ],
      "stateMutability": "view",
      "type": "function"
    },
    {
      "inputs": [
        {
          "internalType": "address",
          "name": "_controller",
          "type": "address"
        }
      ],
      "name": "setController",
      "outputs": [],
      "stateMutability": "nonpayable",
      "type": "function"
    },
    {
      "inputs": [
        {
          "internalType": "address",
          "name": "_router",
          "type": "address"
        }
      ],
      "name": "setRouter",
      "outputs": [],
      "stateMutability": "nonpayable",
      "type": "function"
    },
    {
      "inputs": [],
      "name": "skim",
      "outputs": [],
      "stateMutability": "nonpayable",
      "type": "function"
    },
    {
      "inputs": [],
      "name": "vaultManager",
      "outputs": [
        {
          "internalType": "contract IVaultManager",
          "name": "",
          "type": "address"
        }
      ],
      "stateMutability": "view",
      "type": "function"
    },
    {
      "inputs": [],
      "name": "want",
      "outputs": [
        {
          "internalType": "address",
          "name": "",
          "type": "address"
        }
      ],
      "stateMutability": "view",
      "type": "function"
    },
    {
      "inputs": [],
      "name": "weth",
      "outputs": [
        {
          "internalType": "address",
          "name": "",
          "type": "address"
        }
      ],
      "stateMutability": "view",
      "type": "function"
    },
    {
      "inputs": [
        {
          "internalType": "uint256",
          "name": "_amount",
          "type": "uint256"
        }
      ],
      "name": "withdraw",
      "outputs": [],
      "stateMutability": "nonpayable",
      "type": "function"
    },
    {
      "inputs": [
        {
          "internalType": "address",
          "name": "_asset",
          "type": "address"
        }
      ],
      "name": "withdraw",
      "outputs": [],
      "stateMutability": "nonpayable",
      "type": "function"
    },
    {
      "inputs": [],
      "name": "withdrawAll",
      "outputs": [
        {
          "internalType": "uint256",
          "name": "_balance",
          "type": "uint256"
        }
      ],
      "stateMutability": "nonpayable",
      "type": "function"
    }
  ],
  "transactionHash": "0xb9ba7ba9759c763a9ddaf96042c635fd7701f9ffc8ab7c20b19e7cc0a729f422",
  "args": [
    "0x59Dd2C19F322f7457C34C73023cC7dA1fde4063d",
    "0xBFcc19bEBbDcfa2992D83A9f93832Ab1A3fED356",
    "0xfe876a7b49d04073dCa8a1fF0BA07946b78d5229",
    "0xC090b5686B24C2D5eDe2077857a986B6DB73Ad15",
    "0x4981D4A898e1C503BFA06B751f932600E124108f",
    "0xD3dB7ba937597A3fFAd1174bAed2955852FD5d6D",
    "0x15885dE7737B179968B216275b6531f3a668E4E9",
    "0x38e966C6F5562D628e70560726A7B7bCD6D1EC8A",
    "0x8D037Ea525f150BaD41D0caB990665fE944Cb2F7"
  ],
  "solcInputHash": "0dafef0f9d3baf21ab7d835401fdfdba",
  "bytecode": "0x6101206040523480156200001257600080fd5b50604051620034f2380380620034f283398181016040526101208110156200003957600080fd5b508051602080830151604084015160608086015160808088015160a0808a015160c08b015160e08c0151610100909c01516001600160601b03198c891b8116909652600080546001600160a01b038086166001600160a01b03199283161790925560018054838616908316179055988e901b9096169093526002805486851698169790971790965598999698959793969195949391929091859185918c9186918691620000f991908416908390600019906200158c620001e4821b17901c565b5050505050606088811b6001600160601b031990811660c05288821b811660e0529087901b1661010052600380546001600160a01b0319166001600160a01b03878116919091179091556200016090871682600019620001e4602090811b6200158c17901c565b62000187856000198b6001600160a01b0316620001e460201b6200158c179092919060201c565b620001ae886000198b6001600160a01b0316620001e460201b6200158c179092919060201c565b620001d5876000198a6001600160a01b0316620001e460201b6200158c179092919060201c565b505050505050505050620005f7565b8015806200026e575060408051636eb1769f60e11b81523060048201526001600160a01b03848116602483015291519185169163dd62ed3e91604480820192602092909190829003018186803b1580156200023e57600080fd5b505afa15801562000253573d6000803e3d6000fd5b505050506040513d60208110156200026a57600080fd5b5051155b620002ab5760405162461bcd60e51b8152600401808060200182810382526036815260200180620034bc6036913960400191505060405180910390fd5b604080516001600160a01b038416602482015260448082018490528251808303909101815260649091019091526020810180516001600160e01b0390811663095ea7b360e01b17909152620003039185916200030816565b505050565b606062000364826040518060400160405280602081526020017f5361666545524332303a206c6f772d6c6576656c2063616c6c206661696c6564815250856001600160a01b0316620003c460201b6200169f179092919060201c565b80519091501562000303578080602001905160208110156200038557600080fd5b5051620003035760405162461bcd60e51b815260040180806020018281038252602a81526020018062003492602a913960400191505060405180910390fd5b6060620003d58484600085620003df565b90505b9392505050565b606082471015620004225760405162461bcd60e51b81526004018080602001828103825260268152602001806200346c6026913960400191505060405180910390fd5b6200042d8562000547565b6200047f576040805162461bcd60e51b815260206004820152601d60248201527f416464726573733a2063616c6c20746f206e6f6e2d636f6e7472616374000000604482015290519081900360640190fd5b60006060866001600160a01b031685876040518082805190602001908083835b60208310620004c05780518252601f1990920191602091820191016200049f565b6001836020036101000a03801982511681845116808217855250505050505090500191505060006040518083038185875af1925050503d806000811462000524576040519150601f19603f3d011682016040523d82523d6000602084013e62000529565b606091505b5090925090506200053c8282866200054d565b979650505050505050565b3b151590565b606083156200055e575081620003d8565b8251156200056f5782518084602001fd5b8160405162461bcd60e51b81526004018080602001828103825283818151815260200191508051906020019080838360005b83811015620005bb578181015183820152602001620005a1565b50505050905090810190601f168015620005e95780820380516001836020036101000a031916815260200191505b509250505060405180910390fd5b60805160601c60a05160601c60c05160601c60e05160601c6101005160601c612d8b620006e1600039806102d95280611a485250806103bc528061044752806119d05280611ad95280611ded52806122d25250806103195280610fb4528061146e5280611b4e5280611c145280611ce85280611d4c528061217c5280612217528061233652806123dd5250806108c0528061122f52806112645280611a795280612530528061257552806126db52806127c3528061286e52806129055250806105f0528061061b5280610bc052806112945280611a9a5280611c82528061247f5250612d8b6000f3fe608060405234801561001057600080fd5b506004361061014d5760003560e01c80638a4adf24116100c3578063d0e30db01161007c578063d0e30db014610279578063d9d7858a14610281578063dd0081c714610289578063ef9e237914610291578063f77c4791146102c7578063f887ea40146102cf5761014d565b80638a4adf241461020d5780638aa4f0341461021557806392eefe9b1461021d578063bd38837b14610243578063c0d786551461024b578063c1a3d44c146102715761014d565b80632e1a7d4d116101155780632e1a7d4d146101aa5780633fc8cef3146101c75780634641257d146101cf57806351cff8d9146101d7578063722713f7146101fd578063853828b6146102055761014d565b806305a91f7b14610152578063115880861461017657806316f0115b146101905780631dd19cb4146101985780631f1fcd51146101a2575b600080fd5b61015a6102d7565b604080516001600160a01b039092168252519081900360200190f35b61017e6102fb565b60408051918252519081900360200190f35b61015a610445565b6101a0610469565b005b61015a610619565b6101a0600480360360208110156101c057600080fd5b503561063d565b61015a6108be565b6101a06108e2565b6101a0600480360360208110156101ed57600080fd5b50356001600160a01b0316610a4f565b61017e610cbd565b61017e610cd2565b61015a610fa1565b61017e610fb0565b6101a06004803603602081101561023357600080fd5b50356001600160a01b0316611050565b61015a611136565b6101a06004803603602081101561026157600080fd5b50356001600160a01b0316611145565b61017e611290565b6101a06112ff565b61015a61146c565b61017e611490565b6101a0600480360360608110156102a757600080fd5b506001600160a01b03813581169160208101359091169060400135611496565b61015a61156e565b61015a61157d565b7f000000000000000000000000000000000000000000000000000000000000000081565b6000610440610308610fb0565b61043a670de0b6b3a76400006104347f00000000000000000000000000000000000000000000000000000000000000006001600160a01b031663e6aa216c6040518163ffffffff1660e01b815260040160206040518083038186803b15801561037057600080fd5b505afa158015610384573d6000803e3d6000fd5b505050506040513d602081101561039a57600080fd5b5051604080516370a0823160e01b815230600482015290516001600160a01b037f000000000000000000000000000000000000000000000000000000000000000016916370a08231916024808301926020929190829003018186803b15801561040257600080fd5b505afa158015610416573d6000803e3d6000fd5b505050506040513d602081101561042c57600080fd5b5051906116b8565b9061171a565b9061175c565b905090565b7f000000000000000000000000000000000000000000000000000000000000000081565b6000546001600160a01b03163314806105035750600160009054906101000a90046001600160a01b03166001600160a01b0316631fe4a6866040518163ffffffff1660e01b815260040160206040518083038186803b1580156104cb57600080fd5b505afa1580156104df573d6000803e3d6000fd5b505050506040513d60208110156104f557600080fd5b50516001600160a01b031633145b8061058f5750600160009054906101000a90046001600160a01b03166001600160a01b0316635aa6e6756040518163ffffffff1660e01b815260040160206040518083038186803b15801561055757600080fd5b505afa15801561056b573d6000803e3d6000fd5b505050506040513d602081101561058157600080fd5b50516001600160a01b031633145b6105ce576040805162461bcd60e51b815260206004820152600b60248201526a08585d5d1a1bdc9a5e995960aa1b604482015290519081900360640190fd5b600054610617906001600160a01b03166105e6611290565b6001600160a01b037f00000000000000000000000000000000000000000000000000000000000000001691906117b6565b565b7f000000000000000000000000000000000000000000000000000000000000000081565b6000546001600160a01b03163314806106d75750600160009054906101000a90046001600160a01b03166001600160a01b0316631fe4a6866040518163ffffffff1660e01b815260040160206040518083038186803b15801561069f57600080fd5b505afa1580156106b3573d6000803e3d6000fd5b505050506040513d60208110156106c957600080fd5b50516001600160a01b031633145b806107635750600160009054906101000a90046001600160a01b03166001600160a01b0316635aa6e6756040518163ffffffff1660e01b815260040160206040518083038186803b15801561072b57600080fd5b505afa15801561073f573d6000803e3d6000fd5b505050506040513d602081101561075557600080fd5b50516001600160a01b031633145b6107a2576040805162461bcd60e51b815260206004820152600b60248201526a08585d5d1a1bdc9a5e995960aa1b604482015290519081900360640190fd5b60006107ac611290565b9050818110156107d7576107c86107c38383611808565b61184a565b91506107d4828261175c565b91505b60006107e161196d565b6000805460408051632988bb9f60e21b81526001600160a01b0380861660048301529151949550929391169163a622ee7c916024808301926020929190829003018186803b15801561083257600080fd5b505afa158015610846573d6000803e3d6000fd5b505050506040513d602081101561085c57600080fd5b505190506001600160a01b0381166108a4576040805162461bcd60e51b8152602060048201526006602482015265085d985d5b1d60d21b604482015290519081900360640190fd5b6108b86001600160a01b03831682866117b6565b50505050565b7f000000000000000000000000000000000000000000000000000000000000000081565b6000546001600160a01b031633148061097c5750600160009054906101000a90046001600160a01b03166001600160a01b0316631fe4a6866040518163ffffffff1660e01b815260040160206040518083038186803b15801561094457600080fd5b505afa158015610958573d6000803e3d6000fd5b505050506040513d602081101561096e57600080fd5b50516001600160a01b031633145b80610a085750600160009054906101000a90046001600160a01b03166001600160a01b0316635aa6e6756040518163ffffffff1660e01b815260040160206040518083038186803b1580156109d057600080fd5b505afa1580156109e4573d6000803e3d6000fd5b505050506040513d60208110156109fa57600080fd5b50516001600160a01b031633145b610a47576040805162461bcd60e51b815260206004820152600b60248201526a08585d5d1a1bdc9a5e995960aa1b604482015290519081900360640190fd5b6106176119ce565b6000546001600160a01b0316331480610ae95750600160009054906101000a90046001600160a01b03166001600160a01b0316631fe4a6866040518163ffffffff1660e01b815260040160206040518083038186803b158015610ab157600080fd5b505afa158015610ac5573d6000803e3d6000fd5b505050506040513d6020811015610adb57600080fd5b50516001600160a01b031633145b80610b755750600160009054906101000a90046001600160a01b03166001600160a01b0316635aa6e6756040518163ffffffff1660e01b815260040160206040518083038186803b158015610b3d57600080fd5b505afa158015610b51573d6000803e3d6000fd5b505050506040513d6020811015610b6757600080fd5b50516001600160a01b031633145b610bb4576040805162461bcd60e51b815260206004820152600b60248201526a08585d5d1a1bdc9a5e995960aa1b604482015290519081900360640190fd5b806001600160a01b03167f00000000000000000000000000000000000000000000000000000000000000006001600160a01b03161415610c24576040805162461bcd60e51b815260206004808301919091526024820152631dd85b9d60e21b604482015290519081900360640190fd5b604080516370a0823160e01b8152306004820152905182916000916001600160a01b038416916370a08231916024808301926020929190829003018186803b158015610c6f57600080fd5b505afa158015610c83573d6000803e3d6000fd5b505050506040513d6020811015610c9957600080fd5b5051600054909150610cb8906001600160a01b038481169116836117b6565b505050565b6000610440610cca6102fb565b61043a611290565b600080546001600160a01b0316331480610d6d5750600160009054906101000a90046001600160a01b03166001600160a01b0316631fe4a6866040518163ffffffff1660e01b815260040160206040518083038186803b158015610d3557600080fd5b505afa158015610d49573d6000803e3d6000fd5b505050506040513d6020811015610d5f57600080fd5b50516001600160a01b031633145b80610df95750600160009054906101000a90046001600160a01b03166001600160a01b0316635aa6e6756040518163ffffffff1660e01b815260040160206040518083038186803b158015610dc157600080fd5b505afa158015610dd5573d6000803e3d6000fd5b505050506040513d6020811015610deb57600080fd5b50516001600160a01b031633145b610e38576040805162461bcd60e51b815260206004820152600b60248201526a08585d5d1a1bdc9a5e995960aa1b604482015290519081900360640190fd5b610e40611ad7565b6000610e4a61196d565b9050806001600160a01b03166370a08231306040518263ffffffff1660e01b815260040180826001600160a01b0316815260200191505060206040518083038186803b158015610e9957600080fd5b505afa158015610ead573d6000803e3d6000fd5b505050506040513d6020811015610ec357600080fd5b50516000805460408051632988bb9f60e21b81526001600160a01b0386811660048301529151949650929391169163a622ee7c916024808301926020929190829003018186803b158015610f1657600080fd5b505afa158015610f2a573d6000803e3d6000fd5b505050506040513d6020811015610f4057600080fd5b505190506001600160a01b038116610f88576040805162461bcd60e51b8152602060048201526006602482015265085d985d5b1d60d21b604482015290519081900360640190fd5b610f9c6001600160a01b03831682856117b6565b505090565b6001546001600160a01b031681565b60007f00000000000000000000000000000000000000000000000000000000000000006001600160a01b0316633aecd0e3306040518263ffffffff1660e01b815260040180826001600160a01b0316815260200191505060206040518083038186803b15801561101f57600080fd5b505afa158015611033573d6000803e3d6000fd5b505050506040513d602081101561104957600080fd5b5051905090565b600160009054906101000a90046001600160a01b03166001600160a01b0316635aa6e6756040518163ffffffff1660e01b815260040160206040518083038186803b15801561109e57600080fd5b505afa1580156110b2573d6000803e3d6000fd5b505050506040513d60208110156110c857600080fd5b50516001600160a01b03163314611114576040805162461bcd60e51b815260206004820152600b60248201526a21676f7665726e616e636560a81b604482015290519081900360640190fd5b600080546001600160a01b0319166001600160a01b0392909216919091179055565b6003546001600160a01b031681565b600160009054906101000a90046001600160a01b03166001600160a01b0316635aa6e6756040518163ffffffff1660e01b815260040160206040518083038186803b15801561119357600080fd5b505afa1580156111a7573d6000803e3d6000fd5b505050506040513d60208110156111bd57600080fd5b50516001600160a01b03163314611209576040805162461bcd60e51b815260206004820152600b60248201526a21676f7665726e616e636560a81b604482015290519081900360640190fd5b600280546001600160a01b0319166001600160a01b0383811691909117909155611257907f00000000000000000000000000000000000000000000000000000000000000001682600061158c565b61128d6001600160a01b037f0000000000000000000000000000000000000000000000000000000000000000168260001961158c565b50565b60007f00000000000000000000000000000000000000000000000000000000000000006001600160a01b03166370a08231306040518263ffffffff1660e01b815260040180826001600160a01b0316815260200191505060206040518083038186803b15801561101f57600080fd5b6000546001600160a01b03163314806113995750600160009054906101000a90046001600160a01b03166001600160a01b0316631fe4a6866040518163ffffffff1660e01b815260040160206040518083038186803b15801561136157600080fd5b505afa158015611375573d6000803e3d6000fd5b505050506040513d602081101561138b57600080fd5b50516001600160a01b031633145b806114255750600160009054906101000a90046001600160a01b03166001600160a01b0316635aa6e6756040518163ffffffff1660e01b815260040160206040518083038186803b1580156113ed57600080fd5b505afa158015611401573d6000803e3d6000fd5b505050506040513d602081101561141757600080fd5b50516001600160a01b031633145b611464576040805162461bcd60e51b815260206004820152600b60248201526a08585d5d1a1bdc9a5e995960aa1b604482015290519081900360640190fd5b610617611caf565b7f000000000000000000000000000000000000000000000000000000000000000081565b61271081565b600160009054906101000a90046001600160a01b03166001600160a01b0316635aa6e6756040518163ffffffff1660e01b815260040160206040518083038186803b1580156114e457600080fd5b505afa1580156114f8573d6000803e3d6000fd5b505050506040513d602081101561150e57600080fd5b50516001600160a01b0316331461155a576040805162461bcd60e51b815260206004820152600b60248201526a21676f7665726e616e636560a81b604482015290519081900360640190fd5b610cb86001600160a01b038416838361158c565b6000546001600160a01b031681565b6002546001600160a01b031681565b801580611612575060408051636eb1769f60e11b81523060048201526001600160a01b03848116602483015291519185169163dd62ed3e91604480820192602092909190829003018186803b1580156115e457600080fd5b505afa1580156115f8573d6000803e3d6000fd5b505050506040513d602081101561160e57600080fd5b5051155b61164d5760405162461bcd60e51b8152600401808060200182810382526036815260200180612d206036913960400191505060405180910390fd5b604080516001600160a01b038416602482015260448082018490528251808303909101815260649091019091526020810180516001600160e01b031663095ea7b360e01b179052610cb8908490611e6e565b60606116ae8484600085611f1f565b90505b9392505050565b6000826116c757506000611714565b828202828482816116d457fe5b04146117115760405162461bcd60e51b8152600401808060200182810382526021815260200180612cd56021913960400191505060405180910390fd5b90505b92915050565b600061171183836040518060400160405280601a81526020017f536166654d6174683a206469766973696f6e206279207a65726f00000000000081525061207b565b600082820183811015611711576040805162461bcd60e51b815260206004820152601b60248201527f536166654d6174683a206164646974696f6e206f766572666c6f770000000000604482015290519081900360640190fd5b604080516001600160a01b038416602482015260448082018490528251808303909101815260649091019091526020810180516001600160e01b031663a9059cbb60e01b179052610cb8908490611e6e565b600061171183836040518060400160405280601e81526020017f536166654d6174683a207375627472616374696f6e206f766572666c6f77000081525061211d565b60008061185561196d565b90506000816001600160a01b03166370a08231306040518263ffffffff1660e01b815260040180826001600160a01b0316815260200191505060206040518083038186803b1580156118a657600080fd5b505afa1580156118ba573d6000803e3d6000fd5b505050506040513d60208110156118d057600080fd5b505190506118dd84612177565b6000826001600160a01b03166370a08231306040518263ffffffff1660e01b815260040180826001600160a01b0316815260200191505060206040518083038186803b15801561192c57600080fd5b505afa158015611940573d6000803e3d6000fd5b505050506040513d602081101561195657600080fd5b505190506119648183611808565b95945050505050565b60008054604080516364f5005760e01b815230600482015290516001600160a01b03909216916364f500579160248082019260209290919082900301818787803b1580156119ba57600080fd5b505af1158015611033573d6000803e3d6000fd5b7f00000000000000000000000000000000000000000000000000000000000000006001600160a01b0316633d18b9126040518163ffffffff1660e01b8152600401600060405180830381600087803b158015611a2957600080fd5b505af1158015611a3d573d6000803e3d6000fd5b505050506000611a6c7f00000000000000000000000000000000000000000000000000000000000000006124ac565b9050801561128d57611abf7f00000000000000000000000000000000000000000000000000000000000000007f000000000000000000000000000000000000000000000000000000000000000083612988565b6000611ac9611290565b111561128d5761128d611caf565b7f00000000000000000000000000000000000000000000000000000000000000006001600160a01b031663e9fad8ee6040518163ffffffff1660e01b8152600401600060405180830381600087803b158015611b3257600080fd5b505af1158015611b46573d6000803e3d6000fd5b5050505060007f00000000000000000000000000000000000000000000000000000000000000006001600160a01b03166370a08231306040518263ffffffff1660e01b815260040180826001600160a01b0316815260200191505060206040518083038186803b158015611bb957600080fd5b505afa158015611bcd573d6000803e3d6000fd5b505050506040513d6020811015611be357600080fd5b50519050801561128d57604080516301e9a69560e41b81523060048201526024810183905290516001600160a01b037f00000000000000000000000000000000000000000000000000000000000000001691631e9a695091604480830192600092919082900301818387803b158015611c5b57600080fd5b505af1158015611c6f573d6000803e3d6000fd5b50505050611c7b611290565b905061128d7f0000000000000000000000000000000000000000000000000000000000000000611ca961196d565b83612acb565b6000611cb9611290565b90508015611d4857604080516340c10f1960e01b81523060048201526024810183905290516001600160a01b037f000000000000000000000000000000000000000000000000000000000000000016916340c10f1991604480830192600092919082900301818387803b158015611d2f57600080fd5b505af1158015611d43573d6000803e3d6000fd5b505050505b60007f00000000000000000000000000000000000000000000000000000000000000006001600160a01b03166370a08231306040518263ffffffff1660e01b815260040180826001600160a01b0316815260200191505060206040518083038186803b158015611db757600080fd5b505afa158015611dcb573d6000803e3d6000fd5b505050506040513d6020811015611de157600080fd5b505190508015611e6a577f00000000000000000000000000000000000000000000000000000000000000006001600160a01b031663a694fc3a826040518263ffffffff1660e01b815260040180828152602001915050600060405180830381600087803b158015611e5157600080fd5b505af1158015611e65573d6000803e3d6000fd5b505050505b5050565b6060611ec3826040518060400160405280602081526020017f5361666545524332303a206c6f772d6c6576656c2063616c6c206661696c6564815250856001600160a01b031661169f9092919063ffffffff16565b805190915015610cb857808060200190516020811015611ee257600080fd5b5051610cb85760405162461bcd60e51b815260040180806020018281038252602a815260200180612cf6602a913960400191505060405180910390fd5b606082471015611f605760405162461bcd60e51b8152600401808060200182810382526026815260200180612caf6026913960400191505060405180910390fd5b611f6985612c42565b611fba576040805162461bcd60e51b815260206004820152601d60248201527f416464726573733a2063616c6c20746f206e6f6e2d636f6e7472616374000000604482015290519081900360640190fd5b60006060866001600160a01b031685876040518082805190602001908083835b60208310611ff95780518252601f199092019160209182019101611fda565b6001836020036101000a03801982511681845116808217855250505050505090500191505060006040518083038185875af1925050503d806000811461205b576040519150601f19603f3d011682016040523d82523d6000602084013e612060565b606091505b5091509150612070828286612c48565b979650505050505050565b600081836121075760405162461bcd60e51b81526004018080602001828103825283818151815260200191508051906020019080838360005b838110156120cc5781810151838201526020016120b4565b50505050905090810190601f1680156120f95780820380516001836020036101000a031916815260200191505b509250505060405180910390fd5b50600083858161211357fe5b0495945050505050565b6000818484111561216f5760405162461bcd60e51b81526020600482018181528351602484015283519092839260449091019190850190808383600083156120cc5781810151838201526020016120b4565b505050900390565b6122117f00000000000000000000000000000000000000000000000000000000000000006001600160a01b031663e6aa216c6040518163ffffffff1660e01b815260040160206040518083038186803b1580156121d357600080fd5b505afa1580156121e7573d6000803e3d6000fd5b505050506040513d60208110156121fd57600080fd5b505161043483670de0b6b3a76400006116b8565b905060007f00000000000000000000000000000000000000000000000000000000000000006001600160a01b03166370a08231306040518263ffffffff1660e01b815260040180826001600160a01b0316815260200191505060206040518083038186803b15801561228257600080fd5b505afa158015612296573d6000803e3d6000fd5b505050506040513d60208110156122ac57600080fd5b505160408051632e1a7d4d60e01b81526004810185905290519192506001600160a01b037f00000000000000000000000000000000000000000000000000000000000000001691632e1a7d4d9160248082019260009290919082900301818387803b15801561231a57600080fd5b505af115801561232e573d6000803e3d6000fd5b5050505060007f00000000000000000000000000000000000000000000000000000000000000006001600160a01b03166370a08231306040518263ffffffff1660e01b815260040180826001600160a01b0316815260200191505060206040518083038186803b1580156123a157600080fd5b505afa1580156123b5573d6000803e3d6000fd5b505050506040513d60208110156123cb57600080fd5b505190506123d98183611808565b92507f00000000000000000000000000000000000000000000000000000000000000006001600160a01b0316631e9a695030856040518363ffffffff1660e01b815260040180836001600160a01b0316815260200182815260200192505050600060405180830381600087803b15801561245257600080fd5b505af1158015612466573d6000803e3d6000fd5b50505050612472611290565b92508215610cb857610cb87f00000000000000000000000000000000000000000000000000000000000000006124a661196d565b85612acb565b600080826001600160a01b03166370a08231306040518263ffffffff1660e01b815260040180826001600160a01b0316815260200191505060206040518083038186803b1580156124fc57600080fd5b505afa158015612510573d6000803e3d6000fd5b505050506040513d602081101561252657600080fd5b50519050612555837f000000000000000000000000000000000000000000000000000000000000000083612988565b604080516370a0823160e01b815230600482015290516001600160a01b037f000000000000000000000000000000000000000000000000000000000000000016916370a08231916024808301926020929190829003018186803b1580156125bb57600080fd5b505afa1580156125cf573d6000803e3d6000fd5b505050506040513d60208110156125e557600080fd5b505191508115612982576000806000806000806000600160009054906101000a90046001600160a01b03166001600160a01b031663da633d316040518163ffffffff1660e01b815260040160e06040518083038186803b15801561264857600080fd5b505afa15801561265c573d6000803e3d6000fd5b505050506040513d60e081101561267257600080fd5b508051602082015160408301516060840151608085015160a086015160c090960151949c50929a50909850965094509092509050600085158015906126bf57506001600160a01b03871615155b1561278f576126d46127106104348c896116b8565b90506127017f00000000000000000000000000000000000000000000000000000000000000008983612988565b61278f87896001600160a01b03166370a08231306040518263ffffffff1660e01b815260040180826001600160a01b0316815260200191505060206040518083038186803b15801561275257600080fd5b505afa158015612766573d6000803e3d6000fd5b505050506040513d602081101561277c57600080fd5b50516001600160a01b038b1691906117b6565b6000841180156127a757506001600160a01b03851615155b1561283a576127bc6127106104348c876116b8565b90506127e97f00000000000000000000000000000000000000000000000000000000000000008983612988565b61283a85896001600160a01b03166370a08231306040518263ffffffff1660e01b815260040180826001600160a01b0316815260200191505060206040518083038186803b15801561275257600080fd5b60008211801561285257506001600160a01b03831615155b156128e5576128676127106104348c856116b8565b90506128947f00000000000000000000000000000000000000000000000000000000000000008983612988565b6128e583896001600160a01b03166370a08231306040518263ffffffff1660e01b815260040180826001600160a01b0316815260200191505060206040518083038186803b15801561275257600080fd5b604080516370a0823160e01b815230600482015290516001600160a01b037f000000000000000000000000000000000000000000000000000000000000000016916370a08231916024808301926020929190829003018186803b15801561294b57600080fd5b505afa15801561295f573d6000803e3d6000fd5b505050506040513d602081101561297557600080fd5b5051995050505050505050505b50919050565b604080516002808252606080830184529260208301908036833701905050905083816000815181106129b657fe5b60200260200101906001600160a01b031690816001600160a01b03168152505082816001815181106129e457fe5b6001600160a01b039283166020918202929092010152600254166338ed17398360018430612a144261070861175c565b6040518663ffffffff1660e01b81526004018086815260200185815260200180602001846001600160a01b03168152602001838152602001828103825285818151815260200191508051906020019060200280838360005b83811015612a84578181015183820152602001612a6c565b505050509050019650505050505050600060405180830381600087803b158015612aad57600080fd5b505af1158015612ac1573d6000803e3d6000fd5b5050505050505050565b60035460408051630db3e24f60e21b81526001600160a01b038681166004830152858116602483015260448201859052915160009392909216916336cf893c91606480820192602092909190829003018186803b158015612b2b57600080fd5b505afa158015612b3f573d6000803e3d6000fd5b505050506040513d6020811015612b5557600080fd5b505111612b99576040805162461bcd60e51b815260206004820152600d60248201526c21636f6e766572745f7261746560981b604482015290519081900360640190fd5b600354612bb3906001600160a01b038581169116836117b6565b6003546040805163248391ff60e01b81526001600160a01b0386811660048301528581166024830152604482018590529151919092169163248391ff9160648083019260209291908290030181600087803b158015612c1157600080fd5b505af1158015612c25573d6000803e3d6000fd5b505050506040513d6020811015612c3b57600080fd5b5050505050565b3b151590565b60608315612c575750816116b1565b825115612c675782518084602001fd5b60405162461bcd60e51b81526020600482018181528451602484015284518593919283926044019190850190808383600083156120cc5781810151838201526020016120b456fe416464726573733a20696e73756666696369656e742062616c616e636520666f722063616c6c536166654d6174683a206d756c7469706c69636174696f6e206f766572666c6f775361666545524332303a204552433230206f7065726174696f6e20646964206e6f7420737563636565645361666545524332303a20617070726f76652066726f6d206e6f6e2d7a65726f20746f206e6f6e2d7a65726f20616c6c6f77616e6365a2646970667358221220877fae21ab6d8316c9c6dec753b07872b92cb3060b02a5b58b7a0f1890ce100064736f6c634300060c0033416464726573733a20696e73756666696369656e742062616c616e636520666f722063616c6c5361666545524332303a204552433230206f7065726174696f6e20646964206e6f7420737563636565645361666545524332303a20617070726f76652066726f6d206e6f6e2d7a65726f20746f206e6f6e2d7a65726f20616c6c6f77616e6365",
  "devdoc": {
    "kind": "dev",
    "methods": {
      "approveForSpender(address,address,uint256)": {
        "params": {
          "_amount": "The amount to spend",
          "_spender": "The address of the spender",
          "_token": "The address of the token"
        }
      },
      "balanceOfPool()": {
        "details": "Must be implemented by the strategy"
      },
      "setController(address)": {
        "params": {
          "_controller": "The address of the controller"
        }
      },
      "setRouter(address)": {
        "params": {
          "_router": "The address of the router"
        }
      },
      "withdraw(address)": {
        "params": {
          "_asset": "The address of the token to withdraw"
        }
      },
      "withdraw(uint256)": {
        "params": {
          "_amount": "The amount of the want token to withdraw"
        }
      }
    },
    "version": 1
  },
  "userdoc": {
    "kind": "user",
    "methods": {
      "approveForSpender(address,address,uint256)": {
        "notice": "Approves a token address to be spent by an address"
      },
      "balanceOf()": {
        "notice": "Returns the strategy's balance of the want token plus the balance of pool"
      },
      "balanceOfPool()": {
        "notice": "Returns the balance of the pool"
      },
      "balanceOfWant()": {
        "notice": "Returns the balance of the want token on the strategy"
      },
      "deposit()": {
        "notice": "Deposits funds to the strategy's pool"
      },
      "harvest()": {
        "notice": "Harvest funds in the strategy's pool"
      },
      "setController(address)": {
        "notice": "Sets the address of the controller"
      },
      "setRouter(address)": {
        "notice": "Sets the address of the ISwap-compatible router"
      },
      "skim()": {
        "notice": "Sends stuck want tokens in the strategy to the controller"
      },
      "withdraw(address)": {
        "notice": "Sends stuck tokens in the strategy to the controller"
      },
      "withdraw(uint256)": {
        "notice": "Initiated from a vault, withdraws funds from the pool"
      },
      "withdrawAll()": {
        "notice": "Withdraws all funds from the strategy"
      }
    },
    "version": 1
  },
  "storageLayout": {
    "storage": [
      {
        "astId": 6798,
        "contract": "contracts/metavault/strategies/StrategyDforce.sol:StrategyDforce",
        "label": "controller",
        "offset": 0,
        "slot": "0",
        "type": "t_address"
      },
      {
        "astId": 6800,
        "contract": "contracts/metavault/strategies/StrategyDforce.sol:StrategyDforce",
        "label": "vaultManager",
        "offset": 0,
        "slot": "1",
        "type": "t_contract(IVaultManager)2082"
      },
      {
        "astId": 6802,
        "contract": "contracts/metavault/strategies/StrategyDforce.sol:StrategyDforce",
        "label": "router",
        "offset": 0,
        "slot": "2",
        "type": "t_contract(ISwap)1983"
      },
      {
        "astId": 8075,
        "contract": "contracts/metavault/strategies/StrategyDforce.sol:StrategyDforce",
        "label": "converter",
        "offset": 0,
        "slot": "3",
        "type": "t_contract(IConverter)1737"
      }
    ],
    "types": {
      "t_address": {
        "encoding": "inplace",
        "label": "address",
        "numberOfBytes": "20"
      },
      "t_contract(IConverter)1737": {
        "encoding": "inplace",
        "label": "contract IConverter",
        "numberOfBytes": "20"
      },
      "t_contract(ISwap)1983": {
        "encoding": "inplace",
        "label": "contract ISwap",
        "numberOfBytes": "20"
      },
      "t_contract(IVaultManager)2082": {
        "encoding": "inplace",
        "label": "contract IVaultManager",
        "numberOfBytes": "20"
      }
    }
  }
}