{
  "address": "0x93d0f1F6a544968b914427dc3Befb788Cb75512E",
  "abi": [
    {
      "inputs": [
        {
          "internalType": "address",
          "name": "_want",
          "type": "address"
        },
        {
          "internalType": "address",
          "name": "_crv",
          "type": "address"
        },
        {
          "internalType": "address",
          "name": "_weth",
          "type": "address"
        },
        {
          "internalType": "address",
          "name": "_dai",
          "type": "address"
        },
        {
          "internalType": "address",
          "name": "_usdc",
          "type": "address"
        },
        {
          "internalType": "address",
          "name": "_usdt",
          "type": "address"
        },
        {
          "internalType": "contract Gauge",
          "name": "_gauge",
          "type": "address"
        },
        {
          "internalType": "contract Mintr",
          "name": "_crvMintr",
          "type": "address"
        },
        {
          "internalType": "contract IStableSwap3Pool",
          "name": "_stableSwap3Pool",
          "type": "address"
        },
        {
          "internalType": "address",
          "name": "_controller",
          "type": "address"
        },
        {
          "internalType": "address",
          "name": "_vaultManager",
          "type": "address"
        },
        {
          "internalType": "address",
          "name": "_router",
          "type": "address"
        }
      ],
      "stateMutability": "nonpayable",
      "type": "constructor"
    },
    {
      "inputs": [],
      "name": "ONE_HUNDRED_PERCENT",
      "outputs": [
        {
          "internalType": "uint256",
          "name": "",
          "type": "uint256"
        }
      ],
      "stateMutability": "view",
      "type": "function"
    },
    {
      "inputs": [
        {
          "internalType": "contract IERC20",
          "name": "_token",
          "type": "address"
        },
        {
          "internalType": "address",
          "name": "_spender",
          "type": "address"
        },
        {
          "internalType": "uint256",
          "name": "_amount",
          "type": "uint256"
        }
      ],
      "name": "approveForSpender",
      "outputs": [],
      "stateMutability": "nonpayable",
      "type": "function"
    },
    {
      "inputs": [],
      "name": "balanceOf",
      "outputs": [
        {
          "internalType": "uint256",
          "name": "",
          "type": "uint256"
        }
      ],
      "stateMutability": "view",
      "type": "function"
    },
    {
      "inputs": [],
      "name": "balanceOfPool",
      "outputs": [
        {
          "internalType": "uint256",
          "name": "",
          "type": "uint256"
        }
      ],
      "stateMutability": "view",
      "type": "function"
    },
    {
      "inputs": [],
      "name": "balanceOfWant",
      "outputs": [
        {
          "internalType": "uint256",
          "name": "",
          "type": "uint256"
        }
      ],
      "stateMutability": "view",
      "type": "function"
    },
    {
      "inputs": [],
      "name": "claimableTokens",
      "outputs": [
        {
          "internalType": "uint256",
          "name": "",
          "type": "uint256"
        }
      ],
      "stateMutability": "view",
      "type": "function"
    },
    {
      "inputs": [],
      "name": "controller",
      "outputs": [
        {
          "internalType": "address",
          "name": "",
          "type": "address"
        }
      ],
      "stateMutability": "view",
      "type": "function"
    },
    {
      "inputs": [],
      "name": "crv",
      "outputs": [
        {
          "internalType": "address",
          "name": "",
          "type": "address"
        }
      ],
      "stateMutability": "view",
      "type": "function"
    },
    {
      "inputs": [],
      "name": "crvMintr",
      "outputs": [
        {
          "internalType": "contract Mintr",
          "name": "",
          "type": "address"
        }
      ],
      "stateMutability": "view",
      "type": "function"
    },
    {
      "inputs": [],
      "name": "dai",
      "outputs": [
        {
          "internalType": "address",
          "name": "",
          "type": "address"
        }
      ],
      "stateMutability": "view",
      "type": "function"
    },
    {
      "inputs": [],
      "name": "deposit",
      "outputs": [],
      "stateMutability": "nonpayable",
      "type": "function"
    },
    {
      "inputs": [],
      "name": "gauge",
      "outputs": [
        {
          "internalType": "contract Gauge",
          "name": "",
          "type": "address"
        }
      ],
      "stateMutability": "view",
      "type": "function"
    },
    {
      "inputs": [],
      "name": "getMostPremium",
      "outputs": [
        {
          "internalType": "address",
          "name": "",
          "type": "address"
        },
        {
          "internalType": "uint256",
          "name": "",
          "type": "uint256"
        }
      ],
      "stateMutability": "view",
      "type": "function"
    },
    {
      "inputs": [],
      "name": "harvest",
      "outputs": [],
      "stateMutability": "nonpayable",
      "type": "function"
    },
    {
      "inputs": [],
      "name": "router",
      "outputs": [
        {
          "internalType": "contract ISwap",
          "name": "",
          "type": "address"
        }
      ],
      "stateMutability": "view",
      "type": "function"
    },
    {
      "inputs": [
        {
          "internalType": "address",
          "name": "_controller",
          "type": "address"
        }
      ],
      "name": "setController",
      "outputs": [],
      "stateMutability": "nonpayable",
      "type": "function"
    },
    {
      "inputs": [
        {
          "internalType": "address",
          "name": "_router",
          "type": "address"
        }
      ],
      "name": "setRouter",
      "outputs": [],
      "stateMutability": "nonpayable",
      "type": "function"
    },
    {
      "inputs": [],
      "name": "skim",
      "outputs": [],
      "stateMutability": "nonpayable",
      "type": "function"
    },
    {
      "inputs": [],
      "name": "stableSwap3Pool",
      "outputs": [
        {
          "internalType": "contract IStableSwap3Pool",
          "name": "",
          "type": "address"
        }
      ],
      "stateMutability": "view",
      "type": "function"
    },
    {
      "inputs": [],
      "name": "usdc",
      "outputs": [
        {
          "internalType": "address",
          "name": "",
          "type": "address"
        }
      ],
      "stateMutability": "view",
      "type": "function"
    },
    {
      "inputs": [],
      "name": "usdt",
      "outputs": [
        {
          "internalType": "address",
          "name": "",
          "type": "address"
        }
      ],
      "stateMutability": "view",
      "type": "function"
    },
    {
      "inputs": [],
      "name": "vaultManager",
      "outputs": [
        {
          "internalType": "contract IVaultManager",
          "name": "",
          "type": "address"
        }
      ],
      "stateMutability": "view",
      "type": "function"
    },
    {
      "inputs": [],
      "name": "want",
      "outputs": [
        {
          "internalType": "address",
          "name": "",
          "type": "address"
        }
      ],
      "stateMutability": "view",
      "type": "function"
    },
    {
      "inputs": [],
      "name": "weth",
      "outputs": [
        {
          "internalType": "address",
          "name": "",
          "type": "address"
        }
      ],
      "stateMutability": "view",
      "type": "function"
    },
    {
      "inputs": [
        {
          "internalType": "uint256",
          "name": "_amount",
          "type": "uint256"
        }
      ],
      "name": "withdraw",
      "outputs": [],
      "stateMutability": "nonpayable",
      "type": "function"
    },
    {
      "inputs": [
        {
          "internalType": "address",
          "name": "_asset",
          "type": "address"
        }
      ],
      "name": "withdraw",
      "outputs": [],
      "stateMutability": "nonpayable",
      "type": "function"
    },
    {
      "inputs": [],
      "name": "withdrawAll",
      "outputs": [
        {
          "internalType": "uint256",
          "name": "_balance",
          "type": "uint256"
        }
      ],
      "stateMutability": "nonpayable",
      "type": "function"
    }
  ],
  "transactionHash": "0x6c93afb1ffe9060a460ffb2b610e40adb444d3b1d42430d2e0927b6371ce5301",
  "args": [
    "0xFe2517Ff8E95876EE29aD9f91Ee31fB5Bd1dc2a3",
    "0x15827C1E7D31ABc35cd9f5c066507bEF3D10C978",
    "0x38e966C6F5562D628e70560726A7B7bCD6D1EC8A",
    "0x59Dd2C19F322f7457C34C73023cC7dA1fde4063d",
    "0xAE0e8B59555d83f3A83DFB258E637CFfEba77D3A",
    "0x3631E53e320F072e53397Ab7717b4C4F90fd2183",
    "0x67c6a7A201cB5f80318691B7Ab82b86Cc444C00b",
    "0x33F04CD467679B47D2a6AD50e3BCeC7d85493edE",
    "0xE2C2a45850375c0A8B92b853fcd0a110463ed5Ab",
    "0xD3dB7ba937597A3fFAd1174bAed2955852FD5d6D",
    "0x15885dE7737B179968B216275b6531f3a668E4E9",
    "0x8D037Ea525f150BaD41D0caB990665fE944Cb2F7"
  ],
  "solcInputHash": "0dafef0f9d3baf21ab7d835401fdfdba",
  "bytecode": "0x6101a06040523480156200001257600080fd5b50604051620036653803806200366583398181016040526101808110156200003957600080fd5b8101908080519060200190929190805190602001909291908051906020019092919080519060200190929190805190602001909291908051906020019092919080519060200190929190805190602001909291908051906020019092919080519060200190929190805190602001909291908051906020019092919050505082828d8c84826001600160a01b03166080816001600160a01b031660601b81525050846000806101000a8154816001600160a01b0302191690836001600160a01b0316021790555083600160006101000a8154816001600160a01b0302191690836001600160a01b03160217905550816001600160a01b031660a0816001600160a01b031660601b8152505080600260006101000a8154816001600160a01b0302191690836001600160a01b031602179055506200019281600019846001600160a01b0316620002d960201b620019ca179092919060201c565b505050505060608b811b6001600160601b031990811660c0528a821b811660e05289821b81166101005288821b81166101205285821b81166101605287821b8116610180529086901b1661014052620002046001600160a01b038d1687600019620002d9602090811b620019ca17901c565b6200022b816000198d6001600160a01b0316620002d960201b620019ca179092919060201c565b62000252846000198b6001600160a01b0316620002d960201b620019ca179092919060201c565b62000279846000198a6001600160a01b0316620002d960201b620019ca179092919060201c565b620002a084600019896001600160a01b0316620002d960201b620019ca179092919060201c565b620002c7846000198e6001600160a01b0316620002d960201b620019ca179092919060201c565b505050505050505050505050620006ec565b80158062000363575060408051636eb1769f60e11b81523060048201526001600160a01b03848116602483015291519185169163dd62ed3e91604480820192602092909190829003018186803b1580156200033357600080fd5b505afa15801562000348573d6000803e3d6000fd5b505050506040513d60208110156200035f57600080fd5b5051155b620003a05760405162461bcd60e51b81526004018080602001828103825260368152602001806200362f6036913960400191505060405180910390fd5b604080516001600160a01b038416602482015260448082018490528251808303909101815260649091019091526020810180516001600160e01b0390811663095ea7b360e01b17909152620003f8918591620003fd16565b505050565b606062000459826040518060400160405280602081526020017f5361666545524332303a206c6f772d6c6576656c2063616c6c206661696c6564815250856001600160a01b0316620004b960201b62001add179092919060201c565b805190915015620003f8578080602001905160208110156200047a57600080fd5b5051620003f85760405162461bcd60e51b815260040180806020018281038252602a81526020018062003605602a913960400191505060405180910390fd5b6060620004ca8484600085620004d4565b90505b9392505050565b606082471015620005175760405162461bcd60e51b8152600401808060200182810382526026815260200180620035df6026913960400191505060405180910390fd5b62000522856200063c565b62000574576040805162461bcd60e51b815260206004820152601d60248201527f416464726573733a2063616c6c20746f206e6f6e2d636f6e7472616374000000604482015290519081900360640190fd5b60006060866001600160a01b031685876040518082805190602001908083835b60208310620005b55780518252601f19909201916020918201910162000594565b6001836020036101000a03801982511681845116808217855250505050505090500191505060006040518083038185875af1925050503d806000811462000619576040519150601f19603f3d011682016040523d82523d6000602084013e6200061e565b606091505b5090925090506200063182828662000642565b979650505050505050565b3b151590565b6060831562000653575081620004cd565b825115620006645782518084602001fd5b8160405162461bcd60e51b81526004018080602001828103825283818151815260200191508051906020019080838360005b83811015620006b057818101518382015260200162000696565b50505050905090810190601f168015620006de5780820380516001836020036101000a031916815260200191505b509250505060405180910390fd5b60805160601c60a05160601c60c05160601c60e05160601c6101005160601c6101205160601c6101405160601c6101605160601c6101805160601c612dd56200080a6000398061039e52806114f252806115185280611e655280611f1b528061224052806122d5525080610a915280610b445280610bfd52806110c65280612b5052508061037852806122a65250806108915280610dfe5280612ac35250806108b55280610d6e5280612a28525080610cde5280610e2b528061198a52806129945250806110ea5280611d805250806108d9528061166d52806116a25280611dbe52806123cb5280612410528061257c5280612664528061270f52806127a65250806105c152806105ec5280610fc752806116d25250612dd56000f3fe608060405234801561001057600080fd5b50600436106101a95760003560e01c8063722713f7116100f9578063c1a3d44c11610097578063ef9e237911610071578063ef9e237914610328578063f4b9fa751461035e578063f77c479114610366578063f887ea401461036e576101a9565b8063c1a3d44c14610310578063d0e30db014610318578063dd0081c714610320576101a9565b806392eefe9b116100d357806392eefe9b146102b4578063a6f19c84146102da578063bab8fe40146102e2578063c0d78655146102ea576101a9565b8063722713f71461029c578063853828b6146102a45780638a4adf24146102ac576101a9565b80633e413bee1161016657806348677dbe1161014057806348677dbe1461023b57806351cff8d9146102665780635a3874ac1461028c5780636a4874a114610294576101a9565b80633e413bee146102235780633fc8cef31461022b5780634641257d14610233576101a9565b8063017f3987146101ae57806311588086146101d25780631dd19cb4146101ec5780631f1fcd51146101f65780632e1a7d4d146101fe5780632f48ab7d1461021b575b600080fd5b6101b6610376565b604080516001600160a01b039092168252519081900360200190f35b6101da61039a565b60408051918252519081900360200190f35b6101f461043a565b005b6101b66105ea565b6101f46004803603602081101561021457600080fd5b503561060e565b6101b661088f565b6101b66108b3565b6101b66108d7565b6101f46108fb565b610243610a68565b604080516001600160a01b03909316835260208301919091528051918290030190f35b6101f46004803603602081101561027c57600080fd5b50356001600160a01b0316610e56565b6101b66110c4565b6101b66110e8565b6101da61110c565b6101da61112c565b6101b66113fb565b6101f4600480360360208110156102ca57600080fd5b50356001600160a01b031661140a565b6101b66114f0565b6101da611514565b6101f46004803603602081101561030057600080fd5b50356001600160a01b0316611583565b6101da6116ce565b6101f461173d565b6101da6118aa565b6101f46004803603606081101561033e57600080fd5b506001600160a01b038135811691602081013590911690604001356118b0565b6101b6611988565b6101b66119ac565b6101b66119bb565b7f000000000000000000000000000000000000000000000000000000000000000081565b60007f00000000000000000000000000000000000000000000000000000000000000006001600160a01b03166370a08231306040518263ffffffff1660e01b815260040180826001600160a01b0316815260200191505060206040518083038186803b15801561040957600080fd5b505afa15801561041d573d6000803e3d6000fd5b505050506040513d602081101561043357600080fd5b5051905090565b6000546001600160a01b03163314806104d45750600160009054906101000a90046001600160a01b03166001600160a01b0316631fe4a6866040518163ffffffff1660e01b815260040160206040518083038186803b15801561049c57600080fd5b505afa1580156104b0573d6000803e3d6000fd5b505050506040513d60208110156104c657600080fd5b50516001600160a01b031633145b806105605750600160009054906101000a90046001600160a01b03166001600160a01b0316635aa6e6756040518163ffffffff1660e01b815260040160206040518083038186803b15801561052857600080fd5b505afa15801561053c573d6000803e3d6000fd5b505050506040513d602081101561055257600080fd5b50516001600160a01b031633145b61059f576040805162461bcd60e51b815260206004820152600b60248201526a08585d5d1a1bdc9a5e995960aa1b604482015290519081900360640190fd5b6000546105e8906001600160a01b03166105b76116ce565b6001600160a01b037f0000000000000000000000000000000000000000000000000000000000000000169190611af6565b565b7f000000000000000000000000000000000000000000000000000000000000000081565b6000546001600160a01b03163314806106a85750600160009054906101000a90046001600160a01b03166001600160a01b0316631fe4a6866040518163ffffffff1660e01b815260040160206040518083038186803b15801561067057600080fd5b505afa158015610684573d6000803e3d6000fd5b505050506040513d602081101561069a57600080fd5b50516001600160a01b031633145b806107345750600160009054906101000a90046001600160a01b03166001600160a01b0316635aa6e6756040518163ffffffff1660e01b815260040160206040518083038186803b1580156106fc57600080fd5b505afa158015610710573d6000803e3d6000fd5b505050506040513d602081101561072657600080fd5b50516001600160a01b031633145b610773576040805162461bcd60e51b815260206004820152600b60248201526a08585d5d1a1bdc9a5e995960aa1b604482015290519081900360640190fd5b600061077d6116ce565b9050818110156107a8576107996107948383611b48565b611b93565b91506107a58282611cb6565b91505b60006107b2611d10565b6000805460408051632988bb9f60e21b81526001600160a01b0380861660048301529151949550929391169163a622ee7c916024808301926020929190829003018186803b15801561080357600080fd5b505afa158015610817573d6000803e3d6000fd5b505050506040513d602081101561082d57600080fd5b505190506001600160a01b038116610875576040805162461bcd60e51b8152602060048201526006602482015265085d985d5b1d60d21b604482015290519081900360640190fd5b6108896001600160a01b0383168286611af6565b50505050565b7f000000000000000000000000000000000000000000000000000000000000000081565b7f000000000000000000000000000000000000000000000000000000000000000081565b7f000000000000000000000000000000000000000000000000000000000000000081565b6000546001600160a01b03163314806109955750600160009054906101000a90046001600160a01b03166001600160a01b0316631fe4a6866040518163ffffffff1660e01b815260040160206040518083038186803b15801561095d57600080fd5b505afa158015610971573d6000803e3d6000fd5b505050506040513d602081101561098757600080fd5b50516001600160a01b031633145b80610a215750600160009054906101000a90046001600160a01b03166001600160a01b0316635aa6e6756040518163ffffffff1660e01b815260040160206040518083038186803b1580156109e957600080fd5b505afa1580156109fd573d6000803e3d6000fd5b505050506040513d6020811015610a1357600080fd5b50516001600160a01b031633145b610a60576040805162461bcd60e51b815260206004820152600b60248201526a08585d5d1a1bdc9a5e995960aa1b604482015290519081900360640190fd5b6105e8611d71565b6040805160038082526080820190925260009182916060916020820183803683370190505090507f00000000000000000000000000000000000000000000000000000000000000006001600160a01b0316634903b0d160006040518263ffffffff1660e01b81526004018082815260200191505060206040518083038186803b158015610af457600080fd5b505afa158015610b08573d6000803e3d6000fd5b505050506040513d6020811015610b1e57600080fd5b505181518290600090610b2d57fe5b602002602001018181525050610bd964e8d4a510007f00000000000000000000000000000000000000000000000000000000000000006001600160a01b0316634903b0d160016040518263ffffffff1660e01b81526004018082815260200191505060206040518083038186803b158015610ba757600080fd5b505afa158015610bbb573d6000803e3d6000fd5b505050506040513d6020811015610bd157600080fd5b505190611e08565b81600181518110610be657fe5b602002602001018181525050610c6064e8d4a510007f00000000000000000000000000000000000000000000000000000000000000006001600160a01b0316634903b0d160026040518263ffffffff1660e01b81526004018082815260200191505060206040518083038186803b158015610ba757600080fd5b81600281518110610c6d57fe5b60200260200101818152505080600181518110610c8657fe5b602002602001015181600081518110610c9b57fe5b6020026020010151108015610cd7575080600281518110610cb857fe5b602002602001015181600081518110610ccd57fe5b6020026020010151105b15610d09577f000000000000000000000000000000000000000000000000000000000000000060009250925050610e52565b80600081518110610d1657fe5b602002602001015181600181518110610d2b57fe5b6020026020010151108015610d67575080600281518110610d4857fe5b602002602001015181600181518110610d5d57fe5b6020026020010151105b15610d99577f000000000000000000000000000000000000000000000000000000000000000060019250925050610e52565b80600081518110610da657fe5b602002602001015181600281518110610dbb57fe5b6020026020010151108015610df7575080600181518110610dd857fe5b602002602001015181600281518110610ded57fe5b6020026020010151105b15610e29577f000000000000000000000000000000000000000000000000000000000000000060029250925050610e52565b7f0000000000000000000000000000000000000000000000000000000000000000600092509250505b9091565b6000546001600160a01b0316331480610ef05750600160009054906101000a90046001600160a01b03166001600160a01b0316631fe4a6866040518163ffffffff1660e01b815260040160206040518083038186803b158015610eb857600080fd5b505afa158015610ecc573d6000803e3d6000fd5b505050506040513d6020811015610ee257600080fd5b50516001600160a01b031633145b80610f7c5750600160009054906101000a90046001600160a01b03166001600160a01b0316635aa6e6756040518163ffffffff1660e01b815260040160206040518083038186803b158015610f4457600080fd5b505afa158015610f58573d6000803e3d6000fd5b505050506040513d6020811015610f6e57600080fd5b50516001600160a01b031633145b610fbb576040805162461bcd60e51b815260206004820152600b60248201526a08585d5d1a1bdc9a5e995960aa1b604482015290519081900360640190fd5b806001600160a01b03167f00000000000000000000000000000000000000000000000000000000000000006001600160a01b0316141561102b576040805162461bcd60e51b815260206004808301919091526024820152631dd85b9d60e21b604482015290519081900360640190fd5b604080516370a0823160e01b8152306004820152905182916000916001600160a01b038416916370a08231916024808301926020929190829003018186803b15801561107657600080fd5b505afa15801561108a573d6000803e3d6000fd5b505050506040513d60208110156110a057600080fd5b50516000549091506110bf906001600160a01b03848116911683611af6565b505050565b7f000000000000000000000000000000000000000000000000000000000000000081565b7f000000000000000000000000000000000000000000000000000000000000000081565b600061112761111961039a565b6111216116ce565b90611cb6565b905090565b600080546001600160a01b03163314806111c75750600160009054906101000a90046001600160a01b03166001600160a01b0316631fe4a6866040518163ffffffff1660e01b815260040160206040518083038186803b15801561118f57600080fd5b505afa1580156111a3573d6000803e3d6000fd5b505050506040513d60208110156111b957600080fd5b50516001600160a01b031633145b806112535750600160009054906101000a90046001600160a01b03166001600160a01b0316635aa6e6756040518163ffffffff1660e01b815260040160206040518083038186803b15801561121b57600080fd5b505afa15801561122f573d6000803e3d6000fd5b505050506040513d602081101561124557600080fd5b50516001600160a01b031633145b611292576040805162461bcd60e51b815260206004820152600b60248201526a08585d5d1a1bdc9a5e995960aa1b604482015290519081900360640190fd5b61129a611e61565b60006112a4611d10565b9050806001600160a01b03166370a08231306040518263ffffffff1660e01b815260040180826001600160a01b0316815260200191505060206040518083038186803b1580156112f357600080fd5b505afa158015611307573d6000803e3d6000fd5b505050506040513d602081101561131d57600080fd5b50516000805460408051632988bb9f60e21b81526001600160a01b0386811660048301529151949650929391169163a622ee7c916024808301926020929190829003018186803b15801561137057600080fd5b505afa158015611384573d6000803e3d6000fd5b505050506040513d602081101561139a57600080fd5b505190506001600160a01b0381166113e2576040805162461bcd60e51b8152602060048201526006602482015265085d985d5b1d60d21b604482015290519081900360640190fd5b6113f66001600160a01b0383168285611af6565b505090565b6001546001600160a01b031681565b600160009054906101000a90046001600160a01b03166001600160a01b0316635aa6e6756040518163ffffffff1660e01b815260040160206040518083038186803b15801561145857600080fd5b505afa15801561146c573d6000803e3d6000fd5b505050506040513d602081101561148257600080fd5b50516001600160a01b031633146114ce576040805162461bcd60e51b815260206004820152600b60248201526a21676f7665726e616e636560a81b604482015290519081900360640190fd5b600080546001600160a01b0319166001600160a01b0392909216919091179055565b7f000000000000000000000000000000000000000000000000000000000000000081565b60007f00000000000000000000000000000000000000000000000000000000000000006001600160a01b03166333134583306040518263ffffffff1660e01b815260040180826001600160a01b0316815260200191505060206040518083038186803b15801561040957600080fd5b600160009054906101000a90046001600160a01b03166001600160a01b0316635aa6e6756040518163ffffffff1660e01b815260040160206040518083038186803b1580156115d157600080fd5b505afa1580156115e5573d6000803e3d6000fd5b505050506040513d60208110156115fb57600080fd5b50516001600160a01b03163314611647576040805162461bcd60e51b815260206004820152600b60248201526a21676f7665726e616e636560a81b604482015290519081900360640190fd5b600280546001600160a01b0319166001600160a01b0383811691909117909155611695907f0000000000000000000000000000000000000000000000000000000000000000168260006119ca565b6116cb6001600160a01b037f000000000000000000000000000000000000000000000000000000000000000016826000196119ca565b50565b60007f00000000000000000000000000000000000000000000000000000000000000006001600160a01b03166370a08231306040518263ffffffff1660e01b815260040180826001600160a01b0316815260200191505060206040518083038186803b15801561040957600080fd5b6000546001600160a01b03163314806117d75750600160009054906101000a90046001600160a01b03166001600160a01b0316631fe4a6866040518163ffffffff1660e01b815260040160206040518083038186803b15801561179f57600080fd5b505afa1580156117b3573d6000803e3d6000fd5b505050506040513d60208110156117c957600080fd5b50516001600160a01b031633145b806118635750600160009054906101000a90046001600160a01b03166001600160a01b0316635aa6e6756040518163ffffffff1660e01b815260040160206040518083038186803b15801561182b57600080fd5b505afa15801561183f573d6000803e3d6000fd5b505050506040513d602081101561185557600080fd5b50516001600160a01b031633145b6118a2576040805162461bcd60e51b815260206004820152600b60248201526a08585d5d1a1bdc9a5e995960aa1b604482015290519081900360640190fd5b6105e8611f07565b61271081565b600160009054906101000a90046001600160a01b03166001600160a01b0316635aa6e6756040518163ffffffff1660e01b815260040160206040518083038186803b1580156118fe57600080fd5b505afa158015611912573d6000803e3d6000fd5b505050506040513d602081101561192857600080fd5b50516001600160a01b03163314611974576040805162461bcd60e51b815260206004820152600b60248201526a21676f7665726e616e636560a81b604482015290519081900360640190fd5b6110bf6001600160a01b03841683836119ca565b7f000000000000000000000000000000000000000000000000000000000000000081565b6000546001600160a01b031681565b6002546001600160a01b031681565b801580611a50575060408051636eb1769f60e11b81523060048201526001600160a01b03848116602483015291519185169163dd62ed3e91604480820192602092909190829003018186803b158015611a2257600080fd5b505afa158015611a36573d6000803e3d6000fd5b505050506040513d6020811015611a4c57600080fd5b5051155b611a8b5760405162461bcd60e51b8152600401808060200182810382526036815260200180612d6a6036913960400191505060405180910390fd5b604080516001600160a01b038416602482015260448082018490528251808303909101815260649091019091526020810180516001600160e01b031663095ea7b360e01b1790526110bf908490611f9a565b6060611aec848460008561204b565b90505b9392505050565b604080516001600160a01b038416602482015260448082018490528251808303909101815260649091019091526020810180516001600160e01b031663a9059cbb60e01b1790526110bf908490611f9a565b6000611b8a83836040518060400160405280601e81526020017f536166654d6174683a207375627472616374696f6e206f766572666c6f7700008152506121a7565b90505b92915050565b600080611b9e611d10565b90506000816001600160a01b03166370a08231306040518263ffffffff1660e01b815260040180826001600160a01b0316815260200191505060206040518083038186803b158015611bef57600080fd5b505afa158015611c03573d6000803e3d6000fd5b505050506040513d6020811015611c1957600080fd5b50519050611c268461223e565b6000826001600160a01b03166370a08231306040518263ffffffff1660e01b815260040180826001600160a01b0316815260200191505060206040518083038186803b158015611c7557600080fd5b505afa158015611c89573d6000803e3d6000fd5b505050506040513d6020811015611c9f57600080fd5b50519050611cad8183611b48565b95945050505050565b600082820183811015611b8a576040805162461bcd60e51b815260206004820152601b60248201527f536166654d6174683a206164646974696f6e206f766572666c6f770000000000604482015290519081900360640190fd5b60008054604080516364f5005760e01b815230600482015290516001600160a01b03909216916364f500579160248082019260209290919082900301818787803b158015611d5d57600080fd5b505af115801561041d573d6000803e3d6000fd5b611d796122a4565b6000611da47f0000000000000000000000000000000000000000000000000000000000000000612347565b905080156116cb576000611db6610a68565b509050611de47f00000000000000000000000000000000000000000000000000000000000000008284612829565b611dec61296c565b6000611df66116ce565b1115611e0457611e04611f07565b5050565b600082611e1757506000611b8d565b82820282848281611e2457fe5b0414611b8a5760405162461bcd60e51b8152600401808060200182810382526021815260200180612d1f6021913960400191505060405180910390fd5b60007f00000000000000000000000000000000000000000000000000000000000000006001600160a01b03166370a08231306040518263ffffffff1660e01b815260040180826001600160a01b0316815260200191505060206040518083038186803b158015611ed057600080fd5b505afa158015611ee4573d6000803e3d6000fd5b505050506040513d6020811015611efa57600080fd5b505190506116cb8161223e565b6000611f116116ce565b905080156116cb577f00000000000000000000000000000000000000000000000000000000000000006001600160a01b031663b6b55f25826040518263ffffffff1660e01b815260040180828152602001915050600060405180830381600087803b158015611f7f57600080fd5b505af1158015611f93573d6000803e3d6000fd5b5050505050565b6060611fef826040518060400160405280602081526020017f5361666545524332303a206c6f772d6c6576656c2063616c6c206661696c6564815250856001600160a01b0316611add9092919063ffffffff16565b8051909150156110bf5780806020019051602081101561200e57600080fd5b50516110bf5760405162461bcd60e51b815260040180806020018281038252602a815260200180612d40602a913960400191505060405180910390fd5b60608247101561208c5760405162461bcd60e51b8152600401808060200182810382526026815260200180612cf96026913960400191505060405180910390fd5b61209585612bcc565b6120e6576040805162461bcd60e51b815260206004820152601d60248201527f416464726573733a2063616c6c20746f206e6f6e2d636f6e7472616374000000604482015290519081900360640190fd5b60006060866001600160a01b031685876040518082805190602001908083835b602083106121255780518252601f199092019160209182019101612106565b6001836020036101000a03801982511681845116808217855250505050505090500191505060006040518083038185875af1925050503d8060008114612187576040519150601f19603f3d011682016040523d82523d6000602084013e61218c565b606091505b509150915061219c828286612bd2565b979650505050505050565b600081848411156122365760405162461bcd60e51b81526004018080602001828103825283818151815260200191508051906020019080838360005b838110156121fb5781810151838201526020016121e3565b50505050905090810190601f1680156122285780820380516001836020036101000a031916815260200191505b509250505060405180910390fd5b505050900390565b7f00000000000000000000000000000000000000000000000000000000000000006001600160a01b0316632e1a7d4d826040518263ffffffff1660e01b815260040180828152602001915050600060405180830381600087803b158015611f7f57600080fd5b7f00000000000000000000000000000000000000000000000000000000000000006001600160a01b0316636a6278427f00000000000000000000000000000000000000000000000000000000000000006040518263ffffffff1660e01b815260040180826001600160a01b03168152602001915050600060405180830381600087803b15801561233357600080fd5b505af1158015610889573d6000803e3d6000fd5b600080826001600160a01b03166370a08231306040518263ffffffff1660e01b815260040180826001600160a01b0316815260200191505060206040518083038186803b15801561239757600080fd5b505afa1580156123ab573d6000803e3d6000fd5b505050506040513d60208110156123c157600080fd5b505190506123f0837f000000000000000000000000000000000000000000000000000000000000000083612829565b604080516370a0823160e01b815230600482015290516001600160a01b037f000000000000000000000000000000000000000000000000000000000000000016916370a08231916024808301926020929190829003018186803b15801561245657600080fd5b505afa15801561246a573d6000803e3d6000fd5b505050506040513d602081101561248057600080fd5b505191508115612823576000806000806000806000600160009054906101000a90046001600160a01b03166001600160a01b031663da633d316040518163ffffffff1660e01b815260040160e06040518083038186803b1580156124e357600080fd5b505afa1580156124f7573d6000803e3d6000fd5b505050506040513d60e081101561250d57600080fd5b508051602082015160408301516060840151608085015160a086015160c090960151949c50929a509098509650945090925090506000851580159061255a57506001600160a01b03871615155b156126305761257561271061256f8c89611e08565b90612c38565b90506125a27f00000000000000000000000000000000000000000000000000000000000000008983612829565b61263087896001600160a01b03166370a08231306040518263ffffffff1660e01b815260040180826001600160a01b0316815260200191505060206040518083038186803b1580156125f357600080fd5b505afa158015612607573d6000803e3d6000fd5b505050506040513d602081101561261d57600080fd5b50516001600160a01b038b169190611af6565b60008411801561264857506001600160a01b03851615155b156126db5761265d61271061256f8c87611e08565b905061268a7f00000000000000000000000000000000000000000000000000000000000000008983612829565b6126db85896001600160a01b03166370a08231306040518263ffffffff1660e01b815260040180826001600160a01b0316815260200191505060206040518083038186803b1580156125f357600080fd5b6000821180156126f357506001600160a01b03831615155b156127865761270861271061256f8c85611e08565b90506127357f00000000000000000000000000000000000000000000000000000000000000008983612829565b61278683896001600160a01b03166370a08231306040518263ffffffff1660e01b815260040180826001600160a01b0316815260200191505060206040518083038186803b1580156125f357600080fd5b604080516370a0823160e01b815230600482015290516001600160a01b037f000000000000000000000000000000000000000000000000000000000000000016916370a08231916024808301926020929190829003018186803b1580156127ec57600080fd5b505afa158015612800573d6000803e3d6000fd5b505050506040513d602081101561281657600080fd5b5051995050505050505050505b50919050565b6040805160028082526060808301845292602083019080368337019050509050838160008151811061285757fe5b60200260200101906001600160a01b031690816001600160a01b031681525050828160018151811061288557fe5b6001600160a01b039283166020918202929092010152600254166338ed173983600184306128b542610708611cb6565b6040518663ffffffff1660e01b81526004018086815260200185815260200180602001846001600160a01b03168152602001838152602001828103825285818151815260200191508051906020019060200280838360005b8381101561292557818101518382015260200161290d565b505050509050019650505050505050600060405180830381600087803b15801561294e57600080fd5b505af1158015612962573d6000803e3d6000fd5b5050505050505050565b612974612cda565b604080516370a0823160e01b815230600482015290516001600160a01b037f000000000000000000000000000000000000000000000000000000000000000016916370a08231916024808301926020929190829003018186803b1580156129da57600080fd5b505afa1580156129ee573d6000803e3d6000fd5b505050506040513d6020811015612a0457600080fd5b50518152604080516370a0823160e01b815230600482015290516001600160a01b037f000000000000000000000000000000000000000000000000000000000000000016916370a08231916024808301926020929190829003018186803b158015612a6e57600080fd5b505afa158015612a82573d6000803e3d6000fd5b505050506040513d6020811015612a9857600080fd5b5051602080830191909152604080516370a0823160e01b815230600482015290516001600160a01b037f000000000000000000000000000000000000000000000000000000000000000016926370a082319260248082019391829003018186803b158015612b0557600080fd5b505afa158015612b19573d6000803e3d6000fd5b505050506040513d6020811015612b2f57600080fd5b50518160026020020152604051634515cef360e01b81526001600160a01b037f00000000000000000000000000000000000000000000000000000000000000001690634515cef39083906001906004018083606080838360005b83811015612ba1578181015183820152602001612b89565b5050505090500182815260200192505050600060405180830381600087803b158015611f7f57600080fd5b3b151590565b60608315612be1575081611aef565b825115612bf15782518084602001fd5b60405162461bcd60e51b81526020600482018181528451602484015284518593919283926044019190850190808383600083156121fb5781810151838201526020016121e3565b6000611b8a83836040518060400160405280601a81526020017f536166654d6174683a206469766973696f6e206279207a65726f00000000000081525060008183612cc45760405162461bcd60e51b81526020600482018181528351602484015283519092839260449091019190850190808383600083156121fb5781810151838201526020016121e3565b506000838581612cd057fe5b0495945050505050565b6040518060600160405280600390602082028036833750919291505056fe416464726573733a20696e73756666696369656e742062616c616e636520666f722063616c6c536166654d6174683a206d756c7469706c69636174696f6e206f766572666c6f775361666545524332303a204552433230206f7065726174696f6e20646964206e6f7420737563636565645361666545524332303a20617070726f76652066726f6d206e6f6e2d7a65726f20746f206e6f6e2d7a65726f20616c6c6f77616e6365a2646970667358221220b3105c292dee66232c30ef537d4d1fd0d714d4872fd3be65319606356bc6cdbb64736f6c634300060c0033416464726573733a20696e73756666696369656e742062616c616e636520666f722063616c6c5361666545524332303a204552433230206f7065726174696f6e20646964206e6f7420737563636565645361666545524332303a20617070726f76652066726f6d206e6f6e2d7a65726f20746f206e6f6e2d7a65726f20616c6c6f77616e6365",
  "devdoc": {
    "kind": "dev",
    "methods": {
      "approveForSpender(address,address,uint256)": {
        "params": {
          "_amount": "The amount to spend",
          "_spender": "The address of the spender",
          "_token": "The address of the token"
        }
      },
      "balanceOfPool()": {
        "details": "Must be implemented by the strategy"
      },
      "setController(address)": {
        "params": {
          "_controller": "The address of the controller"
        }
      },
      "setRouter(address)": {
        "params": {
          "_router": "The address of the router"
        }
      },
      "withdraw(address)": {
        "params": {
          "_asset": "The address of the token to withdraw"
        }
      },
      "withdraw(uint256)": {
        "params": {
          "_amount": "The amount of the want token to withdraw"
        }
      }
    },
    "version": 1
  },
  "userdoc": {
    "kind": "user",
    "methods": {
      "approveForSpender(address,address,uint256)": {
        "notice": "Approves a token address to be spent by an address"
      },
      "balanceOf()": {
        "notice": "Returns the strategy's balance of the want token plus the balance of pool"
      },
      "balanceOfPool()": {
        "notice": "Returns the balance of the pool"
      },
      "balanceOfWant()": {
        "notice": "Returns the balance of the want token on the strategy"
      },
      "deposit()": {
        "notice": "Deposits funds to the strategy's pool"
      },
      "harvest()": {
        "notice": "Harvest funds in the strategy's pool"
      },
      "setController(address)": {
        "notice": "Sets the address of the controller"
      },
      "setRouter(address)": {
        "notice": "Sets the address of the ISwap-compatible router"
      },
      "skim()": {
        "notice": "Sends stuck want tokens in the strategy to the controller"
      },
      "withdraw(address)": {
        "notice": "Sends stuck tokens in the strategy to the controller"
      },
      "withdraw(uint256)": {
        "notice": "Initiated from a vault, withdraws funds from the pool"
      },
      "withdrawAll()": {
        "notice": "Withdraws all funds from the strategy"
      }
    },
    "version": 1
  },
  "storageLayout": {
    "storage": [
      {
        "astId": 6798,
        "contract": "contracts/metavault/strategies/StrategyCurve3Crv.sol:StrategyCurve3Crv",
        "label": "controller",
        "offset": 0,
        "slot": "0",
        "type": "t_address"
      },
      {
        "astId": 6800,
        "contract": "contracts/metavault/strategies/StrategyCurve3Crv.sol:StrategyCurve3Crv",
        "label": "vaultManager",
        "offset": 0,
        "slot": "1",
        "type": "t_contract(IVaultManager)2082"
      },
      {
        "astId": 6802,
        "contract": "contracts/metavault/strategies/StrategyCurve3Crv.sol:StrategyCurve3Crv",
        "label": "router",
        "offset": 0,
        "slot": "2",
        "type": "t_contract(ISwap)1983"
      }
    ],
    "types": {
      "t_address": {
        "encoding": "inplace",
        "label": "address",
        "numberOfBytes": "20"
      },
      "t_contract(ISwap)1983": {
        "encoding": "inplace",
        "label": "contract ISwap",
        "numberOfBytes": "20"
      },
      "t_contract(IVaultManager)2082": {
        "encoding": "inplace",
        "label": "contract IVaultManager",
        "numberOfBytes": "20"
      }
    }
  }
}