{
  "address": "0x4D55b12D0ADbC9f5D83Ff4a4B5572A8C4801dA6a",
  "abi": [
    {
      "inputs": [
        {
          "internalType": "address",
          "name": "_want",
          "type": "address"
        },
        {
          "internalType": "address",
          "name": "_p3crv",
          "type": "address"
        },
        {
          "internalType": "address",
          "name": "_pickle",
          "type": "address"
        },
        {
          "internalType": "address",
          "name": "_weth",
          "type": "address"
        },
        {
          "internalType": "address",
          "name": "_dai",
          "type": "address"
        },
        {
          "internalType": "address",
          "name": "_usdc",
          "type": "address"
        },
        {
          "internalType": "address",
          "name": "_usdt",
          "type": "address"
        },
        {
          "internalType": "address",
          "name": "_stableForAddLiquidity",
          "type": "address"
        },
        {
          "internalType": "contract PickleMasterChef",
          "name": "_pickleMasterChef",
          "type": "address"
        },
        {
          "internalType": "contract IStableSwap3Pool",
          "name": "_stableSwap3Pool",
          "type": "address"
        },
        {
          "internalType": "address",
          "name": "_controller",
          "type": "address"
        },
        {
          "internalType": "address",
          "name": "_vaultManager",
          "type": "address"
        },
        {
          "internalType": "address",
          "name": "_router",
          "type": "address"
        }
      ],
      "stateMutability": "nonpayable",
      "type": "constructor"
    },
    {
      "inputs": [],
      "name": "ONE_HUNDRED_PERCENT",
      "outputs": [
        {
          "internalType": "uint256",
          "name": "",
          "type": "uint256"
        }
      ],
      "stateMutability": "view",
      "type": "function"
    },
    {
      "inputs": [
        {
          "internalType": "contract IERC20",
          "name": "_token",
          "type": "address"
        },
        {
          "internalType": "address",
          "name": "_spender",
          "type": "address"
        },
        {
          "internalType": "uint256",
          "name": "_amount",
          "type": "uint256"
        }
      ],
      "name": "approveForSpender",
      "outputs": [],
      "stateMutability": "nonpayable",
      "type": "function"
    },
    {
      "inputs": [],
      "name": "balanceOf",
      "outputs": [
        {
          "internalType": "uint256",
          "name": "",
          "type": "uint256"
        }
      ],
      "stateMutability": "view",
      "type": "function"
    },
    {
      "inputs": [],
      "name": "balanceOfPool",
      "outputs": [
        {
          "internalType": "uint256",
          "name": "",
          "type": "uint256"
        }
      ],
      "stateMutability": "view",
      "type": "function"
    },
    {
      "inputs": [],
      "name": "balanceOfWant",
      "outputs": [
        {
          "internalType": "uint256",
          "name": "",
          "type": "uint256"
        }
      ],
      "stateMutability": "view",
      "type": "function"
    },
    {
      "inputs": [],
      "name": "controller",
      "outputs": [
        {
          "internalType": "address",
          "name": "",
          "type": "address"
        }
      ],
      "stateMutability": "view",
      "type": "function"
    },
    {
      "inputs": [],
      "name": "dai",
      "outputs": [
        {
          "internalType": "address",
          "name": "",
          "type": "address"
        }
      ],
      "stateMutability": "view",
      "type": "function"
    },
    {
      "inputs": [],
      "name": "deposit",
      "outputs": [],
      "stateMutability": "nonpayable",
      "type": "function"
    },
    {
      "inputs": [],
      "name": "harvest",
      "outputs": [],
      "stateMutability": "nonpayable",
      "type": "function"
    },
    {
      "inputs": [],
      "name": "p3crv",
      "outputs": [
        {
          "internalType": "address",
          "name": "",
          "type": "address"
        }
      ],
      "stateMutability": "view",
      "type": "function"
    },
    {
      "inputs": [],
      "name": "pickle",
      "outputs": [
        {
          "internalType": "address",
          "name": "",
          "type": "address"
        }
      ],
      "stateMutability": "view",
      "type": "function"
    },
    {
      "inputs": [],
      "name": "pickleJar",
      "outputs": [
        {
          "internalType": "contract PickleJar",
          "name": "",
          "type": "address"
        }
      ],
      "stateMutability": "view",
      "type": "function"
    },
    {
      "inputs": [],
      "name": "pickleMasterChef",
      "outputs": [
        {
          "internalType": "contract PickleMasterChef",
          "name": "",
          "type": "address"
        }
      ],
      "stateMutability": "view",
      "type": "function"
    },
    {
      "inputs": [],
      "name": "poolId",
      "outputs": [
        {
          "internalType": "uint256",
          "name": "",
          "type": "uint256"
        }
      ],
      "stateMutability": "view",
      "type": "function"
    },
    {
      "inputs": [],
      "name": "router",
      "outputs": [
        {
          "internalType": "contract ISwap",
          "name": "",
          "type": "address"
        }
      ],
      "stateMutability": "view",
      "type": "function"
    },
    {
      "inputs": [
        {
          "internalType": "address",
          "name": "_controller",
          "type": "address"
        }
      ],
      "name": "setController",
      "outputs": [],
      "stateMutability": "nonpayable",
      "type": "function"
    },
    {
      "inputs": [
        {
          "internalType": "contract PickleMasterChef",
          "name": "_pickleMasterChef",
          "type": "address"
        }
      ],
      "name": "setPickleMasterChef",
      "outputs": [],
      "stateMutability": "nonpayable",
      "type": "function"
    },
    {
      "inputs": [
        {
          "internalType": "uint256",
          "name": "_poolId",
          "type": "uint256"
        }
      ],
      "name": "setPoolId",
      "outputs": [],
      "stateMutability": "nonpayable",
      "type": "function"
    },
    {
      "inputs": [
        {
          "internalType": "address",
          "name": "_router",
          "type": "address"
        }
      ],
      "name": "setRouter",
      "outputs": [],
      "stateMutability": "nonpayable",
      "type": "function"
    },
    {
      "inputs": [
        {
          "internalType": "address",
          "name": "_stableForAddLiquidity",
          "type": "address"
        }
      ],
      "name": "setStableForLiquidity",
      "outputs": [],
      "stateMutability": "nonpayable",
      "type": "function"
    },
    {
      "inputs": [],
      "name": "skim",
      "outputs": [],
      "stateMutability": "nonpayable",
      "type": "function"
    },
    {
      "inputs": [],
      "name": "stableForAddLiquidity",
      "outputs": [
        {
          "internalType": "address",
          "name": "",
          "type": "address"
        }
      ],
      "stateMutability": "view",
      "type": "function"
    },
    {
      "inputs": [],
      "name": "stableSwap3Pool",
      "outputs": [
        {
          "internalType": "contract IStableSwap3Pool",
          "name": "",
          "type": "address"
        }
      ],
      "stateMutability": "view",
      "type": "function"
    },
    {
      "inputs": [],
      "name": "usdc",
      "outputs": [
        {
          "internalType": "address",
          "name": "",
          "type": "address"
        }
      ],
      "stateMutability": "view",
      "type": "function"
    },
    {
      "inputs": [],
      "name": "usdt",
      "outputs": [
        {
          "internalType": "address",
          "name": "",
          "type": "address"
        }
      ],
      "stateMutability": "view",
      "type": "function"
    },
    {
      "inputs": [],
      "name": "vaultManager",
      "outputs": [
        {
          "internalType": "contract IVaultManager",
          "name": "",
          "type": "address"
        }
      ],
      "stateMutability": "view",
      "type": "function"
    },
    {
      "inputs": [],
      "name": "want",
      "outputs": [
        {
          "internalType": "address",
          "name": "",
          "type": "address"
        }
      ],
      "stateMutability": "view",
      "type": "function"
    },
    {
      "inputs": [],
      "name": "weth",
      "outputs": [
        {
          "internalType": "address",
          "name": "",
          "type": "address"
        }
      ],
      "stateMutability": "view",
      "type": "function"
    },
    {
      "inputs": [
        {
          "internalType": "uint256",
          "name": "_amount",
          "type": "uint256"
        }
      ],
      "name": "withdraw",
      "outputs": [],
      "stateMutability": "nonpayable",
      "type": "function"
    },
    {
      "inputs": [
        {
          "internalType": "address",
          "name": "_asset",
          "type": "address"
        }
      ],
      "name": "withdraw",
      "outputs": [],
      "stateMutability": "nonpayable",
      "type": "function"
    },
    {
      "inputs": [],
      "name": "withdrawAll",
      "outputs": [
        {
          "internalType": "uint256",
          "name": "_balance",
          "type": "uint256"
        }
      ],
      "stateMutability": "nonpayable",
      "type": "function"
    }
  ],
  "transactionHash": "0x04c837a3accc330cc3380376698ddf2b3b0e9fbc7afdc052d401131af006364d",
  "args": [
    "0xFe2517Ff8E95876EE29aD9f91Ee31fB5Bd1dc2a3",
    "0x13F4cc6C239aBaD03EbD2deAA6A7107E9c6c9BEB",
    "0xCe58c84B9061d91856816a6c6cE9691de567E95C",
    "0x38e966C6F5562D628e70560726A7B7bCD6D1EC8A",
    "0x59Dd2C19F322f7457C34C73023cC7dA1fde4063d",
    "0xAE0e8B59555d83f3A83DFB258E637CFfEba77D3A",
    "0x3631E53e320F072e53397Ab7717b4C4F90fd2183",
    "0x59Dd2C19F322f7457C34C73023cC7dA1fde4063d",
    "0x76f4A0CE3753F745e97e588F8423230B83f4a2F4",
    "0xE2C2a45850375c0A8B92b853fcd0a110463ed5Ab",
    "0xD3dB7ba937597A3fFAd1174bAed2955852FD5d6D",
    "0x15885dE7737B179968B216275b6531f3a668E4E9",
    "0x8D037Ea525f150BaD41D0caB990665fE944Cb2F7"
  ],
  "solcInputHash": "0dafef0f9d3baf21ab7d835401fdfdba",
  "bytecode": "0x610180604052600e6004553480156200001757600080fd5b5060405162003d0638038062003d0683398181016040526101a08110156200003e57600080fd5b810190808051906020019092919080519060200190929190805190602001909291908051906020019092919080519060200190929190805190602001909291908051906020019092919080519060200190929190805190602001909291908051906020019092919080519060200190929190805190602001909291908051906020019092919050505082828e8c84826001600160a01b03166080816001600160a01b031660601b81525050846000806101000a8154816001600160a01b0302191690836001600160a01b0316021790555083600160006101000a8154816001600160a01b0302191690836001600160a01b03160217905550816001600160a01b031660a0816001600160a01b031660601b8152505080600260006101000a8154816001600160a01b0302191690836001600160a01b03160217905550620001a181600019846001600160a01b03166200029f60201b62001c4f179092919060201c565b505050505060608c811b6001600160601b031990811660c08190528d831b821660e0528b831b8216610100528a831b8216610120529189901b1661014052600380546001600160a01b03199081166001600160a01b03898116919091179092556006805482168a841617905560058054909116878316179055610160919091526200023e908e168d6000196200029f602090811b62001c4f17901c565b62000265856000198e6001600160a01b03166200029f60201b62001c4f179092919060201c565b6200028c816000198d6001600160a01b03166200029f60201b62001c4f179092919060201c565b50505050505050505050505050620006b2565b80158062000329575060408051636eb1769f60e11b81523060048201526001600160a01b03848116602483015291519185169163dd62ed3e91604480820192602092909190829003018186803b158015620002f957600080fd5b505afa1580156200030e573d6000803e3d6000fd5b505050506040513d60208110156200032557600080fd5b5051155b620003665760405162461bcd60e51b815260040180806020018281038252603681526020018062003cd06036913960400191505060405180910390fd5b604080516001600160a01b038416602482015260448082018490528251808303909101815260649091019091526020810180516001600160e01b0390811663095ea7b360e01b17909152620003be918591620003c316565b505050565b60606200041f826040518060400160405280602081526020017f5361666545524332303a206c6f772d6c6576656c2063616c6c206661696c6564815250856001600160a01b03166200047f60201b62001d62179092919060201c565b805190915015620003be578080602001905160208110156200044057600080fd5b5051620003be5760405162461bcd60e51b815260040180806020018281038252602a81526020018062003ca6602a913960400191505060405180910390fd5b60606200049084846000856200049a565b90505b9392505050565b606082471015620004dd5760405162461bcd60e51b815260040180806020018281038252602681526020018062003c806026913960400191505060405180910390fd5b620004e88562000602565b6200053a576040805162461bcd60e51b815260206004820152601d60248201527f416464726573733a2063616c6c20746f206e6f6e2d636f6e7472616374000000604482015290519081900360640190fd5b60006060866001600160a01b031685876040518082805190602001908083835b602083106200057b5780518252601f1990920191602091820191016200055a565b6001836020036101000a03801982511681845116808217855250505050505090500191505060006040518083038185875af1925050503d8060008114620005df576040519150601f19603f3d011682016040523d82523d6000602084013e620005e4565b606091505b509092509050620005f782828662000608565b979650505050505050565b3b151590565b606083156200061957508162000493565b8251156200062a5782518084602001fd5b8160405162461bcd60e51b81526004018080602001828103825283818151815260200191508051906020019080838360005b83811015620006765781810151838201526020016200065c565b50505050905090810190601f168015620006a45780820380516001836020036101000a031916815260200191505b509250505060405180910390fd5b60805160601c60a05160601c60c05160601c60e05160601c6101005160601c6101205160601c6101405160601c6101605160601c6134d1620007af60003980610405528061054f52806117855280612217528061229f5280612735528061286652806129735280612a1a525080610a35528061327d525080610a5f52806131e2525080611c0f528061314e525080611beb52806120a05250806111c152806111f652806115115280612315525080610a83528061189152806118c652806120d55280612b8b5280612bd05280612d365280612e1e5280612ec95280612f6052508061076552806107905280610d8352806118f352506134d16000f3fe608060405234801561001057600080fd5b50600436106101e55760003560e01c8063853828b61161010f578063cb946c26116100a2578063f3887eee11610071578063f3887eee146103e0578063f4b9fa75146103e8578063f77c4791146103f0578063f887ea40146103f8576101e5565b8063cb946c2614610392578063d0e30db01461039a578063dd0081c7146103a2578063ef9e2379146103aa576101e5565b8063ac78012c116100de578063ac78012c1461033f578063aeb714f41461035c578063c0d7865514610364578063c1a3d44c1461038a576101e5565b8063853828b6146103015780638a4adf24146103095780638b3c99e41461031157806392eefe9b14610319576101e5565b80633fc8cef31161018757806370ea249c1161015657806370ea249c146102a5578063722713f7146102cb57806378d2d579146102d35780637e236c5e146102f9576101e5565b80633fc8cef3146102675780634641257d1461026f57806351cff8d9146102775780635a3874ac1461029d576101e5565b80632e1a7d4d116101c35780632e1a7d4d146102325780632f48ab7d1461024f5780633e0dc34e146102575780633e413bee1461025f576101e5565b806311588086146101ea5780631dd19cb4146102045780631f1fcd511461020e575b600080fd5b6101f2610400565b60408051918252519081900360200190f35b61020c6105de565b005b61021661078e565b604080516001600160a01b039092168252519081900360200190f35b61020c6004803603602081101561024857600080fd5b50356107b2565b610216610a33565b6101f2610a57565b610216610a5d565b610216610a81565b61020c610aa5565b61020c6004803603602081101561028d57600080fd5b50356001600160a01b0316610c12565b610216610e80565b61020c600480360360208110156102bb57600080fd5b50356001600160a01b0316610e8f565b6101f2611016565b61020c600480360360208110156102e957600080fd5b50356001600160a01b0316611036565b610216611222565b6101f2611231565b610216611500565b61021661150f565b61020c6004803603602081101561032f57600080fd5b50356001600160a01b0316611533565b61020c6004803603602081101561035557600080fd5b5035611619565b610216611783565b61020c6004803603602081101561037a57600080fd5b50356001600160a01b03166117a7565b6101f26118ef565b61021661198f565b61020c61199e565b6101f2611b0b565b61020c600480360360608110156103c057600080fd5b506001600160a01b03813581169160208101359091169060400135611b11565b610216611be9565b610216611c0d565b610216611c31565b610216611c40565b6000807f00000000000000000000000000000000000000000000000000000000000000006001600160a01b03166370a08231306040518263ffffffff1660e01b815260040180826001600160a01b0316815260200191505060206040518083038186803b15801561047057600080fd5b505afa158015610484573d6000803e3d6000fd5b505050506040513d602081101561049a57600080fd5b505160035460048054604080516393f1a40b60e01b81529283019190915230602483015280519394506000936001600160a01b03909316926393f1a40b926044808201939291829003018186803b1580156104f457600080fd5b505afa158015610508573d6000803e3d6000fd5b505050506040513d604081101561051e57600080fd5b50516040805163760f5ebd60e11b815290519192506105d791670de0b6b3a7640000916105d1916001600160a01b037f0000000000000000000000000000000000000000000000000000000000000000169163ec1ebd7a916004808301926020929190829003018186803b15801561059557600080fd5b505afa1580156105a9573d6000803e3d6000fd5b505050506040513d60208110156105bf57600080fd5b50516105cb8686611d7b565b90611dde565b90611e37565b9250505090565b6000546001600160a01b03163314806106785750600160009054906101000a90046001600160a01b03166001600160a01b0316631fe4a6866040518163ffffffff1660e01b815260040160206040518083038186803b15801561064057600080fd5b505afa158015610654573d6000803e3d6000fd5b505050506040513d602081101561066a57600080fd5b50516001600160a01b031633145b806107045750600160009054906101000a90046001600160a01b03166001600160a01b0316635aa6e6756040518163ffffffff1660e01b815260040160206040518083038186803b1580156106cc57600080fd5b505afa1580156106e0573d6000803e3d6000fd5b505050506040513d60208110156106f657600080fd5b50516001600160a01b031633145b610743576040805162461bcd60e51b815260206004820152600b60248201526a08585d5d1a1bdc9a5e995960aa1b604482015290519081900360640190fd5b60005461078c906001600160a01b031661075b6118ef565b6001600160a01b037f0000000000000000000000000000000000000000000000000000000000000000169190611e79565b565b7f000000000000000000000000000000000000000000000000000000000000000081565b6000546001600160a01b031633148061084c5750600160009054906101000a90046001600160a01b03166001600160a01b0316631fe4a6866040518163ffffffff1660e01b815260040160206040518083038186803b15801561081457600080fd5b505afa158015610828573d6000803e3d6000fd5b505050506040513d602081101561083e57600080fd5b50516001600160a01b031633145b806108d85750600160009054906101000a90046001600160a01b03166001600160a01b0316635aa6e6756040518163ffffffff1660e01b815260040160206040518083038186803b1580156108a057600080fd5b505afa1580156108b4573d6000803e3d6000fd5b505050506040513d60208110156108ca57600080fd5b50516001600160a01b031633145b610917576040805162461bcd60e51b815260206004820152600b60248201526a08585d5d1a1bdc9a5e995960aa1b604482015290519081900360640190fd5b60006109216118ef565b90508181101561094c5761093d6109388383611ecb565b611f0d565b91506109498282611d7b565b91505b6000610956612030565b6000805460408051632988bb9f60e21b81526001600160a01b0380861660048301529151949550929391169163a622ee7c916024808301926020929190829003018186803b1580156109a757600080fd5b505afa1580156109bb573d6000803e3d6000fd5b505050506040513d60208110156109d157600080fd5b505190506001600160a01b038116610a19576040805162461bcd60e51b8152602060048201526006602482015265085d985d5b1d60d21b604482015290519081900360640190fd5b610a2d6001600160a01b0383168286611e79565b50505050565b7f000000000000000000000000000000000000000000000000000000000000000081565b60045481565b7f000000000000000000000000000000000000000000000000000000000000000081565b7f000000000000000000000000000000000000000000000000000000000000000081565b6000546001600160a01b0316331480610b3f5750600160009054906101000a90046001600160a01b03166001600160a01b0316631fe4a6866040518163ffffffff1660e01b815260040160206040518083038186803b158015610b0757600080fd5b505afa158015610b1b573d6000803e3d6000fd5b505050506040513d6020811015610b3157600080fd5b50516001600160a01b031633145b80610bcb5750600160009054906101000a90046001600160a01b03166001600160a01b0316635aa6e6756040518163ffffffff1660e01b815260040160206040518083038186803b158015610b9357600080fd5b505afa158015610ba7573d6000803e3d6000fd5b505050506040513d6020811015610bbd57600080fd5b50516001600160a01b031633145b610c0a576040805162461bcd60e51b815260206004820152600b60248201526a08585d5d1a1bdc9a5e995960aa1b604482015290519081900360640190fd5b61078c612091565b6000546001600160a01b0316331480610cac5750600160009054906101000a90046001600160a01b03166001600160a01b0316631fe4a6866040518163ffffffff1660e01b815260040160206040518083038186803b158015610c7457600080fd5b505afa158015610c88573d6000803e3d6000fd5b505050506040513d6020811015610c9e57600080fd5b50516001600160a01b031633145b80610d385750600160009054906101000a90046001600160a01b03166001600160a01b0316635aa6e6756040518163ffffffff1660e01b815260040160206040518083038186803b158015610d0057600080fd5b505afa158015610d14573d6000803e3d6000fd5b505050506040513d6020811015610d2a57600080fd5b50516001600160a01b031633145b610d77576040805162461bcd60e51b815260206004820152600b60248201526a08585d5d1a1bdc9a5e995960aa1b604482015290519081900360640190fd5b806001600160a01b03167f00000000000000000000000000000000000000000000000000000000000000006001600160a01b03161415610de7576040805162461bcd60e51b815260206004808301919091526024820152631dd85b9d60e21b604482015290519081900360640190fd5b604080516370a0823160e01b8152306004820152905182916000916001600160a01b038416916370a08231916024808301926020929190829003018186803b158015610e3257600080fd5b505afa158015610e46573d6000803e3d6000fd5b505050506040513d6020811015610e5c57600080fd5b5051600054909150610e7b906001600160a01b03848116911683611e79565b505050565b6005546001600160a01b031681565b6000546001600160a01b0316331480610f295750600160009054906101000a90046001600160a01b03166001600160a01b0316631fe4a6866040518163ffffffff1660e01b815260040160206040518083038186803b158015610ef157600080fd5b505afa158015610f05573d6000803e3d6000fd5b505050506040513d6020811015610f1b57600080fd5b50516001600160a01b031633145b80610fb55750600160009054906101000a90046001600160a01b03166001600160a01b0316635aa6e6756040518163ffffffff1660e01b815260040160206040518083038186803b158015610f7d57600080fd5b505afa158015610f91573d6000803e3d6000fd5b505050506040513d6020811015610fa757600080fd5b50516001600160a01b031633145b610ff4576040805162461bcd60e51b815260206004820152600b60248201526a08585d5d1a1bdc9a5e995960aa1b604482015290519081900360640190fd5b600680546001600160a01b0319166001600160a01b0392909216919091179055565b6000611031611023610400565b61102b6118ef565b90611d7b565b905090565b6000546001600160a01b03163314806110d05750600160009054906101000a90046001600160a01b03166001600160a01b0316631fe4a6866040518163ffffffff1660e01b815260040160206040518083038186803b15801561109857600080fd5b505afa1580156110ac573d6000803e3d6000fd5b505050506040513d60208110156110c257600080fd5b50516001600160a01b031633145b8061115c5750600160009054906101000a90046001600160a01b03166001600160a01b0316635aa6e6756040518163ffffffff1660e01b815260040160206040518083038186803b15801561112457600080fd5b505afa158015611138573d6000803e3d6000fd5b505050506040513d602081101561114e57600080fd5b50516001600160a01b031633145b61119b576040805162461bcd60e51b815260206004820152600b60248201526a08585d5d1a1bdc9a5e995960aa1b604482015290519081900360640190fd5b600380546001600160a01b0319166001600160a01b03838116919091179091556111e9907f000000000000000000000000000000000000000000000000000000000000000016826000611c4f565b61121f6001600160a01b037f00000000000000000000000000000000000000000000000000000000000000001682600019611c4f565b50565b6003546001600160a01b031681565b600080546001600160a01b03163314806112cc5750600160009054906101000a90046001600160a01b03166001600160a01b0316631fe4a6866040518163ffffffff1660e01b815260040160206040518083038186803b15801561129457600080fd5b505afa1580156112a8573d6000803e3d6000fd5b505050506040513d60208110156112be57600080fd5b50516001600160a01b031633145b806113585750600160009054906101000a90046001600160a01b03166001600160a01b0316635aa6e6756040518163ffffffff1660e01b815260040160206040518083038186803b15801561132057600080fd5b505afa158015611334573d6000803e3d6000fd5b505050506040513d602081101561134a57600080fd5b50516001600160a01b031633145b611397576040805162461bcd60e51b815260206004820152600b60248201526a08585d5d1a1bdc9a5e995960aa1b604482015290519081900360640190fd5b61139f612124565b60006113a9612030565b9050806001600160a01b03166370a08231306040518263ffffffff1660e01b815260040180826001600160a01b0316815260200191505060206040518083038186803b1580156113f857600080fd5b505afa15801561140c573d6000803e3d6000fd5b505050506040513d602081101561142257600080fd5b50516000805460408051632988bb9f60e21b81526001600160a01b0386811660048301529151949650929391169163a622ee7c916024808301926020929190829003018186803b15801561147557600080fd5b505afa158015611489573d6000803e3d6000fd5b505050506040513d602081101561149f57600080fd5b505190506001600160a01b0381166114e7576040805162461bcd60e51b8152602060048201526006602482015265085d985d5b1d60d21b604482015290519081900360640190fd5b6114fb6001600160a01b0383168285611e79565b505090565b6001546001600160a01b031681565b7f000000000000000000000000000000000000000000000000000000000000000081565b600160009054906101000a90046001600160a01b03166001600160a01b0316635aa6e6756040518163ffffffff1660e01b815260040160206040518083038186803b15801561158157600080fd5b505afa158015611595573d6000803e3d6000fd5b505050506040513d60208110156115ab57600080fd5b50516001600160a01b031633146115f7576040805162461bcd60e51b815260206004820152600b60248201526a21676f7665726e616e636560a81b604482015290519081900360640190fd5b600080546001600160a01b0319166001600160a01b0392909216919091179055565b6000546001600160a01b03163314806116b35750600160009054906101000a90046001600160a01b03166001600160a01b0316631fe4a6866040518163ffffffff1660e01b815260040160206040518083038186803b15801561167b57600080fd5b505afa15801561168f573d6000803e3d6000fd5b505050506040513d60208110156116a557600080fd5b50516001600160a01b031633145b8061173f5750600160009054906101000a90046001600160a01b03166001600160a01b0316635aa6e6756040518163ffffffff1660e01b815260040160206040518083038186803b15801561170757600080fd5b505afa15801561171b573d6000803e3d6000fd5b505050506040513d602081101561173157600080fd5b50516001600160a01b031633145b61177e576040805162461bcd60e51b815260206004820152600b60248201526a08585d5d1a1bdc9a5e995960aa1b604482015290519081900360640190fd5b600455565b7f000000000000000000000000000000000000000000000000000000000000000081565b600160009054906101000a90046001600160a01b03166001600160a01b0316635aa6e6756040518163ffffffff1660e01b815260040160206040518083038186803b1580156117f557600080fd5b505afa158015611809573d6000803e3d6000fd5b505050506040513d602081101561181f57600080fd5b50516001600160a01b0316331461186b576040805162461bcd60e51b815260206004820152600b60248201526a21676f7665726e616e636560a81b604482015290519081900360640190fd5b600280546001600160a01b0319166001600160a01b03838116919091179091556118b9907f000000000000000000000000000000000000000000000000000000000000000016826000611c4f565b61121f6001600160a01b037f00000000000000000000000000000000000000000000000000000000000000001682600019611c4f565b60007f00000000000000000000000000000000000000000000000000000000000000006001600160a01b03166370a08231306040518263ffffffff1660e01b815260040180826001600160a01b0316815260200191505060206040518083038186803b15801561195e57600080fd5b505afa158015611972573d6000803e3d6000fd5b505050506040513d602081101561198857600080fd5b5051905090565b6006546001600160a01b031681565b6000546001600160a01b0316331480611a385750600160009054906101000a90046001600160a01b03166001600160a01b0316631fe4a6866040518163ffffffff1660e01b815260040160206040518083038186803b158015611a0057600080fd5b505afa158015611a14573d6000803e3d6000fd5b505050506040513d6020811015611a2a57600080fd5b50516001600160a01b031633145b80611ac45750600160009054906101000a90046001600160a01b03166001600160a01b0316635aa6e6756040518163ffffffff1660e01b815260040160206040518083038186803b158015611a8c57600080fd5b505afa158015611aa0573d6000803e3d6000fd5b505050506040513d6020811015611ab657600080fd5b50516001600160a01b031633145b611b03576040805162461bcd60e51b815260206004820152600b60248201526a08585d5d1a1bdc9a5e995960aa1b604482015290519081900360640190fd5b61078c61228b565b61271081565b600160009054906101000a90046001600160a01b03166001600160a01b0316635aa6e6756040518163ffffffff1660e01b815260040160206040518083038186803b158015611b5f57600080fd5b505afa158015611b73573d6000803e3d6000fd5b505050506040513d6020811015611b8957600080fd5b50516001600160a01b03163314611bd5576040805162461bcd60e51b815260206004820152600b60248201526a21676f7665726e616e636560a81b604482015290519081900360640190fd5b610e7b6001600160a01b0384168383611c4f565b7f000000000000000000000000000000000000000000000000000000000000000081565b7f000000000000000000000000000000000000000000000000000000000000000081565b6000546001600160a01b031681565b6002546001600160a01b031681565b801580611cd5575060408051636eb1769f60e11b81523060048201526001600160a01b03848116602483015291519185169163dd62ed3e91604480820192602092909190829003018186803b158015611ca757600080fd5b505afa158015611cbb573d6000803e3d6000fd5b505050506040513d6020811015611cd157600080fd5b5051155b611d105760405162461bcd60e51b81526004018080602001828103825260368152602001806134666036913960400191505060405180910390fd5b604080516001600160a01b038416602482015260448082018490528251808303909101815260649091019091526020810180516001600160e01b031663095ea7b360e01b179052610e7b908490612428565b6060611d7184846000856124d9565b90505b9392505050565b600082820183811015611dd5576040805162461bcd60e51b815260206004820152601b60248201527f536166654d6174683a206164646974696f6e206f766572666c6f770000000000604482015290519081900360640190fd5b90505b92915050565b600082611ded57506000611dd8565b82820282848281611dfa57fe5b0414611dd55760405162461bcd60e51b815260040180806020018281038252602181526020018061341b6021913960400191505060405180910390fd5b6000611dd583836040518060400160405280601a81526020017f536166654d6174683a206469766973696f6e206279207a65726f000000000000815250612635565b604080516001600160a01b038416602482015260448082018490528251808303909101815260649091019091526020810180516001600160e01b031663a9059cbb60e01b179052610e7b908490612428565b6000611dd583836040518060400160405280601e81526020017f536166654d6174683a207375627472616374696f6e206f766572666c6f7700008152506126d7565b600080611f18612030565b90506000816001600160a01b03166370a08231306040518263ffffffff1660e01b815260040180826001600160a01b0316815260200191505060206040518083038186803b158015611f6957600080fd5b505afa158015611f7d573d6000803e3d6000fd5b505050506040513d6020811015611f9357600080fd5b50519050611fa084612731565b6000826001600160a01b03166370a08231306040518263ffffffff1660e01b815260040180826001600160a01b0316815260200191505060206040518083038186803b158015611fef57600080fd5b505afa158015612003573d6000803e3d6000fd5b505050506040513d602081101561201957600080fd5b505190506120278183611ecb565b95945050505050565b60008054604080516364f5005760e01b815230600482015290516001600160a01b03909216916364f500579160248082019260209290919082900301818787803b15801561207d57600080fd5b505af1158015611972573d6000803e3d6000fd5b612099612a9d565b60006120c47f0000000000000000000000000000000000000000000000000000000000000000612b07565b9050801561121f57600654612104907f0000000000000000000000000000000000000000000000000000000000000000906001600160a01b031683612fe3565b61210c613126565b60006121166118ef565b111561121f5761121f61228b565b60035460048054604080516393f1a40b60e01b81529283019190915230602483015280516000936001600160a01b0316926393f1a40b926044808301939192829003018186803b15801561217757600080fd5b505afa15801561218b573d6000803e3d6000fd5b505050506040513d60408110156121a157600080fd5b50516003546004805460408051630441a3e760e41b81529283019190915260248201849052519293506001600160a01b039091169163441a3e709160448082019260009290919082900301818387803b1580156121fd57600080fd5b505af1158015612211573d6000803e3d6000fd5b505050507f00000000000000000000000000000000000000000000000000000000000000006001600160a01b031663853828b66040518163ffffffff1660e01b8152600401600060405180830381600087803b15801561227057600080fd5b505af1158015612284573d6000803e3d6000fd5b5050505050565b60006122956118ef565b90508015612311577f00000000000000000000000000000000000000000000000000000000000000006001600160a01b031663de5f62686040518163ffffffff1660e01b8152600401600060405180830381600087803b1580156122f857600080fd5b505af115801561230c573d6000803e3d6000fd5b505050505b60007f00000000000000000000000000000000000000000000000000000000000000006001600160a01b03166370a08231306040518263ffffffff1660e01b815260040180826001600160a01b0316815260200191505060206040518083038186803b15801561238057600080fd5b505afa158015612394573d6000803e3d6000fd5b505050506040513d60208110156123aa57600080fd5b505190508015612424576003546004805460408051631c57762b60e31b81529283019190915260248201849052516001600160a01b039092169163e2bbb1589160448082019260009290919082900301818387803b15801561240b57600080fd5b505af115801561241f573d6000803e3d6000fd5b505050505b5050565b606061247d826040518060400160405280602081526020017f5361666545524332303a206c6f772d6c6576656c2063616c6c206661696c6564815250856001600160a01b0316611d629092919063ffffffff16565b805190915015610e7b5780806020019051602081101561249c57600080fd5b5051610e7b5760405162461bcd60e51b815260040180806020018281038252602a81526020018061343c602a913960400191505060405180910390fd5b60608247101561251a5760405162461bcd60e51b81526004018080602001828103825260268152602001806133f56026913960400191505060405180910390fd5b6125238561336a565b612574576040805162461bcd60e51b815260206004820152601d60248201527f416464726573733a2063616c6c20746f206e6f6e2d636f6e7472616374000000604482015290519081900360640190fd5b60006060866001600160a01b031685876040518082805190602001908083835b602083106125b35780518252601f199092019160209182019101612594565b6001836020036101000a03801982511681845116808217855250505050505090500191505060006040518083038185875af1925050503d8060008114612615576040519150601f19603f3d011682016040523d82523d6000602084013e61261a565b606091505b509150915061262a828286613370565b979650505050505050565b600081836126c15760405162461bcd60e51b81526004018080602001828103825283818151815260200191508051906020019080838360005b8381101561268657818101518382015260200161266e565b50505050905090810190601f1680156126b35780820380516001836020036101000a031916815260200191505b509250505060405180910390fd5b5060008385816126cd57fe5b0495945050505050565b600081848411156127295760405162461bcd60e51b815260206004820181815283516024840152835190928392604490910191908501908083836000831561268657818101518382015260200161266e565b505050900390565b60007f00000000000000000000000000000000000000000000000000000000000000006001600160a01b031663ec1ebd7a6040518163ffffffff1660e01b815260040160206040518083038186803b15801561278c57600080fd5b505afa1580156127a0573d6000803e3d6000fd5b505050506040513d60208110156127b657600080fd5b505190506127d0816105d184670de0b6b3a7640000611dde565b60035460048054604080516393f1a40b60e01b81529283019190915230602483015280519395506000936001600160a01b03909316926393f1a40b926044808201939291829003018186803b15801561282857600080fd5b505afa15801561283c573d6000803e3d6000fd5b505050506040513d604081101561285257600080fd5b5051905080831115612862578092505b60007f00000000000000000000000000000000000000000000000000000000000000006001600160a01b03166370a08231306040518263ffffffff1660e01b815260040180826001600160a01b0316815260200191505060206040518083038186803b1580156128d157600080fd5b505afa1580156128e5573d6000803e3d6000fd5b505050506040513d60208110156128fb57600080fd5b50516003546004805460408051630441a3e760e41b81529283019190915260248201889052519293506001600160a01b039091169163441a3e709160448082019260009290919082900301818387803b15801561295757600080fd5b505af115801561296b573d6000803e3d6000fd5b5050505060007f00000000000000000000000000000000000000000000000000000000000000006001600160a01b03166370a08231306040518263ffffffff1660e01b815260040180826001600160a01b0316815260200191505060206040518083038186803b1580156129de57600080fd5b505afa1580156129f2573d6000803e3d6000fd5b505050506040513d6020811015612a0857600080fd5b50519050612a168183611ecb565b94507f00000000000000000000000000000000000000000000000000000000000000006001600160a01b0316632e1a7d4d866040518263ffffffff1660e01b815260040180828152602001915050600060405180830381600087803b158015612a7e57600080fd5b505af1158015612a92573d6000803e3d6000fd5b505050505050505050565b6003546004805460408051630441a3e760e41b81529283019190915260006024830181905290516001600160a01b039093169263441a3e7092604480820193929182900301818387803b158015612af357600080fd5b505af1158015610a2d573d6000803e3d6000fd5b600080826001600160a01b03166370a08231306040518263ffffffff1660e01b815260040180826001600160a01b0316815260200191505060206040518083038186803b158015612b5757600080fd5b505afa158015612b6b573d6000803e3d6000fd5b505050506040513d6020811015612b8157600080fd5b50519050612bb0837f000000000000000000000000000000000000000000000000000000000000000083612fe3565b604080516370a0823160e01b815230600482015290516001600160a01b037f000000000000000000000000000000000000000000000000000000000000000016916370a08231916024808301926020929190829003018186803b158015612c1657600080fd5b505afa158015612c2a573d6000803e3d6000fd5b505050506040513d6020811015612c4057600080fd5b505191508115612fdd576000806000806000806000600160009054906101000a90046001600160a01b03166001600160a01b031663da633d316040518163ffffffff1660e01b815260040160e06040518083038186803b158015612ca357600080fd5b505afa158015612cb7573d6000803e3d6000fd5b505050506040513d60e0811015612ccd57600080fd5b508051602082015160408301516060840151608085015160a086015160c090960151949c50929a5090985096509450909250905060008515801590612d1a57506001600160a01b03871615155b15612dea57612d2f6127106105d18c89611dde565b9050612d5c7f00000000000000000000000000000000000000000000000000000000000000008983612fe3565b612dea87896001600160a01b03166370a08231306040518263ffffffff1660e01b815260040180826001600160a01b0316815260200191505060206040518083038186803b158015612dad57600080fd5b505afa158015612dc1573d6000803e3d6000fd5b505050506040513d6020811015612dd757600080fd5b50516001600160a01b038b169190611e79565b600084118015612e0257506001600160a01b03851615155b15612e9557612e176127106105d18c87611dde565b9050612e447f00000000000000000000000000000000000000000000000000000000000000008983612fe3565b612e9585896001600160a01b03166370a08231306040518263ffffffff1660e01b815260040180826001600160a01b0316815260200191505060206040518083038186803b158015612dad57600080fd5b600082118015612ead57506001600160a01b03831615155b15612f4057612ec26127106105d18c85611dde565b9050612eef7f00000000000000000000000000000000000000000000000000000000000000008983612fe3565b612f4083896001600160a01b03166370a08231306040518263ffffffff1660e01b815260040180826001600160a01b0316815260200191505060206040518083038186803b158015612dad57600080fd5b604080516370a0823160e01b815230600482015290516001600160a01b037f000000000000000000000000000000000000000000000000000000000000000016916370a08231916024808301926020929190829003018186803b158015612fa657600080fd5b505afa158015612fba573d6000803e3d6000fd5b505050506040513d6020811015612fd057600080fd5b5051995050505050505050505b50919050565b6040805160028082526060808301845292602083019080368337019050509050838160008151811061301157fe5b60200260200101906001600160a01b031690816001600160a01b031681525050828160018151811061303f57fe5b6001600160a01b039283166020918202929092010152600254166338ed1739836001843061306f42610708611d7b565b6040518663ffffffff1660e01b81526004018086815260200185815260200180602001846001600160a01b03168152602001838152602001828103825285818151815260200191508051906020019060200280838360005b838110156130df5781810151838201526020016130c7565b505050509050019650505050505050600060405180830381600087803b15801561310857600080fd5b505af115801561311c573d6000803e3d6000fd5b5050505050505050565b61312e6133d6565b604080516370a0823160e01b815230600482015290516001600160a01b037f000000000000000000000000000000000000000000000000000000000000000016916370a08231916024808301926020929190829003018186803b15801561319457600080fd5b505afa1580156131a8573d6000803e3d6000fd5b505050506040513d60208110156131be57600080fd5b50518152604080516370a0823160e01b815230600482015290516001600160a01b037f000000000000000000000000000000000000000000000000000000000000000016916370a08231916024808301926020929190829003018186803b15801561322857600080fd5b505afa15801561323c573d6000803e3d6000fd5b505050506040513d602081101561325257600080fd5b5051602080830191909152604080516370a0823160e01b815230600482015290516001600160a01b037f000000000000000000000000000000000000000000000000000000000000000016926370a082319260248082019391829003018186803b1580156132bf57600080fd5b505afa1580156132d3573d6000803e3d6000fd5b505050506040513d60208110156132e957600080fd5b50518160026020020152600554604051634515cef360e01b81526001600160a01b0390911690634515cef39083906001906004018083606080838360005b8381101561333f578181015183820152602001613327565b5050505090500182815260200192505050600060405180830381600087803b15801561227057600080fd5b3b151590565b6060831561337f575081611d74565b82511561338f5782518084602001fd5b60405162461bcd60e51b815260206004820181815284516024840152845185939192839260440191908501908083836000831561268657818101518382015260200161266e565b6040518060600160405280600390602082028036833750919291505056fe416464726573733a20696e73756666696369656e742062616c616e636520666f722063616c6c536166654d6174683a206d756c7469706c69636174696f6e206f766572666c6f775361666545524332303a204552433230206f7065726174696f6e20646964206e6f7420737563636565645361666545524332303a20617070726f76652066726f6d206e6f6e2d7a65726f20746f206e6f6e2d7a65726f20616c6c6f77616e6365a264697066735822122008dc6165507b07d527d52f0c5e9b93ab6d957a99d733c3f63aa9d652d303689d64736f6c634300060c0033416464726573733a20696e73756666696369656e742062616c616e636520666f722063616c6c5361666545524332303a204552433230206f7065726174696f6e20646964206e6f7420737563636565645361666545524332303a20617070726f76652066726f6d206e6f6e2d7a65726f20746f206e6f6e2d7a65726f20616c6c6f77616e6365",
  "devdoc": {
    "kind": "dev",
    "methods": {
      "approveForSpender(address,address,uint256)": {
        "params": {
          "_amount": "The amount to spend",
          "_spender": "The address of the spender",
          "_token": "The address of the token"
        }
      },
      "balanceOfPool()": {
        "details": "Must be implemented by the strategy"
      },
      "setController(address)": {
        "params": {
          "_controller": "The address of the controller"
        }
      },
      "setRouter(address)": {
        "params": {
          "_router": "The address of the router"
        }
      },
      "withdraw(address)": {
        "params": {
          "_asset": "The address of the token to withdraw"
        }
      },
      "withdraw(uint256)": {
        "params": {
          "_amount": "The amount of the want token to withdraw"
        }
      }
    },
    "version": 1
  },
  "userdoc": {
    "kind": "user",
    "methods": {
      "approveForSpender(address,address,uint256)": {
        "notice": "Approves a token address to be spent by an address"
      },
      "balanceOf()": {
        "notice": "Returns the strategy's balance of the want token plus the balance of pool"
      },
      "balanceOfPool()": {
        "notice": "Returns the balance of the pool"
      },
      "balanceOfWant()": {
        "notice": "Returns the balance of the want token on the strategy"
      },
      "deposit()": {
        "notice": "Deposits funds to the strategy's pool"
      },
      "harvest()": {
        "notice": "Harvest funds in the strategy's pool"
      },
      "setController(address)": {
        "notice": "Sets the address of the controller"
      },
      "setRouter(address)": {
        "notice": "Sets the address of the ISwap-compatible router"
      },
      "skim()": {
        "notice": "Sends stuck want tokens in the strategy to the controller"
      },
      "withdraw(address)": {
        "notice": "Sends stuck tokens in the strategy to the controller"
      },
      "withdraw(uint256)": {
        "notice": "Initiated from a vault, withdraws funds from the pool"
      },
      "withdrawAll()": {
        "notice": "Withdraws all funds from the strategy"
      }
    },
    "version": 1
  },
  "storageLayout": {
    "storage": [
      {
        "astId": 6798,
        "contract": "contracts/metavault/strategies/StrategyPickle3Crv.sol:StrategyPickle3Crv",
        "label": "controller",
        "offset": 0,
        "slot": "0",
        "type": "t_address"
      },
      {
        "astId": 6800,
        "contract": "contracts/metavault/strategies/StrategyPickle3Crv.sol:StrategyPickle3Crv",
        "label": "vaultManager",
        "offset": 0,
        "slot": "1",
        "type": "t_contract(IVaultManager)2082"
      },
      {
        "astId": 6802,
        "contract": "contracts/metavault/strategies/StrategyPickle3Crv.sol:StrategyPickle3Crv",
        "label": "router",
        "offset": 0,
        "slot": "2",
        "type": "t_contract(ISwap)1983"
      },
      {
        "astId": 8513,
        "contract": "contracts/metavault/strategies/StrategyPickle3Crv.sol:StrategyPickle3Crv",
        "label": "pickleMasterChef",
        "offset": 0,
        "slot": "3",
        "type": "t_contract(PickleMasterChef)1500"
      },
      {
        "astId": 8516,
        "contract": "contracts/metavault/strategies/StrategyPickle3Crv.sol:StrategyPickle3Crv",
        "label": "poolId",
        "offset": 0,
        "slot": "4",
        "type": "t_uint256"
      },
      {
        "astId": 8518,
        "contract": "contracts/metavault/strategies/StrategyPickle3Crv.sol:StrategyPickle3Crv",
        "label": "stableSwap3Pool",
        "offset": 0,
        "slot": "5",
        "type": "t_contract(IStableSwap3Pool)1919"
      },
      {
        "astId": 8520,
        "contract": "contracts/metavault/strategies/StrategyPickle3Crv.sol:StrategyPickle3Crv",
        "label": "stableForAddLiquidity",
        "offset": 0,
        "slot": "6",
        "type": "t_address"
      }
    ],
    "types": {
      "t_address": {
        "encoding": "inplace",
        "label": "address",
        "numberOfBytes": "20"
      },
      "t_contract(IStableSwap3Pool)1919": {
        "encoding": "inplace",
        "label": "contract IStableSwap3Pool",
        "numberOfBytes": "20"
      },
      "t_contract(ISwap)1983": {
        "encoding": "inplace",
        "label": "contract ISwap",
        "numberOfBytes": "20"
      },
      "t_contract(IVaultManager)2082": {
        "encoding": "inplace",
        "label": "contract IVaultManager",
        "numberOfBytes": "20"
      },
      "t_contract(PickleMasterChef)1500": {
        "encoding": "inplace",
        "label": "contract PickleMasterChef",
        "numberOfBytes": "20"
      },
      "t_uint256": {
        "encoding": "inplace",
        "label": "uint256",
        "numberOfBytes": "32"
      }
    }
  }
}