{
  "address": "0xD3dB7ba937597A3fFAd1174bAed2955852FD5d6D",
  "abi": [
    {
      "inputs": [
        {
          "internalType": "address",
          "name": "_vaultManager",
          "type": "address"
        }
      ],
      "stateMutability": "nonpayable",
      "type": "constructor"
    },
    {
      "anonymous": false,
      "inputs": [
        {
          "indexed": true,
          "internalType": "address",
          "name": "strategy",
          "type": "address"
        }
      ],
      "name": "Earn",
      "type": "event"
    },
    {
      "anonymous": false,
      "inputs": [
        {
          "indexed": true,
          "internalType": "address",
          "name": "strategy",
          "type": "address"
        }
      ],
      "name": "Harvest",
      "type": "event"
    },
    {
      "anonymous": false,
      "inputs": [
        {
          "indexed": true,
          "internalType": "address",
          "name": "vault",
          "type": "address"
        }
      ],
      "name": "InsuranceClaimed",
      "type": "event"
    },
    {
      "anonymous": false,
      "inputs": [
        {
          "indexed": true,
          "internalType": "address",
          "name": "token",
          "type": "address"
        },
        {
          "indexed": true,
          "internalType": "address",
          "name": "strategy1",
          "type": "address"
        },
        {
          "indexed": true,
          "internalType": "address",
          "name": "strategy2",
          "type": "address"
        }
      ],
      "name": "StrategiesReordered",
      "type": "event"
    },
    {
      "anonymous": false,
      "inputs": [
        {
          "indexed": true,
          "internalType": "address",
          "name": "token",
          "type": "address"
        },
        {
          "indexed": true,
          "internalType": "address",
          "name": "strategy",
          "type": "address"
        },
        {
          "indexed": false,
          "internalType": "uint256",
          "name": "cap",
          "type": "uint256"
        }
      ],
      "name": "StrategyAdded",
      "type": "event"
    },
    {
      "anonymous": false,
      "inputs": [
        {
          "indexed": true,
          "internalType": "address",
          "name": "token",
          "type": "address"
        },
        {
          "indexed": true,
          "internalType": "address",
          "name": "strategy",
          "type": "address"
        }
      ],
      "name": "StrategyRemoved",
      "type": "event"
    },
    {
      "inputs": [
        {
          "internalType": "address",
          "name": "_token",
          "type": "address"
        },
        {
          "internalType": "address",
          "name": "_strategy",
          "type": "address"
        },
        {
          "internalType": "uint256",
          "name": "_cap",
          "type": "uint256"
        }
      ],
      "name": "addStrategy",
      "outputs": [],
      "stateMutability": "nonpayable",
      "type": "function"
    },
    {
      "inputs": [
        {
          "internalType": "address",
          "name": "_token",
          "type": "address"
        }
      ],
      "name": "balanceOf",
      "outputs": [
        {
          "internalType": "uint256",
          "name": "_balance",
          "type": "uint256"
        }
      ],
      "stateMutability": "view",
      "type": "function"
    },
    {
      "inputs": [
        {
          "internalType": "address",
          "name": "_vault",
          "type": "address"
        }
      ],
      "name": "claimInsurance",
      "outputs": [],
      "stateMutability": "nonpayable",
      "type": "function"
    },
    {
      "inputs": [
        {
          "internalType": "address",
          "name": "",
          "type": "address"
        },
        {
          "internalType": "address",
          "name": "",
          "type": "address"
        }
      ],
      "name": "converters",
      "outputs": [
        {
          "internalType": "address",
          "name": "",
          "type": "address"
        }
      ],
      "stateMutability": "view",
      "type": "function"
    },
    {
      "inputs": [
        {
          "internalType": "address",
          "name": "_token",
          "type": "address"
        },
        {
          "internalType": "uint256",
          "name": "_amount",
          "type": "uint256"
        }
      ],
      "name": "earn",
      "outputs": [],
      "stateMutability": "nonpayable",
      "type": "function"
    },
    {
      "inputs": [
        {
          "internalType": "address",
          "name": "_token",
          "type": "address"
        },
        {
          "internalType": "uint256",
          "name": "_amount",
          "type": "uint256"
        }
      ],
      "name": "getBestStrategyEarn",
      "outputs": [
        {
          "internalType": "address",
          "name": "_strategy",
          "type": "address"
        }
      ],
      "stateMutability": "view",
      "type": "function"
    },
    {
      "inputs": [
        {
          "internalType": "address",
          "name": "_token",
          "type": "address"
        },
        {
          "internalType": "uint256",
          "name": "_amount",
          "type": "uint256"
        }
      ],
      "name": "getBestStrategyWithdraw",
      "outputs": [
        {
          "internalType": "address[]",
          "name": "_strategies",
          "type": "address[]"
        },
        {
          "internalType": "uint256[]",
          "name": "_amounts",
          "type": "uint256[]"
        }
      ],
      "stateMutability": "view",
      "type": "function"
    },
    {
      "inputs": [
        {
          "internalType": "address",
          "name": "_token",
          "type": "address"
        },
        {
          "internalType": "address",
          "name": "_strategy",
          "type": "address"
        }
      ],
      "name": "getCap",
      "outputs": [
        {
          "internalType": "uint256",
          "name": "",
          "type": "uint256"
        }
      ],
      "stateMutability": "view",
      "type": "function"
    },
    {
      "inputs": [],
      "name": "globalInvestEnabled",
      "outputs": [
        {
          "internalType": "bool",
          "name": "",
          "type": "bool"
        }
      ],
      "stateMutability": "view",
      "type": "function"
    },
    {
      "inputs": [
        {
          "internalType": "address",
          "name": "_strategy",
          "type": "address"
        }
      ],
      "name": "harvestStrategy",
      "outputs": [],
      "stateMutability": "nonpayable",
      "type": "function"
    },
    {
      "inputs": [
        {
          "internalType": "address",
          "name": "_strategy",
          "type": "address"
        },
        {
          "internalType": "address",
          "name": "_token",
          "type": "address"
        }
      ],
      "name": "inCaseStrategyGetStuck",
      "outputs": [],
      "stateMutability": "nonpayable",
      "type": "function"
    },
    {
      "inputs": [
        {
          "internalType": "address",
          "name": "_token",
          "type": "address"
        },
        {
          "internalType": "uint256",
          "name": "_amount",
          "type": "uint256"
        }
      ],
      "name": "inCaseTokensGetStuck",
      "outputs": [],
      "stateMutability": "nonpayable",
      "type": "function"
    },
    {
      "inputs": [],
      "name": "investEnabled",
      "outputs": [
        {
          "internalType": "bool",
          "name": "",
          "type": "bool"
        }
      ],
      "stateMutability": "view",
      "type": "function"
    },
    {
      "inputs": [],
      "name": "maxStrategies",
      "outputs": [
        {
          "internalType": "uint256",
          "name": "",
          "type": "uint256"
        }
      ],
      "stateMutability": "view",
      "type": "function"
    },
    {
      "inputs": [
        {
          "internalType": "address",
          "name": "_token",
          "type": "address"
        },
        {
          "internalType": "address",
          "name": "_strategy",
          "type": "address"
        }
      ],
      "name": "removeStrategy",
      "outputs": [],
      "stateMutability": "nonpayable",
      "type": "function"
    },
    {
      "inputs": [
        {
          "internalType": "address",
          "name": "_token",
          "type": "address"
        },
        {
          "internalType": "address",
          "name": "_strategy1",
          "type": "address"
        },
        {
          "internalType": "address",
          "name": "_strategy2",
          "type": "address"
        }
      ],
      "name": "reorderStrategies",
      "outputs": [],
      "stateMutability": "nonpayable",
      "type": "function"
    },
    {
      "inputs": [
        {
          "internalType": "address",
          "name": "_token",
          "type": "address"
        },
        {
          "internalType": "address",
          "name": "_strategy",
          "type": "address"
        },
        {
          "internalType": "uint256",
          "name": "_cap",
          "type": "uint256"
        }
      ],
      "name": "setCap",
      "outputs": [],
      "stateMutability": "nonpayable",
      "type": "function"
    },
    {
      "inputs": [
        {
          "internalType": "address",
          "name": "_input",
          "type": "address"
        },
        {
          "internalType": "address",
          "name": "_output",
          "type": "address"
        },
        {
          "internalType": "address",
          "name": "_converter",
          "type": "address"
        }
      ],
      "name": "setConverter",
      "outputs": [],
      "stateMutability": "nonpayable",
      "type": "function"
    },
    {
      "inputs": [
        {
          "internalType": "bool",
          "name": "_investEnabled",
          "type": "bool"
        }
      ],
      "name": "setInvestEnabled",
      "outputs": [],
      "stateMutability": "nonpayable",
      "type": "function"
    },
    {
      "inputs": [
        {
          "internalType": "uint256",
          "name": "_maxStrategies",
          "type": "uint256"
        }
      ],
      "name": "setMaxStrategies",
      "outputs": [],
      "stateMutability": "nonpayable",
      "type": "function"
    },
    {
      "inputs": [
        {
          "internalType": "address",
          "name": "_token",
          "type": "address"
        },
        {
          "internalType": "address",
          "name": "_vault",
          "type": "address"
        }
      ],
      "name": "setVault",
      "outputs": [],
      "stateMutability": "nonpayable",
      "type": "function"
    },
    {
      "inputs": [
        {
          "internalType": "address",
          "name": "_vaultManager",
          "type": "address"
        }
      ],
      "name": "setVaultManager",
      "outputs": [],
      "stateMutability": "nonpayable",
      "type": "function"
    },
    {
      "inputs": [
        {
          "internalType": "address",
          "name": "_token",
          "type": "address"
        }
      ],
      "name": "strategies",
      "outputs": [
        {
          "internalType": "address[]",
          "name": "",
          "type": "address[]"
        }
      ],
      "stateMutability": "view",
      "type": "function"
    },
    {
      "inputs": [
        {
          "internalType": "address",
          "name": "",
          "type": "address"
        }
      ],
      "name": "strategyTokens",
      "outputs": [
        {
          "internalType": "address",
          "name": "",
          "type": "address"
        }
      ],
      "stateMutability": "view",
      "type": "function"
    },
    {
      "inputs": [],
      "name": "vaultManager",
      "outputs": [
        {
          "internalType": "contract IVaultManager",
          "name": "",
          "type": "address"
        }
      ],
      "stateMutability": "view",
      "type": "function"
    },
    {
      "inputs": [
        {
          "internalType": "address",
          "name": "",
          "type": "address"
        }
      ],
      "name": "vaultTokens",
      "outputs": [
        {
          "internalType": "address",
          "name": "",
          "type": "address"
        }
      ],
      "stateMutability": "view",
      "type": "function"
    },
    {
      "inputs": [
        {
          "internalType": "address",
          "name": "",
          "type": "address"
        }
      ],
      "name": "vaults",
      "outputs": [
        {
          "internalType": "address",
          "name": "",
          "type": "address"
        }
      ],
      "stateMutability": "view",
      "type": "function"
    },
    {
      "inputs": [
        {
          "internalType": "address",
          "name": "_token",
          "type": "address"
        }
      ],
      "name": "want",
      "outputs": [
        {
          "internalType": "address",
          "name": "",
          "type": "address"
        }
      ],
      "stateMutability": "view",
      "type": "function"
    },
    {
      "inputs": [
        {
          "internalType": "address",
          "name": "_token",
          "type": "address"
        },
        {
          "internalType": "uint256",
          "name": "_amount",
          "type": "uint256"
        }
      ],
      "name": "withdraw",
      "outputs": [],
      "stateMutability": "nonpayable",
      "type": "function"
    },
    {
      "inputs": [
        {
          "internalType": "address",
          "name": "_strategy",
          "type": "address"
        }
      ],
      "name": "withdrawAll",
      "outputs": [],
      "stateMutability": "nonpayable",
      "type": "function"
    },
    {
      "inputs": [
        {
          "internalType": "address",
          "name": "",
          "type": "address"
        },
        {
          "internalType": "uint256",
          "name": "_amount",
          "type": "uint256"
        }
      ],
      "name": "withdrawFee",
      "outputs": [
        {
          "internalType": "uint256",
          "name": "_fee",
          "type": "uint256"
        }
      ],
      "stateMutability": "view",
      "type": "function"
    }
  ],
  "transactionHash": "0xc777324cc88e51755a5e91bd9500a73c81768f5afe6ca77eb031e61f63376d40",
  "args": [
    "0x15885dE7737B179968B216275b6531f3a668E4E9"
  ],
  "solcInputHash": "0dafef0f9d3baf21ab7d835401fdfdba",
  "bytecode": "0x608060405234801561001057600080fd5b5060405161379c38038061379c8339818101604052602081101561003357600080fd5b5051600280546001600160a01b0319166001600160a01b039092169190911790556000805460ff191660019081178255600a905561372590819061007790396000f3fe608060405234801561001057600080fd5b50600436106101e55760003560e01c80638cda24361161010f578063b543503e116100a2578063e4f2494d11610071578063e4f2494d1461070d578063f3fef3a31461073b578063fa09e63014610767578063fd9be5221461078d576101e5565b8063b543503e1461067b578063c6d758cb146106a1578063c79c21b7146106cd578063ccd06318146106d5576101e5565b806396d236b1116100de57806396d236b11461053e578063a622ee7c14610603578063b02bf4b914610629578063b3deb95814610655576101e5565b80638cda24361461048d5780638e67d7b3146104c35780638fc1ea1e146104f157806395c2204614610510576101e5565b806361f13e001161018757806371f4f3fb1161015657806371f4f3fb1461041f57806375724589146104275780638a4adf241461044d5780638c12f28614610455576101e5565b806361f13e001461037f57806364f50057146103a557806370a08231146103cb578063714ccf7b146103f1576101e5565b806319c49450116101c357806319c494501461027657806339ebf823146102b65780634b704acd1461032c5780634ff173d714610362576101e5565b80630b72a8d1146101ea5780631239c27114610232578063123e63d31461025a575b600080fd5b6102166004803603604081101561020057600080fd5b506001600160a01b0381351690602001356107b9565b604080516001600160a01b039092168252519081900360200190f35b6102586004803603602081101561024857600080fd5b50356001600160a01b03166108f1565b005b610262610a3f565b604080519115158252519081900360200190f35b6102a46004803603604081101561028c57600080fd5b506001600160a01b0381358116916020013516610a48565b60408051918252519081900360200190f35b6102dc600480360360208110156102cc57600080fd5b50356001600160a01b0316610a79565b60408051602080825283518183015283519192839290830191858101910280838360005b83811015610318578181015183820152602001610300565b505050509050019250505060405180910390f35b6102586004803603606081101561034257600080fd5b506001600160a01b03813581169160208101359091169060400135610aef565b6102586004803603602081101561037857600080fd5b5035610e9a565b6102586004803603602081101561039557600080fd5b50356001600160a01b0316610fef565b610216600480360360208110156103bb57600080fd5b50356001600160a01b0316611254565b6102a4600480360360208110156103e157600080fd5b50356001600160a01b031661126f565b6102586004803603604081101561040757600080fd5b506001600160a01b03813581169160200135166114f0565b6102626116dd565b6102166004803603602081101561043d57600080fd5b50356001600160a01b031661171e565b6102166117a2565b6102586004803603606081101561046b57600080fd5b506001600160a01b0381358116916020810135821691604090910135166117b1565b610258600480360360608110156104a357600080fd5b506001600160a01b03813581169160208101359091169060400135611a81565b610258600480360360408110156104d957600080fd5b506001600160a01b0381358116916020013516611d4d565b6102586004803603602081101561050757600080fd5b503515156120b5565b6102586004803603604081101561052657600080fd5b506001600160a01b0381358116916020013516612218565b61056a6004803603604081101561055457600080fd5b506001600160a01b0381351690602001356124d3565b604051808060200180602001838103835285818151815260200191508051906020019060200280838360005b838110156105ae578181015183820152602001610596565b50505050905001838103825284818151815260200191508051906020019060200280838360005b838110156105ed5781810151838201526020016105d5565b5050505090500194505050505060405180910390f35b6102166004803603602081101561061957600080fd5b50356001600160a01b03166126c2565b6102586004803603604081101561063f57600080fd5b506001600160a01b0381351690602001356126dd565b6102166004803603602081101561066b57600080fd5b50356001600160a01b0316612948565b6102586004803603602081101561069157600080fd5b50356001600160a01b0316612963565b610258600480360360408110156106b757600080fd5b506001600160a01b038135169060200135612a49565b6102a4612c1c565b610258600480360360608110156106eb57600080fd5b506001600160a01b038135811691602081013582169160409091013516612c22565b6102166004803603604081101561072357600080fd5b506001600160a01b0381358116916020013516612daf565b6102586004803603604081101561075157600080fd5b506001600160a01b038135169060200135612dd5565b6102586004803603602081101561077d57600080fd5b50356001600160a01b0316612f16565b6102a4600480360360408110156107a357600080fd5b506001600160a01b0381351690602001356130d0565b6001600160a01b03821660009081526004602052604081205481906107df906001613169565b9050805b6001600160a01b038516600090815260046020526040902080548290811061080757fe5b9060005260206000200160009054906101000a90046001600160a01b03169250600061089885856001600160a01b031663722713f76040518163ffffffff1660e01b815260040160206040518083038186803b15801561086657600080fd5b505afa15801561087a573d6000803e3d6000fd5b505050506040513d602081101561089057600080fd5b5051906131ab565b6001600160a01b038088166000908152600460209081526040808320938916835260039093019052205490915080821115806108d2575080155b156108de5750506108e9565b5050600019016107e3565b505092915050565b600260009054906101000a90046001600160a01b03166001600160a01b0316635aa6e6756040518163ffffffff1660e01b815260040160206040518083038186803b15801561093f57600080fd5b505afa158015610953573d6000803e3d6000fd5b505050506040513d602081101561096957600080fd5b50516001600160a01b031633146109b5576040805162461bcd60e51b815260206004820152600b60248201526a21676f7665726e616e636560a81b604482015290519081900360640190fd5b806001600160a01b031663a75ac6086040518163ffffffff1660e01b8152600401600060405180830381600087803b1580156109f057600080fd5b505af1158015610a04573d6000803e3d6000fd5b50506040516001600160a01b03841692507f0483066eee20a73e7807d02640a5b3e72815138b02d49102a9f53490977d198f9150600090a250565b60005460ff1681565b6001600160a01b03808316600090815260046020908152604080832093851683526003909301905220545b92915050565b6001600160a01b038116600090815260046020908152604091829020805483518184028101840190945280845260609392830182828015610ae357602002820191906000526020600020905b81546001600160a01b03168152600190910190602001808311610ac5575b50505050509050919050565b600260009054906101000a90046001600160a01b03166001600160a01b0316635aa6e6756040518163ffffffff1660e01b815260040160206040518083038186803b158015610b3d57600080fd5b505afa158015610b51573d6000803e3d6000fd5b505050506040513d6020811015610b6757600080fd5b50516001600160a01b03163314610bb3576040805162461bcd60e51b815260206004820152600b60248201526a21676f7665726e616e636560a81b604482015290519081900360640190fd5b6001600160a01b038084166000908152600460209081526040808320938616835260029093019052205460ff1615610c1b576040805162461bcd60e51b815260206004820152600660248201526561637469766560d01b604482015290519081900360640190fd5b6000826001600160a01b0316631f1fcd516040518163ffffffff1660e01b815260040160206040518083038186803b158015610c5657600080fd5b505afa158015610c6a573d6000803e3d6000fd5b505050506040513d6020811015610c8057600080fd5b50516001600160a01b03808616600090815260066020908152604091829020548251631f1fcd5160e01b8152925194955090921692631f1fcd5192600480840193919291829003018186803b158015610cd857600080fd5b505afa158015610cec573d6000803e3d6000fd5b505050506040513d6020811015610d0257600080fd5b50516001600160a01b03828116911614610d7c576001600160a01b038481166000908152600360209081526040808320858516845290915290205416610d7c576040805162461bcd60e51b815260206004820152600a60248201526910b1b7b73b32b93a32b960b11b604482015290519081900360640190fd5b6001600160a01b0384166000908152600460205260409020546001548110610ddc576040805162461bcd60e51b815260206004820152600e60248201526d216d61785374726174656769657360901b604482015290519081900360640190fd5b6001600160a01b03858116600081815260046020908152604080832080546001808201835582865284862090910180546001600160a01b0319908116988d169889179091558786526003830185528386208b9055818301855283862089905560029092018452828520805460ff19169091179055600583529281902080549093168417909255815187815291517fc2008aa15e9b0989ec7ae02bc3d8054428c527c989269ffb2a5bff829028a0129281900390910190a35050505050565b600260009054906101000a90046001600160a01b03166001600160a01b0316631fe4a6866040518163ffffffff1660e01b815260040160206040518083038186803b158015610ee857600080fd5b505afa158015610efc573d6000803e3d6000fd5b505050506040513d6020811015610f1257600080fd5b50516001600160a01b0316331480610fab5750600260009054906101000a90046001600160a01b03166001600160a01b0316635aa6e6756040518163ffffffff1660e01b815260040160206040518083038186803b158015610f7357600080fd5b505afa158015610f87573d6000803e3d6000fd5b505050506040513d6020811015610f9d57600080fd5b50516001600160a01b031633145b610fea576040805162461bcd60e51b815260206004820152600b60248201526a085cdd1c985d1959da5cdd60aa1b604482015290519081900360640190fd5b600155565b600260009054906101000a90046001600160a01b03166001600160a01b0316634bdaeac16040518163ffffffff1660e01b815260040160206040518083038186803b15801561103d57600080fd5b505afa158015611051573d6000803e3d6000fd5b505050506040513d602081101561106757600080fd5b50516001600160a01b03163314806111005750600260009054906101000a90046001600160a01b03166001600160a01b0316631fe4a6866040518163ffffffff1660e01b815260040160206040518083038186803b1580156110c857600080fd5b505afa1580156110dc573d6000803e3d6000fd5b505050506040513d60208110156110f257600080fd5b50516001600160a01b031633145b8061118c5750600260009054906101000a90046001600160a01b03166001600160a01b0316635aa6e6756040518163ffffffff1660e01b815260040160206040518083038186803b15801561115457600080fd5b505afa158015611168573d6000803e3d6000fd5b505050506040513d602081101561117e57600080fd5b50516001600160a01b031633145b6111ca576040805162461bcd60e51b815260206004820152600a60248201526910b430b93b32b9ba32b960b11b604482015290519081900360640190fd5b806001600160a01b0316634641257d6040518163ffffffff1660e01b8152600401600060405180830381600087803b15801561120557600080fd5b505af1158015611219573d6000803e3d6000fd5b50506040516001600160a01b03841692507f188a622567eeca997c3d494fd65f76ca910b90a50a0c44d5e37b2ea5539e027b9150600090a250565b6005602052600090815260409020546001600160a01b031681565b6001600160a01b038116600090815260046020526040812054815b818110156114e9576001600160a01b03841660009081526004602052604081208054839081106112b657fe5b600091825260208083209091015460408051631f1fcd5160e01b815290516001600160a01b0390921694508492631f1fcd5192600480840193829003018186803b15801561130357600080fd5b505afa158015611317573d6000803e3d6000fd5b505050506040513d602081101561132d57600080fd5b505190506001600160a01b038082169087161461146d576001600160a01b038087166000908152600360209081526040808320858516845282529182902054825163722713f760e01b81529251908416936114659385936336cf893c9388938e93908b169263722713f792600480840193829003018186803b1580156113b257600080fd5b505afa1580156113c6573d6000803e3d6000fd5b505050506040513d60208110156113dc57600080fd5b5051604080516001600160e01b031960e087901b1681526001600160a01b039485166004820152929093166024830152604482015290516064808301926020929190829003018186803b15801561143257600080fd5b505afa158015611446573d6000803e3d6000fd5b505050506040513d602081101561145c57600080fd5b505187906131ab565b9550506114df565b6114dc826001600160a01b031663722713f76040518163ffffffff1660e01b815260040160206040518083038186803b1580156114a957600080fd5b505afa1580156114bd573d6000803e3d6000fd5b505050506040513d60208110156114d357600080fd5b505186906131ab565b94505b505060010161128a565b5050919050565b600260009054906101000a90046001600160a01b03166001600160a01b0316631fe4a6866040518163ffffffff1660e01b815260040160206040518083038186803b15801561153e57600080fd5b505afa158015611552573d6000803e3d6000fd5b505050506040513d602081101561156857600080fd5b50516001600160a01b03163314806116015750600260009054906101000a90046001600160a01b03166001600160a01b0316635aa6e6756040518163ffffffff1660e01b815260040160206040518083038186803b1580156115c957600080fd5b505afa1580156115dd573d6000803e3d6000fd5b505050506040513d60208110156115f357600080fd5b50516001600160a01b031633145b611640576040805162461bcd60e51b815260206004820152600b60248201526a085cdd1c985d1959da5cdd60aa1b604482015290519081900360640190fd5b6001600160a01b038281166000908152600660205260409020541615611695576040805162461bcd60e51b81526020600482015260056024820152641d985d5b1d60da1b604482015290519081900360640190fd5b6001600160a01b0391821660008181526006602090815260408083208054969095166001600160a01b0319968716811790955593825260079052919091208054909216179055565b6000805460ff16156117175750336000908152600760209081526040808320546001600160a01b031683526004909152902054151561171b565b5060005b90565b6001600160a01b038082166000908152600660209081526040808320548151631f1fcd5160e01b8152915193941692631f1fcd5192600480840193919291829003018186803b15801561177057600080fd5b505afa158015611784573d6000803e3d6000fd5b505050506040513d602081101561179a57600080fd5b505192915050565b6002546001600160a01b031681565b600260009054906101000a90046001600160a01b03166001600160a01b0316631fe4a6866040518163ffffffff1660e01b815260040160206040518083038186803b1580156117ff57600080fd5b505afa158015611813573d6000803e3d6000fd5b505050506040513d602081101561182957600080fd5b50516001600160a01b03163314806118c25750600260009054906101000a90046001600160a01b03166001600160a01b0316635aa6e6756040518163ffffffff1660e01b815260040160206040518083038186803b15801561188a57600080fd5b505afa15801561189e573d6000803e3d6000fd5b505050506040513d60208110156118b457600080fd5b50516001600160a01b031633145b611901576040805162461bcd60e51b815260206004820152600b60248201526a085cdd1c985d1959da5cdd60aa1b604482015290519081900360640190fd5b6001600160a01b03808416600090815260046020908152604080832093861683526002840190915290205460ff16801561195557506001600160a01b038216600090815260028201602052604090205460ff165b611990576040805162461bcd60e51b81526020600482015260076024820152662161637469766560c81b604482015290519081900360640190fd5b6001600160a01b038084166000908152600183016020526040808220549285168252902054825484908490849081106119c557fe5b9060005260206000200160006101000a8154816001600160a01b0302191690836001600160a01b0316021790555084836000018281548110611a0357fe5b600091825260208083209190910180546001600160a01b0319166001600160a01b03948516179055878316808352600187019091526040808320859055878416808452818420879055905190939192918a16917ffea1ac549b0e10ecbe67c9d07de370cb3976ed51ef1fd559cf7472021417467891a4505050505050565b600260009054906101000a90046001600160a01b03166001600160a01b0316631fe4a6866040518163ffffffff1660e01b815260040160206040518083038186803b158015611acf57600080fd5b505afa158015611ae3573d6000803e3d6000fd5b505050506040513d6020811015611af957600080fd5b50516001600160a01b0316331480611b925750600260009054906101000a90046001600160a01b03166001600160a01b0316635aa6e6756040518163ffffffff1660e01b815260040160206040518083038186803b158015611b5a57600080fd5b505afa158015611b6e573d6000803e3d6000fd5b505050506040513d6020811015611b8457600080fd5b50516001600160a01b031633145b611bd1576040805162461bcd60e51b815260206004820152600b60248201526a085cdd1c985d1959da5cdd60aa1b604482015290519081900360640190fd5b6001600160a01b038084166000908152600460209081526040808320938616835260029093019052205460ff16611c39576040805162461bcd60e51b81526020600482015260076024820152662161637469766560c81b604482015290519081900360640190fd5b6001600160a01b03808416600090815260046020818152604080842094871680855260039095018252808420869055805163722713f760e01b8152905193949363722713f7938281019392829003018186803b158015611c9857600080fd5b505afa158015611cac573d6000803e3d6000fd5b505050506040513d6020811015611cc257600080fd5b505190508181118015611cd457508115155b15611d47576000611ce58284613169565b9050836001600160a01b0316632e1a7d4d826040518263ffffffff1660e01b815260040180828152602001915050600060405180830381600087803b158015611d2d57600080fd5b505af1158015611d41573d6000803e3d6000fd5b50505050505b50505050565b600260009054906101000a90046001600160a01b03166001600160a01b0316631fe4a6866040518163ffffffff1660e01b815260040160206040518083038186803b158015611d9b57600080fd5b505afa158015611daf573d6000803e3d6000fd5b505050506040513d6020811015611dc557600080fd5b50516001600160a01b0316331480611e5e5750600260009054906101000a90046001600160a01b03166001600160a01b0316635aa6e6756040518163ffffffff1660e01b815260040160206040518083038186803b158015611e2657600080fd5b505afa158015611e3a573d6000803e3d6000fd5b505050506040513d6020811015611e5057600080fd5b50516001600160a01b031633145b611e9d576040805162461bcd60e51b815260206004820152600b60248201526a085cdd1c985d1959da5cdd60aa1b604482015290519081900360640190fd5b6001600160a01b03808316600090815260046020908152604080832093851683526002840190915290205460ff16611f06576040805162461bcd60e51b81526020600482015260076024820152662161637469766560c81b604482015290519081900360640190fd5b6001600160a01b0382166000908152600180830160205260408220548354909291611f319190613169565b90506000836000018281548110611f4457fe5b60009182526020909120015484546001600160a01b0390911691508190859085908110611f6d57fe5b600091825260208083209190910180546001600160a01b0319166001600160a01b03948516179055918316815260018601909152604090208390558354849080611fb357fe5b60008281526020808220830160001990810180546001600160a01b03191690559092019092556001600160a01b0387168083526001870182526040808420849055600388018352808420849055600288018352808420805460ff19169055805163429c145b60e11b81529051919363853828b69360048084019491939192918390030190829087803b15801561204857600080fd5b505af115801561205c573d6000803e3d6000fd5b505050506040513d602081101561207257600080fd5b50506040516001600160a01b0380871691908816907f64a0e13af5f4bc5a68b1b79d9ff6e775f93e814ee8b0c97d620520190d04bae290600090a3505050505050565b600260009054906101000a90046001600160a01b03166001600160a01b0316631fe4a6866040518163ffffffff1660e01b815260040160206040518083038186803b15801561210357600080fd5b505afa158015612117573d6000803e3d6000fd5b505050506040513d602081101561212d57600080fd5b50516001600160a01b03163314806121c65750600260009054906101000a90046001600160a01b03166001600160a01b0316635aa6e6756040518163ffffffff1660e01b815260040160206040518083038186803b15801561218e57600080fd5b505afa1580156121a2573d6000803e3d6000fd5b505050506040513d60208110156121b857600080fd5b50516001600160a01b031633145b612205576040805162461bcd60e51b815260206004820152600b60248201526a085cdd1c985d1959da5cdd60aa1b604482015290519081900360640190fd5b6000805460ff1916911515919091179055565b600260009054906101000a90046001600160a01b03166001600160a01b0316631fe4a6866040518163ffffffff1660e01b815260040160206040518083038186803b15801561226657600080fd5b505afa15801561227a573d6000803e3d6000fd5b505050506040513d602081101561229057600080fd5b50516001600160a01b03163314806123295750600260009054906101000a90046001600160a01b03166001600160a01b0316635aa6e6756040518163ffffffff1660e01b815260040160206040518083038186803b1580156122f157600080fd5b505afa158015612305573d6000803e3d6000fd5b505050506040513d602081101561231b57600080fd5b50516001600160a01b031633145b612368576040805162461bcd60e51b815260206004820152600b60248201526a085cdd1c985d1959da5cdd60aa1b604482015290519081900360640190fd5b816001600160a01b03166351cff8d9826040518263ffffffff1660e01b815260040180826001600160a01b03168152602001915050600060405180830381600087803b1580156123b757600080fd5b505af11580156123cb573d6000803e3d6000fd5b505050506124cf600260009054906101000a90046001600160a01b03166001600160a01b0316635aa6e6756040518163ffffffff1660e01b815260040160206040518083038186803b15801561242057600080fd5b505afa158015612434573d6000803e3d6000fd5b505050506040513d602081101561244a57600080fd5b5051604080516370a0823160e01b815230600482015290516001600160a01b038516916370a08231916024808301926020929190829003018186803b15801561249257600080fd5b505afa1580156124a6573d6000803e3d6000fd5b505050506040513d60208110156124bc57600080fd5b50516001600160a01b0384169190613205565b5050565b6001600160a01b03821660009081526004602052604090205460609081908067ffffffffffffffff8111801561250857600080fd5b50604051908082528060200260200182016040528015612532578160200160208202803683370190505b5092508067ffffffffffffffff8111801561254c57600080fd5b50604051908082528060200260200182016040528015612576578160200160208202803683370190505b50915060005b818110156126b9576001600160a01b03861660009081526004602052604081208054839081106125a857fe5b9060005260206000200160009054906101000a90046001600160a01b03169050808583815181106125d557fe5b60200260200101906001600160a01b031690816001600160a01b0316815250506000816001600160a01b031663722713f76040518163ffffffff1660e01b815260040160206040518083038186803b15801561263057600080fd5b505afa158015612644573d6000803e3d6000fd5b505050506040513d602081101561265a57600080fd5b505190508681101561268f578085848151811061267357fe5b60209081029190910101526126888782613169565b96506126af565b8685848151811061269c57fe5b60200260200101818152505050506126b9565b505060010161257c565b50509250929050565b6006602052600090815260409020546001600160a01b031681565b6001600160a01b038281166000908152600660205260409020548391163314612736576040805162461bcd60e51b8152602060048201526006602482015265085d985d5b1d60d21b604482015290519081900360640190fd5b600061274284846107b9565b90506000816001600160a01b0316631f1fcd516040518163ffffffff1660e01b815260040160206040518083038186803b15801561277f57600080fd5b505afa158015612793573d6000803e3d6000fd5b505050506040513d60208110156127a957600080fd5b505190506001600160a01b03808216908616146128a6576001600160a01b0380861660008181526003602090815260408083208686168452909152902054909116906127f6908287613205565b806001600160a01b031663248391ff8784886040518463ffffffff1660e01b815260040180846001600160a01b03168152602001836001600160a01b031681526020018281526020019350505050602060405180830381600087803b15801561285e57600080fd5b505af1158015612872573d6000803e3d6000fd5b505050506040513d602081101561288857600080fd5b505194506128a06001600160a01b0383168487613205565b506128ba565b6128ba6001600160a01b0386168386613205565b816001600160a01b031663d0e30db06040518163ffffffff1660e01b8152600401600060405180830381600087803b1580156128f557600080fd5b505af1158015612909573d6000803e3d6000fd5b50506040516001600160a01b03851692507fd9ff27d148b72eef72d3ccadcd1d61afe5d6fae843f1cc6a7b19c99f787c11de9150600090a25050505050565b6007602052600090815260409020546001600160a01b031681565b600260009054906101000a90046001600160a01b03166001600160a01b0316635aa6e6756040518163ffffffff1660e01b815260040160206040518083038186803b1580156129b157600080fd5b505afa1580156129c5573d6000803e3d6000fd5b505050506040513d60208110156129db57600080fd5b50516001600160a01b03163314612a27576040805162461bcd60e51b815260206004820152600b60248201526a21676f7665726e616e636560a81b604482015290519081900360640190fd5b600280546001600160a01b0319166001600160a01b0392909216919091179055565b600260009054906101000a90046001600160a01b03166001600160a01b0316631fe4a6866040518163ffffffff1660e01b815260040160206040518083038186803b158015612a9757600080fd5b505afa158015612aab573d6000803e3d6000fd5b505050506040513d6020811015612ac157600080fd5b50516001600160a01b0316331480612b5a5750600260009054906101000a90046001600160a01b03166001600160a01b0316635aa6e6756040518163ffffffff1660e01b815260040160206040518083038186803b158015612b2257600080fd5b505afa158015612b36573d6000803e3d6000fd5b505050506040513d6020811015612b4c57600080fd5b50516001600160a01b031633145b612b99576040805162461bcd60e51b815260206004820152600b60248201526a085cdd1c985d1959da5cdd60aa1b604482015290519081900360640190fd5b60025460408051635aa6e67560e01b815290516124cf926001600160a01b031691635aa6e675916004808301926020929190829003018186803b158015612bdf57600080fd5b505afa158015612bf3573d6000803e3d6000fd5b505050506040513d6020811015612c0957600080fd5b50516001600160a01b0384169083613205565b60015481565b600260009054906101000a90046001600160a01b03166001600160a01b0316631fe4a6866040518163ffffffff1660e01b815260040160206040518083038186803b158015612c7057600080fd5b505afa158015612c84573d6000803e3d6000fd5b505050506040513d6020811015612c9a57600080fd5b50516001600160a01b0316331480612d335750600260009054906101000a90046001600160a01b03166001600160a01b0316635aa6e6756040518163ffffffff1660e01b815260040160206040518083038186803b158015612cfb57600080fd5b505afa158015612d0f573d6000803e3d6000fd5b505050506040513d6020811015612d2557600080fd5b50516001600160a01b031633145b612d72576040805162461bcd60e51b815260206004820152600b60248201526a085cdd1c985d1959da5cdd60aa1b604482015290519081900360640190fd5b6001600160a01b03928316600090815260036020908152604080832094861683529390529190912080546001600160a01b03191691909216179055565b60036020908152600092835260408084209091529082529020546001600160a01b031681565b6001600160a01b038281166000908152600660205260409020548391163314612e2e576040805162461bcd60e51b8152602060048201526006602482015265085d985d5b1d60d21b604482015290519081900360640190fd5b606080612e3b85856124d3565b9150915060005b8251811015612f0e5760006001600160a01b0316838281518110612e6257fe5b60200260200101516001600160a01b03161415612e7e57612f0e565b828181518110612e8a57fe5b60200260200101516001600160a01b0316632e1a7d4d838381518110612eac57fe5b60200260200101516040518263ffffffff1660e01b815260040180828152602001915050600060405180830381600087803b158015612eea57600080fd5b505af1158015612efe573d6000803e3d6000fd5b505060019092019150612e429050565b505050505050565b600260009054906101000a90046001600160a01b03166001600160a01b0316631fe4a6866040518163ffffffff1660e01b815260040160206040518083038186803b158015612f6457600080fd5b505afa158015612f78573d6000803e3d6000fd5b505050506040513d6020811015612f8e57600080fd5b50516001600160a01b03163314806130275750600260009054906101000a90046001600160a01b03166001600160a01b0316635aa6e6756040518163ffffffff1660e01b815260040160206040518083038186803b158015612fef57600080fd5b505afa158015613003573d6000803e3d6000fd5b505050506040513d602081101561301957600080fd5b50516001600160a01b031633145b613066576040805162461bcd60e51b815260206004820152600b60248201526a085cdd1c985d1959da5cdd60aa1b604482015290519081900360640190fd5b806001600160a01b031663853828b66040518163ffffffff1660e01b8152600401602060405180830381600087803b1580156130a157600080fd5b505af11580156130b5573d6000803e3d6000fd5b505050506040513d60208110156130cb57600080fd5b505050565b600061316261271061315c84600260009054906101000a90046001600160a01b03166001600160a01b031663825139096040518163ffffffff1660e01b815260040160206040518083038186803b15801561312a57600080fd5b505afa15801561313e573d6000803e3d6000fd5b505050506040513d602081101561315457600080fd5b505190613257565b906132b0565b9392505050565b600061316283836040518060400160405280601e81526020017f536166654d6174683a207375627472616374696f6e206f766572666c6f7700008152506132f2565b600082820183811015613162576040805162461bcd60e51b815260206004820152601b60248201527f536166654d6174683a206164646974696f6e206f766572666c6f770000000000604482015290519081900360640190fd5b604080516001600160a01b038416602482015260448082018490528251808303909101815260649091019091526020810180516001600160e01b031663a9059cbb60e01b1790526130cb908490613389565b60008261326657506000610a73565b8282028284828161327357fe5b04146131625760405162461bcd60e51b81526004018080602001828103825260218152602001806136a56021913960400191505060405180910390fd5b600061316283836040518060400160405280601a81526020017f536166654d6174683a206469766973696f6e206279207a65726f00000000000081525061343a565b600081848411156133815760405162461bcd60e51b81526004018080602001828103825283818151815260200191508051906020019080838360005b8381101561334657818101518382015260200161332e565b50505050905090810190601f1680156133735780820380516001836020036101000a031916815260200191505b509250505060405180910390fd5b505050900390565b60606133de826040518060400160405280602081526020017f5361666545524332303a206c6f772d6c6576656c2063616c6c206661696c6564815250856001600160a01b031661349f9092919063ffffffff16565b8051909150156130cb578080602001905160208110156133fd57600080fd5b50516130cb5760405162461bcd60e51b815260040180806020018281038252602a8152602001806136c6602a913960400191505060405180910390fd5b600081836134895760405162461bcd60e51b815260206004820181815283516024840152835190928392604490910191908501908083836000831561334657818101518382015260200161332e565b50600083858161349557fe5b0495945050505050565b60606134ae84846000856134b6565b949350505050565b6060824710156134f75760405162461bcd60e51b815260040180806020018281038252602681526020018061367f6026913960400191505060405180910390fd5b61350085613612565b613551576040805162461bcd60e51b815260206004820152601d60248201527f416464726573733a2063616c6c20746f206e6f6e2d636f6e7472616374000000604482015290519081900360640190fd5b60006060866001600160a01b031685876040518082805190602001908083835b602083106135905780518252601f199092019160209182019101613571565b6001836020036101000a03801982511681845116808217855250505050505090500191505060006040518083038185875af1925050503d80600081146135f2576040519150601f19603f3d011682016040523d82523d6000602084013e6135f7565b606091505b5091509150613607828286613618565b979650505050505050565b3b151590565b60608315613627575081613162565b8251156136375782518084602001fd5b60405162461bcd60e51b815260206004820181815284516024840152845185939192839260440191908501908083836000831561334657818101518382015260200161332e56fe416464726573733a20696e73756666696369656e742062616c616e636520666f722063616c6c536166654d6174683a206d756c7469706c69636174696f6e206f766572666c6f775361666545524332303a204552433230206f7065726174696f6e20646964206e6f742073756363656564a26469706673582212206ccddc6f10a36af90b03b086ebc9d880e0f1d21c4f5bafe9117e70d9af51d1eb64736f6c634300060c0033",
  "devdoc": {
    "kind": "dev",
    "methods": {
      "addStrategy(address,address,uint256)": {
        "details": "Only callable by governance",
        "params": {
          "_cap": "The cap of the strategy",
          "_strategy": "The address of the strategy",
          "_token": "The address of the token"
        }
      },
      "balanceOf(address)": {
        "details": "This function would make deposits more expensive for the more strategies that are added for a given token",
        "params": {
          "_token": "The address of the token"
        }
      },
      "claimInsurance(address)": {
        "details": "Only callable by governanceWhen insurance is claimed by the controller, the insurance fund of the vault is zeroed out, increasing the getPricePerFullShare and applying the gains to everyone in the vault.",
        "params": {
          "_vault": "The address of the vault"
        }
      },
      "constructor": {
        "params": {
          "_vaultManager": "The address of the vaultManager"
        }
      },
      "earn(address,uint256)": {
        "details": "Only callable by a vault",
        "params": {
          "_amount": "The amount that will be invested",
          "_token": "The address of the token"
        }
      },
      "getBestStrategyEarn(address,uint256)": {
        "params": {
          "_amount": "The amount that will be invested",
          "_token": "The address of the token"
        }
      },
      "getBestStrategyWithdraw(address,uint256)": {
        "details": "Since Solidity doesn't support dynamic arrays in memory, the returned arrays from this function will always be the same length as the amount of strategies for a token. Check that _strategies[i] != address(0) when consuming to know when to break out of the loop.",
        "params": {
          "_amount": "The amount that will be withdrawn",
          "_token": "The address of the token"
        }
      },
      "getCap(address,address)": {
        "params": {
          "_strategy": "The address of the strategy",
          "_token": "The address of the token"
        }
      },
      "harvestStrategy(address)": {
        "details": "Only callable by governance, the strategist, or the harvester",
        "params": {
          "_strategy": "The address of the strategy"
        }
      },
      "inCaseStrategyGetStuck(address,address)": {
        "details": "Only callable by governance or the strategist",
        "params": {
          "_strategy": "The address of the strategy",
          "_token": "The address of the token"
        }
      },
      "inCaseTokensGetStuck(address,uint256)": {
        "details": "Only callable by governance or the strategist",
        "params": {
          "_amount": "The amount that will be withdrawn",
          "_token": "The address of the token"
        }
      },
      "investEnabled()": {
        "details": "Should be called by the vault"
      },
      "removeStrategy(address,address)": {
        "details": "Only callable by governance or strategist",
        "params": {
          "_strategy": "The address of the strategy",
          "_token": "The address of the token"
        }
      },
      "reorderStrategies(address,address,address)": {
        "details": "Only callable by governance or strategist",
        "params": {
          "_strategy1": "The address of the first strategy",
          "_strategy2": "The address of the second strategy",
          "_token": "The address of the token"
        }
      },
      "setCap(address,address,uint256)": {
        "details": "Only callable by governance or strategistIf the balance of the strategy is greater than the new cap (except if the cap is 0), then withdraw the difference from the strategy to the vault.",
        "params": {
          "_cap": "The new cap of the strategy",
          "_strategy": "The address of the strategy",
          "_token": "The address of the token"
        }
      },
      "setConverter(address,address,address)": {
        "details": "Only callable by governance or strategist",
        "params": {
          "_converter": "The address of the converter",
          "_input": "The address of the input token",
          "_output": "The address of the output token"
        }
      },
      "setInvestEnabled(bool)": {
        "details": "Only callable by governance or strategist",
        "params": {
          "_investEnabled": "The new bool of the invest enabled flag"
        }
      },
      "setMaxStrategies(uint256)": {
        "details": "Only callable by governance or strategist",
        "params": {
          "_maxStrategies": "The new value of the maximum strategies"
        }
      },
      "setVault(address,address)": {
        "details": "Only callable by governance or strategist",
        "params": {
          "_token": "The address of the token",
          "_vault": "The address of the vault"
        }
      },
      "setVaultManager(address)": {
        "details": "Only callable by governance",
        "params": {
          "_vaultManager": "The address of the vault manager"
        }
      },
      "strategies(address)": {
        "params": {
          "_token": "The address of the token"
        }
      },
      "want(address)": {
        "details": "Since strategies can have different want tokens, default to using the want token of the vault for a given token.",
        "params": {
          "_token": "The address of the token"
        }
      },
      "withdraw(address,uint256)": {
        "details": "Only callable by a vaultIf the withdraw amount is greater than the first strategy given by getBestStrategyWithdraw, this function will loop over strategies until the requested amount is met.",
        "params": {
          "_amount": "The amount that will be withdrawn",
          "_token": "The address of the token"
        }
      },
      "withdrawAll(address)": {
        "details": "Only callable by governance or the strategist",
        "params": {
          "_strategy": "The address of the strategy"
        }
      },
      "withdrawFee(address,uint256)": {
        "params": {
          "_amount": "The amount that will be withdrawn"
        }
      }
    },
    "title": "StrategyControllerV2",
    "version": 1
  },
  "userdoc": {
    "events": {
      "Earn(address)": {
        "notice": "Logged when earn is called for a strategy"
      },
      "Harvest(address)": {
        "notice": "Logged when harvest is called for a strategy"
      },
      "InsuranceClaimed(address)": {
        "notice": "Logged when insurance is claimed for a vault"
      },
      "StrategiesReordered(address,address,address)": {
        "notice": "Logged when strategies are reordered for a token"
      },
      "StrategyAdded(address,address,uint256)": {
        "notice": "Logged when a strategy is added for a token"
      },
      "StrategyRemoved(address,address)": {
        "notice": "Logged when a strategy is removed for a token"
      }
    },
    "kind": "user",
    "methods": {
      "addStrategy(address,address,uint256)": {
        "notice": "Adds a strategy for a given token"
      },
      "balanceOf(address)": {
        "notice": "Returns the balance of the sum of all strategies for a given token"
      },
      "claimInsurance(address)": {
        "notice": "Claims the insurance fund of a vault"
      },
      "earn(address,uint256)": {
        "notice": "Invests funds into a strategy"
      },
      "getBestStrategyEarn(address,uint256)": {
        "notice": "Returns the best (optimistic) strategy for funds to be sent to with earn"
      },
      "getBestStrategyWithdraw(address,uint256)": {
        "notice": "Returns the best (optimistic) strategy for funds to be withdrawn from"
      },
      "getCap(address,address)": {
        "notice": "Returns the cap of a strategy for a given token"
      },
      "harvestStrategy(address)": {
        "notice": "Harvests the specified strategy"
      },
      "inCaseStrategyGetStuck(address,address)": {
        "notice": "Withdraws token from a strategy to governance"
      },
      "inCaseTokensGetStuck(address,uint256)": {
        "notice": "Withdraws token from the controller to governance"
      },
      "investEnabled()": {
        "notice": "Returns whether investing is enabled for the calling vault"
      },
      "removeStrategy(address,address)": {
        "notice": "Removes a strategy for a given token"
      },
      "reorderStrategies(address,address,address)": {
        "notice": "Reorders two strategies for a given token"
      },
      "setCap(address,address,uint256)": {
        "notice": "Sets/updates the cap of a strategy for a token"
      },
      "setConverter(address,address,address)": {
        "notice": "Sets/updates the converter for given input and output tokens"
      },
      "setInvestEnabled(bool)": {
        "notice": "Sets/updates the global invest enabled flag"
      },
      "setMaxStrategies(uint256)": {
        "notice": "Sets/updates the maximum number of strategies for a token"
      },
      "setVault(address,address)": {
        "notice": "Sets the address of a vault for a given token"
      },
      "setVaultManager(address)": {
        "notice": "Sets the address of the vault manager contract"
      },
      "strategies(address)": {
        "notice": "Returns all the strategies for a given token"
      },
      "want(address)": {
        "notice": "Returns the want address of a given token"
      },
      "withdraw(address,uint256)": {
        "notice": "Withdraws funds from a strategy"
      },
      "withdrawAll(address)": {
        "notice": "Withdraws all funds from a strategy"
      },
      "withdrawFee(address,uint256)": {
        "notice": "Returns the fee for withdrawing a specified amount"
      }
    },
    "notice": "This controller allows multiple strategies to be used for a single token, and multiple tokens are supported.",
    "version": 1
  },
  "storageLayout": {
    "storage": [
      {
        "astId": 2925,
        "contract": "contracts/metavault/controllers/StrategyControllerV2.sol:StrategyControllerV2",
        "label": "globalInvestEnabled",
        "offset": 0,
        "slot": "0",
        "type": "t_bool"
      },
      {
        "astId": 2927,
        "contract": "contracts/metavault/controllers/StrategyControllerV2.sol:StrategyControllerV2",
        "label": "maxStrategies",
        "offset": 0,
        "slot": "1",
        "type": "t_uint256"
      },
      {
        "astId": 2929,
        "contract": "contracts/metavault/controllers/StrategyControllerV2.sol:StrategyControllerV2",
        "label": "vaultManager",
        "offset": 0,
        "slot": "2",
        "type": "t_contract(IVaultManager)2082"
      },
      {
        "astId": 2951,
        "contract": "contracts/metavault/controllers/StrategyControllerV2.sol:StrategyControllerV2",
        "label": "converters",
        "offset": 0,
        "slot": "3",
        "type": "t_mapping(t_address,t_mapping(t_address,t_address))"
      },
      {
        "astId": 2955,
        "contract": "contracts/metavault/controllers/StrategyControllerV2.sol:StrategyControllerV2",
        "label": "tokenStrategies",
        "offset": 0,
        "slot": "4",
        "type": "t_mapping(t_address,t_struct(TokenStrategy)2945_storage)"
      },
      {
        "astId": 2960,
        "contract": "contracts/metavault/controllers/StrategyControllerV2.sol:StrategyControllerV2",
        "label": "strategyTokens",
        "offset": 0,
        "slot": "5",
        "type": "t_mapping(t_address,t_address)"
      },
      {
        "astId": 2965,
        "contract": "contracts/metavault/controllers/StrategyControllerV2.sol:StrategyControllerV2",
        "label": "vaults",
        "offset": 0,
        "slot": "6",
        "type": "t_mapping(t_address,t_address)"
      },
      {
        "astId": 2969,
        "contract": "contracts/metavault/controllers/StrategyControllerV2.sol:StrategyControllerV2",
        "label": "vaultTokens",
        "offset": 0,
        "slot": "7",
        "type": "t_mapping(t_address,t_address)"
      }
    ],
    "types": {
      "t_address": {
        "encoding": "inplace",
        "label": "address",
        "numberOfBytes": "20"
      },
      "t_array(t_address)dyn_storage": {
        "base": "t_address",
        "encoding": "dynamic_array",
        "label": "address[]",
        "numberOfBytes": "32"
      },
      "t_bool": {
        "encoding": "inplace",
        "label": "bool",
        "numberOfBytes": "1"
      },
      "t_contract(IVaultManager)2082": {
        "encoding": "inplace",
        "label": "contract IVaultManager",
        "numberOfBytes": "20"
      },
      "t_mapping(t_address,t_address)": {
        "encoding": "mapping",
        "key": "t_address",
        "label": "mapping(address => address)",
        "numberOfBytes": "32",
        "value": "t_address"
      },
      "t_mapping(t_address,t_bool)": {
        "encoding": "mapping",
        "key": "t_address",
        "label": "mapping(address => bool)",
        "numberOfBytes": "32",
        "value": "t_bool"
      },
      "t_mapping(t_address,t_mapping(t_address,t_address))": {
        "encoding": "mapping",
        "key": "t_address",
        "label": "mapping(address => mapping(address => address))",
        "numberOfBytes": "32",
        "value": "t_mapping(t_address,t_address)"
      },
      "t_mapping(t_address,t_struct(TokenStrategy)2945_storage)": {
        "encoding": "mapping",
        "key": "t_address",
        "label": "mapping(address => struct StrategyControllerV2.TokenStrategy)",
        "numberOfBytes": "32",
        "value": "t_struct(TokenStrategy)2945_storage"
      },
      "t_mapping(t_address,t_uint256)": {
        "encoding": "mapping",
        "key": "t_address",
        "label": "mapping(address => uint256)",
        "numberOfBytes": "32",
        "value": "t_uint256"
      },
      "t_struct(TokenStrategy)2945_storage": {
        "encoding": "inplace",
        "label": "struct StrategyControllerV2.TokenStrategy",
        "members": [
          {
            "astId": 2932,
            "contract": "contracts/metavault/controllers/StrategyControllerV2.sol:StrategyControllerV2",
            "label": "strategies",
            "offset": 0,
            "slot": "0",
            "type": "t_array(t_address)dyn_storage"
          },
          {
            "astId": 2936,
            "contract": "contracts/metavault/controllers/StrategyControllerV2.sol:StrategyControllerV2",
            "label": "index",
            "offset": 0,
            "slot": "1",
            "type": "t_mapping(t_address,t_uint256)"
          },
          {
            "astId": 2940,
            "contract": "contracts/metavault/controllers/StrategyControllerV2.sol:StrategyControllerV2",
            "label": "active",
            "offset": 0,
            "slot": "2",
            "type": "t_mapping(t_address,t_bool)"
          },
          {
            "astId": 2944,
            "contract": "contracts/metavault/controllers/StrategyControllerV2.sol:StrategyControllerV2",
            "label": "caps",
            "offset": 0,
            "slot": "3",
            "type": "t_mapping(t_address,t_uint256)"
          }
        ],
        "numberOfBytes": "128"
      },
      "t_uint256": {
        "encoding": "inplace",
        "label": "uint256",
        "numberOfBytes": "32"
      }
    }
  }
}