{
  "address": "0xafF39986d82fA86FA77640818ed4b2db4b71f63f",
  "abi": [
    {
      "inputs": [
        {
          "internalType": "string",
          "name": "name",
          "type": "string"
        },
        {
          "internalType": "string",
          "name": "symbol",
          "type": "string"
        },
        {
          "internalType": "uint8",
          "name": "decimals",
          "type": "uint8"
        }
      ],
      "stateMutability": "nonpayable",
      "type": "constructor"
    },
    {
      "anonymous": false,
      "inputs": [
        {
          "indexed": true,
          "internalType": "address",
          "name": "src",
          "type": "address"
        },
        {
          "indexed": true,
          "internalType": "address",
          "name": "dst",
          "type": "address"
        },
        {
          "indexed": false,
          "internalType": "uint256",
          "name": "amt",
          "type": "uint256"
        }
      ],
      "name": "Approval",
      "type": "event"
    },
    {
      "anonymous": false,
      "inputs": [
        {
          "indexed": true,
          "internalType": "address",
          "name": "src",
          "type": "address"
        },
        {
          "indexed": true,
          "internalType": "address",
          "name": "dst",
          "type": "address"
        },
        {
          "indexed": false,
          "internalType": "uint256",
          "name": "amt",
          "type": "uint256"
        }
      ],
      "name": "Transfer",
      "type": "event"
    },
    {
      "inputs": [
        {
          "internalType": "address",
          "name": "src",
          "type": "address"
        },
        {
          "internalType": "address",
          "name": "dst",
          "type": "address"
        }
      ],
      "name": "allowance",
      "outputs": [
        {
          "internalType": "uint256",
          "name": "",
          "type": "uint256"
        }
      ],
      "stateMutability": "view",
      "type": "function"
    },
    {
      "inputs": [
        {
          "internalType": "address",
          "name": "dst",
          "type": "address"
        },
        {
          "internalType": "uint256",
          "name": "amt",
          "type": "uint256"
        }
      ],
      "name": "approve",
      "outputs": [],
      "stateMutability": "nonpayable",
      "type": "function"
    },
    {
      "inputs": [
        {
          "internalType": "address",
          "name": "whom",
          "type": "address"
        }
      ],
      "name": "balanceOf",
      "outputs": [
        {
          "internalType": "uint256",
          "name": "",
          "type": "uint256"
        }
      ],
      "stateMutability": "view",
      "type": "function"
    },
    {
      "inputs": [
        {
          "internalType": "uint256",
          "name": "amt",
          "type": "uint256"
        }
      ],
      "name": "burn",
      "outputs": [],
      "stateMutability": "nonpayable",
      "type": "function"
    },
    {
      "inputs": [
        {
          "internalType": "address",
          "name": "src",
          "type": "address"
        },
        {
          "internalType": "uint256",
          "name": "amt",
          "type": "uint256"
        }
      ],
      "name": "burnFrom",
      "outputs": [],
      "stateMutability": "nonpayable",
      "type": "function"
    },
    {
      "inputs": [],
      "name": "decimals",
      "outputs": [
        {
          "internalType": "uint8",
          "name": "",
          "type": "uint8"
        }
      ],
      "stateMutability": "view",
      "type": "function"
    },
    {
      "inputs": [
        {
          "internalType": "uint256",
          "name": "amt",
          "type": "uint256"
        }
      ],
      "name": "faucet",
      "outputs": [],
      "stateMutability": "nonpayable",
      "type": "function"
    },
    {
      "inputs": [
        {
          "internalType": "address",
          "name": "dst",
          "type": "address"
        },
        {
          "internalType": "uint256",
          "name": "amt",
          "type": "uint256"
        }
      ],
      "name": "mint",
      "outputs": [],
      "stateMutability": "nonpayable",
      "type": "function"
    },
    {
      "inputs": [],
      "name": "name",
      "outputs": [
        {
          "internalType": "string",
          "name": "",
          "type": "string"
        }
      ],
      "stateMutability": "view",
      "type": "function"
    },
    {
      "inputs": [],
      "name": "symbol",
      "outputs": [
        {
          "internalType": "string",
          "name": "",
          "type": "string"
        }
      ],
      "stateMutability": "view",
      "type": "function"
    },
    {
      "inputs": [],
      "name": "totalSupply",
      "outputs": [
        {
          "internalType": "uint256",
          "name": "",
          "type": "uint256"
        }
      ],
      "stateMutability": "view",
      "type": "function"
    },
    {
      "inputs": [
        {
          "internalType": "address",
          "name": "dst",
          "type": "address"
        },
        {
          "internalType": "uint256",
          "name": "amt",
          "type": "uint256"
        }
      ],
      "name": "transfer",
      "outputs": [],
      "stateMutability": "nonpayable",
      "type": "function"
    },
    {
      "inputs": [
        {
          "internalType": "address",
          "name": "src",
          "type": "address"
        },
        {
          "internalType": "address",
          "name": "dst",
          "type": "address"
        },
        {
          "internalType": "uint256",
          "name": "amt",
          "type": "uint256"
        }
      ],
      "name": "transferFrom",
      "outputs": [],
      "stateMutability": "nonpayable",
      "type": "function"
    },
    {
      "inputs": [
        {
          "internalType": "address",
          "name": "newOwner",
          "type": "address"
        }
      ],
      "name": "transferOwnership",
      "outputs": [],
      "stateMutability": "nonpayable",
      "type": "function"
    }
  ],
  "transactionHash": "0x24c5853d0d2d09d4b56ff897554bc34b6b5099f023bf8af8df6c4709ef4f4d97",
  "args": [
    "Tether",
    "USDT",
    6
  ],
  "solcInputHash": "6583cdddc2eeda64ab14bc4f7facab44",
  "bytecode": "0x60806040523480156200001157600080fd5b5060405162000d7638038062000d76833981810160405260608110156200003757600080fd5b81019080805160405193929190846401000000008211156200005857600080fd5b9083019060208201858111156200006e57600080fd5b82516401000000008111828201881017156200008957600080fd5b82525081516020918201929091019080838360005b83811015620000b85781810151838201526020016200009e565b50505050905090810190601f168015620000e65780820380516001836020036101000a031916815260200191505b50604052602001805160405193929190846401000000008211156200010a57600080fd5b9083019060208201858111156200012057600080fd5b82516401000000008111828201881017156200013b57600080fd5b82525081516020918201929091019080838360005b838110156200016a57818101518382015260200162000150565b50505050905090810190601f168015620001985780820380516001836020036101000a031916815260200191505b506040526020908101518551909350620001b99250600091860190620001fe565b508151620001cf906001906020850190620001fe565b506002805460ff191660ff9290921691909117610100600160a81b0319166101003302179055506200029a9050565b828054600181600116156101000203166002900490600052602060002090601f016020900481019282601f106200024157805160ff191683800117855562000271565b8280016001018555821562000271579182015b828111156200027157825182559160200191906001019062000254565b506200027f92915062000283565b5090565b5b808211156200027f576000815560010162000284565b610acc80620002aa6000396000f3fe608060405234801561001057600080fd5b50600436106100ea5760003560e01c8063579158971161008c57806395d89b411161006657806395d89b41146102c0578063a9059cbb146102c8578063dd62ed3e146102f4578063f2fde38b14610322576100ea565b8063579158971461025157806370a082311461026e57806379cc679014610294576100ea565b806323b872dd116100c857806323b872dd146101b4578063313ce567146101ea57806340c10f191461020857806342966c6814610234576100ea565b806306fdde03146100ef578063095ea7b31461016c57806318160ddd1461019a575b600080fd5b6100f7610348565b6040805160208082528351818301528351919283929083019185019080838360005b83811015610131578181015183820152602001610119565b50505050905090810190601f16801561015e5780820380516001836020036101000a031916815260200191505b509250505060405180910390f35b6101986004803603604081101561018257600080fd5b506001600160a01b0381351690602001356103de565b005b6101a2610440565b60408051918252519081900360200190f35b610198600480360360608110156101ca57600080fd5b506001600160a01b03813581169160208101359091169060400135610446565b6101f261059e565b6040805160ff9092168252519081900360200190f35b6101986004803603604081101561021e57600080fd5b506001600160a01b0381351690602001356105a7565b6101986004803603602081101561024a57600080fd5b5035610609565b6101986004803603602081101561026757600080fd5b5035610663565b6101a26004803603602081101561028457600080fd5b50356001600160a01b031661066d565b610198600480360360408110156102aa57600080fd5b506001600160a01b038135169060200135610688565b6100f761073c565b610198600480360360408110156102de57600080fd5b506001600160a01b03813516906020013561079c565b6101a26004803603604081101561030a57600080fd5b506001600160a01b03813581169160200135166107a7565b6101986004803603602081101561033857600080fd5b50356001600160a01b03166107d4565b60008054604080516020601f60026000196101006001881615020190951694909404938401819004810282018101909252828152606093909290918301828280156103d45780601f106103a9576101008083540402835291602001916103d4565b820191906000526020600020905b8154815290600101906020018083116103b757829003601f168201915b5050505050905090565b3360008181526005602090815260408083206001600160a01b03871680855290835292819020859055805185815290519293927f8c5be1e5ebec7d5bd14f71427d1e84f3dd0314c0f7b2291e5b200ac8c7c3b925929181900390910190a35050565b60035490565b336001600160a01b038416148061048057506001600160a01b03831660009081526005602090815260408083203384529091529020548111155b6104bc576040805162461bcd60e51b815260206004820152600860248201526710b9b832b73232b960c11b604482015290519081900360640190fd5b6104c7838383610850565b336001600160a01b0384161480159061050557506001600160a01b038316600090815260056020908152604080832033845290915290205460001914155b15610599576001600160a01b03831660009081526005602090815260408083203384529091529020546105389082610954565b6001600160a01b03848116600090815260056020908152604080832033808552908352928190208590558051948552519286169391927f8c5be1e5ebec7d5bd14f71427d1e84f3dd0314c0f7b2291e5b200ac8c7c3b9259281900390910190a35b505050565b60025460ff1690565b60025461010090046001600160a01b031633146105fb576040805162461bcd60e51b815260206004820152600d60248201526c22a9292fa727aa2fa7aba722a960991b604482015290519081900360640190fd5b6106058282610964565b5050565b33600090815260046020526040902054811115610656576040805162461bcd60e51b815260206004808301919091526024820152630858985b60e21b604482015290519081900360640190fd5b61066033826109f5565b50565b6106603382610964565b6001600160a01b031660009081526004602052604090205490565b60025461010090046001600160a01b031633146106dc576040805162461bcd60e51b815260206004820152600d60248201526c22a9292fa727aa2fa7aba722a960991b604482015290519081900360640190fd5b6001600160a01b038216600090815260046020526040902054811115610732576040805162461bcd60e51b815260206004808301919091526024820152630858985b60e21b604482015290519081900360640190fd5b61060582826109f5565b60018054604080516020601f600260001961010087891615020190951694909404938401819004810282018101909252828152606093909290918301828280156103d45780601f106103a9576101008083540402835291602001916103d4565b610605338383610850565b6001600160a01b038083166000908152600560209081526040808320938516835292905220545b92915050565b60025461010090046001600160a01b03163314610828576040805162461bcd60e51b815260206004820152600d60248201526c22a9292fa727aa2fa7aba722a960991b604482015290519081900360640190fd5b600280546001600160a01b0390921661010002610100600160a81b0319909216919091179055565b6001600160a01b0383166000908152600460205260409020548111156108a6576040805162461bcd60e51b815260206004808301919091526024820152630858985b60e21b604482015290519081900360640190fd5b6001600160a01b0383166000908152600460205260409020546108c99082610954565b6001600160a01b0380851660009081526004602052604080822093909355908416815220546108f89082610a86565b6001600160a01b0380841660008181526004602090815260409182902094909455805185815290519193928716927fddf252ad1be2c89b69c2b068fc378daa952ba7f163c4a11628f55a4df523b3ef92918290030190a3505050565b808203828111156107ce57600080fd5b6001600160a01b0382166000908152600460205260409020546109879082610a86565b6001600160a01b0383166000908152600460205260409020556003546109ad9082610a86565b6003556040805182815290516001600160a01b038416916000917fddf252ad1be2c89b69c2b068fc378daa952ba7f163c4a11628f55a4df523b3ef9181900360200190a35050565b6001600160a01b038216600090815260046020526040902054610a189082610954565b6001600160a01b038316600090815260046020526040902055600354610a3e9082610954565b6003556040805182815290516000916001600160a01b038516917fddf252ad1be2c89b69c2b068fc378daa952ba7f163c4a11628f55a4df523b3ef9181900360200190a35050565b808201828110156107ce57600080fdfea26469706673582212202dc47f2d80416f72078646738c659e884e81b9df19c3d0f171e5dc6fc503297964736f6c634300060c0033",
  "devdoc": {
    "kind": "dev",
    "methods": {},
    "version": 1
  },
  "userdoc": {
    "kind": "user",
    "methods": {},
    "version": 1
  },
  "storageLayout": {
    "storage": [
      {
        "astId": 3,
        "contract": "contracts/metavault/mock/MockERC20NonStandard.sol:MockERC20NonStandard",
        "label": "_name",
        "offset": 0,
        "slot": "0",
        "type": "t_string_storage"
      },
      {
        "astId": 5,
        "contract": "contracts/metavault/mock/MockERC20NonStandard.sol:MockERC20NonStandard",
        "label": "_symbol",
        "offset": 0,
        "slot": "1",
        "type": "t_string_storage"
      },
      {
        "astId": 7,
        "contract": "contracts/metavault/mock/MockERC20NonStandard.sol:MockERC20NonStandard",
        "label": "_decimals",
        "offset": 0,
        "slot": "2",
        "type": "t_uint8"
      },
      {
        "astId": 9,
        "contract": "contracts/metavault/mock/MockERC20NonStandard.sol:MockERC20NonStandard",
        "label": "_owner",
        "offset": 1,
        "slot": "2",
        "type": "t_address"
      },
      {
        "astId": 11,
        "contract": "contracts/metavault/mock/MockERC20NonStandard.sol:MockERC20NonStandard",
        "label": "_totalSupply",
        "offset": 0,
        "slot": "3",
        "type": "t_uint256"
      },
      {
        "astId": 15,
        "contract": "contracts/metavault/mock/MockERC20NonStandard.sol:MockERC20NonStandard",
        "label": "_balance",
        "offset": 0,
        "slot": "4",
        "type": "t_mapping(t_address,t_uint256)"
      },
      {
        "astId": 21,
        "contract": "contracts/metavault/mock/MockERC20NonStandard.sol:MockERC20NonStandard",
        "label": "_allowance",
        "offset": 0,
        "slot": "5",
        "type": "t_mapping(t_address,t_mapping(t_address,t_uint256))"
      }
    ],
    "types": {
      "t_address": {
        "encoding": "inplace",
        "label": "address",
        "numberOfBytes": "20"
      },
      "t_mapping(t_address,t_mapping(t_address,t_uint256))": {
        "encoding": "mapping",
        "key": "t_address",
        "label": "mapping(address => mapping(address => uint256))",
        "numberOfBytes": "32",
        "value": "t_mapping(t_address,t_uint256)"
      },
      "t_mapping(t_address,t_uint256)": {
        "encoding": "mapping",
        "key": "t_address",
        "label": "mapping(address => uint256)",
        "numberOfBytes": "32",
        "value": "t_uint256"
      },
      "t_string_storage": {
        "encoding": "bytes",
        "label": "string",
        "numberOfBytes": "32"
      },
      "t_uint256": {
        "encoding": "inplace",
        "label": "uint256",
        "numberOfBytes": "32"
      },
      "t_uint8": {
        "encoding": "inplace",
        "label": "uint8",
        "numberOfBytes": "1"
      }
    }
  }
}