{
  "address": "0x448223929ab973E3d97afc5A7bE48f2d74651497",
  "abi": [
    {
      "inputs": [
        {
          "internalType": "address",
          "name": "_vault",
          "type": "address"
        },
        {
          "internalType": "uint256",
          "name": "_amount",
          "type": "uint256"
        }
      ],
      "name": "depositVault",
      "outputs": [],
      "stateMutability": "nonpayable",
      "type": "function"
    },
    {
      "inputs": [
        {
          "internalType": "address",
          "name": "_vault",
          "type": "address"
        },
        {
          "internalType": "uint256",
          "name": "_amount",
          "type": "uint256"
        }
      ],
      "name": "withdrawVault",
      "outputs": [],
      "stateMutability": "nonpayable",
      "type": "function"
    }
  ],
  "transactionHash": "0xd9ccb2fc41befa17b3c98feca9b13ca9a6e1395e2c229c3f87c6be1b7fbddbbc",
  "args": [],
  "solcInputHash": "39b59b8416d0b0014a452466e334885c",
  "bytecode": "0x608060405234801561001057600080fd5b50610d02806100206000396000f3fe608060405234801561001057600080fd5b50600436106100365760003560e01c80639804dab91461003b578063b5fdf33014610069575b600080fd5b6100676004803603604081101561005157600080fd5b506001600160a01b038135169060200135610095565b005b6100676004803603604081101561007f57600080fd5b506001600160a01b0381351690602001356104a2565b6000826001600160a01b031663a6f19c846040518163ffffffff1660e01b8152600401602060405180830381600087803b1580156100d257600080fd5b505af11580156100e6573d6000803e3d6000fd5b505050506040513d60208110156100fc57600080fd5b5051604080516321df0da760e01b815290519192506000916001600160a01b038616916321df0da7916004808301926020929190829003018186803b15801561014457600080fd5b505afa158015610158573d6000803e3d6000fd5b505050506040513d602081101561016e57600080fd5b505160408051633c1aa92560e01b815290519192506000916001600160a01b03871691633c1aa925916004808301926020929190829003018186803b1580156101b657600080fd5b505afa1580156101ca573d6000803e3d6000fd5b505050506040513d60208110156101e057600080fd5b505190506001600160a01b038316156103d7576102086001600160a01b0384163330876107b0565b826001600160a01b0316632e1a7d4d856040518263ffffffff1660e01b815260040180828152602001915050600060405180830381600087803b15801561024e57600080fd5b505af1158015610262573d6000803e3d6000fd5b50505050846001600160a01b0316632e1a7d4d826001600160a01b03166370a08231306040518263ffffffff1660e01b815260040180826001600160a01b0316815260200191505060206040518083038186803b1580156102c257600080fd5b505afa1580156102d6573d6000803e3d6000fd5b505050506040513d60208110156102ec57600080fd5b5051604080516001600160e01b031960e085901b168152600481019290925251602480830192600092919082900301818387803b15801561032c57600080fd5b505af1158015610340573d6000803e3d6000fd5b505050506103d233836001600160a01b03166370a08231306040518263ffffffff1660e01b815260040180826001600160a01b0316815260200191505060206040518083038186803b15801561039557600080fd5b505afa1580156103a9573d6000803e3d6000fd5b505050506040513d60208110156103bf57600080fd5b50516001600160a01b0385169190610810565b61049b565b6103ec6001600160a01b0382163330876107b0565b846001600160a01b0316632e1a7d4d856040518263ffffffff1660e01b815260040180828152602001915050600060405180830381600087803b15801561043257600080fd5b505af1158015610446573d6000803e3d6000fd5b5050505061049b33836001600160a01b03166370a08231306040518263ffffffff1660e01b815260040180826001600160a01b0316815260200191505060206040518083038186803b15801561039557600080fd5b5050505050565b600081116104e2576040805162461bcd60e51b81526020600482015260086024820152670857d85b5bdd5b9d60c21b604482015290519081900360640190fd5b6000826001600160a01b03166321df0da76040518163ffffffff1660e01b815260040160206040518083038186803b15801561051d57600080fd5b505afa158015610531573d6000803e3d6000fd5b505050506040513d602081101561054757600080fd5b505160408051633c1aa92560e01b815290519192506000916001600160a01b03861691633c1aa925916004808301926020929190829003018186803b15801561058f57600080fd5b505afa1580156105a3573d6000803e3d6000fd5b505050506040513d60208110156105b957600080fd5b505190506105d26001600160a01b0383163330866107b0565b6105e76001600160a01b038316856000610867565b6105fb6001600160a01b0383168585610867565b6000846001600160a01b031663b6b55f25856040518263ffffffff1660e01b815260040180828152602001915050602060405180830381600087803b15801561064357600080fd5b505af1158015610657573d6000803e3d6000fd5b505050506040513d602081101561066d57600080fd5b5051604080516329bc672160e21b815290519192506000916001600160a01b0388169163a6f19c8491600480830192602092919082900301818787803b1580156106b657600080fd5b505af11580156106ca573d6000803e3d6000fd5b505050506040513d60208110156106e057600080fd5b505190506001600160a01b03811615610794576107086001600160a01b038416826000610867565b61071c6001600160a01b0384168284610867565b806001600160a01b031663b6b55f25836040518263ffffffff1660e01b815260040180828152602001915050600060405180830381600087803b15801561076257600080fd5b505af1158015610776573d6000803e3d6000fd5b5061078f925050506001600160a01b0382163384610810565b6107a8565b6107a86001600160a01b0384163384610810565b505050505050565b604080516001600160a01b0380861660248301528416604482015260648082018490528251808303909101815260849091019091526020810180516001600160e01b03166323b872dd60e01b17905261080a908590610976565b50505050565b604080516001600160a01b038416602482015260448082018490528251808303909101815260649091019091526020810180516001600160e01b031663a9059cbb60e01b179052610862908490610976565b505050565b8015806108ed575060408051636eb1769f60e11b81523060048201526001600160a01b03848116602483015291519185169163dd62ed3e91604480820192602092909190829003018186803b1580156108bf57600080fd5b505afa1580156108d3573d6000803e3d6000fd5b505050506040513d60208110156108e957600080fd5b5051155b6109285760405162461bcd60e51b8152600401808060200182810382526036815260200180610c976036913960400191505060405180910390fd5b604080516001600160a01b038416602482015260448082018490528251808303909101815260649091019091526020810180516001600160e01b031663095ea7b360e01b1790526108629084905b60606109cb826040518060400160405280602081526020017f5361666545524332303a206c6f772d6c6576656c2063616c6c206661696c6564815250856001600160a01b0316610a279092919063ffffffff16565b805190915015610862578080602001905160208110156109ea57600080fd5b50516108625760405162461bcd60e51b815260040180806020018281038252602a815260200180610c6d602a913960400191505060405180910390fd5b6060610a368484600085610a40565b90505b9392505050565b606082471015610a815760405162461bcd60e51b8152600401808060200182810382526026815260200180610c476026913960400191505060405180910390fd5b610a8a85610b9c565b610adb576040805162461bcd60e51b815260206004820152601d60248201527f416464726573733a2063616c6c20746f206e6f6e2d636f6e7472616374000000604482015290519081900360640190fd5b60006060866001600160a01b031685876040518082805190602001908083835b60208310610b1a5780518252601f199092019160209182019101610afb565b6001836020036101000a03801982511681845116808217855250505050505090500191505060006040518083038185875af1925050503d8060008114610b7c576040519150601f19603f3d011682016040523d82523d6000602084013e610b81565b606091505b5091509150610b91828286610ba2565b979650505050505050565b3b151590565b60608315610bb1575081610a39565b825115610bc15782518084602001fd5b8160405162461bcd60e51b81526004018080602001828103825283818151815260200191508051906020019080838360005b83811015610c0b578181015183820152602001610bf3565b50505050905090810190601f168015610c385780820380516001836020036101000a031916815260200191505b509250505060405180910390fdfe416464726573733a20696e73756666696369656e742062616c616e636520666f722063616c6c5361666545524332303a204552433230206f7065726174696f6e20646964206e6f7420737563636565645361666545524332303a20617070726f76652066726f6d206e6f6e2d7a65726f20746f206e6f6e2d7a65726f20616c6c6f77616e6365a2646970667358221220838a6f31842ac37713adab023ad6887a188b15b7dc3a5409542719bf148f12a864736f6c634300060c0033",
  "devdoc": {
    "details": "This contract has no state and could be deployed by anyone if they didn't trust the original deployer.",
    "kind": "dev",
    "methods": {
      "depositVault(address,uint256)": {
        "details": "Users must approve the vault helper to spend their token",
        "params": {
          "_amount": "The amount of tokens to deposit",
          "_vault": "The address of the vault"
        }
      }
    },
    "title": "VaultHelper",
    "version": 1
  },
  "userdoc": {
    "kind": "user",
    "methods": {
      "depositVault(address,uint256)": {
        "notice": "Deposits into the specified vault and stakes in the gauge"
      }
    },
    "notice": "The VaultHelper acts as a single contract that users may set token approvals on for any token of any vault.",
    "version": 1
  },
  "storageLayout": {
    "storage": [],
    "types": null
  }
}