{
  "address": "0x7B7d56D4c7867e4e342be25eDaCe27dc97601Ea5",
  "abi": [
    {
      "inputs": [
        {
          "internalType": "string",
          "name": "_name",
          "type": "string"
        },
        {
          "internalType": "string",
          "name": "_symbol",
          "type": "string"
        },
        {
          "internalType": "address",
          "name": "_manager",
          "type": "address"
        }
      ],
      "stateMutability": "nonpayable",
      "type": "constructor"
    },
    {
      "anonymous": false,
      "inputs": [
        {
          "indexed": true,
          "internalType": "address",
          "name": "owner",
          "type": "address"
        },
        {
          "indexed": true,
          "internalType": "address",
          "name": "spender",
          "type": "address"
        },
        {
          "indexed": false,
          "internalType": "uint256",
          "name": "value",
          "type": "uint256"
        }
      ],
      "name": "Approval",
      "type": "event"
    },
    {
      "anonymous": false,
      "inputs": [
        {
          "indexed": true,
          "internalType": "address",
          "name": "account",
          "type": "address"
        },
        {
          "indexed": false,
          "internalType": "uint256",
          "name": "amount",
          "type": "uint256"
        }
      ],
      "name": "Deposit",
      "type": "event"
    },
    {
      "anonymous": false,
      "inputs": [
        {
          "indexed": true,
          "internalType": "address",
          "name": "token",
          "type": "address"
        },
        {
          "indexed": false,
          "internalType": "uint256",
          "name": "amount",
          "type": "uint256"
        }
      ],
      "name": "Earn",
      "type": "event"
    },
    {
      "anonymous": false,
      "inputs": [
        {
          "indexed": true,
          "internalType": "address",
          "name": "from",
          "type": "address"
        },
        {
          "indexed": true,
          "internalType": "address",
          "name": "to",
          "type": "address"
        },
        {
          "indexed": false,
          "internalType": "uint256",
          "name": "value",
          "type": "uint256"
        },
        {
          "indexed": false,
          "internalType": "bytes",
          "name": "data",
          "type": "bytes"
        }
      ],
      "name": "Transfer",
      "type": "event"
    },
    {
      "anonymous": false,
      "inputs": [
        {
          "indexed": true,
          "internalType": "address",
          "name": "from",
          "type": "address"
        },
        {
          "indexed": true,
          "internalType": "address",
          "name": "to",
          "type": "address"
        },
        {
          "indexed": false,
          "internalType": "uint256",
          "name": "value",
          "type": "uint256"
        }
      ],
      "name": "Transfer",
      "type": "event"
    },
    {
      "anonymous": false,
      "inputs": [
        {
          "indexed": true,
          "internalType": "address",
          "name": "account",
          "type": "address"
        },
        {
          "indexed": false,
          "internalType": "uint256",
          "name": "amount",
          "type": "uint256"
        }
      ],
      "name": "Withdraw",
      "type": "event"
    },
    {
      "inputs": [],
      "name": "MAX",
      "outputs": [
        {
          "internalType": "uint256",
          "name": "",
          "type": "uint256"
        }
      ],
      "stateMutability": "view",
      "type": "function"
    },
    {
      "inputs": [
        {
          "internalType": "address",
          "name": "owner",
          "type": "address"
        },
        {
          "internalType": "address",
          "name": "spender",
          "type": "address"
        }
      ],
      "name": "allowance",
      "outputs": [
        {
          "internalType": "uint256",
          "name": "",
          "type": "uint256"
        }
      ],
      "stateMutability": "view",
      "type": "function"
    },
    {
      "inputs": [
        {
          "internalType": "address",
          "name": "spender",
          "type": "address"
        },
        {
          "internalType": "uint256",
          "name": "amount",
          "type": "uint256"
        }
      ],
      "name": "approve",
      "outputs": [
        {
          "internalType": "bool",
          "name": "",
          "type": "bool"
        }
      ],
      "stateMutability": "nonpayable",
      "type": "function"
    },
    {
      "inputs": [
        {
          "internalType": "address",
          "name": "_token",
          "type": "address"
        }
      ],
      "name": "available",
      "outputs": [
        {
          "internalType": "uint256",
          "name": "",
          "type": "uint256"
        }
      ],
      "stateMutability": "view",
      "type": "function"
    },
    {
      "inputs": [],
      "name": "balance",
      "outputs": [
        {
          "internalType": "uint256",
          "name": "_balance",
          "type": "uint256"
        }
      ],
      "stateMutability": "view",
      "type": "function"
    },
    {
      "inputs": [
        {
          "internalType": "address",
          "name": "account",
          "type": "address"
        }
      ],
      "name": "balanceOf",
      "outputs": [
        {
          "internalType": "uint256",
          "name": "",
          "type": "uint256"
        }
      ],
      "stateMutability": "view",
      "type": "function"
    },
    {
      "inputs": [],
      "name": "balanceOfThis",
      "outputs": [
        {
          "internalType": "uint256",
          "name": "_balance",
          "type": "uint256"
        }
      ],
      "stateMutability": "view",
      "type": "function"
    },
    {
      "inputs": [],
      "name": "decimals",
      "outputs": [
        {
          "internalType": "uint8",
          "name": "",
          "type": "uint8"
        }
      ],
      "stateMutability": "view",
      "type": "function"
    },
    {
      "inputs": [
        {
          "internalType": "address",
          "name": "spender",
          "type": "address"
        },
        {
          "internalType": "uint256",
          "name": "subtractedValue",
          "type": "uint256"
        }
      ],
      "name": "decreaseAllowance",
      "outputs": [
        {
          "internalType": "bool",
          "name": "",
          "type": "bool"
        }
      ],
      "stateMutability": "nonpayable",
      "type": "function"
    },
    {
      "inputs": [
        {
          "internalType": "address",
          "name": "spender",
          "type": "address"
        },
        {
          "internalType": "uint256",
          "name": "subtractedValue",
          "type": "uint256"
        }
      ],
      "name": "decreaseApproval",
      "outputs": [
        {
          "internalType": "bool",
          "name": "",
          "type": "bool"
        }
      ],
      "stateMutability": "nonpayable",
      "type": "function"
    },
    {
      "inputs": [
        {
          "internalType": "address",
          "name": "_token",
          "type": "address"
        },
        {
          "internalType": "uint256",
          "name": "_amount",
          "type": "uint256"
        }
      ],
      "name": "deposit",
      "outputs": [
        {
          "internalType": "uint256",
          "name": "_shares",
          "type": "uint256"
        }
      ],
      "stateMutability": "nonpayable",
      "type": "function"
    },
    {
      "inputs": [
        {
          "internalType": "address[]",
          "name": "_tokens",
          "type": "address[]"
        },
        {
          "internalType": "uint256[]",
          "name": "_amounts",
          "type": "uint256[]"
        }
      ],
      "name": "depositMultiple",
      "outputs": [
        {
          "internalType": "uint256",
          "name": "_shares",
          "type": "uint256"
        }
      ],
      "stateMutability": "nonpayable",
      "type": "function"
    },
    {
      "inputs": [
        {
          "internalType": "address",
          "name": "_token",
          "type": "address"
        },
        {
          "internalType": "address",
          "name": "_strategy",
          "type": "address"
        }
      ],
      "name": "earn",
      "outputs": [],
      "stateMutability": "nonpayable",
      "type": "function"
    },
    {
      "inputs": [],
      "name": "gauge",
      "outputs": [
        {
          "internalType": "address",
          "name": "",
          "type": "address"
        }
      ],
      "stateMutability": "view",
      "type": "function"
    },
    {
      "inputs": [],
      "name": "getPricePerFullShare",
      "outputs": [
        {
          "internalType": "uint256",
          "name": "",
          "type": "uint256"
        }
      ],
      "stateMutability": "view",
      "type": "function"
    },
    {
      "inputs": [],
      "name": "getTokens",
      "outputs": [
        {
          "internalType": "address[]",
          "name": "",
          "type": "address[]"
        }
      ],
      "stateMutability": "view",
      "type": "function"
    },
    {
      "inputs": [
        {
          "internalType": "address",
          "name": "spender",
          "type": "address"
        },
        {
          "internalType": "uint256",
          "name": "addedValue",
          "type": "uint256"
        }
      ],
      "name": "increaseAllowance",
      "outputs": [
        {
          "internalType": "bool",
          "name": "",
          "type": "bool"
        }
      ],
      "stateMutability": "nonpayable",
      "type": "function"
    },
    {
      "inputs": [
        {
          "internalType": "address",
          "name": "spender",
          "type": "address"
        },
        {
          "internalType": "uint256",
          "name": "addedValue",
          "type": "uint256"
        }
      ],
      "name": "increaseApproval",
      "outputs": [
        {
          "internalType": "bool",
          "name": "",
          "type": "bool"
        }
      ],
      "stateMutability": "nonpayable",
      "type": "function"
    },
    {
      "inputs": [],
      "name": "manager",
      "outputs": [
        {
          "internalType": "contract IManager",
          "name": "",
          "type": "address"
        }
      ],
      "stateMutability": "view",
      "type": "function"
    },
    {
      "inputs": [],
      "name": "min",
      "outputs": [
        {
          "internalType": "uint256",
          "name": "",
          "type": "uint256"
        }
      ],
      "stateMutability": "view",
      "type": "function"
    },
    {
      "inputs": [],
      "name": "name",
      "outputs": [
        {
          "internalType": "string",
          "name": "",
          "type": "string"
        }
      ],
      "stateMutability": "view",
      "type": "function"
    },
    {
      "inputs": [
        {
          "internalType": "address",
          "name": "_gauge",
          "type": "address"
        }
      ],
      "name": "setGauge",
      "outputs": [],
      "stateMutability": "nonpayable",
      "type": "function"
    },
    {
      "inputs": [
        {
          "internalType": "uint256",
          "name": "_min",
          "type": "uint256"
        }
      ],
      "name": "setMin",
      "outputs": [],
      "stateMutability": "nonpayable",
      "type": "function"
    },
    {
      "inputs": [
        {
          "internalType": "uint256",
          "name": "_totalDepositCap",
          "type": "uint256"
        }
      ],
      "name": "setTotalDepositCap",
      "outputs": [],
      "stateMutability": "nonpayable",
      "type": "function"
    },
    {
      "inputs": [],
      "name": "symbol",
      "outputs": [
        {
          "internalType": "string",
          "name": "",
          "type": "string"
        }
      ],
      "stateMutability": "view",
      "type": "function"
    },
    {
      "inputs": [],
      "name": "totalDepositCap",
      "outputs": [
        {
          "internalType": "uint256",
          "name": "",
          "type": "uint256"
        }
      ],
      "stateMutability": "view",
      "type": "function"
    },
    {
      "inputs": [],
      "name": "totalSupply",
      "outputs": [
        {
          "internalType": "uint256",
          "name": "",
          "type": "uint256"
        }
      ],
      "stateMutability": "view",
      "type": "function"
    },
    {
      "inputs": [
        {
          "internalType": "address",
          "name": "recipient",
          "type": "address"
        },
        {
          "internalType": "uint256",
          "name": "amount",
          "type": "uint256"
        }
      ],
      "name": "transfer",
      "outputs": [
        {
          "internalType": "bool",
          "name": "",
          "type": "bool"
        }
      ],
      "stateMutability": "nonpayable",
      "type": "function"
    },
    {
      "inputs": [
        {
          "internalType": "address",
          "name": "_to",
          "type": "address"
        },
        {
          "internalType": "uint256",
          "name": "_value",
          "type": "uint256"
        },
        {
          "internalType": "bytes",
          "name": "_data",
          "type": "bytes"
        }
      ],
      "name": "transferAndCall",
      "outputs": [
        {
          "internalType": "bool",
          "name": "success",
          "type": "bool"
        }
      ],
      "stateMutability": "nonpayable",
      "type": "function"
    },
    {
      "inputs": [
        {
          "internalType": "address",
          "name": "sender",
          "type": "address"
        },
        {
          "internalType": "address",
          "name": "recipient",
          "type": "address"
        },
        {
          "internalType": "uint256",
          "name": "amount",
          "type": "uint256"
        }
      ],
      "name": "transferFrom",
      "outputs": [
        {
          "internalType": "bool",
          "name": "",
          "type": "bool"
        }
      ],
      "stateMutability": "nonpayable",
      "type": "function"
    },
    {
      "inputs": [
        {
          "internalType": "uint256",
          "name": "_shares",
          "type": "uint256"
        },
        {
          "internalType": "address",
          "name": "_output",
          "type": "address"
        }
      ],
      "name": "withdraw",
      "outputs": [],
      "stateMutability": "nonpayable",
      "type": "function"
    },
    {
      "inputs": [
        {
          "internalType": "address",
          "name": "_output",
          "type": "address"
        }
      ],
      "name": "withdrawAll",
      "outputs": [],
      "stateMutability": "nonpayable",
      "type": "function"
    },
    {
      "inputs": [
        {
          "internalType": "uint256",
          "name": "_amount",
          "type": "uint256"
        }
      ],
      "name": "withdrawFee",
      "outputs": [
        {
          "internalType": "uint256",
          "name": "",
          "type": "uint256"
        }
      ],
      "stateMutability": "view",
      "type": "function"
    }
  ],
  "transactionHash": "0x5e8ae211d61c1c7ce1632ee0ee66e9262c1f2d1dc07e82dad6756181b42c4891",
  "args": [
    "yAxis Stablecoin Canonical Vault",
    "CV:S",
    "0x14442404194202daFBA6AED4Fe65423768aC249a"
  ],
  "solcInputHash": "ed02ffea74d81360ebf7246e8a46eb27",
  "bytecode": "0x60a06040523480156200001157600080fd5b506040516200365f3803806200365f833981810160405260608110156200003757600080fd5b81019080805160405193929190846401000000008211156200005857600080fd5b9083019060208201858111156200006e57600080fd5b82516401000000008111828201881017156200008957600080fd5b82525081516020918201929091019080838360005b83811015620000b85781810151838201526020016200009e565b50505050905090810190601f168015620000e65780820380516001836020036101000a031916815260200191505b50604052602001805160405193929190846401000000008211156200010a57600080fd5b9083019060208201858111156200012057600080fd5b82516401000000008111828201881017156200013b57600080fd5b82525081516020918201929091019080838360005b838110156200016a57818101518382015260200162000150565b50505050905090810190601f168015620001985780820380516001836020036101000a031916815260200191505b506040526020908101518551909350859250849183918391620001c19160039185019062000218565b508051620001d790600490602084019062000218565b505060058054601260ff1990911617905550505060601b6001600160601b031916608052505061251c6006556a084595161401484a000000600755620002b4565b828054600181600116156101000203166002900490600052602060002090601f016020900481019282601f106200025b57805160ff19168380011785556200028b565b828001600101855582156200028b579182015b828111156200028b5782518255916020019190600101906200026e565b50620002999291506200029d565b5090565b5b808211156200029957600081556001016200029e565b60805160601c6133296200033660003980610858528061098e5280610f0d5280610fcd52806111275280611433528061145752806115175280611665528061172552806117f352806118cc5280611b1e5280611ce95280611f7752806120b552806121db52806122715280612331528061242252806124cc52506133296000f3fe608060405234801561001057600080fd5b50600436106101fa5760003560e01c806370a082311161011a578063aa6ca808116100ad578063d73dd6231161007c578063d73dd62314610739578063dd62ed3e14610765578063ebbf5c1714610793578063f8897945146107b0578063fa09e630146107b8576101fa565b8063aa6ca808146106b4578063b69ef8a81461070c578063be35761614610714578063d49d518114610731576101fa565b8063999eb6b1116100e9578063999eb6b11461064c578063a457c2d714610654578063a6f19c8414610680578063a9059cbb14610688576101fa565b806370a082311461055857806377c7b8fc1461057e578063797e566c1461058657806395d89b4114610644576101fa565b80634000aea01161019257806355a68ed31161016157806355a68ed3146104d05780635db88e85146104f657806366188463146104fe5780636bc9a5a91461052a576101fa565b80634000aea0146103aa57806345dc3dd81461046357806347e7ef2414610480578063481c6a75146104ac576101fa565b806318160ddd116101ce57806318160ddd1461032257806323b872dd1461032a578063313ce56714610360578063395093511461037e576101fa565b8062f714ce146101ff57806306fdde031461022d578063095ea7b3146102aa57806310098ad5146102ea575b600080fd5b61022b6004803603604081101561021557600080fd5b50803590602001356001600160a01b03166107de565b005b610235610c09565b6040805160208082528351818301528351919283929083019185019080838360005b8381101561026f578181015183820152602001610257565b50505050905090810190601f16801561029c5780820380516001836020036101000a031916815260200191505b509250505060405180910390f35b6102d6600480360360408110156102c057600080fd5b506001600160a01b038135169060200135610ca0565b604080519115158252519081900360200190f35b6103106004803603602081101561030057600080fd5b50356001600160a01b0316610cbe565b60408051918252519081900360200190f35b610310610d4b565b6102d66004803603606081101561034057600080fd5b506001600160a01b03813581169160208101359091169060400135610d51565b610368610dd9565b6040805160ff9092168252519081900360200190f35b6102d66004803603604081101561039457600080fd5b506001600160a01b038135169060200135610de2565b6102d6600480360360608110156103c057600080fd5b6001600160a01b0382351691602081013591810190606081016040820135600160201b8111156103ef57600080fd5b82018360208201111561040157600080fd5b803590602001918460018302840111600160201b8311171561042257600080fd5b91908080601f016020809104026020016040519081016040528093929190818152602001838380828437600092019190915250929550610e30945050505050565b61022b6004803603602081101561047957600080fd5b5035610f0b565b6103106004803603604081101561049657600080fd5b506001600160a01b0381351690602001356110de565b6104b4611431565b604080516001600160a01b039092168252519081900360200190f35b61022b600480360360208110156104e657600080fd5b50356001600160a01b0316611455565b61031061160c565b6102d66004803603604081101561051457600080fd5b506001600160a01b038135169060200135611612565b61022b6004803603604081101561054057600080fd5b506001600160a01b038135811691602001351661161e565b6103106004803603602081101561056e57600080fd5b50356001600160a01b0316611ac0565b610310611adb565b6103106004803603604081101561059c57600080fd5b810190602081018135600160201b8111156105b657600080fd5b8201836020820111156105c857600080fd5b803590602001918460208302840111600160201b831117156105e957600080fd5b919390929091602081019035600160201b81111561060657600080fd5b82018360208201111561061857600080fd5b803590602001918460208302840111600160201b8311171561063957600080fd5b509092509050611b1a565b610235611c82565b610310611ce3565b6102d66004803603604081101561066a57600080fd5b506001600160a01b038135169060200135611ee3565b6104b4611f4b565b6102d66004803603604081101561069e57600080fd5b506001600160a01b038135169060200135611f5f565b6106bc611f73565b60408051602080825283518183015283519192839290830191858101910280838360005b838110156106f85781810151838201526020016106e0565b505050509050019250505060405180910390f35b6103106120ae565b6103106004803603602081101561072a57600080fd5b50356121cd565b610310612232565b6102d66004803603604081101561074f57600080fd5b506001600160a01b038135169060200135612238565b6103106004803603604081101561077b57600080fd5b506001600160a01b0381358116916020013516612244565b61022b600480360360208110156107a957600080fd5b503561226f565b610310612403565b61022b600480360360208110156107ce57600080fd5b50356001600160a01b0316612409565b806107e88161241e565b610823576040805162461bcd60e51b815260206004820152600760248201526610afba37b5b2b760c91b604482015290519081900360640190fd5b6000610848610830610d4b565b6108428661083c6120ae565b90612573565b906125cc565b9050610854338561260e565b60007f00000000000000000000000000000000000000000000000000000000000000006001600160a01b031663825139096040518163ffffffff1660e01b815260040160206040518083038186803b1580156108af57600080fd5b505afa1580156108c3573d6000803e3d6000fd5b505050506040513d60208110156108d957600080fd5b5051905080156109055760006108f56127106108428585612573565b9050610901838261270a565b9250505b6000846001600160a01b03166370a08231306040518263ffffffff1660e01b815260040180826001600160a01b0316815260200191505060206040518083038186803b15801561095457600080fd5b505afa158015610968573d6000803e3d6000fd5b505050506040513d602081101561097e57600080fd5b5051905082811015610bb75760007f00000000000000000000000000000000000000000000000000000000000000006001600160a01b031663da8c229e306040518263ffffffff1660e01b815260040180826001600160a01b0316815260200191505060206040518083038186803b1580156109f957600080fd5b505afa158015610a0d573d6000803e3d6000fd5b505050506040513d6020811015610a2357600080fd5b505190506000610a33858461270a565b90506000826001600160a01b031663d9f9027f6040518163ffffffff1660e01b815260040160206040518083038186803b158015610a7057600080fd5b505afa158015610a84573d6000803e3d6000fd5b505050506040513d6020811015610a9a57600080fd5b50511115610b1257816001600160a01b031663f3fef3a388836040518363ffffffff1660e01b815260040180836001600160a01b0316815260200182815260200192505050600060405180830381600087803b158015610af957600080fd5b505af1158015610b0d573d6000803e3d6000fd5b505050505b6000876001600160a01b03166370a08231306040518263ffffffff1660e01b815260040180826001600160a01b0316815260200191505060206040518083038186803b158015610b6157600080fd5b505afa158015610b75573d6000803e3d6000fd5b505050506040513d6020811015610b8b57600080fd5b505190506000610b9b828661270a565b905082811015610bb257610baf858261274c565b96505b505050505b610bcb6001600160a01b03861633856127a6565b60408051848152905133917f884edad9ce6fa2440d8a54cc123490eb96d2768479d49ff9c7366125a9424364919081900360200190a2505050505050565b60038054604080516020601f6002600019610100600188161502019095169490940493840181900481028201810190925282815260609390929091830182828015610c955780601f10610c6a57610100808354040283529160200191610c95565b820191906000526020600020905b815481529060010190602001808311610c7857829003601f168201915b505050505090505b90565b6000610cb4610cad6127fd565b8484612801565b5060015b92915050565b6000610cb8612710610842600654856001600160a01b03166370a08231306040518263ffffffff1660e01b815260040180826001600160a01b0316815260200191505060206040518083038186803b158015610d1957600080fd5b505afa158015610d2d573d6000803e3d6000fd5b505050506040513d6020811015610d4357600080fd5b505190612573565b60025490565b6000610d5e84848461285b565b610dce84610d6a6127fd565b610dc985604051806060016040528060288152602001613213602891396001600160a01b038a16600090815260016020526040812090610da86127fd565b6001600160a01b0316815260208101919091526040016000205491906128b5565b612801565b5060015b9392505050565b60055460ff1690565b6000610cb4610def6127fd565b84610dc98560016000610e006127fd565b6001600160a01b03908116825260208083019390935260409182016000908120918c16815292529020549061274c565b6000610e3c8484611f5f565b50836001600160a01b0316336001600160a01b03167fe19260aff97b920c7df27010903aeb9c8d2be5d310a2c67824cf3f15396e4c1685856040518083815260200180602001828103825283818151815260200191508051906020019080838360005b83811015610eb7578181015183820152602001610e9f565b50505050905090810190601f168015610ee45780820380516001836020036101000a031916815260200191505b50935050505060405180910390a3610efb8461294c565b15610dce57610dce848484612952565b7f00000000000000000000000000000000000000000000000000000000000000006001600160a01b031663b9b8af0b6040518163ffffffff1660e01b815260040160206040518083038186803b158015610f6457600080fd5b505afa158015610f78573d6000803e3d6000fd5b505050506040513d6020811015610f8e57600080fd5b505115610fcb576040805162461bcd60e51b81526020600482015260066024820152651a185b1d195960d21b604482015290519081900360640190fd5b7f00000000000000000000000000000000000000000000000000000000000000006001600160a01b0316631fe4a6866040518163ffffffff1660e01b815260040160206040518083038186803b15801561102457600080fd5b505afa158015611038573d6000803e3d6000fd5b505050506040513d602081101561104e57600080fd5b50516001600160a01b0316331461109a576040805162461bcd60e51b815260206004820152600b60248201526a085cdd1c985d1959da5cdd60aa1b604482015290519081900360640190fd5b6127108111156110d9576040805162461bcd60e51b815260206004820152600560248201526410afb6b4b760d91b604482015290519081900360640190fd5b600655565b6000826110ea8161241e565b611125576040805162461bcd60e51b815260206004820152600760248201526610afba37b5b2b760c91b604482015290519081900360640190fd5b7f00000000000000000000000000000000000000000000000000000000000000006001600160a01b031663b9b8af0b6040518163ffffffff1660e01b815260040160206040518083038186803b15801561117e57600080fd5b505afa158015611192573d6000803e3d6000fd5b505050506040513d60208110156111a857600080fd5b5051156111e5576040805162461bcd60e51b81526020600482015260066024820152651a185b1d195960d21b604482015290519081900360640190fd5b60008311611225576040805162461bcd60e51b81526020600482015260086024820152670857d85b5bdd5b9d60c21b604482015290519081900360640190fd5b600061122f6120ae565b90506000856001600160a01b03166370a08231306040518263ffffffff1660e01b815260040180826001600160a01b0316815260200191505060206040518083038186803b15801561128057600080fd5b505afa158015611294573d6000803e3d6000fd5b505050506040513d60208110156112aa57600080fd5b505190506112c36001600160a01b038716333088612a2c565b61134681876001600160a01b03166370a08231306040518263ffffffff1660e01b815260040180826001600160a01b0316815260200191505060206040518083038186803b15801561131457600080fd5b505afa158015611328573d6000803e3d6000fd5b505050506040513d602081101561133e57600080fd5b50519061270a565b94508415611390576113588686612a86565b94506000611364610d4b565b11156113835761138082610842611379610d4b565b8890612573565b94505b61138d848661274c565b93505b8315611428576113a03385612b18565b6007546113ab610d4b565b11156113f1576040805162461bcd60e51b815260206004820152601060248201526f03e746f74616c4465706f7369744361760841b604482015290519081900360640190fd5b60408051858152905133917fe1fffcc4923d04b559f4d29a8bfc6cda04eb5b0d3c460751c2402c5c5cc9109c919081900360200190a25b50505092915050565b7f000000000000000000000000000000000000000000000000000000000000000081565b7f00000000000000000000000000000000000000000000000000000000000000006001600160a01b031663b9b8af0b6040518163ffffffff1660e01b815260040160206040518083038186803b1580156114ae57600080fd5b505afa1580156114c2573d6000803e3d6000fd5b505050506040513d60208110156114d857600080fd5b505115611515576040805162461bcd60e51b81526020600482015260066024820152651a185b1d195960d21b604482015290519081900360640190fd5b7f00000000000000000000000000000000000000000000000000000000000000006001600160a01b0316631fe4a6866040518163ffffffff1660e01b815260040160206040518083038186803b15801561156e57600080fd5b505afa158015611582573d6000803e3d6000fd5b505050506040513d602081101561159857600080fd5b50516001600160a01b031633146115e4576040805162461bcd60e51b815260206004820152600b60248201526a085cdd1c985d1959da5cdd60aa1b604482015290519081900360640190fd5b600580546001600160a01b0390921661010002610100600160a81b0319909216919091179055565b60075481565b6000610dd28383611ee3565b816116288161241e565b611663576040805162461bcd60e51b815260206004820152600760248201526610afba37b5b2b760c91b604482015290519081900360640190fd5b7f00000000000000000000000000000000000000000000000000000000000000006001600160a01b031663b9b8af0b6040518163ffffffff1660e01b815260040160206040518083038186803b1580156116bc57600080fd5b505afa1580156116d0573d6000803e3d6000fd5b505050506040513d60208110156116e657600080fd5b505115611723576040805162461bcd60e51b81526020600482015260066024820152651a185b1d195960d21b604482015290519081900360640190fd5b7f00000000000000000000000000000000000000000000000000000000000000006001600160a01b0316634bdaeac16040518163ffffffff1660e01b815260040160206040518083038186803b15801561177c57600080fd5b505afa158015611790573d6000803e3d6000fd5b505050506040513d60208110156117a657600080fd5b50516001600160a01b031633146117f1576040805162461bcd60e51b815260206004820152600a60248201526910b430b93b32b9ba32b960b11b604482015290519081900360640190fd5b7f00000000000000000000000000000000000000000000000000000000000000006001600160a01b0316637ae6c8d4836040518263ffffffff1660e01b815260040180826001600160a01b0316815260200191505060206040518083038186803b15801561185e57600080fd5b505afa158015611872573d6000803e3d6000fd5b505050506040513d602081101561188857600080fd5b50516118c8576040805162461bcd60e51b815260206004820152600a602482015269215f737472617465677960b01b604482015290519081900360640190fd5b60007f00000000000000000000000000000000000000000000000000000000000000006001600160a01b031663da8c229e306040518263ffffffff1660e01b815260040180826001600160a01b0316815260200191505060206040518083038186803b15801561193757600080fd5b505afa15801561194b573d6000803e3d6000fd5b505050506040513d602081101561196157600080fd5b5051604080516371f4f3fb60e01b815290519192506001600160a01b038316916371f4f3fb91600480820192602092909190829003018186803b1580156119a757600080fd5b505afa1580156119bb573d6000803e3d6000fd5b505050506040513d60208110156119d157600080fd5b505115611aba5760006119e385610cbe565b90506119f96001600160a01b03861683836127a6565b816001600160a01b03166338e886108587846040518463ffffffff1660e01b815260040180846001600160a01b03168152602001836001600160a01b031681526020018281526020019350505050600060405180830381600087803b158015611a6157600080fd5b505af1158015611a75573d6000803e3d6000fd5b50506040805184815290516001600160a01b03891693507f9b883692663cf2cc636d9eda0392f2c7ff1a3163a5cef27fa1f8bb438ec73ab592509081900360200190a2505b50505050565b6001600160a01b031660009081526020819052604090205490565b600080611ae6610d4b565b1115611b1257611b0b611af7610d4b565b610842670de0b6b3a764000061083c6120ae565b9050610c9d565b611b0b6120ae565b60007f00000000000000000000000000000000000000000000000000000000000000006001600160a01b031663b9b8af0b6040518163ffffffff1660e01b815260040160206040518083038186803b158015611b7557600080fd5b505afa158015611b89573d6000803e3d6000fd5b505050506040513d6020811015611b9f57600080fd5b505115611bdc576040805162461bcd60e51b81526020600482015260066024820152651a185b1d195960d21b604482015290519081900360640190fd5b838214611c1a576040805162461bcd60e51b8152602060048201526007602482015266042d8cadccee8d60cb1b604482015290519081900360640190fd5b60005b60ff8116831115611c7957611c6f611c6887878460ff16818110611c3d57fe5b905060200201356001600160a01b031686868560ff16818110611c5c57fe5b905060200201356110de565b839061274c565b9150600101611c1d565b50949350505050565b60048054604080516020601f6002600019610100600188161502019095169490940493840181900481028201810190925282815260609390929091830182828015610c955780601f10610c6a57610100808354040283529160200191610c95565b600060607f00000000000000000000000000000000000000000000000000000000000000006001600160a01b031663450efe21306040518263ffffffff1660e01b815260040180826001600160a01b0316815260200191505060006040518083038186803b158015611d5457600080fd5b505afa158015611d68573d6000803e3d6000fd5b505050506040513d6000823e601f3d908101601f191682016040526020811015611d9157600080fd5b8101908080516040519392919084600160201b821115611db057600080fd5b908301906020820185811115611dc557600080fd5b82518660208202830111600160201b82111715611de157600080fd5b82525081516020918201928201910280838360005b83811015611e0e578181015183820152602001611df6565b50505050905001604052505050905060005b81518160ff161015611ede576000828260ff1681518110611e3d57fe5b60200260200101519050611ed3611ecc82836001600160a01b03166370a08231306040518263ffffffff1660e01b815260040180826001600160a01b0316815260200191505060206040518083038186803b158015611e9b57600080fd5b505afa158015611eaf573d6000803e3d6000fd5b505050506040513d6020811015611ec557600080fd5b5051612a86565b859061274c565b935050600101611e20565b505090565b6000610cb4611ef06127fd565b84610dc9856040518060600160405280602581526020016132cf6025913960016000611f1a6127fd565b6001600160a01b03908116825260208083019390935260409182016000908120918d168152925290205491906128b5565b60055461010090046001600160a01b031681565b6000610cb4611f6c6127fd565b848461285b565b60607f00000000000000000000000000000000000000000000000000000000000000006001600160a01b031663450efe21306040518263ffffffff1660e01b815260040180826001600160a01b0316815260200191505060006040518083038186803b158015611fe257600080fd5b505afa158015611ff6573d6000803e3d6000fd5b505050506040513d6000823e601f3d908101601f19168201604052602081101561201f57600080fd5b8101908080516040519392919084600160201b82111561203e57600080fd5b90830190602082018581111561205357600080fd5b82518660208202830111600160201b8211171561206f57600080fd5b82525081516020918201928201910280838360005b8381101561209c578181015183820152602001612084565b50505050905001604052505050905090565b60006121c87f00000000000000000000000000000000000000000000000000000000000000006001600160a01b031663da8c229e306040518263ffffffff1660e01b815260040180826001600160a01b0316815260200191505060206040518083038186803b15801561212057600080fd5b505afa158015612134573d6000803e3d6000fd5b505050506040513d602081101561214a57600080fd5b50516040805163722713f760e01b815290516001600160a01b039092169163722713f791600480820192602092909190829003018186803b15801561218e57600080fd5b505afa1580156121a2573d6000803e3d6000fd5b505050506040513d60208110156121b857600080fd5b50516121c2611ce3565b9061274c565b905090565b6000610cb8612710610842847f00000000000000000000000000000000000000000000000000000000000000006001600160a01b031663825139096040518163ffffffff1660e01b815260040160206040518083038186803b158015610d1957600080fd5b61271081565b6000610dd28383610de2565b6001600160a01b03918216600090815260016020908152604080832093909416825291909152205490565b7f00000000000000000000000000000000000000000000000000000000000000006001600160a01b031663b9b8af0b6040518163ffffffff1660e01b815260040160206040518083038186803b1580156122c857600080fd5b505afa1580156122dc573d6000803e3d6000fd5b505050506040513d60208110156122f257600080fd5b50511561232f576040805162461bcd60e51b81526020600482015260066024820152651a185b1d195960d21b604482015290519081900360640190fd5b7f00000000000000000000000000000000000000000000000000000000000000006001600160a01b0316631fe4a6866040518163ffffffff1660e01b815260040160206040518083038186803b15801561238857600080fd5b505afa15801561239c573d6000803e3d6000fd5b505050506040513d60208110156123b257600080fd5b50516001600160a01b031633146123fe576040805162461bcd60e51b815260206004820152600b60248201526a085cdd1c985d1959da5cdd60aa1b604482015290519081900360640190fd5b600755565b60065481565b61241b61241533611ac0565b826107de565b50565b60007f00000000000000000000000000000000000000000000000000000000000000006001600160a01b031663e744092e836040518263ffffffff1660e01b815260040180826001600160a01b0316815260200191505060206040518083038186803b15801561248d57600080fd5b505afa1580156124a1573d6000803e3d6000fd5b505050506040513d60208110156124b757600080fd5b50518015610cb85750306001600160a01b03167f00000000000000000000000000000000000000000000000000000000000000006001600160a01b031663a622ee7c846040518263ffffffff1660e01b815260040180826001600160a01b0316815260200191505060206040518083038186803b15801561253757600080fd5b505afa15801561254b573d6000803e3d6000fd5b505050506040513d602081101561256157600080fd5b50516001600160a01b03161492915050565b60008261258257506000610cb8565b8282028284828161258f57fe5b0414610dd25760405162461bcd60e51b81526004018080602001828103825260218152602001806131f26021913960400191505060405180910390fd5b6000610dd283836040518060400160405280601a81526020017f536166654d6174683a206469766973696f6e206279207a65726f000000000000815250612c08565b6001600160a01b0382166126535760405162461bcd60e51b815260040180806020018281038252602181526020018061323b6021913960400191505060405180910390fd5b61265f826000836127f8565b61269c81604051806060016040528060228152602001613162602291396001600160a01b03851660009081526020819052604090205491906128b5565b6001600160a01b0383166000908152602081905260409020556002546126c2908261270a565b6002556040805182815290516000916001600160a01b038516917fddf252ad1be2c89b69c2b068fc378daa952ba7f163c4a11628f55a4df523b3ef9181900360200190a35050565b6000610dd283836040518060400160405280601e81526020017f536166654d6174683a207375627472616374696f6e206f766572666c6f7700008152506128b5565b600082820183811015610dd2576040805162461bcd60e51b815260206004820152601b60248201527f536166654d6174683a206164646974696f6e206f766572666c6f770000000000604482015290519081900360640190fd5b604080516001600160a01b038416602482015260448082018490528251808303909101815260649091019091526020810180516001600160e01b031663a9059cbb60e01b1790526127f8908490612c6d565b505050565b3390565b816001600160a01b038116301415612850576040805162461bcd60e51b815260206004820152600d60248201526c2176616c69644164647265737360981b604482015290519081900360640190fd5b611aba848484612d1e565b816001600160a01b0381163014156128aa576040805162461bcd60e51b815260206004820152600d60248201526c2176616c69644164647265737360981b604482015290519081900360640190fd5b611aba848484612e0a565b600081848411156129445760405162461bcd60e51b81526004018080602001828103825283818151815260200191508051906020019080838360005b838110156129095781810151838201526020016128f1565b50505050905090810190601f1680156129365780820380516001836020036101000a031916815260200191505b509250505060405180910390fd5b505050900390565b3b151590565b604051635260769b60e11b815233600482018181526024830185905260606044840190815284516064850152845187946001600160a01b0386169463a4c0ed369490938993899360840190602085019080838360005b838110156129c05781810151838201526020016129a8565b50505050905090810190601f1680156129ed5780820380516001836020036101000a031916815260200191505b50945050505050600060405180830381600087803b158015612a0e57600080fd5b505af1158015612a22573d6000803e3d6000fd5b5050505050505050565b604080516001600160a01b0380861660248301528416604482015260648082018490528251808303909101815260849091019091526020810180516001600160e01b03166323b872dd60e01b179052611aba908590612c6d565b600080836001600160a01b031663313ce5676040518163ffffffff1660e01b815260040160206040518083038186803b158015612ac257600080fd5b505afa158015612ad6573d6000803e3d6000fd5b505050506040513d6020811015612aec57600080fd5b505160ff1690506012811015612b1057612b0d836012839003600a0a612573565b92505b509092915050565b6001600160a01b038216612b73576040805162461bcd60e51b815260206004820152601f60248201527f45524332303a206d696e7420746f20746865207a65726f206164647265737300604482015290519081900360640190fd5b612b7f600083836127f8565b600254612b8c908261274c565b6002556001600160a01b038216600090815260208190526040902054612bb2908261274c565b6001600160a01b0383166000818152602081815260408083209490945583518581529351929391927fddf252ad1be2c89b69c2b068fc378daa952ba7f163c4a11628f55a4df523b3ef9281900390910190a35050565b60008183612c575760405162461bcd60e51b81526020600482018181528351602484015283519092839260449091019190850190808383600083156129095781810151838201526020016128f1565b506000838581612c6357fe5b0495945050505050565b6060612cc2826040518060400160405280602081526020017f5361666545524332303a206c6f772d6c6576656c2063616c6c206661696c6564815250856001600160a01b0316612f659092919063ffffffff16565b8051909150156127f857808060200190516020811015612ce157600080fd5b50516127f85760405162461bcd60e51b815260040180806020018281038252602a8152602001806132a5602a913960400191505060405180910390fd5b6001600160a01b038316612d635760405162461bcd60e51b81526004018080602001828103825260248152602001806132816024913960400191505060405180910390fd5b6001600160a01b038216612da85760405162461bcd60e51b81526004018080602001828103825260228152602001806131846022913960400191505060405180910390fd5b6001600160a01b03808416600081815260016020908152604080832094871680845294825291829020859055815185815291517f8c5be1e5ebec7d5bd14f71427d1e84f3dd0314c0f7b2291e5b200ac8c7c3b9259281900390910190a3505050565b6001600160a01b038316612e4f5760405162461bcd60e51b815260040180806020018281038252602581526020018061325c6025913960400191505060405180910390fd5b6001600160a01b038216612e945760405162461bcd60e51b815260040180806020018281038252602381526020018061313f6023913960400191505060405180910390fd5b612e9f8383836127f8565b612edc816040518060600160405280602681526020016131a6602691396001600160a01b03861660009081526020819052604090205491906128b5565b6001600160a01b038085166000908152602081905260408082209390935590841681522054612f0b908261274c565b6001600160a01b038084166000818152602081815260409182902094909455805185815290519193928716927fddf252ad1be2c89b69c2b068fc378daa952ba7f163c4a11628f55a4df523b3ef92918290030190a3505050565b6060612f748484600085612f7c565b949350505050565b606082471015612fbd5760405162461bcd60e51b81526004018080602001828103825260268152602001806131cc6026913960400191505060405180910390fd5b612fc68561294c565b613017576040805162461bcd60e51b815260206004820152601d60248201527f416464726573733a2063616c6c20746f206e6f6e2d636f6e7472616374000000604482015290519081900360640190fd5b60006060866001600160a01b031685876040518082805190602001908083835b602083106130565780518252601f199092019160209182019101613037565b6001836020036101000a03801982511681845116808217855250505050505090500191505060006040518083038185875af1925050503d80600081146130b8576040519150601f19603f3d011682016040523d82523d6000602084013e6130bd565b606091505b50915091506130cd8282866130d8565b979650505050505050565b606083156130e7575081610dd2565b8251156130f75782518084602001fd5b60405162461bcd60e51b81526020600482018181528451602484015284518593919283926044019190850190808383600083156129095781810151838201526020016128f156fe45524332303a207472616e7366657220746f20746865207a65726f206164647265737345524332303a206275726e20616d6f756e7420657863656564732062616c616e636545524332303a20617070726f766520746f20746865207a65726f206164647265737345524332303a207472616e7366657220616d6f756e7420657863656564732062616c616e6365416464726573733a20696e73756666696369656e742062616c616e636520666f722063616c6c536166654d6174683a206d756c7469706c69636174696f6e206f766572666c6f7745524332303a207472616e7366657220616d6f756e74206578636565647320616c6c6f77616e636545524332303a206275726e2066726f6d20746865207a65726f206164647265737345524332303a207472616e736665722066726f6d20746865207a65726f206164647265737345524332303a20617070726f76652066726f6d20746865207a65726f20616464726573735361666545524332303a204552433230206f7065726174696f6e20646964206e6f74207375636365656445524332303a2064656372656173656420616c6c6f77616e63652062656c6f77207a65726fa264697066735822122041af1a482d7ed37640b132da7f4bb75aa73956598e11cf02f9820ffc574adbe564736f6c634300060c0033",
  "devdoc": {
    "kind": "dev",
    "methods": {
      "allowance(address,address)": {
        "details": "See {IERC20-allowance}."
      },
      "approve(address,uint256)": {
        "details": "See {IERC20-approve}. Requirements: - `spender` cannot be the zero address."
      },
      "available(address)": {
        "details": "Custom logic in here for how much the vault allows to be borrowedSets minimum required on-hand to keep small withdrawals cheap",
        "params": {
          "_token": "The address of the token"
        }
      },
      "balanceOf(address)": {
        "details": "See {IERC20-balanceOf}."
      },
      "constructor": {
        "params": {
          "_manager": "The address of the vault manager contract",
          "_name": "The name of the vault token for depositors",
          "_symbol": "The symbol of the vault token for depositors"
        }
      },
      "decimals()": {
        "details": "Returns the number of decimals used to get its user representation. For example, if `decimals` equals `2`, a balance of `505` tokens should be displayed to a user as `5,05` (`505 / 10 ** 2`). Tokens usually opt for a value of 18, imitating the relationship between Ether and Wei. This is the value {ERC20} uses, unless {_setupDecimals} is called. NOTE: This information is only used for _display_ purposes: it in no way affects any of the arithmetic of the contract, including {IERC20-balanceOf} and {IERC20-transfer}."
      },
      "decreaseAllowance(address,uint256)": {
        "details": "Atomically decreases the allowance granted to `spender` by the caller. This is an alternative to {approve} that can be used as a mitigation for problems described in {IERC20-approve}. Emits an {Approval} event indicating the updated allowance. Requirements: - `spender` cannot be the zero address. - `spender` must have allowance for the caller of at least `subtractedValue`."
      },
      "decreaseApproval(address,uint256)": {
        "details": "Atomically decreases the allowance granted to `spender` by the caller. This is an alternative to {approve} that can be used as a mitigation for problems described in {IERC20-approve}. Emits an {Approval} event indicating the updated allowance. Requirements: - `spender` cannot be the zero address. - `spender` must have allowance for the caller of at least `subtractedValue`."
      },
      "deposit(address,uint256)": {
        "params": {
          "_amount": "The amount of tokens to deposit",
          "_token": "The address of the token"
        }
      },
      "depositMultiple(address[],uint256[])": {
        "details": "Users must approve the vault to spend their stablecoin",
        "params": {
          "_amounts": "The amounts of each token being deposited",
          "_tokens": "The addresses of each token being deposited"
        }
      },
      "increaseAllowance(address,uint256)": {
        "details": "Atomically increases the allowance granted to `spender` by the caller. This is an alternative to {approve} that can be used as a mitigation for problems described in {IERC20-approve}. Emits an {Approval} event indicating the updated allowance. Requirements: - `spender` cannot be the zero address."
      },
      "increaseApproval(address,uint256)": {
        "details": "Atomically increases the allowance granted to `spender` by the caller. This is an alternative to {approve} that can be used as a mitigation for problems described in {IERC20-approve}. Emits an {Approval} event indicating the updated allowance. Requirements: - `spender` cannot be the zero address."
      },
      "name()": {
        "details": "Returns the name of the token."
      },
      "setGauge(address)": {
        "details": "Allow to be unset with the zero address",
        "params": {
          "_gauge": "The address of the gauge"
        }
      },
      "setMin(uint256)": {
        "details": "min is the minimum percent of funds to keep small withdrawals cheap",
        "params": {
          "_min": "The new min value"
        }
      },
      "setTotalDepositCap(uint256)": {
        "details": "totalDepositCap is the maximum amount of value that can be deposited to the metavault at a time",
        "params": {
          "_totalDepositCap": "The new totalDepositCap value"
        }
      },
      "symbol()": {
        "details": "Returns the symbol of the token, usually a shorter version of the name."
      },
      "totalSupply()": {
        "details": "See {IERC20-totalSupply}."
      },
      "transfer(address,uint256)": {
        "details": "See {IERC20-transfer}. Requirements: - `recipient` cannot be the zero address. - the caller must have a balance of at least `amount`."
      },
      "transferAndCall(address,uint256,bytes)": {
        "details": "transfer token to a contract address with additional data if the recipient is a contact.",
        "params": {
          "_data": "The extra data to be passed to the receiving contract.",
          "_to": "The address to transfer to.",
          "_value": "The amount to be transferred."
        }
      },
      "transferFrom(address,address,uint256)": {
        "details": "See {IERC20-transferFrom}. Emits an {Approval} event indicating the updated allowance. This is not required by the EIP. See the note at the beginning of {ERC20}. Requirements: - `sender` and `recipient` cannot be the zero address. - `sender` must have a balance of at least `amount`. - the caller must have allowance for ``sender``'s tokens of at least `amount`."
      },
      "withdraw(uint256,address)": {
        "params": {
          "_output": "The address of the token to receive",
          "_shares": "The amount of shares to withdraw"
        }
      },
      "withdrawAll(address)": {
        "params": {
          "_output": "The address of the desired token to receive"
        }
      },
      "withdrawFee(uint256)": {
        "params": {
          "_amount": "The amount to withdraw"
        }
      }
    },
    "title": "Vault",
    "version": 1
  },
  "userdoc": {
    "kind": "user",
    "methods": {
      "available(address)": {
        "notice": "Returns the amount of tokens available to be sent to strategies"
      },
      "balance()": {
        "notice": "Returns the total balance of the vault, including strategies"
      },
      "balanceOfThis()": {
        "notice": "Returns the balance of allowed tokens present on the vault only"
      },
      "deposit(address,uint256)": {
        "notice": "Deposits the given token into the vault"
      },
      "depositMultiple(address[],uint256[])": {
        "notice": "Deposits multiple tokens simultaneously to the vault"
      },
      "earn(address,address)": {
        "notice": "Sends accrued 3CRV tokens on the metavault to the controller to be deposited to strategies"
      },
      "getPricePerFullShare()": {
        "notice": "Returns the rate of vault shares"
      },
      "getTokens()": {
        "notice": "Returns an array of the tokens for this vault"
      },
      "setGauge(address)": {
        "notice": "Sets the value of this vault's gauge"
      },
      "setMin(uint256)": {
        "notice": "Sets the value for min"
      },
      "setTotalDepositCap(uint256)": {
        "notice": "Sets the value for the totalDepositCap"
      },
      "withdraw(uint256,address)": {
        "notice": "Withdraws an amount of shares to a given output token"
      },
      "withdrawAll(address)": {
        "notice": "Withdraw the entire balance for an account"
      },
      "withdrawFee(uint256)": {
        "notice": "Returns the fee for withdrawing the given amount"
      }
    },
    "notice": "The vault is where users deposit and withdraw like-kind assets that have been added by governance.",
    "version": 1
  },
  "storageLayout": {
    "storage": [
      {
        "astId": 417,
        "contract": "contracts/v3/Vault.sol:Vault",
        "label": "_balances",
        "offset": 0,
        "slot": "0",
        "type": "t_mapping(t_address,t_uint256)"
      },
      {
        "astId": 423,
        "contract": "contracts/v3/Vault.sol:Vault",
        "label": "_allowances",
        "offset": 0,
        "slot": "1",
        "type": "t_mapping(t_address,t_mapping(t_address,t_uint256))"
      },
      {
        "astId": 425,
        "contract": "contracts/v3/Vault.sol:Vault",
        "label": "_totalSupply",
        "offset": 0,
        "slot": "2",
        "type": "t_uint256"
      },
      {
        "astId": 427,
        "contract": "contracts/v3/Vault.sol:Vault",
        "label": "_name",
        "offset": 0,
        "slot": "3",
        "type": "t_string_storage"
      },
      {
        "astId": 429,
        "contract": "contracts/v3/Vault.sol:Vault",
        "label": "_symbol",
        "offset": 0,
        "slot": "4",
        "type": "t_string_storage"
      },
      {
        "astId": 431,
        "contract": "contracts/v3/Vault.sol:Vault",
        "label": "_decimals",
        "offset": 0,
        "slot": "5",
        "type": "t_uint8"
      },
      {
        "astId": 22888,
        "contract": "contracts/v3/Vault.sol:Vault",
        "label": "gauge",
        "offset": 1,
        "slot": "5",
        "type": "t_address"
      },
      {
        "astId": 22890,
        "contract": "contracts/v3/Vault.sol:Vault",
        "label": "min",
        "offset": 0,
        "slot": "6",
        "type": "t_uint256"
      },
      {
        "astId": 22892,
        "contract": "contracts/v3/Vault.sol:Vault",
        "label": "totalDepositCap",
        "offset": 0,
        "slot": "7",
        "type": "t_uint256"
      }
    ],
    "types": {
      "t_address": {
        "encoding": "inplace",
        "label": "address",
        "numberOfBytes": "20"
      },
      "t_mapping(t_address,t_mapping(t_address,t_uint256))": {
        "encoding": "mapping",
        "key": "t_address",
        "label": "mapping(address => mapping(address => uint256))",
        "numberOfBytes": "32",
        "value": "t_mapping(t_address,t_uint256)"
      },
      "t_mapping(t_address,t_uint256)": {
        "encoding": "mapping",
        "key": "t_address",
        "label": "mapping(address => uint256)",
        "numberOfBytes": "32",
        "value": "t_uint256"
      },
      "t_string_storage": {
        "encoding": "bytes",
        "label": "string",
        "numberOfBytes": "32"
      },
      "t_uint256": {
        "encoding": "inplace",
        "label": "uint256",
        "numberOfBytes": "32"
      },
      "t_uint8": {
        "encoding": "inplace",
        "label": "uint8",
        "numberOfBytes": "1"
      }
    }
  }
}