{
  "address": "0x15885dE7737B179968B216275b6531f3a668E4E9",
  "abi": [
    {
      "inputs": [
        {
          "internalType": "address",
          "name": "_yax",
          "type": "address"
        }
      ],
      "stateMutability": "nonpayable",
      "type": "constructor"
    },
    {
      "inputs": [
        {
          "internalType": "address",
          "name": "",
          "type": "address"
        }
      ],
      "name": "controllers",
      "outputs": [
        {
          "internalType": "bool",
          "name": "",
          "type": "bool"
        }
      ],
      "stateMutability": "view",
      "type": "function"
    },
    {
      "inputs": [],
      "name": "getHarvestFeeInfo",
      "outputs": [
        {
          "internalType": "address",
          "name": "",
          "type": "address"
        },
        {
          "internalType": "address",
          "name": "",
          "type": "address"
        },
        {
          "internalType": "uint256",
          "name": "",
          "type": "uint256"
        },
        {
          "internalType": "address",
          "name": "",
          "type": "address"
        },
        {
          "internalType": "uint256",
          "name": "",
          "type": "uint256"
        },
        {
          "internalType": "address",
          "name": "",
          "type": "address"
        },
        {
          "internalType": "uint256",
          "name": "",
          "type": "uint256"
        }
      ],
      "stateMutability": "view",
      "type": "function"
    },
    {
      "inputs": [],
      "name": "governance",
      "outputs": [
        {
          "internalType": "address",
          "name": "",
          "type": "address"
        }
      ],
      "stateMutability": "view",
      "type": "function"
    },
    {
      "inputs": [
        {
          "internalType": "contract IERC20",
          "name": "_token",
          "type": "address"
        },
        {
          "internalType": "uint256",
          "name": "_amount",
          "type": "uint256"
        },
        {
          "internalType": "address",
          "name": "_to",
          "type": "address"
        }
      ],
      "name": "governanceRecoverUnsupported",
      "outputs": [],
      "stateMutability": "nonpayable",
      "type": "function"
    },
    {
      "inputs": [],
      "name": "harvester",
      "outputs": [
        {
          "internalType": "address",
          "name": "",
          "type": "address"
        }
      ],
      "stateMutability": "view",
      "type": "function"
    },
    {
      "inputs": [],
      "name": "insuranceFee",
      "outputs": [
        {
          "internalType": "uint256",
          "name": "",
          "type": "uint256"
        }
      ],
      "stateMutability": "view",
      "type": "function"
    },
    {
      "inputs": [],
      "name": "insurancePool",
      "outputs": [
        {
          "internalType": "address",
          "name": "",
          "type": "address"
        }
      ],
      "stateMutability": "view",
      "type": "function"
    },
    {
      "inputs": [],
      "name": "insurancePoolFee",
      "outputs": [
        {
          "internalType": "uint256",
          "name": "",
          "type": "uint256"
        }
      ],
      "stateMutability": "view",
      "type": "function"
    },
    {
      "inputs": [
        {
          "internalType": "address",
          "name": "_controller",
          "type": "address"
        },
        {
          "internalType": "bool",
          "name": "_status",
          "type": "bool"
        }
      ],
      "name": "setControllerStatus",
      "outputs": [],
      "stateMutability": "nonpayable",
      "type": "function"
    },
    {
      "inputs": [
        {
          "internalType": "address",
          "name": "_governance",
          "type": "address"
        }
      ],
      "name": "setGovernance",
      "outputs": [],
      "stateMutability": "nonpayable",
      "type": "function"
    },
    {
      "inputs": [
        {
          "internalType": "address",
          "name": "_harvester",
          "type": "address"
        }
      ],
      "name": "setHarvester",
      "outputs": [],
      "stateMutability": "nonpayable",
      "type": "function"
    },
    {
      "inputs": [
        {
          "internalType": "uint256",
          "name": "_insuranceFee",
          "type": "uint256"
        }
      ],
      "name": "setInsuranceFee",
      "outputs": [],
      "stateMutability": "nonpayable",
      "type": "function"
    },
    {
      "inputs": [
        {
          "internalType": "address",
          "name": "_insurancePool",
          "type": "address"
        }
      ],
      "name": "setInsurancePool",
      "outputs": [],
      "stateMutability": "nonpayable",
      "type": "function"
    },
    {
      "inputs": [
        {
          "internalType": "uint256",
          "name": "_insurancePoolFee",
          "type": "uint256"
        }
      ],
      "name": "setInsurancePoolFee",
      "outputs": [],
      "stateMutability": "nonpayable",
      "type": "function"
    },
    {
      "inputs": [
        {
          "internalType": "address",
          "name": "_stakingPool",
          "type": "address"
        }
      ],
      "name": "setStakingPool",
      "outputs": [],
      "stateMutability": "nonpayable",
      "type": "function"
    },
    {
      "inputs": [
        {
          "internalType": "uint256",
          "name": "_stakingPoolShareFee",
          "type": "uint256"
        }
      ],
      "name": "setStakingPoolShareFee",
      "outputs": [],
      "stateMutability": "nonpayable",
      "type": "function"
    },
    {
      "inputs": [
        {
          "internalType": "address",
          "name": "_strategist",
          "type": "address"
        }
      ],
      "name": "setStrategist",
      "outputs": [],
      "stateMutability": "nonpayable",
      "type": "function"
    },
    {
      "inputs": [
        {
          "internalType": "address",
          "name": "_treasury",
          "type": "address"
        }
      ],
      "name": "setTreasury",
      "outputs": [],
      "stateMutability": "nonpayable",
      "type": "function"
    },
    {
      "inputs": [
        {
          "internalType": "uint256",
          "name": "_treasuryBalance",
          "type": "uint256"
        }
      ],
      "name": "setTreasuryBalance",
      "outputs": [],
      "stateMutability": "nonpayable",
      "type": "function"
    },
    {
      "inputs": [
        {
          "internalType": "uint256",
          "name": "_treasuryFee",
          "type": "uint256"
        }
      ],
      "name": "setTreasuryFee",
      "outputs": [],
      "stateMutability": "nonpayable",
      "type": "function"
    },
    {
      "inputs": [
        {
          "internalType": "address",
          "name": "_vault",
          "type": "address"
        },
        {
          "internalType": "bool",
          "name": "_status",
          "type": "bool"
        }
      ],
      "name": "setVaultStatus",
      "outputs": [],
      "stateMutability": "nonpayable",
      "type": "function"
    },
    {
      "inputs": [
        {
          "internalType": "uint256",
          "name": "_withdrawalProtectionFee",
          "type": "uint256"
        }
      ],
      "name": "setWithdrawalProtectionFee",
      "outputs": [],
      "stateMutability": "nonpayable",
      "type": "function"
    },
    {
      "inputs": [
        {
          "internalType": "address",
          "name": "_yax",
          "type": "address"
        }
      ],
      "name": "setYax",
      "outputs": [],
      "stateMutability": "nonpayable",
      "type": "function"
    },
    {
      "inputs": [],
      "name": "stakingPool",
      "outputs": [
        {
          "internalType": "address",
          "name": "",
          "type": "address"
        }
      ],
      "stateMutability": "view",
      "type": "function"
    },
    {
      "inputs": [],
      "name": "stakingPoolShareFee",
      "outputs": [
        {
          "internalType": "uint256",
          "name": "",
          "type": "uint256"
        }
      ],
      "stateMutability": "view",
      "type": "function"
    },
    {
      "inputs": [],
      "name": "strategist",
      "outputs": [
        {
          "internalType": "address",
          "name": "",
          "type": "address"
        }
      ],
      "stateMutability": "view",
      "type": "function"
    },
    {
      "inputs": [],
      "name": "treasury",
      "outputs": [
        {
          "internalType": "address",
          "name": "",
          "type": "address"
        }
      ],
      "stateMutability": "view",
      "type": "function"
    },
    {
      "inputs": [],
      "name": "treasuryBalance",
      "outputs": [
        {
          "internalType": "uint256",
          "name": "",
          "type": "uint256"
        }
      ],
      "stateMutability": "view",
      "type": "function"
    },
    {
      "inputs": [],
      "name": "treasuryFee",
      "outputs": [
        {
          "internalType": "uint256",
          "name": "",
          "type": "uint256"
        }
      ],
      "stateMutability": "view",
      "type": "function"
    },
    {
      "inputs": [
        {
          "internalType": "address",
          "name": "",
          "type": "address"
        }
      ],
      "name": "vaults",
      "outputs": [
        {
          "internalType": "bool",
          "name": "",
          "type": "bool"
        }
      ],
      "stateMutability": "view",
      "type": "function"
    },
    {
      "inputs": [],
      "name": "withdrawalProtectionFee",
      "outputs": [
        {
          "internalType": "uint256",
          "name": "",
          "type": "uint256"
        }
      ],
      "stateMutability": "view",
      "type": "function"
    },
    {
      "inputs": [],
      "name": "yax",
      "outputs": [
        {
          "internalType": "address",
          "name": "",
          "type": "address"
        }
      ],
      "stateMutability": "view",
      "type": "function"
    }
  ],
  "transactionHash": "0xc74eb2ef356a7c72de8eac1c7d0dd02e8e8bf93607fa35ba81a065ef751b3ae8",
  "args": [
    "0x29a0d41ad9069861976aFA6F3e6B0b5eC2381096"
  ],
  "solcInputHash": "0dafef0f9d3baf21ab7d835401fdfdba",
  "bytecode": "0x608060405234801561001057600080fd5b5060405161108b38038061108b8339818101604052602081101561003357600080fd5b5051600680546001600160a01b039092166001600160a01b03199283161790556000805482163390811790915560048054831682179055600180549092161790556107d060095569043c33c1937564800000600a9081556101f4600b55600c55610fe9806100a26000396000f3fe608060405234801561001057600080fd5b50600436106101f05760003560e01c8063825139091161010f578063b1c7d36f116100a2578063cc32d17611610071578063cc32d176146104e3578063da633d31146104eb578063da8c229e1461053f578063f0f4426014610565576101f0565b8063b1c7d36f1461047b578063ba32681e14610483578063c7b9d530146104a0578063cc08c4cc146104c6576101f0565b8063a622ee7c116100de578063a622ee7c146103ed578063a94c487e14610427578063ab033ea91461044d578063ab2adc0014610473576101f0565b806382513909146103925780638a513ef61461039a57806397c4fac7146103c8578063a33dd801146103d0576101f0565b80634bdaeac11161018757806360d712fc1161015657806360d712fc1461032257806361d027b3146103505780636b0243bc1461035857806377e741c714610375576101f0565b80634bdaeac1146102bf57806354575af4146102c75780635aa6e675146102fd578063603dfcda14610305576101f0565b80632f2a04be116101c35780632f2a04be1461026f5780633028f63a14610277578063313dab201461029d57806346821efa146102b7576101f0565b80630c56ae3b146101f55780630e9905751461021957806315de1daa146102415780631fe4a68614610267575b600080fd5b6101fd61058b565b604080516001600160a01b039092168252519081900360200190f35b61023f6004803603602081101561022f57600080fd5b50356001600160a01b031661059a565b005b61023f6004803603602081101561025757600080fd5b50356001600160a01b0316610609565b6101fd61068d565b6101fd61069c565b61023f6004803603602081101561028d57600080fd5b50356001600160a01b03166106ab565b6102a561071a565b60408051918252519081900360200190f35b6102a5610720565b6101fd610726565b61023f600480360360608110156102dd57600080fd5b506001600160a01b03813581169160208101359160409091013516610735565b6101fd61080a565b61023f6004803603602081101561031b57600080fd5b5035610819565b61023f6004803603604081101561033857600080fd5b506001600160a01b03813516906020013515156108c2565b6101fd61094f565b61023f6004803603602081101561036e57600080fd5b503561095e565b61023f6004803603602081101561038b57600080fd5b5035610a06565b6102a5610aa7565b61023f600480360360408110156103b057600080fd5b506001600160a01b0381351690602001351515610aad565b6102a5610b3a565b61023f600480360360208110156103e657600080fd5b5035610b40565b6104136004803603602081101561040357600080fd5b50356001600160a01b0316610b92565b604080519115158252519081900360200190f35b61023f6004803603602081101561043d57600080fd5b50356001600160a01b0316610ba7565b61023f6004803603602081101561046357600080fd5b50356001600160a01b0316610c16565b6101fd610c85565b6102a5610c94565b61023f6004803603602081101561049957600080fd5b5035610c9a565b61023f600480360360208110156104b657600080fd5b50356001600160a01b0316610d3a565b61023f600480360360208110156104dc57600080fd5b5035610da9565b6102a5610e52565b6104f3610e58565b604080516001600160a01b0398891681529688166020880152868101959095529286166060860152608085019190915290931660a083015260c082019290925290519081900360e00190f35b6104136004803603602081101561055557600080fd5b50356001600160a01b0316610f2f565b61023f6004803603602081101561057b57600080fd5b50356001600160a01b0316610f44565b6003546001600160a01b031681565b6000546001600160a01b031633146105e7576040805162461bcd60e51b815260206004820152600b60248201526a21676f7665726e616e636560a81b604482015290519081900360640190fd5b600680546001600160a01b0319166001600160a01b0392909216919091179055565b6004546001600160a01b031633148061062c57506000546001600160a01b031633145b61066b576040805162461bcd60e51b815260206004820152600b60248201526a085cdd1c985d1959da5cdd60aa1b604482015290519081900360640190fd5b600180546001600160a01b0319166001600160a01b0392909216919091179055565b6004546001600160a01b031681565b6006546001600160a01b031681565b6000546001600160a01b031633146106f8576040805162461bcd60e51b815260206004820152600b60248201526a21676f7665726e616e636560a81b604482015290519081900360640190fd5b600380546001600160a01b0319166001600160a01b0392909216919091179055565b600a5481565b60085481565b6001546001600160a01b031681565b6000546001600160a01b03163314610782576040805162461bcd60e51b815260206004820152600b60248201526a21676f7665726e616e636560a81b604482015290519081900360640190fd5b826001600160a01b031663a9059cbb82846040518363ffffffff1660e01b815260040180836001600160a01b0316815260200182815260200192505050602060405180830381600087803b1580156107d957600080fd5b505af11580156107ed573d6000803e3d6000fd5b505050506040513d602081101561080357600080fd5b5050505050565b6000546001600160a01b031681565b6000546001600160a01b03163314610866576040805162461bcd60e51b815260206004820152600b60248201526a21676f7665726e616e636560a81b604482015290519081900360640190fd5b6113888111156108bd576040805162461bcd60e51b815260206004820152601d60248201527f5f7374616b696e67506f6f6c5368617265466565206f76657220353025000000604482015290519081900360640190fd5b600955565b6004546001600160a01b03163314806108e557506000546001600160a01b031633145b610924576040805162461bcd60e51b815260206004820152600b60248201526a085cdd1c985d1959da5cdd60aa1b604482015290519081900360640190fd5b6001600160a01b03919091166000908152600d60205260409020805460ff1916911515919091179055565b6005546001600160a01b031681565b6000546001600160a01b031633146109ab576040805162461bcd60e51b815260206004820152600b60248201526a21676f7665726e616e636560a81b604482015290519081900360640190fd5b6064811115610a01576040805162461bcd60e51b815260206004820181905260248201527f5f7769746864726177616c50726f74656374696f6e466565206f766572203125604482015290519081900360640190fd5b600c55565b6000546001600160a01b03163314610a53576040805162461bcd60e51b815260206004820152600b60248201526a21676f7665726e616e636560a81b604482015290519081900360640190fd5b6107d0811115610aa2576040805162461bcd60e51b81526020600482015260156024820152745f7472656173757279466565206f7665722032302560581b604482015290519081900360640190fd5b600b55565b600c5481565b6004546001600160a01b0316331480610ad057506000546001600160a01b031633145b610b0f576040805162461bcd60e51b815260206004820152600b60248201526a085cdd1c985d1959da5cdd60aa1b604482015290519081900360640190fd5b6001600160a01b03919091166000908152600e60205260409020805460ff1916911515919091179055565b60075481565b6000546001600160a01b03163314610b8d576040805162461bcd60e51b815260206004820152600b60248201526a21676f7665726e616e636560a81b604482015290519081900360640190fd5b600a55565b600d6020526000908152604090205460ff1681565b6000546001600160a01b03163314610bf4576040805162461bcd60e51b815260206004820152600b60248201526a21676f7665726e616e636560a81b604482015290519081900360640190fd5b600280546001600160a01b0319166001600160a01b0392909216919091179055565b6000546001600160a01b03163314610c63576040805162461bcd60e51b815260206004820152600b60248201526a21676f7665726e616e636560a81b604482015290519081900360640190fd5b600080546001600160a01b0319166001600160a01b0392909216919091179055565b6002546001600160a01b031681565b60095481565b6000546001600160a01b03163314610ce7576040805162461bcd60e51b815260206004820152600b60248201526a21676f7665726e616e636560a81b604482015290519081900360640190fd5b6064811115610d35576040805162461bcd60e51b81526020600482015260156024820152745f696e737572616e6365466565206f76657220312560581b604482015290519081900360640190fd5b600755565b6000546001600160a01b03163314610d87576040805162461bcd60e51b815260206004820152600b60248201526a21676f7665726e616e636560a81b604482015290519081900360640190fd5b600480546001600160a01b0319166001600160a01b0392909216919091179055565b6000546001600160a01b03163314610df6576040805162461bcd60e51b815260206004820152600b60248201526a21676f7665726e616e636560a81b604482015290519081900360640190fd5b6107d0811115610e4d576040805162461bcd60e51b815260206004820152601a60248201527f5f696e737572616e6365506f6f6c466565206f76657220323025000000000000604482015290519081900360640190fd5b600855565b600b5481565b600654600354600954600554600a54604080516370a0823160e01b81526001600160a01b03938416600482018190529151600097889788978897889788978897958316969290941694929392909186916370a08231916024808301926020929190829003018186803b158015610ecd57600080fd5b505afa158015610ee1573d6000803e3d6000fd5b505050506040513d6020811015610ef757600080fd5b50511015610f0757600b54610f0a565b60005b600254600854959d949c50929a5090985096506001600160a01b031694509092509050565b600e6020526000908152604090205460ff1681565b6000546001600160a01b03163314610f91576040805162461bcd60e51b815260206004820152600b60248201526a21676f7665726e616e636560a81b604482015290519081900360640190fd5b600580546001600160a01b0319166001600160a01b039290921691909117905556fea264697066735822122098dd0316e6e42ee6d5e96652066abd5c01da63f0def796591b871fff9468cd4d64736f6c634300060c0033",
  "devdoc": {
    "kind": "dev",
    "methods": {
      "constructor": {
        "params": {
          "_yax": "The address of the YAX token"
        }
      },
      "governanceRecoverUnsupported(address,uint256,address)": {
        "params": {
          "_amount": "The amount to withdraw",
          "_to": "The address to send to",
          "_token": "The address of the token"
        }
      },
      "setControllerStatus(address,bool)": {
        "params": {
          "_controller": "The address of the controller",
          "_status": "The status of the controller"
        }
      },
      "setGovernance(address)": {
        "params": {
          "_governance": "The address of the governance"
        }
      },
      "setHarvester(address)": {
        "params": {
          "_harvester": "The address of the harvester"
        }
      },
      "setInsuranceFee(uint256)": {
        "details": "Throws if setting fee over 1%",
        "params": {
          "_insuranceFee": "The value for the insurance fee"
        }
      },
      "setInsurancePool(address)": {
        "params": {
          "_insurancePool": "The address of the insurance pool"
        }
      },
      "setInsurancePoolFee(uint256)": {
        "details": "Throws if setting fee over 20%",
        "params": {
          "_insurancePoolFee": "The value for the insurance pool fee"
        }
      },
      "setStakingPool(address)": {
        "params": {
          "_stakingPool": "The address of the staking pool"
        }
      },
      "setStakingPoolShareFee(uint256)": {
        "details": "Throws if setting fee over 50%",
        "params": {
          "_stakingPoolShareFee": "The value for the staking pool fee"
        }
      },
      "setStrategist(address)": {
        "params": {
          "_strategist": "The address of the strategist"
        }
      },
      "setTreasury(address)": {
        "params": {
          "_treasury": "The address of the treasury"
        }
      },
      "setTreasuryBalance(uint256)": {
        "details": "Strategies will read this value to determine whether or not to give the treasury the treasuryFee",
        "params": {
          "_treasuryBalance": "The maximum balance of the treasury"
        }
      },
      "setTreasuryFee(uint256)": {
        "details": "Throws if setting fee over 20%",
        "params": {
          "_treasuryFee": "The value for the treasury fee"
        }
      },
      "setVaultStatus(address,bool)": {
        "params": {
          "_status": "The status of the vault",
          "_vault": "The address of the vault"
        }
      },
      "setWithdrawalProtectionFee(uint256)": {
        "details": "Throws if setting fee over 1%",
        "params": {
          "_withdrawalProtectionFee": "The value for the withdrawal protection fee"
        }
      },
      "setYax(address)": {
        "params": {
          "_yax": "The address of the YAX token"
        }
      }
    },
    "title": "yAxisMetaVaultManager",
    "version": 1
  },
  "userdoc": {
    "kind": "user",
    "methods": {
      "getHarvestFeeInfo()": {
        "notice": "Returns a tuple of:     YAX token,     Staking pool address,     Staking pool share fee,     Treasury address,     Checks the balance of the treasury and returns the treasury fee         if below the treasuryBalance, or 0 if above"
      },
      "governanceRecoverUnsupported(address,uint256,address)": {
        "notice": "Allows governance to pull tokens out of this contract (it should never hold tokens)"
      },
      "insuranceFee()": {
        "notice": "The following fees are all mutable.  They are updated by governance (community vote)."
      },
      "setControllerStatus(address,bool)": {
        "notice": "Sets the status for a controller"
      },
      "setGovernance(address)": {
        "notice": "Sets the governance address"
      },
      "setHarvester(address)": {
        "notice": "Sets the harvester address"
      },
      "setInsuranceFee(uint256)": {
        "notice": "Sets the insurance fee"
      },
      "setInsurancePool(address)": {
        "notice": "Sets the insurance pool address"
      },
      "setInsurancePoolFee(uint256)": {
        "notice": "Sets the insurance pool fee"
      },
      "setStakingPool(address)": {
        "notice": "Sets the staking pool address"
      },
      "setStakingPoolShareFee(uint256)": {
        "notice": "Sets the staking pool share fee"
      },
      "setStrategist(address)": {
        "notice": "Sets the strategist address"
      },
      "setTreasury(address)": {
        "notice": "Sets the treasury address"
      },
      "setTreasuryBalance(uint256)": {
        "notice": "Sets the maximum treasury balance"
      },
      "setTreasuryFee(uint256)": {
        "notice": "Sets the treasury fee"
      },
      "setVaultStatus(address,bool)": {
        "notice": "Sets the status for a vault"
      },
      "setWithdrawalProtectionFee(uint256)": {
        "notice": "Sets the withdrawal protection fee"
      },
      "setYax(address)": {
        "notice": "Sets the YAX address"
      }
    },
    "notice": "This contract serves as the central point for governance-voted variables. Fees and permissioned addresses are stored and referenced in this contract only.",
    "version": 1
  },
  "storageLayout": {
    "storage": [
      {
        "astId": 12323,
        "contract": "contracts/metavault/yAxisMetaVaultManager.sol:yAxisMetaVaultManager",
        "label": "governance",
        "offset": 0,
        "slot": "0",
        "type": "t_address"
      },
      {
        "astId": 12326,
        "contract": "contracts/metavault/yAxisMetaVaultManager.sol:yAxisMetaVaultManager",
        "label": "harvester",
        "offset": 0,
        "slot": "1",
        "type": "t_address"
      },
      {
        "astId": 12329,
        "contract": "contracts/metavault/yAxisMetaVaultManager.sol:yAxisMetaVaultManager",
        "label": "insurancePool",
        "offset": 0,
        "slot": "2",
        "type": "t_address"
      },
      {
        "astId": 12332,
        "contract": "contracts/metavault/yAxisMetaVaultManager.sol:yAxisMetaVaultManager",
        "label": "stakingPool",
        "offset": 0,
        "slot": "3",
        "type": "t_address"
      },
      {
        "astId": 12335,
        "contract": "contracts/metavault/yAxisMetaVaultManager.sol:yAxisMetaVaultManager",
        "label": "strategist",
        "offset": 0,
        "slot": "4",
        "type": "t_address"
      },
      {
        "astId": 12338,
        "contract": "contracts/metavault/yAxisMetaVaultManager.sol:yAxisMetaVaultManager",
        "label": "treasury",
        "offset": 0,
        "slot": "5",
        "type": "t_address"
      },
      {
        "astId": 12341,
        "contract": "contracts/metavault/yAxisMetaVaultManager.sol:yAxisMetaVaultManager",
        "label": "yax",
        "offset": 0,
        "slot": "6",
        "type": "t_address"
      },
      {
        "astId": 12345,
        "contract": "contracts/metavault/yAxisMetaVaultManager.sol:yAxisMetaVaultManager",
        "label": "insuranceFee",
        "offset": 0,
        "slot": "7",
        "type": "t_uint256"
      },
      {
        "astId": 12348,
        "contract": "contracts/metavault/yAxisMetaVaultManager.sol:yAxisMetaVaultManager",
        "label": "insurancePoolFee",
        "offset": 0,
        "slot": "8",
        "type": "t_uint256"
      },
      {
        "astId": 12351,
        "contract": "contracts/metavault/yAxisMetaVaultManager.sol:yAxisMetaVaultManager",
        "label": "stakingPoolShareFee",
        "offset": 0,
        "slot": "9",
        "type": "t_uint256"
      },
      {
        "astId": 12354,
        "contract": "contracts/metavault/yAxisMetaVaultManager.sol:yAxisMetaVaultManager",
        "label": "treasuryBalance",
        "offset": 0,
        "slot": "10",
        "type": "t_uint256"
      },
      {
        "astId": 12357,
        "contract": "contracts/metavault/yAxisMetaVaultManager.sol:yAxisMetaVaultManager",
        "label": "treasuryFee",
        "offset": 0,
        "slot": "11",
        "type": "t_uint256"
      },
      {
        "astId": 12360,
        "contract": "contracts/metavault/yAxisMetaVaultManager.sol:yAxisMetaVaultManager",
        "label": "withdrawalProtectionFee",
        "offset": 0,
        "slot": "12",
        "type": "t_uint256"
      },
      {
        "astId": 12365,
        "contract": "contracts/metavault/yAxisMetaVaultManager.sol:yAxisMetaVaultManager",
        "label": "vaults",
        "offset": 0,
        "slot": "13",
        "type": "t_mapping(t_address,t_bool)"
      },
      {
        "astId": 12370,
        "contract": "contracts/metavault/yAxisMetaVaultManager.sol:yAxisMetaVaultManager",
        "label": "controllers",
        "offset": 0,
        "slot": "14",
        "type": "t_mapping(t_address,t_bool)"
      }
    ],
    "types": {
      "t_address": {
        "encoding": "inplace",
        "label": "address",
        "numberOfBytes": "20"
      },
      "t_bool": {
        "encoding": "inplace",
        "label": "bool",
        "numberOfBytes": "1"
      },
      "t_mapping(t_address,t_bool)": {
        "encoding": "mapping",
        "key": "t_address",
        "label": "mapping(address => bool)",
        "numberOfBytes": "32",
        "value": "t_bool"
      },
      "t_uint256": {
        "encoding": "inplace",
        "label": "uint256",
        "numberOfBytes": "32"
      }
    }
  }
}