{
  "address": "0xfe5e6A588778FD5709BF08E0D7f1EA0947736D4A",
  "abi": [
    {
      "inputs": [
        {
          "internalType": "address",
          "name": "_vaultManager",
          "type": "address"
        },
        {
          "internalType": "address",
          "name": "_controller",
          "type": "address"
        }
      ],
      "stateMutability": "nonpayable",
      "type": "constructor"
    },
    {
      "anonymous": false,
      "inputs": [
        {
          "indexed": true,
          "internalType": "address",
          "name": "controller",
          "type": "address"
        }
      ],
      "name": "ControllerSet",
      "type": "event"
    },
    {
      "anonymous": false,
      "inputs": [
        {
          "indexed": true,
          "internalType": "address",
          "name": "controller",
          "type": "address"
        },
        {
          "indexed": true,
          "internalType": "address",
          "name": "strategy",
          "type": "address"
        }
      ],
      "name": "Harvest",
      "type": "event"
    },
    {
      "anonymous": false,
      "inputs": [
        {
          "indexed": true,
          "internalType": "address",
          "name": "harvester",
          "type": "address"
        },
        {
          "indexed": false,
          "internalType": "bool",
          "name": "status",
          "type": "bool"
        }
      ],
      "name": "HarvesterSet",
      "type": "event"
    },
    {
      "anonymous": false,
      "inputs": [
        {
          "indexed": true,
          "internalType": "address",
          "name": "token",
          "type": "address"
        },
        {
          "indexed": true,
          "internalType": "address",
          "name": "strategy",
          "type": "address"
        },
        {
          "indexed": false,
          "internalType": "uint256",
          "name": "timeout",
          "type": "uint256"
        }
      ],
      "name": "StrategyAdded",
      "type": "event"
    },
    {
      "anonymous": false,
      "inputs": [
        {
          "indexed": true,
          "internalType": "address",
          "name": "token",
          "type": "address"
        },
        {
          "indexed": true,
          "internalType": "address",
          "name": "strategy",
          "type": "address"
        },
        {
          "indexed": false,
          "internalType": "uint256",
          "name": "timeout",
          "type": "uint256"
        }
      ],
      "name": "StrategyRemoved",
      "type": "event"
    },
    {
      "anonymous": false,
      "inputs": [
        {
          "indexed": true,
          "internalType": "address",
          "name": "vaultManager",
          "type": "address"
        }
      ],
      "name": "VaultManagerSet",
      "type": "event"
    },
    {
      "inputs": [
        {
          "internalType": "address",
          "name": "_token",
          "type": "address"
        },
        {
          "internalType": "address",
          "name": "_strategy",
          "type": "address"
        },
        {
          "internalType": "uint256",
          "name": "_timeout",
          "type": "uint256"
        }
      ],
      "name": "addStrategy",
      "outputs": [],
      "stateMutability": "nonpayable",
      "type": "function"
    },
    {
      "inputs": [
        {
          "internalType": "address",
          "name": "_token",
          "type": "address"
        }
      ],
      "name": "canHarvest",
      "outputs": [
        {
          "internalType": "bool",
          "name": "",
          "type": "bool"
        }
      ],
      "stateMutability": "view",
      "type": "function"
    },
    {
      "inputs": [],
      "name": "controller",
      "outputs": [
        {
          "internalType": "contract IController",
          "name": "",
          "type": "address"
        }
      ],
      "stateMutability": "view",
      "type": "function"
    },
    {
      "inputs": [
        {
          "internalType": "contract IController",
          "name": "_controller",
          "type": "address"
        },
        {
          "internalType": "address",
          "name": "_strategy",
          "type": "address"
        }
      ],
      "name": "harvest",
      "outputs": [],
      "stateMutability": "nonpayable",
      "type": "function"
    },
    {
      "inputs": [
        {
          "internalType": "address",
          "name": "_token",
          "type": "address"
        }
      ],
      "name": "harvestNextStrategy",
      "outputs": [],
      "stateMutability": "nonpayable",
      "type": "function"
    },
    {
      "inputs": [
        {
          "internalType": "address",
          "name": "",
          "type": "address"
        }
      ],
      "name": "isHarvester",
      "outputs": [
        {
          "internalType": "bool",
          "name": "",
          "type": "bool"
        }
      ],
      "stateMutability": "view",
      "type": "function"
    },
    {
      "inputs": [
        {
          "internalType": "address",
          "name": "_token",
          "type": "address"
        },
        {
          "internalType": "address",
          "name": "_strategy",
          "type": "address"
        },
        {
          "internalType": "uint256",
          "name": "_timeout",
          "type": "uint256"
        }
      ],
      "name": "removeStrategy",
      "outputs": [],
      "stateMutability": "nonpayable",
      "type": "function"
    },
    {
      "inputs": [
        {
          "internalType": "contract IController",
          "name": "_controller",
          "type": "address"
        }
      ],
      "name": "setController",
      "outputs": [],
      "stateMutability": "nonpayable",
      "type": "function"
    },
    {
      "inputs": [
        {
          "internalType": "address",
          "name": "_harvester",
          "type": "address"
        },
        {
          "internalType": "bool",
          "name": "_status",
          "type": "bool"
        }
      ],
      "name": "setHarvester",
      "outputs": [],
      "stateMutability": "nonpayable",
      "type": "function"
    },
    {
      "inputs": [
        {
          "internalType": "address",
          "name": "_vaultManager",
          "type": "address"
        }
      ],
      "name": "setVaultManager",
      "outputs": [],
      "stateMutability": "nonpayable",
      "type": "function"
    },
    {
      "inputs": [
        {
          "internalType": "address",
          "name": "",
          "type": "address"
        }
      ],
      "name": "strategies",
      "outputs": [
        {
          "internalType": "uint256",
          "name": "timeout",
          "type": "uint256"
        },
        {
          "internalType": "uint256",
          "name": "lastCalled",
          "type": "uint256"
        }
      ],
      "stateMutability": "view",
      "type": "function"
    },
    {
      "inputs": [
        {
          "internalType": "address",
          "name": "_token",
          "type": "address"
        }
      ],
      "name": "strategyAddresses",
      "outputs": [
        {
          "internalType": "address[]",
          "name": "",
          "type": "address[]"
        }
      ],
      "stateMutability": "view",
      "type": "function"
    },
    {
      "inputs": [],
      "name": "vaultManager",
      "outputs": [
        {
          "internalType": "contract IVaultManager",
          "name": "",
          "type": "address"
        }
      ],
      "stateMutability": "view",
      "type": "function"
    }
  ],
  "transactionHash": "0x8408bf6d0da5f917d4363db6a6b93f36a8f2adb97c949046f341b02d88910842",
  "args": [
    "0x2Fe58c52Dbb2F5F934B677823F3151d0663C6D56",
    "0xbf6985d14f74E9D0A3aaF40444Ab80e3CA198f12"
  ],
  "solcInputHash": "29c097734f195176561e60c2670ea13c",
  "bytecode": "0x608060405234801561001057600080fd5b506040516113a33803806113a38339818101604052604081101561003357600080fd5b508051602090910151600080546001600160a01b039384166001600160a01b031991821617909155600180549390921692169190911790556113298061007a6000396000f3fe608060405234801561001057600080fd5b50600436106100cf5760003560e01c806392eefe9b1161008c578063b543503e11610066578063b543503e146102d7578063cc2b238b146102fd578063f77c479114610323578063fb70261a1461032b576100cf565b806392eefe9b146102015780639af409dd14610227578063a71bbfd51461029d576100cf565b806331b71057146100d457806339ebf823146101045780634b704acd1461014357806366cc1857146101795780636bb3722e146101a75780638a4adf24146101dd575b600080fd5b610102600480360360408110156100ea57600080fd5b506001600160a01b0381351690602001351515610351565b005b61012a6004803603602081101561011a57600080fd5b50356001600160a01b03166104fd565b6040805192835260208301919091528051918290030190f35b6101026004803603606081101561015957600080fd5b506001600160a01b03813581169160208101359091169060400135610516565b6101026004803603604081101561018f57600080fd5b506001600160a01b03813581169160200135166106e2565b610102600480360360608110156101bd57600080fd5b506001600160a01b038135811691602081013590911690604001356107d6565b6101e5610b1d565b604080516001600160a01b039092168252519081900360200190f35b6101026004803603602081101561021757600080fd5b50356001600160a01b0316610b2c565b61024d6004803603602081101561023d57600080fd5b50356001600160a01b0316610cc2565b60408051602080825283518183015283519192839290830191858101910280838360005b83811015610289578181015183820152602001610271565b505050509050019250505060405180910390f35b6102c3600480360360208110156102b357600080fd5b50356001600160a01b0316610d3c565b604080519115158252519081900360200190f35b610102600480360360208110156102ed57600080fd5b50356001600160a01b0316610d51565b6101026004803603602081101561031357600080fd5b50356001600160a01b0316610ee5565b6101e561112f565b6102c36004803603602081101561034157600080fd5b50356001600160a01b031661113e565b60008054906101000a90046001600160a01b03166001600160a01b0316631fe4a6866040518163ffffffff1660e01b815260040160206040518083038186803b15801561039d57600080fd5b505afa1580156103b1573d6000803e3d6000fd5b505050506040513d60208110156103c757600080fd5b50516001600160a01b031633148061045e575060008054906101000a90046001600160a01b03166001600160a01b0316635aa6e6756040518163ffffffff1660e01b815260040160206040518083038186803b15801561042657600080fd5b505afa15801561043a573d6000803e3d6000fd5b505050506040513d602081101561045057600080fd5b50516001600160a01b031633145b61049d576040805162461bcd60e51b815260206004820152600b60248201526a085cdd1c985d1959da5cdd60aa1b604482015290519081900360640190fd5b6001600160a01b038216600081815260036020908152604091829020805460ff1916851515908117909155825190815291517f0dd4aeebdb71d8f88640d3361815b0e64e31aaf0ee73ad7f5a421115fac879ae9281900390910190a25050565b6002602052600090815260409020805460019091015482565b60008054906101000a90046001600160a01b03166001600160a01b0316631fe4a6866040518163ffffffff1660e01b815260040160206040518083038186803b15801561056257600080fd5b505afa158015610576573d6000803e3d6000fd5b505050506040513d602081101561058c57600080fd5b50516001600160a01b0316331480610623575060008054906101000a90046001600160a01b03166001600160a01b0316635aa6e6756040518163ffffffff1660e01b815260040160206040518083038186803b1580156105eb57600080fd5b505afa1580156105ff573d6000803e3d6000fd5b505050506040513d602081101561061557600080fd5b50516001600160a01b031633145b610662576040805162461bcd60e51b815260206004820152600b60248201526a085cdd1c985d1959da5cdd60aa1b604482015290519081900360640190fd5b6001600160a01b03838116600081815260026020818152604080842092830180546001810182559085528285200180546001600160a01b03191696891696871790559284905290859055815185815291517fc2008aa15e9b0989ec7ae02bc3d8054428c527c989269ffb2a5bff829028a0129281900390910190a3505050565b3360009081526003602052604090205460ff16610733576040805162461bcd60e51b815260206004820152600a60248201526910b430b93b32b9ba32b960b11b604482015290519081900360640190fd5b816001600160a01b03166361f13e00826040518263ffffffff1660e01b815260040180826001600160a01b03168152602001915050600060405180830381600087803b15801561078257600080fd5b505af1158015610796573d6000803e3d6000fd5b50506040516001600160a01b038085169350851691507ffdfdf879d9abdea70f1d228c39cf14f5e7179a54f36b378f29bccfe7648f333e90600090a35050565b60008054906101000a90046001600160a01b03166001600160a01b0316631fe4a6866040518163ffffffff1660e01b815260040160206040518083038186803b15801561082257600080fd5b505afa158015610836573d6000803e3d6000fd5b505050506040513d602081101561084c57600080fd5b50516001600160a01b03163314806108e3575060008054906101000a90046001600160a01b03166001600160a01b0316635aa6e6756040518163ffffffff1660e01b815260040160206040518083038186803b1580156108ab57600080fd5b505afa1580156108bf573d6000803e3d6000fd5b505050506040513d60208110156108d557600080fd5b50516001600160a01b031633145b610922576040805162461bcd60e51b815260206004820152600b60248201526a085cdd1c985d1959da5cdd60aa1b604482015290519081900360640190fd5b6001600160a01b0383166000908152600260208190526040822001549080805b838110156109b657856001600160a01b031660026000896001600160a01b03166001600160a01b03168152602001908152602001600020600201828154811061098757fe5b6000918252602090912001546001600160a01b031614156109ae57809250600191506109b6565b600101610942565b50806109f2576040805162461bcd60e51b815260206004820152600660248201526508599bdd5b9960d21b604482015290519081900360640190fd5b6001600160a01b038616600090815260026020819052604090912001610a1984600161118f565b81548110610a2357fe5b60009182526020808320909101546001600160a01b03898116845260029283905260409093209091018054929091169184908110610a5d57fe5b600091825260208083209190910180546001600160a01b0319166001600160a01b0394851617905591881681526002918290526040902001805480610a9e57fe5b60008281526020808220830160001990810180546001600160a01b03191690559092019092556001600160a01b0388811680845260028352604093849020889055835188815293519189169390927fdd3e131c7baafda30070fc3f53c5153570a3e6552809d20e2b682dd30fa7cc6e92918290030190a3505050505050565b6000546001600160a01b031681565b60008054906101000a90046001600160a01b03166001600160a01b0316631fe4a6866040518163ffffffff1660e01b815260040160206040518083038186803b158015610b7857600080fd5b505afa158015610b8c573d6000803e3d6000fd5b505050506040513d6020811015610ba257600080fd5b50516001600160a01b0316331480610c39575060008054906101000a90046001600160a01b03166001600160a01b0316635aa6e6756040518163ffffffff1660e01b815260040160206040518083038186803b158015610c0157600080fd5b505afa158015610c15573d6000803e3d6000fd5b505050506040513d6020811015610c2b57600080fd5b50516001600160a01b031633145b610c78576040805162461bcd60e51b815260206004820152600b60248201526a085cdd1c985d1959da5cdd60aa1b604482015290519081900360640190fd5b600180546001600160a01b0319166001600160a01b0383169081179091556040517f79f74fd5964b6943d8a1865abfb7f668c92fa3f32c0a2e3195da7d0946703ad790600090a250565b6001600160a01b038116600090815260026020818152604092839020909101805483518184028101840190945280845260609392830182828015610d2f57602002820191906000526020600020905b81546001600160a01b03168152600190910190602001808311610d11575b505050505090505b919050565b60036020526000908152604090205460ff1681565b60008054906101000a90046001600160a01b03166001600160a01b0316631fe4a6866040518163ffffffff1660e01b815260040160206040518083038186803b158015610d9d57600080fd5b505afa158015610db1573d6000803e3d6000fd5b505050506040513d6020811015610dc757600080fd5b50516001600160a01b0316331480610e5e575060008054906101000a90046001600160a01b03166001600160a01b0316635aa6e6756040518163ffffffff1660e01b815260040160206040518083038186803b158015610e2657600080fd5b505afa158015610e3a573d6000803e3d6000fd5b505050506040513d6020811015610e5057600080fd5b50516001600160a01b031633145b610e9d576040805162461bcd60e51b815260206004820152600b60248201526a085cdd1c985d1959da5cdd60aa1b604482015290519081900360640190fd5b600080546001600160a01b0319166001600160a01b038316908117825560405190917f8e902340d35762a5a36507c20fe38e5d549a721d9f846d6de7f397b5c26ab85391a250565b3360009081526003602052604090205460ff16610f36576040805162461bcd60e51b815260206004820152600a60248201526910b430b93b32b9ba32b960b11b604482015290519081900360640190fd5b610f3f8161113e565b610f7e576040805162461bcd60e51b815260206004820152600b60248201526a0858d85b92185c9d995cdd60aa1b604482015290519081900360640190fd5b6001600160a01b038116600090815260026020819052604082200180548290610fa357fe5b6000918252602090912001546001546001600160a01b039182169250610fca9116826106e2565b6001600160a01b03821660009081526002602081905260409091200154600181111561110d5760608167ffffffffffffffff8111801561100957600080fd5b50604051908082528060200260200182016040528015611033578160200160208202803683370190505b50905060005b600183038110156110b9576001600160a01b03851660009081526002602081905260409091200180546001830190811061106f57fe5b9060005260206000200160009054906101000a90046001600160a01b031682828151811061109957fe5b6001600160a01b0390921660209283029190910190910152600101611039565b50828160018403815181106110ca57fe5b6001600160a01b03928316602091820292909201810191909152908516600090815260028083526040909120835161110a9391909201919084019061126f565b50505b50506001600160a01b0316600090815260026020526040902042600190910155565b6001546001600160a01b031681565b6001600160a01b038116600090815260026020819052604082209081015415806111775750805461117090429061118f565b8160010154115b15611186576000915050610d37565b50600192915050565b60006111d183836040518060400160405280601e81526020017f536166654d6174683a207375627472616374696f6e206f766572666c6f7700008152506111d8565b9392505050565b600081848411156112675760405162461bcd60e51b81526004018080602001828103825283818151815260200191508051906020019080838360005b8381101561122c578181015183820152602001611214565b50505050905090810190601f1680156112595780820380516001836020036101000a031916815260200191505b509250505060405180910390fd5b505050900390565b8280548282559060005260206000209081019282156112c4579160200282015b828111156112c457825182546001600160a01b0319166001600160a01b0390911617825560209092019160019091019061128f565b506112d09291506112d4565b5090565b5b808211156112d05780546001600160a01b03191681556001016112d556fea2646970667358221220d4b3e86f84fbf7505b4b3e80f4db8128fe04b8f05628c2ae469f4152c89b6d9d64736f6c634300060c0033",
  "devdoc": {
    "kind": "dev",
    "methods": {
      "addStrategy(address,address,uint256)": {
        "params": {
          "_strategy": "The address of the strategy",
          "_timeout": "The timeout between harvests",
          "_token": "The address of the token"
        }
      },
      "canHarvest(address)": {
        "params": {
          "_token": "The address of the token"
        }
      },
      "constructor": {
        "params": {
          "_controller": "The address of the controller",
          "_vaultManager": "The address of the yAxisMetaVaultManager contract"
        }
      },
      "harvest(address,address)": {
        "details": "This function ignores the timeout",
        "params": {
          "_controller": "The address of the controller",
          "_strategy": "The address of the strategy"
        }
      },
      "harvestNextStrategy(address)": {
        "params": {
          "_token": "The address of the token"
        }
      },
      "removeStrategy(address,address,uint256)": {
        "params": {
          "_strategy": "The address of the strategy",
          "_timeout": "The timeout between harvests",
          "_token": "The address of the token"
        }
      },
      "setController(address)": {
        "params": {
          "_controller": "The address of the controller"
        }
      },
      "setHarvester(address,bool)": {
        "params": {
          "_harvester": "The address of the harvester",
          "_status": "The status to allow the harvester to harvest"
        }
      },
      "setVaultManager(address)": {
        "params": {
          "_vaultManager": "The address of the vault manager"
        }
      },
      "strategyAddresses(address)": {
        "params": {
          "_token": "The address of the token"
        }
      }
    },
    "title": "yAxisMetaVaultHarvester",
    "version": 1
  },
  "userdoc": {
    "events": {
      "ControllerSet(address)": {
        "notice": "Logged when a controller is set"
      },
      "Harvest(address,address)": {
        "notice": "Logged when harvest is called for a strategy"
      },
      "HarvesterSet(address,bool)": {
        "notice": "Logged when a harvester is set"
      },
      "StrategyAdded(address,address,uint256)": {
        "notice": "Logged when a strategy is added for a token"
      },
      "StrategyRemoved(address,address,uint256)": {
        "notice": "Logged when a strategy is removed for a token"
      },
      "VaultManagerSet(address)": {
        "notice": "Logged when a vault manger is set"
      }
    },
    "kind": "user",
    "methods": {
      "addStrategy(address,address,uint256)": {
        "notice": "Adds a strategy to the rotation for a given token and sets a timeout"
      },
      "canHarvest(address)": {
        "notice": "Returns the availability of a token's strategy to be harvested"
      },
      "harvest(address,address)": {
        "notice": "Harvests a given strategy on the provided controller"
      },
      "harvestNextStrategy(address)": {
        "notice": "Harvests the next available strategy for a given token and rotates the strategies"
      },
      "removeStrategy(address,address,uint256)": {
        "notice": "Removes a strategy from the rotation for a given token and sets a timeout"
      },
      "setController(address)": {
        "notice": "Sets the address of the controller"
      },
      "setHarvester(address,bool)": {
        "notice": "Sets the status of a harvester address to be able to call harvest functions"
      },
      "setVaultManager(address)": {
        "notice": "Sets the address of the vault manager contract"
      },
      "strategyAddresses(address)": {
        "notice": "Returns the addresses of the strategies for a given token"
      }
    },
    "notice": "This contract is to be used as a central point to call harvest on all strategies for any given token. It has its own permissions for harvesters (set by the strategist or governance).",
    "version": 1
  },
  "storageLayout": {
    "storage": [
      {
        "astId": 10849,
        "contract": "contracts/metavault/yAxisMetaVaultHarvester.sol:yAxisMetaVaultHarvester",
        "label": "vaultManager",
        "offset": 0,
        "slot": "0",
        "type": "t_contract(IVaultManager)1992"
      },
      {
        "astId": 10851,
        "contract": "contracts/metavault/yAxisMetaVaultHarvester.sol:yAxisMetaVaultHarvester",
        "label": "controller",
        "offset": 0,
        "slot": "1",
        "type": "t_contract(IController)1564"
      },
      {
        "astId": 10863,
        "contract": "contracts/metavault/yAxisMetaVaultHarvester.sol:yAxisMetaVaultHarvester",
        "label": "strategies",
        "offset": 0,
        "slot": "2",
        "type": "t_mapping(t_address,t_struct(Strategy)10859_storage)"
      },
      {
        "astId": 10867,
        "contract": "contracts/metavault/yAxisMetaVaultHarvester.sol:yAxisMetaVaultHarvester",
        "label": "isHarvester",
        "offset": 0,
        "slot": "3",
        "type": "t_mapping(t_address,t_bool)"
      }
    ],
    "types": {
      "t_address": {
        "encoding": "inplace",
        "label": "address",
        "numberOfBytes": "20"
      },
      "t_array(t_address)dyn_storage": {
        "base": "t_address",
        "encoding": "dynamic_array",
        "label": "address[]",
        "numberOfBytes": "32"
      },
      "t_bool": {
        "encoding": "inplace",
        "label": "bool",
        "numberOfBytes": "1"
      },
      "t_contract(IController)1564": {
        "encoding": "inplace",
        "label": "contract IController",
        "numberOfBytes": "20"
      },
      "t_contract(IVaultManager)1992": {
        "encoding": "inplace",
        "label": "contract IVaultManager",
        "numberOfBytes": "20"
      },
      "t_mapping(t_address,t_bool)": {
        "encoding": "mapping",
        "key": "t_address",
        "label": "mapping(address => bool)",
        "numberOfBytes": "32",
        "value": "t_bool"
      },
      "t_mapping(t_address,t_struct(Strategy)10859_storage)": {
        "encoding": "mapping",
        "key": "t_address",
        "label": "mapping(address => struct yAxisMetaVaultHarvester.Strategy)",
        "numberOfBytes": "32",
        "value": "t_struct(Strategy)10859_storage"
      },
      "t_struct(Strategy)10859_storage": {
        "encoding": "inplace",
        "label": "struct yAxisMetaVaultHarvester.Strategy",
        "members": [
          {
            "astId": 10853,
            "contract": "contracts/metavault/yAxisMetaVaultHarvester.sol:yAxisMetaVaultHarvester",
            "label": "timeout",
            "offset": 0,
            "slot": "0",
            "type": "t_uint256"
          },
          {
            "astId": 10855,
            "contract": "contracts/metavault/yAxisMetaVaultHarvester.sol:yAxisMetaVaultHarvester",
            "label": "lastCalled",
            "offset": 0,
            "slot": "1",
            "type": "t_uint256"
          },
          {
            "astId": 10858,
            "contract": "contracts/metavault/yAxisMetaVaultHarvester.sol:yAxisMetaVaultHarvester",
            "label": "addresses",
            "offset": 0,
            "slot": "2",
            "type": "t_array(t_address)dyn_storage"
          }
        ],
        "numberOfBytes": "96"
      },
      "t_uint256": {
        "encoding": "inplace",
        "label": "uint256",
        "numberOfBytes": "32"
      }
    }
  }
}