{
  "address": "0xC2A5B8A56A3259039C2eB5b749c121C237ffEcf4",
  "abi": [
    {
      "inputs": [
        {
          "internalType": "string",
          "name": "_name",
          "type": "string"
        },
        {
          "internalType": "string",
          "name": "_symbol",
          "type": "string"
        },
        {
          "internalType": "address",
          "name": "_underlyingAsset",
          "type": "address"
        }
      ],
      "stateMutability": "nonpayable",
      "type": "constructor"
    },
    {
      "anonymous": false,
      "inputs": [
        {
          "indexed": true,
          "internalType": "address",
          "name": "owner",
          "type": "address"
        },
        {
          "indexed": true,
          "internalType": "address",
          "name": "spender",
          "type": "address"
        },
        {
          "indexed": false,
          "internalType": "uint256",
          "name": "value",
          "type": "uint256"
        }
      ],
      "name": "Approval",
      "type": "event"
    },
    {
      "anonymous": false,
      "inputs": [
        {
          "indexed": true,
          "internalType": "address",
          "name": "from",
          "type": "address"
        },
        {
          "indexed": true,
          "internalType": "address",
          "name": "to",
          "type": "address"
        },
        {
          "indexed": false,
          "internalType": "uint256",
          "name": "value",
          "type": "uint256"
        }
      ],
      "name": "Transfer",
      "type": "event"
    },
    {
      "inputs": [
        {
          "internalType": "address",
          "name": "owner",
          "type": "address"
        },
        {
          "internalType": "address",
          "name": "spender",
          "type": "address"
        }
      ],
      "name": "allowance",
      "outputs": [
        {
          "internalType": "uint256",
          "name": "",
          "type": "uint256"
        }
      ],
      "stateMutability": "view",
      "type": "function"
    },
    {
      "inputs": [
        {
          "internalType": "address",
          "name": "spender",
          "type": "address"
        },
        {
          "internalType": "uint256",
          "name": "amount",
          "type": "uint256"
        }
      ],
      "name": "approve",
      "outputs": [
        {
          "internalType": "bool",
          "name": "",
          "type": "bool"
        }
      ],
      "stateMutability": "nonpayable",
      "type": "function"
    },
    {
      "inputs": [
        {
          "internalType": "address",
          "name": "account",
          "type": "address"
        }
      ],
      "name": "balanceOf",
      "outputs": [
        {
          "internalType": "uint256",
          "name": "",
          "type": "uint256"
        }
      ],
      "stateMutability": "view",
      "type": "function"
    },
    {
      "inputs": [],
      "name": "decimals",
      "outputs": [
        {
          "internalType": "uint8",
          "name": "",
          "type": "uint8"
        }
      ],
      "stateMutability": "view",
      "type": "function"
    },
    {
      "inputs": [
        {
          "internalType": "address",
          "name": "spender",
          "type": "address"
        },
        {
          "internalType": "uint256",
          "name": "subtractedValue",
          "type": "uint256"
        }
      ],
      "name": "decreaseAllowance",
      "outputs": [
        {
          "internalType": "bool",
          "name": "",
          "type": "bool"
        }
      ],
      "stateMutability": "nonpayable",
      "type": "function"
    },
    {
      "inputs": [
        {
          "internalType": "uint256",
          "name": "_amount",
          "type": "uint256"
        }
      ],
      "name": "deposit",
      "outputs": [],
      "stateMutability": "nonpayable",
      "type": "function"
    },
    {
      "inputs": [],
      "name": "endFee",
      "outputs": [
        {
          "internalType": "uint256",
          "name": "",
          "type": "uint256"
        }
      ],
      "stateMutability": "view",
      "type": "function"
    },
    {
      "inputs": [],
      "name": "feeDuration",
      "outputs": [
        {
          "internalType": "uint256",
          "name": "",
          "type": "uint256"
        }
      ],
      "stateMutability": "view",
      "type": "function"
    },
    {
      "inputs": [
        {
          "internalType": "address",
          "name": "spender",
          "type": "address"
        },
        {
          "internalType": "uint256",
          "name": "addedValue",
          "type": "uint256"
        }
      ],
      "name": "increaseAllowance",
      "outputs": [
        {
          "internalType": "bool",
          "name": "",
          "type": "bool"
        }
      ],
      "stateMutability": "nonpayable",
      "type": "function"
    },
    {
      "inputs": [],
      "name": "initialFee",
      "outputs": [
        {
          "internalType": "uint256",
          "name": "",
          "type": "uint256"
        }
      ],
      "stateMutability": "view",
      "type": "function"
    },
    {
      "inputs": [],
      "name": "name",
      "outputs": [
        {
          "internalType": "string",
          "name": "",
          "type": "string"
        }
      ],
      "stateMutability": "view",
      "type": "function"
    },
    {
      "inputs": [],
      "name": "pricePerToken",
      "outputs": [
        {
          "internalType": "uint256",
          "name": "",
          "type": "uint256"
        }
      ],
      "stateMutability": "view",
      "type": "function"
    },
    {
      "inputs": [
        {
          "internalType": "uint256",
          "name": "_amount",
          "type": "uint256"
        }
      ],
      "name": "redeem",
      "outputs": [],
      "stateMutability": "nonpayable",
      "type": "function"
    },
    {
      "inputs": [],
      "name": "symbol",
      "outputs": [
        {
          "internalType": "string",
          "name": "",
          "type": "string"
        }
      ],
      "stateMutability": "view",
      "type": "function"
    },
    {
      "inputs": [],
      "name": "totalSupply",
      "outputs": [
        {
          "internalType": "uint256",
          "name": "",
          "type": "uint256"
        }
      ],
      "stateMutability": "view",
      "type": "function"
    },
    {
      "inputs": [
        {
          "internalType": "address",
          "name": "recipient",
          "type": "address"
        },
        {
          "internalType": "uint256",
          "name": "amount",
          "type": "uint256"
        }
      ],
      "name": "transfer",
      "outputs": [
        {
          "internalType": "bool",
          "name": "",
          "type": "bool"
        }
      ],
      "stateMutability": "nonpayable",
      "type": "function"
    },
    {
      "inputs": [
        {
          "internalType": "address",
          "name": "sender",
          "type": "address"
        },
        {
          "internalType": "address",
          "name": "recipient",
          "type": "address"
        },
        {
          "internalType": "uint256",
          "name": "amount",
          "type": "uint256"
        }
      ],
      "name": "transferFrom",
      "outputs": [
        {
          "internalType": "bool",
          "name": "",
          "type": "bool"
        }
      ],
      "stateMutability": "nonpayable",
      "type": "function"
    },
    {
      "inputs": [],
      "name": "underlyingAsset",
      "outputs": [
        {
          "internalType": "address",
          "name": "",
          "type": "address"
        }
      ],
      "stateMutability": "view",
      "type": "function"
    }
  ],
  "transactionHash": "0xb98e71c669b4909d78e5bdcec721ec0bdbb7ffe5512b1e4d59ec917fb9da8822",
  "args": [
    "Stabilize Token DAI",
    "zpa-DAI",
    "0x59Dd2C19F322f7457C34C73023cC7dA1fde4063d"
  ],
  "solcInputHash": "0dafef0f9d3baf21ab7d835401fdfdba",
  "bytecode": "0x60806040526103e8600655606460075562093a806008553480156200002357600080fd5b50604051620016e4380380620016e4833981810160405260608110156200004957600080fd5b81019080805160405193929190846401000000008211156200006a57600080fd5b9083019060208201858111156200008057600080fd5b82516401000000008111828201881017156200009b57600080fd5b82525081516020918201929091019080838360005b83811015620000ca578181015183820152602001620000b0565b50505050905090810190601f168015620000f85780820380516001836020036101000a031916815260200191505b50604052602001805160405193929190846401000000008211156200011c57600080fd5b9083019060208201858111156200013257600080fd5b82516401000000008111828201881017156200014d57600080fd5b82525081516020918201929091019080838360005b838110156200017c57818101518382015260200162000162565b50505050905090810190601f168015620001aa5780820380516001836020036101000a031916815260200191505b5060405260209081015185519093508592508491620001cf9160039185019062000222565b508051620001e590600490602084019062000222565b5050600580546001600160a01b0390931661010002610100600160a81b031960ff19909416601217939093169290921790915550620002be915050565b828054600181600116156101000203166002900490600052602060002090601f016020900481019282601f106200026557805160ff191683800117855562000295565b8280016001018555821562000295579182015b828111156200029557825182559160200191906001019062000278565b50620002a3929150620002a7565b5090565b5b80821115620002a35760008155600101620002a8565b61141680620002ce6000396000f3fe608060405234801561001057600080fd5b50600436106101165760003560e01c80637158da7c116100a2578063a457c2d711610071578063a457c2d7146102e4578063a9059cbb14610310578063b6b55f251461033c578063db006a751461035b578063dd62ed3e1461037857610116565b80637158da7c146102a85780637b1b1de6146102cc57806395d89b41146102d45780639c00316e146102dc57610116565b806323b872dd116100e957806323b872dd146101fa578063313ce5671461023057806332ef9c871461024e578063395093511461025657806370a082311461028257610116565b806306fdde031461011b578063095ea7b3146101985780630a7d39f0146101d857806318160ddd146101f2575b600080fd5b6101236103a6565b6040805160208082528351818301528351919283929083019185019080838360005b8381101561015d578181015183820152602001610145565b50505050905090810190601f16801561018a5780820380516001836020036101000a031916815260200191505b509250505060405180910390f35b6101c4600480360360408110156101ae57600080fd5b506001600160a01b03813516906020013561043c565b604080519115158252519081900360200190f35b6101e061045a565b60408051918252519081900360200190f35b6101e0610460565b6101c46004803603606081101561021057600080fd5b506001600160a01b03813581169160208101359091169060400135610466565b6102386104ee565b6040805160ff9092168252519081900360200190f35b6101e06104f7565b6101c46004803603604081101561026c57600080fd5b506001600160a01b0381351690602001356104fd565b6101e06004803603602081101561029857600080fd5b50356001600160a01b031661054b565b6102b0610566565b604080516001600160a01b039092168252519081900360200190f35b6101e061057a565b610123610586565b6101e06105e7565b6101c4600480360360408110156102fa57600080fd5b506001600160a01b0381351690602001356105ed565b6101c46004803603604081101561032657600080fd5b506001600160a01b038135169060200135610655565b6103596004803603602081101561035257600080fd5b5035610669565b005b6103596004803603602081101561037157600080fd5b50356106e3565b6101e06004803603604081101561038e57600080fd5b506001600160a01b0381358116916020013516610855565b60038054604080516020601f60026000196101006001881615020190951694909404938401819004810282018101909252828152606093909290918301828280156104325780601f1061040757610100808354040283529160200191610432565b820191906000526020600020905b81548152906001019060200180831161041557829003601f168201915b5050505050905090565b6000610450610449610880565b8484610884565b5060015b92915050565b60075481565b60025490565b6000610473848484610970565b6104e38461047f610880565b6104de85604051806060016040528060288152602001611300602891396001600160a01b038a166000908152600160205260408120906104bd610880565b6001600160a01b031681526020810191909152604001600020549190610acb565b610884565b5060015b9392505050565b60055460ff1690565b60085481565b600061045061050a610880565b846104de856001600061051b610880565b6001600160a01b03908116825260208083019390935260409182016000908120918c168152925290205490610b62565b6001600160a01b031660009081526020819052604090205490565b60055461010090046001600160a01b031681565b671bc16d674ec8000090565b60048054604080516020601f60026000196101006001881615020190951694909404938401819004810282018101909252828152606093909290918301828280156104325780601f1061040757610100808354040283529160200191610432565b60065481565b60006104506105fa610880565b846104de856040518060600160405280602581526020016113bc6025913960016000610624610880565b6001600160a01b03908116825260208083019390935260409182016000908120918d16815292529020549190610acb565b6000610450610662610880565b8484610970565b600061068e61067661057a565b61068884670de0b6b3a7640000610bbc565b90610c15565b6005549091506106ae9061010090046001600160a01b0316333085610c57565b6106b83382610cb1565b42600960006106c5610880565b6001600160a01b031681526020810191909152604001600020555050565b6000610703670de0b6b3a76400006106886106fc61057a565b8590610bbc565b905061070f3383610da1565b6009600061071b610880565b6001600160a01b03168152602081019190915260400160002054610761574260096000610746610880565b6001600160a01b031681526020810191909152604001600020555b60006107b160085461068861079c6009600061077b610880565b6001600160a01b031681526020810191909152604001600020544290610e9d565b6007546006546107ab91610e9d565b90610bbc565b90506107ca600754600654610e9d90919063ffffffff16565b8111156107e3576007546006546107e091610e9d565b90505b6006546000906107f39083610e9d565b9050610806620186a06106888584610bbc565b90506108128382610e9d565b6005549093506108319061010090046001600160a01b03163385610edf565b60055461084f9061010090046001600160a01b031661dead83610edf565b50505050565b6001600160a01b03918216600090815260016020908152604080832093909416825291909152205490565b3390565b6001600160a01b0383166108c95760405162461bcd60e51b815260040180806020018281038252602481526020018061136e6024913960400191505060405180910390fd5b6001600160a01b03821661090e5760405162461bcd60e51b81526004018080602001828103825260228152602001806112716022913960400191505060405180910390fd5b6001600160a01b03808416600081815260016020908152604080832094871680845294825291829020859055815185815291517f8c5be1e5ebec7d5bd14f71427d1e84f3dd0314c0f7b2291e5b200ac8c7c3b9259281900390910190a3505050565b6001600160a01b0383166109b55760405162461bcd60e51b81526004018080602001828103825260258152602001806113496025913960400191505060405180910390fd5b6001600160a01b0382166109fa5760405162461bcd60e51b815260040180806020018281038252602381526020018061122c6023913960400191505060405180910390fd5b610a05838383610f31565b610a4281604051806060016040528060268152602001611293602691396001600160a01b0386166000908152602081905260409020549190610acb565b6001600160a01b038085166000908152602081905260408082209390935590841681522054610a719082610b62565b6001600160a01b038084166000818152602081815260409182902094909455805185815290519193928716927fddf252ad1be2c89b69c2b068fc378daa952ba7f163c4a11628f55a4df523b3ef92918290030190a3505050565b60008184841115610b5a5760405162461bcd60e51b81526004018080602001828103825283818151815260200191508051906020019080838360005b83811015610b1f578181015183820152602001610b07565b50505050905090810190601f168015610b4c5780820380516001836020036101000a031916815260200191505b509250505060405180910390fd5b505050900390565b6000828201838110156104e7576040805162461bcd60e51b815260206004820152601b60248201527f536166654d6174683a206164646974696f6e206f766572666c6f770000000000604482015290519081900360640190fd5b600082610bcb57506000610454565b82820282848281610bd857fe5b04146104e75760405162461bcd60e51b81526004018080602001828103825260218152602001806112df6021913960400191505060405180910390fd5b60006104e783836040518060400160405280601a81526020017f536166654d6174683a206469766973696f6e206279207a65726f000000000000815250610f36565b604080516001600160a01b0380861660248301528416604482015260648082018490528251808303909101815260849091019091526020810180516001600160e01b03166323b872dd60e01b17905261084f908590610f9b565b6001600160a01b038216610d0c576040805162461bcd60e51b815260206004820152601f60248201527f45524332303a206d696e7420746f20746865207a65726f206164647265737300604482015290519081900360640190fd5b610d1860008383610f31565b600254610d259082610b62565b6002556001600160a01b038216600090815260208190526040902054610d4b9082610b62565b6001600160a01b0383166000818152602081815260408083209490945583518581529351929391927fddf252ad1be2c89b69c2b068fc378daa952ba7f163c4a11628f55a4df523b3ef9281900390910190a35050565b6001600160a01b038216610de65760405162461bcd60e51b81526004018080602001828103825260218152602001806113286021913960400191505060405180910390fd5b610df282600083610f31565b610e2f8160405180606001604052806022815260200161124f602291396001600160a01b0385166000908152602081905260409020549190610acb565b6001600160a01b038316600090815260208190526040902055600254610e559082610e9d565b6002556040805182815290516000916001600160a01b038516917fddf252ad1be2c89b69c2b068fc378daa952ba7f163c4a11628f55a4df523b3ef9181900360200190a35050565b60006104e783836040518060400160405280601e81526020017f536166654d6174683a207375627472616374696f6e206f766572666c6f770000815250610acb565b604080516001600160a01b038416602482015260448082018490528251808303909101815260649091019091526020810180516001600160e01b031663a9059cbb60e01b179052610f31908490610f9b565b505050565b60008183610f855760405162461bcd60e51b8152602060048201818152835160248401528351909283926044909101919085019080838360008315610b1f578181015183820152602001610b07565b506000838581610f9157fe5b0495945050505050565b6060610ff0826040518060400160405280602081526020017f5361666545524332303a206c6f772d6c6576656c2063616c6c206661696c6564815250856001600160a01b031661104c9092919063ffffffff16565b805190915015610f315780806020019051602081101561100f57600080fd5b5051610f315760405162461bcd60e51b815260040180806020018281038252602a815260200180611392602a913960400191505060405180910390fd5b606061105b8484600085611063565b949350505050565b6060824710156110a45760405162461bcd60e51b81526004018080602001828103825260268152602001806112b96026913960400191505060405180910390fd5b6110ad856111bf565b6110fe576040805162461bcd60e51b815260206004820152601d60248201527f416464726573733a2063616c6c20746f206e6f6e2d636f6e7472616374000000604482015290519081900360640190fd5b60006060866001600160a01b031685876040518082805190602001908083835b6020831061113d5780518252601f19909201916020918201910161111e565b6001836020036101000a03801982511681845116808217855250505050505090500191505060006040518083038185875af1925050503d806000811461119f576040519150601f19603f3d011682016040523d82523d6000602084013e6111a4565b606091505b50915091506111b48282866111c5565b979650505050505050565b3b151590565b606083156111d45750816104e7565b8251156111e45782518084602001fd5b60405162461bcd60e51b8152602060048201818152845160248401528451859391928392604401919085019080838360008315610b1f578181015183820152602001610b0756fe45524332303a207472616e7366657220746f20746865207a65726f206164647265737345524332303a206275726e20616d6f756e7420657863656564732062616c616e636545524332303a20617070726f766520746f20746865207a65726f206164647265737345524332303a207472616e7366657220616d6f756e7420657863656564732062616c616e6365416464726573733a20696e73756666696369656e742062616c616e636520666f722063616c6c536166654d6174683a206d756c7469706c69636174696f6e206f766572666c6f7745524332303a207472616e7366657220616d6f756e74206578636565647320616c6c6f77616e636545524332303a206275726e2066726f6d20746865207a65726f206164647265737345524332303a207472616e736665722066726f6d20746865207a65726f206164647265737345524332303a20617070726f76652066726f6d20746865207a65726f20616464726573735361666545524332303a204552433230206f7065726174696f6e20646964206e6f74207375636365656445524332303a2064656372656173656420616c6c6f77616e63652062656c6f77207a65726fa264697066735822122061d3e34ed495e2869439b6c0ea0a6c0f0c52688a65aaa04f1693fc6dcd515e2164736f6c634300060c0033",
  "devdoc": {
    "kind": "dev",
    "methods": {
      "allowance(address,address)": {
        "details": "See {IERC20-allowance}."
      },
      "approve(address,uint256)": {
        "details": "See {IERC20-approve}. Requirements: - `spender` cannot be the zero address."
      },
      "balanceOf(address)": {
        "details": "See {IERC20-balanceOf}."
      },
      "decimals()": {
        "details": "Returns the number of decimals used to get its user representation. For example, if `decimals` equals `2`, a balance of `505` tokens should be displayed to a user as `5,05` (`505 / 10 ** 2`). Tokens usually opt for a value of 18, imitating the relationship between Ether and Wei. This is the value {ERC20} uses, unless {_setupDecimals} is called. NOTE: This information is only used for _display_ purposes: it in no way affects any of the arithmetic of the contract, including {IERC20-balanceOf} and {IERC20-transfer}."
      },
      "decreaseAllowance(address,uint256)": {
        "details": "Atomically decreases the allowance granted to `spender` by the caller. This is an alternative to {approve} that can be used as a mitigation for problems described in {IERC20-approve}. Emits an {Approval} event indicating the updated allowance. Requirements: - `spender` cannot be the zero address. - `spender` must have allowance for the caller of at least `subtractedValue`."
      },
      "increaseAllowance(address,uint256)": {
        "details": "Atomically increases the allowance granted to `spender` by the caller. This is an alternative to {approve} that can be used as a mitigation for problems described in {IERC20-approve}. Emits an {Approval} event indicating the updated allowance. Requirements: - `spender` cannot be the zero address."
      },
      "name()": {
        "details": "Returns the name of the token."
      },
      "symbol()": {
        "details": "Returns the symbol of the token, usually a shorter version of the name."
      },
      "totalSupply()": {
        "details": "See {IERC20-totalSupply}."
      },
      "transfer(address,uint256)": {
        "details": "See {IERC20-transfer}. Requirements: - `recipient` cannot be the zero address. - the caller must have a balance of at least `amount`."
      },
      "transferFrom(address,address,uint256)": {
        "details": "See {IERC20-transferFrom}. Emits an {Approval} event indicating the updated allowance. This is not required by the EIP. See the note at the beginning of {ERC20}. Requirements: - `sender` and `recipient` cannot be the zero address. - `sender` must have a balance of at least `amount`. - the caller must have allowance for ``sender``'s tokens of at least `amount`."
      }
    },
    "version": 1
  },
  "userdoc": {
    "kind": "user",
    "methods": {},
    "version": 1
  },
  "storageLayout": {
    "storage": [
      {
        "astId": 235,
        "contract": "contracts/metavault/mock/MockzpaToken.sol:MockzpaToken",
        "label": "_balances",
        "offset": 0,
        "slot": "0",
        "type": "t_mapping(t_address,t_uint256)"
      },
      {
        "astId": 241,
        "contract": "contracts/metavault/mock/MockzpaToken.sol:MockzpaToken",
        "label": "_allowances",
        "offset": 0,
        "slot": "1",
        "type": "t_mapping(t_address,t_mapping(t_address,t_uint256))"
      },
      {
        "astId": 243,
        "contract": "contracts/metavault/mock/MockzpaToken.sol:MockzpaToken",
        "label": "_totalSupply",
        "offset": 0,
        "slot": "2",
        "type": "t_uint256"
      },
      {
        "astId": 245,
        "contract": "contracts/metavault/mock/MockzpaToken.sol:MockzpaToken",
        "label": "_name",
        "offset": 0,
        "slot": "3",
        "type": "t_string_storage"
      },
      {
        "astId": 247,
        "contract": "contracts/metavault/mock/MockzpaToken.sol:MockzpaToken",
        "label": "_symbol",
        "offset": 0,
        "slot": "4",
        "type": "t_string_storage"
      },
      {
        "astId": 249,
        "contract": "contracts/metavault/mock/MockzpaToken.sol:MockzpaToken",
        "label": "_decimals",
        "offset": 0,
        "slot": "5",
        "type": "t_uint8"
      },
      {
        "astId": 6553,
        "contract": "contracts/metavault/mock/MockzpaToken.sol:MockzpaToken",
        "label": "underlyingAsset",
        "offset": 1,
        "slot": "5",
        "type": "t_address"
      },
      {
        "astId": 6557,
        "contract": "contracts/metavault/mock/MockzpaToken.sol:MockzpaToken",
        "label": "initialFee",
        "offset": 0,
        "slot": "6",
        "type": "t_uint256"
      },
      {
        "astId": 6561,
        "contract": "contracts/metavault/mock/MockzpaToken.sol:MockzpaToken",
        "label": "endFee",
        "offset": 0,
        "slot": "7",
        "type": "t_uint256"
      },
      {
        "astId": 6565,
        "contract": "contracts/metavault/mock/MockzpaToken.sol:MockzpaToken",
        "label": "feeDuration",
        "offset": 0,
        "slot": "8",
        "type": "t_uint256"
      },
      {
        "astId": 6572,
        "contract": "contracts/metavault/mock/MockzpaToken.sol:MockzpaToken",
        "label": "userInfo",
        "offset": 0,
        "slot": "9",
        "type": "t_mapping(t_address,t_struct(UserInfo)6568_storage)"
      }
    ],
    "types": {
      "t_address": {
        "encoding": "inplace",
        "label": "address",
        "numberOfBytes": "20"
      },
      "t_mapping(t_address,t_mapping(t_address,t_uint256))": {
        "encoding": "mapping",
        "key": "t_address",
        "label": "mapping(address => mapping(address => uint256))",
        "numberOfBytes": "32",
        "value": "t_mapping(t_address,t_uint256)"
      },
      "t_mapping(t_address,t_struct(UserInfo)6568_storage)": {
        "encoding": "mapping",
        "key": "t_address",
        "label": "mapping(address => struct MockzpaToken.UserInfo)",
        "numberOfBytes": "32",
        "value": "t_struct(UserInfo)6568_storage"
      },
      "t_mapping(t_address,t_uint256)": {
        "encoding": "mapping",
        "key": "t_address",
        "label": "mapping(address => uint256)",
        "numberOfBytes": "32",
        "value": "t_uint256"
      },
      "t_string_storage": {
        "encoding": "bytes",
        "label": "string",
        "numberOfBytes": "32"
      },
      "t_struct(UserInfo)6568_storage": {
        "encoding": "inplace",
        "label": "struct MockzpaToken.UserInfo",
        "members": [
          {
            "astId": 6567,
            "contract": "contracts/metavault/mock/MockzpaToken.sol:MockzpaToken",
            "label": "depositTime",
            "offset": 0,
            "slot": "0",
            "type": "t_uint256"
          }
        ],
        "numberOfBytes": "32"
      },
      "t_uint256": {
        "encoding": "inplace",
        "label": "uint256",
        "numberOfBytes": "32"
      },
      "t_uint8": {
        "encoding": "inplace",
        "label": "uint8",
        "numberOfBytes": "1"
      }
    }
  }
}